{
  "contractName": "Campaign",
  "abi": [
    {
      "inputs": [
        {
          "internalType": "uint256",
          "name": "minimum",
          "type": "uint256"
        },
        {
          "internalType": "address",
          "name": "creator",
          "type": "address"
        },
        {
          "internalType": "string",
          "name": "title",
          "type": "string"
        }
      ],
      "stateMutability": "nonpayable",
      "type": "constructor"
    },
    {
      "inputs": [
        {
          "internalType": "uint256",
          "name": "index",
          "type": "uint256"
        }
      ],
      "name": "approveRequest",
      "outputs": [],
      "stateMutability": "nonpayable",
      "type": "function"
    },
    {
      "inputs": [
        {
          "internalType": "address",
          "name": "",
          "type": "address"
        }
      ],
      "name": "approvers",
      "outputs": [
        {
          "internalType": "bool",
          "name": "",
          "type": "bool"
        }
      ],
      "stateMutability": "view",
      "type": "function"
    },
    {
      "inputs": [],
      "name": "approversCount",
      "outputs": [
        {
          "internalType": "uint256",
          "name": "",
          "type": "uint256"
        }
      ],
      "stateMutability": "view",
      "type": "function"
    },
    {
      "inputs": [],
      "name": "contribute",
      "outputs": [],
      "stateMutability": "payable",
      "type": "function"
    },
    {
      "inputs": [
        {
          "internalType": "string",
          "name": "description",
          "type": "string"
        },
        {
          "internalType": "uint256",
          "name": "value",
          "type": "uint256"
        },
        {
          "internalType": "address",
          "name": "recipient",
          "type": "address"
        }
      ],
      "name": "createRequest",
      "outputs": [],
      "stateMutability": "nonpayable",
      "type": "function"
    },
    {
      "inputs": [
        {
          "internalType": "uint256",
          "name": "index",
          "type": "uint256"
        }
      ],
      "name": "finalizeRequest",
      "outputs": [],
      "stateMutability": "nonpayable",
      "type": "function"
    },
    {
      "inputs": [],
      "name": "getSummary",
      "outputs": [
        {
          "internalType": "uint256",
          "name": "",
          "type": "uint256"
        },
        {
          "internalType": "uint256",
          "name": "",
          "type": "uint256"
        },
        {
          "internalType": "uint256",
          "name": "",
          "type": "uint256"
        },
        {
          "internalType": "uint256",
          "name": "",
          "type": "uint256"
        },
        {
          "internalType": "address",
          "name": "",
          "type": "address"
        },
        {
          "internalType": "string",
          "name": "",
          "type": "string"
        }
      ],
      "stateMutability": "view",
      "type": "function"
    },
    {
      "inputs": [],
      "name": "manager",
      "outputs": [
        {
          "internalType": "address",
          "name": "",
          "type": "address"
        }
      ],
      "stateMutability": "view",
      "type": "function"
    },
    {
      "inputs": [],
      "name": "minimumContribution",
      "outputs": [
        {
          "internalType": "uint256",
          "name": "",
          "type": "uint256"
        }
      ],
      "stateMutability": "view",
      "type": "function"
    },
    {
      "inputs": [],
      "name": "requestCount",
      "outputs": [
        {
          "internalType": "uint256",
          "name": "",
          "type": "uint256"
        }
      ],
      "stateMutability": "view",
      "type": "function"
    },
    {
      "inputs": [
        {
          "internalType": "uint256",
          "name": "",
          "type": "uint256"
        }
      ],
      "name": "requests",
      "outputs": [
        {
          "internalType": "string",
          "name": "description",
          "type": "string"
        },
        {
          "internalType": "uint256",
          "name": "value",
          "type": "uint256"
        },
        {
          "internalType": "address",
          "name": "recipient",
          "type": "address"
        },
        {
          "internalType": "bool",
          "name": "complete",
          "type": "bool"
        },
        {
          "internalType": "uint256",
          "name": "approvalCount",
          "type": "uint256"
        }
      ],
      "stateMutability": "view",
      "type": "function"
    },
    {
      "inputs": [],
      "name": "titleCompaign",
      "outputs": [
        {
          "internalType": "string",
          "name": "",
          "type": "string"
        }
      ],
      "stateMutability": "view",
      "type": "function"
    }
  ],
  "bytecode": "60806040523480156200001157600080fd5b5060405162000d3a38038062000d3a833981016040819052620000349162000082565b600080546001600160a01b0319166001600160a01b038416179055600283905560016200006282826200021b565b50505050620002e7565b634e487b7160e01b600052604160045260246000fd5b6000806000606084860312156200009857600080fd5b8351602080860151919450906001600160a01b0381168114620000ba57600080fd5b60408601519093506001600160401b0380821115620000d857600080fd5b818701915087601f830112620000ed57600080fd5b8151818111156200010257620001026200006c565b604051601f8201601f19908116603f011681019083821181831017156200012d576200012d6200006c565b816040528281528a868487010111156200014657600080fd5b600093505b828410156200016a57848401860151818501870152928501926200014b565b828411156200017c5760008684830101525b8096505050505050509250925092565b600181811c90821680620001a157607f821691505b602082108103620001c257634e487b7160e01b600052602260045260246000fd5b50919050565b601f8211156200021657600081815260208120601f850160051c81016020861015620001f15750805b601f850160051c820191505b818110156200021257828155600101620001fd565b5050505b505050565b81516001600160401b038111156200023757620002376200006c565b6200024f816200024884546200018c565b84620001c8565b602080601f8311600181146200028757600084156200026e5750858301515b600019600386901b1c1916600185901b17855562000212565b600085815260208120601f198616915b82811015620002b85788860151825594840194600190910190840162000297565b5085821015620002d75787850151600019600388901b60f8161c191681555b5050505050600190811b01905550565b610a4380620002f76000396000f3fe6080604052600436106100a75760003560e01c806381d12c581161006457806381d12c58146101b857806382fde093146101e95780638a9cfd55146101ff578063937e09b11461021f578063d7bb99ba14610235578063d7d1bbdb1461023d57600080fd5b806303441006146100ac5780630a144391146100ce57806332461bd8146101135780634051ddac14610135578063481c6a751461015c5780635badbe4c14610194575b600080fd5b3480156100b857600080fd5b506100cc6100c736600461065e565b61025d565b005b3480156100da57600080fd5b506100fe6100e9366004610693565b60036020526000908152604090205460ff1681565b60405190151581526020015b60405180910390f35b34801561011f57600080fd5b50610128610311565b60405161010a9190610702565b34801561014157600080fd5b5061014a61039f565b60405161010a96959493929190610715565b34801561016857600080fd5b5060005461017c906001600160a01b031681565b6040516001600160a01b03909116815260200161010a565b3480156101a057600080fd5b506101aa60055481565b60405190815260200161010a565b3480156101c457600080fd5b506101d86101d336600461065e565b610469565b60405161010a95949392919061075a565b3480156101f557600080fd5b506101aa60065481565b34801561020b57600080fd5b506100cc61021a3660046107b0565b610530565b34801561022b57600080fd5b506101aa60025481565b6100cc6105a3565b34801561024957600080fd5b506100cc61025836600461065e565b6105e1565b6000546001600160a01b0316331461027457600080fd5b60008181526004602052604090206002810154600160a01b900460ff161561029b57600080fd5b60026006546102aa919061087b565b8160030154116102b957600080fd5b600281015460018201546040516001600160a01b039092169181156108fc0291906000818181858888f193505050501580156102f9573d6000803e3d6000fd5b50600201805460ff60a01b1916600160a01b17905550565b6001805461031e9061089d565b80601f016020809104026020016040519081016040528092919081815260200182805461034a9061089d565b80156103975780601f1061036c57610100808354040283529160200191610397565b820191906000526020600020905b81548152906001019060200180831161037a57829003601f168201915b505050505081565b600080600080600060606002544760055460065460008054906101000a90046001600160a01b031660018080546103d59061089d565b80601f01602080910402602001604051908101604052809291908181526020018280546104019061089d565b801561044e5780601f106104235761010080835404028352916020019161044e565b820191906000526020600020905b81548152906001019060200180831161043157829003601f168201915b50505050509050955095509550955095509550909192939495565b6004602052600090815260409020805481906104849061089d565b80601f01602080910402602001604051908101604052809291908181526020018280546104b09061089d565b80156104fd5780601f106104d2576101008083540402835291602001916104fd565b820191906000526020600020905b8154815290600101906020018083116104e057829003601f168201915b5050505060018301546002840154600390940154929390926001600160a01b0382169250600160a01b90910460ff169085565b6000546001600160a01b0316331461054757600080fd5b6005546000908152600460205260409020806105638582610926565b50600181018390556002810180546001600160a81b0319166001600160a01b03841617905560058054906000610598836109e6565b919050555050505050565b6002543410156105b257600080fd5b336000908152600360205260408120805460ff1916600117905560068054916105da836109e6565b9190505550565b600081815260046020908152604080832033845260039092529091205460ff1661060a57600080fd5b33600090815260048201602052604090205460ff161561062957600080fd5b3360009081526004820160205260408120805460ff1916600117905560038201805491610655836109e6565b91905055505050565b60006020828403121561067057600080fd5b5035919050565b80356001600160a01b038116811461068e57600080fd5b919050565b6000602082840312156106a557600080fd5b6106ae82610677565b9392505050565b6000815180845260005b818110156106db576020818501810151868301820152016106bf565b818111156106ed576000602083870101525b50601f01601f19169290920160200192915050565b6020815260006106ae60208301846106b5565b86815285602082015284604082015283606082015260018060a01b038316608082015260c060a0820152600061074e60c08301846106b5565b98975050505050505050565b60a08152600061076d60a08301886106b5565b6020830196909652506001600160a01b039390931660408401529015156060830152608090910152919050565b634e487b7160e01b600052604160045260246000fd5b6000806000606084860312156107c557600080fd5b833567ffffffffffffffff808211156107dd57600080fd5b818601915086601f8301126107f157600080fd5b8135818111156108035761080361079a565b604051601f8201601f19908116603f0116810190838211818310171561082b5761082b61079a565b8160405282815289602084870101111561084457600080fd5b8260208601602083013760006020848301015280975050505050506020840135915061087260408501610677565b90509250925092565b60008261089857634e487b7160e01b600052601260045260246000fd5b500490565b600181811c908216806108b157607f821691505b6020821081036108d157634e487b7160e01b600052602260045260246000fd5b50919050565b601f82111561092157600081815260208120601f850160051c810160208610156108fe5750805b601f850160051c820191505b8181101561091d5782815560010161090a565b5050505b505050565b815167ffffffffffffffff8111156109405761094061079a565b6109548161094e845461089d565b846108d7565b602080601f83116001811461098957600084156109715750858301515b600019600386901b1c1916600185901b17855561091d565b600085815260208120601f198616915b828110156109b857888601518255948401946001909101908401610999565b50858210156109d65787850151600019600388901b60f8161c191681555b5050505050600190811b01905550565b600060018201610a0657634e487b7160e01b600052601160045260246000fd5b506001019056fea2646970667358221220d5be1d01a7d57426fdd41a973562e036926c082de665f439429f0a94c5bdc1b464736f6c634300080f0033",
  "sourcePath": "d:/CNM/crowdfunding-CNM/ethereum/contracts/campaign.sol",
  "compiler": {
    "name": "solc",
    "version": "0.8.15+commit.e14f2714"
  },
  "functionHashes": {
    "approveRequest(uint256)": "d7d1bbdb",
    "approvers(address)": "0a144391",
    "approversCount()": "82fde093",
    "contribute()": "d7bb99ba",
    "createRequest(string,uint256,address)": "8a9cfd55",
    "finalizeRequest(uint256)": "03441006",
    "getSummary()": "4051ddac",
    "manager()": "481c6a75",
    "minimumContribution()": "937e09b1",
    "requestCount()": "5badbe4c",
    "requests(uint256)": "81d12c58",
    "titleCompaign()": "32461bd8"
  },
  "gasEstimates": {
    "creation": {
      "codeDepositCost": "525400",
      "executionCost": "infinite",
      "totalCost": "infinite"
    },
    "external": {
      "approveRequest(uint256)": "53388",
      "approvers(address)": "2543",
      "approversCount()": "2317",
      "contribute()": "50908",
      "createRequest(string,uint256,address)": "infinite",
      "finalizeRequest(uint256)": "infinite",
      "getSummary()": "infinite",
      "manager()": "2426",
      "minimumContribution()": "2361",
      "requestCount()": "2406",
      "requests(uint256)": "infinite",
      "titleCompaign()": "infinite"
    }
  }
}