{"abi":[{"inputs":[{"internalType":"uint256","name":"","type":"uint256"}],"name":"campaigns","outputs":[{"internalType":"address","name":"campaign","type":"address"},{"internalType":"string","name":"title","type":"string"},{"internalType":"uint256","name":"goal","type":"uint256"},{"internalType":"string","name":"description","type":"string"},{"internalType":"uint256","name":"raiseUntil","type":"uint256"},{"internalType":"uint256","name":"totalContribution","type":"uint256"}],"stateMutability":"view","type":"function"},{"inputs":[{"internalType":"uint256","name":"minimum","type":"uint256"},{"internalType":"uint256","name":"goal","type":"uint256"},{"internalType":"string","name":"title","type":"string"},{"internalType":"string","name":"desc","type":"string"},{"internalType":"uint256","name":"durationInDays","type":"uint256"}],"name":"createCampaign","outputs":[],"stateMutability":"nonpayable","type":"function"},{"inputs":[{"internalType":"uint256","name":"","type":"uint256"}],"name":"deployedCampaigns","outputs":[{"internalType":"address","name":"","type":"address"}],"stateMutability":"view","type":"function"},{"inputs":[],"name":"getDeployedContracts","outputs":[{"components":[{"internalType":"address","name":"campaign","type":"address"},{"internalType":"string","name":"title","type":"string"},{"internalType":"uint256","name":"goal","type":"uint256"},{"internalType":"string","name":"description","type":"string"},{"internalType":"uint256","name":"raiseUntil","type":"uint256"},{"internalType":"uint256","name":"totalContribution","type":"uint256"}],"internalType":"struct CampaignFactory.campaignDeploy[]","name":"","type":"tuple[]"}],"stateMutability":"view","type":"function"}],"devdoc":{"kind":"dev","methods":{},"version":1},"evm":{"assembly":"    /* \"campaign.sol\":133:1140  contract CampaignFactory {\r... */\n  mstore(0x40, 0x80)\n  callvalue\n  dup1\n  iszero\n  tag_1\n  jumpi\n  0x00\n  dup1\n  revert\ntag_1:\n  pop\n  dataSize(sub_0)\n  dup1\n  dataOffset(sub_0)\n  0x00\n  codecopy\n  0x00\n  return\nstop\n\nsub_0: assembly {\n        /* \"campaign.sol\":133:1140  contract CampaignFactory {\r... */\n      mstore(0x40, 0x80)\n      callvalue\n      dup1\n      iszero\n      tag_1\n      jumpi\n      0x00\n      dup1\n      revert\n    tag_1:\n      pop\n      jumpi(tag_2, lt(calldatasize, 0x04))\n      shr(0xe0, calldataload(0x00))\n      dup1\n      0x141961bc\n      eq\n      tag_3\n      jumpi\n      dup1\n      0x28c3ce5b\n      eq\n      tag_4\n      jumpi\n      dup1\n      0x339d50a5\n      eq\n      tag_5\n      jumpi\n      dup1\n      0xaa9a068f\n      eq\n      tag_6\n      jumpi\n    tag_2:\n      0x00\n      dup1\n      revert\n        /* \"campaign.sol\":439:472  campaignDeploy[] public campaigns */\n    tag_3:\n      tag_7\n      0x04\n      dup1\n      calldatasize\n      sub\n      dup2\n      add\n      swap1\n      tag_8\n      swap2\n      swap1\n      tag_9\n      jump\t// in\n    tag_8:\n      tag_10\n      jump\t// in\n    tag_7:\n      mload(0x40)\n      tag_11\n      swap7\n      swap6\n      swap5\n      swap4\n      swap3\n      swap2\n      swap1\n      tag_12\n      jump\t// in\n    tag_11:\n      mload(0x40)\n      dup1\n      swap2\n      sub\n      swap1\n      return\n        /* \"campaign.sol\":481:1011  function createCampaign(uint minimum, uint goal, string memory title, string memory desc, uint durationInDays) external {\r... */\n    tag_4:\n      tag_13\n      0x04\n      dup1\n      calldatasize\n      sub\n      dup2\n      add\n      swap1\n      tag_14\n      swap2\n      swap1\n      tag_15\n      jump\t// in\n    tag_14:\n      tag_16\n      jump\t// in\n    tag_13:\n      stop\n        /* \"campaign.sol\":200:234  address[] public deployedCampaigns */\n    tag_5:\n      tag_17\n      0x04\n      dup1\n      calldatasize\n      sub\n      dup2\n      add\n      swap1\n      tag_18\n      swap2\n      swap1\n      tag_9\n      jump\t// in\n    tag_18:\n      tag_19\n      jump\t// in\n    tag_17:\n      mload(0x40)\n      tag_20\n      swap2\n      swap1\n      tag_21\n      jump\t// in\n    tag_20:\n      mload(0x40)\n      dup1\n      swap2\n      sub\n      swap1\n      return\n        /* \"campaign.sol\":1023:1137  function getDeployedContracts() external view returns(campaignDeploy[] memory) {\r... */\n    tag_6:\n      tag_22\n      tag_23\n      jump\t// in\n    tag_22:\n      mload(0x40)\n      tag_24\n      swap2\n      swap1\n      tag_25\n      jump\t// in\n    tag_24:\n      mload(0x40)\n      dup1\n      swap2\n      sub\n      swap1\n      return\n        /* \"campaign.sol\":439:472  campaignDeploy[] public campaigns */\n    tag_10:\n      0x01\n      dup2\n      dup2\n      sload\n      dup2\n      lt\n      tag_26\n      jumpi\n      0x00\n      dup1\n      revert\n    tag_26:\n      swap1\n      0x00\n      mstore\n      keccak256(0x00, 0x20)\n      swap1\n      0x06\n      mul\n      add\n      0x00\n      swap2\n      pop\n      swap1\n      pop\n      dup1\n      0x00\n      add\n      0x00\n      swap1\n      sload\n      swap1\n      0x0100\n      exp\n      swap1\n      div\n      0xffffffffffffffffffffffffffffffffffffffff\n      and\n      swap1\n      dup1\n      0x01\n      add\n      dup1\n      sload\n      tag_28\n      swap1\n      tag_29\n      jump\t// in\n    tag_28:\n      dup1\n      0x1f\n      add\n      0x20\n      dup1\n      swap2\n      div\n      mul\n      0x20\n      add\n      mload(0x40)\n      swap1\n      dup2\n      add\n      0x40\n      mstore\n      dup1\n      swap3\n      swap2\n      swap1\n      dup2\n      dup2\n      mstore\n      0x20\n      add\n      dup3\n      dup1\n      sload\n      tag_30\n      swap1\n      tag_29\n      jump\t// in\n    tag_30:\n      dup1\n      iszero\n      tag_31\n      jumpi\n      dup1\n      0x1f\n      lt\n      tag_32\n      jumpi\n      0x0100\n      dup1\n      dup4\n      sload\n      div\n      mul\n      dup4\n      mstore\n      swap2\n      0x20\n      add\n      swap2\n      jump(tag_31)\n    tag_32:\n      dup3\n      add\n      swap2\n      swap1\n      0x00\n      mstore\n      keccak256(0x00, 0x20)\n      swap1\n    tag_33:\n      dup2\n      sload\n      dup2\n      mstore\n      swap1\n      0x01\n      add\n      swap1\n      0x20\n      add\n      dup1\n      dup4\n      gt\n      tag_33\n      jumpi\n      dup3\n      swap1\n      sub\n      0x1f\n      and\n      dup3\n      add\n      swap2\n    tag_31:\n      pop\n      pop\n      pop\n      pop\n      pop\n      swap1\n      dup1\n      0x02\n      add\n      sload\n      swap1\n      dup1\n      0x03\n      add\n      dup1\n      sload\n      tag_34\n      swap1\n      tag_29\n      jump\t// in\n    tag_34:\n      dup1\n      0x1f\n      add\n      0x20\n      dup1\n      swap2\n      div\n      mul\n      0x20\n      add\n      mload(0x40)\n      swap1\n      dup2\n      add\n      0x40\n      mstore\n      dup1\n      swap3\n      swap2\n      swap1\n      dup2\n      dup2\n      mstore\n      0x20\n      add\n      dup3\n      dup1\n      sload\n      tag_35\n      swap1\n      tag_29\n      jump\t// in\n    tag_35:\n      dup1\n      iszero\n      tag_36\n      jumpi\n      dup1\n      0x1f\n      lt\n      tag_37\n      jumpi\n      0x0100\n      dup1\n      dup4\n      sload\n      div\n      mul\n      dup4\n      mstore\n      swap2\n      0x20\n      add\n      swap2\n      jump(tag_36)\n    tag_37:\n      dup3\n      add\n      swap2\n      swap1\n      0x00\n      mstore\n      keccak256(0x00, 0x20)\n      swap1\n    tag_38:\n      dup2\n      sload\n      dup2\n      mstore\n      swap1\n      0x01\n      add\n      swap1\n      0x20\n      add\n      dup1\n      dup4\n      gt\n      tag_38\n      jumpi\n      dup3\n      swap1\n      sub\n      0x1f\n      and\n      dup3\n      add\n      swap2\n    tag_36:\n      pop\n      pop\n      pop\n      pop\n      pop\n      swap1\n      dup1\n      0x04\n      add\n      sload\n      swap1\n      dup1\n      0x05\n      add\n      sload\n      swap1\n      pop\n      dup7\n      jump\t// out\n        /* \"campaign.sol\":481:1011  function createCampaign(uint minimum, uint goal, string memory title, string memory desc, uint durationInDays) external {\r... */\n    tag_16:\n        /* \"campaign.sol\":612:627  uint raiseUntil */\n      0x00\n        /* \"campaign.sol\":667:673  1 days */\n      0x015180\n        /* \"campaign.sol\":649:663  durationInDays */\n      dup3\n        /* \"campaign.sol\":649:674  durationInDays * (1 days) */\n      tag_40\n      swap2\n      swap1\n      tag_41\n      jump\t// in\n    tag_40:\n        /* \"campaign.sol\":630:645  block.timestamp */\n      timestamp\n        /* \"campaign.sol\":630:675  block.timestamp + (durationInDays * (1 days)) */\n      tag_42\n      swap2\n      swap1\n      tag_43\n      jump\t// in\n    tag_42:\n        /* \"campaign.sol\":612:675  uint raiseUntil = block.timestamp + (durationInDays * (1 days)) */\n      swap1\n      pop\n        /* \"campaign.sol\":720:740  Campaign newCampaign */\n      0x00\n        /* \"campaign.sol\":756:763  minimum */\n      dup7\n        /* \"campaign.sol\":765:775  msg.sender */\n      caller\n        /* \"campaign.sol\":777:782  title */\n      dup7\n        /* \"campaign.sol\":784:788  goal */\n      dup9\n        /* \"campaign.sol\":790:794  desc */\n      dup8\n        /* \"campaign.sol\":796:806  raiseUntil */\n      dup7\n        /* \"campaign.sol\":743:807  new Campaign(minimum, msg.sender, title, goal, desc, raiseUntil) */\n      mload(0x40)\n      tag_44\n      swap1\n      tag_45\n      jump\t// in\n    tag_44:\n      tag_46\n      swap7\n      swap6\n      swap5\n      swap4\n      swap3\n      swap2\n      swap1\n      tag_47\n      jump\t// in\n    tag_46:\n      mload(0x40)\n      dup1\n      swap2\n      sub\n      swap1\n      0x00\n      create\n      dup1\n      iszero\n      dup1\n      iszero\n      tag_48\n      jumpi\n      returndatasize\n      0x00\n      dup1\n      returndatacopy\n      revert(0x00, returndatasize)\n    tag_48:\n      pop\n        /* \"campaign.sol\":720:807  Campaign newCampaign = new Campaign(minimum, msg.sender, title, goal, desc, raiseUntil) */\n      swap1\n      pop\n        /* \"campaign.sol\":884:893  campaigns */\n      0x01\n        /* \"campaign.sol\":899:1002  campaignDeploy(address(newCampaign), title, goal, desc, raiseUntil ,newCampaign.getTotalContribution()) */\n      mload(0x40)\n      dup1\n      0xc0\n      add\n      0x40\n      mstore\n      dup1\n        /* \"campaign.sol\":922:933  newCampaign */\n      dup4\n        /* \"campaign.sol\":899:1002  campaignDeploy(address(newCampaign), title, goal, desc, raiseUntil ,newCampaign.getTotalContribution()) */\n      0xffffffffffffffffffffffffffffffffffffffff\n      and\n      dup2\n      mstore\n      0x20\n      add\n        /* \"campaign.sol\":936:941  title */\n      dup8\n        /* \"campaign.sol\":899:1002  campaignDeploy(address(newCampaign), title, goal, desc, raiseUntil ,newCampaign.getTotalContribution()) */\n      dup2\n      mstore\n      0x20\n      add\n        /* \"campaign.sol\":943:947  goal */\n      dup9\n        /* \"campaign.sol\":899:1002  campaignDeploy(address(newCampaign), title, goal, desc, raiseUntil ,newCampaign.getTotalContribution()) */\n      dup2\n      mstore\n      0x20\n      add\n        /* \"campaign.sol\":949:953  desc */\n      dup7\n        /* \"campaign.sol\":899:1002  campaignDeploy(address(newCampaign), title, goal, desc, raiseUntil ,newCampaign.getTotalContribution()) */\n      dup2\n      mstore\n      0x20\n      add\n        /* \"campaign.sol\":955:965  raiseUntil */\n      dup5\n        /* \"campaign.sol\":899:1002  campaignDeploy(address(newCampaign), title, goal, desc, raiseUntil ,newCampaign.getTotalContribution()) */\n      dup2\n      mstore\n      0x20\n      add\n        /* \"campaign.sol\":967:978  newCampaign */\n      dup4\n        /* \"campaign.sol\":967:999  newCampaign.getTotalContribution */\n      0xffffffffffffffffffffffffffffffffffffffff\n      and\n      0x08caa910\n        /* \"campaign.sol\":967:1001  newCampaign.getTotalContribution() */\n      mload(0x40)\n      dup2\n      0xffffffff\n      and\n      0xe0\n      shl\n      dup2\n      mstore\n      0x04\n      add\n      0x20\n      mload(0x40)\n      dup1\n      dup4\n      sub\n      dup2\n      dup7\n      dup1\n      extcodesize\n      iszero\n      dup1\n      iszero\n      tag_49\n      jumpi\n      0x00\n      dup1\n      revert\n    tag_49:\n      pop\n      gas\n      staticcall\n      iszero\n      dup1\n      iszero\n      tag_51\n      jumpi\n      returndatasize\n      0x00\n      dup1\n      returndatacopy\n      revert(0x00, returndatasize)\n    tag_51:\n      pop\n      pop\n      pop\n      pop\n      mload(0x40)\n      returndatasize\n      not(0x1f)\n      0x1f\n      dup3\n      add\n      and\n      dup3\n      add\n      dup1\n      0x40\n      mstore\n      pop\n      dup2\n      add\n      swap1\n      tag_52\n      swap2\n      swap1\n      tag_53\n      jump\t// in\n    tag_52:\n        /* \"campaign.sol\":899:1002  campaignDeploy(address(newCampaign), title, goal, desc, raiseUntil ,newCampaign.getTotalContribution()) */\n      dup2\n      mstore\n      pop\n        /* \"campaign.sol\":884:1003  campaigns.push(campaignDeploy(address(newCampaign), title, goal, desc, raiseUntil ,newCampaign.getTotalContribution())) */\n      swap1\n      dup1\n      0x01\n      dup2\n      sload\n      add\n      dup1\n      dup3\n      sstore\n      dup1\n      swap2\n      pop\n      pop\n      0x01\n      swap1\n      sub\n      swap1\n      0x00\n      mstore\n      keccak256(0x00, 0x20)\n      swap1\n      0x06\n      mul\n      add\n      0x00\n      swap1\n      swap2\n      swap1\n      swap2\n      swap1\n      swap2\n      pop\n      0x00\n      dup3\n      add\n      mload\n      dup2\n      0x00\n      add\n      exp(0x0100, 0x00)\n      dup2\n      sload\n      dup2\n      0xffffffffffffffffffffffffffffffffffffffff\n      mul\n      not\n      and\n      swap1\n      dup4\n      0xffffffffffffffffffffffffffffffffffffffff\n      and\n      mul\n      or\n      swap1\n      sstore\n      pop\n      0x20\n      dup3\n      add\n      mload\n      dup2\n      0x01\n      add\n      swap1\n      dup1\n      mload\n      swap1\n      0x20\n      add\n      swap1\n      tag_55\n      swap3\n      swap2\n      swap1\n      tag_56\n      jump\t// in\n    tag_55:\n      pop\n      0x40\n      dup3\n      add\n      mload\n      dup2\n      0x02\n      add\n      sstore\n      0x60\n      dup3\n      add\n      mload\n      dup2\n      0x03\n      add\n      swap1\n      dup1\n      mload\n      swap1\n      0x20\n      add\n      swap1\n      tag_57\n      swap3\n      swap2\n      swap1\n      tag_56\n      jump\t// in\n    tag_57:\n      pop\n      0x80\n      dup3\n      add\n      mload\n      dup2\n      0x04\n      add\n      sstore\n      0xa0\n      dup3\n      add\n      mload\n      dup2\n      0x05\n      add\n      sstore\n      pop\n      pop\n        /* \"campaign.sol\":481:1011  function createCampaign(uint minimum, uint goal, string memory title, string memory desc, uint durationInDays) external {\r... */\n      pop\n      pop\n      pop\n      pop\n      pop\n      pop\n      pop\n      jump\t// out\n        /* \"campaign.sol\":200:234  address[] public deployedCampaigns */\n    tag_19:\n      0x00\n      dup2\n      dup2\n      sload\n      dup2\n      lt\n      tag_58\n      jumpi\n      0x00\n      dup1\n      revert\n    tag_58:\n      swap1\n      0x00\n      mstore\n      keccak256(0x00, 0x20)\n      add\n      0x00\n      swap2\n      pop\n      sload\n      swap1\n      0x0100\n      exp\n      swap1\n      div\n      0xffffffffffffffffffffffffffffffffffffffff\n      and\n      dup2\n      jump\t// out\n        /* \"campaign.sol\":1023:1137  function getDeployedContracts() external view returns(campaignDeploy[] memory) {\r... */\n    tag_23:\n        /* \"campaign.sol\":1077:1100  campaignDeploy[] memory */\n      0x60\n        /* \"campaign.sol\":1120:1129  campaigns */\n      0x01\n        /* \"campaign.sol\":1113:1129  return campaigns */\n      dup1\n      sload\n      dup1\n      0x20\n      mul\n      0x20\n      add\n      mload(0x40)\n      swap1\n      dup2\n      add\n      0x40\n      mstore\n      dup1\n      swap3\n      swap2\n      swap1\n      dup2\n      dup2\n      mstore\n      0x20\n      add\n      0x00\n      swap1\n    tag_61:\n      dup3\n      dup3\n      lt\n      iszero\n      tag_62\n      jumpi\n      dup4\n      dup3\n      swap1\n      0x00\n      mstore\n      keccak256(0x00, 0x20)\n      swap1\n      0x06\n      mul\n      add\n      mload(0x40)\n      dup1\n      0xc0\n      add\n      0x40\n      mstore\n      swap1\n      dup2\n      0x00\n      dup3\n      add\n      0x00\n      swap1\n      sload\n      swap1\n      0x0100\n      exp\n      swap1\n      div\n      0xffffffffffffffffffffffffffffffffffffffff\n      and\n      0xffffffffffffffffffffffffffffffffffffffff\n      and\n      0xffffffffffffffffffffffffffffffffffffffff\n      and\n      dup2\n      mstore\n      0x20\n      add\n      0x01\n      dup3\n      add\n      dup1\n      sload\n      tag_64\n      swap1\n      tag_29\n      jump\t// in\n    tag_64:\n      dup1\n      0x1f\n      add\n      0x20\n      dup1\n      swap2\n      div\n      mul\n      0x20\n      add\n      mload(0x40)\n      swap1\n      dup2\n      add\n      0x40\n      mstore\n      dup1\n      swap3\n      swap2\n      swap1\n      dup2\n      dup2\n      mstore\n      0x20\n      add\n      dup3\n      dup1\n      sload\n      tag_65\n      swap1\n      tag_29\n      jump\t// in\n    tag_65:\n      dup1\n      iszero\n      tag_66\n      jumpi\n      dup1\n      0x1f\n      lt\n      tag_67\n      jumpi\n      0x0100\n      dup1\n      dup4\n      sload\n      div\n      mul\n      dup4\n      mstore\n      swap2\n      0x20\n      add\n      swap2\n      jump(tag_66)\n    tag_67:\n      dup3\n      add\n      swap2\n      swap1\n      0x00\n      mstore\n      keccak256(0x00, 0x20)\n      swap1\n    tag_68:\n      dup2\n      sload\n      dup2\n      mstore\n      swap1\n      0x01\n      add\n      swap1\n      0x20\n      add\n      dup1\n      dup4\n      gt\n      tag_68\n      jumpi\n      dup3\n      swap1\n      sub\n      0x1f\n      and\n      dup3\n      add\n      swap2\n    tag_66:\n      pop\n      pop\n      pop\n      pop\n      pop\n      dup2\n      mstore\n      0x20\n      add\n      0x02\n      dup3\n      add\n      sload\n      dup2\n      mstore\n      0x20\n      add\n      0x03\n      dup3\n      add\n      dup1\n      sload\n      tag_69\n      swap1\n      tag_29\n      jump\t// in\n    tag_69:\n      dup1\n      0x1f\n      add\n      0x20\n      dup1\n      swap2\n      div\n      mul\n      0x20\n      add\n      mload(0x40)\n      swap1\n      dup2\n      add\n      0x40\n      mstore\n      dup1\n      swap3\n      swap2\n      swap1\n      dup2\n      dup2\n      mstore\n      0x20\n      add\n      dup3\n      dup1\n      sload\n      tag_70\n      swap1\n      tag_29\n      jump\t// in\n    tag_70:\n      dup1\n      iszero\n      tag_71\n      jumpi\n      dup1\n      0x1f\n      lt\n      tag_72\n      jumpi\n      0x0100\n      dup1\n      dup4\n      sload\n      div\n      mul\n      dup4\n      mstore\n      swap2\n      0x20\n      add\n      swap2\n      jump(tag_71)\n    tag_72:\n      dup3\n      add\n      swap2\n      swap1\n      0x00\n      mstore\n      keccak256(0x00, 0x20)\n      swap1\n    tag_73:\n      dup2\n      sload\n      dup2\n      mstore\n      swap1\n      0x01\n      add\n      swap1\n      0x20\n      add\n      dup1\n      dup4\n      gt\n      tag_73\n      jumpi\n      dup3\n      swap1\n      sub\n      0x1f\n      and\n      dup3\n      add\n      swap2\n    tag_71:\n      pop\n      pop\n      pop\n      pop\n      pop\n      dup2\n      mstore\n      0x20\n      add\n      0x04\n      dup3\n      add\n      sload\n      dup2\n      mstore\n      0x20\n      add\n      0x05\n      dup3\n      add\n      sload\n      dup2\n      mstore\n      pop\n      pop\n      dup2\n      mstore\n      0x20\n      add\n      swap1\n      0x01\n      add\n      swap1\n      jump(tag_61)\n    tag_62:\n      pop\n      pop\n      pop\n      pop\n      swap1\n      pop\n        /* \"campaign.sol\":1023:1137  function getDeployedContracts() external view returns(campaignDeploy[] memory) {\r... */\n      swap1\n      jump\t// out\n    tag_45:\n      dataSize(sub_0)\n      dup1\n      dataOffset(sub_0)\n      dup4\n      codecopy\n      add\n      swap1\n      jump\t// out\n    tag_56:\n      dup3\n      dup1\n      sload\n      tag_74\n      swap1\n      tag_29\n      jump\t// in\n    tag_74:\n      swap1\n      0x00\n      mstore\n      keccak256(0x00, 0x20)\n      swap1\n      0x1f\n      add\n      0x20\n      swap1\n      div\n      dup2\n      add\n      swap3\n      dup3\n      tag_76\n      jumpi\n      0x00\n      dup6\n      sstore\n      jump(tag_75)\n    tag_76:\n      dup3\n      0x1f\n      lt\n      tag_77\n      jumpi\n      dup1\n      mload\n      not(0xff)\n      and\n      dup4\n      dup1\n      add\n      or\n      dup6\n      sstore\n      jump(tag_75)\n    tag_77:\n      dup3\n      dup1\n      add\n      0x01\n      add\n      dup6\n      sstore\n      dup3\n      iszero\n      tag_75\n      jumpi\n      swap2\n      dup3\n      add\n    tag_78:\n      dup3\n      dup2\n      gt\n      iszero\n      tag_79\n      jumpi\n      dup3\n      mload\n      dup3\n      sstore\n      swap2\n      0x20\n      add\n      swap2\n      swap1\n      0x01\n      add\n      swap1\n      jump(tag_78)\n    tag_79:\n    tag_75:\n      pop\n      swap1\n      pop\n      tag_80\n      swap2\n      swap1\n      tag_81\n      jump\t// in\n    tag_80:\n      pop\n      swap1\n      jump\t// out\n    tag_81:\n    tag_82:\n      dup1\n      dup3\n      gt\n      iszero\n      tag_83\n      jumpi\n      0x00\n      dup2\n      0x00\n      swap1\n      sstore\n      pop\n      0x01\n      add\n      jump(tag_82)\n    tag_83:\n      pop\n      swap1\n      jump\t// out\n        /* \"#utility.yul\":7:352   */\n    tag_85:\n        /* \"#utility.yul\":85:90   */\n      0x00\n        /* \"#utility.yul\":110:176   */\n      tag_87\n        /* \"#utility.yul\":126:175   */\n      tag_88\n        /* \"#utility.yul\":168:174   */\n      dup5\n        /* \"#utility.yul\":126:175   */\n      tag_89\n      jump\t// in\n    tag_88:\n        /* \"#utility.yul\":110:176   */\n      tag_90\n      jump\t// in\n    tag_87:\n        /* \"#utility.yul\":101:176   */\n      swap1\n      pop\n        /* \"#utility.yul\":199:205   */\n      dup3\n        /* \"#utility.yul\":192:197   */\n      dup2\n        /* \"#utility.yul\":185:206   */\n      mstore\n        /* \"#utility.yul\":237:241   */\n      0x20\n        /* \"#utility.yul\":230:235   */\n      dup2\n        /* \"#utility.yul\":226:242   */\n      add\n        /* \"#utility.yul\":275:278   */\n      dup5\n        /* \"#utility.yul\":266:272   */\n      dup5\n        /* \"#utility.yul\":261:264   */\n      dup5\n        /* \"#utility.yul\":257:273   */\n      add\n        /* \"#utility.yul\":254:279   */\n      gt\n        /* \"#utility.yul\":251:253   */\n      iszero\n      tag_91\n      jumpi\n        /* \"#utility.yul\":292:293   */\n      0x00\n        /* \"#utility.yul\":289:290   */\n      dup1\n        /* \"#utility.yul\":282:294   */\n      revert\n        /* \"#utility.yul\":251:253   */\n    tag_91:\n        /* \"#utility.yul\":305:346   */\n      tag_92\n        /* \"#utility.yul\":339:345   */\n      dup5\n        /* \"#utility.yul\":334:337   */\n      dup3\n        /* \"#utility.yul\":329:332   */\n      dup6\n        /* \"#utility.yul\":305:346   */\n      tag_93\n      jump\t// in\n    tag_92:\n        /* \"#utility.yul\":91:352   */\n      pop\n      swap4\n      swap3\n      pop\n      pop\n      pop\n      jump\t// out\n        /* \"#utility.yul\":372:645   */\n    tag_94:\n        /* \"#utility.yul\":428:433   */\n      0x00\n        /* \"#utility.yul\":477:480   */\n      dup3\n        /* \"#utility.yul\":470:474   */\n      0x1f\n        /* \"#utility.yul\":462:468   */\n      dup4\n        /* \"#utility.yul\":458:475   */\n      add\n        /* \"#utility.yul\":454:481   */\n      slt\n        /* \"#utility.yul\":444:446   */\n      tag_96\n      jumpi\n        /* \"#utility.yul\":495:496   */\n      0x00\n        /* \"#utility.yul\":492:493   */\n      dup1\n        /* \"#utility.yul\":485:497   */\n      revert\n        /* \"#utility.yul\":444:446   */\n    tag_96:\n        /* \"#utility.yul\":535:541   */\n      dup2\n        /* \"#utility.yul\":522:542   */\n      calldataload\n        /* \"#utility.yul\":560:639   */\n      tag_97\n        /* \"#utility.yul\":635:638   */\n      dup5\n        /* \"#utility.yul\":627:633   */\n      dup3\n        /* \"#utility.yul\":620:624   */\n      0x20\n        /* \"#utility.yul\":612:618   */\n      dup7\n        /* \"#utility.yul\":608:625   */\n      add\n        /* \"#utility.yul\":560:639   */\n      tag_85\n      jump\t// in\n    tag_97:\n        /* \"#utility.yul\":551:639   */\n      swap2\n      pop\n        /* \"#utility.yul\":434:645   */\n      pop\n      swap3\n      swap2\n      pop\n      pop\n      jump\t// out\n        /* \"#utility.yul\":651:790   */\n    tag_98:\n        /* \"#utility.yul\":697:702   */\n      0x00\n        /* \"#utility.yul\":735:741   */\n      dup2\n        /* \"#utility.yul\":722:742   */\n      calldataload\n        /* \"#utility.yul\":713:742   */\n      swap1\n      pop\n        /* \"#utility.yul\":751:784   */\n      tag_100\n        /* \"#utility.yul\":778:783   */\n      dup2\n        /* \"#utility.yul\":751:784   */\n      tag_101\n      jump\t// in\n    tag_100:\n        /* \"#utility.yul\":703:790   */\n      swap3\n      swap2\n      pop\n      pop\n      jump\t// out\n        /* \"#utility.yul\":796:939   */\n    tag_102:\n        /* \"#utility.yul\":853:858   */\n      0x00\n        /* \"#utility.yul\":884:890   */\n      dup2\n        /* \"#utility.yul\":878:891   */\n      mload\n        /* \"#utility.yul\":869:891   */\n      swap1\n      pop\n        /* \"#utility.yul\":900:933   */\n      tag_104\n        /* \"#utility.yul\":927:932   */\n      dup2\n        /* \"#utility.yul\":900:933   */\n      tag_101\n      jump\t// in\n    tag_104:\n        /* \"#utility.yul\":859:939   */\n      swap3\n      swap2\n      pop\n      pop\n      jump\t// out\n        /* \"#utility.yul\":945:1207   */\n    tag_9:\n        /* \"#utility.yul\":1004:1010   */\n      0x00\n        /* \"#utility.yul\":1053:1055   */\n      0x20\n        /* \"#utility.yul\":1041:1050   */\n      dup3\n        /* \"#utility.yul\":1032:1039   */\n      dup5\n        /* \"#utility.yul\":1028:1051   */\n      sub\n        /* \"#utility.yul\":1024:1056   */\n      slt\n        /* \"#utility.yul\":1021:1023   */\n      iszero\n      tag_106\n      jumpi\n        /* \"#utility.yul\":1069:1070   */\n      0x00\n        /* \"#utility.yul\":1066:1067   */\n      dup1\n        /* \"#utility.yul\":1059:1071   */\n      revert\n        /* \"#utility.yul\":1021:1023   */\n    tag_106:\n        /* \"#utility.yul\":1112:1113   */\n      0x00\n        /* \"#utility.yul\":1137:1190   */\n      tag_107\n        /* \"#utility.yul\":1182:1189   */\n      dup5\n        /* \"#utility.yul\":1173:1179   */\n      dup3\n        /* \"#utility.yul\":1162:1171   */\n      dup6\n        /* \"#utility.yul\":1158:1180   */\n      add\n        /* \"#utility.yul\":1137:1190   */\n      tag_98\n      jump\t// in\n    tag_107:\n        /* \"#utility.yul\":1127:1190   */\n      swap2\n      pop\n        /* \"#utility.yul\":1083:1200   */\n      pop\n        /* \"#utility.yul\":1011:1207   */\n      swap3\n      swap2\n      pop\n      pop\n      jump\t// out\n        /* \"#utility.yul\":1213:1497   */\n    tag_53:\n        /* \"#utility.yul\":1283:1289   */\n      0x00\n        /* \"#utility.yul\":1332:1334   */\n      0x20\n        /* \"#utility.yul\":1320:1329   */\n      dup3\n        /* \"#utility.yul\":1311:1318   */\n      dup5\n        /* \"#utility.yul\":1307:1330   */\n      sub\n        /* \"#utility.yul\":1303:1335   */\n      slt\n        /* \"#utility.yul\":1300:1302   */\n      iszero\n      tag_109\n      jumpi\n        /* \"#utility.yul\":1348:1349   */\n      0x00\n        /* \"#utility.yul\":1345:1346   */\n      dup1\n        /* \"#utility.yul\":1338:1350   */\n      revert\n        /* \"#utility.yul\":1300:1302   */\n    tag_109:\n        /* \"#utility.yul\":1391:1392   */\n      0x00\n        /* \"#utility.yul\":1416:1480   */\n      tag_110\n        /* \"#utility.yul\":1472:1479   */\n      dup5\n        /* \"#utility.yul\":1463:1469   */\n      dup3\n        /* \"#utility.yul\":1452:1461   */\n      dup6\n        /* \"#utility.yul\":1448:1470   */\n      add\n        /* \"#utility.yul\":1416:1480   */\n      tag_102\n      jump\t// in\n    tag_110:\n        /* \"#utility.yul\":1406:1480   */\n      swap2\n      pop\n        /* \"#utility.yul\":1362:1490   */\n      pop\n        /* \"#utility.yul\":1290:1497   */\n      swap3\n      swap2\n      pop\n      pop\n      jump\t// out\n        /* \"#utility.yul\":1503:2573   */\n    tag_15:\n        /* \"#utility.yul\":1618:1624   */\n      0x00\n        /* \"#utility.yul\":1626:1632   */\n      dup1\n        /* \"#utility.yul\":1634:1640   */\n      0x00\n        /* \"#utility.yul\":1642:1648   */\n      dup1\n        /* \"#utility.yul\":1650:1656   */\n      0x00\n        /* \"#utility.yul\":1699:1702   */\n      0xa0\n        /* \"#utility.yul\":1687:1696   */\n      dup7\n        /* \"#utility.yul\":1678:1685   */\n      dup9\n        /* \"#utility.yul\":1674:1697   */\n      sub\n        /* \"#utility.yul\":1670:1703   */\n      slt\n        /* \"#utility.yul\":1667:1669   */\n      iszero\n      tag_112\n      jumpi\n        /* \"#utility.yul\":1716:1717   */\n      0x00\n        /* \"#utility.yul\":1713:1714   */\n      dup1\n        /* \"#utility.yul\":1706:1718   */\n      revert\n        /* \"#utility.yul\":1667:1669   */\n    tag_112:\n        /* \"#utility.yul\":1759:1760   */\n      0x00\n        /* \"#utility.yul\":1784:1837   */\n      tag_113\n        /* \"#utility.yul\":1829:1836   */\n      dup9\n        /* \"#utility.yul\":1820:1826   */\n      dup3\n        /* \"#utility.yul\":1809:1818   */\n      dup10\n        /* \"#utility.yul\":1805:1827   */\n      add\n        /* \"#utility.yul\":1784:1837   */\n      tag_98\n      jump\t// in\n    tag_113:\n        /* \"#utility.yul\":1774:1837   */\n      swap6\n      pop\n        /* \"#utility.yul\":1730:1847   */\n      pop\n        /* \"#utility.yul\":1886:1888   */\n      0x20\n        /* \"#utility.yul\":1912:1965   */\n      tag_114\n        /* \"#utility.yul\":1957:1964   */\n      dup9\n        /* \"#utility.yul\":1948:1954   */\n      dup3\n        /* \"#utility.yul\":1937:1946   */\n      dup10\n        /* \"#utility.yul\":1933:1955   */\n      add\n        /* \"#utility.yul\":1912:1965   */\n      tag_98\n      jump\t// in\n    tag_114:\n        /* \"#utility.yul\":1902:1965   */\n      swap5\n      pop\n        /* \"#utility.yul\":1857:1975   */\n      pop\n        /* \"#utility.yul\":2042:2044   */\n      0x40\n        /* \"#utility.yul\":2031:2040   */\n      dup7\n        /* \"#utility.yul\":2027:2045   */\n      add\n        /* \"#utility.yul\":2014:2046   */\n      calldataload\n        /* \"#utility.yul\":2073:2091   */\n      0xffffffffffffffff\n        /* \"#utility.yul\":2065:2071   */\n      dup2\n        /* \"#utility.yul\":2062:2092   */\n      gt\n        /* \"#utility.yul\":2059:2061   */\n      iszero\n      tag_115\n      jumpi\n        /* \"#utility.yul\":2105:2106   */\n      0x00\n        /* \"#utility.yul\":2102:2103   */\n      dup1\n        /* \"#utility.yul\":2095:2107   */\n      revert\n        /* \"#utility.yul\":2059:2061   */\n    tag_115:\n        /* \"#utility.yul\":2133:2196   */\n      tag_116\n        /* \"#utility.yul\":2188:2195   */\n      dup9\n        /* \"#utility.yul\":2179:2185   */\n      dup3\n        /* \"#utility.yul\":2168:2177   */\n      dup10\n        /* \"#utility.yul\":2164:2186   */\n      add\n        /* \"#utility.yul\":2133:2196   */\n      tag_94\n      jump\t// in\n    tag_116:\n        /* \"#utility.yul\":2123:2196   */\n      swap4\n      pop\n        /* \"#utility.yul\":1985:2206   */\n      pop\n        /* \"#utility.yul\":2273:2275   */\n      0x60\n        /* \"#utility.yul\":2262:2271   */\n      dup7\n        /* \"#utility.yul\":2258:2276   */\n      add\n        /* \"#utility.yul\":2245:2277   */\n      calldataload\n        /* \"#utility.yul\":2304:2322   */\n      0xffffffffffffffff\n        /* \"#utility.yul\":2296:2302   */\n      dup2\n        /* \"#utility.yul\":2293:2323   */\n      gt\n        /* \"#utility.yul\":2290:2292   */\n      iszero\n      tag_117\n      jumpi\n        /* \"#utility.yul\":2336:2337   */\n      0x00\n        /* \"#utility.yul\":2333:2334   */\n      dup1\n        /* \"#utility.yul\":2326:2338   */\n      revert\n        /* \"#utility.yul\":2290:2292   */\n    tag_117:\n        /* \"#utility.yul\":2364:2427   */\n      tag_118\n        /* \"#utility.yul\":2419:2426   */\n      dup9\n        /* \"#utility.yul\":2410:2416   */\n      dup3\n        /* \"#utility.yul\":2399:2408   */\n      dup10\n        /* \"#utility.yul\":2395:2417   */\n      add\n        /* \"#utility.yul\":2364:2427   */\n      tag_94\n      jump\t// in\n    tag_118:\n        /* \"#utility.yul\":2354:2427   */\n      swap3\n      pop\n        /* \"#utility.yul\":2216:2437   */\n      pop\n        /* \"#utility.yul\":2476:2479   */\n      0x80\n        /* \"#utility.yul\":2503:2556   */\n      tag_119\n        /* \"#utility.yul\":2548:2555   */\n      dup9\n        /* \"#utility.yul\":2539:2545   */\n      dup3\n        /* \"#utility.yul\":2528:2537   */\n      dup10\n        /* \"#utility.yul\":2524:2546   */\n      add\n        /* \"#utility.yul\":2503:2556   */\n      tag_98\n      jump\t// in\n    tag_119:\n        /* \"#utility.yul\":2493:2556   */\n      swap2\n      pop\n        /* \"#utility.yul\":2447:2566   */\n      pop\n        /* \"#utility.yul\":1657:2573   */\n      swap3\n      swap6\n      pop\n      swap3\n      swap6\n      swap1\n      swap4\n      pop\n      jump\t// out\n        /* \"#utility.yul\":2579:2855   */\n    tag_120:\n        /* \"#utility.yul\":2708:2718   */\n      0x00\n        /* \"#utility.yul\":2743:2849   */\n      tag_122\n        /* \"#utility.yul\":2845:2848   */\n      dup4\n        /* \"#utility.yul\":2837:2843   */\n      dup4\n        /* \"#utility.yul\":2743:2849   */\n      tag_123\n      jump\t// in\n    tag_122:\n        /* \"#utility.yul\":2729:2849   */\n      swap1\n      pop\n        /* \"#utility.yul\":2719:2855   */\n      swap3\n      swap2\n      pop\n      pop\n      jump\t// out\n        /* \"#utility.yul\":2861:2969   */\n    tag_124:\n        /* \"#utility.yul\":2938:2962   */\n      tag_126\n        /* \"#utility.yul\":2956:2961   */\n      dup2\n        /* \"#utility.yul\":2938:2962   */\n      tag_127\n      jump\t// in\n    tag_126:\n        /* \"#utility.yul\":2933:2936   */\n      dup3\n        /* \"#utility.yul\":2926:2963   */\n      mstore\n        /* \"#utility.yul\":2916:2969   */\n      pop\n      pop\n      jump\t// out\n        /* \"#utility.yul\":2975:3093   */\n    tag_128:\n        /* \"#utility.yul\":3062:3086   */\n      tag_130\n        /* \"#utility.yul\":3080:3085   */\n      dup2\n        /* \"#utility.yul\":3062:3086   */\n      tag_127\n      jump\t// in\n    tag_130:\n        /* \"#utility.yul\":3057:3060   */\n      dup3\n        /* \"#utility.yul\":3050:3087   */\n      mstore\n        /* \"#utility.yul\":3040:3093   */\n      pop\n      pop\n      jump\t// out\n        /* \"#utility.yul\":3189:4340   */\n    tag_131:\n        /* \"#utility.yul\":3368:3371   */\n      0x00\n        /* \"#utility.yul\":3397:3481   */\n      tag_133\n        /* \"#utility.yul\":3475:3480   */\n      dup3\n        /* \"#utility.yul\":3397:3481   */\n      tag_134\n      jump\t// in\n    tag_133:\n        /* \"#utility.yul\":3497:3613   */\n      tag_135\n        /* \"#utility.yul\":3606:3612   */\n      dup2\n        /* \"#utility.yul\":3601:3604   */\n      dup6\n        /* \"#utility.yul\":3497:3613   */\n      tag_136\n      jump\t// in\n    tag_135:\n        /* \"#utility.yul\":3490:3613   */\n      swap4\n      pop\n        /* \"#utility.yul\":3639:3642   */\n      dup4\n        /* \"#utility.yul\":3684:3688   */\n      0x20\n        /* \"#utility.yul\":3676:3682   */\n      dup3\n        /* \"#utility.yul\":3672:3689   */\n      mul\n        /* \"#utility.yul\":3667:3670   */\n      dup6\n        /* \"#utility.yul\":3663:3690   */\n      add\n        /* \"#utility.yul\":3714:3800   */\n      tag_137\n        /* \"#utility.yul\":3794:3799   */\n      dup6\n        /* \"#utility.yul\":3714:3800   */\n      tag_138\n      jump\t// in\n    tag_137:\n        /* \"#utility.yul\":3823:3830   */\n      dup1\n        /* \"#utility.yul\":3854:3855   */\n      0x00\n        /* \"#utility.yul\":3839:4295   */\n    tag_139:\n        /* \"#utility.yul\":3864:3870   */\n      dup6\n        /* \"#utility.yul\":3861:3862   */\n      dup2\n        /* \"#utility.yul\":3858:3871   */\n      lt\n        /* \"#utility.yul\":3839:4295   */\n      iszero\n      tag_141\n      jumpi\n        /* \"#utility.yul\":3935:3944   */\n      dup5\n        /* \"#utility.yul\":3929:3933   */\n      dup5\n        /* \"#utility.yul\":3925:3945   */\n      sub\n        /* \"#utility.yul\":3920:3923   */\n      dup10\n        /* \"#utility.yul\":3913:3946   */\n      mstore\n        /* \"#utility.yul\":3986:3992   */\n      dup2\n        /* \"#utility.yul\":3980:3993   */\n      mload\n        /* \"#utility.yul\":4014:4138   */\n      tag_142\n        /* \"#utility.yul\":4133:4137   */\n      dup6\n        /* \"#utility.yul\":4118:4131   */\n      dup3\n        /* \"#utility.yul\":4014:4138   */\n      tag_120\n      jump\t// in\n    tag_142:\n        /* \"#utility.yul\":4006:4138   */\n      swap5\n      pop\n        /* \"#utility.yul\":4161:4251   */\n      tag_143\n        /* \"#utility.yul\":4244:4250   */\n      dup4\n        /* \"#utility.yul\":4161:4251   */\n      tag_144\n      jump\t// in\n    tag_143:\n        /* \"#utility.yul\":4151:4251   */\n      swap3\n      pop\n        /* \"#utility.yul\":4280:4284   */\n      0x20\n        /* \"#utility.yul\":4275:4278   */\n      dup11\n        /* \"#utility.yul\":4271:4285   */\n      add\n        /* \"#utility.yul\":4264:4285   */\n      swap10\n      pop\n        /* \"#utility.yul\":3899:4295   */\n      pop\n        /* \"#utility.yul\":3886:3887   */\n      0x01\n        /* \"#utility.yul\":3883:3884   */\n      dup2\n        /* \"#utility.yul\":3879:3888   */\n      add\n        /* \"#utility.yul\":3874:3888   */\n      swap1\n      pop\n        /* \"#utility.yul\":3839:4295   */\n      jump(tag_139)\n    tag_141:\n        /* \"#utility.yul\":3843:3857   */\n      pop\n        /* \"#utility.yul\":4311:4315   */\n      dup3\n        /* \"#utility.yul\":4304:4315   */\n      swap8\n      pop\n        /* \"#utility.yul\":4331:4334   */\n      dup8\n        /* \"#utility.yul\":4324:4334   */\n      swap6\n      pop\n        /* \"#utility.yul\":3373:4340   */\n      pop\n      pop\n      pop\n      pop\n      pop\n      swap3\n      swap2\n      pop\n      pop\n      jump\t// out\n        /* \"#utility.yul\":4346:4690   */\n    tag_145:\n        /* \"#utility.yul\":4424:4427   */\n      0x00\n        /* \"#utility.yul\":4452:4491   */\n      tag_147\n        /* \"#utility.yul\":4485:4490   */\n      dup3\n        /* \"#utility.yul\":4452:4491   */\n      tag_148\n      jump\t// in\n    tag_147:\n        /* \"#utility.yul\":4507:4568   */\n      tag_149\n        /* \"#utility.yul\":4561:4567   */\n      dup2\n        /* \"#utility.yul\":4556:4559   */\n      dup6\n        /* \"#utility.yul\":4507:4568   */\n      tag_150\n      jump\t// in\n    tag_149:\n        /* \"#utility.yul\":4500:4568   */\n      swap4\n      pop\n        /* \"#utility.yul\":4577:4629   */\n      tag_151\n        /* \"#utility.yul\":4622:4628   */\n      dup2\n        /* \"#utility.yul\":4617:4620   */\n      dup6\n        /* \"#utility.yul\":4610:4614   */\n      0x20\n        /* \"#utility.yul\":4603:4608   */\n      dup7\n        /* \"#utility.yul\":4599:4615   */\n      add\n        /* \"#utility.yul\":4577:4629   */\n      tag_152\n      jump\t// in\n    tag_151:\n        /* \"#utility.yul\":4654:4683   */\n      tag_153\n        /* \"#utility.yul\":4676:4682   */\n      dup2\n        /* \"#utility.yul\":4654:4683   */\n      tag_154\n      jump\t// in\n    tag_153:\n        /* \"#utility.yul\":4649:4652   */\n      dup5\n        /* \"#utility.yul\":4645:4684   */\n      add\n        /* \"#utility.yul\":4638:4684   */\n      swap2\n      pop\n        /* \"#utility.yul\":4428:4690   */\n      pop\n      swap3\n      swap2\n      pop\n      pop\n      jump\t// out\n        /* \"#utility.yul\":4696:5060   */\n    tag_155:\n        /* \"#utility.yul\":4784:4787   */\n      0x00\n        /* \"#utility.yul\":4812:4851   */\n      tag_157\n        /* \"#utility.yul\":4845:4850   */\n      dup3\n        /* \"#utility.yul\":4812:4851   */\n      tag_148\n      jump\t// in\n    tag_157:\n        /* \"#utility.yul\":4867:4938   */\n      tag_158\n        /* \"#utility.yul\":4931:4937   */\n      dup2\n        /* \"#utility.yul\":4926:4929   */\n      dup6\n        /* \"#utility.yul\":4867:4938   */\n      tag_159\n      jump\t// in\n    tag_158:\n        /* \"#utility.yul\":4860:4938   */\n      swap4\n      pop\n        /* \"#utility.yul\":4947:4999   */\n      tag_160\n        /* \"#utility.yul\":4992:4998   */\n      dup2\n        /* \"#utility.yul\":4987:4990   */\n      dup6\n        /* \"#utility.yul\":4980:4984   */\n      0x20\n        /* \"#utility.yul\":4973:4978   */\n      dup7\n        /* \"#utility.yul\":4969:4985   */\n      add\n        /* \"#utility.yul\":4947:4999   */\n      tag_152\n      jump\t// in\n    tag_160:\n        /* \"#utility.yul\":5024:5053   */\n      tag_161\n        /* \"#utility.yul\":5046:5052   */\n      dup2\n        /* \"#utility.yul\":5024:5053   */\n      tag_154\n      jump\t// in\n    tag_161:\n        /* \"#utility.yul\":5019:5022   */\n      dup5\n        /* \"#utility.yul\":5015:5054   */\n      add\n        /* \"#utility.yul\":5008:5054   */\n      swap2\n      pop\n        /* \"#utility.yul\":4788:5060   */\n      pop\n      swap3\n      swap2\n      pop\n      pop\n      jump\t// out\n        /* \"#utility.yul\":5152:6556   */\n    tag_123:\n        /* \"#utility.yul\":5271:5274   */\n      0x00\n        /* \"#utility.yul\":5307:5311   */\n      0xc0\n        /* \"#utility.yul\":5302:5305   */\n      dup4\n        /* \"#utility.yul\":5298:5312   */\n      add\n        /* \"#utility.yul\":5398:5402   */\n      0x00\n        /* \"#utility.yul\":5391:5396   */\n      dup4\n        /* \"#utility.yul\":5387:5403   */\n      add\n        /* \"#utility.yul\":5381:5404   */\n      mload\n        /* \"#utility.yul\":5417:5480   */\n      tag_163\n        /* \"#utility.yul\":5474:5478   */\n      0x00\n        /* \"#utility.yul\":5469:5472   */\n      dup7\n        /* \"#utility.yul\":5465:5479   */\n      add\n        /* \"#utility.yul\":5451:5463   */\n      dup3\n        /* \"#utility.yul\":5417:5480   */\n      tag_124\n      jump\t// in\n    tag_163:\n        /* \"#utility.yul\":5322:5490   */\n      pop\n        /* \"#utility.yul\":5573:5577   */\n      0x20\n        /* \"#utility.yul\":5566:5571   */\n      dup4\n        /* \"#utility.yul\":5562:5578   */\n      add\n        /* \"#utility.yul\":5556:5579   */\n      mload\n        /* \"#utility.yul\":5626:5629   */\n      dup5\n        /* \"#utility.yul\":5620:5624   */\n      dup3\n        /* \"#utility.yul\":5616:5630   */\n      sub\n        /* \"#utility.yul\":5609:5613   */\n      0x20\n        /* \"#utility.yul\":5604:5607   */\n      dup7\n        /* \"#utility.yul\":5600:5614   */\n      add\n        /* \"#utility.yul\":5593:5631   */\n      mstore\n        /* \"#utility.yul\":5652:5725   */\n      tag_164\n        /* \"#utility.yul\":5720:5724   */\n      dup3\n        /* \"#utility.yul\":5706:5718   */\n      dup3\n        /* \"#utility.yul\":5652:5725   */\n      tag_145\n      jump\t// in\n    tag_164:\n        /* \"#utility.yul\":5644:5725   */\n      swap2\n      pop\n        /* \"#utility.yul\":5500:5736   */\n      pop\n        /* \"#utility.yul\":5818:5822   */\n      0x40\n        /* \"#utility.yul\":5811:5816   */\n      dup4\n        /* \"#utility.yul\":5807:5823   */\n      add\n        /* \"#utility.yul\":5801:5824   */\n      mload\n        /* \"#utility.yul\":5837:5900   */\n      tag_165\n        /* \"#utility.yul\":5894:5898   */\n      0x40\n        /* \"#utility.yul\":5889:5892   */\n      dup7\n        /* \"#utility.yul\":5885:5899   */\n      add\n        /* \"#utility.yul\":5871:5883   */\n      dup3\n        /* \"#utility.yul\":5837:5900   */\n      tag_166\n      jump\t// in\n    tag_165:\n        /* \"#utility.yul\":5746:5910   */\n      pop\n        /* \"#utility.yul\":5999:6003   */\n      0x60\n        /* \"#utility.yul\":5992:5997   */\n      dup4\n        /* \"#utility.yul\":5988:6004   */\n      add\n        /* \"#utility.yul\":5982:6005   */\n      mload\n        /* \"#utility.yul\":6052:6055   */\n      dup5\n        /* \"#utility.yul\":6046:6050   */\n      dup3\n        /* \"#utility.yul\":6042:6056   */\n      sub\n        /* \"#utility.yul\":6035:6039   */\n      0x60\n        /* \"#utility.yul\":6030:6033   */\n      dup7\n        /* \"#utility.yul\":6026:6040   */\n      add\n        /* \"#utility.yul\":6019:6057   */\n      mstore\n        /* \"#utility.yul\":6078:6151   */\n      tag_167\n        /* \"#utility.yul\":6146:6150   */\n      dup3\n        /* \"#utility.yul\":6132:6144   */\n      dup3\n        /* \"#utility.yul\":6078:6151   */\n      tag_145\n      jump\t// in\n    tag_167:\n        /* \"#utility.yul\":6070:6151   */\n      swap2\n      pop\n        /* \"#utility.yul\":5920:6162   */\n      pop\n        /* \"#utility.yul\":6250:6254   */\n      0x80\n        /* \"#utility.yul\":6243:6248   */\n      dup4\n        /* \"#utility.yul\":6239:6255   */\n      add\n        /* \"#utility.yul\":6233:6256   */\n      mload\n        /* \"#utility.yul\":6269:6332   */\n      tag_168\n        /* \"#utility.yul\":6326:6330   */\n      0x80\n        /* \"#utility.yul\":6321:6324   */\n      dup7\n        /* \"#utility.yul\":6317:6331   */\n      add\n        /* \"#utility.yul\":6303:6315   */\n      dup3\n        /* \"#utility.yul\":6269:6332   */\n      tag_166\n      jump\t// in\n    tag_168:\n        /* \"#utility.yul\":6172:6342   */\n      pop\n        /* \"#utility.yul\":6437:6441   */\n      0xa0\n        /* \"#utility.yul\":6430:6435   */\n      dup4\n        /* \"#utility.yul\":6426:6442   */\n      add\n        /* \"#utility.yul\":6420:6443   */\n      mload\n        /* \"#utility.yul\":6456:6519   */\n      tag_169\n        /* \"#utility.yul\":6513:6517   */\n      0xa0\n        /* \"#utility.yul\":6508:6511   */\n      dup7\n        /* \"#utility.yul\":6504:6518   */\n      add\n        /* \"#utility.yul\":6490:6502   */\n      dup3\n        /* \"#utility.yul\":6456:6519   */\n      tag_166\n      jump\t// in\n    tag_169:\n        /* \"#utility.yul\":6352:6529   */\n      pop\n        /* \"#utility.yul\":6546:6550   */\n      dup1\n        /* \"#utility.yul\":6539:6550   */\n      swap2\n      pop\n        /* \"#utility.yul\":5276:6556   */\n      pop\n      swap3\n      swap2\n      pop\n      pop\n      jump\t// out\n        /* \"#utility.yul\":6562:6670   */\n    tag_166:\n        /* \"#utility.yul\":6639:6663   */\n      tag_171\n        /* \"#utility.yul\":6657:6662   */\n      dup2\n        /* \"#utility.yul\":6639:6663   */\n      tag_172\n      jump\t// in\n    tag_171:\n        /* \"#utility.yul\":6634:6637   */\n      dup3\n        /* \"#utility.yul\":6627:6664   */\n      mstore\n        /* \"#utility.yul\":6617:6670   */\n      pop\n      pop\n      jump\t// out\n        /* \"#utility.yul\":6676:6794   */\n    tag_173:\n        /* \"#utility.yul\":6763:6787   */\n      tag_175\n        /* \"#utility.yul\":6781:6786   */\n      dup2\n        /* \"#utility.yul\":6763:6787   */\n      tag_172\n      jump\t// in\n    tag_175:\n        /* \"#utility.yul\":6758:6761   */\n      dup3\n        /* \"#utility.yul\":6751:6788   */\n      mstore\n        /* \"#utility.yul\":6741:6794   */\n      pop\n      pop\n      jump\t// out\n        /* \"#utility.yul\":6800:7022   */\n    tag_21:\n        /* \"#utility.yul\":6893:6897   */\n      0x00\n        /* \"#utility.yul\":6931:6933   */\n      0x20\n        /* \"#utility.yul\":6920:6929   */\n      dup3\n        /* \"#utility.yul\":6916:6934   */\n      add\n        /* \"#utility.yul\":6908:6934   */\n      swap1\n      pop\n        /* \"#utility.yul\":6944:7015   */\n      tag_177\n        /* \"#utility.yul\":7012:7013   */\n      0x00\n        /* \"#utility.yul\":7001:7010   */\n      dup4\n        /* \"#utility.yul\":6997:7014   */\n      add\n        /* \"#utility.yul\":6988:6994   */\n      dup5\n        /* \"#utility.yul\":6944:7015   */\n      tag_128\n      jump\t// in\n    tag_177:\n        /* \"#utility.yul\":6898:7022   */\n      swap3\n      swap2\n      pop\n      pop\n      jump\t// out\n        /* \"#utility.yul\":7028:7985   */\n    tag_12:\n        /* \"#utility.yul\":7301:7305   */\n      0x00\n        /* \"#utility.yul\":7339:7342   */\n      0xc0\n        /* \"#utility.yul\":7328:7337   */\n      dup3\n        /* \"#utility.yul\":7324:7343   */\n      add\n        /* \"#utility.yul\":7316:7343   */\n      swap1\n      pop\n        /* \"#utility.yul\":7353:7424   */\n      tag_179\n        /* \"#utility.yul\":7421:7422   */\n      0x00\n        /* \"#utility.yul\":7410:7419   */\n      dup4\n        /* \"#utility.yul\":7406:7423   */\n      add\n        /* \"#utility.yul\":7397:7403   */\n      dup10\n        /* \"#utility.yul\":7353:7424   */\n      tag_128\n      jump\t// in\n    tag_179:\n        /* \"#utility.yul\":7471:7480   */\n      dup2\n        /* \"#utility.yul\":7465:7469   */\n      dup2\n        /* \"#utility.yul\":7461:7481   */\n      sub\n        /* \"#utility.yul\":7456:7458   */\n      0x20\n        /* \"#utility.yul\":7445:7454   */\n      dup4\n        /* \"#utility.yul\":7441:7459   */\n      add\n        /* \"#utility.yul\":7434:7482   */\n      mstore\n        /* \"#utility.yul\":7499:7577   */\n      tag_180\n        /* \"#utility.yul\":7572:7576   */\n      dup2\n        /* \"#utility.yul\":7563:7569   */\n      dup9\n        /* \"#utility.yul\":7499:7577   */\n      tag_155\n      jump\t// in\n    tag_180:\n        /* \"#utility.yul\":7491:7577   */\n      swap1\n      pop\n        /* \"#utility.yul\":7587:7659   */\n      tag_181\n        /* \"#utility.yul\":7655:7657   */\n      0x40\n        /* \"#utility.yul\":7644:7653   */\n      dup4\n        /* \"#utility.yul\":7640:7658   */\n      add\n        /* \"#utility.yul\":7631:7637   */\n      dup8\n        /* \"#utility.yul\":7587:7659   */\n      tag_173\n      jump\t// in\n    tag_181:\n        /* \"#utility.yul\":7706:7715   */\n      dup2\n        /* \"#utility.yul\":7700:7704   */\n      dup2\n        /* \"#utility.yul\":7696:7716   */\n      sub\n        /* \"#utility.yul\":7691:7693   */\n      0x60\n        /* \"#utility.yul\":7680:7689   */\n      dup4\n        /* \"#utility.yul\":7676:7694   */\n      add\n        /* \"#utility.yul\":7669:7717   */\n      mstore\n        /* \"#utility.yul\":7734:7812   */\n      tag_182\n        /* \"#utility.yul\":7807:7811   */\n      dup2\n        /* \"#utility.yul\":7798:7804   */\n      dup7\n        /* \"#utility.yul\":7734:7812   */\n      tag_155\n      jump\t// in\n    tag_182:\n        /* \"#utility.yul\":7726:7812   */\n      swap1\n      pop\n        /* \"#utility.yul\":7822:7895   */\n      tag_183\n        /* \"#utility.yul\":7890:7893   */\n      0x80\n        /* \"#utility.yul\":7879:7888   */\n      dup4\n        /* \"#utility.yul\":7875:7894   */\n      add\n        /* \"#utility.yul\":7866:7872   */\n      dup6\n        /* \"#utility.yul\":7822:7895   */\n      tag_173\n      jump\t// in\n    tag_183:\n        /* \"#utility.yul\":7905:7978   */\n      tag_184\n        /* \"#utility.yul\":7973:7976   */\n      0xa0\n        /* \"#utility.yul\":7962:7971   */\n      dup4\n        /* \"#utility.yul\":7958:7977   */\n      add\n        /* \"#utility.yul\":7949:7955   */\n      dup5\n        /* \"#utility.yul\":7905:7978   */\n      tag_173\n      jump\t// in\n    tag_184:\n        /* \"#utility.yul\":7306:7985   */\n      swap8\n      swap7\n      pop\n      pop\n      pop\n      pop\n      pop\n      pop\n      pop\n      jump\t// out\n        /* \"#utility.yul\":7991:8484   */\n    tag_25:\n        /* \"#utility.yul\":8194:8198   */\n      0x00\n        /* \"#utility.yul\":8232:8234   */\n      0x20\n        /* \"#utility.yul\":8221:8230   */\n      dup3\n        /* \"#utility.yul\":8217:8235   */\n      add\n        /* \"#utility.yul\":8209:8235   */\n      swap1\n      pop\n        /* \"#utility.yul\":8281:8290   */\n      dup2\n        /* \"#utility.yul\":8275:8279   */\n      dup2\n        /* \"#utility.yul\":8271:8291   */\n      sub\n        /* \"#utility.yul\":8267:8268   */\n      0x00\n        /* \"#utility.yul\":8256:8265   */\n      dup4\n        /* \"#utility.yul\":8252:8269   */\n      add\n        /* \"#utility.yul\":8245:8292   */\n      mstore\n        /* \"#utility.yul\":8309:8477   */\n      tag_186\n        /* \"#utility.yul\":8472:8476   */\n      dup2\n        /* \"#utility.yul\":8463:8469   */\n      dup5\n        /* \"#utility.yul\":8309:8477   */\n      tag_131\n      jump\t// in\n    tag_186:\n        /* \"#utility.yul\":8301:8477   */\n      swap1\n      pop\n        /* \"#utility.yul\":8199:8484   */\n      swap3\n      swap2\n      pop\n      pop\n      jump\t// out\n        /* \"#utility.yul\":8490:9447   */\n    tag_47:\n        /* \"#utility.yul\":8763:8767   */\n      0x00\n        /* \"#utility.yul\":8801:8804   */\n      0xc0\n        /* \"#utility.yul\":8790:8799   */\n      dup3\n        /* \"#utility.yul\":8786:8805   */\n      add\n        /* \"#utility.yul\":8778:8805   */\n      swap1\n      pop\n        /* \"#utility.yul\":8815:8886   */\n      tag_188\n        /* \"#utility.yul\":8883:8884   */\n      0x00\n        /* \"#utility.yul\":8872:8881   */\n      dup4\n        /* \"#utility.yul\":8868:8885   */\n      add\n        /* \"#utility.yul\":8859:8865   */\n      dup10\n        /* \"#utility.yul\":8815:8886   */\n      tag_173\n      jump\t// in\n    tag_188:\n        /* \"#utility.yul\":8896:8968   */\n      tag_189\n        /* \"#utility.yul\":8964:8966   */\n      0x20\n        /* \"#utility.yul\":8953:8962   */\n      dup4\n        /* \"#utility.yul\":8949:8967   */\n      add\n        /* \"#utility.yul\":8940:8946   */\n      dup9\n        /* \"#utility.yul\":8896:8968   */\n      tag_128\n      jump\t// in\n    tag_189:\n        /* \"#utility.yul\":9015:9024   */\n      dup2\n        /* \"#utility.yul\":9009:9013   */\n      dup2\n        /* \"#utility.yul\":9005:9025   */\n      sub\n        /* \"#utility.yul\":9000:9002   */\n      0x40\n        /* \"#utility.yul\":8989:8998   */\n      dup4\n        /* \"#utility.yul\":8985:9003   */\n      add\n        /* \"#utility.yul\":8978:9026   */\n      mstore\n        /* \"#utility.yul\":9043:9121   */\n      tag_190\n        /* \"#utility.yul\":9116:9120   */\n      dup2\n        /* \"#utility.yul\":9107:9113   */\n      dup8\n        /* \"#utility.yul\":9043:9121   */\n      tag_155\n      jump\t// in\n    tag_190:\n        /* \"#utility.yul\":9035:9121   */\n      swap1\n      pop\n        /* \"#utility.yul\":9131:9203   */\n      tag_191\n        /* \"#utility.yul\":9199:9201   */\n      0x60\n        /* \"#utility.yul\":9188:9197   */\n      dup4\n        /* \"#utility.yul\":9184:9202   */\n      add\n        /* \"#utility.yul\":9175:9181   */\n      dup7\n        /* \"#utility.yul\":9131:9203   */\n      tag_173\n      jump\t// in\n    tag_191:\n        /* \"#utility.yul\":9251:9260   */\n      dup2\n        /* \"#utility.yul\":9245:9249   */\n      dup2\n        /* \"#utility.yul\":9241:9261   */\n      sub\n        /* \"#utility.yul\":9235:9238   */\n      0x80\n        /* \"#utility.yul\":9224:9233   */\n      dup4\n        /* \"#utility.yul\":9220:9239   */\n      add\n        /* \"#utility.yul\":9213:9262   */\n      mstore\n        /* \"#utility.yul\":9279:9357   */\n      tag_192\n        /* \"#utility.yul\":9352:9356   */\n      dup2\n        /* \"#utility.yul\":9343:9349   */\n      dup6\n        /* \"#utility.yul\":9279:9357   */\n      tag_155\n      jump\t// in\n    tag_192:\n        /* \"#utility.yul\":9271:9357   */\n      swap1\n      pop\n        /* \"#utility.yul\":9367:9440   */\n      tag_193\n        /* \"#utility.yul\":9435:9438   */\n      0xa0\n        /* \"#utility.yul\":9424:9433   */\n      dup4\n        /* \"#utility.yul\":9420:9439   */\n      add\n        /* \"#utility.yul\":9411:9417   */\n      dup5\n        /* \"#utility.yul\":9367:9440   */\n      tag_173\n      jump\t// in\n    tag_193:\n        /* \"#utility.yul\":8768:9447   */\n      swap8\n      swap7\n      pop\n      pop\n      pop\n      pop\n      pop\n      pop\n      pop\n      jump\t// out\n        /* \"#utility.yul\":9453:9582   */\n    tag_90:\n        /* \"#utility.yul\":9487:9493   */\n      0x00\n        /* \"#utility.yul\":9514:9534   */\n      tag_195\n      tag_196\n      jump\t// in\n    tag_195:\n        /* \"#utility.yul\":9504:9534   */\n      swap1\n      pop\n        /* \"#utility.yul\":9543:9576   */\n      tag_197\n        /* \"#utility.yul\":9571:9575   */\n      dup3\n        /* \"#utility.yul\":9563:9569   */\n      dup3\n        /* \"#utility.yul\":9543:9576   */\n      tag_198\n      jump\t// in\n    tag_197:\n        /* \"#utility.yul\":9494:9582   */\n      swap2\n      swap1\n      pop\n      jump\t// out\n        /* \"#utility.yul\":9588:9663   */\n    tag_196:\n        /* \"#utility.yul\":9621:9627   */\n      0x00\n        /* \"#utility.yul\":9654:9656   */\n      0x40\n        /* \"#utility.yul\":9648:9657   */\n      mload\n        /* \"#utility.yul\":9638:9657   */\n      swap1\n      pop\n        /* \"#utility.yul\":9628:9663   */\n      swap1\n      jump\t// out\n        /* \"#utility.yul\":9669:9977   */\n    tag_89:\n        /* \"#utility.yul\":9731:9735   */\n      0x00\n        /* \"#utility.yul\":9821:9839   */\n      0xffffffffffffffff\n        /* \"#utility.yul\":9813:9819   */\n      dup3\n        /* \"#utility.yul\":9810:9840   */\n      gt\n        /* \"#utility.yul\":9807:9809   */\n      iszero\n      tag_201\n      jumpi\n        /* \"#utility.yul\":9843:9861   */\n      tag_202\n      tag_203\n      jump\t// in\n    tag_202:\n        /* \"#utility.yul\":9807:9809   */\n    tag_201:\n        /* \"#utility.yul\":9881:9910   */\n      tag_204\n        /* \"#utility.yul\":9903:9909   */\n      dup3\n        /* \"#utility.yul\":9881:9910   */\n      tag_154\n      jump\t// in\n    tag_204:\n        /* \"#utility.yul\":9873:9910   */\n      swap1\n      pop\n        /* \"#utility.yul\":9965:9969   */\n      0x20\n        /* \"#utility.yul\":9959:9963   */\n      dup2\n        /* \"#utility.yul\":9955:9970   */\n      add\n        /* \"#utility.yul\":9947:9970   */\n      swap1\n      pop\n        /* \"#utility.yul\":9736:9977   */\n      swap2\n      swap1\n      pop\n      jump\t// out\n        /* \"#utility.yul\":9983:10145   */\n    tag_138:\n        /* \"#utility.yul\":10080:10084   */\n      0x00\n        /* \"#utility.yul\":10103:10106   */\n      dup2\n        /* \"#utility.yul\":10095:10106   */\n      swap1\n      pop\n        /* \"#utility.yul\":10133:10137   */\n      0x20\n        /* \"#utility.yul\":10128:10131   */\n      dup3\n        /* \"#utility.yul\":10124:10138   */\n      add\n        /* \"#utility.yul\":10116:10138   */\n      swap1\n      pop\n        /* \"#utility.yul\":10085:10145   */\n      swap2\n      swap1\n      pop\n      jump\t// out\n        /* \"#utility.yul\":10151:10295   */\n    tag_134:\n        /* \"#utility.yul\":10248:10254   */\n      0x00\n        /* \"#utility.yul\":10282:10287   */\n      dup2\n        /* \"#utility.yul\":10276:10288   */\n      mload\n        /* \"#utility.yul\":10266:10288   */\n      swap1\n      pop\n        /* \"#utility.yul\":10255:10295   */\n      swap2\n      swap1\n      pop\n      jump\t// out\n        /* \"#utility.yul\":10301:10400   */\n    tag_148:\n        /* \"#utility.yul\":10353:10359   */\n      0x00\n        /* \"#utility.yul\":10387:10392   */\n      dup2\n        /* \"#utility.yul\":10381:10393   */\n      mload\n        /* \"#utility.yul\":10371:10393   */\n      swap1\n      pop\n        /* \"#utility.yul\":10360:10400   */\n      swap2\n      swap1\n      pop\n      jump\t// out\n        /* \"#utility.yul\":10406:10549   */\n    tag_144:\n        /* \"#utility.yul\":10506:10510   */\n      0x00\n        /* \"#utility.yul\":10538:10542   */\n      0x20\n        /* \"#utility.yul\":10533:10536   */\n      dup3\n        /* \"#utility.yul\":10529:10543   */\n      add\n        /* \"#utility.yul\":10521:10543   */\n      swap1\n      pop\n        /* \"#utility.yul\":10511:10549   */\n      swap2\n      swap1\n      pop\n      jump\t// out\n        /* \"#utility.yul\":10555:10769   */\n    tag_136:\n        /* \"#utility.yul\":10684:10695   */\n      0x00\n        /* \"#utility.yul\":10718:10724   */\n      dup3\n        /* \"#utility.yul\":10713:10716   */\n      dup3\n        /* \"#utility.yul\":10706:10725   */\n      mstore\n        /* \"#utility.yul\":10758:10762   */\n      0x20\n        /* \"#utility.yul\":10753:10756   */\n      dup3\n        /* \"#utility.yul\":10749:10763   */\n      add\n        /* \"#utility.yul\":10734:10763   */\n      swap1\n      pop\n        /* \"#utility.yul\":10696:10769   */\n      swap3\n      swap2\n      pop\n      pop\n      jump\t// out\n        /* \"#utility.yul\":10775:10934   */\n    tag_150:\n        /* \"#utility.yul\":10849:10860   */\n      0x00\n        /* \"#utility.yul\":10883:10889   */\n      dup3\n        /* \"#utility.yul\":10878:10881   */\n      dup3\n        /* \"#utility.yul\":10871:10890   */\n      mstore\n        /* \"#utility.yul\":10923:10927   */\n      0x20\n        /* \"#utility.yul\":10918:10921   */\n      dup3\n        /* \"#utility.yul\":10914:10928   */\n      add\n        /* \"#utility.yul\":10899:10928   */\n      swap1\n      pop\n        /* \"#utility.yul\":10861:10934   */\n      swap3\n      swap2\n      pop\n      pop\n      jump\t// out\n        /* \"#utility.yul\":10940:11109   */\n    tag_159:\n        /* \"#utility.yul\":11024:11035   */\n      0x00\n        /* \"#utility.yul\":11058:11064   */\n      dup3\n        /* \"#utility.yul\":11053:11056   */\n      dup3\n        /* \"#utility.yul\":11046:11065   */\n      mstore\n        /* \"#utility.yul\":11098:11102   */\n      0x20\n        /* \"#utility.yul\":11093:11096   */\n      dup3\n        /* \"#utility.yul\":11089:11103   */\n      add\n        /* \"#utility.yul\":11074:11103   */\n      swap1\n      pop\n        /* \"#utility.yul\":11036:11109   */\n      swap3\n      swap2\n      pop\n      pop\n      jump\t// out\n        /* \"#utility.yul\":11115:11420   */\n    tag_43:\n        /* \"#utility.yul\":11155:11158   */\n      0x00\n        /* \"#utility.yul\":11174:11194   */\n      tag_213\n        /* \"#utility.yul\":11192:11193   */\n      dup3\n        /* \"#utility.yul\":11174:11194   */\n      tag_172\n      jump\t// in\n    tag_213:\n        /* \"#utility.yul\":11169:11194   */\n      swap2\n      pop\n        /* \"#utility.yul\":11208:11228   */\n      tag_214\n        /* \"#utility.yul\":11226:11227   */\n      dup4\n        /* \"#utility.yul\":11208:11228   */\n      tag_172\n      jump\t// in\n    tag_214:\n        /* \"#utility.yul\":11203:11228   */\n      swap3\n      pop\n        /* \"#utility.yul\":11362:11363   */\n      dup3\n        /* \"#utility.yul\":11294:11360   */\n      0xffffffffffffffffffffffffffffffffffffffffffffffffffffffffffffffff\n        /* \"#utility.yul\":11290:11364   */\n      sub\n        /* \"#utility.yul\":11287:11288   */\n      dup3\n        /* \"#utility.yul\":11284:11365   */\n      gt\n        /* \"#utility.yul\":11281:11283   */\n      iszero\n      tag_215\n      jumpi\n        /* \"#utility.yul\":11368:11386   */\n      tag_216\n      tag_217\n      jump\t// in\n    tag_216:\n        /* \"#utility.yul\":11281:11283   */\n    tag_215:\n        /* \"#utility.yul\":11412:11413   */\n      dup3\n        /* \"#utility.yul\":11409:11410   */\n      dup3\n        /* \"#utility.yul\":11405:11414   */\n      add\n        /* \"#utility.yul\":11398:11414   */\n      swap1\n      pop\n        /* \"#utility.yul\":11159:11420   */\n      swap3\n      swap2\n      pop\n      pop\n      jump\t// out\n        /* \"#utility.yul\":11426:11774   */\n    tag_41:\n        /* \"#utility.yul\":11466:11473   */\n      0x00\n        /* \"#utility.yul\":11489:11509   */\n      tag_219\n        /* \"#utility.yul\":11507:11508   */\n      dup3\n        /* \"#utility.yul\":11489:11509   */\n      tag_172\n      jump\t// in\n    tag_219:\n        /* \"#utility.yul\":11484:11509   */\n      swap2\n      pop\n        /* \"#utility.yul\":11523:11543   */\n      tag_220\n        /* \"#utility.yul\":11541:11542   */\n      dup4\n        /* \"#utility.yul\":11523:11543   */\n      tag_172\n      jump\t// in\n    tag_220:\n        /* \"#utility.yul\":11518:11543   */\n      swap3\n      pop\n        /* \"#utility.yul\":11711:11712   */\n      dup2\n        /* \"#utility.yul\":11643:11709   */\n      0xffffffffffffffffffffffffffffffffffffffffffffffffffffffffffffffff\n        /* \"#utility.yul\":11639:11713   */\n      div\n        /* \"#utility.yul\":11636:11637   */\n      dup4\n        /* \"#utility.yul\":11633:11714   */\n      gt\n        /* \"#utility.yul\":11628:11629   */\n      dup3\n        /* \"#utility.yul\":11621:11630   */\n      iszero\n        /* \"#utility.yul\":11614:11631   */\n      iszero\n        /* \"#utility.yul\":11610:11715   */\n      and\n        /* \"#utility.yul\":11607:11609   */\n      iszero\n      tag_221\n      jumpi\n        /* \"#utility.yul\":11718:11736   */\n      tag_222\n      tag_217\n      jump\t// in\n    tag_222:\n        /* \"#utility.yul\":11607:11609   */\n    tag_221:\n        /* \"#utility.yul\":11766:11767   */\n      dup3\n        /* \"#utility.yul\":11763:11764   */\n      dup3\n        /* \"#utility.yul\":11759:11768   */\n      mul\n        /* \"#utility.yul\":11748:11768   */\n      swap1\n      pop\n        /* \"#utility.yul\":11474:11774   */\n      swap3\n      swap2\n      pop\n      pop\n      jump\t// out\n        /* \"#utility.yul\":11780:11876   */\n    tag_127:\n        /* \"#utility.yul\":11817:11824   */\n      0x00\n        /* \"#utility.yul\":11846:11870   */\n      tag_224\n        /* \"#utility.yul\":11864:11869   */\n      dup3\n        /* \"#utility.yul\":11846:11870   */\n      tag_225\n      jump\t// in\n    tag_224:\n        /* \"#utility.yul\":11835:11870   */\n      swap1\n      pop\n        /* \"#utility.yul\":11825:11876   */\n      swap2\n      swap1\n      pop\n      jump\t// out\n        /* \"#utility.yul\":11882:12008   */\n    tag_225:\n        /* \"#utility.yul\":11919:11926   */\n      0x00\n        /* \"#utility.yul\":11959:12001   */\n      0xffffffffffffffffffffffffffffffffffffffff\n        /* \"#utility.yul\":11952:11957   */\n      dup3\n        /* \"#utility.yul\":11948:12002   */\n      and\n        /* \"#utility.yul\":11937:12002   */\n      swap1\n      pop\n        /* \"#utility.yul\":11927:12008   */\n      swap2\n      swap1\n      pop\n      jump\t// out\n        /* \"#utility.yul\":12014:12091   */\n    tag_172:\n        /* \"#utility.yul\":12051:12058   */\n      0x00\n        /* \"#utility.yul\":12080:12085   */\n      dup2\n        /* \"#utility.yul\":12069:12085   */\n      swap1\n      pop\n        /* \"#utility.yul\":12059:12091   */\n      swap2\n      swap1\n      pop\n      jump\t// out\n        /* \"#utility.yul\":12097:12251   */\n    tag_93:\n        /* \"#utility.yul\":12181:12187   */\n      dup3\n        /* \"#utility.yul\":12176:12179   */\n      dup2\n        /* \"#utility.yul\":12171:12174   */\n      dup4\n        /* \"#utility.yul\":12158:12188   */\n      calldatacopy\n        /* \"#utility.yul\":12243:12244   */\n      0x00\n        /* \"#utility.yul\":12234:12240   */\n      dup4\n        /* \"#utility.yul\":12229:12232   */\n      dup4\n        /* \"#utility.yul\":12225:12241   */\n      add\n        /* \"#utility.yul\":12218:12245   */\n      mstore\n        /* \"#utility.yul\":12148:12251   */\n      pop\n      pop\n      pop\n      jump\t// out\n        /* \"#utility.yul\":12257:12564   */\n    tag_152:\n        /* \"#utility.yul\":12325:12326   */\n      0x00\n        /* \"#utility.yul\":12335:12448   */\n    tag_230:\n        /* \"#utility.yul\":12349:12355   */\n      dup4\n        /* \"#utility.yul\":12346:12347   */\n      dup2\n        /* \"#utility.yul\":12343:12356   */\n      lt\n        /* \"#utility.yul\":12335:12448   */\n      iszero\n      tag_232\n      jumpi\n        /* \"#utility.yul\":12434:12435   */\n      dup1\n        /* \"#utility.yul\":12429:12432   */\n      dup3\n        /* \"#utility.yul\":12425:12436   */\n      add\n        /* \"#utility.yul\":12419:12437   */\n      mload\n        /* \"#utility.yul\":12415:12416   */\n      dup2\n        /* \"#utility.yul\":12410:12413   */\n      dup5\n        /* \"#utility.yul\":12406:12417   */\n      add\n        /* \"#utility.yul\":12399:12438   */\n      mstore\n        /* \"#utility.yul\":12371:12373   */\n      0x20\n        /* \"#utility.yul\":12368:12369   */\n      dup2\n        /* \"#utility.yul\":12364:12374   */\n      add\n        /* \"#utility.yul\":12359:12374   */\n      swap1\n      pop\n        /* \"#utility.yul\":12335:12448   */\n      jump(tag_230)\n    tag_232:\n        /* \"#utility.yul\":12466:12472   */\n      dup4\n        /* \"#utility.yul\":12463:12464   */\n      dup2\n        /* \"#utility.yul\":12460:12473   */\n      gt\n        /* \"#utility.yul\":12457:12459   */\n      iszero\n      tag_233\n      jumpi\n        /* \"#utility.yul\":12546:12547   */\n      0x00\n        /* \"#utility.yul\":12537:12543   */\n      dup5\n        /* \"#utility.yul\":12532:12535   */\n      dup5\n        /* \"#utility.yul\":12528:12544   */\n      add\n        /* \"#utility.yul\":12521:12548   */\n      mstore\n        /* \"#utility.yul\":12457:12459   */\n    tag_233:\n        /* \"#utility.yul\":12306:12564   */\n      pop\n      pop\n      pop\n      pop\n      jump\t// out\n        /* \"#utility.yul\":12570:12890   */\n    tag_29:\n        /* \"#utility.yul\":12614:12620   */\n      0x00\n        /* \"#utility.yul\":12651:12652   */\n      0x02\n        /* \"#utility.yul\":12645:12649   */\n      dup3\n        /* \"#utility.yul\":12641:12653   */\n      div\n        /* \"#utility.yul\":12631:12653   */\n      swap1\n      pop\n        /* \"#utility.yul\":12698:12699   */\n      0x01\n        /* \"#utility.yul\":12692:12696   */\n      dup3\n        /* \"#utility.yul\":12688:12700   */\n      and\n        /* \"#utility.yul\":12719:12737   */\n      dup1\n        /* \"#utility.yul\":12709:12711   */\n      tag_235\n      jumpi\n        /* \"#utility.yul\":12775:12779   */\n      0x7f\n        /* \"#utility.yul\":12767:12773   */\n      dup3\n        /* \"#utility.yul\":12763:12780   */\n      and\n        /* \"#utility.yul\":12753:12780   */\n      swap2\n      pop\n        /* \"#utility.yul\":12709:12711   */\n    tag_235:\n        /* \"#utility.yul\":12837:12839   */\n      0x20\n        /* \"#utility.yul\":12829:12835   */\n      dup3\n        /* \"#utility.yul\":12826:12840   */\n      lt\n        /* \"#utility.yul\":12806:12824   */\n      dup2\n        /* \"#utility.yul\":12803:12841   */\n      eq\n        /* \"#utility.yul\":12800:12802   */\n      iszero\n      tag_236\n      jumpi\n        /* \"#utility.yul\":12856:12874   */\n      tag_237\n      tag_238\n      jump\t// in\n    tag_237:\n        /* \"#utility.yul\":12800:12802   */\n    tag_236:\n        /* \"#utility.yul\":12621:12890   */\n      pop\n      swap2\n      swap1\n      pop\n      jump\t// out\n        /* \"#utility.yul\":12896:13177   */\n    tag_198:\n        /* \"#utility.yul\":12979:13006   */\n      tag_240\n        /* \"#utility.yul\":13001:13005   */\n      dup3\n        /* \"#utility.yul\":12979:13006   */\n      tag_154\n      jump\t// in\n    tag_240:\n        /* \"#utility.yul\":12971:12977   */\n      dup2\n        /* \"#utility.yul\":12967:13007   */\n      add\n        /* \"#utility.yul\":13109:13115   */\n      dup2\n        /* \"#utility.yul\":13097:13107   */\n      dup2\n        /* \"#utility.yul\":13094:13116   */\n      lt\n        /* \"#utility.yul\":13073:13091   */\n      0xffffffffffffffff\n        /* \"#utility.yul\":13061:13071   */\n      dup3\n        /* \"#utility.yul\":13058:13092   */\n      gt\n        /* \"#utility.yul\":13055:13117   */\n      or\n        /* \"#utility.yul\":13052:13054   */\n      iszero\n      tag_241\n      jumpi\n        /* \"#utility.yul\":13120:13138   */\n      tag_242\n      tag_203\n      jump\t// in\n    tag_242:\n        /* \"#utility.yul\":13052:13054   */\n    tag_241:\n        /* \"#utility.yul\":13160:13170   */\n      dup1\n        /* \"#utility.yul\":13156:13158   */\n      0x40\n        /* \"#utility.yul\":13149:13171   */\n      mstore\n        /* \"#utility.yul\":12939:13177   */\n      pop\n      pop\n      pop\n      jump\t// out\n        /* \"#utility.yul\":13183:13363   */\n    tag_217:\n        /* \"#utility.yul\":13231:13308   */\n      0x4e487b7100000000000000000000000000000000000000000000000000000000\n        /* \"#utility.yul\":13228:13229   */\n      0x00\n        /* \"#utility.yul\":13221:13309   */\n      mstore\n        /* \"#utility.yul\":13328:13332   */\n      0x11\n        /* \"#utility.yul\":13325:13326   */\n      0x04\n        /* \"#utility.yul\":13318:13333   */\n      mstore\n        /* \"#utility.yul\":13352:13356   */\n      0x24\n        /* \"#utility.yul\":13349:13350   */\n      0x00\n        /* \"#utility.yul\":13342:13357   */\n      revert\n        /* \"#utility.yul\":13369:13549   */\n    tag_238:\n        /* \"#utility.yul\":13417:13494   */\n      0x4e487b7100000000000000000000000000000000000000000000000000000000\n        /* \"#utility.yul\":13414:13415   */\n      0x00\n        /* \"#utility.yul\":13407:13495   */\n      mstore\n        /* \"#utility.yul\":13514:13518   */\n      0x22\n        /* \"#utility.yul\":13511:13512   */\n      0x04\n        /* \"#utility.yul\":13504:13519   */\n      mstore\n        /* \"#utility.yul\":13538:13542   */\n      0x24\n        /* \"#utility.yul\":13535:13536   */\n      0x00\n        /* \"#utility.yul\":13528:13543   */\n      revert\n        /* \"#utility.yul\":13555:13735   */\n    tag_203:\n        /* \"#utility.yul\":13603:13680   */\n      0x4e487b7100000000000000000000000000000000000000000000000000000000\n        /* \"#utility.yul\":13600:13601   */\n      0x00\n        /* \"#utility.yul\":13593:13681   */\n      mstore\n        /* \"#utility.yul\":13700:13704   */\n      0x41\n        /* \"#utility.yul\":13697:13698   */\n      0x04\n        /* \"#utility.yul\":13690:13705   */\n      mstore\n        /* \"#utility.yul\":13724:13728   */\n      0x24\n        /* \"#utility.yul\":13721:13722   */\n      0x00\n        /* \"#utility.yul\":13714:13729   */\n      revert\n        /* \"#utility.yul\":13741:13843   */\n    tag_154:\n        /* \"#utility.yul\":13782:13788   */\n      0x00\n        /* \"#utility.yul\":13833:13835   */\n      0x1f\n        /* \"#utility.yul\":13829:13836   */\n      not\n        /* \"#utility.yul\":13824:13826   */\n      0x1f\n        /* \"#utility.yul\":13817:13822   */\n      dup4\n        /* \"#utility.yul\":13813:13827   */\n      add\n        /* \"#utility.yul\":13809:13837   */\n      and\n        /* \"#utility.yul\":13799:13837   */\n      swap1\n      pop\n        /* \"#utility.yul\":13789:13843   */\n      swap2\n      swap1\n      pop\n      jump\t// out\n        /* \"#utility.yul\":13849:13971   */\n    tag_101:\n        /* \"#utility.yul\":13922:13946   */\n      tag_248\n        /* \"#utility.yul\":13940:13945   */\n      dup2\n        /* \"#utility.yul\":13922:13946   */\n      tag_172\n      jump\t// in\n    tag_248:\n        /* \"#utility.yul\":13915:13920   */\n      dup2\n        /* \"#utility.yul\":13912:13947   */\n      eq\n        /* \"#utility.yul\":13902:13904   */\n      tag_249\n      jumpi\n        /* \"#utility.yul\":13961:13962   */\n      0x00\n        /* \"#utility.yul\":13958:13959   */\n      dup1\n        /* \"#utility.yul\":13951:13963   */\n      revert\n        /* \"#utility.yul\":13902:13904   */\n    tag_249:\n        /* \"#utility.yul\":13892:13971   */\n      pop\n      jump\t// out\n    stop\n\n    sub_0: assembly {\n            /* \"campaign.sol\":1144:5714  contract Campaign {\r... */\n          mstore(0x40, 0x80)\n            /* \"campaign.sol\":1849:1866  State.Fundraising */\n          0x00\n            /* \"campaign.sol\":1828:1866  State public state = State.Fundraising */\n          0x06\n          exp(0x0100, 0x00)\n          dup2\n          sload\n          dup2\n          0xff\n          mul\n          not\n          and\n          swap1\n          dup4\n          0x01\n          dup2\n          gt\n          iszero\n          tag_1\n          jumpi\n          mstore(0x00, 0x4e487b7100000000000000000000000000000000000000000000000000000000)\n          mstore(0x04, 0x21)\n          revert(0x00, 0x24)\n        tag_1:\n          mul\n          or\n          swap1\n          sstore\n          pop\n            /* \"campaign.sol\":2441:2828  constructor(uint minimum, address creator, string memory title, uint goal, string memory description, uint deadline) {\r... */\n          callvalue\n          dup1\n          iszero\n          tag_2\n          jumpi\n          0x00\n          dup1\n          revert\n        tag_2:\n          pop\n          mload(0x40)\n          sub(codesize, bytecodeSize)\n          dup1\n          bytecodeSize\n          dup4\n          codecopy\n          dup2\n          dup2\n          add\n          0x40\n          mstore\n          dup2\n          add\n          swap1\n          tag_3\n          swap2\n          swap1\n          tag_4\n          jump\t// in\n        tag_3:\n            /* \"campaign.sol\":2579:2586  creator */\n          dup5\n            /* \"campaign.sol\":2569:2576  manager */\n          0x00\n          dup1\n            /* \"campaign.sol\":2569:2586  manager = creator */\n          0x0100\n          exp\n          dup2\n          sload\n          dup2\n          0xffffffffffffffffffffffffffffffffffffffff\n          mul\n          not\n          and\n          swap1\n          dup4\n          0xffffffffffffffffffffffffffffffffffffffff\n          and\n          mul\n          or\n          swap1\n          sstore\n          pop\n            /* \"campaign.sol\":2619:2626  minimum */\n          dup6\n            /* \"campaign.sol\":2597:2616  minimumContribution */\n          0x09\n            /* \"campaign.sol\":2597:2626  minimumContribution = minimum */\n          dup2\n          swap1\n          sstore\n          pop\n            /* \"campaign.sol\":2653:2658  title */\n          dup4\n            /* \"campaign.sol\":2637:2650  titleCompaign */\n          0x01\n            /* \"campaign.sol\":2637:2658  titleCompaign = title */\n          swap1\n          dup1\n          mload\n          swap1\n          0x20\n          add\n          swap1\n          tag_7\n          swap3\n          swap2\n          swap1\n          tag_8\n          jump\t// in\n        tag_7:\n          pop\n            /* \"campaign.sol\":2682:2686  goal */\n          dup3\n            /* \"campaign.sol\":2669:2679  amountGoal */\n          0x02\n            /* \"campaign.sol\":2669:2686  amountGoal = goal */\n          dup2\n          swap1\n          sstore\n          pop\n            /* \"campaign.sol\":2719:2730  description */\n          dup2\n            /* \"campaign.sol\":2697:2716  CampaignDescription */\n          0x03\n            /* \"campaign.sol\":2697:2730  CampaignDescription = description */\n          swap1\n          dup1\n          mload\n          swap1\n          0x20\n          add\n          swap1\n          tag_9\n          swap3\n          swap2\n          swap1\n          tag_8\n          jump\t// in\n        tag_9:\n          pop\n            /* \"campaign.sol\":2761:2762  0 */\n          0x00\n            /* \"campaign.sol\":2741:2758  totalContribution */\n          0x04\n            /* \"campaign.sol\":2741:2762  totalContribution = 0 */\n          dup2\n          swap1\n          sstore\n          pop\n            /* \"campaign.sol\":2783:2791  deadline */\n          dup1\n            /* \"campaign.sol\":2773:2780  raiseBy */\n          0x07\n            /* \"campaign.sol\":2773:2791  raiseBy = deadline */\n          dup2\n          swap1\n          sstore\n          pop\n            /* \"campaign.sol\":2819:2820  0 */\n          0x00\n            /* \"campaign.sol\":2802:2816  currentBalance */\n          0x08\n            /* \"campaign.sol\":2802:2820  currentBalance = 0 */\n          dup2\n          swap1\n          sstore\n          pop\n            /* \"campaign.sol\":2441:2828  constructor(uint minimum, address creator, string memory title, uint goal, string memory description, uint deadline) {\r... */\n          pop\n          pop\n          pop\n          pop\n          pop\n          pop\n            /* \"campaign.sol\":1144:5714  contract Campaign {\r... */\n          jump(tag_10)\n        tag_8:\n          dup3\n          dup1\n          sload\n          tag_11\n          swap1\n          tag_12\n          jump\t// in\n        tag_11:\n          swap1\n          0x00\n          mstore\n          keccak256(0x00, 0x20)\n          swap1\n          0x1f\n          add\n          0x20\n          swap1\n          div\n          dup2\n          add\n          swap3\n          dup3\n          tag_14\n          jumpi\n          0x00\n          dup6\n          sstore\n          jump(tag_13)\n        tag_14:\n          dup3\n          0x1f\n          lt\n          tag_15\n          jumpi\n          dup1\n          mload\n          not(0xff)\n          and\n          dup4\n          dup1\n          add\n          or\n          dup6\n          sstore\n          jump(tag_13)\n        tag_15:\n          dup3\n          dup1\n          add\n          0x01\n          add\n          dup6\n          sstore\n          dup3\n          iszero\n          tag_13\n          jumpi\n          swap2\n          dup3\n          add\n        tag_16:\n          dup3\n          dup2\n          gt\n          iszero\n          tag_17\n          jumpi\n          dup3\n          mload\n          dup3\n          sstore\n          swap2\n          0x20\n          add\n          swap2\n          swap1\n          0x01\n          add\n          swap1\n          jump(tag_16)\n        tag_17:\n        tag_13:\n          pop\n          swap1\n          pop\n          tag_18\n          swap2\n          swap1\n          tag_19\n          jump\t// in\n        tag_18:\n          pop\n          swap1\n          jump\t// out\n        tag_19:\n        tag_20:\n          dup1\n          dup3\n          gt\n          iszero\n          tag_21\n          jumpi\n          0x00\n          dup2\n          0x00\n          swap1\n          sstore\n          pop\n          0x01\n          add\n          jump(tag_20)\n        tag_21:\n          pop\n          swap1\n          jump\t// out\n            /* \"#utility.yul\":7:361   */\n        tag_23:\n            /* \"#utility.yul\":96:101   */\n          0x00\n            /* \"#utility.yul\":121:187   */\n          tag_25\n            /* \"#utility.yul\":137:186   */\n          tag_26\n            /* \"#utility.yul\":179:185   */\n          dup5\n            /* \"#utility.yul\":137:186   */\n          tag_27\n          jump\t// in\n        tag_26:\n            /* \"#utility.yul\":121:187   */\n          tag_28\n          jump\t// in\n        tag_25:\n            /* \"#utility.yul\":112:187   */\n          swap1\n          pop\n            /* \"#utility.yul\":210:216   */\n          dup3\n            /* \"#utility.yul\":203:208   */\n          dup2\n            /* \"#utility.yul\":196:217   */\n          mstore\n            /* \"#utility.yul\":248:252   */\n          0x20\n            /* \"#utility.yul\":241:246   */\n          dup2\n            /* \"#utility.yul\":237:253   */\n          add\n            /* \"#utility.yul\":286:289   */\n          dup5\n            /* \"#utility.yul\":277:283   */\n          dup5\n            /* \"#utility.yul\":272:275   */\n          dup5\n            /* \"#utility.yul\":268:284   */\n          add\n            /* \"#utility.yul\":265:290   */\n          gt\n            /* \"#utility.yul\":262:264   */\n          iszero\n          tag_29\n          jumpi\n            /* \"#utility.yul\":303:304   */\n          0x00\n            /* \"#utility.yul\":300:301   */\n          dup1\n            /* \"#utility.yul\":293:305   */\n          revert\n            /* \"#utility.yul\":262:264   */\n        tag_29:\n            /* \"#utility.yul\":316:355   */\n          tag_30\n            /* \"#utility.yul\":348:354   */\n          dup5\n            /* \"#utility.yul\":343:346   */\n          dup3\n            /* \"#utility.yul\":338:341   */\n          dup6\n            /* \"#utility.yul\":316:355   */\n          tag_31\n          jump\t// in\n        tag_30:\n            /* \"#utility.yul\":102:361   */\n          pop\n          swap4\n          swap3\n          pop\n          pop\n          pop\n          jump\t// out\n            /* \"#utility.yul\":367:510   */\n        tag_32:\n            /* \"#utility.yul\":424:429   */\n          0x00\n            /* \"#utility.yul\":455:461   */\n          dup2\n            /* \"#utility.yul\":449:462   */\n          mload\n            /* \"#utility.yul\":440:462   */\n          swap1\n          pop\n            /* \"#utility.yul\":471:504   */\n          tag_34\n            /* \"#utility.yul\":498:503   */\n          dup2\n            /* \"#utility.yul\":471:504   */\n          tag_35\n          jump\t// in\n        tag_34:\n            /* \"#utility.yul\":430:510   */\n          swap3\n          swap2\n          pop\n          pop\n          jump\t// out\n            /* \"#utility.yul\":530:818   */\n        tag_36:\n            /* \"#utility.yul\":597:602   */\n          0x00\n            /* \"#utility.yul\":646:649   */\n          dup3\n            /* \"#utility.yul\":639:643   */\n          0x1f\n            /* \"#utility.yul\":631:637   */\n          dup4\n            /* \"#utility.yul\":627:644   */\n          add\n            /* \"#utility.yul\":623:650   */\n          slt\n            /* \"#utility.yul\":613:615   */\n          tag_38\n          jumpi\n            /* \"#utility.yul\":664:665   */\n          0x00\n            /* \"#utility.yul\":661:662   */\n          dup1\n            /* \"#utility.yul\":654:666   */\n          revert\n            /* \"#utility.yul\":613:615   */\n        tag_38:\n            /* \"#utility.yul\":697:703   */\n          dup2\n            /* \"#utility.yul\":691:704   */\n          mload\n            /* \"#utility.yul\":722:812   */\n          tag_39\n            /* \"#utility.yul\":808:811   */\n          dup5\n            /* \"#utility.yul\":800:806   */\n          dup3\n            /* \"#utility.yul\":793:797   */\n          0x20\n            /* \"#utility.yul\":785:791   */\n          dup7\n            /* \"#utility.yul\":781:798   */\n          add\n            /* \"#utility.yul\":722:812   */\n          tag_23\n          jump\t// in\n        tag_39:\n            /* \"#utility.yul\":713:812   */\n          swap2\n          pop\n            /* \"#utility.yul\":603:818   */\n          pop\n          swap3\n          swap2\n          pop\n          pop\n          jump\t// out\n            /* \"#utility.yul\":824:967   */\n        tag_40:\n            /* \"#utility.yul\":881:886   */\n          0x00\n            /* \"#utility.yul\":912:918   */\n          dup2\n            /* \"#utility.yul\":906:919   */\n          mload\n            /* \"#utility.yul\":897:919   */\n          swap1\n          pop\n            /* \"#utility.yul\":928:961   */\n          tag_42\n            /* \"#utility.yul\":955:960   */\n          dup2\n            /* \"#utility.yul\":928:961   */\n          tag_43\n          jump\t// in\n        tag_42:\n            /* \"#utility.yul\":887:967   */\n          swap3\n          swap2\n          pop\n          pop\n          jump\t// out\n            /* \"#utility.yul\":973:2252   */\n        tag_4:\n            /* \"#utility.yul\":1108:1114   */\n          0x00\n            /* \"#utility.yul\":1116:1122   */\n          dup1\n            /* \"#utility.yul\":1124:1130   */\n          0x00\n            /* \"#utility.yul\":1132:1138   */\n          dup1\n            /* \"#utility.yul\":1140:1146   */\n          0x00\n            /* \"#utility.yul\":1148:1154   */\n          dup1\n            /* \"#utility.yul\":1197:1200   */\n          0xc0\n            /* \"#utility.yul\":1185:1194   */\n          dup8\n            /* \"#utility.yul\":1176:1183   */\n          dup10\n            /* \"#utility.yul\":1172:1195   */\n          sub\n            /* \"#utility.yul\":1168:1201   */\n          slt\n            /* \"#utility.yul\":1165:1167   */\n          iszero\n          tag_45\n          jumpi\n            /* \"#utility.yul\":1214:1215   */\n          0x00\n            /* \"#utility.yul\":1211:1212   */\n          dup1\n            /* \"#utility.yul\":1204:1216   */\n          revert\n            /* \"#utility.yul\":1165:1167   */\n        tag_45:\n            /* \"#utility.yul\":1257:1258   */\n          0x00\n            /* \"#utility.yul\":1282:1346   */\n          tag_46\n            /* \"#utility.yul\":1338:1345   */\n          dup10\n            /* \"#utility.yul\":1329:1335   */\n          dup3\n            /* \"#utility.yul\":1318:1327   */\n          dup11\n            /* \"#utility.yul\":1314:1336   */\n          add\n            /* \"#utility.yul\":1282:1346   */\n          tag_40\n          jump\t// in\n        tag_46:\n            /* \"#utility.yul\":1272:1346   */\n          swap7\n          pop\n            /* \"#utility.yul\":1228:1356   */\n          pop\n            /* \"#utility.yul\":1395:1397   */\n          0x20\n            /* \"#utility.yul\":1421:1485   */\n          tag_47\n            /* \"#utility.yul\":1477:1484   */\n          dup10\n            /* \"#utility.yul\":1468:1474   */\n          dup3\n            /* \"#utility.yul\":1457:1466   */\n          dup11\n            /* \"#utility.yul\":1453:1475   */\n          add\n            /* \"#utility.yul\":1421:1485   */\n          tag_32\n          jump\t// in\n        tag_47:\n            /* \"#utility.yul\":1411:1485   */\n          swap6\n          pop\n            /* \"#utility.yul\":1366:1495   */\n          pop\n            /* \"#utility.yul\":1555:1557   */\n          0x40\n            /* \"#utility.yul\":1544:1553   */\n          dup8\n            /* \"#utility.yul\":1540:1558   */\n          add\n            /* \"#utility.yul\":1534:1559   */\n          mload\n            /* \"#utility.yul\":1586:1604   */\n          0xffffffffffffffff\n            /* \"#utility.yul\":1578:1584   */\n          dup2\n            /* \"#utility.yul\":1575:1605   */\n          gt\n            /* \"#utility.yul\":1572:1574   */\n          iszero\n          tag_48\n          jumpi\n            /* \"#utility.yul\":1618:1619   */\n          0x00\n            /* \"#utility.yul\":1615:1616   */\n          dup1\n            /* \"#utility.yul\":1608:1620   */\n          revert\n            /* \"#utility.yul\":1572:1574   */\n        tag_48:\n            /* \"#utility.yul\":1646:1720   */\n          tag_49\n            /* \"#utility.yul\":1712:1719   */\n          dup10\n            /* \"#utility.yul\":1703:1709   */\n          dup3\n            /* \"#utility.yul\":1692:1701   */\n          dup11\n            /* \"#utility.yul\":1688:1710   */\n          add\n            /* \"#utility.yul\":1646:1720   */\n          tag_36\n          jump\t// in\n        tag_49:\n            /* \"#utility.yul\":1636:1720   */\n          swap5\n          pop\n            /* \"#utility.yul\":1505:1730   */\n          pop\n            /* \"#utility.yul\":1769:1771   */\n          0x60\n            /* \"#utility.yul\":1795:1859   */\n          tag_50\n            /* \"#utility.yul\":1851:1858   */\n          dup10\n            /* \"#utility.yul\":1842:1848   */\n          dup3\n            /* \"#utility.yul\":1831:1840   */\n          dup11\n            /* \"#utility.yul\":1827:1849   */\n          add\n            /* \"#utility.yul\":1795:1859   */\n          tag_40\n          jump\t// in\n        tag_50:\n            /* \"#utility.yul\":1785:1859   */\n          swap4\n          pop\n            /* \"#utility.yul\":1740:1869   */\n          pop\n            /* \"#utility.yul\":1929:1932   */\n          0x80\n            /* \"#utility.yul\":1918:1927   */\n          dup8\n            /* \"#utility.yul\":1914:1933   */\n          add\n            /* \"#utility.yul\":1908:1934   */\n          mload\n            /* \"#utility.yul\":1961:1979   */\n          0xffffffffffffffff\n            /* \"#utility.yul\":1953:1959   */\n          dup2\n            /* \"#utility.yul\":1950:1980   */\n          gt\n            /* \"#utility.yul\":1947:1949   */\n          iszero\n          tag_51\n          jumpi\n            /* \"#utility.yul\":1993:1994   */\n          0x00\n            /* \"#utility.yul\":1990:1991   */\n          dup1\n            /* \"#utility.yul\":1983:1995   */\n          revert\n            /* \"#utility.yul\":1947:1949   */\n        tag_51:\n            /* \"#utility.yul\":2021:2095   */\n          tag_52\n            /* \"#utility.yul\":2087:2094   */\n          dup10\n            /* \"#utility.yul\":2078:2084   */\n          dup3\n            /* \"#utility.yul\":2067:2076   */\n          dup11\n            /* \"#utility.yul\":2063:2085   */\n          add\n            /* \"#utility.yul\":2021:2095   */\n          tag_36\n          jump\t// in\n        tag_52:\n            /* \"#utility.yul\":2011:2095   */\n          swap3\n          pop\n            /* \"#utility.yul\":1879:2105   */\n          pop\n            /* \"#utility.yul\":2144:2147   */\n          0xa0\n            /* \"#utility.yul\":2171:2235   */\n          tag_53\n            /* \"#utility.yul\":2227:2234   */\n          dup10\n            /* \"#utility.yul\":2218:2224   */\n          dup3\n            /* \"#utility.yul\":2207:2216   */\n          dup11\n            /* \"#utility.yul\":2203:2225   */\n          add\n            /* \"#utility.yul\":2171:2235   */\n          tag_40\n          jump\t// in\n        tag_53:\n            /* \"#utility.yul\":2161:2235   */\n          swap2\n          pop\n            /* \"#utility.yul\":2115:2245   */\n          pop\n            /* \"#utility.yul\":1155:2252   */\n          swap3\n          swap6\n          pop\n          swap3\n          swap6\n          pop\n          swap3\n          swap6\n          jump\t// out\n            /* \"#utility.yul\":2258:2387   */\n        tag_28:\n            /* \"#utility.yul\":2292:2298   */\n          0x00\n            /* \"#utility.yul\":2319:2339   */\n          tag_55\n          tag_56\n          jump\t// in\n        tag_55:\n            /* \"#utility.yul\":2309:2339   */\n          swap1\n          pop\n            /* \"#utility.yul\":2348:2381   */\n          tag_57\n            /* \"#utility.yul\":2376:2380   */\n          dup3\n            /* \"#utility.yul\":2368:2374   */\n          dup3\n            /* \"#utility.yul\":2348:2381   */\n          tag_58\n          jump\t// in\n        tag_57:\n            /* \"#utility.yul\":2299:2387   */\n          swap2\n          swap1\n          pop\n          jump\t// out\n            /* \"#utility.yul\":2393:2468   */\n        tag_56:\n            /* \"#utility.yul\":2426:2432   */\n          0x00\n            /* \"#utility.yul\":2459:2461   */\n          0x40\n            /* \"#utility.yul\":2453:2462   */\n          mload\n            /* \"#utility.yul\":2443:2462   */\n          swap1\n          pop\n            /* \"#utility.yul\":2433:2468   */\n          swap1\n          jump\t// out\n            /* \"#utility.yul\":2474:2782   */\n        tag_27:\n            /* \"#utility.yul\":2536:2540   */\n          0x00\n            /* \"#utility.yul\":2626:2644   */\n          0xffffffffffffffff\n            /* \"#utility.yul\":2618:2624   */\n          dup3\n            /* \"#utility.yul\":2615:2645   */\n          gt\n            /* \"#utility.yul\":2612:2614   */\n          iszero\n          tag_61\n          jumpi\n            /* \"#utility.yul\":2648:2666   */\n          tag_62\n          tag_63\n          jump\t// in\n        tag_62:\n            /* \"#utility.yul\":2612:2614   */\n        tag_61:\n            /* \"#utility.yul\":2686:2715   */\n          tag_64\n            /* \"#utility.yul\":2708:2714   */\n          dup3\n            /* \"#utility.yul\":2686:2715   */\n          tag_65\n          jump\t// in\n        tag_64:\n            /* \"#utility.yul\":2678:2715   */\n          swap1\n          pop\n            /* \"#utility.yul\":2770:2774   */\n          0x20\n            /* \"#utility.yul\":2764:2768   */\n          dup2\n            /* \"#utility.yul\":2760:2775   */\n          add\n            /* \"#utility.yul\":2752:2775   */\n          swap1\n          pop\n            /* \"#utility.yul\":2541:2782   */\n          swap2\n          swap1\n          pop\n          jump\t// out\n            /* \"#utility.yul\":2788:2884   */\n        tag_66:\n            /* \"#utility.yul\":2825:2832   */\n          0x00\n            /* \"#utility.yul\":2854:2878   */\n          tag_68\n            /* \"#utility.yul\":2872:2877   */\n          dup3\n            /* \"#utility.yul\":2854:2878   */\n          tag_69\n          jump\t// in\n        tag_68:\n            /* \"#utility.yul\":2843:2878   */\n          swap1\n          pop\n            /* \"#utility.yul\":2833:2884   */\n          swap2\n          swap1\n          pop\n          jump\t// out\n            /* \"#utility.yul\":2890:3016   */\n        tag_69:\n            /* \"#utility.yul\":2927:2934   */\n          0x00\n            /* \"#utility.yul\":2967:3009   */\n          0xffffffffffffffffffffffffffffffffffffffff\n            /* \"#utility.yul\":2960:2965   */\n          dup3\n            /* \"#utility.yul\":2956:3010   */\n          and\n            /* \"#utility.yul\":2945:3010   */\n          swap1\n          pop\n            /* \"#utility.yul\":2935:3016   */\n          swap2\n          swap1\n          pop\n          jump\t// out\n            /* \"#utility.yul\":3022:3099   */\n        tag_71:\n            /* \"#utility.yul\":3059:3066   */\n          0x00\n            /* \"#utility.yul\":3088:3093   */\n          dup2\n            /* \"#utility.yul\":3077:3093   */\n          swap1\n          pop\n            /* \"#utility.yul\":3067:3099   */\n          swap2\n          swap1\n          pop\n          jump\t// out\n            /* \"#utility.yul\":3105:3412   */\n        tag_31:\n            /* \"#utility.yul\":3173:3174   */\n          0x00\n            /* \"#utility.yul\":3183:3296   */\n        tag_74:\n            /* \"#utility.yul\":3197:3203   */\n          dup4\n            /* \"#utility.yul\":3194:3195   */\n          dup2\n            /* \"#utility.yul\":3191:3204   */\n          lt\n            /* \"#utility.yul\":3183:3296   */\n          iszero\n          tag_76\n          jumpi\n            /* \"#utility.yul\":3282:3283   */\n          dup1\n            /* \"#utility.yul\":3277:3280   */\n          dup3\n            /* \"#utility.yul\":3273:3284   */\n          add\n            /* \"#utility.yul\":3267:3285   */\n          mload\n            /* \"#utility.yul\":3263:3264   */\n          dup2\n            /* \"#utility.yul\":3258:3261   */\n          dup5\n            /* \"#utility.yul\":3254:3265   */\n          add\n            /* \"#utility.yul\":3247:3286   */\n          mstore\n            /* \"#utility.yul\":3219:3221   */\n          0x20\n            /* \"#utility.yul\":3216:3217   */\n          dup2\n            /* \"#utility.yul\":3212:3222   */\n          add\n            /* \"#utility.yul\":3207:3222   */\n          swap1\n          pop\n            /* \"#utility.yul\":3183:3296   */\n          jump(tag_74)\n        tag_76:\n            /* \"#utility.yul\":3314:3320   */\n          dup4\n            /* \"#utility.yul\":3311:3312   */\n          dup2\n            /* \"#utility.yul\":3308:3321   */\n          gt\n            /* \"#utility.yul\":3305:3307   */\n          iszero\n          tag_77\n          jumpi\n            /* \"#utility.yul\":3394:3395   */\n          0x00\n            /* \"#utility.yul\":3385:3391   */\n          dup5\n            /* \"#utility.yul\":3380:3383   */\n          dup5\n            /* \"#utility.yul\":3376:3392   */\n          add\n            /* \"#utility.yul\":3369:3396   */\n          mstore\n            /* \"#utility.yul\":3305:3307   */\n        tag_77:\n            /* \"#utility.yul\":3154:3412   */\n          pop\n          pop\n          pop\n          pop\n          jump\t// out\n            /* \"#utility.yul\":3418:3738   */\n        tag_12:\n            /* \"#utility.yul\":3462:3468   */\n          0x00\n            /* \"#utility.yul\":3499:3500   */\n          0x02\n            /* \"#utility.yul\":3493:3497   */\n          dup3\n            /* \"#utility.yul\":3489:3501   */\n          div\n            /* \"#utility.yul\":3479:3501   */\n          swap1\n          pop\n            /* \"#utility.yul\":3546:3547   */\n          0x01\n            /* \"#utility.yul\":3540:3544   */\n          dup3\n            /* \"#utility.yul\":3536:3548   */\n          and\n            /* \"#utility.yul\":3567:3585   */\n          dup1\n            /* \"#utility.yul\":3557:3559   */\n          tag_79\n          jumpi\n            /* \"#utility.yul\":3623:3627   */\n          0x7f\n            /* \"#utility.yul\":3615:3621   */\n          dup3\n            /* \"#utility.yul\":3611:3628   */\n          and\n            /* \"#utility.yul\":3601:3628   */\n          swap2\n          pop\n            /* \"#utility.yul\":3557:3559   */\n        tag_79:\n            /* \"#utility.yul\":3685:3687   */\n          0x20\n            /* \"#utility.yul\":3677:3683   */\n          dup3\n            /* \"#utility.yul\":3674:3688   */\n          lt\n            /* \"#utility.yul\":3654:3672   */\n          dup2\n            /* \"#utility.yul\":3651:3689   */\n          eq\n            /* \"#utility.yul\":3648:3650   */\n          iszero\n          tag_80\n          jumpi\n            /* \"#utility.yul\":3704:3722   */\n          tag_81\n          tag_82\n          jump\t// in\n        tag_81:\n            /* \"#utility.yul\":3648:3650   */\n        tag_80:\n            /* \"#utility.yul\":3469:3738   */\n          pop\n          swap2\n          swap1\n          pop\n          jump\t// out\n            /* \"#utility.yul\":3744:4025   */\n        tag_58:\n            /* \"#utility.yul\":3827:3854   */\n          tag_84\n            /* \"#utility.yul\":3849:3853   */\n          dup3\n            /* \"#utility.yul\":3827:3854   */\n          tag_65\n          jump\t// in\n        tag_84:\n            /* \"#utility.yul\":3819:3825   */\n          dup2\n            /* \"#utility.yul\":3815:3855   */\n          add\n            /* \"#utility.yul\":3957:3963   */\n          dup2\n            /* \"#utility.yul\":3945:3955   */\n          dup2\n            /* \"#utility.yul\":3942:3964   */\n          lt\n            /* \"#utility.yul\":3921:3939   */\n          0xffffffffffffffff\n            /* \"#utility.yul\":3909:3919   */\n          dup3\n            /* \"#utility.yul\":3906:3940   */\n          gt\n            /* \"#utility.yul\":3903:3965   */\n          or\n            /* \"#utility.yul\":3900:3902   */\n          iszero\n          tag_85\n          jumpi\n            /* \"#utility.yul\":3968:3986   */\n          tag_86\n          tag_63\n          jump\t// in\n        tag_86:\n            /* \"#utility.yul\":3900:3902   */\n        tag_85:\n            /* \"#utility.yul\":4008:4018   */\n          dup1\n            /* \"#utility.yul\":4004:4006   */\n          0x40\n            /* \"#utility.yul\":3997:4019   */\n          mstore\n            /* \"#utility.yul\":3787:4025   */\n          pop\n          pop\n          pop\n          jump\t// out\n            /* \"#utility.yul\":4031:4211   */\n        tag_82:\n            /* \"#utility.yul\":4079:4156   */\n          0x4e487b7100000000000000000000000000000000000000000000000000000000\n            /* \"#utility.yul\":4076:4077   */\n          0x00\n            /* \"#utility.yul\":4069:4157   */\n          mstore\n            /* \"#utility.yul\":4176:4180   */\n          0x22\n            /* \"#utility.yul\":4173:4174   */\n          0x04\n            /* \"#utility.yul\":4166:4181   */\n          mstore\n            /* \"#utility.yul\":4200:4204   */\n          0x24\n            /* \"#utility.yul\":4197:4198   */\n          0x00\n            /* \"#utility.yul\":4190:4205   */\n          revert\n            /* \"#utility.yul\":4217:4397   */\n        tag_63:\n            /* \"#utility.yul\":4265:4342   */\n          0x4e487b7100000000000000000000000000000000000000000000000000000000\n            /* \"#utility.yul\":4262:4263   */\n          0x00\n            /* \"#utility.yul\":4255:4343   */\n          mstore\n            /* \"#utility.yul\":4362:4366   */\n          0x41\n            /* \"#utility.yul\":4359:4360   */\n          0x04\n            /* \"#utility.yul\":4352:4367   */\n          mstore\n            /* \"#utility.yul\":4386:4390   */\n          0x24\n            /* \"#utility.yul\":4383:4384   */\n          0x00\n            /* \"#utility.yul\":4376:4391   */\n          revert\n            /* \"#utility.yul\":4403:4505   */\n        tag_65:\n            /* \"#utility.yul\":4444:4450   */\n          0x00\n            /* \"#utility.yul\":4495:4497   */\n          0x1f\n            /* \"#utility.yul\":4491:4498   */\n          not\n            /* \"#utility.yul\":4486:4488   */\n          0x1f\n            /* \"#utility.yul\":4479:4484   */\n          dup4\n            /* \"#utility.yul\":4475:4489   */\n          add\n            /* \"#utility.yul\":4471:4499   */\n          and\n            /* \"#utility.yul\":4461:4499   */\n          swap1\n          pop\n            /* \"#utility.yul\":4451:4505   */\n          swap2\n          swap1\n          pop\n          jump\t// out\n            /* \"#utility.yul\":4511:4633   */\n        tag_35:\n            /* \"#utility.yul\":4584:4608   */\n          tag_91\n            /* \"#utility.yul\":4602:4607   */\n          dup2\n            /* \"#utility.yul\":4584:4608   */\n          tag_66\n          jump\t// in\n        tag_91:\n            /* \"#utility.yul\":4577:4582   */\n          dup2\n            /* \"#utility.yul\":4574:4609   */\n          eq\n            /* \"#utility.yul\":4564:4566   */\n          tag_92\n          jumpi\n            /* \"#utility.yul\":4623:4624   */\n          0x00\n            /* \"#utility.yul\":4620:4621   */\n          dup1\n            /* \"#utility.yul\":4613:4625   */\n          revert\n            /* \"#utility.yul\":4564:4566   */\n        tag_92:\n            /* \"#utility.yul\":4554:4633   */\n          pop\n          jump\t// out\n            /* \"#utility.yul\":4639:4761   */\n        tag_43:\n            /* \"#utility.yul\":4712:4736   */\n          tag_94\n            /* \"#utility.yul\":4730:4735   */\n          dup2\n            /* \"#utility.yul\":4712:4736   */\n          tag_71\n          jump\t// in\n        tag_94:\n            /* \"#utility.yul\":4705:4710   */\n          dup2\n            /* \"#utility.yul\":4702:4737   */\n          eq\n            /* \"#utility.yul\":4692:4694   */\n          tag_95\n          jumpi\n            /* \"#utility.yul\":4751:4752   */\n          0x00\n            /* \"#utility.yul\":4748:4749   */\n          dup1\n            /* \"#utility.yul\":4741:4753   */\n          revert\n            /* \"#utility.yul\":4692:4694   */\n        tag_95:\n            /* \"#utility.yul\":4682:4761   */\n          pop\n          jump\t// out\n            /* \"campaign.sol\":1144:5714  contract Campaign {\r... */\n        tag_10:\n          dataSize(sub_0)\n          dup1\n          dataOffset(sub_0)\n          0x00\n          codecopy\n          0x00\n          return\n        stop\n\n        sub_0: assembly {\n                /* \"campaign.sol\":1144:5714  contract Campaign {\r... */\n              mstore(0x40, 0x80)\n              jumpi(tag_1, lt(calldatasize, 0x04))\n              shr(0xe0, calldataload(0x00))\n              dup1\n              0x5badbe4c\n              gt\n              tag_24\n              jumpi\n              dup1\n              0x97654a8c\n              gt\n              tag_25\n              jumpi\n              dup1\n              0x97654a8c\n              eq\n              tag_18\n              jumpi\n              dup1\n              0xb2d5ae44\n              eq\n              tag_19\n              jumpi\n              dup1\n              0xc19d93fb\n              eq\n              tag_20\n              jumpi\n              dup1\n              0xce845d1d\n              eq\n              tag_21\n              jumpi\n              dup1\n              0xd7bb99ba\n              eq\n              tag_22\n              jumpi\n              dup1\n              0xd7d1bbdb\n              eq\n              tag_23\n              jumpi\n              jump(tag_1)\n            tag_25:\n              dup1\n              0x5badbe4c\n              eq\n              tag_13\n              jumpi\n              dup1\n              0x81d12c58\n              eq\n              tag_14\n              jumpi\n              dup1\n              0x82fde093\n              eq\n              tag_15\n              jumpi\n              dup1\n              0x8a9cfd55\n              eq\n              tag_16\n              jumpi\n              dup1\n              0x937e09b1\n              eq\n              tag_17\n              jumpi\n              jump(tag_1)\n            tag_24:\n              dup1\n              0x15879c29\n              gt\n              tag_26\n              jumpi\n              dup1\n              0x15879c29\n              eq\n              tag_7\n              jumpi\n              dup1\n              0x32461bd8\n              eq\n              tag_8\n              jumpi\n              dup1\n              0x37f944cc\n              eq\n              tag_9\n              jumpi\n              dup1\n              0x4051ddac\n              eq\n              tag_10\n              jumpi\n              dup1\n              0x42e94c90\n              eq\n              tag_11\n              jumpi\n              dup1\n              0x481c6a75\n              eq\n              tag_12\n              jumpi\n              jump(tag_1)\n            tag_26:\n              dup1\n              0x03441006\n              eq\n              tag_2\n              jumpi\n              dup1\n              0x0785001c\n              eq\n              tag_3\n              jumpi\n              dup1\n              0x08caa910\n              eq\n              tag_4\n              jumpi\n              dup1\n              0x0a144391\n              eq\n              tag_5\n              jumpi\n              dup1\n              0x0dcf4b8f\n              eq\n              tag_6\n              jumpi\n            tag_1:\n              0x00\n              dup1\n              revert\n                /* \"campaign.sol\":4238:4570  function finalizeRequest(uint index) public managerOnly {\r... */\n            tag_2:\n              callvalue\n              dup1\n              iszero\n              tag_27\n              jumpi\n              0x00\n              dup1\n              revert\n            tag_27:\n              pop\n              tag_28\n              0x04\n              dup1\n              calldatasize\n              sub\n              dup2\n              add\n              swap1\n              tag_29\n              swap2\n              swap1\n              tag_30\n              jump\t// in\n            tag_29:\n              tag_31\n              jump\t// in\n            tag_28:\n              stop\n                /* \"campaign.sol\":1578:1600  uint public amountGoal */\n            tag_3:\n              callvalue\n              dup1\n              iszero\n              tag_32\n              jumpi\n              0x00\n              dup1\n              revert\n            tag_32:\n              pop\n              tag_33\n              tag_34\n              jump\t// in\n            tag_33:\n              mload(0x40)\n              tag_35\n              swap2\n              swap1\n              tag_36\n              jump\t// in\n            tag_35:\n              mload(0x40)\n              dup1\n              swap2\n              sub\n              swap1\n              return\n                /* \"campaign.sol\":4578:4679  function getTotalContribution() public view returns(uint) {\r... */\n            tag_4:\n              callvalue\n              dup1\n              iszero\n              tag_37\n              jumpi\n              0x00\n              dup1\n              revert\n            tag_37:\n              pop\n              tag_38\n              tag_39\n              jump\t// in\n            tag_38:\n              mload(0x40)\n              tag_40\n              swap2\n              swap1\n              tag_36\n              jump\t// in\n            tag_40:\n              mload(0x40)\n              dup1\n              swap2\n              sub\n              swap1\n              return\n                /* \"campaign.sol\":2046:2087  mapping(address => bool) public approvers */\n            tag_5:\n              callvalue\n              dup1\n              iszero\n              tag_41\n              jumpi\n              0x00\n              dup1\n              revert\n            tag_41:\n              pop\n              tag_42\n              0x04\n              dup1\n              calldatasize\n              sub\n              dup2\n              add\n              swap1\n              tag_43\n              swap2\n              swap1\n              tag_44\n              jump\t// in\n            tag_43:\n              tag_45\n              jump\t// in\n            tag_42:\n              mload(0x40)\n              tag_46\n              swap2\n              swap1\n              tag_47\n              jump\t// in\n            tag_46:\n              mload(0x40)\n              dup1\n              swap2\n              sub\n              swap1\n              return\n                /* \"campaign.sol\":1708:1737  uint public totalContribution */\n            tag_6:\n              callvalue\n              dup1\n              iszero\n              tag_48\n              jumpi\n              0x00\n              dup1\n              revert\n            tag_48:\n              pop\n              tag_49\n              tag_50\n              jump\t// in\n            tag_49:\n              mload(0x40)\n              tag_51\n              swap2\n              swap1\n              tag_36\n              jump\t// in\n            tag_51:\n              mload(0x40)\n              dup1\n              swap2\n              sub\n              swap1\n              return\n                /* \"campaign.sol\":2840:2977  function checkIfFundingExpired() public {\r... */\n            tag_7:\n              callvalue\n              dup1\n              iszero\n              tag_52\n              jumpi\n              0x00\n              dup1\n              revert\n            tag_52:\n              pop\n              tag_53\n              tag_54\n              jump\t// in\n            tag_53:\n              stop\n                /* \"campaign.sol\":1520:1547  string public titleCompaign */\n            tag_8:\n              callvalue\n              dup1\n              iszero\n              tag_55\n              jumpi\n              0x00\n              dup1\n              revert\n            tag_55:\n              pop\n              tag_56\n              tag_57\n              jump\t// in\n            tag_56:\n              mload(0x40)\n              tag_58\n              swap2\n              swap1\n              tag_59\n              jump\t// in\n            tag_58:\n              mload(0x40)\n              dup1\n              swap2\n              sub\n              swap1\n              return\n                /* \"campaign.sol\":1906:1925  uint public raiseBy */\n            tag_9:\n              callvalue\n              dup1\n              iszero\n              tag_60\n              jumpi\n              0x00\n              dup1\n              revert\n            tag_60:\n              pop\n              tag_61\n              tag_62\n              jump\t// in\n            tag_61:\n              mload(0x40)\n              tag_63\n              swap2\n              swap1\n              tag_36\n              jump\t// in\n            tag_63:\n              mload(0x40)\n              dup1\n              swap2\n              sub\n              swap1\n              return\n                /* \"campaign.sol\":5226:5711  function getSummary() external view returns (\r... */\n            tag_10:\n              callvalue\n              dup1\n              iszero\n              tag_64\n              jumpi\n              0x00\n              dup1\n              revert\n            tag_64:\n              pop\n              tag_65\n              tag_66\n              jump\t// in\n            tag_65:\n              mload(0x40)\n              tag_67\n              swap11\n              swap10\n              swap9\n              swap8\n              swap7\n              swap6\n              swap5\n              swap4\n              swap3\n              swap2\n              swap1\n              tag_68\n              jump\t// in\n            tag_67:\n              mload(0x40)\n              dup1\n              swap2\n              sub\n              swap1\n              return\n                /* \"campaign.sol\":1775:1820  mapping(address => uint) public contributions */\n            tag_11:\n              callvalue\n              dup1\n              iszero\n              tag_69\n              jumpi\n              0x00\n              dup1\n              revert\n            tag_69:\n              pop\n              tag_70\n              0x04\n              dup1\n              calldatasize\n              sub\n              dup2\n              add\n              swap1\n              tag_71\n              swap2\n              swap1\n              tag_44\n              jump\t// in\n            tag_71:\n              tag_72\n              jump\t// in\n            tag_70:\n              mload(0x40)\n              tag_73\n              swap2\n              swap1\n              tag_36\n              jump\t// in\n            tag_73:\n              mload(0x40)\n              dup1\n              swap2\n              sub\n              swap1\n              return\n                /* \"campaign.sol\":1485:1507  address public manager */\n            tag_12:\n              callvalue\n              dup1\n              iszero\n              tag_74\n              jumpi\n              0x00\n              dup1\n              revert\n            tag_74:\n              pop\n              tag_75\n              tag_76\n              jump\t// in\n            tag_75:\n              mload(0x40)\n              tag_77\n              swap2\n              swap1\n              tag_78\n              jump\t// in\n            tag_77:\n              mload(0x40)\n              dup1\n              swap2\n              sub\n              swap1\n              return\n                /* \"campaign.sol\":2141:2165  uint public requestCount */\n            tag_13:\n              callvalue\n              dup1\n              iszero\n              tag_79\n              jumpi\n              0x00\n              dup1\n              revert\n            tag_79:\n              pop\n              tag_80\n              tag_81\n              jump\t// in\n            tag_80:\n              mload(0x40)\n              tag_82\n              swap2\n              swap1\n              tag_36\n              jump\t// in\n            tag_82:\n              mload(0x40)\n              dup1\n              swap2\n              sub\n              swap1\n              return\n                /* \"campaign.sol\":2094:2134  mapping(uint => Request) public requests */\n            tag_14:\n              callvalue\n              dup1\n              iszero\n              tag_83\n              jumpi\n              0x00\n              dup1\n              revert\n            tag_83:\n              pop\n              tag_84\n              0x04\n              dup1\n              calldatasize\n              sub\n              dup2\n              add\n              swap1\n              tag_85\n              swap2\n              swap1\n              tag_30\n              jump\t// in\n            tag_85:\n              tag_86\n              jump\t// in\n            tag_84:\n              mload(0x40)\n              tag_87\n              swap6\n              swap5\n              swap4\n              swap3\n              swap2\n              swap1\n              tag_88\n              jump\t// in\n            tag_87:\n              mload(0x40)\n              dup1\n              swap2\n              sub\n              swap1\n              return\n                /* \"campaign.sol\":2172:2198  uint public approversCount */\n            tag_15:\n              callvalue\n              dup1\n              iszero\n              tag_89\n              jumpi\n              0x00\n              dup1\n              revert\n            tag_89:\n              pop\n              tag_90\n              tag_91\n              jump\t// in\n            tag_90:\n              mload(0x40)\n              tag_92\n              swap2\n              swap1\n              tag_36\n              jump\t// in\n            tag_92:\n              mload(0x40)\n              dup1\n              swap2\n              sub\n              swap1\n              return\n                /* \"campaign.sol\":3465:3918  function createRequest(\r... */\n            tag_16:\n              callvalue\n              dup1\n              iszero\n              tag_93\n              jumpi\n              0x00\n              dup1\n              revert\n            tag_93:\n              pop\n              tag_94\n              0x04\n              dup1\n              calldatasize\n              sub\n              dup2\n              add\n              swap1\n              tag_95\n              swap2\n              swap1\n              tag_96\n              jump\t// in\n            tag_95:\n              tag_97\n              jump\t// in\n            tag_94:\n              stop\n                /* \"campaign.sol\":2008:2039  uint public minimumContribution */\n            tag_17:\n              callvalue\n              dup1\n              iszero\n              tag_98\n              jumpi\n              0x00\n              dup1\n              revert\n            tag_98:\n              pop\n              tag_99\n              tag_100\n              jump\t// in\n            tag_99:\n              mload(0x40)\n              tag_101\n              swap2\n              swap1\n              tag_36\n              jump\t// in\n            tag_101:\n              mload(0x40)\n              dup1\n              swap2\n              sub\n              swap1\n              return\n                /* \"campaign.sol\":1638:1671  string public CampaignDescription */\n            tag_18:\n              callvalue\n              dup1\n              iszero\n              tag_102\n              jumpi\n              0x00\n              dup1\n              revert\n            tag_102:\n              pop\n              tag_103\n              tag_104\n              jump\t// in\n            tag_103:\n              mload(0x40)\n              tag_105\n              swap2\n              swap1\n              tag_59\n              jump\t// in\n            tag_105:\n              mload(0x40)\n              dup1\n              swap2\n              sub\n              swap1\n              return\n                /* \"campaign.sol\":4687:5218  function getRefund() public inState(State.Expired) returns (bool) \r... */\n            tag_19:\n              callvalue\n              dup1\n              iszero\n              tag_106\n              jumpi\n              0x00\n              dup1\n              revert\n            tag_106:\n              pop\n              tag_107\n              tag_108\n              jump\t// in\n            tag_107:\n              mload(0x40)\n              tag_109\n              swap2\n              swap1\n              tag_47\n              jump\t// in\n            tag_109:\n              mload(0x40)\n              dup1\n              swap2\n              sub\n              swap1\n              return\n                /* \"campaign.sol\":1828:1866  State public state = State.Fundraising */\n            tag_20:\n              callvalue\n              dup1\n              iszero\n              tag_110\n              jumpi\n              0x00\n              dup1\n              revert\n            tag_110:\n              pop\n              tag_111\n              tag_112\n              jump\t// in\n            tag_111:\n              mload(0x40)\n              tag_113\n              swap2\n              swap1\n              tag_114\n              jump\t// in\n            tag_113:\n              mload(0x40)\n              dup1\n              swap2\n              sub\n              swap1\n              return\n                /* \"campaign.sol\":1973:1999  uint public currentBalance */\n            tag_21:\n              callvalue\n              dup1\n              iszero\n              tag_115\n              jumpi\n              0x00\n              dup1\n              revert\n            tag_115:\n              pop\n              tag_116\n              tag_117\n              jump\t// in\n            tag_116:\n              mload(0x40)\n              tag_118\n              swap2\n              swap1\n              tag_36\n              jump\t// in\n            tag_118:\n              mload(0x40)\n              dup1\n              swap2\n              sub\n              swap1\n              return\n                /* \"campaign.sol\":2985:3453  function contribute() external payable inState(State.Fundraising) {\r... */\n            tag_22:\n              tag_119\n              tag_120\n              jump\t// in\n            tag_119:\n              stop\n                /* \"campaign.sol\":3930:4225  function approveRequest(uint index) public {\r... */\n            tag_23:\n              callvalue\n              dup1\n              iszero\n              tag_121\n              jumpi\n              0x00\n              dup1\n              revert\n            tag_121:\n              pop\n              tag_122\n              0x04\n              dup1\n              calldatasize\n              sub\n              dup2\n              add\n              swap1\n              tag_123\n              swap2\n              swap1\n              tag_30\n              jump\t// in\n            tag_123:\n              tag_124\n              jump\t// in\n            tag_122:\n              stop\n                /* \"campaign.sol\":4238:4570  function finalizeRequest(uint index) public managerOnly {\r... */\n            tag_31:\n                /* \"campaign.sol\":2401:2408  manager */\n              0x00\n              dup1\n              sload\n              swap1\n              0x0100\n              exp\n              swap1\n              div\n              0xffffffffffffffffffffffffffffffffffffffff\n              and\n                /* \"campaign.sol\":2387:2408  msg.sender == manager */\n              0xffffffffffffffffffffffffffffffffffffffff\n              and\n                /* \"campaign.sol\":2387:2397  msg.sender */\n              caller\n                /* \"campaign.sol\":2387:2408  msg.sender == manager */\n              0xffffffffffffffffffffffffffffffffffffffff\n              and\n              eq\n                /* \"campaign.sol\":2379:2409  require(msg.sender == manager) */\n              tag_126\n              jumpi\n              0x00\n              dup1\n              revert\n            tag_126:\n                /* \"campaign.sol\":4305:4328  Request storage request */\n              0x00\n                /* \"campaign.sol\":4331:4339  requests */\n              0x0b\n                /* \"campaign.sol\":4331:4346  requests[index] */\n              0x00\n                /* \"campaign.sol\":4340:4345  index */\n              dup4\n                /* \"campaign.sol\":4331:4346  requests[index] */\n              dup2\n              mstore\n              0x20\n              add\n              swap1\n              dup2\n              mstore\n              0x20\n              add\n              0x00\n              keccak256\n                /* \"campaign.sol\":4305:4346  Request storage request = requests[index] */\n              swap1\n              pop\n                /* \"campaign.sol\":4376:4383  request */\n              dup1\n                /* \"campaign.sol\":4376:4392  request.complete */\n              0x02\n              add\n              0x14\n              swap1\n              sload\n              swap1\n              0x0100\n              exp\n              swap1\n              div\n              0xff\n              and\n                /* \"campaign.sol\":4375:4392  !request.complete */\n              iszero\n                /* \"campaign.sol\":4367:4393  require(!request.complete) */\n              tag_128\n              jumpi\n              0x00\n              dup1\n              revert\n            tag_128:\n                /* \"campaign.sol\":4454:4455  2 */\n              0x02\n                /* \"campaign.sol\":4437:4451  approversCount */\n              sload(0x0d)\n                /* \"campaign.sol\":4437:4455  approversCount / 2 */\n              tag_129\n              swap2\n              swap1\n              tag_130\n              jump\t// in\n            tag_129:\n                /* \"campaign.sol\":4412:4419  request */\n              dup2\n                /* \"campaign.sol\":4412:4433  request.approvalCount */\n              0x03\n              add\n              sload\n                /* \"campaign.sol\":4412:4456  request.approvalCount > (approversCount / 2) */\n              gt\n                /* \"campaign.sol\":4404:4457  require(request.approvalCount > (approversCount / 2)) */\n              tag_131\n              jumpi\n              0x00\n              dup1\n              revert\n            tag_131:\n                /* \"campaign.sol\":4486:4493  request */\n              dup1\n                /* \"campaign.sol\":4486:4503  request.recipient */\n              0x02\n              add\n              0x00\n              swap1\n              sload\n              swap1\n              0x0100\n              exp\n              swap1\n              div\n              0xffffffffffffffffffffffffffffffffffffffff\n              and\n                /* \"campaign.sol\":4478:4513  payable(request.recipient).transfer */\n              0xffffffffffffffffffffffffffffffffffffffff\n              and\n                /* \"campaign.sol\":4478:4528  payable(request.recipient).transfer(request.value) */\n              0x08fc\n                /* \"campaign.sol\":4514:4521  request */\n              dup3\n                /* \"campaign.sol\":4514:4527  request.value */\n              0x01\n              add\n              sload\n                /* \"campaign.sol\":4478:4528  payable(request.recipient).transfer(request.value) */\n              swap1\n              dup2\n              iszero\n              mul\n              swap1\n              mload(0x40)\n              0x00\n              mload(0x40)\n              dup1\n              dup4\n              sub\n              dup2\n              dup6\n              dup9\n              dup9\n              call\n              swap4\n              pop\n              pop\n              pop\n              pop\n              iszero\n              dup1\n              iszero\n              tag_133\n              jumpi\n              returndatasize\n              0x00\n              dup1\n              returndatacopy\n              revert(0x00, returndatasize)\n            tag_133:\n              pop\n                /* \"campaign.sol\":4558:4562  true */\n              0x01\n                /* \"campaign.sol\":4539:4546  request */\n              dup2\n                /* \"campaign.sol\":4539:4555  request.complete */\n              0x02\n              add\n              0x14\n                /* \"campaign.sol\":4539:4562  request.complete = true */\n              0x0100\n              exp\n              dup2\n              sload\n              dup2\n              0xff\n              mul\n              not\n              and\n              swap1\n              dup4\n              iszero\n              iszero\n              mul\n              or\n              swap1\n              sstore\n              pop\n                /* \"campaign.sol\":2420:2421  _ */\n              pop\n                /* \"campaign.sol\":4238:4570  function finalizeRequest(uint index) public managerOnly {\r... */\n              pop\n              jump\t// out\n                /* \"campaign.sol\":1578:1600  uint public amountGoal */\n            tag_34:\n              sload(0x02)\n              dup2\n              jump\t// out\n                /* \"campaign.sol\":4578:4679  function getTotalContribution() public view returns(uint) {\r... */\n            tag_39:\n                /* \"campaign.sol\":4630:4634  uint */\n              0x00\n                /* \"campaign.sol\":4654:4671  totalContribution */\n              sload(0x04)\n                /* \"campaign.sol\":4647:4671  return totalContribution */\n              swap1\n              pop\n                /* \"campaign.sol\":4578:4679  function getTotalContribution() public view returns(uint) {\r... */\n              swap1\n              jump\t// out\n                /* \"campaign.sol\":2046:2087  mapping(address => bool) public approvers */\n            tag_45:\n              mstore(0x20, 0x0a)\n              dup1\n              0x00\n              mstore\n              keccak256(0x00, 0x40)\n              0x00\n              swap2\n              pop\n              sload\n              swap1\n              0x0100\n              exp\n              swap1\n              div\n              0xff\n              and\n              dup2\n              jump\t// out\n                /* \"campaign.sol\":1708:1737  uint public totalContribution */\n            tag_50:\n              sload(0x04)\n              dup2\n              jump\t// out\n                /* \"campaign.sol\":2840:2977  function checkIfFundingExpired() public {\r... */\n            tag_54:\n                /* \"campaign.sol\":2913:2920  raiseBy */\n              sload(0x07)\n                /* \"campaign.sol\":2895:2910  block.timestamp */\n              timestamp\n                /* \"campaign.sol\":2895:2920  block.timestamp > raiseBy */\n              gt\n                /* \"campaign.sol\":2891:2970  if (block.timestamp > raiseBy) {\r... */\n              iszero\n              tag_136\n              jumpi\n                /* \"campaign.sol\":2945:2958  State.Expired */\n              0x01\n                /* \"campaign.sol\":2937:2942  state */\n              0x06\n              0x00\n                /* \"campaign.sol\":2937:2958  state = State.Expired */\n              0x0100\n              exp\n              dup2\n              sload\n              dup2\n              0xff\n              mul\n              not\n              and\n              swap1\n              dup4\n              0x01\n              dup2\n              gt\n              iszero\n              tag_137\n              jumpi\n              mstore(0x00, 0x4e487b7100000000000000000000000000000000000000000000000000000000)\n              mstore(0x04, 0x21)\n              revert(0x00, 0x24)\n            tag_137:\n              mul\n              or\n              swap1\n              sstore\n              pop\n                /* \"campaign.sol\":2891:2970  if (block.timestamp > raiseBy) {\r... */\n            tag_136:\n                /* \"campaign.sol\":2840:2977  function checkIfFundingExpired() public {\r... */\n              jump\t// out\n                /* \"campaign.sol\":1520:1547  string public titleCompaign */\n            tag_57:\n              0x01\n              dup1\n              sload\n              tag_138\n              swap1\n              tag_139\n              jump\t// in\n            tag_138:\n              dup1\n              0x1f\n              add\n              0x20\n              dup1\n              swap2\n              div\n              mul\n              0x20\n              add\n              mload(0x40)\n              swap1\n              dup2\n              add\n              0x40\n              mstore\n              dup1\n              swap3\n              swap2\n              swap1\n              dup2\n              dup2\n              mstore\n              0x20\n              add\n              dup3\n              dup1\n              sload\n              tag_140\n              swap1\n              tag_139\n              jump\t// in\n            tag_140:\n              dup1\n              iszero\n              tag_141\n              jumpi\n              dup1\n              0x1f\n              lt\n              tag_142\n              jumpi\n              0x0100\n              dup1\n              dup4\n              sload\n              div\n              mul\n              dup4\n              mstore\n              swap2\n              0x20\n              add\n              swap2\n              jump(tag_141)\n            tag_142:\n              dup3\n              add\n              swap2\n              swap1\n              0x00\n              mstore\n              keccak256(0x00, 0x20)\n              swap1\n            tag_143:\n              dup2\n              sload\n              dup2\n              mstore\n              swap1\n              0x01\n              add\n              swap1\n              0x20\n              add\n              dup1\n              dup4\n              gt\n              tag_143\n              jumpi\n              dup3\n              swap1\n              sub\n              0x1f\n              and\n              dup3\n              add\n              swap2\n            tag_141:\n              pop\n              pop\n              pop\n              pop\n              pop\n              dup2\n              jump\t// out\n                /* \"campaign.sol\":1906:1925  uint public raiseBy */\n            tag_62:\n              sload(0x07)\n              dup2\n              jump\t// out\n                /* \"campaign.sol\":5226:5711  function getSummary() external view returns (\r... */\n            tag_66:\n                /* \"campaign.sol\":5279:5283  uint */\n              0x00\n                /* \"campaign.sol\":5292:5296  uint */\n              dup1\n                /* \"campaign.sol\":5305:5309  uint */\n              0x00\n                /* \"campaign.sol\":5318:5322  uint */\n              dup1\n                /* \"campaign.sol\":5331:5338  address */\n              0x00\n                /* \"campaign.sol\":5347:5360  string memory */\n              0x60\n                /* \"campaign.sol\":5369:5373  uint */\n              0x00\n                /* \"campaign.sol\":5382:5395  string memory */\n              0x60\n                /* \"campaign.sol\":5404:5408  uint */\n              0x00\n                /* \"campaign.sol\":5417:5421  uint */\n              dup1\n                /* \"campaign.sol\":5456:5475  minimumContribution */\n              sload(0x09)\n                /* \"campaign.sol\":5486:5507  address(this).balance */\n              selfbalance\n                /* \"campaign.sol\":5518:5530  requestCount */\n              sload(0x0c)\n                /* \"campaign.sol\":5541:5555  approversCount */\n              sload(0x0d)\n                /* \"campaign.sol\":5566:5573  manager */\n              0x00\n              dup1\n              sload\n              swap1\n              0x0100\n              exp\n              swap1\n              div\n              0xffffffffffffffffffffffffffffffffffffffff\n              and\n                /* \"campaign.sol\":5584:5597  titleCompaign */\n              0x01\n                /* \"campaign.sol\":5608:5618  amountGoal */\n              sload(0x02)\n                /* \"campaign.sol\":5629:5648  CampaignDescription */\n              0x03\n                /* \"campaign.sol\":5659:5676  totalContribution */\n              sload(0x04)\n                /* \"campaign.sol\":5687:5694  raiseBy */\n              sload(0x07)\n                /* \"campaign.sol\":5438:5703  return (\r... */\n              dup5\n              dup1\n              sload\n              tag_145\n              swap1\n              tag_139\n              jump\t// in\n            tag_145:\n              dup1\n              0x1f\n              add\n              0x20\n              dup1\n              swap2\n              div\n              mul\n              0x20\n              add\n              mload(0x40)\n              swap1\n              dup2\n              add\n              0x40\n              mstore\n              dup1\n              swap3\n              swap2\n              swap1\n              dup2\n              dup2\n              mstore\n              0x20\n              add\n              dup3\n              dup1\n              sload\n              tag_146\n              swap1\n              tag_139\n              jump\t// in\n            tag_146:\n              dup1\n              iszero\n              tag_147\n              jumpi\n              dup1\n              0x1f\n              lt\n              tag_148\n              jumpi\n              0x0100\n              dup1\n              dup4\n              sload\n              div\n              mul\n              dup4\n              mstore\n              swap2\n              0x20\n              add\n              swap2\n              jump(tag_147)\n            tag_148:\n              dup3\n              add\n              swap2\n              swap1\n              0x00\n              mstore\n              keccak256(0x00, 0x20)\n              swap1\n            tag_149:\n              dup2\n              sload\n              dup2\n              mstore\n              swap1\n              0x01\n              add\n              swap1\n              0x20\n              add\n              dup1\n              dup4\n              gt\n              tag_149\n              jumpi\n              dup3\n              swap1\n              sub\n              0x1f\n              and\n              dup3\n              add\n              swap2\n            tag_147:\n              pop\n              pop\n              pop\n              pop\n              pop\n              swap5\n              pop\n              dup3\n              dup1\n              sload\n              tag_150\n              swap1\n              tag_139\n              jump\t// in\n            tag_150:\n              dup1\n              0x1f\n              add\n              0x20\n              dup1\n              swap2\n              div\n              mul\n              0x20\n              add\n              mload(0x40)\n              swap1\n              dup2\n              add\n              0x40\n              mstore\n              dup1\n              swap3\n              swap2\n              swap1\n              dup2\n              dup2\n              mstore\n              0x20\n              add\n              dup3\n              dup1\n              sload\n              tag_151\n              swap1\n              tag_139\n              jump\t// in\n            tag_151:\n              dup1\n              iszero\n              tag_152\n              jumpi\n              dup1\n              0x1f\n              lt\n              tag_153\n              jumpi\n              0x0100\n              dup1\n              dup4\n              sload\n              div\n              mul\n              dup4\n              mstore\n              swap2\n              0x20\n              add\n              swap2\n              jump(tag_152)\n            tag_153:\n              dup3\n              add\n              swap2\n              swap1\n              0x00\n              mstore\n              keccak256(0x00, 0x20)\n              swap1\n            tag_154:\n              dup2\n              sload\n              dup2\n              mstore\n              swap1\n              0x01\n              add\n              swap1\n              0x20\n              add\n              dup1\n              dup4\n              gt\n              tag_154\n              jumpi\n              dup3\n              swap1\n              sub\n              0x1f\n              and\n              dup3\n              add\n              swap2\n            tag_152:\n              pop\n              pop\n              pop\n              pop\n              pop\n              swap3\n              pop\n              swap10\n              pop\n              swap10\n              pop\n              swap10\n              pop\n              swap10\n              pop\n              swap10\n              pop\n              swap10\n              pop\n              swap10\n              pop\n              swap10\n              pop\n              swap10\n              pop\n              swap10\n              pop\n                /* \"campaign.sol\":5226:5711  function getSummary() external view returns (\r... */\n              swap1\n              swap2\n              swap3\n              swap4\n              swap5\n              swap6\n              swap7\n              swap8\n              swap9\n              swap10\n              jump\t// out\n                /* \"campaign.sol\":1775:1820  mapping(address => uint) public contributions */\n            tag_72:\n              mstore(0x20, 0x05)\n              dup1\n              0x00\n              mstore\n              keccak256(0x00, 0x40)\n              0x00\n              swap2\n              pop\n              swap1\n              pop\n              sload\n              dup2\n              jump\t// out\n                /* \"campaign.sol\":1485:1507  address public manager */\n            tag_76:\n              0x00\n              dup1\n              sload\n              swap1\n              0x0100\n              exp\n              swap1\n              div\n              0xffffffffffffffffffffffffffffffffffffffff\n              and\n              dup2\n              jump\t// out\n                /* \"campaign.sol\":2141:2165  uint public requestCount */\n            tag_81:\n              sload(0x0c)\n              dup2\n              jump\t// out\n                /* \"campaign.sol\":2094:2134  mapping(uint => Request) public requests */\n            tag_86:\n              mstore(0x20, 0x0b)\n              dup1\n              0x00\n              mstore\n              keccak256(0x00, 0x40)\n              0x00\n              swap2\n              pop\n              swap1\n              pop\n              dup1\n              0x00\n              add\n              dup1\n              sload\n              tag_155\n              swap1\n              tag_139\n              jump\t// in\n            tag_155:\n              dup1\n              0x1f\n              add\n              0x20\n              dup1\n              swap2\n              div\n              mul\n              0x20\n              add\n              mload(0x40)\n              swap1\n              dup2\n              add\n              0x40\n              mstore\n              dup1\n              swap3\n              swap2\n              swap1\n              dup2\n              dup2\n              mstore\n              0x20\n              add\n              dup3\n              dup1\n              sload\n              tag_156\n              swap1\n              tag_139\n              jump\t// in\n            tag_156:\n              dup1\n              iszero\n              tag_157\n              jumpi\n              dup1\n              0x1f\n              lt\n              tag_158\n              jumpi\n              0x0100\n              dup1\n              dup4\n              sload\n              div\n              mul\n              dup4\n              mstore\n              swap2\n              0x20\n              add\n              swap2\n              jump(tag_157)\n            tag_158:\n              dup3\n              add\n              swap2\n              swap1\n              0x00\n              mstore\n              keccak256(0x00, 0x20)\n              swap1\n            tag_159:\n              dup2\n              sload\n              dup2\n              mstore\n              swap1\n              0x01\n              add\n              swap1\n              0x20\n              add\n              dup1\n              dup4\n              gt\n              tag_159\n              jumpi\n              dup3\n              swap1\n              sub\n              0x1f\n              and\n              dup3\n              add\n              swap2\n            tag_157:\n              pop\n              pop\n              pop\n              pop\n              pop\n              swap1\n              dup1\n              0x01\n              add\n              sload\n              swap1\n              dup1\n              0x02\n              add\n              0x00\n              swap1\n              sload\n              swap1\n              0x0100\n              exp\n              swap1\n              div\n              0xffffffffffffffffffffffffffffffffffffffff\n              and\n              swap1\n              dup1\n              0x02\n              add\n              0x14\n              swap1\n              sload\n              swap1\n              0x0100\n              exp\n              swap1\n              div\n              0xff\n              and\n              swap1\n              dup1\n              0x03\n              add\n              sload\n              swap1\n              pop\n              dup6\n              jump\t// out\n                /* \"campaign.sol\":2172:2198  uint public approversCount */\n            tag_91:\n              sload(0x0d)\n              dup2\n              jump\t// out\n                /* \"campaign.sol\":3465:3918  function createRequest(\r... */\n            tag_97:\n                /* \"campaign.sol\":2401:2408  manager */\n              0x00\n              dup1\n              sload\n              swap1\n              0x0100\n              exp\n              swap1\n              div\n              0xffffffffffffffffffffffffffffffffffffffff\n              and\n                /* \"campaign.sol\":2387:2408  msg.sender == manager */\n              0xffffffffffffffffffffffffffffffffffffffff\n              and\n                /* \"campaign.sol\":2387:2397  msg.sender */\n              caller\n                /* \"campaign.sol\":2387:2408  msg.sender == manager */\n              0xffffffffffffffffffffffffffffffffffffffff\n              and\n              eq\n                /* \"campaign.sol\":2379:2409  require(msg.sender == manager) */\n              tag_161\n              jumpi\n              0x00\n              dup1\n              revert\n            tag_161:\n                /* \"campaign.sol\":3644:3649  value */\n              dup2\n                /* \"campaign.sol\":3619:3640  address(this).balance */\n              selfbalance\n                /* \"campaign.sol\":3619:3649  address(this).balance >= value */\n              lt\n              iszero\n                /* \"campaign.sol\":3611:3650  require(address(this).balance >= value) */\n              tag_163\n              jumpi\n              0x00\n              dup1\n              revert\n            tag_163:\n                /* \"campaign.sol\":3661:3687  Request storage newRequest */\n              0x00\n                /* \"campaign.sol\":3690:3698  requests */\n              0x0b\n                /* \"campaign.sol\":3690:3712  requests[requestCount] */\n              0x00\n                /* \"campaign.sol\":3699:3711  requestCount */\n              sload(0x0c)\n                /* \"campaign.sol\":3690:3712  requests[requestCount] */\n              dup2\n              mstore\n              0x20\n              add\n              swap1\n              dup2\n              mstore\n              0x20\n              add\n              0x00\n              keccak256\n                /* \"campaign.sol\":3661:3712  Request storage newRequest = requests[requestCount] */\n              swap1\n              pop\n                /* \"campaign.sol\":3748:3759  description */\n              dup4\n                /* \"campaign.sol\":3723:3733  newRequest */\n              dup2\n                /* \"campaign.sol\":3723:3745  newRequest.description */\n              0x00\n              add\n                /* \"campaign.sol\":3723:3759  newRequest.description = description */\n              swap1\n              dup1\n              mload\n              swap1\n              0x20\n              add\n              swap1\n              tag_164\n              swap3\n              swap2\n              swap1\n              tag_165\n              jump\t// in\n            tag_164:\n              pop\n                /* \"campaign.sol\":3789:3794  value */\n              dup3\n                /* \"campaign.sol\":3770:3780  newRequest */\n              dup2\n                /* \"campaign.sol\":3770:3786  newRequest.value */\n              0x01\n              add\n                /* \"campaign.sol\":3770:3794  newRequest.value = value */\n              dup2\n              swap1\n              sstore\n              pop\n                /* \"campaign.sol\":3828:3837  recipient */\n              dup2\n                /* \"campaign.sol\":3805:3815  newRequest */\n              dup2\n                /* \"campaign.sol\":3805:3825  newRequest.recipient */\n              0x02\n              add\n              0x00\n                /* \"campaign.sol\":3805:3837  newRequest.recipient = recipient */\n              0x0100\n              exp\n              dup2\n              sload\n              dup2\n              0xffffffffffffffffffffffffffffffffffffffff\n              mul\n              not\n              and\n              swap1\n              dup4\n              0xffffffffffffffffffffffffffffffffffffffff\n              and\n              mul\n              or\n              swap1\n              sstore\n              pop\n                /* \"campaign.sol\":3870:3875  false */\n              0x00\n                /* \"campaign.sol\":3848:3858  newRequest */\n              dup2\n                /* \"campaign.sol\":3848:3867  newRequest.complete */\n              0x02\n              add\n              0x14\n                /* \"campaign.sol\":3848:3875  newRequest.complete = false */\n              0x0100\n              exp\n              dup2\n              sload\n              dup2\n              0xff\n              mul\n              not\n              and\n              swap1\n              dup4\n              iszero\n              iszero\n              mul\n              or\n              swap1\n              sstore\n              pop\n                /* \"campaign.sol\":3896:3908  requestCount */\n              0x0c\n              0x00\n                /* \"campaign.sol\":3896:3910  requestCount++ */\n              dup2\n              sload\n              dup1\n              swap3\n              swap2\n              swap1\n              tag_166\n              swap1\n              tag_167\n              jump\t// in\n            tag_166:\n              swap2\n              swap1\n              pop\n              sstore\n              pop\n                /* \"campaign.sol\":2420:2421  _ */\n              pop\n                /* \"campaign.sol\":3465:3918  function createRequest(\r... */\n              pop\n              pop\n              pop\n              jump\t// out\n                /* \"campaign.sol\":2008:2039  uint public minimumContribution */\n            tag_100:\n              sload(0x09)\n              dup2\n              jump\t// out\n                /* \"campaign.sol\":1638:1671  string public CampaignDescription */\n            tag_104:\n              0x03\n              dup1\n              sload\n              tag_168\n              swap1\n              tag_139\n              jump\t// in\n            tag_168:\n              dup1\n              0x1f\n              add\n              0x20\n              dup1\n              swap2\n              div\n              mul\n              0x20\n              add\n              mload(0x40)\n              swap1\n              dup2\n              add\n              0x40\n              mstore\n              dup1\n              swap3\n              swap2\n              swap1\n              dup2\n              dup2\n              mstore\n              0x20\n              add\n              dup3\n              dup1\n              sload\n              tag_169\n              swap1\n              tag_139\n              jump\t// in\n            tag_169:\n              dup1\n              iszero\n              tag_170\n              jumpi\n              dup1\n              0x1f\n              lt\n              tag_171\n              jumpi\n              0x0100\n              dup1\n              dup4\n              sload\n              div\n              mul\n              dup4\n              mstore\n              swap2\n              0x20\n              add\n              swap2\n              jump(tag_170)\n            tag_171:\n              dup3\n              add\n              swap2\n              swap1\n              0x00\n              mstore\n              keccak256(0x00, 0x20)\n              swap1\n            tag_172:\n              dup2\n              sload\n              dup2\n              mstore\n              swap1\n              0x01\n              add\n              swap1\n              0x20\n              add\n              dup1\n              dup4\n              gt\n              tag_172\n              jumpi\n              dup3\n              swap1\n              sub\n              0x1f\n              and\n              dup3\n              add\n              swap2\n            tag_170:\n              pop\n              pop\n              pop\n              pop\n              pop\n              dup2\n              jump\t// out\n                /* \"campaign.sol\":4687:5218  function getRefund() public inState(State.Expired) returns (bool) \r... */\n            tag_108:\n                /* \"campaign.sol\":4747:4751  bool */\n              0x00\n                /* \"campaign.sol\":4723:4736  State.Expired */\n              0x01\n                /* \"campaign.sol\":2310:2316  _state */\n              dup1\n                /* \"campaign.sol\":2301:2316  state == _state */\n              0x01\n              dup2\n              gt\n              iszero\n              tag_174\n              jumpi\n              mstore(0x00, 0x4e487b7100000000000000000000000000000000000000000000000000000000)\n              mstore(0x04, 0x21)\n              revert(0x00, 0x24)\n            tag_174:\n                /* \"campaign.sol\":2301:2306  state */\n              0x06\n              0x00\n              swap1\n              sload\n              swap1\n              0x0100\n              exp\n              swap1\n              div\n              0xff\n              and\n                /* \"campaign.sol\":2301:2316  state == _state */\n              0x01\n              dup2\n              gt\n              iszero\n              tag_175\n              jumpi\n              mstore(0x00, 0x4e487b7100000000000000000000000000000000000000000000000000000000)\n              mstore(0x04, 0x21)\n              revert(0x00, 0x24)\n            tag_175:\n              eq\n                /* \"campaign.sol\":2293:2317  require(state == _state) */\n              tag_176\n              jumpi\n              0x00\n              dup1\n              revert\n            tag_176:\n                /* \"campaign.sol\":4806:4807  0 */\n              0x00\n                /* \"campaign.sol\":4778:4791  contributions */\n              0x05\n                /* \"campaign.sol\":4778:4803  contributions[msg.sender] */\n              0x00\n                /* \"campaign.sol\":4792:4802  msg.sender */\n              caller\n                /* \"campaign.sol\":4778:4803  contributions[msg.sender] */\n              0xffffffffffffffffffffffffffffffffffffffff\n              and\n              0xffffffffffffffffffffffffffffffffffffffff\n              and\n              dup2\n              mstore\n              0x20\n              add\n              swap1\n              dup2\n              mstore\n              0x20\n              add\n              0x00\n              keccak256\n              sload\n                /* \"campaign.sol\":4778:4807  contributions[msg.sender] > 0 */\n              gt\n                /* \"campaign.sol\":4770:4808  require(contributions[msg.sender] > 0) */\n              tag_178\n              jumpi\n              0x00\n              dup1\n              revert\n            tag_178:\n                /* \"campaign.sol\":4821:4843  uint256 amountToRefund */\n              0x00\n                /* \"campaign.sol\":4846:4859  contributions */\n              0x05\n                /* \"campaign.sol\":4846:4871  contributions[msg.sender] */\n              0x00\n                /* \"campaign.sol\":4860:4870  msg.sender */\n              caller\n                /* \"campaign.sol\":4846:4871  contributions[msg.sender] */\n              0xffffffffffffffffffffffffffffffffffffffff\n              and\n              0xffffffffffffffffffffffffffffffffffffffff\n              and\n              dup2\n              mstore\n              0x20\n              add\n              swap1\n              dup2\n              mstore\n              0x20\n              add\n              0x00\n              keccak256\n              sload\n                /* \"campaign.sol\":4821:4871  uint256 amountToRefund = contributions[msg.sender] */\n              swap1\n              pop\n                /* \"campaign.sol\":4910:4911  0 */\n              0x00\n                /* \"campaign.sol\":4882:4895  contributions */\n              0x05\n                /* \"campaign.sol\":4882:4907  contributions[msg.sender] */\n              0x00\n                /* \"campaign.sol\":4896:4906  msg.sender */\n              caller\n                /* \"campaign.sol\":4882:4907  contributions[msg.sender] */\n              0xffffffffffffffffffffffffffffffffffffffff\n              and\n              0xffffffffffffffffffffffffffffffffffffffff\n              and\n              dup2\n              mstore\n              0x20\n              add\n              swap1\n              dup2\n              mstore\n              0x20\n              add\n              0x00\n              keccak256\n                /* \"campaign.sol\":4882:4911  contributions[msg.sender] = 0 */\n              dup2\n              swap1\n              sstore\n              pop\n                /* \"campaign.sol\":4937:4947  msg.sender */\n              caller\n                /* \"campaign.sol\":4929:4953  payable(msg.sender).send */\n              0xffffffffffffffffffffffffffffffffffffffff\n              and\n                /* \"campaign.sol\":4929:4969  payable(msg.sender).send(amountToRefund) */\n              0x08fc\n                /* \"campaign.sol\":4954:4968  amountToRefund */\n              dup3\n                /* \"campaign.sol\":4929:4969  payable(msg.sender).send(amountToRefund) */\n              swap1\n              dup2\n              iszero\n              mul\n              swap1\n              mload(0x40)\n              0x00\n              mload(0x40)\n              dup1\n              dup4\n              sub\n              dup2\n              dup6\n              dup9\n              dup9\n              call\n              swap4\n              pop\n              pop\n              pop\n              pop\n                /* \"campaign.sol\":4924:5187  if (!payable(msg.sender).send(amountToRefund)) {\r... */\n              tag_180\n              jumpi\n                /* \"campaign.sol\":5014:5028  amountToRefund */\n              dup1\n                /* \"campaign.sol\":4986:4999  contributions */\n              0x05\n                /* \"campaign.sol\":4986:5011  contributions[msg.sender] */\n              0x00\n                /* \"campaign.sol\":5000:5010  msg.sender */\n              caller\n                /* \"campaign.sol\":4986:5011  contributions[msg.sender] */\n              0xffffffffffffffffffffffffffffffffffffffff\n              and\n              0xffffffffffffffffffffffffffffffffffffffff\n              and\n              dup2\n              mstore\n              0x20\n              add\n              swap1\n              dup2\n              mstore\n              0x20\n              add\n              0x00\n              keccak256\n                /* \"campaign.sol\":4986:5028  contributions[msg.sender] = amountToRefund */\n              dup2\n              swap1\n              sstore\n              pop\n                /* \"campaign.sol\":5050:5055  false */\n              0x00\n                /* \"campaign.sol\":5043:5055  return false */\n              swap3\n              pop\n              pop\n              jump(tag_177)\n                /* \"campaign.sol\":4924:5187  if (!payable(msg.sender).send(amountToRefund)) {\r... */\n            tag_180:\n                /* \"campaign.sol\":5129:5143  amountToRefund */\n              dup1\n                /* \"campaign.sol\":5108:5125  totalContribution */\n              sload(0x04)\n                /* \"campaign.sol\":5108:5144  totalContribution - (amountToRefund) */\n              tag_182\n              swap2\n              swap1\n              tag_183\n              jump\t// in\n            tag_182:\n                /* \"campaign.sol\":5088:5105  totalContribution */\n              0x04\n                /* \"campaign.sol\":5088:5144  totalContribution = totalContribution - (amountToRefund) */\n              dup2\n              swap1\n              sstore\n              pop\n                /* \"campaign.sol\":5159:5173  approversCount */\n              0x0d\n              0x00\n                /* \"campaign.sol\":5159:5175  approversCount-- */\n              dup2\n              sload\n              dup1\n              swap3\n              swap2\n              swap1\n              tag_184\n              swap1\n              tag_185\n              jump\t// in\n            tag_184:\n              swap2\n              swap1\n              pop\n              sstore\n              pop\n                /* \"campaign.sol\":5206:5210  true */\n              0x01\n                /* \"campaign.sol\":5199:5210  return true */\n              swap3\n              pop\n              pop\n                /* \"campaign.sol\":2328:2329  _ */\n            tag_177:\n                /* \"campaign.sol\":4687:5218  function getRefund() public inState(State.Expired) returns (bool) \r... */\n              pop\n              swap1\n              jump\t// out\n                /* \"campaign.sol\":1828:1866  State public state = State.Fundraising */\n            tag_112:\n              0x06\n              0x00\n              swap1\n              sload\n              swap1\n              0x0100\n              exp\n              swap1\n              div\n              0xff\n              and\n              dup2\n              jump\t// out\n                /* \"campaign.sol\":1973:1999  uint public currentBalance */\n            tag_117:\n              sload(0x08)\n              dup2\n              jump\t// out\n                /* \"campaign.sol\":2985:3453  function contribute() external payable inState(State.Fundraising) {\r... */\n            tag_120:\n                /* \"campaign.sol\":3032:3049  State.Fundraising */\n              0x00\n                /* \"campaign.sol\":2310:2316  _state */\n              dup1\n                /* \"campaign.sol\":2301:2316  state == _state */\n              0x01\n              dup2\n              gt\n              iszero\n              tag_187\n              jumpi\n              mstore(0x00, 0x4e487b7100000000000000000000000000000000000000000000000000000000)\n              mstore(0x04, 0x21)\n              revert(0x00, 0x24)\n            tag_187:\n                /* \"campaign.sol\":2301:2306  state */\n              0x06\n              0x00\n              swap1\n              sload\n              swap1\n              0x0100\n              exp\n              swap1\n              div\n              0xff\n              and\n                /* \"campaign.sol\":2301:2316  state == _state */\n              0x01\n              dup2\n              gt\n              iszero\n              tag_188\n              jumpi\n              mstore(0x00, 0x4e487b7100000000000000000000000000000000000000000000000000000000)\n              mstore(0x04, 0x21)\n              revert(0x00, 0x24)\n            tag_188:\n              eq\n                /* \"campaign.sol\":2293:2317  require(state == _state) */\n              tag_189\n              jumpi\n              0x00\n              dup1\n              revert\n            tag_189:\n                /* \"campaign.sol\":3084:3091  manager */\n              0x00\n              dup1\n              sload\n              swap1\n              0x0100\n              exp\n              swap1\n              div\n              0xffffffffffffffffffffffffffffffffffffffff\n              and\n                /* \"campaign.sol\":3070:3091  msg.sender != manager */\n              0xffffffffffffffffffffffffffffffffffffffff\n              and\n                /* \"campaign.sol\":3070:3080  msg.sender */\n              caller\n                /* \"campaign.sol\":3070:3091  msg.sender != manager */\n              0xffffffffffffffffffffffffffffffffffffffff\n              and\n              eq\n              iszero\n                /* \"campaign.sol\":3062:3092  require(msg.sender != manager) */\n              tag_191\n              jumpi\n              0x00\n              dup1\n              revert\n            tag_191:\n                /* \"campaign.sol\":3124:3143  minimumContribution */\n              sload(0x09)\n                /* \"campaign.sol\":3111:3120  msg.value */\n              callvalue\n                /* \"campaign.sol\":3111:3143  msg.value >= minimumContribution */\n              lt\n              iszero\n                /* \"campaign.sol\":3103:3144  require(msg.value >= minimumContribution) */\n              tag_192\n              jumpi\n              0x00\n              dup1\n              revert\n            tag_192:\n                /* \"campaign.sol\":3212:3221  msg.value */\n              callvalue\n                /* \"campaign.sol\":3183:3196  contributions */\n              0x05\n                /* \"campaign.sol\":3183:3208  contributions[msg.sender] */\n              0x00\n                /* \"campaign.sol\":3197:3207  msg.sender */\n              caller\n                /* \"campaign.sol\":3183:3208  contributions[msg.sender] */\n              0xffffffffffffffffffffffffffffffffffffffff\n              and\n              0xffffffffffffffffffffffffffffffffffffffff\n              and\n              dup2\n              mstore\n              0x20\n              add\n              swap1\n              dup2\n              mstore\n              0x20\n              add\n              0x00\n              keccak256\n              sload\n                /* \"campaign.sol\":3183:3222  contributions[msg.sender] + (msg.value) */\n              tag_193\n              swap2\n              swap1\n              tag_194\n              jump\t// in\n            tag_193:\n                /* \"campaign.sol\":3155:3168  contributions */\n              0x05\n                /* \"campaign.sol\":3155:3180  contributions[msg.sender] */\n              0x00\n                /* \"campaign.sol\":3169:3179  msg.sender */\n              caller\n                /* \"campaign.sol\":3155:3180  contributions[msg.sender] */\n              0xffffffffffffffffffffffffffffffffffffffff\n              and\n              0xffffffffffffffffffffffffffffffffffffffff\n              and\n              dup2\n              mstore\n              0x20\n              add\n              swap1\n              dup2\n              mstore\n              0x20\n              add\n              0x00\n              keccak256\n                /* \"campaign.sol\":3155:3222  contributions[msg.sender] = contributions[msg.sender] + (msg.value) */\n              dup2\n              swap1\n              sstore\n              pop\n                /* \"campaign.sol\":3257:3261  true */\n              0x01\n                /* \"campaign.sol\":3233:3242  approvers */\n              0x0a\n                /* \"campaign.sol\":3233:3254  approvers[msg.sender] */\n              0x00\n                /* \"campaign.sol\":3243:3253  msg.sender */\n              caller\n                /* \"campaign.sol\":3233:3254  approvers[msg.sender] */\n              0xffffffffffffffffffffffffffffffffffffffff\n              and\n              0xffffffffffffffffffffffffffffffffffffffff\n              and\n              dup2\n              mstore\n              0x20\n              add\n              swap1\n              dup2\n              mstore\n              0x20\n              add\n              0x00\n              keccak256\n              0x00\n                /* \"campaign.sol\":3233:3261  approvers[msg.sender] = true */\n              0x0100\n              exp\n              dup2\n              sload\n              dup2\n              0xff\n              mul\n              not\n              and\n              swap1\n              dup4\n              iszero\n              iszero\n              mul\n              or\n              swap1\n              sstore\n              pop\n                /* \"campaign.sol\":3272:3286  approversCount */\n              0x0d\n              0x00\n                /* \"campaign.sol\":3272:3288  approversCount++ */\n              dup2\n              sload\n              dup1\n              swap3\n              swap2\n              swap1\n              tag_195\n              swap1\n              tag_167\n              jump\t// in\n            tag_195:\n              swap2\n              swap1\n              pop\n              sstore\n              pop\n                /* \"campaign.sol\":3339:3348  msg.value */\n              callvalue\n                /* \"campaign.sol\":3319:3336  totalContribution */\n              sload(0x04)\n                /* \"campaign.sol\":3319:3348  totalContribution + msg.value */\n              tag_196\n              swap2\n              swap1\n              tag_194\n              jump\t// in\n            tag_196:\n                /* \"campaign.sol\":3299:3316  totalContribution */\n              0x04\n                /* \"campaign.sol\":3299:3348  totalContribution = totalContribution + msg.value */\n              dup2\n              swap1\n              sstore\n              pop\n                /* \"campaign.sol\":3401:3410  msg.value */\n              callvalue\n                /* \"campaign.sol\":3383:3397  currentBalance */\n              sload(0x08)\n                /* \"campaign.sol\":3383:3411  currentBalance + (msg.value) */\n              tag_197\n              swap2\n              swap1\n              tag_194\n              jump\t// in\n            tag_197:\n                /* \"campaign.sol\":3366:3380  currentBalance */\n              0x08\n                /* \"campaign.sol\":3366:3411  currentBalance = currentBalance + (msg.value) */\n              dup2\n              swap1\n              sstore\n              pop\n                /* \"campaign.sol\":3422:3445  checkIfFundingExpired() */\n              tag_198\n                /* \"campaign.sol\":3422:3443  checkIfFundingExpired */\n              tag_54\n                /* \"campaign.sol\":3422:3445  checkIfFundingExpired() */\n              jump\t// in\n            tag_198:\n                /* \"campaign.sol\":2985:3453  function contribute() external payable inState(State.Fundraising) {\r... */\n              pop\n              jump\t// out\n                /* \"campaign.sol\":3930:4225  function approveRequest(uint index) public {\r... */\n            tag_124:\n                /* \"campaign.sol\":3984:4007  Request storage request */\n              0x00\n                /* \"campaign.sol\":4010:4018  requests */\n              0x0b\n                /* \"campaign.sol\":4010:4025  requests[index] */\n              0x00\n                /* \"campaign.sol\":4019:4024  index */\n              dup4\n                /* \"campaign.sol\":4010:4025  requests[index] */\n              dup2\n              mstore\n              0x20\n              add\n              swap1\n              dup2\n              mstore\n              0x20\n              add\n              0x00\n              keccak256\n                /* \"campaign.sol\":3984:4025  Request storage request = requests[index] */\n              swap1\n              pop\n                /* \"campaign.sol\":4054:4063  approvers */\n              0x0a\n                /* \"campaign.sol\":4054:4075  approvers[msg.sender] */\n              0x00\n                /* \"campaign.sol\":4064:4074  msg.sender */\n              caller\n                /* \"campaign.sol\":4054:4075  approvers[msg.sender] */\n              0xffffffffffffffffffffffffffffffffffffffff\n              and\n              0xffffffffffffffffffffffffffffffffffffffff\n              and\n              dup2\n              mstore\n              0x20\n              add\n              swap1\n              dup2\n              mstore\n              0x20\n              add\n              0x00\n              keccak256\n              0x00\n              swap1\n              sload\n              swap1\n              0x0100\n              exp\n              swap1\n              div\n              0xff\n              and\n                /* \"campaign.sol\":4046:4076  require(approvers[msg.sender]) */\n              tag_200\n              jumpi\n              0x00\n              dup1\n              revert\n            tag_200:\n                /* \"campaign.sol\":4096:4103  request */\n              dup1\n                /* \"campaign.sol\":4096:4113  request.approvals */\n              0x04\n              add\n                /* \"campaign.sol\":4096:4125  request.approvals[msg.sender] */\n              0x00\n                /* \"campaign.sol\":4114:4124  msg.sender */\n              caller\n                /* \"campaign.sol\":4096:4125  request.approvals[msg.sender] */\n              0xffffffffffffffffffffffffffffffffffffffff\n              and\n              0xffffffffffffffffffffffffffffffffffffffff\n              and\n              dup2\n              mstore\n              0x20\n              add\n              swap1\n              dup2\n              mstore\n              0x20\n              add\n              0x00\n              keccak256\n              0x00\n              swap1\n              sload\n              swap1\n              0x0100\n              exp\n              swap1\n              div\n              0xff\n              and\n                /* \"campaign.sol\":4095:4125  !request.approvals[msg.sender] */\n              iszero\n                /* \"campaign.sol\":4087:4126  require(!request.approvals[msg.sender]) */\n              tag_201\n              jumpi\n              0x00\n              dup1\n              revert\n            tag_201:\n                /* \"campaign.sol\":4179:4183  true */\n              0x01\n                /* \"campaign.sol\":4147:4154  request */\n              dup2\n                /* \"campaign.sol\":4147:4164  request.approvals */\n              0x04\n              add\n                /* \"campaign.sol\":4147:4176  request.approvals[msg.sender] */\n              0x00\n                /* \"campaign.sol\":4165:4175  msg.sender */\n              caller\n                /* \"campaign.sol\":4147:4176  request.approvals[msg.sender] */\n              0xffffffffffffffffffffffffffffffffffffffff\n              and\n              0xffffffffffffffffffffffffffffffffffffffff\n              and\n              dup2\n              mstore\n              0x20\n              add\n              swap1\n              dup2\n              mstore\n              0x20\n              add\n              0x00\n              keccak256\n              0x00\n                /* \"campaign.sol\":4147:4183  request.approvals[msg.sender] = true */\n              0x0100\n              exp\n              dup2\n              sload\n              dup2\n              0xff\n              mul\n              not\n              and\n              swap1\n              dup4\n              iszero\n              iszero\n              mul\n              or\n              swap1\n              sstore\n              pop\n                /* \"campaign.sol\":4194:4201  request */\n              dup1\n                /* \"campaign.sol\":4194:4215  request.approvalCount */\n              0x03\n              add\n              0x00\n                /* \"campaign.sol\":4194:4217  request.approvalCount++ */\n              dup2\n              sload\n              dup1\n              swap3\n              swap2\n              swap1\n              tag_202\n              swap1\n              tag_167\n              jump\t// in\n            tag_202:\n              swap2\n              swap1\n              pop\n              sstore\n              pop\n                /* \"campaign.sol\":3930:4225  function approveRequest(uint index) public {\r... */\n              pop\n              pop\n              jump\t// out\n            tag_165:\n              dup3\n              dup1\n              sload\n              tag_203\n              swap1\n              tag_139\n              jump\t// in\n            tag_203:\n              swap1\n              0x00\n              mstore\n              keccak256(0x00, 0x20)\n              swap1\n              0x1f\n              add\n              0x20\n              swap1\n              div\n              dup2\n              add\n              swap3\n              dup3\n              tag_205\n              jumpi\n              0x00\n              dup6\n              sstore\n              jump(tag_204)\n            tag_205:\n              dup3\n              0x1f\n              lt\n              tag_206\n              jumpi\n              dup1\n              mload\n              not(0xff)\n              and\n              dup4\n              dup1\n              add\n              or\n              dup6\n              sstore\n              jump(tag_204)\n            tag_206:\n              dup3\n              dup1\n              add\n              0x01\n              add\n              dup6\n              sstore\n              dup3\n              iszero\n              tag_204\n              jumpi\n              swap2\n              dup3\n              add\n            tag_207:\n              dup3\n              dup2\n              gt\n              iszero\n              tag_208\n              jumpi\n              dup3\n              mload\n              dup3\n              sstore\n              swap2\n              0x20\n              add\n              swap2\n              swap1\n              0x01\n              add\n              swap1\n              jump(tag_207)\n            tag_208:\n            tag_204:\n              pop\n              swap1\n              pop\n              tag_209\n              swap2\n              swap1\n              tag_210\n              jump\t// in\n            tag_209:\n              pop\n              swap1\n              jump\t// out\n            tag_210:\n            tag_211:\n              dup1\n              dup3\n              gt\n              iszero\n              tag_212\n              jumpi\n              0x00\n              dup2\n              0x00\n              swap1\n              sstore\n              pop\n              0x01\n              add\n              jump(tag_211)\n            tag_212:\n              pop\n              swap1\n              jump\t// out\n                /* \"#utility.yul\":7:352   */\n            tag_214:\n                /* \"#utility.yul\":85:90   */\n              0x00\n                /* \"#utility.yul\":110:176   */\n              tag_216\n                /* \"#utility.yul\":126:175   */\n              tag_217\n                /* \"#utility.yul\":168:174   */\n              dup5\n                /* \"#utility.yul\":126:175   */\n              tag_218\n              jump\t// in\n            tag_217:\n                /* \"#utility.yul\":110:176   */\n              tag_219\n              jump\t// in\n            tag_216:\n                /* \"#utility.yul\":101:176   */\n              swap1\n              pop\n                /* \"#utility.yul\":199:205   */\n              dup3\n                /* \"#utility.yul\":192:197   */\n              dup2\n                /* \"#utility.yul\":185:206   */\n              mstore\n                /* \"#utility.yul\":237:241   */\n              0x20\n                /* \"#utility.yul\":230:235   */\n              dup2\n                /* \"#utility.yul\":226:242   */\n              add\n                /* \"#utility.yul\":275:278   */\n              dup5\n                /* \"#utility.yul\":266:272   */\n              dup5\n                /* \"#utility.yul\":261:264   */\n              dup5\n                /* \"#utility.yul\":257:273   */\n              add\n                /* \"#utility.yul\":254:279   */\n              gt\n                /* \"#utility.yul\":251:253   */\n              iszero\n              tag_220\n              jumpi\n                /* \"#utility.yul\":292:293   */\n              0x00\n                /* \"#utility.yul\":289:290   */\n              dup1\n                /* \"#utility.yul\":282:294   */\n              revert\n                /* \"#utility.yul\":251:253   */\n            tag_220:\n                /* \"#utility.yul\":305:346   */\n              tag_221\n                /* \"#utility.yul\":339:345   */\n              dup5\n                /* \"#utility.yul\":334:337   */\n              dup3\n                /* \"#utility.yul\":329:332   */\n              dup6\n                /* \"#utility.yul\":305:346   */\n              tag_222\n              jump\t// in\n            tag_221:\n                /* \"#utility.yul\":91:352   */\n              pop\n              swap4\n              swap3\n              pop\n              pop\n              pop\n              jump\t// out\n                /* \"#utility.yul\":358:497   */\n            tag_223:\n                /* \"#utility.yul\":404:409   */\n              0x00\n                /* \"#utility.yul\":442:448   */\n              dup2\n                /* \"#utility.yul\":429:449   */\n              calldataload\n                /* \"#utility.yul\":420:449   */\n              swap1\n              pop\n                /* \"#utility.yul\":458:491   */\n              tag_225\n                /* \"#utility.yul\":485:490   */\n              dup2\n                /* \"#utility.yul\":458:491   */\n              tag_226\n              jump\t// in\n            tag_225:\n                /* \"#utility.yul\":410:497   */\n              swap3\n              swap2\n              pop\n              pop\n              jump\t// out\n                /* \"#utility.yul\":517:790   */\n            tag_227:\n                /* \"#utility.yul\":573:578   */\n              0x00\n                /* \"#utility.yul\":622:625   */\n              dup3\n                /* \"#utility.yul\":615:619   */\n              0x1f\n                /* \"#utility.yul\":607:613   */\n              dup4\n                /* \"#utility.yul\":603:620   */\n              add\n                /* \"#utility.yul\":599:626   */\n              slt\n                /* \"#utility.yul\":589:591   */\n              tag_229\n              jumpi\n                /* \"#utility.yul\":640:641   */\n              0x00\n                /* \"#utility.yul\":637:638   */\n              dup1\n                /* \"#utility.yul\":630:642   */\n              revert\n                /* \"#utility.yul\":589:591   */\n            tag_229:\n                /* \"#utility.yul\":680:686   */\n              dup2\n                /* \"#utility.yul\":667:687   */\n              calldataload\n                /* \"#utility.yul\":705:784   */\n              tag_230\n                /* \"#utility.yul\":780:783   */\n              dup5\n                /* \"#utility.yul\":772:778   */\n              dup3\n                /* \"#utility.yul\":765:769   */\n              0x20\n                /* \"#utility.yul\":757:763   */\n              dup7\n                /* \"#utility.yul\":753:770   */\n              add\n                /* \"#utility.yul\":705:784   */\n              tag_214\n              jump\t// in\n            tag_230:\n                /* \"#utility.yul\":696:784   */\n              swap2\n              pop\n                /* \"#utility.yul\":579:790   */\n              pop\n              swap3\n              swap2\n              pop\n              pop\n              jump\t// out\n                /* \"#utility.yul\":796:935   */\n            tag_231:\n                /* \"#utility.yul\":842:847   */\n              0x00\n                /* \"#utility.yul\":880:886   */\n              dup2\n                /* \"#utility.yul\":867:887   */\n              calldataload\n                /* \"#utility.yul\":858:887   */\n              swap1\n              pop\n                /* \"#utility.yul\":896:929   */\n              tag_233\n                /* \"#utility.yul\":923:928   */\n              dup2\n                /* \"#utility.yul\":896:929   */\n              tag_234\n              jump\t// in\n            tag_233:\n                /* \"#utility.yul\":848:935   */\n              swap3\n              swap2\n              pop\n              pop\n              jump\t// out\n                /* \"#utility.yul\":941:1203   */\n            tag_44:\n                /* \"#utility.yul\":1000:1006   */\n              0x00\n                /* \"#utility.yul\":1049:1051   */\n              0x20\n                /* \"#utility.yul\":1037:1046   */\n              dup3\n                /* \"#utility.yul\":1028:1035   */\n              dup5\n                /* \"#utility.yul\":1024:1047   */\n              sub\n                /* \"#utility.yul\":1020:1052   */\n              slt\n                /* \"#utility.yul\":1017:1019   */\n              iszero\n              tag_236\n              jumpi\n                /* \"#utility.yul\":1065:1066   */\n              0x00\n                /* \"#utility.yul\":1062:1063   */\n              dup1\n                /* \"#utility.yul\":1055:1067   */\n              revert\n                /* \"#utility.yul\":1017:1019   */\n            tag_236:\n                /* \"#utility.yul\":1108:1109   */\n              0x00\n                /* \"#utility.yul\":1133:1186   */\n              tag_237\n                /* \"#utility.yul\":1178:1185   */\n              dup5\n                /* \"#utility.yul\":1169:1175   */\n              dup3\n                /* \"#utility.yul\":1158:1167   */\n              dup6\n                /* \"#utility.yul\":1154:1176   */\n              add\n                /* \"#utility.yul\":1133:1186   */\n              tag_223\n              jump\t// in\n            tag_237:\n                /* \"#utility.yul\":1123:1186   */\n              swap2\n              pop\n                /* \"#utility.yul\":1079:1196   */\n              pop\n                /* \"#utility.yul\":1007:1203   */\n              swap3\n              swap2\n              pop\n              pop\n              jump\t// out\n                /* \"#utility.yul\":1209:1874   */\n            tag_96:\n                /* \"#utility.yul\":1296:1302   */\n              0x00\n                /* \"#utility.yul\":1304:1310   */\n              dup1\n                /* \"#utility.yul\":1312:1318   */\n              0x00\n                /* \"#utility.yul\":1361:1363   */\n              0x60\n                /* \"#utility.yul\":1349:1358   */\n              dup5\n                /* \"#utility.yul\":1340:1347   */\n              dup7\n                /* \"#utility.yul\":1336:1359   */\n              sub\n                /* \"#utility.yul\":1332:1364   */\n              slt\n                /* \"#utility.yul\":1329:1331   */\n              iszero\n              tag_239\n              jumpi\n                /* \"#utility.yul\":1377:1378   */\n              0x00\n                /* \"#utility.yul\":1374:1375   */\n              dup1\n                /* \"#utility.yul\":1367:1379   */\n              revert\n                /* \"#utility.yul\":1329:1331   */\n            tag_239:\n                /* \"#utility.yul\":1448:1449   */\n              0x00\n                /* \"#utility.yul\":1437:1446   */\n              dup5\n                /* \"#utility.yul\":1433:1450   */\n              add\n                /* \"#utility.yul\":1420:1451   */\n              calldataload\n                /* \"#utility.yul\":1478:1496   */\n              0xffffffffffffffff\n                /* \"#utility.yul\":1470:1476   */\n              dup2\n                /* \"#utility.yul\":1467:1497   */\n              gt\n                /* \"#utility.yul\":1464:1466   */\n              iszero\n              tag_240\n              jumpi\n                /* \"#utility.yul\":1510:1511   */\n              0x00\n                /* \"#utility.yul\":1507:1508   */\n              dup1\n                /* \"#utility.yul\":1500:1512   */\n              revert\n                /* \"#utility.yul\":1464:1466   */\n            tag_240:\n                /* \"#utility.yul\":1538:1601   */\n              tag_241\n                /* \"#utility.yul\":1593:1600   */\n              dup7\n                /* \"#utility.yul\":1584:1590   */\n              dup3\n                /* \"#utility.yul\":1573:1582   */\n              dup8\n                /* \"#utility.yul\":1569:1591   */\n              add\n                /* \"#utility.yul\":1538:1601   */\n              tag_227\n              jump\t// in\n            tag_241:\n                /* \"#utility.yul\":1528:1601   */\n              swap4\n              pop\n                /* \"#utility.yul\":1391:1611   */\n              pop\n                /* \"#utility.yul\":1650:1652   */\n              0x20\n                /* \"#utility.yul\":1676:1729   */\n              tag_242\n                /* \"#utility.yul\":1721:1728   */\n              dup7\n                /* \"#utility.yul\":1712:1718   */\n              dup3\n                /* \"#utility.yul\":1701:1710   */\n              dup8\n                /* \"#utility.yul\":1697:1719   */\n              add\n                /* \"#utility.yul\":1676:1729   */\n              tag_231\n              jump\t// in\n            tag_242:\n                /* \"#utility.yul\":1666:1729   */\n              swap3\n              pop\n                /* \"#utility.yul\":1621:1739   */\n              pop\n                /* \"#utility.yul\":1778:1780   */\n              0x40\n                /* \"#utility.yul\":1804:1857   */\n              tag_243\n                /* \"#utility.yul\":1849:1856   */\n              dup7\n                /* \"#utility.yul\":1840:1846   */\n              dup3\n                /* \"#utility.yul\":1829:1838   */\n              dup8\n                /* \"#utility.yul\":1825:1847   */\n              add\n                /* \"#utility.yul\":1804:1857   */\n              tag_223\n              jump\t// in\n            tag_243:\n                /* \"#utility.yul\":1794:1857   */\n              swap2\n              pop\n                /* \"#utility.yul\":1749:1867   */\n              pop\n                /* \"#utility.yul\":1319:1874   */\n              swap3\n              pop\n              swap3\n              pop\n              swap3\n              jump\t// out\n                /* \"#utility.yul\":1880:2142   */\n            tag_30:\n                /* \"#utility.yul\":1939:1945   */\n              0x00\n                /* \"#utility.yul\":1988:1990   */\n              0x20\n                /* \"#utility.yul\":1976:1985   */\n              dup3\n                /* \"#utility.yul\":1967:1974   */\n              dup5\n                /* \"#utility.yul\":1963:1986   */\n              sub\n                /* \"#utility.yul\":1959:1991   */\n              slt\n                /* \"#utility.yul\":1956:1958   */\n              iszero\n              tag_245\n              jumpi\n                /* \"#utility.yul\":2004:2005   */\n              0x00\n                /* \"#utility.yul\":2001:2002   */\n              dup1\n                /* \"#utility.yul\":1994:2006   */\n              revert\n                /* \"#utility.yul\":1956:1958   */\n            tag_245:\n                /* \"#utility.yul\":2047:2048   */\n              0x00\n                /* \"#utility.yul\":2072:2125   */\n              tag_246\n                /* \"#utility.yul\":2117:2124   */\n              dup5\n                /* \"#utility.yul\":2108:2114   */\n              dup3\n                /* \"#utility.yul\":2097:2106   */\n              dup6\n                /* \"#utility.yul\":2093:2115   */\n              add\n                /* \"#utility.yul\":2072:2125   */\n              tag_231\n              jump\t// in\n            tag_246:\n                /* \"#utility.yul\":2062:2125   */\n              swap2\n              pop\n                /* \"#utility.yul\":2018:2135   */\n              pop\n                /* \"#utility.yul\":1946:2142   */\n              swap3\n              swap2\n              pop\n              pop\n              jump\t// out\n                /* \"#utility.yul\":2148:2266   */\n            tag_247:\n                /* \"#utility.yul\":2235:2259   */\n              tag_249\n                /* \"#utility.yul\":2253:2258   */\n              dup2\n                /* \"#utility.yul\":2235:2259   */\n              tag_250\n              jump\t// in\n            tag_249:\n                /* \"#utility.yul\":2230:2233   */\n              dup3\n                /* \"#utility.yul\":2223:2260   */\n              mstore\n                /* \"#utility.yul\":2213:2266   */\n              pop\n              pop\n              jump\t// out\n                /* \"#utility.yul\":2272:2381   */\n            tag_251:\n                /* \"#utility.yul\":2353:2374   */\n              tag_253\n                /* \"#utility.yul\":2368:2373   */\n              dup2\n                /* \"#utility.yul\":2353:2374   */\n              tag_254\n              jump\t// in\n            tag_253:\n                /* \"#utility.yul\":2348:2351   */\n              dup3\n                /* \"#utility.yul\":2341:2375   */\n              mstore\n                /* \"#utility.yul\":2331:2381   */\n              pop\n              pop\n              jump\t// out\n                /* \"#utility.yul\":2387:2532   */\n            tag_255:\n                /* \"#utility.yul\":2481:2525   */\n              tag_257\n                /* \"#utility.yul\":2519:2524   */\n              dup2\n                /* \"#utility.yul\":2481:2525   */\n              tag_258\n              jump\t// in\n            tag_257:\n                /* \"#utility.yul\":2476:2479   */\n              dup3\n                /* \"#utility.yul\":2469:2526   */\n              mstore\n                /* \"#utility.yul\":2459:2532   */\n              pop\n              pop\n              jump\t// out\n                /* \"#utility.yul\":2538:2902   */\n            tag_259:\n                /* \"#utility.yul\":2626:2629   */\n              0x00\n                /* \"#utility.yul\":2654:2693   */\n              tag_261\n                /* \"#utility.yul\":2687:2692   */\n              dup3\n                /* \"#utility.yul\":2654:2693   */\n              tag_262\n              jump\t// in\n            tag_261:\n                /* \"#utility.yul\":2709:2780   */\n              tag_263\n                /* \"#utility.yul\":2773:2779   */\n              dup2\n                /* \"#utility.yul\":2768:2771   */\n              dup6\n                /* \"#utility.yul\":2709:2780   */\n              tag_264\n              jump\t// in\n            tag_263:\n                /* \"#utility.yul\":2702:2780   */\n              swap4\n              pop\n                /* \"#utility.yul\":2789:2841   */\n              tag_265\n                /* \"#utility.yul\":2834:2840   */\n              dup2\n                /* \"#utility.yul\":2829:2832   */\n              dup6\n                /* \"#utility.yul\":2822:2826   */\n              0x20\n                /* \"#utility.yul\":2815:2820   */\n              dup7\n                /* \"#utility.yul\":2811:2827   */\n              add\n                /* \"#utility.yul\":2789:2841   */\n              tag_266\n              jump\t// in\n            tag_265:\n                /* \"#utility.yul\":2866:2895   */\n              tag_267\n                /* \"#utility.yul\":2888:2894   */\n              dup2\n                /* \"#utility.yul\":2866:2895   */\n              tag_268\n              jump\t// in\n            tag_267:\n                /* \"#utility.yul\":2861:2864   */\n              dup5\n                /* \"#utility.yul\":2857:2896   */\n              add\n                /* \"#utility.yul\":2850:2896   */\n              swap2\n              pop\n                /* \"#utility.yul\":2630:2902   */\n              pop\n              swap3\n              swap2\n              pop\n              pop\n              jump\t// out\n                /* \"#utility.yul\":2908:3026   */\n            tag_269:\n                /* \"#utility.yul\":2995:3019   */\n              tag_271\n                /* \"#utility.yul\":3013:3018   */\n              dup2\n                /* \"#utility.yul\":2995:3019   */\n              tag_272\n              jump\t// in\n            tag_271:\n                /* \"#utility.yul\":2990:2993   */\n              dup3\n                /* \"#utility.yul\":2983:3020   */\n              mstore\n                /* \"#utility.yul\":2973:3026   */\n              pop\n              pop\n              jump\t// out\n                /* \"#utility.yul\":3032:3254   */\n            tag_78:\n                /* \"#utility.yul\":3125:3129   */\n              0x00\n                /* \"#utility.yul\":3163:3165   */\n              0x20\n                /* \"#utility.yul\":3152:3161   */\n              dup3\n                /* \"#utility.yul\":3148:3166   */\n              add\n                /* \"#utility.yul\":3140:3166   */\n              swap1\n              pop\n                /* \"#utility.yul\":3176:3247   */\n              tag_274\n                /* \"#utility.yul\":3244:3245   */\n              0x00\n                /* \"#utility.yul\":3233:3242   */\n              dup4\n                /* \"#utility.yul\":3229:3246   */\n              add\n                /* \"#utility.yul\":3220:3226   */\n              dup5\n                /* \"#utility.yul\":3176:3247   */\n              tag_247\n              jump\t// in\n            tag_274:\n                /* \"#utility.yul\":3130:3254   */\n              swap3\n              swap2\n              pop\n              pop\n              jump\t// out\n                /* \"#utility.yul\":3260:3470   */\n            tag_47:\n                /* \"#utility.yul\":3347:3351   */\n              0x00\n                /* \"#utility.yul\":3385:3387   */\n              0x20\n                /* \"#utility.yul\":3374:3383   */\n              dup3\n                /* \"#utility.yul\":3370:3388   */\n              add\n                /* \"#utility.yul\":3362:3388   */\n              swap1\n              pop\n                /* \"#utility.yul\":3398:3463   */\n              tag_276\n                /* \"#utility.yul\":3460:3461   */\n              0x00\n                /* \"#utility.yul\":3449:3458   */\n              dup4\n                /* \"#utility.yul\":3445:3462   */\n              add\n                /* \"#utility.yul\":3436:3442   */\n              dup5\n                /* \"#utility.yul\":3398:3463   */\n              tag_251\n              jump\t// in\n            tag_276:\n                /* \"#utility.yul\":3352:3470   */\n              swap3\n              swap2\n              pop\n              pop\n              jump\t// out\n                /* \"#utility.yul\":3476:3712   */\n            tag_114:\n                /* \"#utility.yul\":3576:3580   */\n              0x00\n                /* \"#utility.yul\":3614:3616   */\n              0x20\n                /* \"#utility.yul\":3603:3612   */\n              dup3\n                /* \"#utility.yul\":3599:3617   */\n              add\n                /* \"#utility.yul\":3591:3617   */\n              swap1\n              pop\n                /* \"#utility.yul\":3627:3705   */\n              tag_278\n                /* \"#utility.yul\":3702:3703   */\n              0x00\n                /* \"#utility.yul\":3691:3700   */\n              dup4\n                /* \"#utility.yul\":3687:3704   */\n              add\n                /* \"#utility.yul\":3678:3684   */\n              dup5\n                /* \"#utility.yul\":3627:3705   */\n              tag_255\n              jump\t// in\n            tag_278:\n                /* \"#utility.yul\":3581:3712   */\n              swap3\n              swap2\n              pop\n              pop\n              jump\t// out\n                /* \"#utility.yul\":3718:4031   */\n            tag_59:\n                /* \"#utility.yul\":3831:3835   */\n              0x00\n                /* \"#utility.yul\":3869:3871   */\n              0x20\n                /* \"#utility.yul\":3858:3867   */\n              dup3\n                /* \"#utility.yul\":3854:3872   */\n              add\n                /* \"#utility.yul\":3846:3872   */\n              swap1\n              pop\n                /* \"#utility.yul\":3918:3927   */\n              dup2\n                /* \"#utility.yul\":3912:3916   */\n              dup2\n                /* \"#utility.yul\":3908:3928   */\n              sub\n                /* \"#utility.yul\":3904:3905   */\n              0x00\n                /* \"#utility.yul\":3893:3902   */\n              dup4\n                /* \"#utility.yul\":3889:3906   */\n              add\n                /* \"#utility.yul\":3882:3929   */\n              mstore\n                /* \"#utility.yul\":3946:4024   */\n              tag_280\n                /* \"#utility.yul\":4019:4023   */\n              dup2\n                /* \"#utility.yul\":4010:4016   */\n              dup5\n                /* \"#utility.yul\":3946:4024   */\n              tag_259\n              jump\t// in\n            tag_280:\n                /* \"#utility.yul\":3938:4024   */\n              swap1\n              pop\n                /* \"#utility.yul\":3836:4031   */\n              swap3\n              swap2\n              pop\n              pop\n              jump\t// out\n                /* \"#utility.yul\":4037:4780   */\n            tag_88:\n                /* \"#utility.yul\":4256:4260   */\n              0x00\n                /* \"#utility.yul\":4294:4297   */\n              0xa0\n                /* \"#utility.yul\":4283:4292   */\n              dup3\n                /* \"#utility.yul\":4279:4298   */\n              add\n                /* \"#utility.yul\":4271:4298   */\n              swap1\n              pop\n                /* \"#utility.yul\":4344:4353   */\n              dup2\n                /* \"#utility.yul\":4338:4342   */\n              dup2\n                /* \"#utility.yul\":4334:4354   */\n              sub\n                /* \"#utility.yul\":4330:4331   */\n              0x00\n                /* \"#utility.yul\":4319:4328   */\n              dup4\n                /* \"#utility.yul\":4315:4332   */\n              add\n                /* \"#utility.yul\":4308:4355   */\n              mstore\n                /* \"#utility.yul\":4372:4450   */\n              tag_282\n                /* \"#utility.yul\":4445:4449   */\n              dup2\n                /* \"#utility.yul\":4436:4442   */\n              dup9\n                /* \"#utility.yul\":4372:4450   */\n              tag_259\n              jump\t// in\n            tag_282:\n                /* \"#utility.yul\":4364:4450   */\n              swap1\n              pop\n                /* \"#utility.yul\":4460:4532   */\n              tag_283\n                /* \"#utility.yul\":4528:4530   */\n              0x20\n                /* \"#utility.yul\":4517:4526   */\n              dup4\n                /* \"#utility.yul\":4513:4531   */\n              add\n                /* \"#utility.yul\":4504:4510   */\n              dup8\n                /* \"#utility.yul\":4460:4532   */\n              tag_269\n              jump\t// in\n            tag_283:\n                /* \"#utility.yul\":4542:4614   */\n              tag_284\n                /* \"#utility.yul\":4610:4612   */\n              0x40\n                /* \"#utility.yul\":4599:4608   */\n              dup4\n                /* \"#utility.yul\":4595:4613   */\n              add\n                /* \"#utility.yul\":4586:4592   */\n              dup7\n                /* \"#utility.yul\":4542:4614   */\n              tag_247\n              jump\t// in\n            tag_284:\n                /* \"#utility.yul\":4624:4690   */\n              tag_285\n                /* \"#utility.yul\":4686:4688   */\n              0x60\n                /* \"#utility.yul\":4675:4684   */\n              dup4\n                /* \"#utility.yul\":4671:4689   */\n              add\n                /* \"#utility.yul\":4662:4668   */\n              dup6\n                /* \"#utility.yul\":4624:4690   */\n              tag_251\n              jump\t// in\n            tag_285:\n                /* \"#utility.yul\":4700:4773   */\n              tag_286\n                /* \"#utility.yul\":4768:4771   */\n              0x80\n                /* \"#utility.yul\":4757:4766   */\n              dup4\n                /* \"#utility.yul\":4753:4772   */\n              add\n                /* \"#utility.yul\":4744:4750   */\n              dup5\n                /* \"#utility.yul\":4700:4773   */\n              tag_269\n              jump\t// in\n            tag_286:\n                /* \"#utility.yul\":4261:4780   */\n              swap7\n              swap6\n              pop\n              pop\n              pop\n              pop\n              pop\n              pop\n              jump\t// out\n                /* \"#utility.yul\":4786:5008   */\n            tag_36:\n                /* \"#utility.yul\":4879:4883   */\n              0x00\n                /* \"#utility.yul\":4917:4919   */\n              0x20\n                /* \"#utility.yul\":4906:4915   */\n              dup3\n                /* \"#utility.yul\":4902:4920   */\n              add\n                /* \"#utility.yul\":4894:4920   */\n              swap1\n              pop\n                /* \"#utility.yul\":4930:5001   */\n              tag_288\n                /* \"#utility.yul\":4998:4999   */\n              0x00\n                /* \"#utility.yul\":4987:4996   */\n              dup4\n                /* \"#utility.yul\":4983:5000   */\n              add\n                /* \"#utility.yul\":4974:4980   */\n              dup5\n                /* \"#utility.yul\":4930:5001   */\n              tag_269\n              jump\t// in\n            tag_288:\n                /* \"#utility.yul\":4884:5008   */\n              swap3\n              swap2\n              pop\n              pop\n              jump\t// out\n                /* \"#utility.yul\":5014:6415   */\n            tag_68:\n                /* \"#utility.yul\":5399:5403   */\n              0x00\n                /* \"#utility.yul\":5437:5440   */\n              0x0140\n                /* \"#utility.yul\":5426:5435   */\n              dup3\n                /* \"#utility.yul\":5422:5441   */\n              add\n                /* \"#utility.yul\":5414:5441   */\n              swap1\n              pop\n                /* \"#utility.yul\":5451:5522   */\n              tag_290\n                /* \"#utility.yul\":5519:5520   */\n              0x00\n                /* \"#utility.yul\":5508:5517   */\n              dup4\n                /* \"#utility.yul\":5504:5521   */\n              add\n                /* \"#utility.yul\":5495:5501   */\n              dup14\n                /* \"#utility.yul\":5451:5522   */\n              tag_269\n              jump\t// in\n            tag_290:\n                /* \"#utility.yul\":5532:5604   */\n              tag_291\n                /* \"#utility.yul\":5600:5602   */\n              0x20\n                /* \"#utility.yul\":5589:5598   */\n              dup4\n                /* \"#utility.yul\":5585:5603   */\n              add\n                /* \"#utility.yul\":5576:5582   */\n              dup13\n                /* \"#utility.yul\":5532:5604   */\n              tag_269\n              jump\t// in\n            tag_291:\n                /* \"#utility.yul\":5614:5686   */\n              tag_292\n                /* \"#utility.yul\":5682:5684   */\n              0x40\n                /* \"#utility.yul\":5671:5680   */\n              dup4\n                /* \"#utility.yul\":5667:5685   */\n              add\n                /* \"#utility.yul\":5658:5664   */\n              dup12\n                /* \"#utility.yul\":5614:5686   */\n              tag_269\n              jump\t// in\n            tag_292:\n                /* \"#utility.yul\":5696:5768   */\n              tag_293\n                /* \"#utility.yul\":5764:5766   */\n              0x60\n                /* \"#utility.yul\":5753:5762   */\n              dup4\n                /* \"#utility.yul\":5749:5767   */\n              add\n                /* \"#utility.yul\":5740:5746   */\n              dup11\n                /* \"#utility.yul\":5696:5768   */\n              tag_269\n              jump\t// in\n            tag_293:\n                /* \"#utility.yul\":5778:5851   */\n              tag_294\n                /* \"#utility.yul\":5846:5849   */\n              0x80\n                /* \"#utility.yul\":5835:5844   */\n              dup4\n                /* \"#utility.yul\":5831:5850   */\n              add\n                /* \"#utility.yul\":5822:5828   */\n              dup10\n                /* \"#utility.yul\":5778:5851   */\n              tag_247\n              jump\t// in\n            tag_294:\n                /* \"#utility.yul\":5899:5908   */\n              dup2\n                /* \"#utility.yul\":5893:5897   */\n              dup2\n                /* \"#utility.yul\":5889:5909   */\n              sub\n                /* \"#utility.yul\":5883:5886   */\n              0xa0\n                /* \"#utility.yul\":5872:5881   */\n              dup4\n                /* \"#utility.yul\":5868:5887   */\n              add\n                /* \"#utility.yul\":5861:5910   */\n              mstore\n                /* \"#utility.yul\":5927:6005   */\n              tag_295\n                /* \"#utility.yul\":6000:6004   */\n              dup2\n                /* \"#utility.yul\":5991:5997   */\n              dup9\n                /* \"#utility.yul\":5927:6005   */\n              tag_259\n              jump\t// in\n            tag_295:\n                /* \"#utility.yul\":5919:6005   */\n              swap1\n              pop\n                /* \"#utility.yul\":6015:6088   */\n              tag_296\n                /* \"#utility.yul\":6083:6086   */\n              0xc0\n                /* \"#utility.yul\":6072:6081   */\n              dup4\n                /* \"#utility.yul\":6068:6087   */\n              add\n                /* \"#utility.yul\":6059:6065   */\n              dup8\n                /* \"#utility.yul\":6015:6088   */\n              tag_269\n              jump\t// in\n            tag_296:\n                /* \"#utility.yul\":6136:6145   */\n              dup2\n                /* \"#utility.yul\":6130:6134   */\n              dup2\n                /* \"#utility.yul\":6126:6146   */\n              sub\n                /* \"#utility.yul\":6120:6123   */\n              0xe0\n                /* \"#utility.yul\":6109:6118   */\n              dup4\n                /* \"#utility.yul\":6105:6124   */\n              add\n                /* \"#utility.yul\":6098:6147   */\n              mstore\n                /* \"#utility.yul\":6164:6242   */\n              tag_297\n                /* \"#utility.yul\":6237:6241   */\n              dup2\n                /* \"#utility.yul\":6228:6234   */\n              dup7\n                /* \"#utility.yul\":6164:6242   */\n              tag_259\n              jump\t// in\n            tag_297:\n                /* \"#utility.yul\":6156:6242   */\n              swap1\n              pop\n                /* \"#utility.yul\":6252:6325   */\n              tag_298\n                /* \"#utility.yul\":6320:6323   */\n              0x0100\n                /* \"#utility.yul\":6309:6318   */\n              dup4\n                /* \"#utility.yul\":6305:6324   */\n              add\n                /* \"#utility.yul\":6296:6302   */\n              dup6\n                /* \"#utility.yul\":6252:6325   */\n              tag_269\n              jump\t// in\n            tag_298:\n                /* \"#utility.yul\":6335:6408   */\n              tag_299\n                /* \"#utility.yul\":6403:6406   */\n              0x0120\n                /* \"#utility.yul\":6392:6401   */\n              dup4\n                /* \"#utility.yul\":6388:6407   */\n              add\n                /* \"#utility.yul\":6379:6385   */\n              dup5\n                /* \"#utility.yul\":6335:6408   */\n              tag_269\n              jump\t// in\n            tag_299:\n                /* \"#utility.yul\":5404:6415   */\n              swap12\n              swap11\n              pop\n              pop\n              pop\n              pop\n              pop\n              pop\n              pop\n              pop\n              pop\n              pop\n              pop\n              jump\t// out\n                /* \"#utility.yul\":6421:6550   */\n            tag_219:\n                /* \"#utility.yul\":6455:6461   */\n              0x00\n                /* \"#utility.yul\":6482:6502   */\n              tag_301\n              tag_302\n              jump\t// in\n            tag_301:\n                /* \"#utility.yul\":6472:6502   */\n              swap1\n              pop\n                /* \"#utility.yul\":6511:6544   */\n              tag_303\n                /* \"#utility.yul\":6539:6543   */\n              dup3\n                /* \"#utility.yul\":6531:6537   */\n              dup3\n                /* \"#utility.yul\":6511:6544   */\n              tag_304\n              jump\t// in\n            tag_303:\n                /* \"#utility.yul\":6462:6550   */\n              swap2\n              swap1\n              pop\n              jump\t// out\n                /* \"#utility.yul\":6556:6631   */\n            tag_302:\n                /* \"#utility.yul\":6589:6595   */\n              0x00\n                /* \"#utility.yul\":6622:6624   */\n              0x40\n                /* \"#utility.yul\":6616:6625   */\n              mload\n                /* \"#utility.yul\":6606:6625   */\n              swap1\n              pop\n                /* \"#utility.yul\":6596:6631   */\n              swap1\n              jump\t// out\n                /* \"#utility.yul\":6637:6945   */\n            tag_218:\n                /* \"#utility.yul\":6699:6703   */\n              0x00\n                /* \"#utility.yul\":6789:6807   */\n              0xffffffffffffffff\n                /* \"#utility.yul\":6781:6787   */\n              dup3\n                /* \"#utility.yul\":6778:6808   */\n              gt\n                /* \"#utility.yul\":6775:6777   */\n              iszero\n              tag_307\n              jumpi\n                /* \"#utility.yul\":6811:6829   */\n              tag_308\n              tag_309\n              jump\t// in\n            tag_308:\n                /* \"#utility.yul\":6775:6777   */\n            tag_307:\n                /* \"#utility.yul\":6849:6878   */\n              tag_310\n                /* \"#utility.yul\":6871:6877   */\n              dup3\n                /* \"#utility.yul\":6849:6878   */\n              tag_268\n              jump\t// in\n            tag_310:\n                /* \"#utility.yul\":6841:6878   */\n              swap1\n              pop\n                /* \"#utility.yul\":6933:6937   */\n              0x20\n                /* \"#utility.yul\":6927:6931   */\n              dup2\n                /* \"#utility.yul\":6923:6938   */\n              add\n                /* \"#utility.yul\":6915:6938   */\n              swap1\n              pop\n                /* \"#utility.yul\":6704:6945   */\n              swap2\n              swap1\n              pop\n              jump\t// out\n                /* \"#utility.yul\":6951:7050   */\n            tag_262:\n                /* \"#utility.yul\":7003:7009   */\n              0x00\n                /* \"#utility.yul\":7037:7042   */\n              dup2\n                /* \"#utility.yul\":7031:7043   */\n              mload\n                /* \"#utility.yul\":7021:7043   */\n              swap1\n              pop\n                /* \"#utility.yul\":7010:7050   */\n              swap2\n              swap1\n              pop\n              jump\t// out\n                /* \"#utility.yul\":7056:7225   */\n            tag_264:\n                /* \"#utility.yul\":7140:7151   */\n              0x00\n                /* \"#utility.yul\":7174:7180   */\n              dup3\n                /* \"#utility.yul\":7169:7172   */\n              dup3\n                /* \"#utility.yul\":7162:7181   */\n              mstore\n                /* \"#utility.yul\":7214:7218   */\n              0x20\n                /* \"#utility.yul\":7209:7212   */\n              dup3\n                /* \"#utility.yul\":7205:7219   */\n              add\n                /* \"#utility.yul\":7190:7219   */\n              swap1\n              pop\n                /* \"#utility.yul\":7152:7225   */\n              swap3\n              swap2\n              pop\n              pop\n              jump\t// out\n                /* \"#utility.yul\":7231:7536   */\n            tag_194:\n                /* \"#utility.yul\":7271:7274   */\n              0x00\n                /* \"#utility.yul\":7290:7310   */\n              tag_314\n                /* \"#utility.yul\":7308:7309   */\n              dup3\n                /* \"#utility.yul\":7290:7310   */\n              tag_272\n              jump\t// in\n            tag_314:\n                /* \"#utility.yul\":7285:7310   */\n              swap2\n              pop\n                /* \"#utility.yul\":7324:7344   */\n              tag_315\n                /* \"#utility.yul\":7342:7343   */\n              dup4\n                /* \"#utility.yul\":7324:7344   */\n              tag_272\n              jump\t// in\n            tag_315:\n                /* \"#utility.yul\":7319:7344   */\n              swap3\n              pop\n                /* \"#utility.yul\":7478:7479   */\n              dup3\n                /* \"#utility.yul\":7410:7476   */\n              0xffffffffffffffffffffffffffffffffffffffffffffffffffffffffffffffff\n                /* \"#utility.yul\":7406:7480   */\n              sub\n                /* \"#utility.yul\":7403:7404   */\n              dup3\n                /* \"#utility.yul\":7400:7481   */\n              gt\n                /* \"#utility.yul\":7397:7399   */\n              iszero\n              tag_316\n              jumpi\n                /* \"#utility.yul\":7484:7502   */\n              tag_317\n              tag_318\n              jump\t// in\n            tag_317:\n                /* \"#utility.yul\":7397:7399   */\n            tag_316:\n                /* \"#utility.yul\":7528:7529   */\n              dup3\n                /* \"#utility.yul\":7525:7526   */\n              dup3\n                /* \"#utility.yul\":7521:7530   */\n              add\n                /* \"#utility.yul\":7514:7530   */\n              swap1\n              pop\n                /* \"#utility.yul\":7275:7536   */\n              swap3\n              swap2\n              pop\n              pop\n              jump\t// out\n                /* \"#utility.yul\":7542:7727   */\n            tag_130:\n                /* \"#utility.yul\":7582:7583   */\n              0x00\n                /* \"#utility.yul\":7599:7619   */\n              tag_320\n                /* \"#utility.yul\":7617:7618   */\n              dup3\n                /* \"#utility.yul\":7599:7619   */\n              tag_272\n              jump\t// in\n            tag_320:\n                /* \"#utility.yul\":7594:7619   */\n              swap2\n              pop\n                /* \"#utility.yul\":7633:7653   */\n              tag_321\n                /* \"#utility.yul\":7651:7652   */\n              dup4\n                /* \"#utility.yul\":7633:7653   */\n              tag_272\n              jump\t// in\n            tag_321:\n                /* \"#utility.yul\":7628:7653   */\n              swap3\n              pop\n                /* \"#utility.yul\":7672:7673   */\n              dup3\n                /* \"#utility.yul\":7662:7664   */\n              tag_322\n              jumpi\n                /* \"#utility.yul\":7677:7695   */\n              tag_323\n              tag_324\n              jump\t// in\n            tag_323:\n                /* \"#utility.yul\":7662:7664   */\n            tag_322:\n                /* \"#utility.yul\":7719:7720   */\n              dup3\n                /* \"#utility.yul\":7716:7717   */\n              dup3\n                /* \"#utility.yul\":7712:7721   */\n              div\n                /* \"#utility.yul\":7707:7721   */\n              swap1\n              pop\n                /* \"#utility.yul\":7584:7727   */\n              swap3\n              swap2\n              pop\n              pop\n              jump\t// out\n                /* \"#utility.yul\":7733:7924   */\n            tag_183:\n                /* \"#utility.yul\":7773:7777   */\n              0x00\n                /* \"#utility.yul\":7793:7813   */\n              tag_326\n                /* \"#utility.yul\":7811:7812   */\n              dup3\n                /* \"#utility.yul\":7793:7813   */\n              tag_272\n              jump\t// in\n            tag_326:\n                /* \"#utility.yul\":7788:7813   */\n              swap2\n              pop\n                /* \"#utility.yul\":7827:7847   */\n              tag_327\n                /* \"#utility.yul\":7845:7846   */\n              dup4\n                /* \"#utility.yul\":7827:7847   */\n              tag_272\n              jump\t// in\n            tag_327:\n                /* \"#utility.yul\":7822:7847   */\n              swap3\n              pop\n                /* \"#utility.yul\":7866:7867   */\n              dup3\n                /* \"#utility.yul\":7863:7864   */\n              dup3\n                /* \"#utility.yul\":7860:7868   */\n              lt\n                /* \"#utility.yul\":7857:7859   */\n              iszero\n              tag_328\n              jumpi\n                /* \"#utility.yul\":7871:7889   */\n              tag_329\n              tag_318\n              jump\t// in\n            tag_329:\n                /* \"#utility.yul\":7857:7859   */\n            tag_328:\n                /* \"#utility.yul\":7916:7917   */\n              dup3\n                /* \"#utility.yul\":7913:7914   */\n              dup3\n                /* \"#utility.yul\":7909:7918   */\n              sub\n                /* \"#utility.yul\":7901:7918   */\n              swap1\n              pop\n                /* \"#utility.yul\":7778:7924   */\n              swap3\n              swap2\n              pop\n              pop\n              jump\t// out\n                /* \"#utility.yul\":7930:8026   */\n            tag_250:\n                /* \"#utility.yul\":7967:7974   */\n              0x00\n                /* \"#utility.yul\":7996:8020   */\n              tag_331\n                /* \"#utility.yul\":8014:8019   */\n              dup3\n                /* \"#utility.yul\":7996:8020   */\n              tag_332\n              jump\t// in\n            tag_331:\n                /* \"#utility.yul\":7985:8020   */\n              swap1\n              pop\n                /* \"#utility.yul\":7975:8026   */\n              swap2\n              swap1\n              pop\n              jump\t// out\n                /* \"#utility.yul\":8032:8122   */\n            tag_254:\n                /* \"#utility.yul\":8066:8073   */\n              0x00\n                /* \"#utility.yul\":8109:8114   */\n              dup2\n                /* \"#utility.yul\":8102:8115   */\n              iszero\n                /* \"#utility.yul\":8095:8116   */\n              iszero\n                /* \"#utility.yul\":8084:8116   */\n              swap1\n              pop\n                /* \"#utility.yul\":8074:8122   */\n              swap2\n              swap1\n              pop\n              jump\t// out\n                /* \"#utility.yul\":8128:8257   */\n            tag_334:\n                /* \"#utility.yul\":8174:8181   */\n              0x00\n                /* \"#utility.yul\":8203:8208   */\n              dup2\n                /* \"#utility.yul\":8192:8208   */\n              swap1\n              pop\n                /* \"#utility.yul\":8209:8251   */\n              tag_336\n                /* \"#utility.yul\":8245:8250   */\n              dup3\n                /* \"#utility.yul\":8209:8251   */\n              tag_337\n              jump\t// in\n            tag_336:\n                /* \"#utility.yul\":8182:8257   */\n              swap2\n              swap1\n              pop\n              jump\t// out\n                /* \"#utility.yul\":8263:8389   */\n            tag_332:\n                /* \"#utility.yul\":8300:8307   */\n              0x00\n                /* \"#utility.yul\":8340:8382   */\n              0xffffffffffffffffffffffffffffffffffffffff\n                /* \"#utility.yul\":8333:8338   */\n              dup3\n                /* \"#utility.yul\":8329:8383   */\n              and\n                /* \"#utility.yul\":8318:8383   */\n              swap1\n              pop\n                /* \"#utility.yul\":8308:8389   */\n              swap2\n              swap1\n              pop\n              jump\t// out\n                /* \"#utility.yul\":8395:8472   */\n            tag_272:\n                /* \"#utility.yul\":8432:8439   */\n              0x00\n                /* \"#utility.yul\":8461:8466   */\n              dup2\n                /* \"#utility.yul\":8450:8466   */\n              swap1\n              pop\n                /* \"#utility.yul\":8440:8472   */\n              swap2\n              swap1\n              pop\n              jump\t// out\n                /* \"#utility.yul\":8478:8607   */\n            tag_258:\n                /* \"#utility.yul\":8535:8544   */\n              0x00\n                /* \"#utility.yul\":8568:8601   */\n              tag_341\n                /* \"#utility.yul\":8595:8600   */\n              dup3\n                /* \"#utility.yul\":8568:8601   */\n              tag_334\n              jump\t// in\n            tag_341:\n                /* \"#utility.yul\":8555:8601   */\n              swap1\n              pop\n                /* \"#utility.yul\":8545:8607   */\n              swap2\n              swap1\n              pop\n              jump\t// out\n                /* \"#utility.yul\":8613:8767   */\n            tag_222:\n                /* \"#utility.yul\":8697:8703   */\n              dup3\n                /* \"#utility.yul\":8692:8695   */\n              dup2\n                /* \"#utility.yul\":8687:8690   */\n              dup4\n                /* \"#utility.yul\":8674:8704   */\n              calldatacopy\n                /* \"#utility.yul\":8759:8760   */\n              0x00\n                /* \"#utility.yul\":8750:8756   */\n              dup4\n                /* \"#utility.yul\":8745:8748   */\n              dup4\n                /* \"#utility.yul\":8741:8757   */\n              add\n                /* \"#utility.yul\":8734:8761   */\n              mstore\n                /* \"#utility.yul\":8664:8767   */\n              pop\n              pop\n              pop\n              jump\t// out\n                /* \"#utility.yul\":8773:9080   */\n            tag_266:\n                /* \"#utility.yul\":8841:8842   */\n              0x00\n                /* \"#utility.yul\":8851:8964   */\n            tag_344:\n                /* \"#utility.yul\":8865:8871   */\n              dup4\n                /* \"#utility.yul\":8862:8863   */\n              dup2\n                /* \"#utility.yul\":8859:8872   */\n              lt\n                /* \"#utility.yul\":8851:8964   */\n              iszero\n              tag_346\n              jumpi\n                /* \"#utility.yul\":8950:8951   */\n              dup1\n                /* \"#utility.yul\":8945:8948   */\n              dup3\n                /* \"#utility.yul\":8941:8952   */\n              add\n                /* \"#utility.yul\":8935:8953   */\n              mload\n                /* \"#utility.yul\":8931:8932   */\n              dup2\n                /* \"#utility.yul\":8926:8929   */\n              dup5\n                /* \"#utility.yul\":8922:8933   */\n              add\n                /* \"#utility.yul\":8915:8954   */\n              mstore\n                /* \"#utility.yul\":8887:8889   */\n              0x20\n                /* \"#utility.yul\":8884:8885   */\n              dup2\n                /* \"#utility.yul\":8880:8890   */\n              add\n                /* \"#utility.yul\":8875:8890   */\n              swap1\n              pop\n                /* \"#utility.yul\":8851:8964   */\n              jump(tag_344)\n            tag_346:\n                /* \"#utility.yul\":8982:8988   */\n              dup4\n                /* \"#utility.yul\":8979:8980   */\n              dup2\n                /* \"#utility.yul\":8976:8989   */\n              gt\n                /* \"#utility.yul\":8973:8975   */\n              iszero\n              tag_347\n              jumpi\n                /* \"#utility.yul\":9062:9063   */\n              0x00\n                /* \"#utility.yul\":9053:9059   */\n              dup5\n                /* \"#utility.yul\":9048:9051   */\n              dup5\n                /* \"#utility.yul\":9044:9060   */\n              add\n                /* \"#utility.yul\":9037:9064   */\n              mstore\n                /* \"#utility.yul\":8973:8975   */\n            tag_347:\n                /* \"#utility.yul\":8822:9080   */\n              pop\n              pop\n              pop\n              pop\n              jump\t// out\n                /* \"#utility.yul\":9086:9257   */\n            tag_185:\n                /* \"#utility.yul\":9125:9128   */\n              0x00\n                /* \"#utility.yul\":9148:9172   */\n              tag_349\n                /* \"#utility.yul\":9166:9171   */\n              dup3\n                /* \"#utility.yul\":9148:9172   */\n              tag_272\n              jump\t// in\n            tag_349:\n                /* \"#utility.yul\":9139:9172   */\n              swap2\n              pop\n                /* \"#utility.yul\":9194:9198   */\n              0x00\n                /* \"#utility.yul\":9187:9192   */\n              dup3\n                /* \"#utility.yul\":9184:9199   */\n              eq\n                /* \"#utility.yul\":9181:9183   */\n              iszero\n              tag_350\n              jumpi\n                /* \"#utility.yul\":9202:9220   */\n              tag_351\n              tag_318\n              jump\t// in\n            tag_351:\n                /* \"#utility.yul\":9181:9183   */\n            tag_350:\n                /* \"#utility.yul\":9249:9250   */\n              0x01\n                /* \"#utility.yul\":9242:9247   */\n              dup3\n                /* \"#utility.yul\":9238:9251   */\n              sub\n                /* \"#utility.yul\":9231:9251   */\n              swap1\n              pop\n                /* \"#utility.yul\":9129:9257   */\n              swap2\n              swap1\n              pop\n              jump\t// out\n                /* \"#utility.yul\":9263:9583   */\n            tag_139:\n                /* \"#utility.yul\":9307:9313   */\n              0x00\n                /* \"#utility.yul\":9344:9345   */\n              0x02\n                /* \"#utility.yul\":9338:9342   */\n              dup3\n                /* \"#utility.yul\":9334:9346   */\n              div\n                /* \"#utility.yul\":9324:9346   */\n              swap1\n              pop\n                /* \"#utility.yul\":9391:9392   */\n              0x01\n                /* \"#utility.yul\":9385:9389   */\n              dup3\n                /* \"#utility.yul\":9381:9393   */\n              and\n                /* \"#utility.yul\":9412:9430   */\n              dup1\n                /* \"#utility.yul\":9402:9404   */\n              tag_353\n              jumpi\n                /* \"#utility.yul\":9468:9472   */\n              0x7f\n                /* \"#utility.yul\":9460:9466   */\n              dup3\n                /* \"#utility.yul\":9456:9473   */\n              and\n                /* \"#utility.yul\":9446:9473   */\n              swap2\n              pop\n                /* \"#utility.yul\":9402:9404   */\n            tag_353:\n                /* \"#utility.yul\":9530:9532   */\n              0x20\n                /* \"#utility.yul\":9522:9528   */\n              dup3\n                /* \"#utility.yul\":9519:9533   */\n              lt\n                /* \"#utility.yul\":9499:9517   */\n              dup2\n                /* \"#utility.yul\":9496:9534   */\n              eq\n                /* \"#utility.yul\":9493:9495   */\n              iszero\n              tag_354\n              jumpi\n                /* \"#utility.yul\":9549:9567   */\n              tag_355\n              tag_356\n              jump\t// in\n            tag_355:\n                /* \"#utility.yul\":9493:9495   */\n            tag_354:\n                /* \"#utility.yul\":9314:9583   */\n              pop\n              swap2\n              swap1\n              pop\n              jump\t// out\n                /* \"#utility.yul\":9589:9870   */\n            tag_304:\n                /* \"#utility.yul\":9672:9699   */\n              tag_358\n                /* \"#utility.yul\":9694:9698   */\n              dup3\n                /* \"#utility.yul\":9672:9699   */\n              tag_268\n              jump\t// in\n            tag_358:\n                /* \"#utility.yul\":9664:9670   */\n              dup2\n                /* \"#utility.yul\":9660:9700   */\n              add\n                /* \"#utility.yul\":9802:9808   */\n              dup2\n                /* \"#utility.yul\":9790:9800   */\n              dup2\n                /* \"#utility.yul\":9787:9809   */\n              lt\n                /* \"#utility.yul\":9766:9784   */\n              0xffffffffffffffff\n                /* \"#utility.yul\":9754:9764   */\n              dup3\n                /* \"#utility.yul\":9751:9785   */\n              gt\n                /* \"#utility.yul\":9748:9810   */\n              or\n                /* \"#utility.yul\":9745:9747   */\n              iszero\n              tag_359\n              jumpi\n                /* \"#utility.yul\":9813:9831   */\n              tag_360\n              tag_309\n              jump\t// in\n            tag_360:\n                /* \"#utility.yul\":9745:9747   */\n            tag_359:\n                /* \"#utility.yul\":9853:9863   */\n              dup1\n                /* \"#utility.yul\":9849:9851   */\n              0x40\n                /* \"#utility.yul\":9842:9864   */\n              mstore\n                /* \"#utility.yul\":9632:9870   */\n              pop\n              pop\n              pop\n              jump\t// out\n                /* \"#utility.yul\":9876:10109   */\n            tag_167:\n                /* \"#utility.yul\":9915:9918   */\n              0x00\n                /* \"#utility.yul\":9938:9962   */\n              tag_362\n                /* \"#utility.yul\":9956:9961   */\n              dup3\n                /* \"#utility.yul\":9938:9962   */\n              tag_272\n              jump\t// in\n            tag_362:\n                /* \"#utility.yul\":9929:9962   */\n              swap2\n              pop\n                /* \"#utility.yul\":9984:10050   */\n              0xffffffffffffffffffffffffffffffffffffffffffffffffffffffffffffffff\n                /* \"#utility.yul\":9977:9982   */\n              dup3\n                /* \"#utility.yul\":9974:10051   */\n              eq\n                /* \"#utility.yul\":9971:9973   */\n              iszero\n              tag_363\n              jumpi\n                /* \"#utility.yul\":10054:10072   */\n              tag_364\n              tag_318\n              jump\t// in\n            tag_364:\n                /* \"#utility.yul\":9971:9973   */\n            tag_363:\n                /* \"#utility.yul\":10101:10102   */\n              0x01\n                /* \"#utility.yul\":10094:10099   */\n              dup3\n                /* \"#utility.yul\":10090:10103   */\n              add\n                /* \"#utility.yul\":10083:10103   */\n              swap1\n              pop\n                /* \"#utility.yul\":9919:10109   */\n              swap2\n              swap1\n              pop\n              jump\t// out\n                /* \"#utility.yul\":10115:10295   */\n            tag_318:\n                /* \"#utility.yul\":10163:10240   */\n              0x4e487b7100000000000000000000000000000000000000000000000000000000\n                /* \"#utility.yul\":10160:10161   */\n              0x00\n                /* \"#utility.yul\":10153:10241   */\n              mstore\n                /* \"#utility.yul\":10260:10264   */\n              0x11\n                /* \"#utility.yul\":10257:10258   */\n              0x04\n                /* \"#utility.yul\":10250:10265   */\n              mstore\n                /* \"#utility.yul\":10284:10288   */\n              0x24\n                /* \"#utility.yul\":10281:10282   */\n              0x00\n                /* \"#utility.yul\":10274:10289   */\n              revert\n                /* \"#utility.yul\":10301:10481   */\n            tag_324:\n                /* \"#utility.yul\":10349:10426   */\n              0x4e487b7100000000000000000000000000000000000000000000000000000000\n                /* \"#utility.yul\":10346:10347   */\n              0x00\n                /* \"#utility.yul\":10339:10427   */\n              mstore\n                /* \"#utility.yul\":10446:10450   */\n              0x12\n                /* \"#utility.yul\":10443:10444   */\n              0x04\n                /* \"#utility.yul\":10436:10451   */\n              mstore\n                /* \"#utility.yul\":10470:10474   */\n              0x24\n                /* \"#utility.yul\":10467:10468   */\n              0x00\n                /* \"#utility.yul\":10460:10475   */\n              revert\n                /* \"#utility.yul\":10487:10667   */\n            tag_367:\n                /* \"#utility.yul\":10535:10612   */\n              0x4e487b7100000000000000000000000000000000000000000000000000000000\n                /* \"#utility.yul\":10532:10533   */\n              0x00\n                /* \"#utility.yul\":10525:10613   */\n              mstore\n                /* \"#utility.yul\":10632:10636   */\n              0x21\n                /* \"#utility.yul\":10629:10630   */\n              0x04\n                /* \"#utility.yul\":10622:10637   */\n              mstore\n                /* \"#utility.yul\":10656:10660   */\n              0x24\n                /* \"#utility.yul\":10653:10654   */\n              0x00\n                /* \"#utility.yul\":10646:10661   */\n              revert\n                /* \"#utility.yul\":10673:10853   */\n            tag_356:\n                /* \"#utility.yul\":10721:10798   */\n              0x4e487b7100000000000000000000000000000000000000000000000000000000\n                /* \"#utility.yul\":10718:10719   */\n              0x00\n                /* \"#utility.yul\":10711:10799   */\n              mstore\n                /* \"#utility.yul\":10818:10822   */\n              0x22\n                /* \"#utility.yul\":10815:10816   */\n              0x04\n                /* \"#utility.yul\":10808:10823   */\n              mstore\n                /* \"#utility.yul\":10842:10846   */\n              0x24\n                /* \"#utility.yul\":10839:10840   */\n              0x00\n                /* \"#utility.yul\":10832:10847   */\n              revert\n                /* \"#utility.yul\":10859:11039   */\n            tag_309:\n                /* \"#utility.yul\":10907:10984   */\n              0x4e487b7100000000000000000000000000000000000000000000000000000000\n                /* \"#utility.yul\":10904:10905   */\n              0x00\n                /* \"#utility.yul\":10897:10985   */\n              mstore\n                /* \"#utility.yul\":11004:11008   */\n              0x41\n                /* \"#utility.yul\":11001:11002   */\n              0x04\n                /* \"#utility.yul\":10994:11009   */\n              mstore\n                /* \"#utility.yul\":11028:11032   */\n              0x24\n                /* \"#utility.yul\":11025:11026   */\n              0x00\n                /* \"#utility.yul\":11018:11033   */\n              revert\n                /* \"#utility.yul\":11045:11147   */\n            tag_268:\n                /* \"#utility.yul\":11086:11092   */\n              0x00\n                /* \"#utility.yul\":11137:11139   */\n              0x1f\n                /* \"#utility.yul\":11133:11140   */\n              not\n                /* \"#utility.yul\":11128:11130   */\n              0x1f\n                /* \"#utility.yul\":11121:11126   */\n              dup4\n                /* \"#utility.yul\":11117:11131   */\n              add\n                /* \"#utility.yul\":11113:11141   */\n              and\n                /* \"#utility.yul\":11103:11141   */\n              swap1\n              pop\n                /* \"#utility.yul\":11093:11147   */\n              swap2\n              swap1\n              pop\n              jump\t// out\n                /* \"#utility.yul\":11153:11267   */\n            tag_337:\n                /* \"#utility.yul\":11235:11236   */\n              0x02\n                /* \"#utility.yul\":11228:11233   */\n              dup2\n                /* \"#utility.yul\":11225:11237   */\n              lt\n                /* \"#utility.yul\":11215:11217   */\n              tag_373\n              jumpi\n                /* \"#utility.yul\":11241:11259   */\n              tag_374\n              tag_367\n              jump\t// in\n            tag_374:\n                /* \"#utility.yul\":11215:11217   */\n            tag_373:\n                /* \"#utility.yul\":11205:11267   */\n              pop\n              jump\t// out\n                /* \"#utility.yul\":11273:11395   */\n            tag_226:\n                /* \"#utility.yul\":11346:11370   */\n              tag_376\n                /* \"#utility.yul\":11364:11369   */\n              dup2\n                /* \"#utility.yul\":11346:11370   */\n              tag_250\n              jump\t// in\n            tag_376:\n                /* \"#utility.yul\":11339:11344   */\n              dup2\n                /* \"#utility.yul\":11336:11371   */\n              eq\n                /* \"#utility.yul\":11326:11328   */\n              tag_377\n              jumpi\n                /* \"#utility.yul\":11385:11386   */\n              0x00\n                /* \"#utility.yul\":11382:11383   */\n              dup1\n                /* \"#utility.yul\":11375:11387   */\n              revert\n                /* \"#utility.yul\":11326:11328   */\n            tag_377:\n                /* \"#utility.yul\":11316:11395   */\n              pop\n              jump\t// out\n                /* \"#utility.yul\":11401:11523   */\n            tag_234:\n                /* \"#utility.yul\":11474:11498   */\n              tag_379\n                /* \"#utility.yul\":11492:11497   */\n              dup2\n                /* \"#utility.yul\":11474:11498   */\n              tag_272\n              jump\t// in\n            tag_379:\n                /* \"#utility.yul\":11467:11472   */\n              dup2\n                /* \"#utility.yul\":11464:11499   */\n              eq\n                /* \"#utility.yul\":11454:11456   */\n              tag_380\n              jumpi\n                /* \"#utility.yul\":11513:11514   */\n              0x00\n                /* \"#utility.yul\":11510:11511   */\n              dup1\n                /* \"#utility.yul\":11503:11515   */\n              revert\n                /* \"#utility.yul\":11454:11456   */\n            tag_380:\n                /* \"#utility.yul\":11444:11523   */\n              pop\n              jump\t// out\n\n            auxdata: 0xa264697066735822122084e756742f7c78ac969e80a96f7f37e93048b6d942026d96cd47706e5dfdfd1f64736f6c63430008040033\n        }\n    }\n\n    auxdata: 0xa2646970667358221220185502edb3cc8af4d491be37f32fc6d172d1b2f54c6a28c339bc0e96e6eec36f64736f6c63430008040033\n}\n","bytecode":{"linkReferences":{},"object":"608060405234801561001057600080fd5b50612e8a806100206000396000f3fe60806040523480156200001157600080fd5b5060043610620000525760003560e01c8063141961bc146200005757806328c3ce5b1462000092578063339d50a514620000b2578063aa9a068f14620000e8575b600080fd5b6200007560048036038101906200006f919062000844565b6200010a565b604051620000899695949392919062000b66565b60405180910390f35b620000b06004803603810190620000aa91906200089c565b62000297565b005b620000d06004803603810190620000ca919062000844565b6200049d565b604051620000df919062000b49565b60405180910390f35b620000f2620004dd565b60405162000101919062000be1565b60405180910390f35b600181815481106200011b57600080fd5b90600052602060002090600602016000915090508060000160009054906101000a900473ffffffffffffffffffffffffffffffffffffffff1690806001018054620001669062000e86565b80601f0160208091040260200160405190810160405280929190818152602001828054620001949062000e86565b8015620001e55780601f10620001b957610100808354040283529160200191620001e5565b820191906000526020600020905b815481529060010190602001808311620001c757829003601f168201915b505050505090806002015490806003018054620002029062000e86565b80601f0160208091040260200160405190810160405280929190818152602001828054620002309062000e86565b8015620002815780601f10620002555761010080835404028352916020019162000281565b820191906000526020600020905b8154815290600101906020018083116200026357829003601f168201915b5050505050908060040154908060050154905086565b60006201518082620002aa919062000da2565b42620002b7919062000d45565b90506000863386888786604051620002cf90620006e6565b620002e09695949392919062000c05565b604051809103906000f080158015620002fd573d6000803e3d6000fd5b50905060016040518060c001604052808373ffffffffffffffffffffffffffffffffffffffff1681526020018781526020018881526020018681526020018481526020018373ffffffffffffffffffffffffffffffffffffffff166308caa9106040518163ffffffff1660e01b815260040160206040518083038186803b1580156200038857600080fd5b505afa1580156200039d573d6000803e3d6000fd5b505050506040513d601f19601f82011682018060405250810190620003c3919062000870565b815250908060018154018082558091505060019003906000526020600020906006020160009091909190915060008201518160000160006101000a81548173ffffffffffffffffffffffffffffffffffffffff021916908373ffffffffffffffffffffffffffffffffffffffff160217905550602082015181600101908051906020019062000454929190620006f4565b506040820151816002015560608201518160030190805190602001906200047d929190620006f4565b506080820151816004015560a08201518160050155505050505050505050565b60008181548110620004ae57600080fd5b906000526020600020016000915054906101000a900473ffffffffffffffffffffffffffffffffffffffff1681565b60606001805480602002602001604051908101604052809291908181526020016000905b82821015620006dd57838290600052602060002090600602016040518060c00160405290816000820160009054906101000a900473ffffffffffffffffffffffffffffffffffffffff1673ffffffffffffffffffffffffffffffffffffffff1673ffffffffffffffffffffffffffffffffffffffff1681526020016001820180546200058d9062000e86565b80601f0160208091040260200160405190810160405280929190818152602001828054620005bb9062000e86565b80156200060c5780601f10620005e0576101008083540402835291602001916200060c565b820191906000526020600020905b815481529060010190602001808311620005ee57829003601f168201915b5050505050815260200160028201548152602001600382018054620006319062000e86565b80601f01602080910402602001604051908101604052809291908181526020018280546200065f9062000e86565b8015620006b05780601f106200068457610100808354040283529160200191620006b0565b820191906000526020600020905b8154815290600101906020018083116200069257829003601f168201915b50505050508152602001600482015481526020016005820154815250508152602001906001019062000501565b50505050905090565b611eaa8062000fab83390190565b828054620007029062000e86565b90600052602060002090601f01602090048101928262000726576000855562000772565b82601f106200074157805160ff191683800117855562000772565b8280016001018555821562000772579182015b828111156200077157825182559160200191906001019062000754565b5b50905062000781919062000785565b5090565b5b80821115620007a057600081600090555060010162000786565b5090565b6000620007bb620007b58462000ca9565b62000c80565b905082815260208101848484011115620007d457600080fd5b620007e184828562000e41565b509392505050565b600082601f830112620007fb57600080fd5b81356200080d848260208601620007a4565b91505092915050565b600081359050620008278162000f90565b92915050565b6000815190506200083e8162000f90565b92915050565b6000602082840312156200085757600080fd5b6000620008678482850162000816565b91505092915050565b6000602082840312156200088357600080fd5b600062000893848285016200082d565b91505092915050565b600080600080600060a08688031215620008b557600080fd5b6000620008c58882890162000816565b9550506020620008d88882890162000816565b945050604086013567ffffffffffffffff811115620008f657600080fd5b6200090488828901620007e9565b935050606086013567ffffffffffffffff8111156200092257600080fd5b6200093088828901620007e9565b9250506080620009438882890162000816565b9150509295509295909350565b60006200095e838362000a8b565b905092915050565b620009718162000e03565b82525050565b620009828162000e03565b82525050565b6000620009958262000cef565b620009a1818562000d12565b935083602082028501620009b58562000cdf565b8060005b85811015620009f75784840389528151620009d5858262000950565b9450620009e28362000d05565b925060208a01995050600181019050620009b9565b50829750879550505050505092915050565b600062000a168262000cfa565b62000a22818562000d23565b935062000a3481856020860162000e50565b62000a3f8162000f7f565b840191505092915050565b600062000a578262000cfa565b62000a63818562000d34565b935062000a7581856020860162000e50565b62000a808162000f7f565b840191505092915050565b600060c08301600083015162000aa5600086018262000966565b506020830151848203602086015262000abf828262000a09565b915050604083015162000ad6604086018262000b27565b506060830151848203606086015262000af0828262000a09565b915050608083015162000b07608086018262000b27565b5060a083015162000b1c60a086018262000b27565b508091505092915050565b62000b328162000e37565b82525050565b62000b438162000e37565b82525050565b600060208201905062000b60600083018462000977565b92915050565b600060c08201905062000b7d600083018962000977565b818103602083015262000b91818862000a4a565b905062000ba2604083018762000b38565b818103606083015262000bb6818662000a4a565b905062000bc7608083018562000b38565b62000bd660a083018462000b38565b979650505050505050565b6000602082019050818103600083015262000bfd818462000988565b905092915050565b600060c08201905062000c1c600083018962000b38565b62000c2b602083018862000977565b818103604083015262000c3f818762000a4a565b905062000c50606083018662000b38565b818103608083015262000c64818562000a4a565b905062000c7560a083018462000b38565b979650505050505050565b600062000c8c62000c9f565b905062000c9a828262000ebc565b919050565b6000604051905090565b600067ffffffffffffffff82111562000cc75762000cc662000f50565b5b62000cd28262000f7f565b9050602081019050919050565b6000819050602082019050919050565b600081519050919050565b600081519050919050565b6000602082019050919050565b600082825260208201905092915050565b600082825260208201905092915050565b600082825260208201905092915050565b600062000d528262000e37565b915062000d5f8362000e37565b9250827fffffffffffffffffffffffffffffffffffffffffffffffffffffffffffffffff0382111562000d975762000d9662000ef2565b5b828201905092915050565b600062000daf8262000e37565b915062000dbc8362000e37565b9250817fffffffffffffffffffffffffffffffffffffffffffffffffffffffffffffffff048311821515161562000df85762000df762000ef2565b5b828202905092915050565b600062000e108262000e17565b9050919050565b600073ffffffffffffffffffffffffffffffffffffffff82169050919050565b6000819050919050565b82818337600083830152505050565b60005b8381101562000e7057808201518184015260208101905062000e53565b8381111562000e80576000848401525b50505050565b6000600282049050600182168062000e9f57607f821691505b6020821081141562000eb65762000eb562000f21565b5b50919050565b62000ec78262000f7f565b810181811067ffffffffffffffff8211171562000ee95762000ee862000f50565b5b80604052505050565b7f4e487b7100000000000000000000000000000000000000000000000000000000600052601160045260246000fd5b7f4e487b7100000000000000000000000000000000000000000000000000000000600052602260045260246000fd5b7f4e487b7100000000000000000000000000000000000000000000000000000000600052604160045260246000fd5b6000601f19601f8301169050919050565b62000f9b8162000e37565b811462000fa757600080fd5b5056fe60806040526000600660006101000a81548160ff0219169083600181111562000051577f4e487b7100000000000000000000000000000000000000000000000000000000600052602160045260246000fd5b02179055503480156200006357600080fd5b5060405162001eaa38038062001eaa83398181016040528101906200008991906200027c565b846000806101000a81548173ffffffffffffffffffffffffffffffffffffffff021916908373ffffffffffffffffffffffffffffffffffffffff160217905550856009819055508360019080519060200190620000e89291906200012c565b50826002819055508160039080519060200190620001089291906200012c565b50600060048190555080600781905550600060088190555050505050505062000526565b8280546200013a9062000417565b90600052602060002090601f0160209004810192826200015e5760008555620001aa565b82601f106200017957805160ff1916838001178555620001aa565b82800160010185558215620001aa579182015b82811115620001a95782518255916020019190600101906200018c565b5b509050620001b99190620001bd565b5090565b5b80821115620001d8576000816000905550600101620001be565b5090565b6000620001f3620001ed846200036d565b62000344565b9050828152602081018484840111156200020c57600080fd5b62000219848285620003e1565b509392505050565b6000815190506200023281620004f2565b92915050565b600082601f8301126200024a57600080fd5b81516200025c848260208601620001dc565b91505092915050565b60008151905062000276816200050c565b92915050565b60008060008060008060c087890312156200029657600080fd5b6000620002a689828a0162000265565b9650506020620002b989828a0162000221565b955050604087015167ffffffffffffffff811115620002d757600080fd5b620002e589828a0162000238565b9450506060620002f889828a0162000265565b935050608087015167ffffffffffffffff8111156200031657600080fd5b6200032489828a0162000238565b92505060a06200033789828a0162000265565b9150509295509295509295565b60006200035062000363565b90506200035e82826200044d565b919050565b6000604051905090565b600067ffffffffffffffff8211156200038b576200038a620004b2565b5b6200039682620004e1565b9050602081019050919050565b6000620003b082620003b7565b9050919050565b600073ffffffffffffffffffffffffffffffffffffffff82169050919050565b6000819050919050565b60005b8381101562000401578082015181840152602081019050620003e4565b8381111562000411576000848401525b50505050565b600060028204905060018216806200043057607f821691505b6020821081141562000447576200044662000483565b5b50919050565b6200045882620004e1565b810181811067ffffffffffffffff821117156200047a5762000479620004b2565b5b80604052505050565b7f4e487b7100000000000000000000000000000000000000000000000000000000600052602260045260246000fd5b7f4e487b7100000000000000000000000000000000000000000000000000000000600052604160045260246000fd5b6000601f19601f8301169050919050565b620004fd81620003a3565b81146200050957600080fd5b50565b6200051781620003d7565b81146200052357600080fd5b50565b61197480620005366000396000f3fe6080604052600436106101355760003560e01c80635badbe4c116100ab57806397654a8c1161006f57806397654a8c14610415578063b2d5ae4414610440578063c19d93fb1461046b578063ce845d1d14610496578063d7bb99ba146104c1578063d7d1bbdb146104cb57610135565b80635badbe4c1461032a57806381d12c581461035557806382fde093146103965780638a9cfd55146103c1578063937e09b1146103ea57610135565b806315879c29116100fd57806315879c291461022157806332461bd81461023857806337f944cc146102635780634051ddac1461028e57806342e94c90146102c2578063481c6a75146102ff57610135565b8063034410061461013a5780630785001c1461016357806308caa9101461018e5780630a144391146101b95780630dcf4b8f146101f6575b600080fd5b34801561014657600080fd5b50610161600480360381019061015c919061131e565b6104f4565b005b34801561016f57600080fd5b5061017861062d565b6040516101859190611489565b60405180910390f35b34801561019a57600080fd5b506101a3610633565b6040516101b09190611489565b60405180910390f35b3480156101c557600080fd5b506101e060048036038101906101db919061128e565b61063d565b6040516101ed91906113d7565b60405180910390f35b34801561020257600080fd5b5061020b61065d565b6040516102189190611489565b60405180910390f35b34801561022d57600080fd5b50610236610663565b005b34801561024457600080fd5b5061024d6106c1565b60405161025a919061140d565b60405180910390f35b34801561026f57600080fd5b5061027861074f565b6040516102859190611489565b60405180910390f35b34801561029a57600080fd5b506102a3610755565b6040516102b99a999897969594939291906114a4565b60405180910390f35b3480156102ce57600080fd5b506102e960048036038101906102e4919061128e565b6108d6565b6040516102f69190611489565b60405180910390f35b34801561030b57600080fd5b506103146108ee565b60405161032191906113bc565b60405180910390f35b34801561033657600080fd5b5061033f610912565b60405161034c9190611489565b60405180910390f35b34801561036157600080fd5b5061037c6004803603810190610377919061131e565b610918565b60405161038d95949392919061142f565b60405180910390f35b3480156103a257600080fd5b506103ab610a03565b6040516103b89190611489565b60405180910390f35b3480156103cd57600080fd5b506103e860048036038101906103e391906112b7565b610a09565b005b3480156103f657600080fd5b506103ff610b27565b60405161040c9190611489565b60405180910390f35b34801561042157600080fd5b5061042a610b2d565b604051610437919061140d565b60405180910390f35b34801561044c57600080fd5b50610455610bbb565b60405161046291906113d7565b60405180910390f35b34801561047757600080fd5b50610480610ddc565b60405161048d91906113f2565b60405180910390f35b3480156104a257600080fd5b506104ab610def565b6040516104b89190611489565b60405180910390f35b6104c9610df5565b005b3480156104d757600080fd5b506104f260048036038101906104ed919061131e565b61101b565b005b60008054906101000a900473ffffffffffffffffffffffffffffffffffffffff1673ffffffffffffffffffffffffffffffffffffffff163373ffffffffffffffffffffffffffffffffffffffff161461054c57600080fd5b6000600b600083815260200190815260200160002090508060020160149054906101000a900460ff161561057f57600080fd5b6002600d5461058e9190611616565b81600301541161059d57600080fd5b8060020160009054906101000a900473ffffffffffffffffffffffffffffffffffffffff1673ffffffffffffffffffffffffffffffffffffffff166108fc82600101549081150290604051600060405180830381858888f1935050505015801561060b573d6000803e3d6000fd5b5060018160020160146101000a81548160ff0219169083151502179055505050565b60025481565b6000600454905090565b600a6020528060005260406000206000915054906101000a900460ff1681565b60045481565b6007544211156106bf576001600660006101000a81548160ff021916908360018111156106b9577f4e487b7100000000000000000000000000000000000000000000000000000000600052602160045260246000fd5b02179055505b565b600180546106ce90611754565b80601f01602080910402602001604051908101604052809291908181526020018280546106fa90611754565b80156107475780601f1061071c57610100808354040283529160200191610747565b820191906000526020600020905b81548152906001019060200180831161072a57829003601f168201915b505050505081565b60075481565b600080600080600060606000606060008060095447600c54600d5460008054906101000a900473ffffffffffffffffffffffffffffffffffffffff16600160025460036004546007548480546107aa90611754565b80601f01602080910402602001604051908101604052809291908181526020018280546107d690611754565b80156108235780601f106107f857610100808354040283529160200191610823565b820191906000526020600020905b81548152906001019060200180831161080657829003601f168201915b5050505050945082805461083690611754565b80601f016020809104026020016040519081016040528092919081815260200182805461086290611754565b80156108af5780601f10610884576101008083540402835291602001916108af565b820191906000526020600020905b81548152906001019060200180831161089257829003601f168201915b50505050509250995099509950995099509950995099509950995090919293949596979899565b60056020528060005260406000206000915090505481565b60008054906101000a900473ffffffffffffffffffffffffffffffffffffffff1681565b600c5481565b600b60205280600052604060002060009150905080600001805461093b90611754565b80601f016020809104026020016040519081016040528092919081815260200182805461096790611754565b80156109b45780601f10610989576101008083540402835291602001916109b4565b820191906000526020600020905b81548152906001019060200180831161099757829003601f168201915b5050505050908060010154908060020160009054906101000a900473ffffffffffffffffffffffffffffffffffffffff16908060020160149054906101000a900460ff16908060030154905085565b600d5481565b60008054906101000a900473ffffffffffffffffffffffffffffffffffffffff1673ffffffffffffffffffffffffffffffffffffffff163373ffffffffffffffffffffffffffffffffffffffff1614610a6157600080fd5b81471015610a6e57600080fd5b6000600b6000600c548152602001908152602001600020905083816000019080519060200190610a9f929190611159565b50828160010181905550818160020160006101000a81548173ffffffffffffffffffffffffffffffffffffffff021916908373ffffffffffffffffffffffffffffffffffffffff16021790555060008160020160146101000a81548160ff021916908315150217905550600c6000815480929190610b1c906117b7565b919050555050505050565b60095481565b60038054610b3a90611754565b80601f0160208091040260200160405190810160405280929190818152602001828054610b6690611754565b8015610bb35780601f10610b8857610100808354040283529160200191610bb3565b820191906000526020600020905b815481529060010190602001808311610b9657829003601f168201915b505050505081565b60006001806001811115610bf8577f4e487b7100000000000000000000000000000000000000000000000000000000600052602160045260246000fd5b600660009054906101000a900460ff166001811115610c40577f4e487b7100000000000000000000000000000000000000000000000000000000600052602160045260246000fd5b14610c4a57600080fd5b6000600560003373ffffffffffffffffffffffffffffffffffffffff1673ffffffffffffffffffffffffffffffffffffffff1681526020019081526020016000205411610c9657600080fd5b6000600560003373ffffffffffffffffffffffffffffffffffffffff1673ffffffffffffffffffffffffffffffffffffffff1681526020019081526020016000205490506000600560003373ffffffffffffffffffffffffffffffffffffffff1673ffffffffffffffffffffffffffffffffffffffff168152602001908152602001600020819055503373ffffffffffffffffffffffffffffffffffffffff166108fc829081150290604051600060405180830381858888f19350505050610da65780600560003373ffffffffffffffffffffffffffffffffffffffff1673ffffffffffffffffffffffffffffffffffffffff168152602001908152602001600020819055506000925050610dd8565b80600454610db49190611647565b600481905550600d6000815480929190610dcd9061172a565b919050555060019250505b5090565b600660009054906101000a900460ff1681565b60085481565b6000806001811115610e30577f4e487b7100000000000000000000000000000000000000000000000000000000600052602160045260246000fd5b600660009054906101000a900460ff166001811115610e78577f4e487b7100000000000000000000000000000000000000000000000000000000600052602160045260246000fd5b14610e8257600080fd5b60008054906101000a900473ffffffffffffffffffffffffffffffffffffffff1673ffffffffffffffffffffffffffffffffffffffff163373ffffffffffffffffffffffffffffffffffffffff161415610edb57600080fd5b600954341015610eea57600080fd5b34600560003373ffffffffffffffffffffffffffffffffffffffff1673ffffffffffffffffffffffffffffffffffffffff16815260200190815260200160002054610f3591906115c0565b600560003373ffffffffffffffffffffffffffffffffffffffff1673ffffffffffffffffffffffffffffffffffffffff168152602001908152602001600020819055506001600a60003373ffffffffffffffffffffffffffffffffffffffff1673ffffffffffffffffffffffffffffffffffffffff16815260200190815260200160002060006101000a81548160ff021916908315150217905550600d6000815480929190610fe3906117b7565b919050555034600454610ff691906115c0565b6004819055503460085461100a91906115c0565b600881905550611018610663565b50565b6000600b60008381526020019081526020016000209050600a60003373ffffffffffffffffffffffffffffffffffffffff1673ffffffffffffffffffffffffffffffffffffffff16815260200190815260200160002060009054906101000a900460ff1661108857600080fd5b8060040160003373ffffffffffffffffffffffffffffffffffffffff1673ffffffffffffffffffffffffffffffffffffffff16815260200190815260200160002060009054906101000a900460ff16156110e157600080fd5b60018160040160003373ffffffffffffffffffffffffffffffffffffffff1673ffffffffffffffffffffffffffffffffffffffff16815260200190815260200160002060006101000a81548160ff021916908315150217905550806003016000815480929190611150906117b7565b91905055505050565b82805461116590611754565b90600052602060002090601f01602090048101928261118757600085556111ce565b82601f106111a057805160ff19168380011785556111ce565b828001600101855582156111ce579182015b828111156111cd5782518255916020019190600101906111b2565b5b5090506111db91906111df565b5090565b5b808211156111f85760008160009055506001016111e0565b5090565b600061120f61120a84611573565b61154e565b90508281526020810184848401111561122757600080fd5b6112328482856116e8565b509392505050565b60008135905061124981611910565b92915050565b600082601f83011261126057600080fd5b81356112708482602086016111fc565b91505092915050565b60008135905061128881611927565b92915050565b6000602082840312156112a057600080fd5b60006112ae8482850161123a565b91505092915050565b6000806000606084860312156112cc57600080fd5b600084013567ffffffffffffffff8111156112e657600080fd5b6112f28682870161124f565b935050602061130386828701611279565b92505060406113148682870161123a565b9150509250925092565b60006020828403121561133057600080fd5b600061133e84828501611279565b91505092915050565b6113508161167b565b82525050565b61135f8161168d565b82525050565b61136e816116d6565b82525050565b600061137f826115a4565b61138981856115af565b93506113998185602086016116f7565b6113a2816118eb565b840191505092915050565b6113b6816116cc565b82525050565b60006020820190506113d16000830184611347565b92915050565b60006020820190506113ec6000830184611356565b92915050565b60006020820190506114076000830184611365565b92915050565b600060208201905081810360008301526114278184611374565b905092915050565b600060a08201905081810360008301526114498188611374565b905061145860208301876113ad565b6114656040830186611347565b6114726060830185611356565b61147f60808301846113ad565b9695505050505050565b600060208201905061149e60008301846113ad565b92915050565b6000610140820190506114ba600083018d6113ad565b6114c7602083018c6113ad565b6114d4604083018b6113ad565b6114e1606083018a6113ad565b6114ee6080830189611347565b81810360a08301526115008188611374565b905061150f60c08301876113ad565b81810360e08301526115218186611374565b90506115316101008301856113ad565b61153f6101208301846113ad565b9b9a5050505050505050505050565b6000611558611569565b90506115648282611786565b919050565b6000604051905090565b600067ffffffffffffffff82111561158e5761158d6118bc565b5b611597826118eb565b9050602081019050919050565b600081519050919050565b600082825260208201905092915050565b60006115cb826116cc565b91506115d6836116cc565b9250827fffffffffffffffffffffffffffffffffffffffffffffffffffffffffffffffff0382111561160b5761160a611800565b5b828201905092915050565b6000611621826116cc565b915061162c836116cc565b92508261163c5761163b61182f565b5b828204905092915050565b6000611652826116cc565b915061165d836116cc565b9250828210156116705761166f611800565b5b828203905092915050565b6000611686826116ac565b9050919050565b60008115159050919050565b60008190506116a7826118fc565b919050565b600073ffffffffffffffffffffffffffffffffffffffff82169050919050565b6000819050919050565b60006116e182611699565b9050919050565b82818337600083830152505050565b60005b838110156117155780820151818401526020810190506116fa565b83811115611724576000848401525b50505050565b6000611735826116cc565b9150600082141561174957611748611800565b5b600182039050919050565b6000600282049050600182168061176c57607f821691505b602082108114156117805761177f61188d565b5b50919050565b61178f826118eb565b810181811067ffffffffffffffff821117156117ae576117ad6118bc565b5b80604052505050565b60006117c2826116cc565b91507fffffffffffffffffffffffffffffffffffffffffffffffffffffffffffffffff8214156117f5576117f4611800565b5b600182019050919050565b7f4e487b7100000000000000000000000000000000000000000000000000000000600052601160045260246000fd5b7f4e487b7100000000000000000000000000000000000000000000000000000000600052601260045260246000fd5b7f4e487b7100000000000000000000000000000000000000000000000000000000600052602160045260246000fd5b7f4e487b7100000000000000000000000000000000000000000000000000000000600052602260045260246000fd5b7f4e487b7100000000000000000000000000000000000000000000000000000000600052604160045260246000fd5b6000601f19601f8301169050919050565b6002811061190d5761190c61185e565b5b50565b6119198161167b565b811461192457600080fd5b50565b611930816116cc565b811461193b57600080fd5b5056fea264697066735822122084e756742f7c78ac969e80a96f7f37e93048b6d942026d96cd47706e5dfdfd1f64736f6c63430008040033a2646970667358221220185502edb3cc8af4d491be37f32fc6d172d1b2f54c6a28c339bc0e96e6eec36f64736f6c63430008040033","opcodes":"PUSH1 0x80 PUSH1 0x40 MSTORE CALLVALUE DUP1 ISZERO PUSH2 0x10 JUMPI PUSH1 0x0 DUP1 REVERT JUMPDEST POP PUSH2 0x2E8A DUP1 PUSH2 0x20 PUSH1 0x0 CODECOPY PUSH1 0x0 RETURN INVALID PUSH1 0x80 PUSH1 0x40 MSTORE CALLVALUE DUP1 ISZERO PUSH3 0x11 JUMPI PUSH1 0x0 DUP1 REVERT JUMPDEST POP PUSH1 0x4 CALLDATASIZE LT PUSH3 0x52 JUMPI PUSH1 0x0 CALLDATALOAD PUSH1 0xE0 SHR DUP1 PUSH4 0x141961BC EQ PUSH3 0x57 JUMPI DUP1 PUSH4 0x28C3CE5B EQ PUSH3 0x92 JUMPI DUP1 PUSH4 0x339D50A5 EQ PUSH3 0xB2 JUMPI DUP1 PUSH4 0xAA9A068F EQ PUSH3 0xE8 JUMPI JUMPDEST PUSH1 0x0 DUP1 REVERT JUMPDEST PUSH3 0x75 PUSH1 0x4 DUP1 CALLDATASIZE SUB DUP2 ADD SWAP1 PUSH3 0x6F SWAP2 SWAP1 PUSH3 0x844 JUMP JUMPDEST PUSH3 0x10A JUMP JUMPDEST PUSH1 0x40 MLOAD PUSH3 0x89 SWAP7 SWAP6 SWAP5 SWAP4 SWAP3 SWAP2 SWAP1 PUSH3 0xB66 JUMP JUMPDEST PUSH1 0x40 MLOAD DUP1 SWAP2 SUB SWAP1 RETURN JUMPDEST PUSH3 0xB0 PUSH1 0x4 DUP1 CALLDATASIZE SUB DUP2 ADD SWAP1 PUSH3 0xAA SWAP2 SWAP1 PUSH3 0x89C JUMP JUMPDEST PUSH3 0x297 JUMP JUMPDEST STOP JUMPDEST PUSH3 0xD0 PUSH1 0x4 DUP1 CALLDATASIZE SUB DUP2 ADD SWAP1 PUSH3 0xCA SWAP2 SWAP1 PUSH3 0x844 JUMP JUMPDEST PUSH3 0x49D JUMP JUMPDEST PUSH1 0x40 MLOAD PUSH3 0xDF SWAP2 SWAP1 PUSH3 0xB49 JUMP JUMPDEST PUSH1 0x40 MLOAD DUP1 SWAP2 SUB SWAP1 RETURN JUMPDEST PUSH3 0xF2 PUSH3 0x4DD JUMP JUMPDEST PUSH1 0x40 MLOAD PUSH3 0x101 SWAP2 SWAP1 PUSH3 0xBE1 JUMP JUMPDEST PUSH1 0x40 MLOAD DUP1 SWAP2 SUB SWAP1 RETURN JUMPDEST PUSH1 0x1 DUP2 DUP2 SLOAD DUP2 LT PUSH3 0x11B JUMPI PUSH1 0x0 DUP1 REVERT JUMPDEST SWAP1 PUSH1 0x0 MSTORE PUSH1 0x20 PUSH1 0x0 KECCAK256 SWAP1 PUSH1 0x6 MUL ADD PUSH1 0x0 SWAP2 POP SWAP1 POP DUP1 PUSH1 0x0 ADD PUSH1 0x0 SWAP1 SLOAD SWAP1 PUSH2 0x100 EXP SWAP1 DIV PUSH20 0xFFFFFFFFFFFFFFFFFFFFFFFFFFFFFFFFFFFFFFFF AND SWAP1 DUP1 PUSH1 0x1 ADD DUP1 SLOAD PUSH3 0x166 SWAP1 PUSH3 0xE86 JUMP JUMPDEST DUP1 PUSH1 0x1F ADD PUSH1 0x20 DUP1 SWAP2 DIV MUL PUSH1 0x20 ADD PUSH1 0x40 MLOAD SWAP1 DUP2 ADD PUSH1 0x40 MSTORE DUP1 SWAP3 SWAP2 SWAP1 DUP2 DUP2 MSTORE PUSH1 0x20 ADD DUP3 DUP1 SLOAD PUSH3 0x194 SWAP1 PUSH3 0xE86 JUMP JUMPDEST DUP1 ISZERO PUSH3 0x1E5 JUMPI DUP1 PUSH1 0x1F LT PUSH3 0x1B9 JUMPI PUSH2 0x100 DUP1 DUP4 SLOAD DIV MUL DUP4 MSTORE SWAP2 PUSH1 0x20 ADD SWAP2 PUSH3 0x1E5 JUMP JUMPDEST DUP3 ADD SWAP2 SWAP1 PUSH1 0x0 MSTORE PUSH1 0x20 PUSH1 0x0 KECCAK256 SWAP1 JUMPDEST DUP2 SLOAD DUP2 MSTORE SWAP1 PUSH1 0x1 ADD SWAP1 PUSH1 0x20 ADD DUP1 DUP4 GT PUSH3 0x1C7 JUMPI DUP3 SWAP1 SUB PUSH1 0x1F AND DUP3 ADD SWAP2 JUMPDEST POP POP POP POP POP SWAP1 DUP1 PUSH1 0x2 ADD SLOAD SWAP1 DUP1 PUSH1 0x3 ADD DUP1 SLOAD PUSH3 0x202 SWAP1 PUSH3 0xE86 JUMP JUMPDEST DUP1 PUSH1 0x1F ADD PUSH1 0x20 DUP1 SWAP2 DIV MUL PUSH1 0x20 ADD PUSH1 0x40 MLOAD SWAP1 DUP2 ADD PUSH1 0x40 MSTORE DUP1 SWAP3 SWAP2 SWAP1 DUP2 DUP2 MSTORE PUSH1 0x20 ADD DUP3 DUP1 SLOAD PUSH3 0x230 SWAP1 PUSH3 0xE86 JUMP JUMPDEST DUP1 ISZERO PUSH3 0x281 JUMPI DUP1 PUSH1 0x1F LT PUSH3 0x255 JUMPI PUSH2 0x100 DUP1 DUP4 SLOAD DIV MUL DUP4 MSTORE SWAP2 PUSH1 0x20 ADD SWAP2 PUSH3 0x281 JUMP JUMPDEST DUP3 ADD SWAP2 SWAP1 PUSH1 0x0 MSTORE PUSH1 0x20 PUSH1 0x0 KECCAK256 SWAP1 JUMPDEST DUP2 SLOAD DUP2 MSTORE SWAP1 PUSH1 0x1 ADD SWAP1 PUSH1 0x20 ADD DUP1 DUP4 GT PUSH3 0x263 JUMPI DUP3 SWAP1 SUB PUSH1 0x1F AND DUP3 ADD SWAP2 JUMPDEST POP POP POP POP POP SWAP1 DUP1 PUSH1 0x4 ADD SLOAD SWAP1 DUP1 PUSH1 0x5 ADD SLOAD SWAP1 POP DUP7 JUMP JUMPDEST PUSH1 0x0 PUSH3 0x15180 DUP3 PUSH3 0x2AA SWAP2 SWAP1 PUSH3 0xDA2 JUMP JUMPDEST TIMESTAMP PUSH3 0x2B7 SWAP2 SWAP1 PUSH3 0xD45 JUMP JUMPDEST SWAP1 POP PUSH1 0x0 DUP7 CALLER DUP7 DUP9 DUP8 DUP7 PUSH1 0x40 MLOAD PUSH3 0x2CF SWAP1 PUSH3 0x6E6 JUMP JUMPDEST PUSH3 0x2E0 SWAP7 SWAP6 SWAP5 SWAP4 SWAP3 SWAP2 SWAP1 PUSH3 0xC05 JUMP JUMPDEST PUSH1 0x40 MLOAD DUP1 SWAP2 SUB SWAP1 PUSH1 0x0 CREATE DUP1 ISZERO DUP1 ISZERO PUSH3 0x2FD JUMPI RETURNDATASIZE PUSH1 0x0 DUP1 RETURNDATACOPY RETURNDATASIZE PUSH1 0x0 REVERT JUMPDEST POP SWAP1 POP PUSH1 0x1 PUSH1 0x40 MLOAD DUP1 PUSH1 0xC0 ADD PUSH1 0x40 MSTORE DUP1 DUP4 PUSH20 0xFFFFFFFFFFFFFFFFFFFFFFFFFFFFFFFFFFFFFFFF AND DUP2 MSTORE PUSH1 0x20 ADD DUP8 DUP2 MSTORE PUSH1 0x20 ADD DUP9 DUP2 MSTORE PUSH1 0x20 ADD DUP7 DUP2 MSTORE PUSH1 0x20 ADD DUP5 DUP2 MSTORE PUSH1 0x20 ADD DUP4 PUSH20 0xFFFFFFFFFFFFFFFFFFFFFFFFFFFFFFFFFFFFFFFF AND PUSH4 0x8CAA910 PUSH1 0x40 MLOAD DUP2 PUSH4 0xFFFFFFFF AND PUSH1 0xE0 SHL DUP2 MSTORE PUSH1 0x4 ADD PUSH1 0x20 PUSH1 0x40 MLOAD DUP1 DUP4 SUB DUP2 DUP7 DUP1 EXTCODESIZE ISZERO DUP1 ISZERO PUSH3 0x388 JUMPI PUSH1 0x0 DUP1 REVERT JUMPDEST POP GAS STATICCALL ISZERO DUP1 ISZERO PUSH3 0x39D JUMPI RETURNDATASIZE PUSH1 0x0 DUP1 RETURNDATACOPY RETURNDATASIZE PUSH1 0x0 REVERT JUMPDEST POP POP POP POP PUSH1 0x40 MLOAD RETURNDATASIZE PUSH1 0x1F NOT PUSH1 0x1F DUP3 ADD AND DUP3 ADD DUP1 PUSH1 0x40 MSTORE POP DUP2 ADD SWAP1 PUSH3 0x3C3 SWAP2 SWAP1 PUSH3 0x870 JUMP JUMPDEST DUP2 MSTORE POP SWAP1 DUP1 PUSH1 0x1 DUP2 SLOAD ADD DUP1 DUP3 SSTORE DUP1 SWAP2 POP POP PUSH1 0x1 SWAP1 SUB SWAP1 PUSH1 0x0 MSTORE PUSH1 0x20 PUSH1 0x0 KECCAK256 SWAP1 PUSH1 0x6 MUL ADD PUSH1 0x0 SWAP1 SWAP2 SWAP1 SWAP2 SWAP1 SWAP2 POP PUSH1 0x0 DUP3 ADD MLOAD DUP2 PUSH1 0x0 ADD PUSH1 0x0 PUSH2 0x100 EXP DUP2 SLOAD DUP2 PUSH20 0xFFFFFFFFFFFFFFFFFFFFFFFFFFFFFFFFFFFFFFFF MUL NOT AND SWAP1 DUP4 PUSH20 0xFFFFFFFFFFFFFFFFFFFFFFFFFFFFFFFFFFFFFFFF AND MUL OR SWAP1 SSTORE POP PUSH1 0x20 DUP3 ADD MLOAD DUP2 PUSH1 0x1 ADD SWAP1 DUP1 MLOAD SWAP1 PUSH1 0x20 ADD SWAP1 PUSH3 0x454 SWAP3 SWAP2 SWAP1 PUSH3 0x6F4 JUMP JUMPDEST POP PUSH1 0x40 DUP3 ADD MLOAD DUP2 PUSH1 0x2 ADD SSTORE PUSH1 0x60 DUP3 ADD MLOAD DUP2 PUSH1 0x3 ADD SWAP1 DUP1 MLOAD SWAP1 PUSH1 0x20 ADD SWAP1 PUSH3 0x47D SWAP3 SWAP2 SWAP1 PUSH3 0x6F4 JUMP JUMPDEST POP PUSH1 0x80 DUP3 ADD MLOAD DUP2 PUSH1 0x4 ADD SSTORE PUSH1 0xA0 DUP3 ADD MLOAD DUP2 PUSH1 0x5 ADD SSTORE POP POP POP POP POP POP POP POP POP JUMP JUMPDEST PUSH1 0x0 DUP2 DUP2 SLOAD DUP2 LT PUSH3 0x4AE JUMPI PUSH1 0x0 DUP1 REVERT JUMPDEST SWAP1 PUSH1 0x0 MSTORE PUSH1 0x20 PUSH1 0x0 KECCAK256 ADD PUSH1 0x0 SWAP2 POP SLOAD SWAP1 PUSH2 0x100 EXP SWAP1 DIV PUSH20 0xFFFFFFFFFFFFFFFFFFFFFFFFFFFFFFFFFFFFFFFF AND DUP2 JUMP JUMPDEST PUSH1 0x60 PUSH1 0x1 DUP1 SLOAD DUP1 PUSH1 0x20 MUL PUSH1 0x20 ADD PUSH1 0x40 MLOAD SWAP1 DUP2 ADD PUSH1 0x40 MSTORE DUP1 SWAP3 SWAP2 SWAP1 DUP2 DUP2 MSTORE PUSH1 0x20 ADD PUSH1 0x0 SWAP1 JUMPDEST DUP3 DUP3 LT ISZERO PUSH3 0x6DD JUMPI DUP4 DUP3 SWAP1 PUSH1 0x0 MSTORE PUSH1 0x20 PUSH1 0x0 KECCAK256 SWAP1 PUSH1 0x6 MUL ADD PUSH1 0x40 MLOAD DUP1 PUSH1 0xC0 ADD PUSH1 0x40 MSTORE SWAP1 DUP2 PUSH1 0x0 DUP3 ADD PUSH1 0x0 SWAP1 SLOAD SWAP1 PUSH2 0x100 EXP SWAP1 DIV PUSH20 0xFFFFFFFFFFFFFFFFFFFFFFFFFFFFFFFFFFFFFFFF AND PUSH20 0xFFFFFFFFFFFFFFFFFFFFFFFFFFFFFFFFFFFFFFFF AND PUSH20 0xFFFFFFFFFFFFFFFFFFFFFFFFFFFFFFFFFFFFFFFF AND DUP2 MSTORE PUSH1 0x20 ADD PUSH1 0x1 DUP3 ADD DUP1 SLOAD PUSH3 0x58D SWAP1 PUSH3 0xE86 JUMP JUMPDEST DUP1 PUSH1 0x1F ADD PUSH1 0x20 DUP1 SWAP2 DIV MUL PUSH1 0x20 ADD PUSH1 0x40 MLOAD SWAP1 DUP2 ADD PUSH1 0x40 MSTORE DUP1 SWAP3 SWAP2 SWAP1 DUP2 DUP2 MSTORE PUSH1 0x20 ADD DUP3 DUP1 SLOAD PUSH3 0x5BB SWAP1 PUSH3 0xE86 JUMP JUMPDEST DUP1 ISZERO PUSH3 0x60C JUMPI DUP1 PUSH1 0x1F LT PUSH3 0x5E0 JUMPI PUSH2 0x100 DUP1 DUP4 SLOAD DIV MUL DUP4 MSTORE SWAP2 PUSH1 0x20 ADD SWAP2 PUSH3 0x60C JUMP JUMPDEST DUP3 ADD SWAP2 SWAP1 PUSH1 0x0 MSTORE PUSH1 0x20 PUSH1 0x0 KECCAK256 SWAP1 JUMPDEST DUP2 SLOAD DUP2 MSTORE SWAP1 PUSH1 0x1 ADD SWAP1 PUSH1 0x20 ADD DUP1 DUP4 GT PUSH3 0x5EE JUMPI DUP3 SWAP1 SUB PUSH1 0x1F AND DUP3 ADD SWAP2 JUMPDEST POP POP POP POP POP DUP2 MSTORE PUSH1 0x20 ADD PUSH1 0x2 DUP3 ADD SLOAD DUP2 MSTORE PUSH1 0x20 ADD PUSH1 0x3 DUP3 ADD DUP1 SLOAD PUSH3 0x631 SWAP1 PUSH3 0xE86 JUMP JUMPDEST DUP1 PUSH1 0x1F ADD PUSH1 0x20 DUP1 SWAP2 DIV MUL PUSH1 0x20 ADD PUSH1 0x40 MLOAD SWAP1 DUP2 ADD PUSH1 0x40 MSTORE DUP1 SWAP3 SWAP2 SWAP1 DUP2 DUP2 MSTORE PUSH1 0x20 ADD DUP3 DUP1 SLOAD PUSH3 0x65F SWAP1 PUSH3 0xE86 JUMP JUMPDEST DUP1 ISZERO PUSH3 0x6B0 JUMPI DUP1 PUSH1 0x1F LT PUSH3 0x684 JUMPI PUSH2 0x100 DUP1 DUP4 SLOAD DIV MUL DUP4 MSTORE SWAP2 PUSH1 0x20 ADD SWAP2 PUSH3 0x6B0 JUMP JUMPDEST DUP3 ADD SWAP2 SWAP1 PUSH1 0x0 MSTORE PUSH1 0x20 PUSH1 0x0 KECCAK256 SWAP1 JUMPDEST DUP2 SLOAD DUP2 MSTORE SWAP1 PUSH1 0x1 ADD SWAP1 PUSH1 0x20 ADD DUP1 DUP4 GT PUSH3 0x692 JUMPI DUP3 SWAP1 SUB PUSH1 0x1F AND DUP3 ADD SWAP2 JUMPDEST POP POP POP POP POP DUP2 MSTORE PUSH1 0x20 ADD PUSH1 0x4 DUP3 ADD SLOAD DUP2 MSTORE PUSH1 0x20 ADD PUSH1 0x5 DUP3 ADD SLOAD DUP2 MSTORE POP POP DUP2 MSTORE PUSH1 0x20 ADD SWAP1 PUSH1 0x1 ADD SWAP1 PUSH3 0x501 JUMP JUMPDEST POP POP POP POP SWAP1 POP SWAP1 JUMP JUMPDEST PUSH2 0x1EAA DUP1 PUSH3 0xFAB DUP4 CODECOPY ADD SWAP1 JUMP JUMPDEST DUP3 DUP1 SLOAD PUSH3 0x702 SWAP1 PUSH3 0xE86 JUMP JUMPDEST SWAP1 PUSH1 0x0 MSTORE PUSH1 0x20 PUSH1 0x0 KECCAK256 SWAP1 PUSH1 0x1F ADD PUSH1 0x20 SWAP1 DIV DUP2 ADD SWAP3 DUP3 PUSH3 0x726 JUMPI PUSH1 0x0 DUP6 SSTORE PUSH3 0x772 JUMP JUMPDEST DUP3 PUSH1 0x1F LT PUSH3 0x741 JUMPI DUP1 MLOAD PUSH1 0xFF NOT AND DUP4 DUP1 ADD OR DUP6 SSTORE PUSH3 0x772 JUMP JUMPDEST DUP3 DUP1 ADD PUSH1 0x1 ADD DUP6 SSTORE DUP3 ISZERO PUSH3 0x772 JUMPI SWAP2 DUP3 ADD JUMPDEST DUP3 DUP2 GT ISZERO PUSH3 0x771 JUMPI DUP3 MLOAD DUP3 SSTORE SWAP2 PUSH1 0x20 ADD SWAP2 SWAP1 PUSH1 0x1 ADD SWAP1 PUSH3 0x754 JUMP JUMPDEST JUMPDEST POP SWAP1 POP PUSH3 0x781 SWAP2 SWAP1 PUSH3 0x785 JUMP JUMPDEST POP SWAP1 JUMP JUMPDEST JUMPDEST DUP1 DUP3 GT ISZERO PUSH3 0x7A0 JUMPI PUSH1 0x0 DUP2 PUSH1 0x0 SWAP1 SSTORE POP PUSH1 0x1 ADD PUSH3 0x786 JUMP JUMPDEST POP SWAP1 JUMP JUMPDEST PUSH1 0x0 PUSH3 0x7BB PUSH3 0x7B5 DUP5 PUSH3 0xCA9 JUMP JUMPDEST PUSH3 0xC80 JUMP JUMPDEST SWAP1 POP DUP3 DUP2 MSTORE PUSH1 0x20 DUP2 ADD DUP5 DUP5 DUP5 ADD GT ISZERO PUSH3 0x7D4 JUMPI PUSH1 0x0 DUP1 REVERT JUMPDEST PUSH3 0x7E1 DUP5 DUP3 DUP6 PUSH3 0xE41 JUMP JUMPDEST POP SWAP4 SWAP3 POP POP POP JUMP JUMPDEST PUSH1 0x0 DUP3 PUSH1 0x1F DUP4 ADD SLT PUSH3 0x7FB JUMPI PUSH1 0x0 DUP1 REVERT JUMPDEST DUP2 CALLDATALOAD PUSH3 0x80D DUP5 DUP3 PUSH1 0x20 DUP7 ADD PUSH3 0x7A4 JUMP JUMPDEST SWAP2 POP POP SWAP3 SWAP2 POP POP JUMP JUMPDEST PUSH1 0x0 DUP2 CALLDATALOAD SWAP1 POP PUSH3 0x827 DUP2 PUSH3 0xF90 JUMP JUMPDEST SWAP3 SWAP2 POP POP JUMP JUMPDEST PUSH1 0x0 DUP2 MLOAD SWAP1 POP PUSH3 0x83E DUP2 PUSH3 0xF90 JUMP JUMPDEST SWAP3 SWAP2 POP POP JUMP JUMPDEST PUSH1 0x0 PUSH1 0x20 DUP3 DUP5 SUB SLT ISZERO PUSH3 0x857 JUMPI PUSH1 0x0 DUP1 REVERT JUMPDEST PUSH1 0x0 PUSH3 0x867 DUP5 DUP3 DUP6 ADD PUSH3 0x816 JUMP JUMPDEST SWAP2 POP POP SWAP3 SWAP2 POP POP JUMP JUMPDEST PUSH1 0x0 PUSH1 0x20 DUP3 DUP5 SUB SLT ISZERO PUSH3 0x883 JUMPI PUSH1 0x0 DUP1 REVERT JUMPDEST PUSH1 0x0 PUSH3 0x893 DUP5 DUP3 DUP6 ADD PUSH3 0x82D JUMP JUMPDEST SWAP2 POP POP SWAP3 SWAP2 POP POP JUMP JUMPDEST PUSH1 0x0 DUP1 PUSH1 0x0 DUP1 PUSH1 0x0 PUSH1 0xA0 DUP7 DUP9 SUB SLT ISZERO PUSH3 0x8B5 JUMPI PUSH1 0x0 DUP1 REVERT JUMPDEST PUSH1 0x0 PUSH3 0x8C5 DUP9 DUP3 DUP10 ADD PUSH3 0x816 JUMP JUMPDEST SWAP6 POP POP PUSH1 0x20 PUSH3 0x8D8 DUP9 DUP3 DUP10 ADD PUSH3 0x816 JUMP JUMPDEST SWAP5 POP POP PUSH1 0x40 DUP7 ADD CALLDATALOAD PUSH8 0xFFFFFFFFFFFFFFFF DUP2 GT ISZERO PUSH3 0x8F6 JUMPI PUSH1 0x0 DUP1 REVERT JUMPDEST PUSH3 0x904 DUP9 DUP3 DUP10 ADD PUSH3 0x7E9 JUMP JUMPDEST SWAP4 POP POP PUSH1 0x60 DUP7 ADD CALLDATALOAD PUSH8 0xFFFFFFFFFFFFFFFF DUP2 GT ISZERO PUSH3 0x922 JUMPI PUSH1 0x0 DUP1 REVERT JUMPDEST PUSH3 0x930 DUP9 DUP3 DUP10 ADD PUSH3 0x7E9 JUMP JUMPDEST SWAP3 POP POP PUSH1 0x80 PUSH3 0x943 DUP9 DUP3 DUP10 ADD PUSH3 0x816 JUMP JUMPDEST SWAP2 POP POP SWAP3 SWAP6 POP SWAP3 SWAP6 SWAP1 SWAP4 POP JUMP JUMPDEST PUSH1 0x0 PUSH3 0x95E DUP4 DUP4 PUSH3 0xA8B JUMP JUMPDEST SWAP1 POP SWAP3 SWAP2 POP POP JUMP JUMPDEST PUSH3 0x971 DUP2 PUSH3 0xE03 JUMP JUMPDEST DUP3 MSTORE POP POP JUMP JUMPDEST PUSH3 0x982 DUP2 PUSH3 0xE03 JUMP JUMPDEST DUP3 MSTORE POP POP JUMP JUMPDEST PUSH1 0x0 PUSH3 0x995 DUP3 PUSH3 0xCEF JUMP JUMPDEST PUSH3 0x9A1 DUP2 DUP6 PUSH3 0xD12 JUMP JUMPDEST SWAP4 POP DUP4 PUSH1 0x20 DUP3 MUL DUP6 ADD PUSH3 0x9B5 DUP6 PUSH3 0xCDF JUMP JUMPDEST DUP1 PUSH1 0x0 JUMPDEST DUP6 DUP2 LT ISZERO PUSH3 0x9F7 JUMPI DUP5 DUP5 SUB DUP10 MSTORE DUP2 MLOAD PUSH3 0x9D5 DUP6 DUP3 PUSH3 0x950 JUMP JUMPDEST SWAP5 POP PUSH3 0x9E2 DUP4 PUSH3 0xD05 JUMP JUMPDEST SWAP3 POP PUSH1 0x20 DUP11 ADD SWAP10 POP POP PUSH1 0x1 DUP2 ADD SWAP1 POP PUSH3 0x9B9 JUMP JUMPDEST POP DUP3 SWAP8 POP DUP8 SWAP6 POP POP POP POP POP POP SWAP3 SWAP2 POP POP JUMP JUMPDEST PUSH1 0x0 PUSH3 0xA16 DUP3 PUSH3 0xCFA JUMP JUMPDEST PUSH3 0xA22 DUP2 DUP6 PUSH3 0xD23 JUMP JUMPDEST SWAP4 POP PUSH3 0xA34 DUP2 DUP6 PUSH1 0x20 DUP7 ADD PUSH3 0xE50 JUMP JUMPDEST PUSH3 0xA3F DUP2 PUSH3 0xF7F JUMP JUMPDEST DUP5 ADD SWAP2 POP POP SWAP3 SWAP2 POP POP JUMP JUMPDEST PUSH1 0x0 PUSH3 0xA57 DUP3 PUSH3 0xCFA JUMP JUMPDEST PUSH3 0xA63 DUP2 DUP6 PUSH3 0xD34 JUMP JUMPDEST SWAP4 POP PUSH3 0xA75 DUP2 DUP6 PUSH1 0x20 DUP7 ADD PUSH3 0xE50 JUMP JUMPDEST PUSH3 0xA80 DUP2 PUSH3 0xF7F JUMP JUMPDEST DUP5 ADD SWAP2 POP POP SWAP3 SWAP2 POP POP JUMP JUMPDEST PUSH1 0x0 PUSH1 0xC0 DUP4 ADD PUSH1 0x0 DUP4 ADD MLOAD PUSH3 0xAA5 PUSH1 0x0 DUP7 ADD DUP3 PUSH3 0x966 JUMP JUMPDEST POP PUSH1 0x20 DUP4 ADD MLOAD DUP5 DUP3 SUB PUSH1 0x20 DUP7 ADD MSTORE PUSH3 0xABF DUP3 DUP3 PUSH3 0xA09 JUMP JUMPDEST SWAP2 POP POP PUSH1 0x40 DUP4 ADD MLOAD PUSH3 0xAD6 PUSH1 0x40 DUP7 ADD DUP3 PUSH3 0xB27 JUMP JUMPDEST POP PUSH1 0x60 DUP4 ADD MLOAD DUP5 DUP3 SUB PUSH1 0x60 DUP7 ADD MSTORE PUSH3 0xAF0 DUP3 DUP3 PUSH3 0xA09 JUMP JUMPDEST SWAP2 POP POP PUSH1 0x80 DUP4 ADD MLOAD PUSH3 0xB07 PUSH1 0x80 DUP7 ADD DUP3 PUSH3 0xB27 JUMP JUMPDEST POP PUSH1 0xA0 DUP4 ADD MLOAD PUSH3 0xB1C PUSH1 0xA0 DUP7 ADD DUP3 PUSH3 0xB27 JUMP JUMPDEST POP DUP1 SWAP2 POP POP SWAP3 SWAP2 POP POP JUMP JUMPDEST PUSH3 0xB32 DUP2 PUSH3 0xE37 JUMP JUMPDEST DUP3 MSTORE POP POP JUMP JUMPDEST PUSH3 0xB43 DUP2 PUSH3 0xE37 JUMP JUMPDEST DUP3 MSTORE POP POP JUMP JUMPDEST PUSH1 0x0 PUSH1 0x20 DUP3 ADD SWAP1 POP PUSH3 0xB60 PUSH1 0x0 DUP4 ADD DUP5 PUSH3 0x977 JUMP JUMPDEST SWAP3 SWAP2 POP POP JUMP JUMPDEST PUSH1 0x0 PUSH1 0xC0 DUP3 ADD SWAP1 POP PUSH3 0xB7D PUSH1 0x0 DUP4 ADD DUP10 PUSH3 0x977 JUMP JUMPDEST DUP2 DUP2 SUB PUSH1 0x20 DUP4 ADD MSTORE PUSH3 0xB91 DUP2 DUP9 PUSH3 0xA4A JUMP JUMPDEST SWAP1 POP PUSH3 0xBA2 PUSH1 0x40 DUP4 ADD DUP8 PUSH3 0xB38 JUMP JUMPDEST DUP2 DUP2 SUB PUSH1 0x60 DUP4 ADD MSTORE PUSH3 0xBB6 DUP2 DUP7 PUSH3 0xA4A JUMP JUMPDEST SWAP1 POP PUSH3 0xBC7 PUSH1 0x80 DUP4 ADD DUP6 PUSH3 0xB38 JUMP JUMPDEST PUSH3 0xBD6 PUSH1 0xA0 DUP4 ADD DUP5 PUSH3 0xB38 JUMP JUMPDEST SWAP8 SWAP7 POP POP POP POP POP POP POP JUMP JUMPDEST PUSH1 0x0 PUSH1 0x20 DUP3 ADD SWAP1 POP DUP2 DUP2 SUB PUSH1 0x0 DUP4 ADD MSTORE PUSH3 0xBFD DUP2 DUP5 PUSH3 0x988 JUMP JUMPDEST SWAP1 POP SWAP3 SWAP2 POP POP JUMP JUMPDEST PUSH1 0x0 PUSH1 0xC0 DUP3 ADD SWAP1 POP PUSH3 0xC1C PUSH1 0x0 DUP4 ADD DUP10 PUSH3 0xB38 JUMP JUMPDEST PUSH3 0xC2B PUSH1 0x20 DUP4 ADD DUP9 PUSH3 0x977 JUMP JUMPDEST DUP2 DUP2 SUB PUSH1 0x40 DUP4 ADD MSTORE PUSH3 0xC3F DUP2 DUP8 PUSH3 0xA4A JUMP JUMPDEST SWAP1 POP PUSH3 0xC50 PUSH1 0x60 DUP4 ADD DUP7 PUSH3 0xB38 JUMP JUMPDEST DUP2 DUP2 SUB PUSH1 0x80 DUP4 ADD MSTORE PUSH3 0xC64 DUP2 DUP6 PUSH3 0xA4A JUMP JUMPDEST SWAP1 POP PUSH3 0xC75 PUSH1 0xA0 DUP4 ADD DUP5 PUSH3 0xB38 JUMP JUMPDEST SWAP8 SWAP7 POP POP POP POP POP POP POP JUMP JUMPDEST PUSH1 0x0 PUSH3 0xC8C PUSH3 0xC9F JUMP JUMPDEST SWAP1 POP PUSH3 0xC9A DUP3 DUP3 PUSH3 0xEBC JUMP JUMPDEST SWAP2 SWAP1 POP JUMP JUMPDEST PUSH1 0x0 PUSH1 0x40 MLOAD SWAP1 POP SWAP1 JUMP JUMPDEST PUSH1 0x0 PUSH8 0xFFFFFFFFFFFFFFFF DUP3 GT ISZERO PUSH3 0xCC7 JUMPI PUSH3 0xCC6 PUSH3 0xF50 JUMP JUMPDEST JUMPDEST PUSH3 0xCD2 DUP3 PUSH3 0xF7F JUMP JUMPDEST SWAP1 POP PUSH1 0x20 DUP2 ADD SWAP1 POP SWAP2 SWAP1 POP JUMP JUMPDEST PUSH1 0x0 DUP2 SWAP1 POP PUSH1 0x20 DUP3 ADD SWAP1 POP SWAP2 SWAP1 POP JUMP JUMPDEST PUSH1 0x0 DUP2 MLOAD SWAP1 POP SWAP2 SWAP1 POP JUMP JUMPDEST PUSH1 0x0 DUP2 MLOAD SWAP1 POP SWAP2 SWAP1 POP JUMP JUMPDEST PUSH1 0x0 PUSH1 0x20 DUP3 ADD SWAP1 POP SWAP2 SWAP1 POP JUMP JUMPDEST PUSH1 0x0 DUP3 DUP3 MSTORE PUSH1 0x20 DUP3 ADD SWAP1 POP SWAP3 SWAP2 POP POP JUMP JUMPDEST PUSH1 0x0 DUP3 DUP3 MSTORE PUSH1 0x20 DUP3 ADD SWAP1 POP SWAP3 SWAP2 POP POP JUMP JUMPDEST PUSH1 0x0 DUP3 DUP3 MSTORE PUSH1 0x20 DUP3 ADD SWAP1 POP SWAP3 SWAP2 POP POP JUMP JUMPDEST PUSH1 0x0 PUSH3 0xD52 DUP3 PUSH3 0xE37 JUMP JUMPDEST SWAP2 POP PUSH3 0xD5F DUP4 PUSH3 0xE37 JUMP JUMPDEST SWAP3 POP DUP3 PUSH32 0xFFFFFFFFFFFFFFFFFFFFFFFFFFFFFFFFFFFFFFFFFFFFFFFFFFFFFFFFFFFFFFFF SUB DUP3 GT ISZERO PUSH3 0xD97 JUMPI PUSH3 0xD96 PUSH3 0xEF2 JUMP JUMPDEST JUMPDEST DUP3 DUP3 ADD SWAP1 POP SWAP3 SWAP2 POP POP JUMP JUMPDEST PUSH1 0x0 PUSH3 0xDAF DUP3 PUSH3 0xE37 JUMP JUMPDEST SWAP2 POP PUSH3 0xDBC DUP4 PUSH3 0xE37 JUMP JUMPDEST SWAP3 POP DUP2 PUSH32 0xFFFFFFFFFFFFFFFFFFFFFFFFFFFFFFFFFFFFFFFFFFFFFFFFFFFFFFFFFFFFFFFF DIV DUP4 GT DUP3 ISZERO ISZERO AND ISZERO PUSH3 0xDF8 JUMPI PUSH3 0xDF7 PUSH3 0xEF2 JUMP JUMPDEST JUMPDEST DUP3 DUP3 MUL SWAP1 POP SWAP3 SWAP2 POP POP JUMP JUMPDEST PUSH1 0x0 PUSH3 0xE10 DUP3 PUSH3 0xE17 JUMP JUMPDEST SWAP1 POP SWAP2 SWAP1 POP JUMP JUMPDEST PUSH1 0x0 PUSH20 0xFFFFFFFFFFFFFFFFFFFFFFFFFFFFFFFFFFFFFFFF DUP3 AND SWAP1 POP SWAP2 SWAP1 POP JUMP JUMPDEST PUSH1 0x0 DUP2 SWAP1 POP SWAP2 SWAP1 POP JUMP JUMPDEST DUP3 DUP2 DUP4 CALLDATACOPY PUSH1 0x0 DUP4 DUP4 ADD MSTORE POP POP POP JUMP JUMPDEST PUSH1 0x0 JUMPDEST DUP4 DUP2 LT ISZERO PUSH3 0xE70 JUMPI DUP1 DUP3 ADD MLOAD DUP2 DUP5 ADD MSTORE PUSH1 0x20 DUP2 ADD SWAP1 POP PUSH3 0xE53 JUMP JUMPDEST DUP4 DUP2 GT ISZERO PUSH3 0xE80 JUMPI PUSH1 0x0 DUP5 DUP5 ADD MSTORE JUMPDEST POP POP POP POP JUMP JUMPDEST PUSH1 0x0 PUSH1 0x2 DUP3 DIV SWAP1 POP PUSH1 0x1 DUP3 AND DUP1 PUSH3 0xE9F JUMPI PUSH1 0x7F DUP3 AND SWAP2 POP JUMPDEST PUSH1 0x20 DUP3 LT DUP2 EQ ISZERO PUSH3 0xEB6 JUMPI PUSH3 0xEB5 PUSH3 0xF21 JUMP JUMPDEST JUMPDEST POP SWAP2 SWAP1 POP JUMP JUMPDEST PUSH3 0xEC7 DUP3 PUSH3 0xF7F JUMP JUMPDEST DUP2 ADD DUP2 DUP2 LT PUSH8 0xFFFFFFFFFFFFFFFF DUP3 GT OR ISZERO PUSH3 0xEE9 JUMPI PUSH3 0xEE8 PUSH3 0xF50 JUMP JUMPDEST JUMPDEST DUP1 PUSH1 0x40 MSTORE POP POP POP JUMP JUMPDEST PUSH32 0x4E487B7100000000000000000000000000000000000000000000000000000000 PUSH1 0x0 MSTORE PUSH1 0x11 PUSH1 0x4 MSTORE PUSH1 0x24 PUSH1 0x0 REVERT JUMPDEST PUSH32 0x4E487B7100000000000000000000000000000000000000000000000000000000 PUSH1 0x0 MSTORE PUSH1 0x22 PUSH1 0x4 MSTORE PUSH1 0x24 PUSH1 0x0 REVERT JUMPDEST PUSH32 0x4E487B7100000000000000000000000000000000000000000000000000000000 PUSH1 0x0 MSTORE PUSH1 0x41 PUSH1 0x4 MSTORE PUSH1 0x24 PUSH1 0x0 REVERT JUMPDEST PUSH1 0x0 PUSH1 0x1F NOT PUSH1 0x1F DUP4 ADD AND SWAP1 POP SWAP2 SWAP1 POP JUMP JUMPDEST PUSH3 0xF9B DUP2 PUSH3 0xE37 JUMP JUMPDEST DUP2 EQ PUSH3 0xFA7 JUMPI PUSH1 0x0 DUP1 REVERT JUMPDEST POP JUMP INVALID PUSH1 0x80 PUSH1 0x40 MSTORE PUSH1 0x0 PUSH1 0x6 PUSH1 0x0 PUSH2 0x100 EXP DUP2 SLOAD DUP2 PUSH1 0xFF MUL NOT AND SWAP1 DUP4 PUSH1 0x1 DUP2 GT ISZERO PUSH3 0x51 JUMPI PUSH32 0x4E487B7100000000000000000000000000000000000000000000000000000000 PUSH1 0x0 MSTORE PUSH1 0x21 PUSH1 0x4 MSTORE PUSH1 0x24 PUSH1 0x0 REVERT JUMPDEST MUL OR SWAP1 SSTORE POP CALLVALUE DUP1 ISZERO PUSH3 0x63 JUMPI PUSH1 0x0 DUP1 REVERT JUMPDEST POP PUSH1 0x40 MLOAD PUSH3 0x1EAA CODESIZE SUB DUP1 PUSH3 0x1EAA DUP4 CODECOPY DUP2 DUP2 ADD PUSH1 0x40 MSTORE DUP2 ADD SWAP1 PUSH3 0x89 SWAP2 SWAP1 PUSH3 0x27C JUMP JUMPDEST DUP5 PUSH1 0x0 DUP1 PUSH2 0x100 EXP DUP2 SLOAD DUP2 PUSH20 0xFFFFFFFFFFFFFFFFFFFFFFFFFFFFFFFFFFFFFFFF MUL NOT AND SWAP1 DUP4 PUSH20 0xFFFFFFFFFFFFFFFFFFFFFFFFFFFFFFFFFFFFFFFF AND MUL OR SWAP1 SSTORE POP DUP6 PUSH1 0x9 DUP2 SWAP1 SSTORE POP DUP4 PUSH1 0x1 SWAP1 DUP1 MLOAD SWAP1 PUSH1 0x20 ADD SWAP1 PUSH3 0xE8 SWAP3 SWAP2 SWAP1 PUSH3 0x12C JUMP JUMPDEST POP DUP3 PUSH1 0x2 DUP2 SWAP1 SSTORE POP DUP2 PUSH1 0x3 SWAP1 DUP1 MLOAD SWAP1 PUSH1 0x20 ADD SWAP1 PUSH3 0x108 SWAP3 SWAP2 SWAP1 PUSH3 0x12C JUMP JUMPDEST POP PUSH1 0x0 PUSH1 0x4 DUP2 SWAP1 SSTORE POP DUP1 PUSH1 0x7 DUP2 SWAP1 SSTORE POP PUSH1 0x0 PUSH1 0x8 DUP2 SWAP1 SSTORE POP POP POP POP POP POP POP PUSH3 0x526 JUMP JUMPDEST DUP3 DUP1 SLOAD PUSH3 0x13A SWAP1 PUSH3 0x417 JUMP JUMPDEST SWAP1 PUSH1 0x0 MSTORE PUSH1 0x20 PUSH1 0x0 KECCAK256 SWAP1 PUSH1 0x1F ADD PUSH1 0x20 SWAP1 DIV DUP2 ADD SWAP3 DUP3 PUSH3 0x15E JUMPI PUSH1 0x0 DUP6 SSTORE PUSH3 0x1AA JUMP JUMPDEST DUP3 PUSH1 0x1F LT PUSH3 0x179 JUMPI DUP1 MLOAD PUSH1 0xFF NOT AND DUP4 DUP1 ADD OR DUP6 SSTORE PUSH3 0x1AA JUMP JUMPDEST DUP3 DUP1 ADD PUSH1 0x1 ADD DUP6 SSTORE DUP3 ISZERO PUSH3 0x1AA JUMPI SWAP2 DUP3 ADD JUMPDEST DUP3 DUP2 GT ISZERO PUSH3 0x1A9 JUMPI DUP3 MLOAD DUP3 SSTORE SWAP2 PUSH1 0x20 ADD SWAP2 SWAP1 PUSH1 0x1 ADD SWAP1 PUSH3 0x18C JUMP JUMPDEST JUMPDEST POP SWAP1 POP PUSH3 0x1B9 SWAP2 SWAP1 PUSH3 0x1BD JUMP JUMPDEST POP SWAP1 JUMP JUMPDEST JUMPDEST DUP1 DUP3 GT ISZERO PUSH3 0x1D8 JUMPI PUSH1 0x0 DUP2 PUSH1 0x0 SWAP1 SSTORE POP PUSH1 0x1 ADD PUSH3 0x1BE JUMP JUMPDEST POP SWAP1 JUMP JUMPDEST PUSH1 0x0 PUSH3 0x1F3 PUSH3 0x1ED DUP5 PUSH3 0x36D JUMP JUMPDEST PUSH3 0x344 JUMP JUMPDEST SWAP1 POP DUP3 DUP2 MSTORE PUSH1 0x20 DUP2 ADD DUP5 DUP5 DUP5 ADD GT ISZERO PUSH3 0x20C JUMPI PUSH1 0x0 DUP1 REVERT JUMPDEST PUSH3 0x219 DUP5 DUP3 DUP6 PUSH3 0x3E1 JUMP JUMPDEST POP SWAP4 SWAP3 POP POP POP JUMP JUMPDEST PUSH1 0x0 DUP2 MLOAD SWAP1 POP PUSH3 0x232 DUP2 PUSH3 0x4F2 JUMP JUMPDEST SWAP3 SWAP2 POP POP JUMP JUMPDEST PUSH1 0x0 DUP3 PUSH1 0x1F DUP4 ADD SLT PUSH3 0x24A JUMPI PUSH1 0x0 DUP1 REVERT JUMPDEST DUP2 MLOAD PUSH3 0x25C DUP5 DUP3 PUSH1 0x20 DUP7 ADD PUSH3 0x1DC JUMP JUMPDEST SWAP2 POP POP SWAP3 SWAP2 POP POP JUMP JUMPDEST PUSH1 0x0 DUP2 MLOAD SWAP1 POP PUSH3 0x276 DUP2 PUSH3 0x50C JUMP JUMPDEST SWAP3 SWAP2 POP POP JUMP JUMPDEST PUSH1 0x0 DUP1 PUSH1 0x0 DUP1 PUSH1 0x0 DUP1 PUSH1 0xC0 DUP8 DUP10 SUB SLT ISZERO PUSH3 0x296 JUMPI PUSH1 0x0 DUP1 REVERT JUMPDEST PUSH1 0x0 PUSH3 0x2A6 DUP10 DUP3 DUP11 ADD PUSH3 0x265 JUMP JUMPDEST SWAP7 POP POP PUSH1 0x20 PUSH3 0x2B9 DUP10 DUP3 DUP11 ADD PUSH3 0x221 JUMP JUMPDEST SWAP6 POP POP PUSH1 0x40 DUP8 ADD MLOAD PUSH8 0xFFFFFFFFFFFFFFFF DUP2 GT ISZERO PUSH3 0x2D7 JUMPI PUSH1 0x0 DUP1 REVERT JUMPDEST PUSH3 0x2E5 DUP10 DUP3 DUP11 ADD PUSH3 0x238 JUMP JUMPDEST SWAP5 POP POP PUSH1 0x60 PUSH3 0x2F8 DUP10 DUP3 DUP11 ADD PUSH3 0x265 JUMP JUMPDEST SWAP4 POP POP PUSH1 0x80 DUP8 ADD MLOAD PUSH8 0xFFFFFFFFFFFFFFFF DUP2 GT ISZERO PUSH3 0x316 JUMPI PUSH1 0x0 DUP1 REVERT JUMPDEST PUSH3 0x324 DUP10 DUP3 DUP11 ADD PUSH3 0x238 JUMP JUMPDEST SWAP3 POP POP PUSH1 0xA0 PUSH3 0x337 DUP10 DUP3 DUP11 ADD PUSH3 0x265 JUMP JUMPDEST SWAP2 POP POP SWAP3 SWAP6 POP SWAP3 SWAP6 POP SWAP3 SWAP6 JUMP JUMPDEST PUSH1 0x0 PUSH3 0x350 PUSH3 0x363 JUMP JUMPDEST SWAP1 POP PUSH3 0x35E DUP3 DUP3 PUSH3 0x44D JUMP JUMPDEST SWAP2 SWAP1 POP JUMP JUMPDEST PUSH1 0x0 PUSH1 0x40 MLOAD SWAP1 POP SWAP1 JUMP JUMPDEST PUSH1 0x0 PUSH8 0xFFFFFFFFFFFFFFFF DUP3 GT ISZERO PUSH3 0x38B JUMPI PUSH3 0x38A PUSH3 0x4B2 JUMP JUMPDEST JUMPDEST PUSH3 0x396 DUP3 PUSH3 0x4E1 JUMP JUMPDEST SWAP1 POP PUSH1 0x20 DUP2 ADD SWAP1 POP SWAP2 SWAP1 POP JUMP JUMPDEST PUSH1 0x0 PUSH3 0x3B0 DUP3 PUSH3 0x3B7 JUMP JUMPDEST SWAP1 POP SWAP2 SWAP1 POP JUMP JUMPDEST PUSH1 0x0 PUSH20 0xFFFFFFFFFFFFFFFFFFFFFFFFFFFFFFFFFFFFFFFF DUP3 AND SWAP1 POP SWAP2 SWAP1 POP JUMP JUMPDEST PUSH1 0x0 DUP2 SWAP1 POP SWAP2 SWAP1 POP JUMP JUMPDEST PUSH1 0x0 JUMPDEST DUP4 DUP2 LT ISZERO PUSH3 0x401 JUMPI DUP1 DUP3 ADD MLOAD DUP2 DUP5 ADD MSTORE PUSH1 0x20 DUP2 ADD SWAP1 POP PUSH3 0x3E4 JUMP JUMPDEST DUP4 DUP2 GT ISZERO PUSH3 0x411 JUMPI PUSH1 0x0 DUP5 DUP5 ADD MSTORE JUMPDEST POP POP POP POP JUMP JUMPDEST PUSH1 0x0 PUSH1 0x2 DUP3 DIV SWAP1 POP PUSH1 0x1 DUP3 AND DUP1 PUSH3 0x430 JUMPI PUSH1 0x7F DUP3 AND SWAP2 POP JUMPDEST PUSH1 0x20 DUP3 LT DUP2 EQ ISZERO PUSH3 0x447 JUMPI PUSH3 0x446 PUSH3 0x483 JUMP JUMPDEST JUMPDEST POP SWAP2 SWAP1 POP JUMP JUMPDEST PUSH3 0x458 DUP3 PUSH3 0x4E1 JUMP JUMPDEST DUP2 ADD DUP2 DUP2 LT PUSH8 0xFFFFFFFFFFFFFFFF DUP3 GT OR ISZERO PUSH3 0x47A JUMPI PUSH3 0x479 PUSH3 0x4B2 JUMP JUMPDEST JUMPDEST DUP1 PUSH1 0x40 MSTORE POP POP POP JUMP JUMPDEST PUSH32 0x4E487B7100000000000000000000000000000000000000000000000000000000 PUSH1 0x0 MSTORE PUSH1 0x22 PUSH1 0x4 MSTORE PUSH1 0x24 PUSH1 0x0 REVERT JUMPDEST PUSH32 0x4E487B7100000000000000000000000000000000000000000000000000000000 PUSH1 0x0 MSTORE PUSH1 0x41 PUSH1 0x4 MSTORE PUSH1 0x24 PUSH1 0x0 REVERT JUMPDEST PUSH1 0x0 PUSH1 0x1F NOT PUSH1 0x1F DUP4 ADD AND SWAP1 POP SWAP2 SWAP1 POP JUMP JUMPDEST PUSH3 0x4FD DUP2 PUSH3 0x3A3 JUMP JUMPDEST DUP2 EQ PUSH3 0x509 JUMPI PUSH1 0x0 DUP1 REVERT JUMPDEST POP JUMP JUMPDEST PUSH3 0x517 DUP2 PUSH3 0x3D7 JUMP JUMPDEST DUP2 EQ PUSH3 0x523 JUMPI PUSH1 0x0 DUP1 REVERT JUMPDEST POP JUMP JUMPDEST PUSH2 0x1974 DUP1 PUSH3 0x536 PUSH1 0x0 CODECOPY PUSH1 0x0 RETURN INVALID PUSH1 0x80 PUSH1 0x40 MSTORE PUSH1 0x4 CALLDATASIZE LT PUSH2 0x135 JUMPI PUSH1 0x0 CALLDATALOAD PUSH1 0xE0 SHR DUP1 PUSH4 0x5BADBE4C GT PUSH2 0xAB JUMPI DUP1 PUSH4 0x97654A8C GT PUSH2 0x6F JUMPI DUP1 PUSH4 0x97654A8C EQ PUSH2 0x415 JUMPI DUP1 PUSH4 0xB2D5AE44 EQ PUSH2 0x440 JUMPI DUP1 PUSH4 0xC19D93FB EQ PUSH2 0x46B JUMPI DUP1 PUSH4 0xCE845D1D EQ PUSH2 0x496 JUMPI DUP1 PUSH4 0xD7BB99BA EQ PUSH2 0x4C1 JUMPI DUP1 PUSH4 0xD7D1BBDB EQ PUSH2 0x4CB JUMPI PUSH2 0x135 JUMP JUMPDEST DUP1 PUSH4 0x5BADBE4C EQ PUSH2 0x32A JUMPI DUP1 PUSH4 0x81D12C58 EQ PUSH2 0x355 JUMPI DUP1 PUSH4 0x82FDE093 EQ PUSH2 0x396 JUMPI DUP1 PUSH4 0x8A9CFD55 EQ PUSH2 0x3C1 JUMPI DUP1 PUSH4 0x937E09B1 EQ PUSH2 0x3EA JUMPI PUSH2 0x135 JUMP JUMPDEST DUP1 PUSH4 0x15879C29 GT PUSH2 0xFD JUMPI DUP1 PUSH4 0x15879C29 EQ PUSH2 0x221 JUMPI DUP1 PUSH4 0x32461BD8 EQ PUSH2 0x238 JUMPI DUP1 PUSH4 0x37F944CC EQ PUSH2 0x263 JUMPI DUP1 PUSH4 0x4051DDAC EQ PUSH2 0x28E JUMPI DUP1 PUSH4 0x42E94C90 EQ PUSH2 0x2C2 JUMPI DUP1 PUSH4 0x481C6A75 EQ PUSH2 0x2FF JUMPI PUSH2 0x135 JUMP JUMPDEST DUP1 PUSH4 0x3441006 EQ PUSH2 0x13A JUMPI DUP1 PUSH4 0x785001C EQ PUSH2 0x163 JUMPI DUP1 PUSH4 0x8CAA910 EQ PUSH2 0x18E JUMPI DUP1 PUSH4 0xA144391 EQ PUSH2 0x1B9 JUMPI DUP1 PUSH4 0xDCF4B8F EQ PUSH2 0x1F6 JUMPI JUMPDEST PUSH1 0x0 DUP1 REVERT JUMPDEST CALLVALUE DUP1 ISZERO PUSH2 0x146 JUMPI PUSH1 0x0 DUP1 REVERT JUMPDEST POP PUSH2 0x161 PUSH1 0x4 DUP1 CALLDATASIZE SUB DUP2 ADD SWAP1 PUSH2 0x15C SWAP2 SWAP1 PUSH2 0x131E JUMP JUMPDEST PUSH2 0x4F4 JUMP JUMPDEST STOP JUMPDEST CALLVALUE DUP1 ISZERO PUSH2 0x16F JUMPI PUSH1 0x0 DUP1 REVERT JUMPDEST POP PUSH2 0x178 PUSH2 0x62D JUMP JUMPDEST PUSH1 0x40 MLOAD PUSH2 0x185 SWAP2 SWAP1 PUSH2 0x1489 JUMP JUMPDEST PUSH1 0x40 MLOAD DUP1 SWAP2 SUB SWAP1 RETURN JUMPDEST CALLVALUE DUP1 ISZERO PUSH2 0x19A JUMPI PUSH1 0x0 DUP1 REVERT JUMPDEST POP PUSH2 0x1A3 PUSH2 0x633 JUMP JUMPDEST PUSH1 0x40 MLOAD PUSH2 0x1B0 SWAP2 SWAP1 PUSH2 0x1489 JUMP JUMPDEST PUSH1 0x40 MLOAD DUP1 SWAP2 SUB SWAP1 RETURN JUMPDEST CALLVALUE DUP1 ISZERO PUSH2 0x1C5 JUMPI PUSH1 0x0 DUP1 REVERT JUMPDEST POP PUSH2 0x1E0 PUSH1 0x4 DUP1 CALLDATASIZE SUB DUP2 ADD SWAP1 PUSH2 0x1DB SWAP2 SWAP1 PUSH2 0x128E JUMP JUMPDEST PUSH2 0x63D JUMP JUMPDEST PUSH1 0x40 MLOAD PUSH2 0x1ED SWAP2 SWAP1 PUSH2 0x13D7 JUMP JUMPDEST PUSH1 0x40 MLOAD DUP1 SWAP2 SUB SWAP1 RETURN JUMPDEST CALLVALUE DUP1 ISZERO PUSH2 0x202 JUMPI PUSH1 0x0 DUP1 REVERT JUMPDEST POP PUSH2 0x20B PUSH2 0x65D JUMP JUMPDEST PUSH1 0x40 MLOAD PUSH2 0x218 SWAP2 SWAP1 PUSH2 0x1489 JUMP JUMPDEST PUSH1 0x40 MLOAD DUP1 SWAP2 SUB SWAP1 RETURN JUMPDEST CALLVALUE DUP1 ISZERO PUSH2 0x22D JUMPI PUSH1 0x0 DUP1 REVERT JUMPDEST POP PUSH2 0x236 PUSH2 0x663 JUMP JUMPDEST STOP JUMPDEST CALLVALUE DUP1 ISZERO PUSH2 0x244 JUMPI PUSH1 0x0 DUP1 REVERT JUMPDEST POP PUSH2 0x24D PUSH2 0x6C1 JUMP JUMPDEST PUSH1 0x40 MLOAD PUSH2 0x25A SWAP2 SWAP1 PUSH2 0x140D JUMP JUMPDEST PUSH1 0x40 MLOAD DUP1 SWAP2 SUB SWAP1 RETURN JUMPDEST CALLVALUE DUP1 ISZERO PUSH2 0x26F JUMPI PUSH1 0x0 DUP1 REVERT JUMPDEST POP PUSH2 0x278 PUSH2 0x74F JUMP JUMPDEST PUSH1 0x40 MLOAD PUSH2 0x285 SWAP2 SWAP1 PUSH2 0x1489 JUMP JUMPDEST PUSH1 0x40 MLOAD DUP1 SWAP2 SUB SWAP1 RETURN JUMPDEST CALLVALUE DUP1 ISZERO PUSH2 0x29A JUMPI PUSH1 0x0 DUP1 REVERT JUMPDEST POP PUSH2 0x2A3 PUSH2 0x755 JUMP JUMPDEST PUSH1 0x40 MLOAD PUSH2 0x2B9 SWAP11 SWAP10 SWAP9 SWAP8 SWAP7 SWAP6 SWAP5 SWAP4 SWAP3 SWAP2 SWAP1 PUSH2 0x14A4 JUMP JUMPDEST PUSH1 0x40 MLOAD DUP1 SWAP2 SUB SWAP1 RETURN JUMPDEST CALLVALUE DUP1 ISZERO PUSH2 0x2CE JUMPI PUSH1 0x0 DUP1 REVERT JUMPDEST POP PUSH2 0x2E9 PUSH1 0x4 DUP1 CALLDATASIZE SUB DUP2 ADD SWAP1 PUSH2 0x2E4 SWAP2 SWAP1 PUSH2 0x128E JUMP JUMPDEST PUSH2 0x8D6 JUMP JUMPDEST PUSH1 0x40 MLOAD PUSH2 0x2F6 SWAP2 SWAP1 PUSH2 0x1489 JUMP JUMPDEST PUSH1 0x40 MLOAD DUP1 SWAP2 SUB SWAP1 RETURN JUMPDEST CALLVALUE DUP1 ISZERO PUSH2 0x30B JUMPI PUSH1 0x0 DUP1 REVERT JUMPDEST POP PUSH2 0x314 PUSH2 0x8EE JUMP JUMPDEST PUSH1 0x40 MLOAD PUSH2 0x321 SWAP2 SWAP1 PUSH2 0x13BC JUMP JUMPDEST PUSH1 0x40 MLOAD DUP1 SWAP2 SUB SWAP1 RETURN JUMPDEST CALLVALUE DUP1 ISZERO PUSH2 0x336 JUMPI PUSH1 0x0 DUP1 REVERT JUMPDEST POP PUSH2 0x33F PUSH2 0x912 JUMP JUMPDEST PUSH1 0x40 MLOAD PUSH2 0x34C SWAP2 SWAP1 PUSH2 0x1489 JUMP JUMPDEST PUSH1 0x40 MLOAD DUP1 SWAP2 SUB SWAP1 RETURN JUMPDEST CALLVALUE DUP1 ISZERO PUSH2 0x361 JUMPI PUSH1 0x0 DUP1 REVERT JUMPDEST POP PUSH2 0x37C PUSH1 0x4 DUP1 CALLDATASIZE SUB DUP2 ADD SWAP1 PUSH2 0x377 SWAP2 SWAP1 PUSH2 0x131E JUMP JUMPDEST PUSH2 0x918 JUMP JUMPDEST PUSH1 0x40 MLOAD PUSH2 0x38D SWAP6 SWAP5 SWAP4 SWAP3 SWAP2 SWAP1 PUSH2 0x142F JUMP JUMPDEST PUSH1 0x40 MLOAD DUP1 SWAP2 SUB SWAP1 RETURN JUMPDEST CALLVALUE DUP1 ISZERO PUSH2 0x3A2 JUMPI PUSH1 0x0 DUP1 REVERT JUMPDEST POP PUSH2 0x3AB PUSH2 0xA03 JUMP JUMPDEST PUSH1 0x40 MLOAD PUSH2 0x3B8 SWAP2 SWAP1 PUSH2 0x1489 JUMP JUMPDEST PUSH1 0x40 MLOAD DUP1 SWAP2 SUB SWAP1 RETURN JUMPDEST CALLVALUE DUP1 ISZERO PUSH2 0x3CD JUMPI PUSH1 0x0 DUP1 REVERT JUMPDEST POP PUSH2 0x3E8 PUSH1 0x4 DUP1 CALLDATASIZE SUB DUP2 ADD SWAP1 PUSH2 0x3E3 SWAP2 SWAP1 PUSH2 0x12B7 JUMP JUMPDEST PUSH2 0xA09 JUMP JUMPDEST STOP JUMPDEST CALLVALUE DUP1 ISZERO PUSH2 0x3F6 JUMPI PUSH1 0x0 DUP1 REVERT JUMPDEST POP PUSH2 0x3FF PUSH2 0xB27 JUMP JUMPDEST PUSH1 0x40 MLOAD PUSH2 0x40C SWAP2 SWAP1 PUSH2 0x1489 JUMP JUMPDEST PUSH1 0x40 MLOAD DUP1 SWAP2 SUB SWAP1 RETURN JUMPDEST CALLVALUE DUP1 ISZERO PUSH2 0x421 JUMPI PUSH1 0x0 DUP1 REVERT JUMPDEST POP PUSH2 0x42A PUSH2 0xB2D JUMP JUMPDEST PUSH1 0x40 MLOAD PUSH2 0x437 SWAP2 SWAP1 PUSH2 0x140D JUMP JUMPDEST PUSH1 0x40 MLOAD DUP1 SWAP2 SUB SWAP1 RETURN JUMPDEST CALLVALUE DUP1 ISZERO PUSH2 0x44C JUMPI PUSH1 0x0 DUP1 REVERT JUMPDEST POP PUSH2 0x455 PUSH2 0xBBB JUMP JUMPDEST PUSH1 0x40 MLOAD PUSH2 0x462 SWAP2 SWAP1 PUSH2 0x13D7 JUMP JUMPDEST PUSH1 0x40 MLOAD DUP1 SWAP2 SUB SWAP1 RETURN JUMPDEST CALLVALUE DUP1 ISZERO PUSH2 0x477 JUMPI PUSH1 0x0 DUP1 REVERT JUMPDEST POP PUSH2 0x480 PUSH2 0xDDC JUMP JUMPDEST PUSH1 0x40 MLOAD PUSH2 0x48D SWAP2 SWAP1 PUSH2 0x13F2 JUMP JUMPDEST PUSH1 0x40 MLOAD DUP1 SWAP2 SUB SWAP1 RETURN JUMPDEST CALLVALUE DUP1 ISZERO PUSH2 0x4A2 JUMPI PUSH1 0x0 DUP1 REVERT JUMPDEST POP PUSH2 0x4AB PUSH2 0xDEF JUMP JUMPDEST PUSH1 0x40 MLOAD PUSH2 0x4B8 SWAP2 SWAP1 PUSH2 0x1489 JUMP JUMPDEST PUSH1 0x40 MLOAD DUP1 SWAP2 SUB SWAP1 RETURN JUMPDEST PUSH2 0x4C9 PUSH2 0xDF5 JUMP JUMPDEST STOP JUMPDEST CALLVALUE DUP1 ISZERO PUSH2 0x4D7 JUMPI PUSH1 0x0 DUP1 REVERT JUMPDEST POP PUSH2 0x4F2 PUSH1 0x4 DUP1 CALLDATASIZE SUB DUP2 ADD SWAP1 PUSH2 0x4ED SWAP2 SWAP1 PUSH2 0x131E JUMP JUMPDEST PUSH2 0x101B JUMP JUMPDEST STOP JUMPDEST PUSH1 0x0 DUP1 SLOAD SWAP1 PUSH2 0x100 EXP SWAP1 DIV PUSH20 0xFFFFFFFFFFFFFFFFFFFFFFFFFFFFFFFFFFFFFFFF AND PUSH20 0xFFFFFFFFFFFFFFFFFFFFFFFFFFFFFFFFFFFFFFFF AND CALLER PUSH20 0xFFFFFFFFFFFFFFFFFFFFFFFFFFFFFFFFFFFFFFFF AND EQ PUSH2 0x54C JUMPI PUSH1 0x0 DUP1 REVERT JUMPDEST PUSH1 0x0 PUSH1 0xB PUSH1 0x0 DUP4 DUP2 MSTORE PUSH1 0x20 ADD SWAP1 DUP2 MSTORE PUSH1 0x20 ADD PUSH1 0x0 KECCAK256 SWAP1 POP DUP1 PUSH1 0x2 ADD PUSH1 0x14 SWAP1 SLOAD SWAP1 PUSH2 0x100 EXP SWAP1 DIV PUSH1 0xFF AND ISZERO PUSH2 0x57F JUMPI PUSH1 0x0 DUP1 REVERT JUMPDEST PUSH1 0x2 PUSH1 0xD SLOAD PUSH2 0x58E SWAP2 SWAP1 PUSH2 0x1616 JUMP JUMPDEST DUP2 PUSH1 0x3 ADD SLOAD GT PUSH2 0x59D JUMPI PUSH1 0x0 DUP1 REVERT JUMPDEST DUP1 PUSH1 0x2 ADD PUSH1 0x0 SWAP1 SLOAD SWAP1 PUSH2 0x100 EXP SWAP1 DIV PUSH20 0xFFFFFFFFFFFFFFFFFFFFFFFFFFFFFFFFFFFFFFFF AND PUSH20 0xFFFFFFFFFFFFFFFFFFFFFFFFFFFFFFFFFFFFFFFF AND PUSH2 0x8FC DUP3 PUSH1 0x1 ADD SLOAD SWAP1 DUP2 ISZERO MUL SWAP1 PUSH1 0x40 MLOAD PUSH1 0x0 PUSH1 0x40 MLOAD DUP1 DUP4 SUB DUP2 DUP6 DUP9 DUP9 CALL SWAP4 POP POP POP POP ISZERO DUP1 ISZERO PUSH2 0x60B JUMPI RETURNDATASIZE PUSH1 0x0 DUP1 RETURNDATACOPY RETURNDATASIZE PUSH1 0x0 REVERT JUMPDEST POP PUSH1 0x1 DUP2 PUSH1 0x2 ADD PUSH1 0x14 PUSH2 0x100 EXP DUP2 SLOAD DUP2 PUSH1 0xFF MUL NOT AND SWAP1 DUP4 ISZERO ISZERO MUL OR SWAP1 SSTORE POP POP POP JUMP JUMPDEST PUSH1 0x2 SLOAD DUP2 JUMP JUMPDEST PUSH1 0x0 PUSH1 0x4 SLOAD SWAP1 POP SWAP1 JUMP JUMPDEST PUSH1 0xA PUSH1 0x20 MSTORE DUP1 PUSH1 0x0 MSTORE PUSH1 0x40 PUSH1 0x0 KECCAK256 PUSH1 0x0 SWAP2 POP SLOAD SWAP1 PUSH2 0x100 EXP SWAP1 DIV PUSH1 0xFF AND DUP2 JUMP JUMPDEST PUSH1 0x4 SLOAD DUP2 JUMP JUMPDEST PUSH1 0x7 SLOAD TIMESTAMP GT ISZERO PUSH2 0x6BF JUMPI PUSH1 0x1 PUSH1 0x6 PUSH1 0x0 PUSH2 0x100 EXP DUP2 SLOAD DUP2 PUSH1 0xFF MUL NOT AND SWAP1 DUP4 PUSH1 0x1 DUP2 GT ISZERO PUSH2 0x6B9 JUMPI PUSH32 0x4E487B7100000000000000000000000000000000000000000000000000000000 PUSH1 0x0 MSTORE PUSH1 0x21 PUSH1 0x4 MSTORE PUSH1 0x24 PUSH1 0x0 REVERT JUMPDEST MUL OR SWAP1 SSTORE POP JUMPDEST JUMP JUMPDEST PUSH1 0x1 DUP1 SLOAD PUSH2 0x6CE SWAP1 PUSH2 0x1754 JUMP JUMPDEST DUP1 PUSH1 0x1F ADD PUSH1 0x20 DUP1 SWAP2 DIV MUL PUSH1 0x20 ADD PUSH1 0x40 MLOAD SWAP1 DUP2 ADD PUSH1 0x40 MSTORE DUP1 SWAP3 SWAP2 SWAP1 DUP2 DUP2 MSTORE PUSH1 0x20 ADD DUP3 DUP1 SLOAD PUSH2 0x6FA SWAP1 PUSH2 0x1754 JUMP JUMPDEST DUP1 ISZERO PUSH2 0x747 JUMPI DUP1 PUSH1 0x1F LT PUSH2 0x71C JUMPI PUSH2 0x100 DUP1 DUP4 SLOAD DIV MUL DUP4 MSTORE SWAP2 PUSH1 0x20 ADD SWAP2 PUSH2 0x747 JUMP JUMPDEST DUP3 ADD SWAP2 SWAP1 PUSH1 0x0 MSTORE PUSH1 0x20 PUSH1 0x0 KECCAK256 SWAP1 JUMPDEST DUP2 SLOAD DUP2 MSTORE SWAP1 PUSH1 0x1 ADD SWAP1 PUSH1 0x20 ADD DUP1 DUP4 GT PUSH2 0x72A JUMPI DUP3 SWAP1 SUB PUSH1 0x1F AND DUP3 ADD SWAP2 JUMPDEST POP POP POP POP POP DUP2 JUMP JUMPDEST PUSH1 0x7 SLOAD DUP2 JUMP JUMPDEST PUSH1 0x0 DUP1 PUSH1 0x0 DUP1 PUSH1 0x0 PUSH1 0x60 PUSH1 0x0 PUSH1 0x60 PUSH1 0x0 DUP1 PUSH1 0x9 SLOAD SELFBALANCE PUSH1 0xC SLOAD PUSH1 0xD SLOAD PUSH1 0x0 DUP1 SLOAD SWAP1 PUSH2 0x100 EXP SWAP1 DIV PUSH20 0xFFFFFFFFFFFFFFFFFFFFFFFFFFFFFFFFFFFFFFFF AND PUSH1 0x1 PUSH1 0x2 SLOAD PUSH1 0x3 PUSH1 0x4 SLOAD PUSH1 0x7 SLOAD DUP5 DUP1 SLOAD PUSH2 0x7AA SWAP1 PUSH2 0x1754 JUMP JUMPDEST DUP1 PUSH1 0x1F ADD PUSH1 0x20 DUP1 SWAP2 DIV MUL PUSH1 0x20 ADD PUSH1 0x40 MLOAD SWAP1 DUP2 ADD PUSH1 0x40 MSTORE DUP1 SWAP3 SWAP2 SWAP1 DUP2 DUP2 MSTORE PUSH1 0x20 ADD DUP3 DUP1 SLOAD PUSH2 0x7D6 SWAP1 PUSH2 0x1754 JUMP JUMPDEST DUP1 ISZERO PUSH2 0x823 JUMPI DUP1 PUSH1 0x1F LT PUSH2 0x7F8 JUMPI PUSH2 0x100 DUP1 DUP4 SLOAD DIV MUL DUP4 MSTORE SWAP2 PUSH1 0x20 ADD SWAP2 PUSH2 0x823 JUMP JUMPDEST DUP3 ADD SWAP2 SWAP1 PUSH1 0x0 MSTORE PUSH1 0x20 PUSH1 0x0 KECCAK256 SWAP1 JUMPDEST DUP2 SLOAD DUP2 MSTORE SWAP1 PUSH1 0x1 ADD SWAP1 PUSH1 0x20 ADD DUP1 DUP4 GT PUSH2 0x806 JUMPI DUP3 SWAP1 SUB PUSH1 0x1F AND DUP3 ADD SWAP2 JUMPDEST POP POP POP POP POP SWAP5 POP DUP3 DUP1 SLOAD PUSH2 0x836 SWAP1 PUSH2 0x1754 JUMP JUMPDEST DUP1 PUSH1 0x1F ADD PUSH1 0x20 DUP1 SWAP2 DIV MUL PUSH1 0x20 ADD PUSH1 0x40 MLOAD SWAP1 DUP2 ADD PUSH1 0x40 MSTORE DUP1 SWAP3 SWAP2 SWAP1 DUP2 DUP2 MSTORE PUSH1 0x20 ADD DUP3 DUP1 SLOAD PUSH2 0x862 SWAP1 PUSH2 0x1754 JUMP JUMPDEST DUP1 ISZERO PUSH2 0x8AF JUMPI DUP1 PUSH1 0x1F LT PUSH2 0x884 JUMPI PUSH2 0x100 DUP1 DUP4 SLOAD DIV MUL DUP4 MSTORE SWAP2 PUSH1 0x20 ADD SWAP2 PUSH2 0x8AF JUMP JUMPDEST DUP3 ADD SWAP2 SWAP1 PUSH1 0x0 MSTORE PUSH1 0x20 PUSH1 0x0 KECCAK256 SWAP1 JUMPDEST DUP2 SLOAD DUP2 MSTORE SWAP1 PUSH1 0x1 ADD SWAP1 PUSH1 0x20 ADD DUP1 DUP4 GT PUSH2 0x892 JUMPI DUP3 SWAP1 SUB PUSH1 0x1F AND DUP3 ADD SWAP2 JUMPDEST POP POP POP POP POP SWAP3 POP SWAP10 POP SWAP10 POP SWAP10 POP SWAP10 POP SWAP10 POP SWAP10 POP SWAP10 POP SWAP10 POP SWAP10 POP SWAP10 POP SWAP1 SWAP2 SWAP3 SWAP4 SWAP5 SWAP6 SWAP7 SWAP8 SWAP9 SWAP10 JUMP JUMPDEST PUSH1 0x5 PUSH1 0x20 MSTORE DUP1 PUSH1 0x0 MSTORE PUSH1 0x40 PUSH1 0x0 KECCAK256 PUSH1 0x0 SWAP2 POP SWAP1 POP SLOAD DUP2 JUMP JUMPDEST PUSH1 0x0 DUP1 SLOAD SWAP1 PUSH2 0x100 EXP SWAP1 DIV PUSH20 0xFFFFFFFFFFFFFFFFFFFFFFFFFFFFFFFFFFFFFFFF AND DUP2 JUMP JUMPDEST PUSH1 0xC SLOAD DUP2 JUMP JUMPDEST PUSH1 0xB PUSH1 0x20 MSTORE DUP1 PUSH1 0x0 MSTORE PUSH1 0x40 PUSH1 0x0 KECCAK256 PUSH1 0x0 SWAP2 POP SWAP1 POP DUP1 PUSH1 0x0 ADD DUP1 SLOAD PUSH2 0x93B SWAP1 PUSH2 0x1754 JUMP JUMPDEST DUP1 PUSH1 0x1F ADD PUSH1 0x20 DUP1 SWAP2 DIV MUL PUSH1 0x20 ADD PUSH1 0x40 MLOAD SWAP1 DUP2 ADD PUSH1 0x40 MSTORE DUP1 SWAP3 SWAP2 SWAP1 DUP2 DUP2 MSTORE PUSH1 0x20 ADD DUP3 DUP1 SLOAD PUSH2 0x967 SWAP1 PUSH2 0x1754 JUMP JUMPDEST DUP1 ISZERO PUSH2 0x9B4 JUMPI DUP1 PUSH1 0x1F LT PUSH2 0x989 JUMPI PUSH2 0x100 DUP1 DUP4 SLOAD DIV MUL DUP4 MSTORE SWAP2 PUSH1 0x20 ADD SWAP2 PUSH2 0x9B4 JUMP JUMPDEST DUP3 ADD SWAP2 SWAP1 PUSH1 0x0 MSTORE PUSH1 0x20 PUSH1 0x0 KECCAK256 SWAP1 JUMPDEST DUP2 SLOAD DUP2 MSTORE SWAP1 PUSH1 0x1 ADD SWAP1 PUSH1 0x20 ADD DUP1 DUP4 GT PUSH2 0x997 JUMPI DUP3 SWAP1 SUB PUSH1 0x1F AND DUP3 ADD SWAP2 JUMPDEST POP POP POP POP POP SWAP1 DUP1 PUSH1 0x1 ADD SLOAD SWAP1 DUP1 PUSH1 0x2 ADD PUSH1 0x0 SWAP1 SLOAD SWAP1 PUSH2 0x100 EXP SWAP1 DIV PUSH20 0xFFFFFFFFFFFFFFFFFFFFFFFFFFFFFFFFFFFFFFFF AND SWAP1 DUP1 PUSH1 0x2 ADD PUSH1 0x14 SWAP1 SLOAD SWAP1 PUSH2 0x100 EXP SWAP1 DIV PUSH1 0xFF AND SWAP1 DUP1 PUSH1 0x3 ADD SLOAD SWAP1 POP DUP6 JUMP JUMPDEST PUSH1 0xD SLOAD DUP2 JUMP JUMPDEST PUSH1 0x0 DUP1 SLOAD SWAP1 PUSH2 0x100 EXP SWAP1 DIV PUSH20 0xFFFFFFFFFFFFFFFFFFFFFFFFFFFFFFFFFFFFFFFF AND PUSH20 0xFFFFFFFFFFFFFFFFFFFFFFFFFFFFFFFFFFFFFFFF AND CALLER PUSH20 0xFFFFFFFFFFFFFFFFFFFFFFFFFFFFFFFFFFFFFFFF AND EQ PUSH2 0xA61 JUMPI PUSH1 0x0 DUP1 REVERT JUMPDEST DUP2 SELFBALANCE LT ISZERO PUSH2 0xA6E JUMPI PUSH1 0x0 DUP1 REVERT JUMPDEST PUSH1 0x0 PUSH1 0xB PUSH1 0x0 PUSH1 0xC SLOAD DUP2 MSTORE PUSH1 0x20 ADD SWAP1 DUP2 MSTORE PUSH1 0x20 ADD PUSH1 0x0 KECCAK256 SWAP1 POP DUP4 DUP2 PUSH1 0x0 ADD SWAP1 DUP1 MLOAD SWAP1 PUSH1 0x20 ADD SWAP1 PUSH2 0xA9F SWAP3 SWAP2 SWAP1 PUSH2 0x1159 JUMP JUMPDEST POP DUP3 DUP2 PUSH1 0x1 ADD DUP2 SWAP1 SSTORE POP DUP2 DUP2 PUSH1 0x2 ADD PUSH1 0x0 PUSH2 0x100 EXP DUP2 SLOAD DUP2 PUSH20 0xFFFFFFFFFFFFFFFFFFFFFFFFFFFFFFFFFFFFFFFF MUL NOT AND SWAP1 DUP4 PUSH20 0xFFFFFFFFFFFFFFFFFFFFFFFFFFFFFFFFFFFFFFFF AND MUL OR SWAP1 SSTORE POP PUSH1 0x0 DUP2 PUSH1 0x2 ADD PUSH1 0x14 PUSH2 0x100 EXP DUP2 SLOAD DUP2 PUSH1 0xFF MUL NOT AND SWAP1 DUP4 ISZERO ISZERO MUL OR SWAP1 SSTORE POP PUSH1 0xC PUSH1 0x0 DUP2 SLOAD DUP1 SWAP3 SWAP2 SWAP1 PUSH2 0xB1C SWAP1 PUSH2 0x17B7 JUMP JUMPDEST SWAP2 SWAP1 POP SSTORE POP POP POP POP POP JUMP JUMPDEST PUSH1 0x9 SLOAD DUP2 JUMP JUMPDEST PUSH1 0x3 DUP1 SLOAD PUSH2 0xB3A SWAP1 PUSH2 0x1754 JUMP JUMPDEST DUP1 PUSH1 0x1F ADD PUSH1 0x20 DUP1 SWAP2 DIV MUL PUSH1 0x20 ADD PUSH1 0x40 MLOAD SWAP1 DUP2 ADD PUSH1 0x40 MSTORE DUP1 SWAP3 SWAP2 SWAP1 DUP2 DUP2 MSTORE PUSH1 0x20 ADD DUP3 DUP1 SLOAD PUSH2 0xB66 SWAP1 PUSH2 0x1754 JUMP JUMPDEST DUP1 ISZERO PUSH2 0xBB3 JUMPI DUP1 PUSH1 0x1F LT PUSH2 0xB88 JUMPI PUSH2 0x100 DUP1 DUP4 SLOAD DIV MUL DUP4 MSTORE SWAP2 PUSH1 0x20 ADD SWAP2 PUSH2 0xBB3 JUMP JUMPDEST DUP3 ADD SWAP2 SWAP1 PUSH1 0x0 MSTORE PUSH1 0x20 PUSH1 0x0 KECCAK256 SWAP1 JUMPDEST DUP2 SLOAD DUP2 MSTORE SWAP1 PUSH1 0x1 ADD SWAP1 PUSH1 0x20 ADD DUP1 DUP4 GT PUSH2 0xB96 JUMPI DUP3 SWAP1 SUB PUSH1 0x1F AND DUP3 ADD SWAP2 JUMPDEST POP POP POP POP POP DUP2 JUMP JUMPDEST PUSH1 0x0 PUSH1 0x1 DUP1 PUSH1 0x1 DUP2 GT ISZERO PUSH2 0xBF8 JUMPI PUSH32 0x4E487B7100000000000000000000000000000000000000000000000000000000 PUSH1 0x0 MSTORE PUSH1 0x21 PUSH1 0x4 MSTORE PUSH1 0x24 PUSH1 0x0 REVERT JUMPDEST PUSH1 0x6 PUSH1 0x0 SWAP1 SLOAD SWAP1 PUSH2 0x100 EXP SWAP1 DIV PUSH1 0xFF AND PUSH1 0x1 DUP2 GT ISZERO PUSH2 0xC40 JUMPI PUSH32 0x4E487B7100000000000000000000000000000000000000000000000000000000 PUSH1 0x0 MSTORE PUSH1 0x21 PUSH1 0x4 MSTORE PUSH1 0x24 PUSH1 0x0 REVERT JUMPDEST EQ PUSH2 0xC4A JUMPI PUSH1 0x0 DUP1 REVERT JUMPDEST PUSH1 0x0 PUSH1 0x5 PUSH1 0x0 CALLER PUSH20 0xFFFFFFFFFFFFFFFFFFFFFFFFFFFFFFFFFFFFFFFF AND PUSH20 0xFFFFFFFFFFFFFFFFFFFFFFFFFFFFFFFFFFFFFFFF AND DUP2 MSTORE PUSH1 0x20 ADD SWAP1 DUP2 MSTORE PUSH1 0x20 ADD PUSH1 0x0 KECCAK256 SLOAD GT PUSH2 0xC96 JUMPI PUSH1 0x0 DUP1 REVERT JUMPDEST PUSH1 0x0 PUSH1 0x5 PUSH1 0x0 CALLER PUSH20 0xFFFFFFFFFFFFFFFFFFFFFFFFFFFFFFFFFFFFFFFF AND PUSH20 0xFFFFFFFFFFFFFFFFFFFFFFFFFFFFFFFFFFFFFFFF AND DUP2 MSTORE PUSH1 0x20 ADD SWAP1 DUP2 MSTORE PUSH1 0x20 ADD PUSH1 0x0 KECCAK256 SLOAD SWAP1 POP PUSH1 0x0 PUSH1 0x5 PUSH1 0x0 CALLER PUSH20 0xFFFFFFFFFFFFFFFFFFFFFFFFFFFFFFFFFFFFFFFF AND PUSH20 0xFFFFFFFFFFFFFFFFFFFFFFFFFFFFFFFFFFFFFFFF AND DUP2 MSTORE PUSH1 0x20 ADD SWAP1 DUP2 MSTORE PUSH1 0x20 ADD PUSH1 0x0 KECCAK256 DUP2 SWAP1 SSTORE POP CALLER PUSH20 0xFFFFFFFFFFFFFFFFFFFFFFFFFFFFFFFFFFFFFFFF AND PUSH2 0x8FC DUP3 SWAP1 DUP2 ISZERO MUL SWAP1 PUSH1 0x40 MLOAD PUSH1 0x0 PUSH1 0x40 MLOAD DUP1 DUP4 SUB DUP2 DUP6 DUP9 DUP9 CALL SWAP4 POP POP POP POP PUSH2 0xDA6 JUMPI DUP1 PUSH1 0x5 PUSH1 0x0 CALLER PUSH20 0xFFFFFFFFFFFFFFFFFFFFFFFFFFFFFFFFFFFFFFFF AND PUSH20 0xFFFFFFFFFFFFFFFFFFFFFFFFFFFFFFFFFFFFFFFF AND DUP2 MSTORE PUSH1 0x20 ADD SWAP1 DUP2 MSTORE PUSH1 0x20 ADD PUSH1 0x0 KECCAK256 DUP2 SWAP1 SSTORE POP PUSH1 0x0 SWAP3 POP POP PUSH2 0xDD8 JUMP JUMPDEST DUP1 PUSH1 0x4 SLOAD PUSH2 0xDB4 SWAP2 SWAP1 PUSH2 0x1647 JUMP JUMPDEST PUSH1 0x4 DUP2 SWAP1 SSTORE POP PUSH1 0xD PUSH1 0x0 DUP2 SLOAD DUP1 SWAP3 SWAP2 SWAP1 PUSH2 0xDCD SWAP1 PUSH2 0x172A JUMP JUMPDEST SWAP2 SWAP1 POP SSTORE POP PUSH1 0x1 SWAP3 POP POP JUMPDEST POP SWAP1 JUMP JUMPDEST PUSH1 0x6 PUSH1 0x0 SWAP1 SLOAD SWAP1 PUSH2 0x100 EXP SWAP1 DIV PUSH1 0xFF AND DUP2 JUMP JUMPDEST PUSH1 0x8 SLOAD DUP2 JUMP JUMPDEST PUSH1 0x0 DUP1 PUSH1 0x1 DUP2 GT ISZERO PUSH2 0xE30 JUMPI PUSH32 0x4E487B7100000000000000000000000000000000000000000000000000000000 PUSH1 0x0 MSTORE PUSH1 0x21 PUSH1 0x4 MSTORE PUSH1 0x24 PUSH1 0x0 REVERT JUMPDEST PUSH1 0x6 PUSH1 0x0 SWAP1 SLOAD SWAP1 PUSH2 0x100 EXP SWAP1 DIV PUSH1 0xFF AND PUSH1 0x1 DUP2 GT ISZERO PUSH2 0xE78 JUMPI PUSH32 0x4E487B7100000000000000000000000000000000000000000000000000000000 PUSH1 0x0 MSTORE PUSH1 0x21 PUSH1 0x4 MSTORE PUSH1 0x24 PUSH1 0x0 REVERT JUMPDEST EQ PUSH2 0xE82 JUMPI PUSH1 0x0 DUP1 REVERT JUMPDEST PUSH1 0x0 DUP1 SLOAD SWAP1 PUSH2 0x100 EXP SWAP1 DIV PUSH20 0xFFFFFFFFFFFFFFFFFFFFFFFFFFFFFFFFFFFFFFFF AND PUSH20 0xFFFFFFFFFFFFFFFFFFFFFFFFFFFFFFFFFFFFFFFF AND CALLER PUSH20 0xFFFFFFFFFFFFFFFFFFFFFFFFFFFFFFFFFFFFFFFF AND EQ ISZERO PUSH2 0xEDB JUMPI PUSH1 0x0 DUP1 REVERT JUMPDEST PUSH1 0x9 SLOAD CALLVALUE LT ISZERO PUSH2 0xEEA JUMPI PUSH1 0x0 DUP1 REVERT JUMPDEST CALLVALUE PUSH1 0x5 PUSH1 0x0 CALLER PUSH20 0xFFFFFFFFFFFFFFFFFFFFFFFFFFFFFFFFFFFFFFFF AND PUSH20 0xFFFFFFFFFFFFFFFFFFFFFFFFFFFFFFFFFFFFFFFF AND DUP2 MSTORE PUSH1 0x20 ADD SWAP1 DUP2 MSTORE PUSH1 0x20 ADD PUSH1 0x0 KECCAK256 SLOAD PUSH2 0xF35 SWAP2 SWAP1 PUSH2 0x15C0 JUMP JUMPDEST PUSH1 0x5 PUSH1 0x0 CALLER PUSH20 0xFFFFFFFFFFFFFFFFFFFFFFFFFFFFFFFFFFFFFFFF AND PUSH20 0xFFFFFFFFFFFFFFFFFFFFFFFFFFFFFFFFFFFFFFFF AND DUP2 MSTORE PUSH1 0x20 ADD SWAP1 DUP2 MSTORE PUSH1 0x20 ADD PUSH1 0x0 KECCAK256 DUP2 SWAP1 SSTORE POP PUSH1 0x1 PUSH1 0xA PUSH1 0x0 CALLER PUSH20 0xFFFFFFFFFFFFFFFFFFFFFFFFFFFFFFFFFFFFFFFF AND PUSH20 0xFFFFFFFFFFFFFFFFFFFFFFFFFFFFFFFFFFFFFFFF AND DUP2 MSTORE PUSH1 0x20 ADD SWAP1 DUP2 MSTORE PUSH1 0x20 ADD PUSH1 0x0 KECCAK256 PUSH1 0x0 PUSH2 0x100 EXP DUP2 SLOAD DUP2 PUSH1 0xFF MUL NOT AND SWAP1 DUP4 ISZERO ISZERO MUL OR SWAP1 SSTORE POP PUSH1 0xD PUSH1 0x0 DUP2 SLOAD DUP1 SWAP3 SWAP2 SWAP1 PUSH2 0xFE3 SWAP1 PUSH2 0x17B7 JUMP JUMPDEST SWAP2 SWAP1 POP SSTORE POP CALLVALUE PUSH1 0x4 SLOAD PUSH2 0xFF6 SWAP2 SWAP1 PUSH2 0x15C0 JUMP JUMPDEST PUSH1 0x4 DUP2 SWAP1 SSTORE POP CALLVALUE PUSH1 0x8 SLOAD PUSH2 0x100A SWAP2 SWAP1 PUSH2 0x15C0 JUMP JUMPDEST PUSH1 0x8 DUP2 SWAP1 SSTORE POP PUSH2 0x1018 PUSH2 0x663 JUMP JUMPDEST POP JUMP JUMPDEST PUSH1 0x0 PUSH1 0xB PUSH1 0x0 DUP4 DUP2 MSTORE PUSH1 0x20 ADD SWAP1 DUP2 MSTORE PUSH1 0x20 ADD PUSH1 0x0 KECCAK256 SWAP1 POP PUSH1 0xA PUSH1 0x0 CALLER PUSH20 0xFFFFFFFFFFFFFFFFFFFFFFFFFFFFFFFFFFFFFFFF AND PUSH20 0xFFFFFFFFFFFFFFFFFFFFFFFFFFFFFFFFFFFFFFFF AND DUP2 MSTORE PUSH1 0x20 ADD SWAP1 DUP2 MSTORE PUSH1 0x20 ADD PUSH1 0x0 KECCAK256 PUSH1 0x0 SWAP1 SLOAD SWAP1 PUSH2 0x100 EXP SWAP1 DIV PUSH1 0xFF AND PUSH2 0x1088 JUMPI PUSH1 0x0 DUP1 REVERT JUMPDEST DUP1 PUSH1 0x4 ADD PUSH1 0x0 CALLER PUSH20 0xFFFFFFFFFFFFFFFFFFFFFFFFFFFFFFFFFFFFFFFF AND PUSH20 0xFFFFFFFFFFFFFFFFFFFFFFFFFFFFFFFFFFFFFFFF AND DUP2 MSTORE PUSH1 0x20 ADD SWAP1 DUP2 MSTORE PUSH1 0x20 ADD PUSH1 0x0 KECCAK256 PUSH1 0x0 SWAP1 SLOAD SWAP1 PUSH2 0x100 EXP SWAP1 DIV PUSH1 0xFF AND ISZERO PUSH2 0x10E1 JUMPI PUSH1 0x0 DUP1 REVERT JUMPDEST PUSH1 0x1 DUP2 PUSH1 0x4 ADD PUSH1 0x0 CALLER PUSH20 0xFFFFFFFFFFFFFFFFFFFFFFFFFFFFFFFFFFFFFFFF AND PUSH20 0xFFFFFFFFFFFFFFFFFFFFFFFFFFFFFFFFFFFFFFFF AND DUP2 MSTORE PUSH1 0x20 ADD SWAP1 DUP2 MSTORE PUSH1 0x20 ADD PUSH1 0x0 KECCAK256 PUSH1 0x0 PUSH2 0x100 EXP DUP2 SLOAD DUP2 PUSH1 0xFF MUL NOT AND SWAP1 DUP4 ISZERO ISZERO MUL OR SWAP1 SSTORE POP DUP1 PUSH1 0x3 ADD PUSH1 0x0 DUP2 SLOAD DUP1 SWAP3 SWAP2 SWAP1 PUSH2 0x1150 SWAP1 PUSH2 0x17B7 JUMP JUMPDEST SWAP2 SWAP1 POP SSTORE POP POP POP JUMP JUMPDEST DUP3 DUP1 SLOAD PUSH2 0x1165 SWAP1 PUSH2 0x1754 JUMP JUMPDEST SWAP1 PUSH1 0x0 MSTORE PUSH1 0x20 PUSH1 0x0 KECCAK256 SWAP1 PUSH1 0x1F ADD PUSH1 0x20 SWAP1 DIV DUP2 ADD SWAP3 DUP3 PUSH2 0x1187 JUMPI PUSH1 0x0 DUP6 SSTORE PUSH2 0x11CE JUMP JUMPDEST DUP3 PUSH1 0x1F LT PUSH2 0x11A0 JUMPI DUP1 MLOAD PUSH1 0xFF NOT AND DUP4 DUP1 ADD OR DUP6 SSTORE PUSH2 0x11CE JUMP JUMPDEST DUP3 DUP1 ADD PUSH1 0x1 ADD DUP6 SSTORE DUP3 ISZERO PUSH2 0x11CE JUMPI SWAP2 DUP3 ADD JUMPDEST DUP3 DUP2 GT ISZERO PUSH2 0x11CD JUMPI DUP3 MLOAD DUP3 SSTORE SWAP2 PUSH1 0x20 ADD SWAP2 SWAP1 PUSH1 0x1 ADD SWAP1 PUSH2 0x11B2 JUMP JUMPDEST JUMPDEST POP SWAP1 POP PUSH2 0x11DB SWAP2 SWAP1 PUSH2 0x11DF JUMP JUMPDEST POP SWAP1 JUMP JUMPDEST JUMPDEST DUP1 DUP3 GT ISZERO PUSH2 0x11F8 JUMPI PUSH1 0x0 DUP2 PUSH1 0x0 SWAP1 SSTORE POP PUSH1 0x1 ADD PUSH2 0x11E0 JUMP JUMPDEST POP SWAP1 JUMP JUMPDEST PUSH1 0x0 PUSH2 0x120F PUSH2 0x120A DUP5 PUSH2 0x1573 JUMP JUMPDEST PUSH2 0x154E JUMP JUMPDEST SWAP1 POP DUP3 DUP2 MSTORE PUSH1 0x20 DUP2 ADD DUP5 DUP5 DUP5 ADD GT ISZERO PUSH2 0x1227 JUMPI PUSH1 0x0 DUP1 REVERT JUMPDEST PUSH2 0x1232 DUP5 DUP3 DUP6 PUSH2 0x16E8 JUMP JUMPDEST POP SWAP4 SWAP3 POP POP POP JUMP JUMPDEST PUSH1 0x0 DUP2 CALLDATALOAD SWAP1 POP PUSH2 0x1249 DUP2 PUSH2 0x1910 JUMP JUMPDEST SWAP3 SWAP2 POP POP JUMP JUMPDEST PUSH1 0x0 DUP3 PUSH1 0x1F DUP4 ADD SLT PUSH2 0x1260 JUMPI PUSH1 0x0 DUP1 REVERT JUMPDEST DUP2 CALLDATALOAD PUSH2 0x1270 DUP5 DUP3 PUSH1 0x20 DUP7 ADD PUSH2 0x11FC JUMP JUMPDEST SWAP2 POP POP SWAP3 SWAP2 POP POP JUMP JUMPDEST PUSH1 0x0 DUP2 CALLDATALOAD SWAP1 POP PUSH2 0x1288 DUP2 PUSH2 0x1927 JUMP JUMPDEST SWAP3 SWAP2 POP POP JUMP JUMPDEST PUSH1 0x0 PUSH1 0x20 DUP3 DUP5 SUB SLT ISZERO PUSH2 0x12A0 JUMPI PUSH1 0x0 DUP1 REVERT JUMPDEST PUSH1 0x0 PUSH2 0x12AE DUP5 DUP3 DUP6 ADD PUSH2 0x123A JUMP JUMPDEST SWAP2 POP POP SWAP3 SWAP2 POP POP JUMP JUMPDEST PUSH1 0x0 DUP1 PUSH1 0x0 PUSH1 0x60 DUP5 DUP7 SUB SLT ISZERO PUSH2 0x12CC JUMPI PUSH1 0x0 DUP1 REVERT JUMPDEST PUSH1 0x0 DUP5 ADD CALLDATALOAD PUSH8 0xFFFFFFFFFFFFFFFF DUP2 GT ISZERO PUSH2 0x12E6 JUMPI PUSH1 0x0 DUP1 REVERT JUMPDEST PUSH2 0x12F2 DUP7 DUP3 DUP8 ADD PUSH2 0x124F JUMP JUMPDEST SWAP4 POP POP PUSH1 0x20 PUSH2 0x1303 DUP7 DUP3 DUP8 ADD PUSH2 0x1279 JUMP JUMPDEST SWAP3 POP POP PUSH1 0x40 PUSH2 0x1314 DUP7 DUP3 DUP8 ADD PUSH2 0x123A JUMP JUMPDEST SWAP2 POP POP SWAP3 POP SWAP3 POP SWAP3 JUMP JUMPDEST PUSH1 0x0 PUSH1 0x20 DUP3 DUP5 SUB SLT ISZERO PUSH2 0x1330 JUMPI PUSH1 0x0 DUP1 REVERT JUMPDEST PUSH1 0x0 PUSH2 0x133E DUP5 DUP3 DUP6 ADD PUSH2 0x1279 JUMP JUMPDEST SWAP2 POP POP SWAP3 SWAP2 POP POP JUMP JUMPDEST PUSH2 0x1350 DUP2 PUSH2 0x167B JUMP JUMPDEST DUP3 MSTORE POP POP JUMP JUMPDEST PUSH2 0x135F DUP2 PUSH2 0x168D JUMP JUMPDEST DUP3 MSTORE POP POP JUMP JUMPDEST PUSH2 0x136E DUP2 PUSH2 0x16D6 JUMP JUMPDEST DUP3 MSTORE POP POP JUMP JUMPDEST PUSH1 0x0 PUSH2 0x137F DUP3 PUSH2 0x15A4 JUMP JUMPDEST PUSH2 0x1389 DUP2 DUP6 PUSH2 0x15AF JUMP JUMPDEST SWAP4 POP PUSH2 0x1399 DUP2 DUP6 PUSH1 0x20 DUP7 ADD PUSH2 0x16F7 JUMP JUMPDEST PUSH2 0x13A2 DUP2 PUSH2 0x18EB JUMP JUMPDEST DUP5 ADD SWAP2 POP POP SWAP3 SWAP2 POP POP JUMP JUMPDEST PUSH2 0x13B6 DUP2 PUSH2 0x16CC JUMP JUMPDEST DUP3 MSTORE POP POP JUMP JUMPDEST PUSH1 0x0 PUSH1 0x20 DUP3 ADD SWAP1 POP PUSH2 0x13D1 PUSH1 0x0 DUP4 ADD DUP5 PUSH2 0x1347 JUMP JUMPDEST SWAP3 SWAP2 POP POP JUMP JUMPDEST PUSH1 0x0 PUSH1 0x20 DUP3 ADD SWAP1 POP PUSH2 0x13EC PUSH1 0x0 DUP4 ADD DUP5 PUSH2 0x1356 JUMP JUMPDEST SWAP3 SWAP2 POP POP JUMP JUMPDEST PUSH1 0x0 PUSH1 0x20 DUP3 ADD SWAP1 POP PUSH2 0x1407 PUSH1 0x0 DUP4 ADD DUP5 PUSH2 0x1365 JUMP JUMPDEST SWAP3 SWAP2 POP POP JUMP JUMPDEST PUSH1 0x0 PUSH1 0x20 DUP3 ADD SWAP1 POP DUP2 DUP2 SUB PUSH1 0x0 DUP4 ADD MSTORE PUSH2 0x1427 DUP2 DUP5 PUSH2 0x1374 JUMP JUMPDEST SWAP1 POP SWAP3 SWAP2 POP POP JUMP JUMPDEST PUSH1 0x0 PUSH1 0xA0 DUP3 ADD SWAP1 POP DUP2 DUP2 SUB PUSH1 0x0 DUP4 ADD MSTORE PUSH2 0x1449 DUP2 DUP9 PUSH2 0x1374 JUMP JUMPDEST SWAP1 POP PUSH2 0x1458 PUSH1 0x20 DUP4 ADD DUP8 PUSH2 0x13AD JUMP JUMPDEST PUSH2 0x1465 PUSH1 0x40 DUP4 ADD DUP7 PUSH2 0x1347 JUMP JUMPDEST PUSH2 0x1472 PUSH1 0x60 DUP4 ADD DUP6 PUSH2 0x1356 JUMP JUMPDEST PUSH2 0x147F PUSH1 0x80 DUP4 ADD DUP5 PUSH2 0x13AD JUMP JUMPDEST SWAP7 SWAP6 POP POP POP POP POP POP JUMP JUMPDEST PUSH1 0x0 PUSH1 0x20 DUP3 ADD SWAP1 POP PUSH2 0x149E PUSH1 0x0 DUP4 ADD DUP5 PUSH2 0x13AD JUMP JUMPDEST SWAP3 SWAP2 POP POP JUMP JUMPDEST PUSH1 0x0 PUSH2 0x140 DUP3 ADD SWAP1 POP PUSH2 0x14BA PUSH1 0x0 DUP4 ADD DUP14 PUSH2 0x13AD JUMP JUMPDEST PUSH2 0x14C7 PUSH1 0x20 DUP4 ADD DUP13 PUSH2 0x13AD JUMP JUMPDEST PUSH2 0x14D4 PUSH1 0x40 DUP4 ADD DUP12 PUSH2 0x13AD JUMP JUMPDEST PUSH2 0x14E1 PUSH1 0x60 DUP4 ADD DUP11 PUSH2 0x13AD JUMP JUMPDEST PUSH2 0x14EE PUSH1 0x80 DUP4 ADD DUP10 PUSH2 0x1347 JUMP JUMPDEST DUP2 DUP2 SUB PUSH1 0xA0 DUP4 ADD MSTORE PUSH2 0x1500 DUP2 DUP9 PUSH2 0x1374 JUMP JUMPDEST SWAP1 POP PUSH2 0x150F PUSH1 0xC0 DUP4 ADD DUP8 PUSH2 0x13AD JUMP JUMPDEST DUP2 DUP2 SUB PUSH1 0xE0 DUP4 ADD MSTORE PUSH2 0x1521 DUP2 DUP7 PUSH2 0x1374 JUMP JUMPDEST SWAP1 POP PUSH2 0x1531 PUSH2 0x100 DUP4 ADD DUP6 PUSH2 0x13AD JUMP JUMPDEST PUSH2 0x153F PUSH2 0x120 DUP4 ADD DUP5 PUSH2 0x13AD JUMP JUMPDEST SWAP12 SWAP11 POP POP POP POP POP POP POP POP POP POP POP JUMP JUMPDEST PUSH1 0x0 PUSH2 0x1558 PUSH2 0x1569 JUMP JUMPDEST SWAP1 POP PUSH2 0x1564 DUP3 DUP3 PUSH2 0x1786 JUMP JUMPDEST SWAP2 SWAP1 POP JUMP JUMPDEST PUSH1 0x0 PUSH1 0x40 MLOAD SWAP1 POP SWAP1 JUMP JUMPDEST PUSH1 0x0 PUSH8 0xFFFFFFFFFFFFFFFF DUP3 GT ISZERO PUSH2 0x158E JUMPI PUSH2 0x158D PUSH2 0x18BC JUMP JUMPDEST JUMPDEST PUSH2 0x1597 DUP3 PUSH2 0x18EB JUMP JUMPDEST SWAP1 POP PUSH1 0x20 DUP2 ADD SWAP1 POP SWAP2 SWAP1 POP JUMP JUMPDEST PUSH1 0x0 DUP2 MLOAD SWAP1 POP SWAP2 SWAP1 POP JUMP JUMPDEST PUSH1 0x0 DUP3 DUP3 MSTORE PUSH1 0x20 DUP3 ADD SWAP1 POP SWAP3 SWAP2 POP POP JUMP JUMPDEST PUSH1 0x0 PUSH2 0x15CB DUP3 PUSH2 0x16CC JUMP JUMPDEST SWAP2 POP PUSH2 0x15D6 DUP4 PUSH2 0x16CC JUMP JUMPDEST SWAP3 POP DUP3 PUSH32 0xFFFFFFFFFFFFFFFFFFFFFFFFFFFFFFFFFFFFFFFFFFFFFFFFFFFFFFFFFFFFFFFF SUB DUP3 GT ISZERO PUSH2 0x160B JUMPI PUSH2 0x160A PUSH2 0x1800 JUMP JUMPDEST JUMPDEST DUP3 DUP3 ADD SWAP1 POP SWAP3 SWAP2 POP POP JUMP JUMPDEST PUSH1 0x0 PUSH2 0x1621 DUP3 PUSH2 0x16CC JUMP JUMPDEST SWAP2 POP PUSH2 0x162C DUP4 PUSH2 0x16CC JUMP JUMPDEST SWAP3 POP DUP3 PUSH2 0x163C JUMPI PUSH2 0x163B PUSH2 0x182F JUMP JUMPDEST JUMPDEST DUP3 DUP3 DIV SWAP1 POP SWAP3 SWAP2 POP POP JUMP JUMPDEST PUSH1 0x0 PUSH2 0x1652 DUP3 PUSH2 0x16CC JUMP JUMPDEST SWAP2 POP PUSH2 0x165D DUP4 PUSH2 0x16CC JUMP JUMPDEST SWAP3 POP DUP3 DUP3 LT ISZERO PUSH2 0x1670 JUMPI PUSH2 0x166F PUSH2 0x1800 JUMP JUMPDEST JUMPDEST DUP3 DUP3 SUB SWAP1 POP SWAP3 SWAP2 POP POP JUMP JUMPDEST PUSH1 0x0 PUSH2 0x1686 DUP3 PUSH2 0x16AC JUMP JUMPDEST SWAP1 POP SWAP2 SWAP1 POP JUMP JUMPDEST PUSH1 0x0 DUP2 ISZERO ISZERO SWAP1 POP SWAP2 SWAP1 POP JUMP JUMPDEST PUSH1 0x0 DUP2 SWAP1 POP PUSH2 0x16A7 DUP3 PUSH2 0x18FC JUMP JUMPDEST SWAP2 SWAP1 POP JUMP JUMPDEST PUSH1 0x0 PUSH20 0xFFFFFFFFFFFFFFFFFFFFFFFFFFFFFFFFFFFFFFFF DUP3 AND SWAP1 POP SWAP2 SWAP1 POP JUMP JUMPDEST PUSH1 0x0 DUP2 SWAP1 POP SWAP2 SWAP1 POP JUMP JUMPDEST PUSH1 0x0 PUSH2 0x16E1 DUP3 PUSH2 0x1699 JUMP JUMPDEST SWAP1 POP SWAP2 SWAP1 POP JUMP JUMPDEST DUP3 DUP2 DUP4 CALLDATACOPY PUSH1 0x0 DUP4 DUP4 ADD MSTORE POP POP POP JUMP JUMPDEST PUSH1 0x0 JUMPDEST DUP4 DUP2 LT ISZERO PUSH2 0x1715 JUMPI DUP1 DUP3 ADD MLOAD DUP2 DUP5 ADD MSTORE PUSH1 0x20 DUP2 ADD SWAP1 POP PUSH2 0x16FA JUMP JUMPDEST DUP4 DUP2 GT ISZERO PUSH2 0x1724 JUMPI PUSH1 0x0 DUP5 DUP5 ADD MSTORE JUMPDEST POP POP POP POP JUMP JUMPDEST PUSH1 0x0 PUSH2 0x1735 DUP3 PUSH2 0x16CC JUMP JUMPDEST SWAP2 POP PUSH1 0x0 DUP3 EQ ISZERO PUSH2 0x1749 JUMPI PUSH2 0x1748 PUSH2 0x1800 JUMP JUMPDEST JUMPDEST PUSH1 0x1 DUP3 SUB SWAP1 POP SWAP2 SWAP1 POP JUMP JUMPDEST PUSH1 0x0 PUSH1 0x2 DUP3 DIV SWAP1 POP PUSH1 0x1 DUP3 AND DUP1 PUSH2 0x176C JUMPI PUSH1 0x7F DUP3 AND SWAP2 POP JUMPDEST PUSH1 0x20 DUP3 LT DUP2 EQ ISZERO PUSH2 0x1780 JUMPI PUSH2 0x177F PUSH2 0x188D JUMP JUMPDEST JUMPDEST POP SWAP2 SWAP1 POP JUMP JUMPDEST PUSH2 0x178F DUP3 PUSH2 0x18EB JUMP JUMPDEST DUP2 ADD DUP2 DUP2 LT PUSH8 0xFFFFFFFFFFFFFFFF DUP3 GT OR ISZERO PUSH2 0x17AE JUMPI PUSH2 0x17AD PUSH2 0x18BC JUMP JUMPDEST JUMPDEST DUP1 PUSH1 0x40 MSTORE POP POP POP JUMP JUMPDEST PUSH1 0x0 PUSH2 0x17C2 DUP3 PUSH2 0x16CC JUMP JUMPDEST SWAP2 POP PUSH32 0xFFFFFFFFFFFFFFFFFFFFFFFFFFFFFFFFFFFFFFFFFFFFFFFFFFFFFFFFFFFFFFFF DUP3 EQ ISZERO PUSH2 0x17F5 JUMPI PUSH2 0x17F4 PUSH2 0x1800 JUMP JUMPDEST JUMPDEST PUSH1 0x1 DUP3 ADD SWAP1 POP SWAP2 SWAP1 POP JUMP JUMPDEST PUSH32 0x4E487B7100000000000000000000000000000000000000000000000000000000 PUSH1 0x0 MSTORE PUSH1 0x11 PUSH1 0x4 MSTORE PUSH1 0x24 PUSH1 0x0 REVERT JUMPDEST PUSH32 0x4E487B7100000000000000000000000000000000000000000000000000000000 PUSH1 0x0 MSTORE PUSH1 0x12 PUSH1 0x4 MSTORE PUSH1 0x24 PUSH1 0x0 REVERT JUMPDEST PUSH32 0x4E487B7100000000000000000000000000000000000000000000000000000000 PUSH1 0x0 MSTORE PUSH1 0x21 PUSH1 0x4 MSTORE PUSH1 0x24 PUSH1 0x0 REVERT JUMPDEST PUSH32 0x4E487B7100000000000000000000000000000000000000000000000000000000 PUSH1 0x0 MSTORE PUSH1 0x22 PUSH1 0x4 MSTORE PUSH1 0x24 PUSH1 0x0 REVERT JUMPDEST PUSH32 0x4E487B7100000000000000000000000000000000000000000000000000000000 PUSH1 0x0 MSTORE PUSH1 0x41 PUSH1 0x4 MSTORE PUSH1 0x24 PUSH1 0x0 REVERT JUMPDEST PUSH1 0x0 PUSH1 0x1F NOT PUSH1 0x1F DUP4 ADD AND SWAP1 POP SWAP2 SWAP1 POP JUMP JUMPDEST PUSH1 0x2 DUP2 LT PUSH2 0x190D JUMPI PUSH2 0x190C PUSH2 0x185E JUMP JUMPDEST JUMPDEST POP JUMP JUMPDEST PUSH2 0x1919 DUP2 PUSH2 0x167B JUMP JUMPDEST DUP2 EQ PUSH2 0x1924 JUMPI PUSH1 0x0 DUP1 REVERT JUMPDEST POP JUMP JUMPDEST PUSH2 0x1930 DUP2 PUSH2 0x16CC JUMP JUMPDEST DUP2 EQ PUSH2 0x193B JUMPI PUSH1 0x0 DUP1 REVERT JUMPDEST POP JUMP INVALID LOG2 PUSH5 0x6970667358 0x22 SLT KECCAK256 DUP5 0xE7 JUMP PUSH21 0x2F7C78AC969E80A96F7F37E93048B6D942026D96CD SELFBALANCE PUSH17 0x6E5DFDFD1F64736F6C63430008040033A2 PUSH5 0x6970667358 0x22 SLT KECCAK256 XOR SSTORE MUL 0xED 0xB3 0xCC DUP11 DELEGATECALL 0xD4 SWAP2 0xBE CALLDATACOPY RETURN 0x2F 0xC6 0xD1 PUSH19 0xD1B2F54C6A28C339BC0E96E6EEC36F64736F6C PUSH4 0x43000804 STOP CALLER "},"gasEstimates":{"creation":{"codeDepositCost":"2382800","executionCost":"2560","totalCost":"2385360"},"external":{"campaigns(uint256)":"infinite","createCampaign(uint256,uint256,string,string,uint256)":"infinite","deployedCampaigns(uint256)":"2378","getDeployedContracts()":"infinite"}},"methodIdentifiers":{"campaigns(uint256)":"141961bc","createCampaign(uint256,uint256,string,string,uint256)":"28c3ce5b","deployedCampaigns(uint256)":"339d50a5","getDeployedContracts()":"aa9a068f"}},"storageLayout":{"storage":[{"astId":4,"contract":"campaign.sol:CampaignFactory","label":"deployedCampaigns","offset":0,"slot":"0","type":"t_array(t_address)dyn_storage"},{"astId":21,"contract":"campaign.sol:CampaignFactory","label":"campaigns","offset":0,"slot":"1","type":"t_array(t_struct(campaignDeploy)17_storage)dyn_storage"}],"types":{"t_address":{"encoding":"inplace","label":"address","numberOfBytes":"20"},"t_array(t_address)dyn_storage":{"base":"t_address","encoding":"dynamic_array","label":"address[]","numberOfBytes":"32"},"t_array(t_struct(campaignDeploy)17_storage)dyn_storage":{"base":"t_struct(campaignDeploy)17_storage","encoding":"dynamic_array","label":"struct CampaignFactory.campaignDeploy[]","numberOfBytes":"32"},"t_string_storage":{"encoding":"bytes","label":"string","numberOfBytes":"32"},"t_struct(campaignDeploy)17_storage":{"encoding":"inplace","label":"struct CampaignFactory.campaignDeploy","members":[{"astId":6,"contract":"campaign.sol:CampaignFactory","label":"campaign","offset":0,"slot":"0","type":"t_address"},{"astId":8,"contract":"campaign.sol:CampaignFactory","label":"title","offset":0,"slot":"1","type":"t_string_storage"},{"astId":10,"contract":"campaign.sol:CampaignFactory","label":"goal","offset":0,"slot":"2","type":"t_uint256"},{"astId":12,"contract":"campaign.sol:CampaignFactory","label":"description","offset":0,"slot":"3","type":"t_string_storage"},{"astId":14,"contract":"campaign.sol:CampaignFactory","label":"raiseUntil","offset":0,"slot":"4","type":"t_uint256"},{"astId":16,"contract":"campaign.sol:CampaignFactory","label":"totalContribution","offset":0,"slot":"5","type":"t_uint256"}],"numberOfBytes":"192"},"t_uint256":{"encoding":"inplace","label":"uint256","numberOfBytes":"32"}}},"userdoc":{"kind":"user","methods":{},"version":1}}