{"abi":[{"inputs":[{"internalType":"uint256","name":"","type":"uint256"}],"name":"campaigns","outputs":[{"internalType":"address","name":"campaign","type":"address"},{"internalType":"string","name":"title","type":"string"}],"stateMutability":"view","type":"function"},{"inputs":[{"internalType":"uint256","name":"minimum","type":"uint256"},{"internalType":"string","name":"title","type":"string"}],"name":"createCampaign","outputs":[],"stateMutability":"nonpayable","type":"function"},{"inputs":[{"internalType":"uint256","name":"","type":"uint256"}],"name":"deployedCampaigns","outputs":[{"internalType":"address","name":"","type":"address"}],"stateMutability":"view","type":"function"},{"inputs":[],"name":"getDeployedContracts","outputs":[{"components":[{"internalType":"address","name":"campaign","type":"address"},{"internalType":"string","name":"title","type":"string"}],"internalType":"struct CampaignFactory.campaignDeploy[]","name":"","type":"tuple[]"}],"stateMutability":"view","type":"function"}],"devdoc":{"kind":"dev","methods":{},"version":1},"evm":{"assembly":"    /* \"campaign.sol\":69:723  contract CampaignFactory {\r... */\n  mstore(0x40, 0x80)\n  callvalue\n  dup1\n  iszero\n  tag_1\n  jumpi\n  0x00\n  dup1\n  revert\ntag_1:\n  pop\n  dataSize(sub_0)\n  dup1\n  dataOffset(sub_0)\n  0x00\n  codecopy\n  0x00\n  return\nstop\n\nsub_0: assembly {\n        /* \"campaign.sol\":69:723  contract CampaignFactory {\r... */\n      mstore(0x40, 0x80)\n      callvalue\n      dup1\n      iszero\n      tag_1\n      jumpi\n      0x00\n      dup1\n      revert\n    tag_1:\n      pop\n      jumpi(tag_2, lt(calldatasize, 0x04))\n      shr(0xe0, calldataload(0x00))\n      dup1\n      0x141961bc\n      eq\n      tag_3\n      jumpi\n      dup1\n      0x339d50a5\n      eq\n      tag_4\n      jumpi\n      dup1\n      0x4220d656\n      eq\n      tag_5\n      jumpi\n      dup1\n      0xaa9a068f\n      eq\n      tag_6\n      jumpi\n    tag_2:\n      0x00\n      dup1\n      revert\n        /* \"campaign.sol\":232:265  campaignDeploy[] public campaigns */\n    tag_3:\n      tag_7\n      0x04\n      dup1\n      calldatasize\n      sub\n      dup2\n      add\n      swap1\n      tag_8\n      swap2\n      swap1\n      tag_9\n      jump\t// in\n    tag_8:\n      tag_10\n      jump\t// in\n    tag_7:\n      mload(0x40)\n      tag_11\n      swap3\n      swap2\n      swap1\n      tag_12\n      jump\t// in\n    tag_11:\n      mload(0x40)\n      dup1\n      swap2\n      sub\n      swap1\n      return\n        /* \"campaign.sol\":101:135  address[] public deployedCampaigns */\n    tag_4:\n      tag_13\n      0x04\n      dup1\n      calldatasize\n      sub\n      dup2\n      add\n      swap1\n      tag_14\n      swap2\n      swap1\n      tag_9\n      jump\t// in\n    tag_14:\n      tag_15\n      jump\t// in\n    tag_13:\n      mload(0x40)\n      tag_16\n      swap2\n      swap1\n      tag_17\n      jump\t// in\n    tag_16:\n      mload(0x40)\n      dup1\n      swap2\n      sub\n      swap1\n      return\n        /* \"campaign.sol\":274:594  function createCampaign(uint minimum, string memory title) external {\r... */\n    tag_5:\n      tag_18\n      0x04\n      dup1\n      calldatasize\n      sub\n      dup2\n      add\n      swap1\n      tag_19\n      swap2\n      swap1\n      tag_20\n      jump\t// in\n    tag_19:\n      tag_21\n      jump\t// in\n    tag_18:\n      stop\n        /* \"campaign.sol\":606:720  function getDeployedContracts() external view returns(campaignDeploy[] memory) {\r... */\n    tag_6:\n      tag_22\n      tag_23\n      jump\t// in\n    tag_22:\n      mload(0x40)\n      tag_24\n      swap2\n      swap1\n      tag_25\n      jump\t// in\n    tag_24:\n      mload(0x40)\n      dup1\n      swap2\n      sub\n      swap1\n      return\n        /* \"campaign.sol\":232:265  campaignDeploy[] public campaigns */\n    tag_10:\n      0x01\n      dup2\n      dup2\n      sload\n      dup2\n      lt\n      tag_26\n      jumpi\n      0x00\n      dup1\n      revert\n    tag_26:\n      swap1\n      0x00\n      mstore\n      keccak256(0x00, 0x20)\n      swap1\n      0x02\n      mul\n      add\n      0x00\n      swap2\n      pop\n      swap1\n      pop\n      dup1\n      0x00\n      add\n      0x00\n      swap1\n      sload\n      swap1\n      0x0100\n      exp\n      swap1\n      div\n      0xffffffffffffffffffffffffffffffffffffffff\n      and\n      swap1\n      dup1\n      0x01\n      add\n      dup1\n      sload\n      tag_28\n      swap1\n      tag_29\n      jump\t// in\n    tag_28:\n      dup1\n      0x1f\n      add\n      0x20\n      dup1\n      swap2\n      div\n      mul\n      0x20\n      add\n      mload(0x40)\n      swap1\n      dup2\n      add\n      0x40\n      mstore\n      dup1\n      swap3\n      swap2\n      swap1\n      dup2\n      dup2\n      mstore\n      0x20\n      add\n      dup3\n      dup1\n      sload\n      tag_30\n      swap1\n      tag_29\n      jump\t// in\n    tag_30:\n      dup1\n      iszero\n      tag_31\n      jumpi\n      dup1\n      0x1f\n      lt\n      tag_32\n      jumpi\n      0x0100\n      dup1\n      dup4\n      sload\n      div\n      mul\n      dup4\n      mstore\n      swap2\n      0x20\n      add\n      swap2\n      jump(tag_31)\n    tag_32:\n      dup3\n      add\n      swap2\n      swap1\n      0x00\n      mstore\n      keccak256(0x00, 0x20)\n      swap1\n    tag_33:\n      dup2\n      sload\n      dup2\n      mstore\n      swap1\n      0x01\n      add\n      swap1\n      0x20\n      add\n      dup1\n      dup4\n      gt\n      tag_33\n      jumpi\n      dup3\n      swap1\n      sub\n      0x1f\n      and\n      dup3\n      add\n      swap2\n    tag_31:\n      pop\n      pop\n      pop\n      pop\n      pop\n      swap1\n      pop\n      dup3\n      jump\t// out\n        /* \"campaign.sol\":101:135  address[] public deployedCampaigns */\n    tag_15:\n      0x00\n      dup2\n      dup2\n      sload\n      dup2\n      lt\n      tag_34\n      jumpi\n      0x00\n      dup1\n      revert\n    tag_34:\n      swap1\n      0x00\n      mstore\n      keccak256(0x00, 0x20)\n      add\n      0x00\n      swap2\n      pop\n      sload\n      swap1\n      0x0100\n      exp\n      swap1\n      div\n      0xffffffffffffffffffffffffffffffffffffffff\n      and\n      dup2\n      jump\t// out\n        /* \"campaign.sol\":274:594  function createCampaign(uint minimum, string memory title) external {\r... */\n    tag_21:\n        /* \"campaign.sol\":387:407  Campaign newCampaign */\n      0x00\n        /* \"campaign.sol\":423:430  minimum */\n      dup3\n        /* \"campaign.sol\":432:442  msg.sender */\n      caller\n        /* \"campaign.sol\":444:449  title */\n      dup4\n        /* \"campaign.sol\":410:450  new Campaign(minimum, msg.sender, title) */\n      mload(0x40)\n      tag_37\n      swap1\n      tag_38\n      jump\t// in\n    tag_37:\n      tag_39\n      swap4\n      swap3\n      swap2\n      swap1\n      tag_40\n      jump\t// in\n    tag_39:\n      mload(0x40)\n      dup1\n      swap2\n      sub\n      swap1\n      0x00\n      create\n      dup1\n      iszero\n      dup1\n      iszero\n      tag_41\n      jumpi\n      returndatasize\n      0x00\n      dup1\n      returndatacopy\n      revert(0x00, returndatasize)\n    tag_41:\n      pop\n        /* \"campaign.sol\":387:450  Campaign newCampaign = new Campaign(minimum, msg.sender, title) */\n      swap1\n      pop\n        /* \"campaign.sol\":527:536  campaigns */\n      0x01\n        /* \"campaign.sol\":542:585  campaignDeploy(address(newCampaign), title) */\n      mload(0x40)\n      dup1\n      0x40\n      add\n      0x40\n      mstore\n      dup1\n        /* \"campaign.sol\":565:576  newCampaign */\n      dup4\n        /* \"campaign.sol\":542:585  campaignDeploy(address(newCampaign), title) */\n      0xffffffffffffffffffffffffffffffffffffffff\n      and\n      dup2\n      mstore\n      0x20\n      add\n        /* \"campaign.sol\":579:584  title */\n      dup5\n        /* \"campaign.sol\":542:585  campaignDeploy(address(newCampaign), title) */\n      dup2\n      mstore\n      pop\n        /* \"campaign.sol\":527:586  campaigns.push(campaignDeploy(address(newCampaign), title)) */\n      swap1\n      dup1\n      0x01\n      dup2\n      sload\n      add\n      dup1\n      dup3\n      sstore\n      dup1\n      swap2\n      pop\n      pop\n      0x01\n      swap1\n      sub\n      swap1\n      0x00\n      mstore\n      keccak256(0x00, 0x20)\n      swap1\n      0x02\n      mul\n      add\n      0x00\n      swap1\n      swap2\n      swap1\n      swap2\n      swap1\n      swap2\n      pop\n      0x00\n      dup3\n      add\n      mload\n      dup2\n      0x00\n      add\n      exp(0x0100, 0x00)\n      dup2\n      sload\n      dup2\n      0xffffffffffffffffffffffffffffffffffffffff\n      mul\n      not\n      and\n      swap1\n      dup4\n      0xffffffffffffffffffffffffffffffffffffffff\n      and\n      mul\n      or\n      swap1\n      sstore\n      pop\n      0x20\n      dup3\n      add\n      mload\n      dup2\n      0x01\n      add\n      swap1\n      dup1\n      mload\n      swap1\n      0x20\n      add\n      swap1\n      tag_43\n      swap3\n      swap2\n      swap1\n      tag_44\n      jump\t// in\n    tag_43:\n      pop\n      pop\n      pop\n        /* \"campaign.sol\":274:594  function createCampaign(uint minimum, string memory title) external {\r... */\n      pop\n      pop\n      pop\n      jump\t// out\n        /* \"campaign.sol\":606:720  function getDeployedContracts() external view returns(campaignDeploy[] memory) {\r... */\n    tag_23:\n        /* \"campaign.sol\":660:683  campaignDeploy[] memory */\n      0x60\n        /* \"campaign.sol\":703:712  campaigns */\n      0x01\n        /* \"campaign.sol\":696:712  return campaigns */\n      dup1\n      sload\n      dup1\n      0x20\n      mul\n      0x20\n      add\n      mload(0x40)\n      swap1\n      dup2\n      add\n      0x40\n      mstore\n      dup1\n      swap3\n      swap2\n      swap1\n      dup2\n      dup2\n      mstore\n      0x20\n      add\n      0x00\n      swap1\n    tag_46:\n      dup3\n      dup3\n      lt\n      iszero\n      tag_47\n      jumpi\n      dup4\n      dup3\n      swap1\n      0x00\n      mstore\n      keccak256(0x00, 0x20)\n      swap1\n      0x02\n      mul\n      add\n      mload(0x40)\n      dup1\n      0x40\n      add\n      0x40\n      mstore\n      swap1\n      dup2\n      0x00\n      dup3\n      add\n      0x00\n      swap1\n      sload\n      swap1\n      0x0100\n      exp\n      swap1\n      div\n      0xffffffffffffffffffffffffffffffffffffffff\n      and\n      0xffffffffffffffffffffffffffffffffffffffff\n      and\n      0xffffffffffffffffffffffffffffffffffffffff\n      and\n      dup2\n      mstore\n      0x20\n      add\n      0x01\n      dup3\n      add\n      dup1\n      sload\n      tag_49\n      swap1\n      tag_29\n      jump\t// in\n    tag_49:\n      dup1\n      0x1f\n      add\n      0x20\n      dup1\n      swap2\n      div\n      mul\n      0x20\n      add\n      mload(0x40)\n      swap1\n      dup2\n      add\n      0x40\n      mstore\n      dup1\n      swap3\n      swap2\n      swap1\n      dup2\n      dup2\n      mstore\n      0x20\n      add\n      dup3\n      dup1\n      sload\n      tag_50\n      swap1\n      tag_29\n      jump\t// in\n    tag_50:\n      dup1\n      iszero\n      tag_51\n      jumpi\n      dup1\n      0x1f\n      lt\n      tag_52\n      jumpi\n      0x0100\n      dup1\n      dup4\n      sload\n      div\n      mul\n      dup4\n      mstore\n      swap2\n      0x20\n      add\n      swap2\n      jump(tag_51)\n    tag_52:\n      dup3\n      add\n      swap2\n      swap1\n      0x00\n      mstore\n      keccak256(0x00, 0x20)\n      swap1\n    tag_53:\n      dup2\n      sload\n      dup2\n      mstore\n      swap1\n      0x01\n      add\n      swap1\n      0x20\n      add\n      dup1\n      dup4\n      gt\n      tag_53\n      jumpi\n      dup3\n      swap1\n      sub\n      0x1f\n      and\n      dup3\n      add\n      swap2\n    tag_51:\n      pop\n      pop\n      pop\n      pop\n      pop\n      dup2\n      mstore\n      pop\n      pop\n      dup2\n      mstore\n      0x20\n      add\n      swap1\n      0x01\n      add\n      swap1\n      jump(tag_46)\n    tag_47:\n      pop\n      pop\n      pop\n      pop\n      swap1\n      pop\n        /* \"campaign.sol\":606:720  function getDeployedContracts() external view returns(campaignDeploy[] memory) {\r... */\n      swap1\n      jump\t// out\n    tag_38:\n      dataSize(sub_0)\n      dup1\n      dataOffset(sub_0)\n      dup4\n      codecopy\n      add\n      swap1\n      jump\t// out\n    tag_44:\n      dup3\n      dup1\n      sload\n      tag_54\n      swap1\n      tag_29\n      jump\t// in\n    tag_54:\n      swap1\n      0x00\n      mstore\n      keccak256(0x00, 0x20)\n      swap1\n      0x1f\n      add\n      0x20\n      swap1\n      div\n      dup2\n      add\n      swap3\n      dup3\n      tag_56\n      jumpi\n      0x00\n      dup6\n      sstore\n      jump(tag_55)\n    tag_56:\n      dup3\n      0x1f\n      lt\n      tag_57\n      jumpi\n      dup1\n      mload\n      not(0xff)\n      and\n      dup4\n      dup1\n      add\n      or\n      dup6\n      sstore\n      jump(tag_55)\n    tag_57:\n      dup3\n      dup1\n      add\n      0x01\n      add\n      dup6\n      sstore\n      dup3\n      iszero\n      tag_55\n      jumpi\n      swap2\n      dup3\n      add\n    tag_58:\n      dup3\n      dup2\n      gt\n      iszero\n      tag_59\n      jumpi\n      dup3\n      mload\n      dup3\n      sstore\n      swap2\n      0x20\n      add\n      swap2\n      swap1\n      0x01\n      add\n      swap1\n      jump(tag_58)\n    tag_59:\n    tag_55:\n      pop\n      swap1\n      pop\n      tag_60\n      swap2\n      swap1\n      tag_61\n      jump\t// in\n    tag_60:\n      pop\n      swap1\n      jump\t// out\n    tag_61:\n    tag_62:\n      dup1\n      dup3\n      gt\n      iszero\n      tag_63\n      jumpi\n      0x00\n      dup2\n      0x00\n      swap1\n      sstore\n      pop\n      0x01\n      add\n      jump(tag_62)\n    tag_63:\n      pop\n      swap1\n      jump\t// out\n        /* \"#utility.yul\":7:352   */\n    tag_65:\n        /* \"#utility.yul\":85:90   */\n      0x00\n        /* \"#utility.yul\":110:176   */\n      tag_67\n        /* \"#utility.yul\":126:175   */\n      tag_68\n        /* \"#utility.yul\":168:174   */\n      dup5\n        /* \"#utility.yul\":126:175   */\n      tag_69\n      jump\t// in\n    tag_68:\n        /* \"#utility.yul\":110:176   */\n      tag_70\n      jump\t// in\n    tag_67:\n        /* \"#utility.yul\":101:176   */\n      swap1\n      pop\n        /* \"#utility.yul\":199:205   */\n      dup3\n        /* \"#utility.yul\":192:197   */\n      dup2\n        /* \"#utility.yul\":185:206   */\n      mstore\n        /* \"#utility.yul\":237:241   */\n      0x20\n        /* \"#utility.yul\":230:235   */\n      dup2\n        /* \"#utility.yul\":226:242   */\n      add\n        /* \"#utility.yul\":275:278   */\n      dup5\n        /* \"#utility.yul\":266:272   */\n      dup5\n        /* \"#utility.yul\":261:264   */\n      dup5\n        /* \"#utility.yul\":257:273   */\n      add\n        /* \"#utility.yul\":254:279   */\n      gt\n        /* \"#utility.yul\":251:253   */\n      iszero\n      tag_71\n      jumpi\n        /* \"#utility.yul\":292:293   */\n      0x00\n        /* \"#utility.yul\":289:290   */\n      dup1\n        /* \"#utility.yul\":282:294   */\n      revert\n        /* \"#utility.yul\":251:253   */\n    tag_71:\n        /* \"#utility.yul\":305:346   */\n      tag_72\n        /* \"#utility.yul\":339:345   */\n      dup5\n        /* \"#utility.yul\":334:337   */\n      dup3\n        /* \"#utility.yul\":329:332   */\n      dup6\n        /* \"#utility.yul\":305:346   */\n      tag_73\n      jump\t// in\n    tag_72:\n        /* \"#utility.yul\":91:352   */\n      pop\n      swap4\n      swap3\n      pop\n      pop\n      pop\n      jump\t// out\n        /* \"#utility.yul\":372:645   */\n    tag_74:\n        /* \"#utility.yul\":428:433   */\n      0x00\n        /* \"#utility.yul\":477:480   */\n      dup3\n        /* \"#utility.yul\":470:474   */\n      0x1f\n        /* \"#utility.yul\":462:468   */\n      dup4\n        /* \"#utility.yul\":458:475   */\n      add\n        /* \"#utility.yul\":454:481   */\n      slt\n        /* \"#utility.yul\":444:446   */\n      tag_76\n      jumpi\n        /* \"#utility.yul\":495:496   */\n      0x00\n        /* \"#utility.yul\":492:493   */\n      dup1\n        /* \"#utility.yul\":485:497   */\n      revert\n        /* \"#utility.yul\":444:446   */\n    tag_76:\n        /* \"#utility.yul\":535:541   */\n      dup2\n        /* \"#utility.yul\":522:542   */\n      calldataload\n        /* \"#utility.yul\":560:639   */\n      tag_77\n        /* \"#utility.yul\":635:638   */\n      dup5\n        /* \"#utility.yul\":627:633   */\n      dup3\n        /* \"#utility.yul\":620:624   */\n      0x20\n        /* \"#utility.yul\":612:618   */\n      dup7\n        /* \"#utility.yul\":608:625   */\n      add\n        /* \"#utility.yul\":560:639   */\n      tag_65\n      jump\t// in\n    tag_77:\n        /* \"#utility.yul\":551:639   */\n      swap2\n      pop\n        /* \"#utility.yul\":434:645   */\n      pop\n      swap3\n      swap2\n      pop\n      pop\n      jump\t// out\n        /* \"#utility.yul\":651:790   */\n    tag_78:\n        /* \"#utility.yul\":697:702   */\n      0x00\n        /* \"#utility.yul\":735:741   */\n      dup2\n        /* \"#utility.yul\":722:742   */\n      calldataload\n        /* \"#utility.yul\":713:742   */\n      swap1\n      pop\n        /* \"#utility.yul\":751:784   */\n      tag_80\n        /* \"#utility.yul\":778:783   */\n      dup2\n        /* \"#utility.yul\":751:784   */\n      tag_81\n      jump\t// in\n    tag_80:\n        /* \"#utility.yul\":703:790   */\n      swap3\n      swap2\n      pop\n      pop\n      jump\t// out\n        /* \"#utility.yul\":796:1058   */\n    tag_9:\n        /* \"#utility.yul\":855:861   */\n      0x00\n        /* \"#utility.yul\":904:906   */\n      0x20\n        /* \"#utility.yul\":892:901   */\n      dup3\n        /* \"#utility.yul\":883:890   */\n      dup5\n        /* \"#utility.yul\":879:902   */\n      sub\n        /* \"#utility.yul\":875:907   */\n      slt\n        /* \"#utility.yul\":872:874   */\n      iszero\n      tag_83\n      jumpi\n        /* \"#utility.yul\":920:921   */\n      0x00\n        /* \"#utility.yul\":917:918   */\n      dup1\n        /* \"#utility.yul\":910:922   */\n      revert\n        /* \"#utility.yul\":872:874   */\n    tag_83:\n        /* \"#utility.yul\":963:964   */\n      0x00\n        /* \"#utility.yul\":988:1041   */\n      tag_84\n        /* \"#utility.yul\":1033:1040   */\n      dup5\n        /* \"#utility.yul\":1024:1030   */\n      dup3\n        /* \"#utility.yul\":1013:1022   */\n      dup6\n        /* \"#utility.yul\":1009:1031   */\n      add\n        /* \"#utility.yul\":988:1041   */\n      tag_78\n      jump\t// in\n    tag_84:\n        /* \"#utility.yul\":978:1041   */\n      swap2\n      pop\n        /* \"#utility.yul\":934:1051   */\n      pop\n        /* \"#utility.yul\":862:1058   */\n      swap3\n      swap2\n      pop\n      pop\n      jump\t// out\n        /* \"#utility.yul\":1064:1584   */\n    tag_20:\n        /* \"#utility.yul\":1142:1148   */\n      0x00\n        /* \"#utility.yul\":1150:1156   */\n      dup1\n        /* \"#utility.yul\":1199:1201   */\n      0x40\n        /* \"#utility.yul\":1187:1196   */\n      dup4\n        /* \"#utility.yul\":1178:1185   */\n      dup6\n        /* \"#utility.yul\":1174:1197   */\n      sub\n        /* \"#utility.yul\":1170:1202   */\n      slt\n        /* \"#utility.yul\":1167:1169   */\n      iszero\n      tag_86\n      jumpi\n        /* \"#utility.yul\":1215:1216   */\n      0x00\n        /* \"#utility.yul\":1212:1213   */\n      dup1\n        /* \"#utility.yul\":1205:1217   */\n      revert\n        /* \"#utility.yul\":1167:1169   */\n    tag_86:\n        /* \"#utility.yul\":1258:1259   */\n      0x00\n        /* \"#utility.yul\":1283:1336   */\n      tag_87\n        /* \"#utility.yul\":1328:1335   */\n      dup6\n        /* \"#utility.yul\":1319:1325   */\n      dup3\n        /* \"#utility.yul\":1308:1317   */\n      dup7\n        /* \"#utility.yul\":1304:1326   */\n      add\n        /* \"#utility.yul\":1283:1336   */\n      tag_78\n      jump\t// in\n    tag_87:\n        /* \"#utility.yul\":1273:1336   */\n      swap3\n      pop\n        /* \"#utility.yul\":1229:1346   */\n      pop\n        /* \"#utility.yul\":1413:1415   */\n      0x20\n        /* \"#utility.yul\":1402:1411   */\n      dup4\n        /* \"#utility.yul\":1398:1416   */\n      add\n        /* \"#utility.yul\":1385:1417   */\n      calldataload\n        /* \"#utility.yul\":1444:1462   */\n      0xffffffffffffffff\n        /* \"#utility.yul\":1436:1442   */\n      dup2\n        /* \"#utility.yul\":1433:1463   */\n      gt\n        /* \"#utility.yul\":1430:1432   */\n      iszero\n      tag_88\n      jumpi\n        /* \"#utility.yul\":1476:1477   */\n      0x00\n        /* \"#utility.yul\":1473:1474   */\n      dup1\n        /* \"#utility.yul\":1466:1478   */\n      revert\n        /* \"#utility.yul\":1430:1432   */\n    tag_88:\n        /* \"#utility.yul\":1504:1567   */\n      tag_89\n        /* \"#utility.yul\":1559:1566   */\n      dup6\n        /* \"#utility.yul\":1550:1556   */\n      dup3\n        /* \"#utility.yul\":1539:1548   */\n      dup7\n        /* \"#utility.yul\":1535:1557   */\n      add\n        /* \"#utility.yul\":1504:1567   */\n      tag_74\n      jump\t// in\n    tag_89:\n        /* \"#utility.yul\":1494:1567   */\n      swap2\n      pop\n        /* \"#utility.yul\":1356:1577   */\n      pop\n        /* \"#utility.yul\":1157:1584   */\n      swap3\n      pop\n      swap3\n      swap1\n      pop\n      jump\t// out\n        /* \"#utility.yul\":1590:1862   */\n    tag_90:\n        /* \"#utility.yul\":1717:1727   */\n      0x00\n        /* \"#utility.yul\":1752:1856   */\n      tag_92\n        /* \"#utility.yul\":1852:1855   */\n      dup4\n        /* \"#utility.yul\":1844:1850   */\n      dup4\n        /* \"#utility.yul\":1752:1856   */\n      tag_93\n      jump\t// in\n    tag_92:\n        /* \"#utility.yul\":1738:1856   */\n      swap1\n      pop\n        /* \"#utility.yul\":1728:1862   */\n      swap3\n      swap2\n      pop\n      pop\n      jump\t// out\n        /* \"#utility.yul\":1868:1976   */\n    tag_94:\n        /* \"#utility.yul\":1945:1969   */\n      tag_96\n        /* \"#utility.yul\":1963:1968   */\n      dup2\n        /* \"#utility.yul\":1945:1969   */\n      tag_97\n      jump\t// in\n    tag_96:\n        /* \"#utility.yul\":1940:1943   */\n      dup3\n        /* \"#utility.yul\":1933:1970   */\n      mstore\n        /* \"#utility.yul\":1923:1976   */\n      pop\n      pop\n      jump\t// out\n        /* \"#utility.yul\":1982:2100   */\n    tag_98:\n        /* \"#utility.yul\":2069:2093   */\n      tag_100\n        /* \"#utility.yul\":2087:2092   */\n      dup2\n        /* \"#utility.yul\":2069:2093   */\n      tag_97\n      jump\t// in\n    tag_100:\n        /* \"#utility.yul\":2064:2067   */\n      dup3\n        /* \"#utility.yul\":2057:2094   */\n      mstore\n        /* \"#utility.yul\":2047:2100   */\n      pop\n      pop\n      jump\t// out\n        /* \"#utility.yul\":2196:3339   */\n    tag_101:\n        /* \"#utility.yul\":2373:2376   */\n      0x00\n        /* \"#utility.yul\":2402:2485   */\n      tag_103\n        /* \"#utility.yul\":2479:2484   */\n      dup3\n        /* \"#utility.yul\":2402:2485   */\n      tag_104\n      jump\t// in\n    tag_103:\n        /* \"#utility.yul\":2501:2616   */\n      tag_105\n        /* \"#utility.yul\":2609:2615   */\n      dup2\n        /* \"#utility.yul\":2604:2607   */\n      dup6\n        /* \"#utility.yul\":2501:2616   */\n      tag_106\n      jump\t// in\n    tag_105:\n        /* \"#utility.yul\":2494:2616   */\n      swap4\n      pop\n        /* \"#utility.yul\":2642:2645   */\n      dup4\n        /* \"#utility.yul\":2687:2691   */\n      0x20\n        /* \"#utility.yul\":2679:2685   */\n      dup3\n        /* \"#utility.yul\":2675:2692   */\n      mul\n        /* \"#utility.yul\":2670:2673   */\n      dup6\n        /* \"#utility.yul\":2666:2693   */\n      add\n        /* \"#utility.yul\":2717:2802   */\n      tag_107\n        /* \"#utility.yul\":2796:2801   */\n      dup6\n        /* \"#utility.yul\":2717:2802   */\n      tag_108\n      jump\t// in\n    tag_107:\n        /* \"#utility.yul\":2825:2832   */\n      dup1\n        /* \"#utility.yul\":2856:2857   */\n      0x00\n        /* \"#utility.yul\":2841:3294   */\n    tag_109:\n        /* \"#utility.yul\":2866:2872   */\n      dup6\n        /* \"#utility.yul\":2863:2864   */\n      dup2\n        /* \"#utility.yul\":2860:2873   */\n      lt\n        /* \"#utility.yul\":2841:3294   */\n      iszero\n      tag_111\n      jumpi\n        /* \"#utility.yul\":2937:2946   */\n      dup5\n        /* \"#utility.yul\":2931:2935   */\n      dup5\n        /* \"#utility.yul\":2927:2947   */\n      sub\n        /* \"#utility.yul\":2922:2925   */\n      dup10\n        /* \"#utility.yul\":2915:2948   */\n      mstore\n        /* \"#utility.yul\":2988:2994   */\n      dup2\n        /* \"#utility.yul\":2982:2995   */\n      mload\n        /* \"#utility.yul\":3016:3138   */\n      tag_112\n        /* \"#utility.yul\":3133:3137   */\n      dup6\n        /* \"#utility.yul\":3118:3131   */\n      dup3\n        /* \"#utility.yul\":3016:3138   */\n      tag_90\n      jump\t// in\n    tag_112:\n        /* \"#utility.yul\":3008:3138   */\n      swap5\n      pop\n        /* \"#utility.yul\":3161:3250   */\n      tag_113\n        /* \"#utility.yul\":3243:3249   */\n      dup4\n        /* \"#utility.yul\":3161:3250   */\n      tag_114\n      jump\t// in\n    tag_113:\n        /* \"#utility.yul\":3151:3250   */\n      swap3\n      pop\n        /* \"#utility.yul\":3279:3283   */\n      0x20\n        /* \"#utility.yul\":3274:3277   */\n      dup11\n        /* \"#utility.yul\":3270:3284   */\n      add\n        /* \"#utility.yul\":3263:3284   */\n      swap10\n      pop\n        /* \"#utility.yul\":2901:3294   */\n      pop\n        /* \"#utility.yul\":2888:2889   */\n      0x01\n        /* \"#utility.yul\":2885:2886   */\n      dup2\n        /* \"#utility.yul\":2881:2890   */\n      add\n        /* \"#utility.yul\":2876:2890   */\n      swap1\n      pop\n        /* \"#utility.yul\":2841:3294   */\n      jump(tag_109)\n    tag_111:\n        /* \"#utility.yul\":2845:2859   */\n      pop\n        /* \"#utility.yul\":3310:3314   */\n      dup3\n        /* \"#utility.yul\":3303:3314   */\n      swap8\n      pop\n        /* \"#utility.yul\":3330:3333   */\n      dup8\n        /* \"#utility.yul\":3323:3333   */\n      swap6\n      pop\n        /* \"#utility.yul\":2378:3339   */\n      pop\n      pop\n      pop\n      pop\n      pop\n      swap3\n      swap2\n      pop\n      pop\n      jump\t// out\n        /* \"#utility.yul\":3345:3689   */\n    tag_115:\n        /* \"#utility.yul\":3423:3426   */\n      0x00\n        /* \"#utility.yul\":3451:3490   */\n      tag_117\n        /* \"#utility.yul\":3484:3489   */\n      dup3\n        /* \"#utility.yul\":3451:3490   */\n      tag_118\n      jump\t// in\n    tag_117:\n        /* \"#utility.yul\":3506:3567   */\n      tag_119\n        /* \"#utility.yul\":3560:3566   */\n      dup2\n        /* \"#utility.yul\":3555:3558   */\n      dup6\n        /* \"#utility.yul\":3506:3567   */\n      tag_120\n      jump\t// in\n    tag_119:\n        /* \"#utility.yul\":3499:3567   */\n      swap4\n      pop\n        /* \"#utility.yul\":3576:3628   */\n      tag_121\n        /* \"#utility.yul\":3621:3627   */\n      dup2\n        /* \"#utility.yul\":3616:3619   */\n      dup6\n        /* \"#utility.yul\":3609:3613   */\n      0x20\n        /* \"#utility.yul\":3602:3607   */\n      dup7\n        /* \"#utility.yul\":3598:3614   */\n      add\n        /* \"#utility.yul\":3576:3628   */\n      tag_122\n      jump\t// in\n    tag_121:\n        /* \"#utility.yul\":3653:3682   */\n      tag_123\n        /* \"#utility.yul\":3675:3681   */\n      dup2\n        /* \"#utility.yul\":3653:3682   */\n      tag_124\n      jump\t// in\n    tag_123:\n        /* \"#utility.yul\":3648:3651   */\n      dup5\n        /* \"#utility.yul\":3644:3683   */\n      add\n        /* \"#utility.yul\":3637:3683   */\n      swap2\n      pop\n        /* \"#utility.yul\":3427:3689   */\n      pop\n      swap3\n      swap2\n      pop\n      pop\n      jump\t// out\n        /* \"#utility.yul\":3695:4059   */\n    tag_125:\n        /* \"#utility.yul\":3783:3786   */\n      0x00\n        /* \"#utility.yul\":3811:3850   */\n      tag_127\n        /* \"#utility.yul\":3844:3849   */\n      dup3\n        /* \"#utility.yul\":3811:3850   */\n      tag_118\n      jump\t// in\n    tag_127:\n        /* \"#utility.yul\":3866:3937   */\n      tag_128\n        /* \"#utility.yul\":3930:3936   */\n      dup2\n        /* \"#utility.yul\":3925:3928   */\n      dup6\n        /* \"#utility.yul\":3866:3937   */\n      tag_129\n      jump\t// in\n    tag_128:\n        /* \"#utility.yul\":3859:3937   */\n      swap4\n      pop\n        /* \"#utility.yul\":3946:3998   */\n      tag_130\n        /* \"#utility.yul\":3991:3997   */\n      dup2\n        /* \"#utility.yul\":3986:3989   */\n      dup6\n        /* \"#utility.yul\":3979:3983   */\n      0x20\n        /* \"#utility.yul\":3972:3977   */\n      dup7\n        /* \"#utility.yul\":3968:3984   */\n      add\n        /* \"#utility.yul\":3946:3998   */\n      tag_122\n      jump\t// in\n    tag_130:\n        /* \"#utility.yul\":4023:4052   */\n      tag_131\n        /* \"#utility.yul\":4045:4051   */\n      dup2\n        /* \"#utility.yul\":4023:4052   */\n      tag_124\n      jump\t// in\n    tag_131:\n        /* \"#utility.yul\":4018:4021   */\n      dup5\n        /* \"#utility.yul\":4014:4053   */\n      add\n        /* \"#utility.yul\":4007:4053   */\n      swap2\n      pop\n        /* \"#utility.yul\":3787:4059   */\n      pop\n      swap3\n      swap2\n      pop\n      pop\n      jump\t// out\n        /* \"#utility.yul\":4151:4760   */\n    tag_93:\n        /* \"#utility.yul\":4268:4271   */\n      0x00\n        /* \"#utility.yul\":4304:4308   */\n      0x40\n        /* \"#utility.yul\":4299:4302   */\n      dup4\n        /* \"#utility.yul\":4295:4309   */\n      add\n        /* \"#utility.yul\":4395:4399   */\n      0x00\n        /* \"#utility.yul\":4388:4393   */\n      dup4\n        /* \"#utility.yul\":4384:4400   */\n      add\n        /* \"#utility.yul\":4378:4401   */\n      mload\n        /* \"#utility.yul\":4414:4477   */\n      tag_133\n        /* \"#utility.yul\":4471:4475   */\n      0x00\n        /* \"#utility.yul\":4466:4469   */\n      dup7\n        /* \"#utility.yul\":4462:4476   */\n      add\n        /* \"#utility.yul\":4448:4460   */\n      dup3\n        /* \"#utility.yul\":4414:4477   */\n      tag_94\n      jump\t// in\n    tag_133:\n        /* \"#utility.yul\":4319:4487   */\n      pop\n        /* \"#utility.yul\":4570:4574   */\n      0x20\n        /* \"#utility.yul\":4563:4568   */\n      dup4\n        /* \"#utility.yul\":4559:4575   */\n      add\n        /* \"#utility.yul\":4553:4576   */\n      mload\n        /* \"#utility.yul\":4623:4626   */\n      dup5\n        /* \"#utility.yul\":4617:4621   */\n      dup3\n        /* \"#utility.yul\":4613:4627   */\n      sub\n        /* \"#utility.yul\":4606:4610   */\n      0x20\n        /* \"#utility.yul\":4601:4604   */\n      dup7\n        /* \"#utility.yul\":4597:4611   */\n      add\n        /* \"#utility.yul\":4590:4628   */\n      mstore\n        /* \"#utility.yul\":4649:4722   */\n      tag_134\n        /* \"#utility.yul\":4717:4721   */\n      dup3\n        /* \"#utility.yul\":4703:4715   */\n      dup3\n        /* \"#utility.yul\":4649:4722   */\n      tag_115\n      jump\t// in\n    tag_134:\n        /* \"#utility.yul\":4641:4722   */\n      swap2\n      pop\n        /* \"#utility.yul\":4497:4733   */\n      pop\n        /* \"#utility.yul\":4750:4754   */\n      dup1\n        /* \"#utility.yul\":4743:4754   */\n      swap2\n      pop\n        /* \"#utility.yul\":4273:4760   */\n      pop\n      swap3\n      swap2\n      pop\n      pop\n      jump\t// out\n        /* \"#utility.yul\":4766:4884   */\n    tag_135:\n        /* \"#utility.yul\":4853:4877   */\n      tag_137\n        /* \"#utility.yul\":4871:4876   */\n      dup2\n        /* \"#utility.yul\":4853:4877   */\n      tag_138\n      jump\t// in\n    tag_137:\n        /* \"#utility.yul\":4848:4851   */\n      dup3\n        /* \"#utility.yul\":4841:4878   */\n      mstore\n        /* \"#utility.yul\":4831:4884   */\n      pop\n      pop\n      jump\t// out\n        /* \"#utility.yul\":4890:5112   */\n    tag_17:\n        /* \"#utility.yul\":4983:4987   */\n      0x00\n        /* \"#utility.yul\":5021:5023   */\n      0x20\n        /* \"#utility.yul\":5010:5019   */\n      dup3\n        /* \"#utility.yul\":5006:5024   */\n      add\n        /* \"#utility.yul\":4998:5024   */\n      swap1\n      pop\n        /* \"#utility.yul\":5034:5105   */\n      tag_140\n        /* \"#utility.yul\":5102:5103   */\n      0x00\n        /* \"#utility.yul\":5091:5100   */\n      dup4\n        /* \"#utility.yul\":5087:5104   */\n      add\n        /* \"#utility.yul\":5078:5084   */\n      dup5\n        /* \"#utility.yul\":5034:5105   */\n      tag_98\n      jump\t// in\n    tag_140:\n        /* \"#utility.yul\":4988:5112   */\n      swap3\n      swap2\n      pop\n      pop\n      jump\t// out\n        /* \"#utility.yul\":5118:5541   */\n    tag_12:\n        /* \"#utility.yul\":5259:5263   */\n      0x00\n        /* \"#utility.yul\":5297:5299   */\n      0x40\n        /* \"#utility.yul\":5286:5295   */\n      dup3\n        /* \"#utility.yul\":5282:5300   */\n      add\n        /* \"#utility.yul\":5274:5300   */\n      swap1\n      pop\n        /* \"#utility.yul\":5310:5381   */\n      tag_142\n        /* \"#utility.yul\":5378:5379   */\n      0x00\n        /* \"#utility.yul\":5367:5376   */\n      dup4\n        /* \"#utility.yul\":5363:5380   */\n      add\n        /* \"#utility.yul\":5354:5360   */\n      dup6\n        /* \"#utility.yul\":5310:5381   */\n      tag_98\n      jump\t// in\n    tag_142:\n        /* \"#utility.yul\":5428:5437   */\n      dup2\n        /* \"#utility.yul\":5422:5426   */\n      dup2\n        /* \"#utility.yul\":5418:5438   */\n      sub\n        /* \"#utility.yul\":5413:5415   */\n      0x20\n        /* \"#utility.yul\":5402:5411   */\n      dup4\n        /* \"#utility.yul\":5398:5416   */\n      add\n        /* \"#utility.yul\":5391:5439   */\n      mstore\n        /* \"#utility.yul\":5456:5534   */\n      tag_143\n        /* \"#utility.yul\":5529:5533   */\n      dup2\n        /* \"#utility.yul\":5520:5526   */\n      dup5\n        /* \"#utility.yul\":5456:5534   */\n      tag_125\n      jump\t// in\n    tag_143:\n        /* \"#utility.yul\":5448:5534   */\n      swap1\n      pop\n        /* \"#utility.yul\":5264:5541   */\n      swap4\n      swap3\n      pop\n      pop\n      pop\n      jump\t// out\n        /* \"#utility.yul\":5547:6036   */\n    tag_25:\n        /* \"#utility.yul\":5748:5752   */\n      0x00\n        /* \"#utility.yul\":5786:5788   */\n      0x20\n        /* \"#utility.yul\":5775:5784   */\n      dup3\n        /* \"#utility.yul\":5771:5789   */\n      add\n        /* \"#utility.yul\":5763:5789   */\n      swap1\n      pop\n        /* \"#utility.yul\":5835:5844   */\n      dup2\n        /* \"#utility.yul\":5829:5833   */\n      dup2\n        /* \"#utility.yul\":5825:5845   */\n      sub\n        /* \"#utility.yul\":5821:5822   */\n      0x00\n        /* \"#utility.yul\":5810:5819   */\n      dup4\n        /* \"#utility.yul\":5806:5823   */\n      add\n        /* \"#utility.yul\":5799:5846   */\n      mstore\n        /* \"#utility.yul\":5863:6029   */\n      tag_145\n        /* \"#utility.yul\":6024:6028   */\n      dup2\n        /* \"#utility.yul\":6015:6021   */\n      dup5\n        /* \"#utility.yul\":5863:6029   */\n      tag_101\n      jump\t// in\n    tag_145:\n        /* \"#utility.yul\":5855:6029   */\n      swap1\n      pop\n        /* \"#utility.yul\":5753:6036   */\n      swap3\n      swap2\n      pop\n      pop\n      jump\t// out\n        /* \"#utility.yul\":6042:6575   */\n    tag_40:\n        /* \"#utility.yul\":6211:6215   */\n      0x00\n        /* \"#utility.yul\":6249:6251   */\n      0x60\n        /* \"#utility.yul\":6238:6247   */\n      dup3\n        /* \"#utility.yul\":6234:6252   */\n      add\n        /* \"#utility.yul\":6226:6252   */\n      swap1\n      pop\n        /* \"#utility.yul\":6262:6333   */\n      tag_147\n        /* \"#utility.yul\":6330:6331   */\n      0x00\n        /* \"#utility.yul\":6319:6328   */\n      dup4\n        /* \"#utility.yul\":6315:6332   */\n      add\n        /* \"#utility.yul\":6306:6312   */\n      dup7\n        /* \"#utility.yul\":6262:6333   */\n      tag_135\n      jump\t// in\n    tag_147:\n        /* \"#utility.yul\":6343:6415   */\n      tag_148\n        /* \"#utility.yul\":6411:6413   */\n      0x20\n        /* \"#utility.yul\":6400:6409   */\n      dup4\n        /* \"#utility.yul\":6396:6414   */\n      add\n        /* \"#utility.yul\":6387:6393   */\n      dup6\n        /* \"#utility.yul\":6343:6415   */\n      tag_98\n      jump\t// in\n    tag_148:\n        /* \"#utility.yul\":6462:6471   */\n      dup2\n        /* \"#utility.yul\":6456:6460   */\n      dup2\n        /* \"#utility.yul\":6452:6472   */\n      sub\n        /* \"#utility.yul\":6447:6449   */\n      0x40\n        /* \"#utility.yul\":6436:6445   */\n      dup4\n        /* \"#utility.yul\":6432:6450   */\n      add\n        /* \"#utility.yul\":6425:6473   */\n      mstore\n        /* \"#utility.yul\":6490:6568   */\n      tag_149\n        /* \"#utility.yul\":6563:6567   */\n      dup2\n        /* \"#utility.yul\":6554:6560   */\n      dup5\n        /* \"#utility.yul\":6490:6568   */\n      tag_125\n      jump\t// in\n    tag_149:\n        /* \"#utility.yul\":6482:6568   */\n      swap1\n      pop\n        /* \"#utility.yul\":6216:6575   */\n      swap5\n      swap4\n      pop\n      pop\n      pop\n      pop\n      jump\t// out\n        /* \"#utility.yul\":6581:6710   */\n    tag_70:\n        /* \"#utility.yul\":6615:6621   */\n      0x00\n        /* \"#utility.yul\":6642:6662   */\n      tag_151\n      tag_152\n      jump\t// in\n    tag_151:\n        /* \"#utility.yul\":6632:6662   */\n      swap1\n      pop\n        /* \"#utility.yul\":6671:6704   */\n      tag_153\n        /* \"#utility.yul\":6699:6703   */\n      dup3\n        /* \"#utility.yul\":6691:6697   */\n      dup3\n        /* \"#utility.yul\":6671:6704   */\n      tag_154\n      jump\t// in\n    tag_153:\n        /* \"#utility.yul\":6622:6710   */\n      swap2\n      swap1\n      pop\n      jump\t// out\n        /* \"#utility.yul\":6716:6791   */\n    tag_152:\n        /* \"#utility.yul\":6749:6755   */\n      0x00\n        /* \"#utility.yul\":6782:6784   */\n      0x40\n        /* \"#utility.yul\":6776:6785   */\n      mload\n        /* \"#utility.yul\":6766:6785   */\n      swap1\n      pop\n        /* \"#utility.yul\":6756:6791   */\n      swap1\n      jump\t// out\n        /* \"#utility.yul\":6797:7105   */\n    tag_69:\n        /* \"#utility.yul\":6859:6863   */\n      0x00\n        /* \"#utility.yul\":6949:6967   */\n      0xffffffffffffffff\n        /* \"#utility.yul\":6941:6947   */\n      dup3\n        /* \"#utility.yul\":6938:6968   */\n      gt\n        /* \"#utility.yul\":6935:6937   */\n      iszero\n      tag_157\n      jumpi\n        /* \"#utility.yul\":6971:6989   */\n      tag_158\n      tag_159\n      jump\t// in\n    tag_158:\n        /* \"#utility.yul\":6935:6937   */\n    tag_157:\n        /* \"#utility.yul\":7009:7038   */\n      tag_160\n        /* \"#utility.yul\":7031:7037   */\n      dup3\n        /* \"#utility.yul\":7009:7038   */\n      tag_124\n      jump\t// in\n    tag_160:\n        /* \"#utility.yul\":7001:7038   */\n      swap1\n      pop\n        /* \"#utility.yul\":7093:7097   */\n      0x20\n        /* \"#utility.yul\":7087:7091   */\n      dup2\n        /* \"#utility.yul\":7083:7098   */\n      add\n        /* \"#utility.yul\":7075:7098   */\n      swap1\n      pop\n        /* \"#utility.yul\":6864:7105   */\n      swap2\n      swap1\n      pop\n      jump\t// out\n        /* \"#utility.yul\":7111:7272   */\n    tag_108:\n        /* \"#utility.yul\":7207:7211   */\n      0x00\n        /* \"#utility.yul\":7230:7233   */\n      dup2\n        /* \"#utility.yul\":7222:7233   */\n      swap1\n      pop\n        /* \"#utility.yul\":7260:7264   */\n      0x20\n        /* \"#utility.yul\":7255:7258   */\n      dup3\n        /* \"#utility.yul\":7251:7265   */\n      add\n        /* \"#utility.yul\":7243:7265   */\n      swap1\n      pop\n        /* \"#utility.yul\":7212:7272   */\n      swap2\n      swap1\n      pop\n      jump\t// out\n        /* \"#utility.yul\":7278:7421   */\n    tag_104:\n        /* \"#utility.yul\":7374:7380   */\n      0x00\n        /* \"#utility.yul\":7408:7413   */\n      dup2\n        /* \"#utility.yul\":7402:7414   */\n      mload\n        /* \"#utility.yul\":7392:7414   */\n      swap1\n      pop\n        /* \"#utility.yul\":7381:7421   */\n      swap2\n      swap1\n      pop\n      jump\t// out\n        /* \"#utility.yul\":7427:7526   */\n    tag_118:\n        /* \"#utility.yul\":7479:7485   */\n      0x00\n        /* \"#utility.yul\":7513:7518   */\n      dup2\n        /* \"#utility.yul\":7507:7519   */\n      mload\n        /* \"#utility.yul\":7497:7519   */\n      swap1\n      pop\n        /* \"#utility.yul\":7486:7526   */\n      swap2\n      swap1\n      pop\n      jump\t// out\n        /* \"#utility.yul\":7532:7674   */\n    tag_114:\n        /* \"#utility.yul\":7631:7635   */\n      0x00\n        /* \"#utility.yul\":7663:7667   */\n      0x20\n        /* \"#utility.yul\":7658:7661   */\n      dup3\n        /* \"#utility.yul\":7654:7668   */\n      add\n        /* \"#utility.yul\":7646:7668   */\n      swap1\n      pop\n        /* \"#utility.yul\":7636:7674   */\n      swap2\n      swap1\n      pop\n      jump\t// out\n        /* \"#utility.yul\":7680:7893   */\n    tag_106:\n        /* \"#utility.yul\":7808:7819   */\n      0x00\n        /* \"#utility.yul\":7842:7848   */\n      dup3\n        /* \"#utility.yul\":7837:7840   */\n      dup3\n        /* \"#utility.yul\":7830:7849   */\n      mstore\n        /* \"#utility.yul\":7882:7886   */\n      0x20\n        /* \"#utility.yul\":7877:7880   */\n      dup3\n        /* \"#utility.yul\":7873:7887   */\n      add\n        /* \"#utility.yul\":7858:7887   */\n      swap1\n      pop\n        /* \"#utility.yul\":7820:7893   */\n      swap3\n      swap2\n      pop\n      pop\n      jump\t// out\n        /* \"#utility.yul\":7899:8058   */\n    tag_120:\n        /* \"#utility.yul\":7973:7984   */\n      0x00\n        /* \"#utility.yul\":8007:8013   */\n      dup3\n        /* \"#utility.yul\":8002:8005   */\n      dup3\n        /* \"#utility.yul\":7995:8014   */\n      mstore\n        /* \"#utility.yul\":8047:8051   */\n      0x20\n        /* \"#utility.yul\":8042:8045   */\n      dup3\n        /* \"#utility.yul\":8038:8052   */\n      add\n        /* \"#utility.yul\":8023:8052   */\n      swap1\n      pop\n        /* \"#utility.yul\":7985:8058   */\n      swap3\n      swap2\n      pop\n      pop\n      jump\t// out\n        /* \"#utility.yul\":8064:8233   */\n    tag_129:\n        /* \"#utility.yul\":8148:8159   */\n      0x00\n        /* \"#utility.yul\":8182:8188   */\n      dup3\n        /* \"#utility.yul\":8177:8180   */\n      dup3\n        /* \"#utility.yul\":8170:8189   */\n      mstore\n        /* \"#utility.yul\":8222:8226   */\n      0x20\n        /* \"#utility.yul\":8217:8220   */\n      dup3\n        /* \"#utility.yul\":8213:8227   */\n      add\n        /* \"#utility.yul\":8198:8227   */\n      swap1\n      pop\n        /* \"#utility.yul\":8160:8233   */\n      swap3\n      swap2\n      pop\n      pop\n      jump\t// out\n        /* \"#utility.yul\":8239:8335   */\n    tag_97:\n        /* \"#utility.yul\":8276:8283   */\n      0x00\n        /* \"#utility.yul\":8305:8329   */\n      tag_169\n        /* \"#utility.yul\":8323:8328   */\n      dup3\n        /* \"#utility.yul\":8305:8329   */\n      tag_170\n      jump\t// in\n    tag_169:\n        /* \"#utility.yul\":8294:8329   */\n      swap1\n      pop\n        /* \"#utility.yul\":8284:8335   */\n      swap2\n      swap1\n      pop\n      jump\t// out\n        /* \"#utility.yul\":8341:8467   */\n    tag_170:\n        /* \"#utility.yul\":8378:8385   */\n      0x00\n        /* \"#utility.yul\":8418:8460   */\n      0xffffffffffffffffffffffffffffffffffffffff\n        /* \"#utility.yul\":8411:8416   */\n      dup3\n        /* \"#utility.yul\":8407:8461   */\n      and\n        /* \"#utility.yul\":8396:8461   */\n      swap1\n      pop\n        /* \"#utility.yul\":8386:8467   */\n      swap2\n      swap1\n      pop\n      jump\t// out\n        /* \"#utility.yul\":8473:8550   */\n    tag_138:\n        /* \"#utility.yul\":8510:8517   */\n      0x00\n        /* \"#utility.yul\":8539:8544   */\n      dup2\n        /* \"#utility.yul\":8528:8544   */\n      swap1\n      pop\n        /* \"#utility.yul\":8518:8550   */\n      swap2\n      swap1\n      pop\n      jump\t// out\n        /* \"#utility.yul\":8556:8710   */\n    tag_73:\n        /* \"#utility.yul\":8640:8646   */\n      dup3\n        /* \"#utility.yul\":8635:8638   */\n      dup2\n        /* \"#utility.yul\":8630:8633   */\n      dup4\n        /* \"#utility.yul\":8617:8647   */\n      calldatacopy\n        /* \"#utility.yul\":8702:8703   */\n      0x00\n        /* \"#utility.yul\":8693:8699   */\n      dup4\n        /* \"#utility.yul\":8688:8691   */\n      dup4\n        /* \"#utility.yul\":8684:8700   */\n      add\n        /* \"#utility.yul\":8677:8704   */\n      mstore\n        /* \"#utility.yul\":8607:8710   */\n      pop\n      pop\n      pop\n      jump\t// out\n        /* \"#utility.yul\":8716:9023   */\n    tag_122:\n        /* \"#utility.yul\":8784:8785   */\n      0x00\n        /* \"#utility.yul\":8794:8907   */\n    tag_175:\n        /* \"#utility.yul\":8808:8814   */\n      dup4\n        /* \"#utility.yul\":8805:8806   */\n      dup2\n        /* \"#utility.yul\":8802:8815   */\n      lt\n        /* \"#utility.yul\":8794:8907   */\n      iszero\n      tag_177\n      jumpi\n        /* \"#utility.yul\":8893:8894   */\n      dup1\n        /* \"#utility.yul\":8888:8891   */\n      dup3\n        /* \"#utility.yul\":8884:8895   */\n      add\n        /* \"#utility.yul\":8878:8896   */\n      mload\n        /* \"#utility.yul\":8874:8875   */\n      dup2\n        /* \"#utility.yul\":8869:8872   */\n      dup5\n        /* \"#utility.yul\":8865:8876   */\n      add\n        /* \"#utility.yul\":8858:8897   */\n      mstore\n        /* \"#utility.yul\":8830:8832   */\n      0x20\n        /* \"#utility.yul\":8827:8828   */\n      dup2\n        /* \"#utility.yul\":8823:8833   */\n      add\n        /* \"#utility.yul\":8818:8833   */\n      swap1\n      pop\n        /* \"#utility.yul\":8794:8907   */\n      jump(tag_175)\n    tag_177:\n        /* \"#utility.yul\":8925:8931   */\n      dup4\n        /* \"#utility.yul\":8922:8923   */\n      dup2\n        /* \"#utility.yul\":8919:8932   */\n      gt\n        /* \"#utility.yul\":8916:8918   */\n      iszero\n      tag_178\n      jumpi\n        /* \"#utility.yul\":9005:9006   */\n      0x00\n        /* \"#utility.yul\":8996:9002   */\n      dup5\n        /* \"#utility.yul\":8991:8994   */\n      dup5\n        /* \"#utility.yul\":8987:9003   */\n      add\n        /* \"#utility.yul\":8980:9007   */\n      mstore\n        /* \"#utility.yul\":8916:8918   */\n    tag_178:\n        /* \"#utility.yul\":8765:9023   */\n      pop\n      pop\n      pop\n      pop\n      jump\t// out\n        /* \"#utility.yul\":9029:9349   */\n    tag_29:\n        /* \"#utility.yul\":9073:9079   */\n      0x00\n        /* \"#utility.yul\":9110:9111   */\n      0x02\n        /* \"#utility.yul\":9104:9108   */\n      dup3\n        /* \"#utility.yul\":9100:9112   */\n      div\n        /* \"#utility.yul\":9090:9112   */\n      swap1\n      pop\n        /* \"#utility.yul\":9157:9158   */\n      0x01\n        /* \"#utility.yul\":9151:9155   */\n      dup3\n        /* \"#utility.yul\":9147:9159   */\n      and\n        /* \"#utility.yul\":9178:9196   */\n      dup1\n        /* \"#utility.yul\":9168:9170   */\n      tag_180\n      jumpi\n        /* \"#utility.yul\":9234:9238   */\n      0x7f\n        /* \"#utility.yul\":9226:9232   */\n      dup3\n        /* \"#utility.yul\":9222:9239   */\n      and\n        /* \"#utility.yul\":9212:9239   */\n      swap2\n      pop\n        /* \"#utility.yul\":9168:9170   */\n    tag_180:\n        /* \"#utility.yul\":9296:9298   */\n      0x20\n        /* \"#utility.yul\":9288:9294   */\n      dup3\n        /* \"#utility.yul\":9285:9299   */\n      lt\n        /* \"#utility.yul\":9265:9283   */\n      dup2\n        /* \"#utility.yul\":9262:9300   */\n      eq\n        /* \"#utility.yul\":9259:9261   */\n      iszero\n      tag_181\n      jumpi\n        /* \"#utility.yul\":9315:9333   */\n      tag_182\n      tag_183\n      jump\t// in\n    tag_182:\n        /* \"#utility.yul\":9259:9261   */\n    tag_181:\n        /* \"#utility.yul\":9080:9349   */\n      pop\n      swap2\n      swap1\n      pop\n      jump\t// out\n        /* \"#utility.yul\":9355:9636   */\n    tag_154:\n        /* \"#utility.yul\":9438:9465   */\n      tag_185\n        /* \"#utility.yul\":9460:9464   */\n      dup3\n        /* \"#utility.yul\":9438:9465   */\n      tag_124\n      jump\t// in\n    tag_185:\n        /* \"#utility.yul\":9430:9436   */\n      dup2\n        /* \"#utility.yul\":9426:9466   */\n      add\n        /* \"#utility.yul\":9568:9574   */\n      dup2\n        /* \"#utility.yul\":9556:9566   */\n      dup2\n        /* \"#utility.yul\":9553:9575   */\n      lt\n        /* \"#utility.yul\":9532:9550   */\n      0xffffffffffffffff\n        /* \"#utility.yul\":9520:9530   */\n      dup3\n        /* \"#utility.yul\":9517:9551   */\n      gt\n        /* \"#utility.yul\":9514:9576   */\n      or\n        /* \"#utility.yul\":9511:9513   */\n      iszero\n      tag_186\n      jumpi\n        /* \"#utility.yul\":9579:9597   */\n      tag_187\n      tag_159\n      jump\t// in\n    tag_187:\n        /* \"#utility.yul\":9511:9513   */\n    tag_186:\n        /* \"#utility.yul\":9619:9629   */\n      dup1\n        /* \"#utility.yul\":9615:9617   */\n      0x40\n        /* \"#utility.yul\":9608:9630   */\n      mstore\n        /* \"#utility.yul\":9398:9636   */\n      pop\n      pop\n      pop\n      jump\t// out\n        /* \"#utility.yul\":9642:9822   */\n    tag_183:\n        /* \"#utility.yul\":9690:9767   */\n      0x4e487b7100000000000000000000000000000000000000000000000000000000\n        /* \"#utility.yul\":9687:9688   */\n      0x00\n        /* \"#utility.yul\":9680:9768   */\n      mstore\n        /* \"#utility.yul\":9787:9791   */\n      0x22\n        /* \"#utility.yul\":9784:9785   */\n      0x04\n        /* \"#utility.yul\":9777:9792   */\n      mstore\n        /* \"#utility.yul\":9811:9815   */\n      0x24\n        /* \"#utility.yul\":9808:9809   */\n      0x00\n        /* \"#utility.yul\":9801:9816   */\n      revert\n        /* \"#utility.yul\":9828:10008   */\n    tag_159:\n        /* \"#utility.yul\":9876:9953   */\n      0x4e487b7100000000000000000000000000000000000000000000000000000000\n        /* \"#utility.yul\":9873:9874   */\n      0x00\n        /* \"#utility.yul\":9866:9954   */\n      mstore\n        /* \"#utility.yul\":9973:9977   */\n      0x41\n        /* \"#utility.yul\":9970:9971   */\n      0x04\n        /* \"#utility.yul\":9963:9978   */\n      mstore\n        /* \"#utility.yul\":9997:10001   */\n      0x24\n        /* \"#utility.yul\":9994:9995   */\n      0x00\n        /* \"#utility.yul\":9987:10002   */\n      revert\n        /* \"#utility.yul\":10014:10116   */\n    tag_124:\n        /* \"#utility.yul\":10055:10061   */\n      0x00\n        /* \"#utility.yul\":10106:10108   */\n      0x1f\n        /* \"#utility.yul\":10102:10109   */\n      not\n        /* \"#utility.yul\":10097:10099   */\n      0x1f\n        /* \"#utility.yul\":10090:10095   */\n      dup4\n        /* \"#utility.yul\":10086:10100   */\n      add\n        /* \"#utility.yul\":10082:10110   */\n      and\n        /* \"#utility.yul\":10072:10110   */\n      swap1\n      pop\n        /* \"#utility.yul\":10062:10116   */\n      swap2\n      swap1\n      pop\n      jump\t// out\n        /* \"#utility.yul\":10122:10244   */\n    tag_81:\n        /* \"#utility.yul\":10195:10219   */\n      tag_192\n        /* \"#utility.yul\":10213:10218   */\n      dup2\n        /* \"#utility.yul\":10195:10219   */\n      tag_138\n      jump\t// in\n    tag_192:\n        /* \"#utility.yul\":10188:10193   */\n      dup2\n        /* \"#utility.yul\":10185:10220   */\n      eq\n        /* \"#utility.yul\":10175:10177   */\n      tag_193\n      jumpi\n        /* \"#utility.yul\":10234:10235   */\n      0x00\n        /* \"#utility.yul\":10231:10232   */\n      dup1\n        /* \"#utility.yul\":10224:10236   */\n      revert\n        /* \"#utility.yul\":10175:10177   */\n    tag_193:\n        /* \"#utility.yul\":10165:10244   */\n      pop\n      jump\t// out\n    stop\n\n    sub_0: assembly {\n            /* \"campaign.sol\":727:3111  contract Campaign {\r... */\n          mstore(0x40, 0x80)\n            /* \"campaign.sol\":1357:1529  constructor(uint minimum, address creator, string memory title) {\r... */\n          callvalue\n          dup1\n          iszero\n          tag_1\n          jumpi\n          0x00\n          dup1\n          revert\n        tag_1:\n          pop\n          mload(0x40)\n          sub(codesize, bytecodeSize)\n          dup1\n          bytecodeSize\n          dup4\n          codecopy\n          dup2\n          dup2\n          add\n          0x40\n          mstore\n          dup2\n          add\n          swap1\n          tag_2\n          swap2\n          swap1\n          tag_3\n          jump\t// in\n        tag_2:\n            /* \"campaign.sol\":1442:1449  creator */\n          dup2\n            /* \"campaign.sol\":1432:1439  manager */\n          0x00\n          dup1\n            /* \"campaign.sol\":1432:1449  manager = creator */\n          0x0100\n          exp\n          dup2\n          sload\n          dup2\n          0xffffffffffffffffffffffffffffffffffffffff\n          mul\n          not\n          and\n          swap1\n          dup4\n          0xffffffffffffffffffffffffffffffffffffffff\n          and\n          mul\n          or\n          swap1\n          sstore\n          pop\n            /* \"campaign.sol\":1482:1489  minimum */\n          dup3\n            /* \"campaign.sol\":1460:1479  minimumContribution */\n          0x02\n            /* \"campaign.sol\":1460:1489  minimumContribution = minimum */\n          dup2\n          swap1\n          sstore\n          pop\n            /* \"campaign.sol\":1516:1521  title */\n          dup1\n            /* \"campaign.sol\":1500:1513  titleCompaign */\n          0x01\n            /* \"campaign.sol\":1500:1521  titleCompaign = title */\n          swap1\n          dup1\n          mload\n          swap1\n          0x20\n          add\n          swap1\n          tag_6\n          swap3\n          swap2\n          swap1\n          tag_7\n          jump\t// in\n        tag_6:\n          pop\n            /* \"campaign.sol\":1357:1529  constructor(uint minimum, address creator, string memory title) {\r... */\n          pop\n          pop\n          pop\n            /* \"campaign.sol\":727:3111  contract Campaign {\r... */\n          jump(tag_8)\n        tag_7:\n          dup3\n          dup1\n          sload\n          tag_9\n          swap1\n          tag_10\n          jump\t// in\n        tag_9:\n          swap1\n          0x00\n          mstore\n          keccak256(0x00, 0x20)\n          swap1\n          0x1f\n          add\n          0x20\n          swap1\n          div\n          dup2\n          add\n          swap3\n          dup3\n          tag_12\n          jumpi\n          0x00\n          dup6\n          sstore\n          jump(tag_11)\n        tag_12:\n          dup3\n          0x1f\n          lt\n          tag_13\n          jumpi\n          dup1\n          mload\n          not(0xff)\n          and\n          dup4\n          dup1\n          add\n          or\n          dup6\n          sstore\n          jump(tag_11)\n        tag_13:\n          dup3\n          dup1\n          add\n          0x01\n          add\n          dup6\n          sstore\n          dup3\n          iszero\n          tag_11\n          jumpi\n          swap2\n          dup3\n          add\n        tag_14:\n          dup3\n          dup2\n          gt\n          iszero\n          tag_15\n          jumpi\n          dup3\n          mload\n          dup3\n          sstore\n          swap2\n          0x20\n          add\n          swap2\n          swap1\n          0x01\n          add\n          swap1\n          jump(tag_14)\n        tag_15:\n        tag_11:\n          pop\n          swap1\n          pop\n          tag_16\n          swap2\n          swap1\n          tag_17\n          jump\t// in\n        tag_16:\n          pop\n          swap1\n          jump\t// out\n        tag_17:\n        tag_18:\n          dup1\n          dup3\n          gt\n          iszero\n          tag_19\n          jumpi\n          0x00\n          dup2\n          0x00\n          swap1\n          sstore\n          pop\n          0x01\n          add\n          jump(tag_18)\n        tag_19:\n          pop\n          swap1\n          jump\t// out\n            /* \"#utility.yul\":7:361   */\n        tag_21:\n            /* \"#utility.yul\":96:101   */\n          0x00\n            /* \"#utility.yul\":121:187   */\n          tag_23\n            /* \"#utility.yul\":137:186   */\n          tag_24\n            /* \"#utility.yul\":179:185   */\n          dup5\n            /* \"#utility.yul\":137:186   */\n          tag_25\n          jump\t// in\n        tag_24:\n            /* \"#utility.yul\":121:187   */\n          tag_26\n          jump\t// in\n        tag_23:\n            /* \"#utility.yul\":112:187   */\n          swap1\n          pop\n            /* \"#utility.yul\":210:216   */\n          dup3\n            /* \"#utility.yul\":203:208   */\n          dup2\n            /* \"#utility.yul\":196:217   */\n          mstore\n            /* \"#utility.yul\":248:252   */\n          0x20\n            /* \"#utility.yul\":241:246   */\n          dup2\n            /* \"#utility.yul\":237:253   */\n          add\n            /* \"#utility.yul\":286:289   */\n          dup5\n            /* \"#utility.yul\":277:283   */\n          dup5\n            /* \"#utility.yul\":272:275   */\n          dup5\n            /* \"#utility.yul\":268:284   */\n          add\n            /* \"#utility.yul\":265:290   */\n          gt\n            /* \"#utility.yul\":262:264   */\n          iszero\n          tag_27\n          jumpi\n            /* \"#utility.yul\":303:304   */\n          0x00\n            /* \"#utility.yul\":300:301   */\n          dup1\n            /* \"#utility.yul\":293:305   */\n          revert\n            /* \"#utility.yul\":262:264   */\n        tag_27:\n            /* \"#utility.yul\":316:355   */\n          tag_28\n            /* \"#utility.yul\":348:354   */\n          dup5\n            /* \"#utility.yul\":343:346   */\n          dup3\n            /* \"#utility.yul\":338:341   */\n          dup6\n            /* \"#utility.yul\":316:355   */\n          tag_29\n          jump\t// in\n        tag_28:\n            /* \"#utility.yul\":102:361   */\n          pop\n          swap4\n          swap3\n          pop\n          pop\n          pop\n          jump\t// out\n            /* \"#utility.yul\":367:510   */\n        tag_30:\n            /* \"#utility.yul\":424:429   */\n          0x00\n            /* \"#utility.yul\":455:461   */\n          dup2\n            /* \"#utility.yul\":449:462   */\n          mload\n            /* \"#utility.yul\":440:462   */\n          swap1\n          pop\n            /* \"#utility.yul\":471:504   */\n          tag_32\n            /* \"#utility.yul\":498:503   */\n          dup2\n            /* \"#utility.yul\":471:504   */\n          tag_33\n          jump\t// in\n        tag_32:\n            /* \"#utility.yul\":430:510   */\n          swap3\n          swap2\n          pop\n          pop\n          jump\t// out\n            /* \"#utility.yul\":530:818   */\n        tag_34:\n            /* \"#utility.yul\":597:602   */\n          0x00\n            /* \"#utility.yul\":646:649   */\n          dup3\n            /* \"#utility.yul\":639:643   */\n          0x1f\n            /* \"#utility.yul\":631:637   */\n          dup4\n            /* \"#utility.yul\":627:644   */\n          add\n            /* \"#utility.yul\":623:650   */\n          slt\n            /* \"#utility.yul\":613:615   */\n          tag_36\n          jumpi\n            /* \"#utility.yul\":664:665   */\n          0x00\n            /* \"#utility.yul\":661:662   */\n          dup1\n            /* \"#utility.yul\":654:666   */\n          revert\n            /* \"#utility.yul\":613:615   */\n        tag_36:\n            /* \"#utility.yul\":697:703   */\n          dup2\n            /* \"#utility.yul\":691:704   */\n          mload\n            /* \"#utility.yul\":722:812   */\n          tag_37\n            /* \"#utility.yul\":808:811   */\n          dup5\n            /* \"#utility.yul\":800:806   */\n          dup3\n            /* \"#utility.yul\":793:797   */\n          0x20\n            /* \"#utility.yul\":785:791   */\n          dup7\n            /* \"#utility.yul\":781:798   */\n          add\n            /* \"#utility.yul\":722:812   */\n          tag_21\n          jump\t// in\n        tag_37:\n            /* \"#utility.yul\":713:812   */\n          swap2\n          pop\n            /* \"#utility.yul\":603:818   */\n          pop\n          swap3\n          swap2\n          pop\n          pop\n          jump\t// out\n            /* \"#utility.yul\":824:967   */\n        tag_38:\n            /* \"#utility.yul\":881:886   */\n          0x00\n            /* \"#utility.yul\":912:918   */\n          dup2\n            /* \"#utility.yul\":906:919   */\n          mload\n            /* \"#utility.yul\":897:919   */\n          swap1\n          pop\n            /* \"#utility.yul\":928:961   */\n          tag_40\n            /* \"#utility.yul\":955:960   */\n          dup2\n            /* \"#utility.yul\":928:961   */\n          tag_41\n          jump\t// in\n        tag_40:\n            /* \"#utility.yul\":887:967   */\n          swap3\n          swap2\n          pop\n          pop\n          jump\t// out\n            /* \"#utility.yul\":973:1675   */\n        tag_3:\n            /* \"#utility.yul\":1071:1077   */\n          0x00\n            /* \"#utility.yul\":1079:1085   */\n          dup1\n            /* \"#utility.yul\":1087:1093   */\n          0x00\n            /* \"#utility.yul\":1136:1138   */\n          0x60\n            /* \"#utility.yul\":1124:1133   */\n          dup5\n            /* \"#utility.yul\":1115:1122   */\n          dup7\n            /* \"#utility.yul\":1111:1134   */\n          sub\n            /* \"#utility.yul\":1107:1139   */\n          slt\n            /* \"#utility.yul\":1104:1106   */\n          iszero\n          tag_43\n          jumpi\n            /* \"#utility.yul\":1152:1153   */\n          0x00\n            /* \"#utility.yul\":1149:1150   */\n          dup1\n            /* \"#utility.yul\":1142:1154   */\n          revert\n            /* \"#utility.yul\":1104:1106   */\n        tag_43:\n            /* \"#utility.yul\":1195:1196   */\n          0x00\n            /* \"#utility.yul\":1220:1284   */\n          tag_44\n            /* \"#utility.yul\":1276:1283   */\n          dup7\n            /* \"#utility.yul\":1267:1273   */\n          dup3\n            /* \"#utility.yul\":1256:1265   */\n          dup8\n            /* \"#utility.yul\":1252:1274   */\n          add\n            /* \"#utility.yul\":1220:1284   */\n          tag_38\n          jump\t// in\n        tag_44:\n            /* \"#utility.yul\":1210:1284   */\n          swap4\n          pop\n            /* \"#utility.yul\":1166:1294   */\n          pop\n            /* \"#utility.yul\":1333:1335   */\n          0x20\n            /* \"#utility.yul\":1359:1423   */\n          tag_45\n            /* \"#utility.yul\":1415:1422   */\n          dup7\n            /* \"#utility.yul\":1406:1412   */\n          dup3\n            /* \"#utility.yul\":1395:1404   */\n          dup8\n            /* \"#utility.yul\":1391:1413   */\n          add\n            /* \"#utility.yul\":1359:1423   */\n          tag_30\n          jump\t// in\n        tag_45:\n            /* \"#utility.yul\":1349:1423   */\n          swap3\n          pop\n            /* \"#utility.yul\":1304:1433   */\n          pop\n            /* \"#utility.yul\":1493:1495   */\n          0x40\n            /* \"#utility.yul\":1482:1491   */\n          dup5\n            /* \"#utility.yul\":1478:1496   */\n          add\n            /* \"#utility.yul\":1472:1497   */\n          mload\n            /* \"#utility.yul\":1524:1542   */\n          0xffffffffffffffff\n            /* \"#utility.yul\":1516:1522   */\n          dup2\n            /* \"#utility.yul\":1513:1543   */\n          gt\n            /* \"#utility.yul\":1510:1512   */\n          iszero\n          tag_46\n          jumpi\n            /* \"#utility.yul\":1556:1557   */\n          0x00\n            /* \"#utility.yul\":1553:1554   */\n          dup1\n            /* \"#utility.yul\":1546:1558   */\n          revert\n            /* \"#utility.yul\":1510:1512   */\n        tag_46:\n            /* \"#utility.yul\":1584:1658   */\n          tag_47\n            /* \"#utility.yul\":1650:1657   */\n          dup7\n            /* \"#utility.yul\":1641:1647   */\n          dup3\n            /* \"#utility.yul\":1630:1639   */\n          dup8\n            /* \"#utility.yul\":1626:1648   */\n          add\n            /* \"#utility.yul\":1584:1658   */\n          tag_34\n          jump\t// in\n        tag_47:\n            /* \"#utility.yul\":1574:1658   */\n          swap2\n          pop\n            /* \"#utility.yul\":1443:1668   */\n          pop\n            /* \"#utility.yul\":1094:1675   */\n          swap3\n          pop\n          swap3\n          pop\n          swap3\n          jump\t// out\n            /* \"#utility.yul\":1681:1810   */\n        tag_26:\n            /* \"#utility.yul\":1715:1721   */\n          0x00\n            /* \"#utility.yul\":1742:1762   */\n          tag_49\n          tag_50\n          jump\t// in\n        tag_49:\n            /* \"#utility.yul\":1732:1762   */\n          swap1\n          pop\n            /* \"#utility.yul\":1771:1804   */\n          tag_51\n            /* \"#utility.yul\":1799:1803   */\n          dup3\n            /* \"#utility.yul\":1791:1797   */\n          dup3\n            /* \"#utility.yul\":1771:1804   */\n          tag_52\n          jump\t// in\n        tag_51:\n            /* \"#utility.yul\":1722:1810   */\n          swap2\n          swap1\n          pop\n          jump\t// out\n            /* \"#utility.yul\":1816:1891   */\n        tag_50:\n            /* \"#utility.yul\":1849:1855   */\n          0x00\n            /* \"#utility.yul\":1882:1884   */\n          0x40\n            /* \"#utility.yul\":1876:1885   */\n          mload\n            /* \"#utility.yul\":1866:1885   */\n          swap1\n          pop\n            /* \"#utility.yul\":1856:1891   */\n          swap1\n          jump\t// out\n            /* \"#utility.yul\":1897:2205   */\n        tag_25:\n            /* \"#utility.yul\":1959:1963   */\n          0x00\n            /* \"#utility.yul\":2049:2067   */\n          0xffffffffffffffff\n            /* \"#utility.yul\":2041:2047   */\n          dup3\n            /* \"#utility.yul\":2038:2068   */\n          gt\n            /* \"#utility.yul\":2035:2037   */\n          iszero\n          tag_55\n          jumpi\n            /* \"#utility.yul\":2071:2089   */\n          tag_56\n          tag_57\n          jump\t// in\n        tag_56:\n            /* \"#utility.yul\":2035:2037   */\n        tag_55:\n            /* \"#utility.yul\":2109:2138   */\n          tag_58\n            /* \"#utility.yul\":2131:2137   */\n          dup3\n            /* \"#utility.yul\":2109:2138   */\n          tag_59\n          jump\t// in\n        tag_58:\n            /* \"#utility.yul\":2101:2138   */\n          swap1\n          pop\n            /* \"#utility.yul\":2193:2197   */\n          0x20\n            /* \"#utility.yul\":2187:2191   */\n          dup2\n            /* \"#utility.yul\":2183:2198   */\n          add\n            /* \"#utility.yul\":2175:2198   */\n          swap1\n          pop\n            /* \"#utility.yul\":1964:2205   */\n          swap2\n          swap1\n          pop\n          jump\t// out\n            /* \"#utility.yul\":2211:2307   */\n        tag_60:\n            /* \"#utility.yul\":2248:2255   */\n          0x00\n            /* \"#utility.yul\":2277:2301   */\n          tag_62\n            /* \"#utility.yul\":2295:2300   */\n          dup3\n            /* \"#utility.yul\":2277:2301   */\n          tag_63\n          jump\t// in\n        tag_62:\n            /* \"#utility.yul\":2266:2301   */\n          swap1\n          pop\n            /* \"#utility.yul\":2256:2307   */\n          swap2\n          swap1\n          pop\n          jump\t// out\n            /* \"#utility.yul\":2313:2439   */\n        tag_63:\n            /* \"#utility.yul\":2350:2357   */\n          0x00\n            /* \"#utility.yul\":2390:2432   */\n          0xffffffffffffffffffffffffffffffffffffffff\n            /* \"#utility.yul\":2383:2388   */\n          dup3\n            /* \"#utility.yul\":2379:2433   */\n          and\n            /* \"#utility.yul\":2368:2433   */\n          swap1\n          pop\n            /* \"#utility.yul\":2358:2439   */\n          swap2\n          swap1\n          pop\n          jump\t// out\n            /* \"#utility.yul\":2445:2522   */\n        tag_65:\n            /* \"#utility.yul\":2482:2489   */\n          0x00\n            /* \"#utility.yul\":2511:2516   */\n          dup2\n            /* \"#utility.yul\":2500:2516   */\n          swap1\n          pop\n            /* \"#utility.yul\":2490:2522   */\n          swap2\n          swap1\n          pop\n          jump\t// out\n            /* \"#utility.yul\":2528:2835   */\n        tag_29:\n            /* \"#utility.yul\":2596:2597   */\n          0x00\n            /* \"#utility.yul\":2606:2719   */\n        tag_68:\n            /* \"#utility.yul\":2620:2626   */\n          dup4\n            /* \"#utility.yul\":2617:2618   */\n          dup2\n            /* \"#utility.yul\":2614:2627   */\n          lt\n            /* \"#utility.yul\":2606:2719   */\n          iszero\n          tag_70\n          jumpi\n            /* \"#utility.yul\":2705:2706   */\n          dup1\n            /* \"#utility.yul\":2700:2703   */\n          dup3\n            /* \"#utility.yul\":2696:2707   */\n          add\n            /* \"#utility.yul\":2690:2708   */\n          mload\n            /* \"#utility.yul\":2686:2687   */\n          dup2\n            /* \"#utility.yul\":2681:2684   */\n          dup5\n            /* \"#utility.yul\":2677:2688   */\n          add\n            /* \"#utility.yul\":2670:2709   */\n          mstore\n            /* \"#utility.yul\":2642:2644   */\n          0x20\n            /* \"#utility.yul\":2639:2640   */\n          dup2\n            /* \"#utility.yul\":2635:2645   */\n          add\n            /* \"#utility.yul\":2630:2645   */\n          swap1\n          pop\n            /* \"#utility.yul\":2606:2719   */\n          jump(tag_68)\n        tag_70:\n            /* \"#utility.yul\":2737:2743   */\n          dup4\n            /* \"#utility.yul\":2734:2735   */\n          dup2\n            /* \"#utility.yul\":2731:2744   */\n          gt\n            /* \"#utility.yul\":2728:2730   */\n          iszero\n          tag_71\n          jumpi\n            /* \"#utility.yul\":2817:2818   */\n          0x00\n            /* \"#utility.yul\":2808:2814   */\n          dup5\n            /* \"#utility.yul\":2803:2806   */\n          dup5\n            /* \"#utility.yul\":2799:2815   */\n          add\n            /* \"#utility.yul\":2792:2819   */\n          mstore\n            /* \"#utility.yul\":2728:2730   */\n        tag_71:\n            /* \"#utility.yul\":2577:2835   */\n          pop\n          pop\n          pop\n          pop\n          jump\t// out\n            /* \"#utility.yul\":2841:3161   */\n        tag_10:\n            /* \"#utility.yul\":2885:2891   */\n          0x00\n            /* \"#utility.yul\":2922:2923   */\n          0x02\n            /* \"#utility.yul\":2916:2920   */\n          dup3\n            /* \"#utility.yul\":2912:2924   */\n          div\n            /* \"#utility.yul\":2902:2924   */\n          swap1\n          pop\n            /* \"#utility.yul\":2969:2970   */\n          0x01\n            /* \"#utility.yul\":2963:2967   */\n          dup3\n            /* \"#utility.yul\":2959:2971   */\n          and\n            /* \"#utility.yul\":2990:3008   */\n          dup1\n            /* \"#utility.yul\":2980:2982   */\n          tag_73\n          jumpi\n            /* \"#utility.yul\":3046:3050   */\n          0x7f\n            /* \"#utility.yul\":3038:3044   */\n          dup3\n            /* \"#utility.yul\":3034:3051   */\n          and\n            /* \"#utility.yul\":3024:3051   */\n          swap2\n          pop\n            /* \"#utility.yul\":2980:2982   */\n        tag_73:\n            /* \"#utility.yul\":3108:3110   */\n          0x20\n            /* \"#utility.yul\":3100:3106   */\n          dup3\n            /* \"#utility.yul\":3097:3111   */\n          lt\n            /* \"#utility.yul\":3077:3095   */\n          dup2\n            /* \"#utility.yul\":3074:3112   */\n          eq\n            /* \"#utility.yul\":3071:3073   */\n          iszero\n          tag_74\n          jumpi\n            /* \"#utility.yul\":3127:3145   */\n          tag_75\n          tag_76\n          jump\t// in\n        tag_75:\n            /* \"#utility.yul\":3071:3073   */\n        tag_74:\n            /* \"#utility.yul\":2892:3161   */\n          pop\n          swap2\n          swap1\n          pop\n          jump\t// out\n            /* \"#utility.yul\":3167:3448   */\n        tag_52:\n            /* \"#utility.yul\":3250:3277   */\n          tag_78\n            /* \"#utility.yul\":3272:3276   */\n          dup3\n            /* \"#utility.yul\":3250:3277   */\n          tag_59\n          jump\t// in\n        tag_78:\n            /* \"#utility.yul\":3242:3248   */\n          dup2\n            /* \"#utility.yul\":3238:3278   */\n          add\n            /* \"#utility.yul\":3380:3386   */\n          dup2\n            /* \"#utility.yul\":3368:3378   */\n          dup2\n            /* \"#utility.yul\":3365:3387   */\n          lt\n            /* \"#utility.yul\":3344:3362   */\n          0xffffffffffffffff\n            /* \"#utility.yul\":3332:3342   */\n          dup3\n            /* \"#utility.yul\":3329:3363   */\n          gt\n            /* \"#utility.yul\":3326:3388   */\n          or\n            /* \"#utility.yul\":3323:3325   */\n          iszero\n          tag_79\n          jumpi\n            /* \"#utility.yul\":3391:3409   */\n          tag_80\n          tag_57\n          jump\t// in\n        tag_80:\n            /* \"#utility.yul\":3323:3325   */\n        tag_79:\n            /* \"#utility.yul\":3431:3441   */\n          dup1\n            /* \"#utility.yul\":3427:3429   */\n          0x40\n            /* \"#utility.yul\":3420:3442   */\n          mstore\n            /* \"#utility.yul\":3210:3448   */\n          pop\n          pop\n          pop\n          jump\t// out\n            /* \"#utility.yul\":3454:3634   */\n        tag_76:\n            /* \"#utility.yul\":3502:3579   */\n          0x4e487b7100000000000000000000000000000000000000000000000000000000\n            /* \"#utility.yul\":3499:3500   */\n          0x00\n            /* \"#utility.yul\":3492:3580   */\n          mstore\n            /* \"#utility.yul\":3599:3603   */\n          0x22\n            /* \"#utility.yul\":3596:3597   */\n          0x04\n            /* \"#utility.yul\":3589:3604   */\n          mstore\n            /* \"#utility.yul\":3623:3627   */\n          0x24\n            /* \"#utility.yul\":3620:3621   */\n          0x00\n            /* \"#utility.yul\":3613:3628   */\n          revert\n            /* \"#utility.yul\":3640:3820   */\n        tag_57:\n            /* \"#utility.yul\":3688:3765   */\n          0x4e487b7100000000000000000000000000000000000000000000000000000000\n            /* \"#utility.yul\":3685:3686   */\n          0x00\n            /* \"#utility.yul\":3678:3766   */\n          mstore\n            /* \"#utility.yul\":3785:3789   */\n          0x41\n            /* \"#utility.yul\":3782:3783   */\n          0x04\n            /* \"#utility.yul\":3775:3790   */\n          mstore\n            /* \"#utility.yul\":3809:3813   */\n          0x24\n            /* \"#utility.yul\":3806:3807   */\n          0x00\n            /* \"#utility.yul\":3799:3814   */\n          revert\n            /* \"#utility.yul\":3826:3928   */\n        tag_59:\n            /* \"#utility.yul\":3867:3873   */\n          0x00\n            /* \"#utility.yul\":3918:3920   */\n          0x1f\n            /* \"#utility.yul\":3914:3921   */\n          not\n            /* \"#utility.yul\":3909:3911   */\n          0x1f\n            /* \"#utility.yul\":3902:3907   */\n          dup4\n            /* \"#utility.yul\":3898:3912   */\n          add\n            /* \"#utility.yul\":3894:3922   */\n          and\n            /* \"#utility.yul\":3884:3922   */\n          swap1\n          pop\n            /* \"#utility.yul\":3874:3928   */\n          swap2\n          swap1\n          pop\n          jump\t// out\n            /* \"#utility.yul\":3934:4056   */\n        tag_33:\n            /* \"#utility.yul\":4007:4031   */\n          tag_85\n            /* \"#utility.yul\":4025:4030   */\n          dup2\n            /* \"#utility.yul\":4007:4031   */\n          tag_60\n          jump\t// in\n        tag_85:\n            /* \"#utility.yul\":4000:4005   */\n          dup2\n            /* \"#utility.yul\":3997:4032   */\n          eq\n            /* \"#utility.yul\":3987:3989   */\n          tag_86\n          jumpi\n            /* \"#utility.yul\":4046:4047   */\n          0x00\n            /* \"#utility.yul\":4043:4044   */\n          dup1\n            /* \"#utility.yul\":4036:4048   */\n          revert\n            /* \"#utility.yul\":3987:3989   */\n        tag_86:\n            /* \"#utility.yul\":3977:4056   */\n          pop\n          jump\t// out\n            /* \"#utility.yul\":4062:4184   */\n        tag_41:\n            /* \"#utility.yul\":4135:4159   */\n          tag_88\n            /* \"#utility.yul\":4153:4158   */\n          dup2\n            /* \"#utility.yul\":4135:4159   */\n          tag_65\n          jump\t// in\n        tag_88:\n            /* \"#utility.yul\":4128:4133   */\n          dup2\n            /* \"#utility.yul\":4125:4160   */\n          eq\n            /* \"#utility.yul\":4115:4117   */\n          tag_89\n          jumpi\n            /* \"#utility.yul\":4174:4175   */\n          0x00\n            /* \"#utility.yul\":4171:4172   */\n          dup1\n            /* \"#utility.yul\":4164:4176   */\n          revert\n            /* \"#utility.yul\":4115:4117   */\n        tag_89:\n            /* \"#utility.yul\":4105:4184   */\n          pop\n          jump\t// out\n            /* \"campaign.sol\":727:3111  contract Campaign {\r... */\n        tag_8:\n          dataSize(sub_0)\n          dup1\n          dataOffset(sub_0)\n          0x00\n          codecopy\n          0x00\n          return\n        stop\n\n        sub_0: assembly {\n                /* \"campaign.sol\":727:3111  contract Campaign {\r... */\n              mstore(0x40, 0x80)\n              jumpi(tag_1, lt(calldatasize, 0x04))\n              shr(0xe0, calldataload(0x00))\n              dup1\n              0x81d12c58\n              gt\n              tag_14\n              jumpi\n              dup1\n              0x81d12c58\n              eq\n              tag_8\n              jumpi\n              dup1\n              0x82fde093\n              eq\n              tag_9\n              jumpi\n              dup1\n              0x8a9cfd55\n              eq\n              tag_10\n              jumpi\n              dup1\n              0x937e09b1\n              eq\n              tag_11\n              jumpi\n              dup1\n              0xd7bb99ba\n              eq\n              tag_12\n              jumpi\n              dup1\n              0xd7d1bbdb\n              eq\n              tag_13\n              jumpi\n              jump(tag_1)\n            tag_14:\n              dup1\n              0x03441006\n              eq\n              tag_2\n              jumpi\n              dup1\n              0x0a144391\n              eq\n              tag_3\n              jumpi\n              dup1\n              0x32461bd8\n              eq\n              tag_4\n              jumpi\n              dup1\n              0x4051ddac\n              eq\n              tag_5\n              jumpi\n              dup1\n              0x481c6a75\n              eq\n              tag_6\n              jumpi\n              dup1\n              0x5badbe4c\n              eq\n              tag_7\n              jumpi\n            tag_1:\n              0x00\n              dup1\n              revert\n                /* \"campaign.sol\":2441:2773  function finalizeRequest(uint index) public managerOnly {\r... */\n            tag_2:\n              callvalue\n              dup1\n              iszero\n              tag_15\n              jumpi\n              0x00\n              dup1\n              revert\n            tag_15:\n              pop\n              tag_16\n              0x04\n              dup1\n              calldatasize\n              sub\n              dup2\n              add\n              swap1\n              tag_17\n              swap2\n              swap1\n              tag_18\n              jump\t// in\n            tag_17:\n              tag_19\n              jump\t// in\n            tag_16:\n              stop\n                /* \"campaign.sol\":1096:1137  mapping(address => bool) public approvers */\n            tag_3:\n              callvalue\n              dup1\n              iszero\n              tag_20\n              jumpi\n              0x00\n              dup1\n              revert\n            tag_20:\n              pop\n              tag_21\n              0x04\n              dup1\n              calldatasize\n              sub\n              dup2\n              add\n              swap1\n              tag_22\n              swap2\n              swap1\n              tag_23\n              jump\t// in\n            tag_22:\n              tag_24\n              jump\t// in\n            tag_21:\n              mload(0x40)\n              tag_25\n              swap2\n              swap1\n              tag_26\n              jump\t// in\n            tag_25:\n              mload(0x40)\n              dup1\n              swap2\n              sub\n              swap1\n              return\n                /* \"campaign.sol\":998:1025  string public titleCompaign */\n            tag_4:\n              callvalue\n              dup1\n              iszero\n              tag_27\n              jumpi\n              0x00\n              dup1\n              revert\n            tag_27:\n              pop\n              tag_28\n              tag_29\n              jump\t// in\n            tag_28:\n              mload(0x40)\n              tag_30\n              swap2\n              swap1\n              tag_31\n              jump\t// in\n            tag_30:\n              mload(0x40)\n              dup1\n              swap2\n              sub\n              swap1\n              return\n                /* \"campaign.sol\":2781:3108  function getSummary() external view returns (\r... */\n            tag_5:\n              callvalue\n              dup1\n              iszero\n              tag_32\n              jumpi\n              0x00\n              dup1\n              revert\n            tag_32:\n              pop\n              tag_33\n              tag_34\n              jump\t// in\n            tag_33:\n              mload(0x40)\n              tag_35\n              swap7\n              swap6\n              swap5\n              swap4\n              swap3\n              swap2\n              swap1\n              tag_36\n              jump\t// in\n            tag_35:\n              mload(0x40)\n              dup1\n              swap2\n              sub\n              swap1\n              return\n                /* \"campaign.sol\":963:985  address public manager */\n            tag_6:\n              callvalue\n              dup1\n              iszero\n              tag_37\n              jumpi\n              0x00\n              dup1\n              revert\n            tag_37:\n              pop\n              tag_38\n              tag_39\n              jump\t// in\n            tag_38:\n              mload(0x40)\n              tag_40\n              swap2\n              swap1\n              tag_41\n              jump\t// in\n            tag_40:\n              mload(0x40)\n              dup1\n              swap2\n              sub\n              swap1\n              return\n                /* \"campaign.sol\":1191:1215  uint public requestCount */\n            tag_7:\n              callvalue\n              dup1\n              iszero\n              tag_42\n              jumpi\n              0x00\n              dup1\n              revert\n            tag_42:\n              pop\n              tag_43\n              tag_44\n              jump\t// in\n            tag_43:\n              mload(0x40)\n              tag_45\n              swap2\n              swap1\n              tag_46\n              jump\t// in\n            tag_45:\n              mload(0x40)\n              dup1\n              swap2\n              sub\n              swap1\n              return\n                /* \"campaign.sol\":1144:1184  mapping(uint => Request) public requests */\n            tag_8:\n              callvalue\n              dup1\n              iszero\n              tag_47\n              jumpi\n              0x00\n              dup1\n              revert\n            tag_47:\n              pop\n              tag_48\n              0x04\n              dup1\n              calldatasize\n              sub\n              dup2\n              add\n              swap1\n              tag_49\n              swap2\n              swap1\n              tag_18\n              jump\t// in\n            tag_49:\n              tag_50\n              jump\t// in\n            tag_48:\n              mload(0x40)\n              tag_51\n              swap6\n              swap5\n              swap4\n              swap3\n              swap2\n              swap1\n              tag_52\n              jump\t// in\n            tag_51:\n              mload(0x40)\n              dup1\n              swap2\n              sub\n              swap1\n              return\n                /* \"campaign.sol\":1222:1248  uint public approversCount */\n            tag_9:\n              callvalue\n              dup1\n              iszero\n              tag_53\n              jumpi\n              0x00\n              dup1\n              revert\n            tag_53:\n              pop\n              tag_54\n              tag_55\n              jump\t// in\n            tag_54:\n              mload(0x40)\n              tag_56\n              swap2\n              swap1\n              tag_46\n              jump\t// in\n            tag_56:\n              mload(0x40)\n              dup1\n              swap2\n              sub\n              swap1\n              return\n                /* \"campaign.sol\":1718:2121  function createRequest(\r... */\n            tag_10:\n              callvalue\n              dup1\n              iszero\n              tag_57\n              jumpi\n              0x00\n              dup1\n              revert\n            tag_57:\n              pop\n              tag_58\n              0x04\n              dup1\n              calldatasize\n              sub\n              dup2\n              add\n              swap1\n              tag_59\n              swap2\n              swap1\n              tag_60\n              jump\t// in\n            tag_59:\n              tag_61\n              jump\t// in\n            tag_58:\n              stop\n                /* \"campaign.sol\":1058:1089  uint public minimumContribution */\n            tag_11:\n              callvalue\n              dup1\n              iszero\n              tag_62\n              jumpi\n              0x00\n              dup1\n              revert\n            tag_62:\n              pop\n              tag_63\n              tag_64\n              jump\t// in\n            tag_63:\n              mload(0x40)\n              tag_65\n              swap2\n              swap1\n              tag_46\n              jump\t// in\n            tag_65:\n              mload(0x40)\n              dup1\n              swap2\n              sub\n              swap1\n              return\n                /* \"campaign.sol\":1541:1706  function contribute() external payable {\r... */\n            tag_12:\n              tag_66\n              tag_67\n              jump\t// in\n            tag_66:\n              stop\n                /* \"campaign.sol\":2133:2428  function approveRequest(uint index) public {\r... */\n            tag_13:\n              callvalue\n              dup1\n              iszero\n              tag_68\n              jumpi\n              0x00\n              dup1\n              revert\n            tag_68:\n              pop\n              tag_69\n              0x04\n              dup1\n              calldatasize\n              sub\n              dup2\n              add\n              swap1\n              tag_70\n              swap2\n              swap1\n              tag_18\n              jump\t// in\n            tag_70:\n              tag_71\n              jump\t// in\n            tag_69:\n              stop\n                /* \"campaign.sol\":2441:2773  function finalizeRequest(uint index) public managerOnly {\r... */\n            tag_19:\n                /* \"campaign.sol\":1317:1324  manager */\n              0x00\n              dup1\n              sload\n              swap1\n              0x0100\n              exp\n              swap1\n              div\n              0xffffffffffffffffffffffffffffffffffffffff\n              and\n                /* \"campaign.sol\":1303:1324  msg.sender == manager */\n              0xffffffffffffffffffffffffffffffffffffffff\n              and\n                /* \"campaign.sol\":1303:1313  msg.sender */\n              caller\n                /* \"campaign.sol\":1303:1324  msg.sender == manager */\n              0xffffffffffffffffffffffffffffffffffffffff\n              and\n              eq\n                /* \"campaign.sol\":1295:1325  require(msg.sender == manager) */\n              tag_73\n              jumpi\n              0x00\n              dup1\n              revert\n            tag_73:\n                /* \"campaign.sol\":2508:2531  Request storage request */\n              0x00\n                /* \"campaign.sol\":2534:2542  requests */\n              0x04\n                /* \"campaign.sol\":2534:2549  requests[index] */\n              0x00\n                /* \"campaign.sol\":2543:2548  index */\n              dup4\n                /* \"campaign.sol\":2534:2549  requests[index] */\n              dup2\n              mstore\n              0x20\n              add\n              swap1\n              dup2\n              mstore\n              0x20\n              add\n              0x00\n              keccak256\n                /* \"campaign.sol\":2508:2549  Request storage request = requests[index] */\n              swap1\n              pop\n                /* \"campaign.sol\":2579:2586  request */\n              dup1\n                /* \"campaign.sol\":2579:2595  request.complete */\n              0x02\n              add\n              0x14\n              swap1\n              sload\n              swap1\n              0x0100\n              exp\n              swap1\n              div\n              0xff\n              and\n                /* \"campaign.sol\":2578:2595  !request.complete */\n              iszero\n                /* \"campaign.sol\":2570:2596  require(!request.complete) */\n              tag_75\n              jumpi\n              0x00\n              dup1\n              revert\n            tag_75:\n                /* \"campaign.sol\":2657:2658  2 */\n              0x02\n                /* \"campaign.sol\":2640:2654  approversCount */\n              sload(0x06)\n                /* \"campaign.sol\":2640:2658  approversCount / 2 */\n              tag_76\n              swap2\n              swap1\n              tag_77\n              jump\t// in\n            tag_76:\n                /* \"campaign.sol\":2615:2622  request */\n              dup2\n                /* \"campaign.sol\":2615:2636  request.approvalCount */\n              0x03\n              add\n              sload\n                /* \"campaign.sol\":2615:2659  request.approvalCount > (approversCount / 2) */\n              gt\n                /* \"campaign.sol\":2607:2660  require(request.approvalCount > (approversCount / 2)) */\n              tag_78\n              jumpi\n              0x00\n              dup1\n              revert\n            tag_78:\n                /* \"campaign.sol\":2689:2696  request */\n              dup1\n                /* \"campaign.sol\":2689:2706  request.recipient */\n              0x02\n              add\n              0x00\n              swap1\n              sload\n              swap1\n              0x0100\n              exp\n              swap1\n              div\n              0xffffffffffffffffffffffffffffffffffffffff\n              and\n                /* \"campaign.sol\":2681:2716  payable(request.recipient).transfer */\n              0xffffffffffffffffffffffffffffffffffffffff\n              and\n                /* \"campaign.sol\":2681:2731  payable(request.recipient).transfer(request.value) */\n              0x08fc\n                /* \"campaign.sol\":2717:2724  request */\n              dup3\n                /* \"campaign.sol\":2717:2730  request.value */\n              0x01\n              add\n              sload\n                /* \"campaign.sol\":2681:2731  payable(request.recipient).transfer(request.value) */\n              swap1\n              dup2\n              iszero\n              mul\n              swap1\n              mload(0x40)\n              0x00\n              mload(0x40)\n              dup1\n              dup4\n              sub\n              dup2\n              dup6\n              dup9\n              dup9\n              call\n              swap4\n              pop\n              pop\n              pop\n              pop\n              iszero\n              dup1\n              iszero\n              tag_80\n              jumpi\n              returndatasize\n              0x00\n              dup1\n              returndatacopy\n              revert(0x00, returndatasize)\n            tag_80:\n              pop\n                /* \"campaign.sol\":2761:2765  true */\n              0x01\n                /* \"campaign.sol\":2742:2749  request */\n              dup2\n                /* \"campaign.sol\":2742:2758  request.complete */\n              0x02\n              add\n              0x14\n                /* \"campaign.sol\":2742:2765  request.complete = true */\n              0x0100\n              exp\n              dup2\n              sload\n              dup2\n              0xff\n              mul\n              not\n              and\n              swap1\n              dup4\n              iszero\n              iszero\n              mul\n              or\n              swap1\n              sstore\n              pop\n                /* \"campaign.sol\":1336:1337  _ */\n              pop\n                /* \"campaign.sol\":2441:2773  function finalizeRequest(uint index) public managerOnly {\r... */\n              pop\n              jump\t// out\n                /* \"campaign.sol\":1096:1137  mapping(address => bool) public approvers */\n            tag_24:\n              mstore(0x20, 0x03)\n              dup1\n              0x00\n              mstore\n              keccak256(0x00, 0x40)\n              0x00\n              swap2\n              pop\n              sload\n              swap1\n              0x0100\n              exp\n              swap1\n              div\n              0xff\n              and\n              dup2\n              jump\t// out\n                /* \"campaign.sol\":998:1025  string public titleCompaign */\n            tag_29:\n              0x01\n              dup1\n              sload\n              tag_81\n              swap1\n              tag_82\n              jump\t// in\n            tag_81:\n              dup1\n              0x1f\n              add\n              0x20\n              dup1\n              swap2\n              div\n              mul\n              0x20\n              add\n              mload(0x40)\n              swap1\n              dup2\n              add\n              0x40\n              mstore\n              dup1\n              swap3\n              swap2\n              swap1\n              dup2\n              dup2\n              mstore\n              0x20\n              add\n              dup3\n              dup1\n              sload\n              tag_83\n              swap1\n              tag_82\n              jump\t// in\n            tag_83:\n              dup1\n              iszero\n              tag_84\n              jumpi\n              dup1\n              0x1f\n              lt\n              tag_85\n              jumpi\n              0x0100\n              dup1\n              dup4\n              sload\n              div\n              mul\n              dup4\n              mstore\n              swap2\n              0x20\n              add\n              swap2\n              jump(tag_84)\n            tag_85:\n              dup3\n              add\n              swap2\n              swap1\n              0x00\n              mstore\n              keccak256(0x00, 0x20)\n              swap1\n            tag_86:\n              dup2\n              sload\n              dup2\n              mstore\n              swap1\n              0x01\n              add\n              swap1\n              0x20\n              add\n              dup1\n              dup4\n              gt\n              tag_86\n              jumpi\n              dup3\n              swap1\n              sub\n              0x1f\n              and\n              dup3\n              add\n              swap2\n            tag_84:\n              pop\n              pop\n              pop\n              pop\n              pop\n              dup2\n              jump\t// out\n                /* \"campaign.sol\":2781:3108  function getSummary() external view returns (\r... */\n            tag_34:\n                /* \"campaign.sol\":2834:2838  uint */\n              0x00\n                /* \"campaign.sol\":2847:2851  uint */\n              dup1\n                /* \"campaign.sol\":2860:2864  uint */\n              0x00\n                /* \"campaign.sol\":2873:2877  uint */\n              dup1\n                /* \"campaign.sol\":2886:2893  address */\n              0x00\n                /* \"campaign.sol\":2902:2915  string memory */\n              0x60\n                /* \"campaign.sol\":2950:2969  minimumContribution */\n              sload(0x02)\n                /* \"campaign.sol\":2980:3001  address(this).balance */\n              selfbalance\n                /* \"campaign.sol\":3012:3024  requestCount */\n              sload(0x05)\n                /* \"campaign.sol\":3035:3049  approversCount */\n              sload(0x06)\n                /* \"campaign.sol\":3060:3067  manager */\n              0x00\n              dup1\n              sload\n              swap1\n              0x0100\n              exp\n              swap1\n              div\n              0xffffffffffffffffffffffffffffffffffffffff\n              and\n                /* \"campaign.sol\":3078:3091  titleCompaign */\n              0x01\n                /* \"campaign.sol\":2932:3100  return (\r... */\n              dup1\n              dup1\n              sload\n              tag_88\n              swap1\n              tag_82\n              jump\t// in\n            tag_88:\n              dup1\n              0x1f\n              add\n              0x20\n              dup1\n              swap2\n              div\n              mul\n              0x20\n              add\n              mload(0x40)\n              swap1\n              dup2\n              add\n              0x40\n              mstore\n              dup1\n              swap3\n              swap2\n              swap1\n              dup2\n              dup2\n              mstore\n              0x20\n              add\n              dup3\n              dup1\n              sload\n              tag_89\n              swap1\n              tag_82\n              jump\t// in\n            tag_89:\n              dup1\n              iszero\n              tag_90\n              jumpi\n              dup1\n              0x1f\n              lt\n              tag_91\n              jumpi\n              0x0100\n              dup1\n              dup4\n              sload\n              div\n              mul\n              dup4\n              mstore\n              swap2\n              0x20\n              add\n              swap2\n              jump(tag_90)\n            tag_91:\n              dup3\n              add\n              swap2\n              swap1\n              0x00\n              mstore\n              keccak256(0x00, 0x20)\n              swap1\n            tag_92:\n              dup2\n              sload\n              dup2\n              mstore\n              swap1\n              0x01\n              add\n              swap1\n              0x20\n              add\n              dup1\n              dup4\n              gt\n              tag_92\n              jumpi\n              dup3\n              swap1\n              sub\n              0x1f\n              and\n              dup3\n              add\n              swap2\n            tag_90:\n              pop\n              pop\n              pop\n              pop\n              pop\n              swap1\n              pop\n              swap6\n              pop\n              swap6\n              pop\n              swap6\n              pop\n              swap6\n              pop\n              swap6\n              pop\n              swap6\n              pop\n                /* \"campaign.sol\":2781:3108  function getSummary() external view returns (\r... */\n              swap1\n              swap2\n              swap3\n              swap4\n              swap5\n              swap6\n              jump\t// out\n                /* \"campaign.sol\":963:985  address public manager */\n            tag_39:\n              0x00\n              dup1\n              sload\n              swap1\n              0x0100\n              exp\n              swap1\n              div\n              0xffffffffffffffffffffffffffffffffffffffff\n              and\n              dup2\n              jump\t// out\n                /* \"campaign.sol\":1191:1215  uint public requestCount */\n            tag_44:\n              sload(0x05)\n              dup2\n              jump\t// out\n                /* \"campaign.sol\":1144:1184  mapping(uint => Request) public requests */\n            tag_50:\n              mstore(0x20, 0x04)\n              dup1\n              0x00\n              mstore\n              keccak256(0x00, 0x40)\n              0x00\n              swap2\n              pop\n              swap1\n              pop\n              dup1\n              0x00\n              add\n              dup1\n              sload\n              tag_93\n              swap1\n              tag_82\n              jump\t// in\n            tag_93:\n              dup1\n              0x1f\n              add\n              0x20\n              dup1\n              swap2\n              div\n              mul\n              0x20\n              add\n              mload(0x40)\n              swap1\n              dup2\n              add\n              0x40\n              mstore\n              dup1\n              swap3\n              swap2\n              swap1\n              dup2\n              dup2\n              mstore\n              0x20\n              add\n              dup3\n              dup1\n              sload\n              tag_94\n              swap1\n              tag_82\n              jump\t// in\n            tag_94:\n              dup1\n              iszero\n              tag_95\n              jumpi\n              dup1\n              0x1f\n              lt\n              tag_96\n              jumpi\n              0x0100\n              dup1\n              dup4\n              sload\n              div\n              mul\n              dup4\n              mstore\n              swap2\n              0x20\n              add\n              swap2\n              jump(tag_95)\n            tag_96:\n              dup3\n              add\n              swap2\n              swap1\n              0x00\n              mstore\n              keccak256(0x00, 0x20)\n              swap1\n            tag_97:\n              dup2\n              sload\n              dup2\n              mstore\n              swap1\n              0x01\n              add\n              swap1\n              0x20\n              add\n              dup1\n              dup4\n              gt\n              tag_97\n              jumpi\n              dup3\n              swap1\n              sub\n              0x1f\n              and\n              dup3\n              add\n              swap2\n            tag_95:\n              pop\n              pop\n              pop\n              pop\n              pop\n              swap1\n              dup1\n              0x01\n              add\n              sload\n              swap1\n              dup1\n              0x02\n              add\n              0x00\n              swap1\n              sload\n              swap1\n              0x0100\n              exp\n              swap1\n              div\n              0xffffffffffffffffffffffffffffffffffffffff\n              and\n              swap1\n              dup1\n              0x02\n              add\n              0x14\n              swap1\n              sload\n              swap1\n              0x0100\n              exp\n              swap1\n              div\n              0xff\n              and\n              swap1\n              dup1\n              0x03\n              add\n              sload\n              swap1\n              pop\n              dup6\n              jump\t// out\n                /* \"campaign.sol\":1222:1248  uint public approversCount */\n            tag_55:\n              sload(0x06)\n              dup2\n              jump\t// out\n                /* \"campaign.sol\":1718:2121  function createRequest(\r... */\n            tag_61:\n                /* \"campaign.sol\":1317:1324  manager */\n              0x00\n              dup1\n              sload\n              swap1\n              0x0100\n              exp\n              swap1\n              div\n              0xffffffffffffffffffffffffffffffffffffffff\n              and\n                /* \"campaign.sol\":1303:1324  msg.sender == manager */\n              0xffffffffffffffffffffffffffffffffffffffff\n              and\n                /* \"campaign.sol\":1303:1313  msg.sender */\n              caller\n                /* \"campaign.sol\":1303:1324  msg.sender == manager */\n              0xffffffffffffffffffffffffffffffffffffffff\n              and\n              eq\n                /* \"campaign.sol\":1295:1325  require(msg.sender == manager) */\n              tag_99\n              jumpi\n              0x00\n              dup1\n              revert\n            tag_99:\n                /* \"campaign.sol\":1864:1890  Request storage newRequest */\n              0x00\n                /* \"campaign.sol\":1893:1901  requests */\n              0x04\n                /* \"campaign.sol\":1893:1915  requests[requestCount] */\n              0x00\n                /* \"campaign.sol\":1902:1914  requestCount */\n              sload(0x05)\n                /* \"campaign.sol\":1893:1915  requests[requestCount] */\n              dup2\n              mstore\n              0x20\n              add\n              swap1\n              dup2\n              mstore\n              0x20\n              add\n              0x00\n              keccak256\n                /* \"campaign.sol\":1864:1915  Request storage newRequest = requests[requestCount] */\n              swap1\n              pop\n                /* \"campaign.sol\":1951:1962  description */\n              dup4\n                /* \"campaign.sol\":1926:1936  newRequest */\n              dup2\n                /* \"campaign.sol\":1926:1948  newRequest.description */\n              0x00\n              add\n                /* \"campaign.sol\":1926:1962  newRequest.description = description */\n              swap1\n              dup1\n              mload\n              swap1\n              0x20\n              add\n              swap1\n              tag_101\n              swap3\n              swap2\n              swap1\n              tag_102\n              jump\t// in\n            tag_101:\n              pop\n                /* \"campaign.sol\":1992:1997  value */\n              dup3\n                /* \"campaign.sol\":1973:1983  newRequest */\n              dup2\n                /* \"campaign.sol\":1973:1989  newRequest.value */\n              0x01\n              add\n                /* \"campaign.sol\":1973:1997  newRequest.value = value */\n              dup2\n              swap1\n              sstore\n              pop\n                /* \"campaign.sol\":2031:2040  recipient */\n              dup2\n                /* \"campaign.sol\":2008:2018  newRequest */\n              dup2\n                /* \"campaign.sol\":2008:2028  newRequest.recipient */\n              0x02\n              add\n              0x00\n                /* \"campaign.sol\":2008:2040  newRequest.recipient = recipient */\n              0x0100\n              exp\n              dup2\n              sload\n              dup2\n              0xffffffffffffffffffffffffffffffffffffffff\n              mul\n              not\n              and\n              swap1\n              dup4\n              0xffffffffffffffffffffffffffffffffffffffff\n              and\n              mul\n              or\n              swap1\n              sstore\n              pop\n                /* \"campaign.sol\":2073:2078  false */\n              0x00\n                /* \"campaign.sol\":2051:2061  newRequest */\n              dup2\n                /* \"campaign.sol\":2051:2070  newRequest.complete */\n              0x02\n              add\n              0x14\n                /* \"campaign.sol\":2051:2078  newRequest.complete = false */\n              0x0100\n              exp\n              dup2\n              sload\n              dup2\n              0xff\n              mul\n              not\n              and\n              swap1\n              dup4\n              iszero\n              iszero\n              mul\n              or\n              swap1\n              sstore\n              pop\n                /* \"campaign.sol\":2099:2111  requestCount */\n              0x05\n              0x00\n                /* \"campaign.sol\":2099:2113  requestCount++ */\n              dup2\n              sload\n              dup1\n              swap3\n              swap2\n              swap1\n              tag_103\n              swap1\n              tag_104\n              jump\t// in\n            tag_103:\n              swap2\n              swap1\n              pop\n              sstore\n              pop\n                /* \"campaign.sol\":1336:1337  _ */\n              pop\n                /* \"campaign.sol\":1718:2121  function createRequest(\r... */\n              pop\n              pop\n              pop\n              jump\t// out\n                /* \"campaign.sol\":1058:1089  uint public minimumContribution */\n            tag_64:\n              sload(0x02)\n              dup2\n              jump\t// out\n                /* \"campaign.sol\":1541:1706  function contribute() external payable {\r... */\n            tag_67:\n                /* \"campaign.sol\":1612:1631  minimumContribution */\n              sload(0x02)\n                /* \"campaign.sol\":1599:1608  msg.value */\n              callvalue\n                /* \"campaign.sol\":1599:1631  msg.value >= minimumContribution */\n              lt\n              iszero\n                /* \"campaign.sol\":1591:1632  require(msg.value >= minimumContribution) */\n              tag_106\n              jumpi\n              0x00\n              dup1\n              revert\n            tag_106:\n                /* \"campaign.sol\":1667:1671  true */\n              0x01\n                /* \"campaign.sol\":1643:1652  approvers */\n              0x03\n                /* \"campaign.sol\":1643:1664  approvers[msg.sender] */\n              0x00\n                /* \"campaign.sol\":1653:1663  msg.sender */\n              caller\n                /* \"campaign.sol\":1643:1664  approvers[msg.sender] */\n              0xffffffffffffffffffffffffffffffffffffffff\n              and\n              0xffffffffffffffffffffffffffffffffffffffff\n              and\n              dup2\n              mstore\n              0x20\n              add\n              swap1\n              dup2\n              mstore\n              0x20\n              add\n              0x00\n              keccak256\n              0x00\n                /* \"campaign.sol\":1643:1671  approvers[msg.sender] = true */\n              0x0100\n              exp\n              dup2\n              sload\n              dup2\n              0xff\n              mul\n              not\n              and\n              swap1\n              dup4\n              iszero\n              iszero\n              mul\n              or\n              swap1\n              sstore\n              pop\n                /* \"campaign.sol\":1682:1696  approversCount */\n              0x06\n              0x00\n                /* \"campaign.sol\":1682:1698  approversCount++ */\n              dup2\n              sload\n              dup1\n              swap3\n              swap2\n              swap1\n              tag_107\n              swap1\n              tag_104\n              jump\t// in\n            tag_107:\n              swap2\n              swap1\n              pop\n              sstore\n              pop\n                /* \"campaign.sol\":1541:1706  function contribute() external payable {\r... */\n              jump\t// out\n                /* \"campaign.sol\":2133:2428  function approveRequest(uint index) public {\r... */\n            tag_71:\n                /* \"campaign.sol\":2187:2210  Request storage request */\n              0x00\n                /* \"campaign.sol\":2213:2221  requests */\n              0x04\n                /* \"campaign.sol\":2213:2228  requests[index] */\n              0x00\n                /* \"campaign.sol\":2222:2227  index */\n              dup4\n                /* \"campaign.sol\":2213:2228  requests[index] */\n              dup2\n              mstore\n              0x20\n              add\n              swap1\n              dup2\n              mstore\n              0x20\n              add\n              0x00\n              keccak256\n                /* \"campaign.sol\":2187:2228  Request storage request = requests[index] */\n              swap1\n              pop\n                /* \"campaign.sol\":2257:2266  approvers */\n              0x03\n                /* \"campaign.sol\":2257:2278  approvers[msg.sender] */\n              0x00\n                /* \"campaign.sol\":2267:2277  msg.sender */\n              caller\n                /* \"campaign.sol\":2257:2278  approvers[msg.sender] */\n              0xffffffffffffffffffffffffffffffffffffffff\n              and\n              0xffffffffffffffffffffffffffffffffffffffff\n              and\n              dup2\n              mstore\n              0x20\n              add\n              swap1\n              dup2\n              mstore\n              0x20\n              add\n              0x00\n              keccak256\n              0x00\n              swap1\n              sload\n              swap1\n              0x0100\n              exp\n              swap1\n              div\n              0xff\n              and\n                /* \"campaign.sol\":2249:2279  require(approvers[msg.sender]) */\n              tag_109\n              jumpi\n              0x00\n              dup1\n              revert\n            tag_109:\n                /* \"campaign.sol\":2299:2306  request */\n              dup1\n                /* \"campaign.sol\":2299:2316  request.approvals */\n              0x04\n              add\n                /* \"campaign.sol\":2299:2328  request.approvals[msg.sender] */\n              0x00\n                /* \"campaign.sol\":2317:2327  msg.sender */\n              caller\n                /* \"campaign.sol\":2299:2328  request.approvals[msg.sender] */\n              0xffffffffffffffffffffffffffffffffffffffff\n              and\n              0xffffffffffffffffffffffffffffffffffffffff\n              and\n              dup2\n              mstore\n              0x20\n              add\n              swap1\n              dup2\n              mstore\n              0x20\n              add\n              0x00\n              keccak256\n              0x00\n              swap1\n              sload\n              swap1\n              0x0100\n              exp\n              swap1\n              div\n              0xff\n              and\n                /* \"campaign.sol\":2298:2328  !request.approvals[msg.sender] */\n              iszero\n                /* \"campaign.sol\":2290:2329  require(!request.approvals[msg.sender]) */\n              tag_110\n              jumpi\n              0x00\n              dup1\n              revert\n            tag_110:\n                /* \"campaign.sol\":2382:2386  true */\n              0x01\n                /* \"campaign.sol\":2350:2357  request */\n              dup2\n                /* \"campaign.sol\":2350:2367  request.approvals */\n              0x04\n              add\n                /* \"campaign.sol\":2350:2379  request.approvals[msg.sender] */\n              0x00\n                /* \"campaign.sol\":2368:2378  msg.sender */\n              caller\n                /* \"campaign.sol\":2350:2379  request.approvals[msg.sender] */\n              0xffffffffffffffffffffffffffffffffffffffff\n              and\n              0xffffffffffffffffffffffffffffffffffffffff\n              and\n              dup2\n              mstore\n              0x20\n              add\n              swap1\n              dup2\n              mstore\n              0x20\n              add\n              0x00\n              keccak256\n              0x00\n                /* \"campaign.sol\":2350:2386  request.approvals[msg.sender] = true */\n              0x0100\n              exp\n              dup2\n              sload\n              dup2\n              0xff\n              mul\n              not\n              and\n              swap1\n              dup4\n              iszero\n              iszero\n              mul\n              or\n              swap1\n              sstore\n              pop\n                /* \"campaign.sol\":2397:2404  request */\n              dup1\n                /* \"campaign.sol\":2397:2418  request.approvalCount */\n              0x03\n              add\n              0x00\n                /* \"campaign.sol\":2397:2420  request.approvalCount++ */\n              dup2\n              sload\n              dup1\n              swap3\n              swap2\n              swap1\n              tag_111\n              swap1\n              tag_104\n              jump\t// in\n            tag_111:\n              swap2\n              swap1\n              pop\n              sstore\n              pop\n                /* \"campaign.sol\":2133:2428  function approveRequest(uint index) public {\r... */\n              pop\n              pop\n              jump\t// out\n            tag_102:\n              dup3\n              dup1\n              sload\n              tag_112\n              swap1\n              tag_82\n              jump\t// in\n            tag_112:\n              swap1\n              0x00\n              mstore\n              keccak256(0x00, 0x20)\n              swap1\n              0x1f\n              add\n              0x20\n              swap1\n              div\n              dup2\n              add\n              swap3\n              dup3\n              tag_114\n              jumpi\n              0x00\n              dup6\n              sstore\n              jump(tag_113)\n            tag_114:\n              dup3\n              0x1f\n              lt\n              tag_115\n              jumpi\n              dup1\n              mload\n              not(0xff)\n              and\n              dup4\n              dup1\n              add\n              or\n              dup6\n              sstore\n              jump(tag_113)\n            tag_115:\n              dup3\n              dup1\n              add\n              0x01\n              add\n              dup6\n              sstore\n              dup3\n              iszero\n              tag_113\n              jumpi\n              swap2\n              dup3\n              add\n            tag_116:\n              dup3\n              dup2\n              gt\n              iszero\n              tag_117\n              jumpi\n              dup3\n              mload\n              dup3\n              sstore\n              swap2\n              0x20\n              add\n              swap2\n              swap1\n              0x01\n              add\n              swap1\n              jump(tag_116)\n            tag_117:\n            tag_113:\n              pop\n              swap1\n              pop\n              tag_118\n              swap2\n              swap1\n              tag_119\n              jump\t// in\n            tag_118:\n              pop\n              swap1\n              jump\t// out\n            tag_119:\n            tag_120:\n              dup1\n              dup3\n              gt\n              iszero\n              tag_121\n              jumpi\n              0x00\n              dup2\n              0x00\n              swap1\n              sstore\n              pop\n              0x01\n              add\n              jump(tag_120)\n            tag_121:\n              pop\n              swap1\n              jump\t// out\n                /* \"#utility.yul\":7:352   */\n            tag_123:\n                /* \"#utility.yul\":85:90   */\n              0x00\n                /* \"#utility.yul\":110:176   */\n              tag_125\n                /* \"#utility.yul\":126:175   */\n              tag_126\n                /* \"#utility.yul\":168:174   */\n              dup5\n                /* \"#utility.yul\":126:175   */\n              tag_127\n              jump\t// in\n            tag_126:\n                /* \"#utility.yul\":110:176   */\n              tag_128\n              jump\t// in\n            tag_125:\n                /* \"#utility.yul\":101:176   */\n              swap1\n              pop\n                /* \"#utility.yul\":199:205   */\n              dup3\n                /* \"#utility.yul\":192:197   */\n              dup2\n                /* \"#utility.yul\":185:206   */\n              mstore\n                /* \"#utility.yul\":237:241   */\n              0x20\n                /* \"#utility.yul\":230:235   */\n              dup2\n                /* \"#utility.yul\":226:242   */\n              add\n                /* \"#utility.yul\":275:278   */\n              dup5\n                /* \"#utility.yul\":266:272   */\n              dup5\n                /* \"#utility.yul\":261:264   */\n              dup5\n                /* \"#utility.yul\":257:273   */\n              add\n                /* \"#utility.yul\":254:279   */\n              gt\n                /* \"#utility.yul\":251:253   */\n              iszero\n              tag_129\n              jumpi\n                /* \"#utility.yul\":292:293   */\n              0x00\n                /* \"#utility.yul\":289:290   */\n              dup1\n                /* \"#utility.yul\":282:294   */\n              revert\n                /* \"#utility.yul\":251:253   */\n            tag_129:\n                /* \"#utility.yul\":305:346   */\n              tag_130\n                /* \"#utility.yul\":339:345   */\n              dup5\n                /* \"#utility.yul\":334:337   */\n              dup3\n                /* \"#utility.yul\":329:332   */\n              dup6\n                /* \"#utility.yul\":305:346   */\n              tag_131\n              jump\t// in\n            tag_130:\n                /* \"#utility.yul\":91:352   */\n              pop\n              swap4\n              swap3\n              pop\n              pop\n              pop\n              jump\t// out\n                /* \"#utility.yul\":358:497   */\n            tag_132:\n                /* \"#utility.yul\":404:409   */\n              0x00\n                /* \"#utility.yul\":442:448   */\n              dup2\n                /* \"#utility.yul\":429:449   */\n              calldataload\n                /* \"#utility.yul\":420:449   */\n              swap1\n              pop\n                /* \"#utility.yul\":458:491   */\n              tag_134\n                /* \"#utility.yul\":485:490   */\n              dup2\n                /* \"#utility.yul\":458:491   */\n              tag_135\n              jump\t// in\n            tag_134:\n                /* \"#utility.yul\":410:497   */\n              swap3\n              swap2\n              pop\n              pop\n              jump\t// out\n                /* \"#utility.yul\":517:790   */\n            tag_136:\n                /* \"#utility.yul\":573:578   */\n              0x00\n                /* \"#utility.yul\":622:625   */\n              dup3\n                /* \"#utility.yul\":615:619   */\n              0x1f\n                /* \"#utility.yul\":607:613   */\n              dup4\n                /* \"#utility.yul\":603:620   */\n              add\n                /* \"#utility.yul\":599:626   */\n              slt\n                /* \"#utility.yul\":589:591   */\n              tag_138\n              jumpi\n                /* \"#utility.yul\":640:641   */\n              0x00\n                /* \"#utility.yul\":637:638   */\n              dup1\n                /* \"#utility.yul\":630:642   */\n              revert\n                /* \"#utility.yul\":589:591   */\n            tag_138:\n                /* \"#utility.yul\":680:686   */\n              dup2\n                /* \"#utility.yul\":667:687   */\n              calldataload\n                /* \"#utility.yul\":705:784   */\n              tag_139\n                /* \"#utility.yul\":780:783   */\n              dup5\n                /* \"#utility.yul\":772:778   */\n              dup3\n                /* \"#utility.yul\":765:769   */\n              0x20\n                /* \"#utility.yul\":757:763   */\n              dup7\n                /* \"#utility.yul\":753:770   */\n              add\n                /* \"#utility.yul\":705:784   */\n              tag_123\n              jump\t// in\n            tag_139:\n                /* \"#utility.yul\":696:784   */\n              swap2\n              pop\n                /* \"#utility.yul\":579:790   */\n              pop\n              swap3\n              swap2\n              pop\n              pop\n              jump\t// out\n                /* \"#utility.yul\":796:935   */\n            tag_140:\n                /* \"#utility.yul\":842:847   */\n              0x00\n                /* \"#utility.yul\":880:886   */\n              dup2\n                /* \"#utility.yul\":867:887   */\n              calldataload\n                /* \"#utility.yul\":858:887   */\n              swap1\n              pop\n                /* \"#utility.yul\":896:929   */\n              tag_142\n                /* \"#utility.yul\":923:928   */\n              dup2\n                /* \"#utility.yul\":896:929   */\n              tag_143\n              jump\t// in\n            tag_142:\n                /* \"#utility.yul\":848:935   */\n              swap3\n              swap2\n              pop\n              pop\n              jump\t// out\n                /* \"#utility.yul\":941:1203   */\n            tag_23:\n                /* \"#utility.yul\":1000:1006   */\n              0x00\n                /* \"#utility.yul\":1049:1051   */\n              0x20\n                /* \"#utility.yul\":1037:1046   */\n              dup3\n                /* \"#utility.yul\":1028:1035   */\n              dup5\n                /* \"#utility.yul\":1024:1047   */\n              sub\n                /* \"#utility.yul\":1020:1052   */\n              slt\n                /* \"#utility.yul\":1017:1019   */\n              iszero\n              tag_145\n              jumpi\n                /* \"#utility.yul\":1065:1066   */\n              0x00\n                /* \"#utility.yul\":1062:1063   */\n              dup1\n                /* \"#utility.yul\":1055:1067   */\n              revert\n                /* \"#utility.yul\":1017:1019   */\n            tag_145:\n                /* \"#utility.yul\":1108:1109   */\n              0x00\n                /* \"#utility.yul\":1133:1186   */\n              tag_146\n                /* \"#utility.yul\":1178:1185   */\n              dup5\n                /* \"#utility.yul\":1169:1175   */\n              dup3\n                /* \"#utility.yul\":1158:1167   */\n              dup6\n                /* \"#utility.yul\":1154:1176   */\n              add\n                /* \"#utility.yul\":1133:1186   */\n              tag_132\n              jump\t// in\n            tag_146:\n                /* \"#utility.yul\":1123:1186   */\n              swap2\n              pop\n                /* \"#utility.yul\":1079:1196   */\n              pop\n                /* \"#utility.yul\":1007:1203   */\n              swap3\n              swap2\n              pop\n              pop\n              jump\t// out\n                /* \"#utility.yul\":1209:1874   */\n            tag_60:\n                /* \"#utility.yul\":1296:1302   */\n              0x00\n                /* \"#utility.yul\":1304:1310   */\n              dup1\n                /* \"#utility.yul\":1312:1318   */\n              0x00\n                /* \"#utility.yul\":1361:1363   */\n              0x60\n                /* \"#utility.yul\":1349:1358   */\n              dup5\n                /* \"#utility.yul\":1340:1347   */\n              dup7\n                /* \"#utility.yul\":1336:1359   */\n              sub\n                /* \"#utility.yul\":1332:1364   */\n              slt\n                /* \"#utility.yul\":1329:1331   */\n              iszero\n              tag_148\n              jumpi\n                /* \"#utility.yul\":1377:1378   */\n              0x00\n                /* \"#utility.yul\":1374:1375   */\n              dup1\n                /* \"#utility.yul\":1367:1379   */\n              revert\n                /* \"#utility.yul\":1329:1331   */\n            tag_148:\n                /* \"#utility.yul\":1448:1449   */\n              0x00\n                /* \"#utility.yul\":1437:1446   */\n              dup5\n                /* \"#utility.yul\":1433:1450   */\n              add\n                /* \"#utility.yul\":1420:1451   */\n              calldataload\n                /* \"#utility.yul\":1478:1496   */\n              0xffffffffffffffff\n                /* \"#utility.yul\":1470:1476   */\n              dup2\n                /* \"#utility.yul\":1467:1497   */\n              gt\n                /* \"#utility.yul\":1464:1466   */\n              iszero\n              tag_149\n              jumpi\n                /* \"#utility.yul\":1510:1511   */\n              0x00\n                /* \"#utility.yul\":1507:1508   */\n              dup1\n                /* \"#utility.yul\":1500:1512   */\n              revert\n                /* \"#utility.yul\":1464:1466   */\n            tag_149:\n                /* \"#utility.yul\":1538:1601   */\n              tag_150\n                /* \"#utility.yul\":1593:1600   */\n              dup7\n                /* \"#utility.yul\":1584:1590   */\n              dup3\n                /* \"#utility.yul\":1573:1582   */\n              dup8\n                /* \"#utility.yul\":1569:1591   */\n              add\n                /* \"#utility.yul\":1538:1601   */\n              tag_136\n              jump\t// in\n            tag_150:\n                /* \"#utility.yul\":1528:1601   */\n              swap4\n              pop\n                /* \"#utility.yul\":1391:1611   */\n              pop\n                /* \"#utility.yul\":1650:1652   */\n              0x20\n                /* \"#utility.yul\":1676:1729   */\n              tag_151\n                /* \"#utility.yul\":1721:1728   */\n              dup7\n                /* \"#utility.yul\":1712:1718   */\n              dup3\n                /* \"#utility.yul\":1701:1710   */\n              dup8\n                /* \"#utility.yul\":1697:1719   */\n              add\n                /* \"#utility.yul\":1676:1729   */\n              tag_140\n              jump\t// in\n            tag_151:\n                /* \"#utility.yul\":1666:1729   */\n              swap3\n              pop\n                /* \"#utility.yul\":1621:1739   */\n              pop\n                /* \"#utility.yul\":1778:1780   */\n              0x40\n                /* \"#utility.yul\":1804:1857   */\n              tag_152\n                /* \"#utility.yul\":1849:1856   */\n              dup7\n                /* \"#utility.yul\":1840:1846   */\n              dup3\n                /* \"#utility.yul\":1829:1838   */\n              dup8\n                /* \"#utility.yul\":1825:1847   */\n              add\n                /* \"#utility.yul\":1804:1857   */\n              tag_132\n              jump\t// in\n            tag_152:\n                /* \"#utility.yul\":1794:1857   */\n              swap2\n              pop\n                /* \"#utility.yul\":1749:1867   */\n              pop\n                /* \"#utility.yul\":1319:1874   */\n              swap3\n              pop\n              swap3\n              pop\n              swap3\n              jump\t// out\n                /* \"#utility.yul\":1880:2142   */\n            tag_18:\n                /* \"#utility.yul\":1939:1945   */\n              0x00\n                /* \"#utility.yul\":1988:1990   */\n              0x20\n                /* \"#utility.yul\":1976:1985   */\n              dup3\n                /* \"#utility.yul\":1967:1974   */\n              dup5\n                /* \"#utility.yul\":1963:1986   */\n              sub\n                /* \"#utility.yul\":1959:1991   */\n              slt\n                /* \"#utility.yul\":1956:1958   */\n              iszero\n              tag_154\n              jumpi\n                /* \"#utility.yul\":2004:2005   */\n              0x00\n                /* \"#utility.yul\":2001:2002   */\n              dup1\n                /* \"#utility.yul\":1994:2006   */\n              revert\n                /* \"#utility.yul\":1956:1958   */\n            tag_154:\n                /* \"#utility.yul\":2047:2048   */\n              0x00\n                /* \"#utility.yul\":2072:2125   */\n              tag_155\n                /* \"#utility.yul\":2117:2124   */\n              dup5\n                /* \"#utility.yul\":2108:2114   */\n              dup3\n                /* \"#utility.yul\":2097:2106   */\n              dup6\n                /* \"#utility.yul\":2093:2115   */\n              add\n                /* \"#utility.yul\":2072:2125   */\n              tag_140\n              jump\t// in\n            tag_155:\n                /* \"#utility.yul\":2062:2125   */\n              swap2\n              pop\n                /* \"#utility.yul\":2018:2135   */\n              pop\n                /* \"#utility.yul\":1946:2142   */\n              swap3\n              swap2\n              pop\n              pop\n              jump\t// out\n                /* \"#utility.yul\":2148:2266   */\n            tag_156:\n                /* \"#utility.yul\":2235:2259   */\n              tag_158\n                /* \"#utility.yul\":2253:2258   */\n              dup2\n                /* \"#utility.yul\":2235:2259   */\n              tag_159\n              jump\t// in\n            tag_158:\n                /* \"#utility.yul\":2230:2233   */\n              dup3\n                /* \"#utility.yul\":2223:2260   */\n              mstore\n                /* \"#utility.yul\":2213:2266   */\n              pop\n              pop\n              jump\t// out\n                /* \"#utility.yul\":2272:2381   */\n            tag_160:\n                /* \"#utility.yul\":2353:2374   */\n              tag_162\n                /* \"#utility.yul\":2368:2373   */\n              dup2\n                /* \"#utility.yul\":2353:2374   */\n              tag_163\n              jump\t// in\n            tag_162:\n                /* \"#utility.yul\":2348:2351   */\n              dup3\n                /* \"#utility.yul\":2341:2375   */\n              mstore\n                /* \"#utility.yul\":2331:2381   */\n              pop\n              pop\n              jump\t// out\n                /* \"#utility.yul\":2387:2751   */\n            tag_164:\n                /* \"#utility.yul\":2475:2478   */\n              0x00\n                /* \"#utility.yul\":2503:2542   */\n              tag_166\n                /* \"#utility.yul\":2536:2541   */\n              dup3\n                /* \"#utility.yul\":2503:2542   */\n              tag_167\n              jump\t// in\n            tag_166:\n                /* \"#utility.yul\":2558:2629   */\n              tag_168\n                /* \"#utility.yul\":2622:2628   */\n              dup2\n                /* \"#utility.yul\":2617:2620   */\n              dup6\n                /* \"#utility.yul\":2558:2629   */\n              tag_169\n              jump\t// in\n            tag_168:\n                /* \"#utility.yul\":2551:2629   */\n              swap4\n              pop\n                /* \"#utility.yul\":2638:2690   */\n              tag_170\n                /* \"#utility.yul\":2683:2689   */\n              dup2\n                /* \"#utility.yul\":2678:2681   */\n              dup6\n                /* \"#utility.yul\":2671:2675   */\n              0x20\n                /* \"#utility.yul\":2664:2669   */\n              dup7\n                /* \"#utility.yul\":2660:2676   */\n              add\n                /* \"#utility.yul\":2638:2690   */\n              tag_171\n              jump\t// in\n            tag_170:\n                /* \"#utility.yul\":2715:2744   */\n              tag_172\n                /* \"#utility.yul\":2737:2743   */\n              dup2\n                /* \"#utility.yul\":2715:2744   */\n              tag_173\n              jump\t// in\n            tag_172:\n                /* \"#utility.yul\":2710:2713   */\n              dup5\n                /* \"#utility.yul\":2706:2745   */\n              add\n                /* \"#utility.yul\":2699:2745   */\n              swap2\n              pop\n                /* \"#utility.yul\":2479:2751   */\n              pop\n              swap3\n              swap2\n              pop\n              pop\n              jump\t// out\n                /* \"#utility.yul\":2757:2875   */\n            tag_174:\n                /* \"#utility.yul\":2844:2868   */\n              tag_176\n                /* \"#utility.yul\":2862:2867   */\n              dup2\n                /* \"#utility.yul\":2844:2868   */\n              tag_177\n              jump\t// in\n            tag_176:\n                /* \"#utility.yul\":2839:2842   */\n              dup3\n                /* \"#utility.yul\":2832:2869   */\n              mstore\n                /* \"#utility.yul\":2822:2875   */\n              pop\n              pop\n              jump\t// out\n                /* \"#utility.yul\":2881:3103   */\n            tag_41:\n                /* \"#utility.yul\":2974:2978   */\n              0x00\n                /* \"#utility.yul\":3012:3014   */\n              0x20\n                /* \"#utility.yul\":3001:3010   */\n              dup3\n                /* \"#utility.yul\":2997:3015   */\n              add\n                /* \"#utility.yul\":2989:3015   */\n              swap1\n              pop\n                /* \"#utility.yul\":3025:3096   */\n              tag_179\n                /* \"#utility.yul\":3093:3094   */\n              0x00\n                /* \"#utility.yul\":3082:3091   */\n              dup4\n                /* \"#utility.yul\":3078:3095   */\n              add\n                /* \"#utility.yul\":3069:3075   */\n              dup5\n                /* \"#utility.yul\":3025:3096   */\n              tag_156\n              jump\t// in\n            tag_179:\n                /* \"#utility.yul\":2979:3103   */\n              swap3\n              swap2\n              pop\n              pop\n              jump\t// out\n                /* \"#utility.yul\":3109:3319   */\n            tag_26:\n                /* \"#utility.yul\":3196:3200   */\n              0x00\n                /* \"#utility.yul\":3234:3236   */\n              0x20\n                /* \"#utility.yul\":3223:3232   */\n              dup3\n                /* \"#utility.yul\":3219:3237   */\n              add\n                /* \"#utility.yul\":3211:3237   */\n              swap1\n              pop\n                /* \"#utility.yul\":3247:3312   */\n              tag_181\n                /* \"#utility.yul\":3309:3310   */\n              0x00\n                /* \"#utility.yul\":3298:3307   */\n              dup4\n                /* \"#utility.yul\":3294:3311   */\n              add\n                /* \"#utility.yul\":3285:3291   */\n              dup5\n                /* \"#utility.yul\":3247:3312   */\n              tag_160\n              jump\t// in\n            tag_181:\n                /* \"#utility.yul\":3201:3319   */\n              swap3\n              swap2\n              pop\n              pop\n              jump\t// out\n                /* \"#utility.yul\":3325:3638   */\n            tag_31:\n                /* \"#utility.yul\":3438:3442   */\n              0x00\n                /* \"#utility.yul\":3476:3478   */\n              0x20\n                /* \"#utility.yul\":3465:3474   */\n              dup3\n                /* \"#utility.yul\":3461:3479   */\n              add\n                /* \"#utility.yul\":3453:3479   */\n              swap1\n              pop\n                /* \"#utility.yul\":3525:3534   */\n              dup2\n                /* \"#utility.yul\":3519:3523   */\n              dup2\n                /* \"#utility.yul\":3515:3535   */\n              sub\n                /* \"#utility.yul\":3511:3512   */\n              0x00\n                /* \"#utility.yul\":3500:3509   */\n              dup4\n                /* \"#utility.yul\":3496:3513   */\n              add\n                /* \"#utility.yul\":3489:3536   */\n              mstore\n                /* \"#utility.yul\":3553:3631   */\n              tag_183\n                /* \"#utility.yul\":3626:3630   */\n              dup2\n                /* \"#utility.yul\":3617:3623   */\n              dup5\n                /* \"#utility.yul\":3553:3631   */\n              tag_164\n              jump\t// in\n            tag_183:\n                /* \"#utility.yul\":3545:3631   */\n              swap1\n              pop\n                /* \"#utility.yul\":3443:3638   */\n              swap3\n              swap2\n              pop\n              pop\n              jump\t// out\n                /* \"#utility.yul\":3644:4387   */\n            tag_52:\n                /* \"#utility.yul\":3863:3867   */\n              0x00\n                /* \"#utility.yul\":3901:3904   */\n              0xa0\n                /* \"#utility.yul\":3890:3899   */\n              dup3\n                /* \"#utility.yul\":3886:3905   */\n              add\n                /* \"#utility.yul\":3878:3905   */\n              swap1\n              pop\n                /* \"#utility.yul\":3951:3960   */\n              dup2\n                /* \"#utility.yul\":3945:3949   */\n              dup2\n                /* \"#utility.yul\":3941:3961   */\n              sub\n                /* \"#utility.yul\":3937:3938   */\n              0x00\n                /* \"#utility.yul\":3926:3935   */\n              dup4\n                /* \"#utility.yul\":3922:3939   */\n              add\n                /* \"#utility.yul\":3915:3962   */\n              mstore\n                /* \"#utility.yul\":3979:4057   */\n              tag_185\n                /* \"#utility.yul\":4052:4056   */\n              dup2\n                /* \"#utility.yul\":4043:4049   */\n              dup9\n                /* \"#utility.yul\":3979:4057   */\n              tag_164\n              jump\t// in\n            tag_185:\n                /* \"#utility.yul\":3971:4057   */\n              swap1\n              pop\n                /* \"#utility.yul\":4067:4139   */\n              tag_186\n                /* \"#utility.yul\":4135:4137   */\n              0x20\n                /* \"#utility.yul\":4124:4133   */\n              dup4\n                /* \"#utility.yul\":4120:4138   */\n              add\n                /* \"#utility.yul\":4111:4117   */\n              dup8\n                /* \"#utility.yul\":4067:4139   */\n              tag_174\n              jump\t// in\n            tag_186:\n                /* \"#utility.yul\":4149:4221   */\n              tag_187\n                /* \"#utility.yul\":4217:4219   */\n              0x40\n                /* \"#utility.yul\":4206:4215   */\n              dup4\n                /* \"#utility.yul\":4202:4220   */\n              add\n                /* \"#utility.yul\":4193:4199   */\n              dup7\n                /* \"#utility.yul\":4149:4221   */\n              tag_156\n              jump\t// in\n            tag_187:\n                /* \"#utility.yul\":4231:4297   */\n              tag_188\n                /* \"#utility.yul\":4293:4295   */\n              0x60\n                /* \"#utility.yul\":4282:4291   */\n              dup4\n                /* \"#utility.yul\":4278:4296   */\n              add\n                /* \"#utility.yul\":4269:4275   */\n              dup6\n                /* \"#utility.yul\":4231:4297   */\n              tag_160\n              jump\t// in\n            tag_188:\n                /* \"#utility.yul\":4307:4380   */\n              tag_189\n                /* \"#utility.yul\":4375:4378   */\n              0x80\n                /* \"#utility.yul\":4364:4373   */\n              dup4\n                /* \"#utility.yul\":4360:4379   */\n              add\n                /* \"#utility.yul\":4351:4357   */\n              dup5\n                /* \"#utility.yul\":4307:4380   */\n              tag_174\n              jump\t// in\n            tag_189:\n                /* \"#utility.yul\":3868:4387   */\n              swap7\n              swap6\n              pop\n              pop\n              pop\n              pop\n              pop\n              pop\n              jump\t// out\n                /* \"#utility.yul\":4393:4615   */\n            tag_46:\n                /* \"#utility.yul\":4486:4490   */\n              0x00\n                /* \"#utility.yul\":4524:4526   */\n              0x20\n                /* \"#utility.yul\":4513:4522   */\n              dup3\n                /* \"#utility.yul\":4509:4527   */\n              add\n                /* \"#utility.yul\":4501:4527   */\n              swap1\n              pop\n                /* \"#utility.yul\":4537:4608   */\n              tag_191\n                /* \"#utility.yul\":4605:4606   */\n              0x00\n                /* \"#utility.yul\":4594:4603   */\n              dup4\n                /* \"#utility.yul\":4590:4607   */\n              add\n                /* \"#utility.yul\":4581:4587   */\n              dup5\n                /* \"#utility.yul\":4537:4608   */\n              tag_174\n              jump\t// in\n            tag_191:\n                /* \"#utility.yul\":4491:4615   */\n              swap3\n              swap2\n              pop\n              pop\n              jump\t// out\n                /* \"#utility.yul\":4621:5487   */\n            tag_36:\n                /* \"#utility.yul\":4874:4878   */\n              0x00\n                /* \"#utility.yul\":4912:4915   */\n              0xc0\n                /* \"#utility.yul\":4901:4910   */\n              dup3\n                /* \"#utility.yul\":4897:4916   */\n              add\n                /* \"#utility.yul\":4889:4916   */\n              swap1\n              pop\n                /* \"#utility.yul\":4926:4997   */\n              tag_193\n                /* \"#utility.yul\":4994:4995   */\n              0x00\n                /* \"#utility.yul\":4983:4992   */\n              dup4\n                /* \"#utility.yul\":4979:4996   */\n              add\n                /* \"#utility.yul\":4970:4976   */\n              dup10\n                /* \"#utility.yul\":4926:4997   */\n              tag_174\n              jump\t// in\n            tag_193:\n                /* \"#utility.yul\":5007:5079   */\n              tag_194\n                /* \"#utility.yul\":5075:5077   */\n              0x20\n                /* \"#utility.yul\":5064:5073   */\n              dup4\n                /* \"#utility.yul\":5060:5078   */\n              add\n                /* \"#utility.yul\":5051:5057   */\n              dup9\n                /* \"#utility.yul\":5007:5079   */\n              tag_174\n              jump\t// in\n            tag_194:\n                /* \"#utility.yul\":5089:5161   */\n              tag_195\n                /* \"#utility.yul\":5157:5159   */\n              0x40\n                /* \"#utility.yul\":5146:5155   */\n              dup4\n                /* \"#utility.yul\":5142:5160   */\n              add\n                /* \"#utility.yul\":5133:5139   */\n              dup8\n                /* \"#utility.yul\":5089:5161   */\n              tag_174\n              jump\t// in\n            tag_195:\n                /* \"#utility.yul\":5171:5243   */\n              tag_196\n                /* \"#utility.yul\":5239:5241   */\n              0x60\n                /* \"#utility.yul\":5228:5237   */\n              dup4\n                /* \"#utility.yul\":5224:5242   */\n              add\n                /* \"#utility.yul\":5215:5221   */\n              dup7\n                /* \"#utility.yul\":5171:5243   */\n              tag_174\n              jump\t// in\n            tag_196:\n                /* \"#utility.yul\":5253:5326   */\n              tag_197\n                /* \"#utility.yul\":5321:5324   */\n              0x80\n                /* \"#utility.yul\":5310:5319   */\n              dup4\n                /* \"#utility.yul\":5306:5325   */\n              add\n                /* \"#utility.yul\":5297:5303   */\n              dup6\n                /* \"#utility.yul\":5253:5326   */\n              tag_156\n              jump\t// in\n            tag_197:\n                /* \"#utility.yul\":5374:5383   */\n              dup2\n                /* \"#utility.yul\":5368:5372   */\n              dup2\n                /* \"#utility.yul\":5364:5384   */\n              sub\n                /* \"#utility.yul\":5358:5361   */\n              0xa0\n                /* \"#utility.yul\":5347:5356   */\n              dup4\n                /* \"#utility.yul\":5343:5362   */\n              add\n                /* \"#utility.yul\":5336:5385   */\n              mstore\n                /* \"#utility.yul\":5402:5480   */\n              tag_198\n                /* \"#utility.yul\":5475:5479   */\n              dup2\n                /* \"#utility.yul\":5466:5472   */\n              dup5\n                /* \"#utility.yul\":5402:5480   */\n              tag_164\n              jump\t// in\n            tag_198:\n                /* \"#utility.yul\":5394:5480   */\n              swap1\n              pop\n                /* \"#utility.yul\":4879:5487   */\n              swap8\n              swap7\n              pop\n              pop\n              pop\n              pop\n              pop\n              pop\n              pop\n              jump\t// out\n                /* \"#utility.yul\":5493:5622   */\n            tag_128:\n                /* \"#utility.yul\":5527:5533   */\n              0x00\n                /* \"#utility.yul\":5554:5574   */\n              tag_200\n              tag_201\n              jump\t// in\n            tag_200:\n                /* \"#utility.yul\":5544:5574   */\n              swap1\n              pop\n                /* \"#utility.yul\":5583:5616   */\n              tag_202\n                /* \"#utility.yul\":5611:5615   */\n              dup3\n                /* \"#utility.yul\":5603:5609   */\n              dup3\n                /* \"#utility.yul\":5583:5616   */\n              tag_203\n              jump\t// in\n            tag_202:\n                /* \"#utility.yul\":5534:5622   */\n              swap2\n              swap1\n              pop\n              jump\t// out\n                /* \"#utility.yul\":5628:5703   */\n            tag_201:\n                /* \"#utility.yul\":5661:5667   */\n              0x00\n                /* \"#utility.yul\":5694:5696   */\n              0x40\n                /* \"#utility.yul\":5688:5697   */\n              mload\n                /* \"#utility.yul\":5678:5697   */\n              swap1\n              pop\n                /* \"#utility.yul\":5668:5703   */\n              swap1\n              jump\t// out\n                /* \"#utility.yul\":5709:6017   */\n            tag_127:\n                /* \"#utility.yul\":5771:5775   */\n              0x00\n                /* \"#utility.yul\":5861:5879   */\n              0xffffffffffffffff\n                /* \"#utility.yul\":5853:5859   */\n              dup3\n                /* \"#utility.yul\":5850:5880   */\n              gt\n                /* \"#utility.yul\":5847:5849   */\n              iszero\n              tag_206\n              jumpi\n                /* \"#utility.yul\":5883:5901   */\n              tag_207\n              tag_208\n              jump\t// in\n            tag_207:\n                /* \"#utility.yul\":5847:5849   */\n            tag_206:\n                /* \"#utility.yul\":5921:5950   */\n              tag_209\n                /* \"#utility.yul\":5943:5949   */\n              dup3\n                /* \"#utility.yul\":5921:5950   */\n              tag_173\n              jump\t// in\n            tag_209:\n                /* \"#utility.yul\":5913:5950   */\n              swap1\n              pop\n                /* \"#utility.yul\":6005:6009   */\n              0x20\n                /* \"#utility.yul\":5999:6003   */\n              dup2\n                /* \"#utility.yul\":5995:6010   */\n              add\n                /* \"#utility.yul\":5987:6010   */\n              swap1\n              pop\n                /* \"#utility.yul\":5776:6017   */\n              swap2\n              swap1\n              pop\n              jump\t// out\n                /* \"#utility.yul\":6023:6122   */\n            tag_167:\n                /* \"#utility.yul\":6075:6081   */\n              0x00\n                /* \"#utility.yul\":6109:6114   */\n              dup2\n                /* \"#utility.yul\":6103:6115   */\n              mload\n                /* \"#utility.yul\":6093:6115   */\n              swap1\n              pop\n                /* \"#utility.yul\":6082:6122   */\n              swap2\n              swap1\n              pop\n              jump\t// out\n                /* \"#utility.yul\":6128:6297   */\n            tag_169:\n                /* \"#utility.yul\":6212:6223   */\n              0x00\n                /* \"#utility.yul\":6246:6252   */\n              dup3\n                /* \"#utility.yul\":6241:6244   */\n              dup3\n                /* \"#utility.yul\":6234:6253   */\n              mstore\n                /* \"#utility.yul\":6286:6290   */\n              0x20\n                /* \"#utility.yul\":6281:6284   */\n              dup3\n                /* \"#utility.yul\":6277:6291   */\n              add\n                /* \"#utility.yul\":6262:6291   */\n              swap1\n              pop\n                /* \"#utility.yul\":6224:6297   */\n              swap3\n              swap2\n              pop\n              pop\n              jump\t// out\n                /* \"#utility.yul\":6303:6488   */\n            tag_77:\n                /* \"#utility.yul\":6343:6344   */\n              0x00\n                /* \"#utility.yul\":6360:6380   */\n              tag_213\n                /* \"#utility.yul\":6378:6379   */\n              dup3\n                /* \"#utility.yul\":6360:6380   */\n              tag_177\n              jump\t// in\n            tag_213:\n                /* \"#utility.yul\":6355:6380   */\n              swap2\n              pop\n                /* \"#utility.yul\":6394:6414   */\n              tag_214\n                /* \"#utility.yul\":6412:6413   */\n              dup4\n                /* \"#utility.yul\":6394:6414   */\n              tag_177\n              jump\t// in\n            tag_214:\n                /* \"#utility.yul\":6389:6414   */\n              swap3\n              pop\n                /* \"#utility.yul\":6433:6434   */\n              dup3\n                /* \"#utility.yul\":6423:6425   */\n              tag_215\n              jumpi\n                /* \"#utility.yul\":6438:6456   */\n              tag_216\n              tag_217\n              jump\t// in\n            tag_216:\n                /* \"#utility.yul\":6423:6425   */\n            tag_215:\n                /* \"#utility.yul\":6480:6481   */\n              dup3\n                /* \"#utility.yul\":6477:6478   */\n              dup3\n                /* \"#utility.yul\":6473:6482   */\n              div\n                /* \"#utility.yul\":6468:6482   */\n              swap1\n              pop\n                /* \"#utility.yul\":6345:6488   */\n              swap3\n              swap2\n              pop\n              pop\n              jump\t// out\n                /* \"#utility.yul\":6494:6590   */\n            tag_159:\n                /* \"#utility.yul\":6531:6538   */\n              0x00\n                /* \"#utility.yul\":6560:6584   */\n              tag_219\n                /* \"#utility.yul\":6578:6583   */\n              dup3\n                /* \"#utility.yul\":6560:6584   */\n              tag_220\n              jump\t// in\n            tag_219:\n                /* \"#utility.yul\":6549:6584   */\n              swap1\n              pop\n                /* \"#utility.yul\":6539:6590   */\n              swap2\n              swap1\n              pop\n              jump\t// out\n                /* \"#utility.yul\":6596:6686   */\n            tag_163:\n                /* \"#utility.yul\":6630:6637   */\n              0x00\n                /* \"#utility.yul\":6673:6678   */\n              dup2\n                /* \"#utility.yul\":6666:6679   */\n              iszero\n                /* \"#utility.yul\":6659:6680   */\n              iszero\n                /* \"#utility.yul\":6648:6680   */\n              swap1\n              pop\n                /* \"#utility.yul\":6638:6686   */\n              swap2\n              swap1\n              pop\n              jump\t// out\n                /* \"#utility.yul\":6692:6818   */\n            tag_220:\n                /* \"#utility.yul\":6729:6736   */\n              0x00\n                /* \"#utility.yul\":6769:6811   */\n              0xffffffffffffffffffffffffffffffffffffffff\n                /* \"#utility.yul\":6762:6767   */\n              dup3\n                /* \"#utility.yul\":6758:6812   */\n              and\n                /* \"#utility.yul\":6747:6812   */\n              swap1\n              pop\n                /* \"#utility.yul\":6737:6818   */\n              swap2\n              swap1\n              pop\n              jump\t// out\n                /* \"#utility.yul\":6824:6901   */\n            tag_177:\n                /* \"#utility.yul\":6861:6868   */\n              0x00\n                /* \"#utility.yul\":6890:6895   */\n              dup2\n                /* \"#utility.yul\":6879:6895   */\n              swap1\n              pop\n                /* \"#utility.yul\":6869:6901   */\n              swap2\n              swap1\n              pop\n              jump\t// out\n                /* \"#utility.yul\":6907:7061   */\n            tag_131:\n                /* \"#utility.yul\":6991:6997   */\n              dup3\n                /* \"#utility.yul\":6986:6989   */\n              dup2\n                /* \"#utility.yul\":6981:6984   */\n              dup4\n                /* \"#utility.yul\":6968:6998   */\n              calldatacopy\n                /* \"#utility.yul\":7053:7054   */\n              0x00\n                /* \"#utility.yul\":7044:7050   */\n              dup4\n                /* \"#utility.yul\":7039:7042   */\n              dup4\n                /* \"#utility.yul\":7035:7051   */\n              add\n                /* \"#utility.yul\":7028:7055   */\n              mstore\n                /* \"#utility.yul\":6958:7061   */\n              pop\n              pop\n              pop\n              jump\t// out\n                /* \"#utility.yul\":7067:7374   */\n            tag_171:\n                /* \"#utility.yul\":7135:7136   */\n              0x00\n                /* \"#utility.yul\":7145:7258   */\n            tag_226:\n                /* \"#utility.yul\":7159:7165   */\n              dup4\n                /* \"#utility.yul\":7156:7157   */\n              dup2\n                /* \"#utility.yul\":7153:7166   */\n              lt\n                /* \"#utility.yul\":7145:7258   */\n              iszero\n              tag_228\n              jumpi\n                /* \"#utility.yul\":7244:7245   */\n              dup1\n                /* \"#utility.yul\":7239:7242   */\n              dup3\n                /* \"#utility.yul\":7235:7246   */\n              add\n                /* \"#utility.yul\":7229:7247   */\n              mload\n                /* \"#utility.yul\":7225:7226   */\n              dup2\n                /* \"#utility.yul\":7220:7223   */\n              dup5\n                /* \"#utility.yul\":7216:7227   */\n              add\n                /* \"#utility.yul\":7209:7248   */\n              mstore\n                /* \"#utility.yul\":7181:7183   */\n              0x20\n                /* \"#utility.yul\":7178:7179   */\n              dup2\n                /* \"#utility.yul\":7174:7184   */\n              add\n                /* \"#utility.yul\":7169:7184   */\n              swap1\n              pop\n                /* \"#utility.yul\":7145:7258   */\n              jump(tag_226)\n            tag_228:\n                /* \"#utility.yul\":7276:7282   */\n              dup4\n                /* \"#utility.yul\":7273:7274   */\n              dup2\n                /* \"#utility.yul\":7270:7283   */\n              gt\n                /* \"#utility.yul\":7267:7269   */\n              iszero\n              tag_229\n              jumpi\n                /* \"#utility.yul\":7356:7357   */\n              0x00\n                /* \"#utility.yul\":7347:7353   */\n              dup5\n                /* \"#utility.yul\":7342:7345   */\n              dup5\n                /* \"#utility.yul\":7338:7354   */\n              add\n                /* \"#utility.yul\":7331:7358   */\n              mstore\n                /* \"#utility.yul\":7267:7269   */\n            tag_229:\n                /* \"#utility.yul\":7116:7374   */\n              pop\n              pop\n              pop\n              pop\n              jump\t// out\n                /* \"#utility.yul\":7380:7700   */\n            tag_82:\n                /* \"#utility.yul\":7424:7430   */\n              0x00\n                /* \"#utility.yul\":7461:7462   */\n              0x02\n                /* \"#utility.yul\":7455:7459   */\n              dup3\n                /* \"#utility.yul\":7451:7463   */\n              div\n                /* \"#utility.yul\":7441:7463   */\n              swap1\n              pop\n                /* \"#utility.yul\":7508:7509   */\n              0x01\n                /* \"#utility.yul\":7502:7506   */\n              dup3\n                /* \"#utility.yul\":7498:7510   */\n              and\n                /* \"#utility.yul\":7529:7547   */\n              dup1\n                /* \"#utility.yul\":7519:7521   */\n              tag_231\n              jumpi\n                /* \"#utility.yul\":7585:7589   */\n              0x7f\n                /* \"#utility.yul\":7577:7583   */\n              dup3\n                /* \"#utility.yul\":7573:7590   */\n              and\n                /* \"#utility.yul\":7563:7590   */\n              swap2\n              pop\n                /* \"#utility.yul\":7519:7521   */\n            tag_231:\n                /* \"#utility.yul\":7647:7649   */\n              0x20\n                /* \"#utility.yul\":7639:7645   */\n              dup3\n                /* \"#utility.yul\":7636:7650   */\n              lt\n                /* \"#utility.yul\":7616:7634   */\n              dup2\n                /* \"#utility.yul\":7613:7651   */\n              eq\n                /* \"#utility.yul\":7610:7612   */\n              iszero\n              tag_232\n              jumpi\n                /* \"#utility.yul\":7666:7684   */\n              tag_233\n              tag_234\n              jump\t// in\n            tag_233:\n                /* \"#utility.yul\":7610:7612   */\n            tag_232:\n                /* \"#utility.yul\":7431:7700   */\n              pop\n              swap2\n              swap1\n              pop\n              jump\t// out\n                /* \"#utility.yul\":7706:7987   */\n            tag_203:\n                /* \"#utility.yul\":7789:7816   */\n              tag_236\n                /* \"#utility.yul\":7811:7815   */\n              dup3\n                /* \"#utility.yul\":7789:7816   */\n              tag_173\n              jump\t// in\n            tag_236:\n                /* \"#utility.yul\":7781:7787   */\n              dup2\n                /* \"#utility.yul\":7777:7817   */\n              add\n                /* \"#utility.yul\":7919:7925   */\n              dup2\n                /* \"#utility.yul\":7907:7917   */\n              dup2\n                /* \"#utility.yul\":7904:7926   */\n              lt\n                /* \"#utility.yul\":7883:7901   */\n              0xffffffffffffffff\n                /* \"#utility.yul\":7871:7881   */\n              dup3\n                /* \"#utility.yul\":7868:7902   */\n              gt\n                /* \"#utility.yul\":7865:7927   */\n              or\n                /* \"#utility.yul\":7862:7864   */\n              iszero\n              tag_237\n              jumpi\n                /* \"#utility.yul\":7930:7948   */\n              tag_238\n              tag_208\n              jump\t// in\n            tag_238:\n                /* \"#utility.yul\":7862:7864   */\n            tag_237:\n                /* \"#utility.yul\":7970:7980   */\n              dup1\n                /* \"#utility.yul\":7966:7968   */\n              0x40\n                /* \"#utility.yul\":7959:7981   */\n              mstore\n                /* \"#utility.yul\":7749:7987   */\n              pop\n              pop\n              pop\n              jump\t// out\n                /* \"#utility.yul\":7993:8226   */\n            tag_104:\n                /* \"#utility.yul\":8032:8035   */\n              0x00\n                /* \"#utility.yul\":8055:8079   */\n              tag_240\n                /* \"#utility.yul\":8073:8078   */\n              dup3\n                /* \"#utility.yul\":8055:8079   */\n              tag_177\n              jump\t// in\n            tag_240:\n                /* \"#utility.yul\":8046:8079   */\n              swap2\n              pop\n                /* \"#utility.yul\":8101:8167   */\n              0xffffffffffffffffffffffffffffffffffffffffffffffffffffffffffffffff\n                /* \"#utility.yul\":8094:8099   */\n              dup3\n                /* \"#utility.yul\":8091:8168   */\n              eq\n                /* \"#utility.yul\":8088:8090   */\n              iszero\n              tag_241\n              jumpi\n                /* \"#utility.yul\":8171:8189   */\n              tag_242\n              tag_243\n              jump\t// in\n            tag_242:\n                /* \"#utility.yul\":8088:8090   */\n            tag_241:\n                /* \"#utility.yul\":8218:8219   */\n              0x01\n                /* \"#utility.yul\":8211:8216   */\n              dup3\n                /* \"#utility.yul\":8207:8220   */\n              add\n                /* \"#utility.yul\":8200:8220   */\n              swap1\n              pop\n                /* \"#utility.yul\":8036:8226   */\n              swap2\n              swap1\n              pop\n              jump\t// out\n                /* \"#utility.yul\":8232:8412   */\n            tag_243:\n                /* \"#utility.yul\":8280:8357   */\n              0x4e487b7100000000000000000000000000000000000000000000000000000000\n                /* \"#utility.yul\":8277:8278   */\n              0x00\n                /* \"#utility.yul\":8270:8358   */\n              mstore\n                /* \"#utility.yul\":8377:8381   */\n              0x11\n                /* \"#utility.yul\":8374:8375   */\n              0x04\n                /* \"#utility.yul\":8367:8382   */\n              mstore\n                /* \"#utility.yul\":8401:8405   */\n              0x24\n                /* \"#utility.yul\":8398:8399   */\n              0x00\n                /* \"#utility.yul\":8391:8406   */\n              revert\n                /* \"#utility.yul\":8418:8598   */\n            tag_217:\n                /* \"#utility.yul\":8466:8543   */\n              0x4e487b7100000000000000000000000000000000000000000000000000000000\n                /* \"#utility.yul\":8463:8464   */\n              0x00\n                /* \"#utility.yul\":8456:8544   */\n              mstore\n                /* \"#utility.yul\":8563:8567   */\n              0x12\n                /* \"#utility.yul\":8560:8561   */\n              0x04\n                /* \"#utility.yul\":8553:8568   */\n              mstore\n                /* \"#utility.yul\":8587:8591   */\n              0x24\n                /* \"#utility.yul\":8584:8585   */\n              0x00\n                /* \"#utility.yul\":8577:8592   */\n              revert\n                /* \"#utility.yul\":8604:8784   */\n            tag_234:\n                /* \"#utility.yul\":8652:8729   */\n              0x4e487b7100000000000000000000000000000000000000000000000000000000\n                /* \"#utility.yul\":8649:8650   */\n              0x00\n                /* \"#utility.yul\":8642:8730   */\n              mstore\n                /* \"#utility.yul\":8749:8753   */\n              0x22\n                /* \"#utility.yul\":8746:8747   */\n              0x04\n                /* \"#utility.yul\":8739:8754   */\n              mstore\n                /* \"#utility.yul\":8773:8777   */\n              0x24\n                /* \"#utility.yul\":8770:8771   */\n              0x00\n                /* \"#utility.yul\":8763:8778   */\n              revert\n                /* \"#utility.yul\":8790:8970   */\n            tag_208:\n                /* \"#utility.yul\":8838:8915   */\n              0x4e487b7100000000000000000000000000000000000000000000000000000000\n                /* \"#utility.yul\":8835:8836   */\n              0x00\n                /* \"#utility.yul\":8828:8916   */\n              mstore\n                /* \"#utility.yul\":8935:8939   */\n              0x41\n                /* \"#utility.yul\":8932:8933   */\n              0x04\n                /* \"#utility.yul\":8925:8940   */\n              mstore\n                /* \"#utility.yul\":8959:8963   */\n              0x24\n                /* \"#utility.yul\":8956:8957   */\n              0x00\n                /* \"#utility.yul\":8949:8964   */\n              revert\n                /* \"#utility.yul\":8976:9078   */\n            tag_173:\n                /* \"#utility.yul\":9017:9023   */\n              0x00\n                /* \"#utility.yul\":9068:9070   */\n              0x1f\n                /* \"#utility.yul\":9064:9071   */\n              not\n                /* \"#utility.yul\":9059:9061   */\n              0x1f\n                /* \"#utility.yul\":9052:9057   */\n              dup4\n                /* \"#utility.yul\":9048:9062   */\n              add\n                /* \"#utility.yul\":9044:9072   */\n              and\n                /* \"#utility.yul\":9034:9072   */\n              swap1\n              pop\n                /* \"#utility.yul\":9024:9078   */\n              swap2\n              swap1\n              pop\n              jump\t// out\n                /* \"#utility.yul\":9084:9206   */\n            tag_135:\n                /* \"#utility.yul\":9157:9181   */\n              tag_250\n                /* \"#utility.yul\":9175:9180   */\n              dup2\n                /* \"#utility.yul\":9157:9181   */\n              tag_159\n              jump\t// in\n            tag_250:\n                /* \"#utility.yul\":9150:9155   */\n              dup2\n                /* \"#utility.yul\":9147:9182   */\n              eq\n                /* \"#utility.yul\":9137:9139   */\n              tag_251\n              jumpi\n                /* \"#utility.yul\":9196:9197   */\n              0x00\n                /* \"#utility.yul\":9193:9194   */\n              dup1\n                /* \"#utility.yul\":9186:9198   */\n              revert\n                /* \"#utility.yul\":9137:9139   */\n            tag_251:\n                /* \"#utility.yul\":9127:9206   */\n              pop\n              jump\t// out\n                /* \"#utility.yul\":9212:9334   */\n            tag_143:\n                /* \"#utility.yul\":9285:9309   */\n              tag_253\n                /* \"#utility.yul\":9303:9308   */\n              dup2\n                /* \"#utility.yul\":9285:9309   */\n              tag_177\n              jump\t// in\n            tag_253:\n                /* \"#utility.yul\":9278:9283   */\n              dup2\n                /* \"#utility.yul\":9275:9310   */\n              eq\n                /* \"#utility.yul\":9265:9267   */\n              tag_254\n              jumpi\n                /* \"#utility.yul\":9324:9325   */\n              0x00\n                /* \"#utility.yul\":9321:9322   */\n              dup1\n                /* \"#utility.yul\":9314:9326   */\n              revert\n                /* \"#utility.yul\":9265:9267   */\n            tag_254:\n                /* \"#utility.yul\":9255:9334   */\n              pop\n              jump\t// out\n\n            auxdata: 0xa2646970667358221220cd518f3cf1ba2efef5f4e2d44e1b68610b2f42ae5282fc82e948dada7eea4c3564736f6c63430008040033\n        }\n    }\n\n    auxdata: 0xa264697066735822122045bdfef19126cc1de9d4cd22d02197f03e66465ef10654878df15be4169db23464736f6c63430008040033\n}\n","bytecode":{"linkReferences":{},"object":"608060405234801561001057600080fd5b50611f4f806100206000396000f3fe60806040523480156200001157600080fd5b5060043610620000525760003560e01c8063141961bc1462000057578063339d50a5146200008e5780634220d65614620000c4578063aa9a068f14620000e4575b600080fd5b6200007560048036038101906200006f9190620005c7565b62000106565b60405162000085929190620007f7565b60405180910390f35b620000ac6004803603810190620000a69190620005c7565b620001eb565b604051620000bb9190620007da565b60405180910390f35b620000e26004803603810190620000dc9190620005f3565b6200022b565b005b620000ee6200032f565b604051620000fd91906200082b565b60405180910390f35b600181815481106200011757600080fd5b90600052602060002090600202016000915090508060000160009054906101000a900473ffffffffffffffffffffffffffffffffffffffff16908060010180546200016290620009db565b80601f01602080910402602001604051908101604052809291908181526020018280546200019090620009db565b8015620001e15780601f10620001b557610100808354040283529160200191620001e1565b820191906000526020600020905b815481529060010190602001808311620001c357829003601f168201915b5050505050905082565b60008181548110620001fc57600080fd5b906000526020600020016000915054906101000a900473ffffffffffffffffffffffffffffffffffffffff1681565b60008233836040516200023e9062000480565b6200024c939291906200084f565b604051809103906000f08015801562000269573d6000803e3d6000fd5b509050600160405180604001604052808373ffffffffffffffffffffffffffffffffffffffff16815260200184815250908060018154018082558091505060019003906000526020600020906002020160009091909190915060008201518160000160006101000a81548173ffffffffffffffffffffffffffffffffffffffff021916908373ffffffffffffffffffffffffffffffffffffffff1602179055506020820151816001019080519060200190620003279291906200048e565b505050505050565b60606001805480602002602001604051908101604052809291908181526020016000905b828210156200047757838290600052602060002090600202016040518060400160405290816000820160009054906101000a900473ffffffffffffffffffffffffffffffffffffffff1673ffffffffffffffffffffffffffffffffffffffff1673ffffffffffffffffffffffffffffffffffffffff168152602001600182018054620003df90620009db565b80601f01602080910402602001604051908101604052809291908181526020018280546200040d90620009db565b80156200045e5780601f1062000432576101008083540402835291602001916200045e565b820191906000526020600020905b8154815290600101906020018083116200044057829003601f168201915b5050505050815250508152602001906001019062000353565b50505050905090565b6114498062000ad183390190565b8280546200049c90620009db565b90600052602060002090601f016020900481019282620004c057600085556200050c565b82601f10620004db57805160ff19168380011785556200050c565b828001600101855582156200050c579182015b828111156200050b578251825591602001919060010190620004ee565b5b5090506200051b91906200051f565b5090565b5b808211156200053a57600081600090555060010162000520565b5090565b6000620005556200054f84620008bc565b62000893565b9050828152602081018484840111156200056e57600080fd5b6200057b84828562000996565b509392505050565b600082601f8301126200059557600080fd5b8135620005a78482602086016200053e565b91505092915050565b600081359050620005c18162000ab6565b92915050565b600060208284031215620005da57600080fd5b6000620005ea84828501620005b0565b91505092915050565b600080604083850312156200060757600080fd5b60006200061785828601620005b0565b925050602083013567ffffffffffffffff8111156200063557600080fd5b620006438582860162000583565b9150509250929050565b60006200065b838362000788565b905092915050565b6200066e8162000958565b82525050565b6200067f8162000958565b82525050565b6000620006928262000902565b6200069e818562000925565b935083602082028501620006b285620008f2565b8060005b85811015620006f45784840389528151620006d285826200064d565b9450620006df8362000918565b925060208a01995050600181019050620006b6565b50829750879550505050505092915050565b600062000713826200090d565b6200071f818562000936565b935062000731818560208601620009a5565b6200073c8162000aa5565b840191505092915050565b600062000754826200090d565b62000760818562000947565b935062000772818560208601620009a5565b6200077d8162000aa5565b840191505092915050565b6000604083016000830151620007a2600086018262000663565b5060208301518482036020860152620007bc828262000706565b9150508091505092915050565b620007d4816200098c565b82525050565b6000602082019050620007f1600083018462000674565b92915050565b60006040820190506200080e600083018562000674565b818103602083015262000822818462000747565b90509392505050565b6000602082019050818103600083015262000847818462000685565b905092915050565b6000606082019050620008666000830186620007c9565b62000875602083018562000674565b818103604083015262000889818462000747565b9050949350505050565b60006200089f620008b2565b9050620008ad828262000a11565b919050565b6000604051905090565b600067ffffffffffffffff821115620008da57620008d962000a76565b5b620008e58262000aa5565b9050602081019050919050565b6000819050602082019050919050565b600081519050919050565b600081519050919050565b6000602082019050919050565b600082825260208201905092915050565b600082825260208201905092915050565b600082825260208201905092915050565b600062000965826200096c565b9050919050565b600073ffffffffffffffffffffffffffffffffffffffff82169050919050565b6000819050919050565b82818337600083830152505050565b60005b83811015620009c5578082015181840152602081019050620009a8565b83811115620009d5576000848401525b50505050565b60006002820490506001821680620009f457607f821691505b6020821081141562000a0b5762000a0a62000a47565b5b50919050565b62000a1c8262000aa5565b810181811067ffffffffffffffff8211171562000a3e5762000a3d62000a76565b5b80604052505050565b7f4e487b7100000000000000000000000000000000000000000000000000000000600052602260045260246000fd5b7f4e487b7100000000000000000000000000000000000000000000000000000000600052604160045260246000fd5b6000601f19601f8301169050919050565b62000ac1816200098c565b811462000acd57600080fd5b5056fe60806040523480156200001157600080fd5b5060405162001449380380620014498339818101604052810190620000379190620001f0565b816000806101000a81548173ffffffffffffffffffffffffffffffffffffffff021916908373ffffffffffffffffffffffffffffffffffffffff16021790555082600281905550806001908051906020019062000096929190620000a0565b5050505062000441565b828054620000ae9062000332565b90600052602060002090601f016020900481019282620000d257600085556200011e565b82601f10620000ed57805160ff19168380011785556200011e565b828001600101855582156200011e579182015b828111156200011d57825182559160200191906001019062000100565b5b5090506200012d919062000131565b5090565b5b808211156200014c57600081600090555060010162000132565b5090565b600062000167620001618462000288565b6200025f565b9050828152602081018484840111156200018057600080fd5b6200018d848285620002fc565b509392505050565b600081519050620001a6816200040d565b92915050565b600082601f830112620001be57600080fd5b8151620001d084826020860162000150565b91505092915050565b600081519050620001ea8162000427565b92915050565b6000806000606084860312156200020657600080fd5b60006200021686828701620001d9565b9350506020620002298682870162000195565b925050604084015167ffffffffffffffff8111156200024757600080fd5b6200025586828701620001ac565b9150509250925092565b60006200026b6200027e565b905062000279828262000368565b919050565b6000604051905090565b600067ffffffffffffffff821115620002a657620002a5620003cd565b5b620002b182620003fc565b9050602081019050919050565b6000620002cb82620002d2565b9050919050565b600073ffffffffffffffffffffffffffffffffffffffff82169050919050565b6000819050919050565b60005b838110156200031c578082015181840152602081019050620002ff565b838111156200032c576000848401525b50505050565b600060028204905060018216806200034b57607f821691505b602082108114156200036257620003616200039e565b5b50919050565b6200037382620003fc565b810181811067ffffffffffffffff82111715620003955762000394620003cd565b5b80604052505050565b7f4e487b7100000000000000000000000000000000000000000000000000000000600052602260045260246000fd5b7f4e487b7100000000000000000000000000000000000000000000000000000000600052604160045260246000fd5b6000601f19601f8301169050919050565b6200041881620002be565b81146200042457600080fd5b50565b6200043281620002f2565b81146200043e57600080fd5b50565b610ff880620004516000396000f3fe6080604052600436106100a75760003560e01c806381d12c581161006457806381d12c58146101c357806382fde093146102045780638a9cfd551461022f578063937e09b114610258578063d7bb99ba14610283578063d7d1bbdb1461028d576100a7565b806303441006146100ac5780630a144391146100d557806332461bd8146101125780634051ddac1461013d578063481c6a751461016d5780635badbe4c14610198575b600080fd5b3480156100b857600080fd5b506100d360048036038101906100ce9190610b2a565b6102b6565b005b3480156100e157600080fd5b506100fc60048036038101906100f79190610a9a565b6103ef565b6040516101099190610bd4565b60405180910390f35b34801561011e57600080fd5b5061012761040f565b6040516101349190610bef565b60405180910390f35b34801561014957600080fd5b5061015261049d565b60405161016496959493929190610c86565b60405180910390f35b34801561017957600080fd5b50610182610574565b60405161018f9190610bb9565b60405180910390f35b3480156101a457600080fd5b506101ad610598565b6040516101ba9190610c6b565b60405180910390f35b3480156101cf57600080fd5b506101ea60048036038101906101e59190610b2a565b61059e565b6040516101fb959493929190610c11565b60405180910390f35b34801561021057600080fd5b50610219610689565b6040516102269190610c6b565b60405180910390f35b34801561023b57600080fd5b5061025660048036038101906102519190610ac3565b61068f565b005b34801561026457600080fd5b5061026d6107a0565b60405161027a9190610c6b565b60405180910390f35b61028b6107a6565b005b34801561029957600080fd5b506102b460048036038101906102af9190610b2a565b610827565b005b60008054906101000a900473ffffffffffffffffffffffffffffffffffffffff1673ffffffffffffffffffffffffffffffffffffffff163373ffffffffffffffffffffffffffffffffffffffff161461030e57600080fd5b60006004600083815260200190815260200160002090508060020160149054906101000a900460ff161561034157600080fd5b60026006546103509190610d60565b81600301541161035f57600080fd5b8060020160009054906101000a900473ffffffffffffffffffffffffffffffffffffffff1673ffffffffffffffffffffffffffffffffffffffff166108fc82600101549081150290604051600060405180830381858888f193505050501580156103cd573d6000803e3d6000fd5b5060018160020160146101000a81548160ff0219169083151502179055505050565b60036020528060005260406000206000915054906101000a900460ff1681565b6001805461041c90610e1b565b80601f016020809104026020016040519081016040528092919081815260200182805461044890610e1b565b80156104955780601f1061046a57610100808354040283529160200191610495565b820191906000526020600020905b81548152906001019060200180831161047857829003601f168201915b505050505081565b600080600080600060606002544760055460065460008054906101000a900473ffffffffffffffffffffffffffffffffffffffff1660018080546104e090610e1b565b80601f016020809104026020016040519081016040528092919081815260200182805461050c90610e1b565b80156105595780601f1061052e57610100808354040283529160200191610559565b820191906000526020600020905b81548152906001019060200180831161053c57829003601f168201915b50505050509050955095509550955095509550909192939495565b60008054906101000a900473ffffffffffffffffffffffffffffffffffffffff1681565b60055481565b60046020528060005260406000206000915090508060000180546105c190610e1b565b80601f01602080910402602001604051908101604052809291908181526020018280546105ed90610e1b565b801561063a5780601f1061060f5761010080835404028352916020019161063a565b820191906000526020600020905b81548152906001019060200180831161061d57829003601f168201915b5050505050908060010154908060020160009054906101000a900473ffffffffffffffffffffffffffffffffffffffff16908060020160149054906101000a900460ff16908060030154905085565b60065481565b60008054906101000a900473ffffffffffffffffffffffffffffffffffffffff1673ffffffffffffffffffffffffffffffffffffffff163373ffffffffffffffffffffffffffffffffffffffff16146106e757600080fd5b6000600460006005548152602001908152602001600020905083816000019080519060200190610718929190610965565b50828160010181905550818160020160006101000a81548173ffffffffffffffffffffffffffffffffffffffff021916908373ffffffffffffffffffffffffffffffffffffffff16021790555060008160020160146101000a81548160ff0219169083151502179055506005600081548092919061079590610e7e565b919050555050505050565b60025481565b6002543410156107b557600080fd5b6001600360003373ffffffffffffffffffffffffffffffffffffffff1673ffffffffffffffffffffffffffffffffffffffff16815260200190815260200160002060006101000a81548160ff0219169083151502179055506006600081548092919061082090610e7e565b9190505550565b6000600460008381526020019081526020016000209050600360003373ffffffffffffffffffffffffffffffffffffffff1673ffffffffffffffffffffffffffffffffffffffff16815260200190815260200160002060009054906101000a900460ff1661089457600080fd5b8060040160003373ffffffffffffffffffffffffffffffffffffffff1673ffffffffffffffffffffffffffffffffffffffff16815260200190815260200160002060009054906101000a900460ff16156108ed57600080fd5b60018160040160003373ffffffffffffffffffffffffffffffffffffffff1673ffffffffffffffffffffffffffffffffffffffff16815260200190815260200160002060006101000a81548160ff02191690831515021790555080600301600081548092919061095c90610e7e565b91905055505050565b82805461097190610e1b565b90600052602060002090601f01602090048101928261099357600085556109da565b82601f106109ac57805160ff19168380011785556109da565b828001600101855582156109da579182015b828111156109d95782518255916020019190600101906109be565b5b5090506109e791906109eb565b5090565b5b80821115610a045760008160009055506001016109ec565b5090565b6000610a1b610a1684610d13565b610cee565b905082815260208101848484011115610a3357600080fd5b610a3e848285610dd9565b509392505050565b600081359050610a5581610f94565b92915050565b600082601f830112610a6c57600080fd5b8135610a7c848260208601610a08565b91505092915050565b600081359050610a9481610fab565b92915050565b600060208284031215610aac57600080fd5b6000610aba84828501610a46565b91505092915050565b600080600060608486031215610ad857600080fd5b600084013567ffffffffffffffff811115610af257600080fd5b610afe86828701610a5b565b9350506020610b0f86828701610a85565b9250506040610b2086828701610a46565b9150509250925092565b600060208284031215610b3c57600080fd5b6000610b4a84828501610a85565b91505092915050565b610b5c81610d91565b82525050565b610b6b81610da3565b82525050565b6000610b7c82610d44565b610b868185610d4f565b9350610b96818560208601610de8565b610b9f81610f83565b840191505092915050565b610bb381610dcf565b82525050565b6000602082019050610bce6000830184610b53565b92915050565b6000602082019050610be96000830184610b62565b92915050565b60006020820190508181036000830152610c098184610b71565b905092915050565b600060a0820190508181036000830152610c2b8188610b71565b9050610c3a6020830187610baa565b610c476040830186610b53565b610c546060830185610b62565b610c616080830184610baa565b9695505050505050565b6000602082019050610c806000830184610baa565b92915050565b600060c082019050610c9b6000830189610baa565b610ca86020830188610baa565b610cb56040830187610baa565b610cc26060830186610baa565b610ccf6080830185610b53565b81810360a0830152610ce18184610b71565b9050979650505050505050565b6000610cf8610d09565b9050610d048282610e4d565b919050565b6000604051905090565b600067ffffffffffffffff821115610d2e57610d2d610f54565b5b610d3782610f83565b9050602081019050919050565b600081519050919050565b600082825260208201905092915050565b6000610d6b82610dcf565b9150610d7683610dcf565b925082610d8657610d85610ef6565b5b828204905092915050565b6000610d9c82610daf565b9050919050565b60008115159050919050565b600073ffffffffffffffffffffffffffffffffffffffff82169050919050565b6000819050919050565b82818337600083830152505050565b60005b83811015610e06578082015181840152602081019050610deb565b83811115610e15576000848401525b50505050565b60006002820490506001821680610e3357607f821691505b60208210811415610e4757610e46610f25565b5b50919050565b610e5682610f83565b810181811067ffffffffffffffff82111715610e7557610e74610f54565b5b80604052505050565b6000610e8982610dcf565b91507fffffffffffffffffffffffffffffffffffffffffffffffffffffffffffffffff821415610ebc57610ebb610ec7565b5b600182019050919050565b7f4e487b7100000000000000000000000000000000000000000000000000000000600052601160045260246000fd5b7f4e487b7100000000000000000000000000000000000000000000000000000000600052601260045260246000fd5b7f4e487b7100000000000000000000000000000000000000000000000000000000600052602260045260246000fd5b7f4e487b7100000000000000000000000000000000000000000000000000000000600052604160045260246000fd5b6000601f19601f8301169050919050565b610f9d81610d91565b8114610fa857600080fd5b50565b610fb481610dcf565b8114610fbf57600080fd5b5056fea2646970667358221220cd518f3cf1ba2efef5f4e2d44e1b68610b2f42ae5282fc82e948dada7eea4c3564736f6c63430008040033a264697066735822122045bdfef19126cc1de9d4cd22d02197f03e66465ef10654878df15be4169db23464736f6c63430008040033","opcodes":"PUSH1 0x80 PUSH1 0x40 MSTORE CALLVALUE DUP1 ISZERO PUSH2 0x10 JUMPI PUSH1 0x0 DUP1 REVERT JUMPDEST POP PUSH2 0x1F4F DUP1 PUSH2 0x20 PUSH1 0x0 CODECOPY PUSH1 0x0 RETURN INVALID PUSH1 0x80 PUSH1 0x40 MSTORE CALLVALUE DUP1 ISZERO PUSH3 0x11 JUMPI PUSH1 0x0 DUP1 REVERT JUMPDEST POP PUSH1 0x4 CALLDATASIZE LT PUSH3 0x52 JUMPI PUSH1 0x0 CALLDATALOAD PUSH1 0xE0 SHR DUP1 PUSH4 0x141961BC EQ PUSH3 0x57 JUMPI DUP1 PUSH4 0x339D50A5 EQ PUSH3 0x8E JUMPI DUP1 PUSH4 0x4220D656 EQ PUSH3 0xC4 JUMPI DUP1 PUSH4 0xAA9A068F EQ PUSH3 0xE4 JUMPI JUMPDEST PUSH1 0x0 DUP1 REVERT JUMPDEST PUSH3 0x75 PUSH1 0x4 DUP1 CALLDATASIZE SUB DUP2 ADD SWAP1 PUSH3 0x6F SWAP2 SWAP1 PUSH3 0x5C7 JUMP JUMPDEST PUSH3 0x106 JUMP JUMPDEST PUSH1 0x40 MLOAD PUSH3 0x85 SWAP3 SWAP2 SWAP1 PUSH3 0x7F7 JUMP JUMPDEST PUSH1 0x40 MLOAD DUP1 SWAP2 SUB SWAP1 RETURN JUMPDEST PUSH3 0xAC PUSH1 0x4 DUP1 CALLDATASIZE SUB DUP2 ADD SWAP1 PUSH3 0xA6 SWAP2 SWAP1 PUSH3 0x5C7 JUMP JUMPDEST PUSH3 0x1EB JUMP JUMPDEST PUSH1 0x40 MLOAD PUSH3 0xBB SWAP2 SWAP1 PUSH3 0x7DA JUMP JUMPDEST PUSH1 0x40 MLOAD DUP1 SWAP2 SUB SWAP1 RETURN JUMPDEST PUSH3 0xE2 PUSH1 0x4 DUP1 CALLDATASIZE SUB DUP2 ADD SWAP1 PUSH3 0xDC SWAP2 SWAP1 PUSH3 0x5F3 JUMP JUMPDEST PUSH3 0x22B JUMP JUMPDEST STOP JUMPDEST PUSH3 0xEE PUSH3 0x32F JUMP JUMPDEST PUSH1 0x40 MLOAD PUSH3 0xFD SWAP2 SWAP1 PUSH3 0x82B JUMP JUMPDEST PUSH1 0x40 MLOAD DUP1 SWAP2 SUB SWAP1 RETURN JUMPDEST PUSH1 0x1 DUP2 DUP2 SLOAD DUP2 LT PUSH3 0x117 JUMPI PUSH1 0x0 DUP1 REVERT JUMPDEST SWAP1 PUSH1 0x0 MSTORE PUSH1 0x20 PUSH1 0x0 KECCAK256 SWAP1 PUSH1 0x2 MUL ADD PUSH1 0x0 SWAP2 POP SWAP1 POP DUP1 PUSH1 0x0 ADD PUSH1 0x0 SWAP1 SLOAD SWAP1 PUSH2 0x100 EXP SWAP1 DIV PUSH20 0xFFFFFFFFFFFFFFFFFFFFFFFFFFFFFFFFFFFFFFFF AND SWAP1 DUP1 PUSH1 0x1 ADD DUP1 SLOAD PUSH3 0x162 SWAP1 PUSH3 0x9DB JUMP JUMPDEST DUP1 PUSH1 0x1F ADD PUSH1 0x20 DUP1 SWAP2 DIV MUL PUSH1 0x20 ADD PUSH1 0x40 MLOAD SWAP1 DUP2 ADD PUSH1 0x40 MSTORE DUP1 SWAP3 SWAP2 SWAP1 DUP2 DUP2 MSTORE PUSH1 0x20 ADD DUP3 DUP1 SLOAD PUSH3 0x190 SWAP1 PUSH3 0x9DB JUMP JUMPDEST DUP1 ISZERO PUSH3 0x1E1 JUMPI DUP1 PUSH1 0x1F LT PUSH3 0x1B5 JUMPI PUSH2 0x100 DUP1 DUP4 SLOAD DIV MUL DUP4 MSTORE SWAP2 PUSH1 0x20 ADD SWAP2 PUSH3 0x1E1 JUMP JUMPDEST DUP3 ADD SWAP2 SWAP1 PUSH1 0x0 MSTORE PUSH1 0x20 PUSH1 0x0 KECCAK256 SWAP1 JUMPDEST DUP2 SLOAD DUP2 MSTORE SWAP1 PUSH1 0x1 ADD SWAP1 PUSH1 0x20 ADD DUP1 DUP4 GT PUSH3 0x1C3 JUMPI DUP3 SWAP1 SUB PUSH1 0x1F AND DUP3 ADD SWAP2 JUMPDEST POP POP POP POP POP SWAP1 POP DUP3 JUMP JUMPDEST PUSH1 0x0 DUP2 DUP2 SLOAD DUP2 LT PUSH3 0x1FC JUMPI PUSH1 0x0 DUP1 REVERT JUMPDEST SWAP1 PUSH1 0x0 MSTORE PUSH1 0x20 PUSH1 0x0 KECCAK256 ADD PUSH1 0x0 SWAP2 POP SLOAD SWAP1 PUSH2 0x100 EXP SWAP1 DIV PUSH20 0xFFFFFFFFFFFFFFFFFFFFFFFFFFFFFFFFFFFFFFFF AND DUP2 JUMP JUMPDEST PUSH1 0x0 DUP3 CALLER DUP4 PUSH1 0x40 MLOAD PUSH3 0x23E SWAP1 PUSH3 0x480 JUMP JUMPDEST PUSH3 0x24C SWAP4 SWAP3 SWAP2 SWAP1 PUSH3 0x84F JUMP JUMPDEST PUSH1 0x40 MLOAD DUP1 SWAP2 SUB SWAP1 PUSH1 0x0 CREATE DUP1 ISZERO DUP1 ISZERO PUSH3 0x269 JUMPI RETURNDATASIZE PUSH1 0x0 DUP1 RETURNDATACOPY RETURNDATASIZE PUSH1 0x0 REVERT JUMPDEST POP SWAP1 POP PUSH1 0x1 PUSH1 0x40 MLOAD DUP1 PUSH1 0x40 ADD PUSH1 0x40 MSTORE DUP1 DUP4 PUSH20 0xFFFFFFFFFFFFFFFFFFFFFFFFFFFFFFFFFFFFFFFF AND DUP2 MSTORE PUSH1 0x20 ADD DUP5 DUP2 MSTORE POP SWAP1 DUP1 PUSH1 0x1 DUP2 SLOAD ADD DUP1 DUP3 SSTORE DUP1 SWAP2 POP POP PUSH1 0x1 SWAP1 SUB SWAP1 PUSH1 0x0 MSTORE PUSH1 0x20 PUSH1 0x0 KECCAK256 SWAP1 PUSH1 0x2 MUL ADD PUSH1 0x0 SWAP1 SWAP2 SWAP1 SWAP2 SWAP1 SWAP2 POP PUSH1 0x0 DUP3 ADD MLOAD DUP2 PUSH1 0x0 ADD PUSH1 0x0 PUSH2 0x100 EXP DUP2 SLOAD DUP2 PUSH20 0xFFFFFFFFFFFFFFFFFFFFFFFFFFFFFFFFFFFFFFFF MUL NOT AND SWAP1 DUP4 PUSH20 0xFFFFFFFFFFFFFFFFFFFFFFFFFFFFFFFFFFFFFFFF AND MUL OR SWAP1 SSTORE POP PUSH1 0x20 DUP3 ADD MLOAD DUP2 PUSH1 0x1 ADD SWAP1 DUP1 MLOAD SWAP1 PUSH1 0x20 ADD SWAP1 PUSH3 0x327 SWAP3 SWAP2 SWAP1 PUSH3 0x48E JUMP JUMPDEST POP POP POP POP POP POP JUMP JUMPDEST PUSH1 0x60 PUSH1 0x1 DUP1 SLOAD DUP1 PUSH1 0x20 MUL PUSH1 0x20 ADD PUSH1 0x40 MLOAD SWAP1 DUP2 ADD PUSH1 0x40 MSTORE DUP1 SWAP3 SWAP2 SWAP1 DUP2 DUP2 MSTORE PUSH1 0x20 ADD PUSH1 0x0 SWAP1 JUMPDEST DUP3 DUP3 LT ISZERO PUSH3 0x477 JUMPI DUP4 DUP3 SWAP1 PUSH1 0x0 MSTORE PUSH1 0x20 PUSH1 0x0 KECCAK256 SWAP1 PUSH1 0x2 MUL ADD PUSH1 0x40 MLOAD DUP1 PUSH1 0x40 ADD PUSH1 0x40 MSTORE SWAP1 DUP2 PUSH1 0x0 DUP3 ADD PUSH1 0x0 SWAP1 SLOAD SWAP1 PUSH2 0x100 EXP SWAP1 DIV PUSH20 0xFFFFFFFFFFFFFFFFFFFFFFFFFFFFFFFFFFFFFFFF AND PUSH20 0xFFFFFFFFFFFFFFFFFFFFFFFFFFFFFFFFFFFFFFFF AND PUSH20 0xFFFFFFFFFFFFFFFFFFFFFFFFFFFFFFFFFFFFFFFF AND DUP2 MSTORE PUSH1 0x20 ADD PUSH1 0x1 DUP3 ADD DUP1 SLOAD PUSH3 0x3DF SWAP1 PUSH3 0x9DB JUMP JUMPDEST DUP1 PUSH1 0x1F ADD PUSH1 0x20 DUP1 SWAP2 DIV MUL PUSH1 0x20 ADD PUSH1 0x40 MLOAD SWAP1 DUP2 ADD PUSH1 0x40 MSTORE DUP1 SWAP3 SWAP2 SWAP1 DUP2 DUP2 MSTORE PUSH1 0x20 ADD DUP3 DUP1 SLOAD PUSH3 0x40D SWAP1 PUSH3 0x9DB JUMP JUMPDEST DUP1 ISZERO PUSH3 0x45E JUMPI DUP1 PUSH1 0x1F LT PUSH3 0x432 JUMPI PUSH2 0x100 DUP1 DUP4 SLOAD DIV MUL DUP4 MSTORE SWAP2 PUSH1 0x20 ADD SWAP2 PUSH3 0x45E JUMP JUMPDEST DUP3 ADD SWAP2 SWAP1 PUSH1 0x0 MSTORE PUSH1 0x20 PUSH1 0x0 KECCAK256 SWAP1 JUMPDEST DUP2 SLOAD DUP2 MSTORE SWAP1 PUSH1 0x1 ADD SWAP1 PUSH1 0x20 ADD DUP1 DUP4 GT PUSH3 0x440 JUMPI DUP3 SWAP1 SUB PUSH1 0x1F AND DUP3 ADD SWAP2 JUMPDEST POP POP POP POP POP DUP2 MSTORE POP POP DUP2 MSTORE PUSH1 0x20 ADD SWAP1 PUSH1 0x1 ADD SWAP1 PUSH3 0x353 JUMP JUMPDEST POP POP POP POP SWAP1 POP SWAP1 JUMP JUMPDEST PUSH2 0x1449 DUP1 PUSH3 0xAD1 DUP4 CODECOPY ADD SWAP1 JUMP JUMPDEST DUP3 DUP1 SLOAD PUSH3 0x49C SWAP1 PUSH3 0x9DB JUMP JUMPDEST SWAP1 PUSH1 0x0 MSTORE PUSH1 0x20 PUSH1 0x0 KECCAK256 SWAP1 PUSH1 0x1F ADD PUSH1 0x20 SWAP1 DIV DUP2 ADD SWAP3 DUP3 PUSH3 0x4C0 JUMPI PUSH1 0x0 DUP6 SSTORE PUSH3 0x50C JUMP JUMPDEST DUP3 PUSH1 0x1F LT PUSH3 0x4DB JUMPI DUP1 MLOAD PUSH1 0xFF NOT AND DUP4 DUP1 ADD OR DUP6 SSTORE PUSH3 0x50C JUMP JUMPDEST DUP3 DUP1 ADD PUSH1 0x1 ADD DUP6 SSTORE DUP3 ISZERO PUSH3 0x50C JUMPI SWAP2 DUP3 ADD JUMPDEST DUP3 DUP2 GT ISZERO PUSH3 0x50B JUMPI DUP3 MLOAD DUP3 SSTORE SWAP2 PUSH1 0x20 ADD SWAP2 SWAP1 PUSH1 0x1 ADD SWAP1 PUSH3 0x4EE JUMP JUMPDEST JUMPDEST POP SWAP1 POP PUSH3 0x51B SWAP2 SWAP1 PUSH3 0x51F JUMP JUMPDEST POP SWAP1 JUMP JUMPDEST JUMPDEST DUP1 DUP3 GT ISZERO PUSH3 0x53A JUMPI PUSH1 0x0 DUP2 PUSH1 0x0 SWAP1 SSTORE POP PUSH1 0x1 ADD PUSH3 0x520 JUMP JUMPDEST POP SWAP1 JUMP JUMPDEST PUSH1 0x0 PUSH3 0x555 PUSH3 0x54F DUP5 PUSH3 0x8BC JUMP JUMPDEST PUSH3 0x893 JUMP JUMPDEST SWAP1 POP DUP3 DUP2 MSTORE PUSH1 0x20 DUP2 ADD DUP5 DUP5 DUP5 ADD GT ISZERO PUSH3 0x56E JUMPI PUSH1 0x0 DUP1 REVERT JUMPDEST PUSH3 0x57B DUP5 DUP3 DUP6 PUSH3 0x996 JUMP JUMPDEST POP SWAP4 SWAP3 POP POP POP JUMP JUMPDEST PUSH1 0x0 DUP3 PUSH1 0x1F DUP4 ADD SLT PUSH3 0x595 JUMPI PUSH1 0x0 DUP1 REVERT JUMPDEST DUP2 CALLDATALOAD PUSH3 0x5A7 DUP5 DUP3 PUSH1 0x20 DUP7 ADD PUSH3 0x53E JUMP JUMPDEST SWAP2 POP POP SWAP3 SWAP2 POP POP JUMP JUMPDEST PUSH1 0x0 DUP2 CALLDATALOAD SWAP1 POP PUSH3 0x5C1 DUP2 PUSH3 0xAB6 JUMP JUMPDEST SWAP3 SWAP2 POP POP JUMP JUMPDEST PUSH1 0x0 PUSH1 0x20 DUP3 DUP5 SUB SLT ISZERO PUSH3 0x5DA JUMPI PUSH1 0x0 DUP1 REVERT JUMPDEST PUSH1 0x0 PUSH3 0x5EA DUP5 DUP3 DUP6 ADD PUSH3 0x5B0 JUMP JUMPDEST SWAP2 POP POP SWAP3 SWAP2 POP POP JUMP JUMPDEST PUSH1 0x0 DUP1 PUSH1 0x40 DUP4 DUP6 SUB SLT ISZERO PUSH3 0x607 JUMPI PUSH1 0x0 DUP1 REVERT JUMPDEST PUSH1 0x0 PUSH3 0x617 DUP6 DUP3 DUP7 ADD PUSH3 0x5B0 JUMP JUMPDEST SWAP3 POP POP PUSH1 0x20 DUP4 ADD CALLDATALOAD PUSH8 0xFFFFFFFFFFFFFFFF DUP2 GT ISZERO PUSH3 0x635 JUMPI PUSH1 0x0 DUP1 REVERT JUMPDEST PUSH3 0x643 DUP6 DUP3 DUP7 ADD PUSH3 0x583 JUMP JUMPDEST SWAP2 POP POP SWAP3 POP SWAP3 SWAP1 POP JUMP JUMPDEST PUSH1 0x0 PUSH3 0x65B DUP4 DUP4 PUSH3 0x788 JUMP JUMPDEST SWAP1 POP SWAP3 SWAP2 POP POP JUMP JUMPDEST PUSH3 0x66E DUP2 PUSH3 0x958 JUMP JUMPDEST DUP3 MSTORE POP POP JUMP JUMPDEST PUSH3 0x67F DUP2 PUSH3 0x958 JUMP JUMPDEST DUP3 MSTORE POP POP JUMP JUMPDEST PUSH1 0x0 PUSH3 0x692 DUP3 PUSH3 0x902 JUMP JUMPDEST PUSH3 0x69E DUP2 DUP6 PUSH3 0x925 JUMP JUMPDEST SWAP4 POP DUP4 PUSH1 0x20 DUP3 MUL DUP6 ADD PUSH3 0x6B2 DUP6 PUSH3 0x8F2 JUMP JUMPDEST DUP1 PUSH1 0x0 JUMPDEST DUP6 DUP2 LT ISZERO PUSH3 0x6F4 JUMPI DUP5 DUP5 SUB DUP10 MSTORE DUP2 MLOAD PUSH3 0x6D2 DUP6 DUP3 PUSH3 0x64D JUMP JUMPDEST SWAP5 POP PUSH3 0x6DF DUP4 PUSH3 0x918 JUMP JUMPDEST SWAP3 POP PUSH1 0x20 DUP11 ADD SWAP10 POP POP PUSH1 0x1 DUP2 ADD SWAP1 POP PUSH3 0x6B6 JUMP JUMPDEST POP DUP3 SWAP8 POP DUP8 SWAP6 POP POP POP POP POP POP SWAP3 SWAP2 POP POP JUMP JUMPDEST PUSH1 0x0 PUSH3 0x713 DUP3 PUSH3 0x90D JUMP JUMPDEST PUSH3 0x71F DUP2 DUP6 PUSH3 0x936 JUMP JUMPDEST SWAP4 POP PUSH3 0x731 DUP2 DUP6 PUSH1 0x20 DUP7 ADD PUSH3 0x9A5 JUMP JUMPDEST PUSH3 0x73C DUP2 PUSH3 0xAA5 JUMP JUMPDEST DUP5 ADD SWAP2 POP POP SWAP3 SWAP2 POP POP JUMP JUMPDEST PUSH1 0x0 PUSH3 0x754 DUP3 PUSH3 0x90D JUMP JUMPDEST PUSH3 0x760 DUP2 DUP6 PUSH3 0x947 JUMP JUMPDEST SWAP4 POP PUSH3 0x772 DUP2 DUP6 PUSH1 0x20 DUP7 ADD PUSH3 0x9A5 JUMP JUMPDEST PUSH3 0x77D DUP2 PUSH3 0xAA5 JUMP JUMPDEST DUP5 ADD SWAP2 POP POP SWAP3 SWAP2 POP POP JUMP JUMPDEST PUSH1 0x0 PUSH1 0x40 DUP4 ADD PUSH1 0x0 DUP4 ADD MLOAD PUSH3 0x7A2 PUSH1 0x0 DUP7 ADD DUP3 PUSH3 0x663 JUMP JUMPDEST POP PUSH1 0x20 DUP4 ADD MLOAD DUP5 DUP3 SUB PUSH1 0x20 DUP7 ADD MSTORE PUSH3 0x7BC DUP3 DUP3 PUSH3 0x706 JUMP JUMPDEST SWAP2 POP POP DUP1 SWAP2 POP POP SWAP3 SWAP2 POP POP JUMP JUMPDEST PUSH3 0x7D4 DUP2 PUSH3 0x98C JUMP JUMPDEST DUP3 MSTORE POP POP JUMP JUMPDEST PUSH1 0x0 PUSH1 0x20 DUP3 ADD SWAP1 POP PUSH3 0x7F1 PUSH1 0x0 DUP4 ADD DUP5 PUSH3 0x674 JUMP JUMPDEST SWAP3 SWAP2 POP POP JUMP JUMPDEST PUSH1 0x0 PUSH1 0x40 DUP3 ADD SWAP1 POP PUSH3 0x80E PUSH1 0x0 DUP4 ADD DUP6 PUSH3 0x674 JUMP JUMPDEST DUP2 DUP2 SUB PUSH1 0x20 DUP4 ADD MSTORE PUSH3 0x822 DUP2 DUP5 PUSH3 0x747 JUMP JUMPDEST SWAP1 POP SWAP4 SWAP3 POP POP POP JUMP JUMPDEST PUSH1 0x0 PUSH1 0x20 DUP3 ADD SWAP1 POP DUP2 DUP2 SUB PUSH1 0x0 DUP4 ADD MSTORE PUSH3 0x847 DUP2 DUP5 PUSH3 0x685 JUMP JUMPDEST SWAP1 POP SWAP3 SWAP2 POP POP JUMP JUMPDEST PUSH1 0x0 PUSH1 0x60 DUP3 ADD SWAP1 POP PUSH3 0x866 PUSH1 0x0 DUP4 ADD DUP7 PUSH3 0x7C9 JUMP JUMPDEST PUSH3 0x875 PUSH1 0x20 DUP4 ADD DUP6 PUSH3 0x674 JUMP JUMPDEST DUP2 DUP2 SUB PUSH1 0x40 DUP4 ADD MSTORE PUSH3 0x889 DUP2 DUP5 PUSH3 0x747 JUMP JUMPDEST SWAP1 POP SWAP5 SWAP4 POP POP POP POP JUMP JUMPDEST PUSH1 0x0 PUSH3 0x89F PUSH3 0x8B2 JUMP JUMPDEST SWAP1 POP PUSH3 0x8AD DUP3 DUP3 PUSH3 0xA11 JUMP JUMPDEST SWAP2 SWAP1 POP JUMP JUMPDEST PUSH1 0x0 PUSH1 0x40 MLOAD SWAP1 POP SWAP1 JUMP JUMPDEST PUSH1 0x0 PUSH8 0xFFFFFFFFFFFFFFFF DUP3 GT ISZERO PUSH3 0x8DA JUMPI PUSH3 0x8D9 PUSH3 0xA76 JUMP JUMPDEST JUMPDEST PUSH3 0x8E5 DUP3 PUSH3 0xAA5 JUMP JUMPDEST SWAP1 POP PUSH1 0x20 DUP2 ADD SWAP1 POP SWAP2 SWAP1 POP JUMP JUMPDEST PUSH1 0x0 DUP2 SWAP1 POP PUSH1 0x20 DUP3 ADD SWAP1 POP SWAP2 SWAP1 POP JUMP JUMPDEST PUSH1 0x0 DUP2 MLOAD SWAP1 POP SWAP2 SWAP1 POP JUMP JUMPDEST PUSH1 0x0 DUP2 MLOAD SWAP1 POP SWAP2 SWAP1 POP JUMP JUMPDEST PUSH1 0x0 PUSH1 0x20 DUP3 ADD SWAP1 POP SWAP2 SWAP1 POP JUMP JUMPDEST PUSH1 0x0 DUP3 DUP3 MSTORE PUSH1 0x20 DUP3 ADD SWAP1 POP SWAP3 SWAP2 POP POP JUMP JUMPDEST PUSH1 0x0 DUP3 DUP3 MSTORE PUSH1 0x20 DUP3 ADD SWAP1 POP SWAP3 SWAP2 POP POP JUMP JUMPDEST PUSH1 0x0 DUP3 DUP3 MSTORE PUSH1 0x20 DUP3 ADD SWAP1 POP SWAP3 SWAP2 POP POP JUMP JUMPDEST PUSH1 0x0 PUSH3 0x965 DUP3 PUSH3 0x96C JUMP JUMPDEST SWAP1 POP SWAP2 SWAP1 POP JUMP JUMPDEST PUSH1 0x0 PUSH20 0xFFFFFFFFFFFFFFFFFFFFFFFFFFFFFFFFFFFFFFFF DUP3 AND SWAP1 POP SWAP2 SWAP1 POP JUMP JUMPDEST PUSH1 0x0 DUP2 SWAP1 POP SWAP2 SWAP1 POP JUMP JUMPDEST DUP3 DUP2 DUP4 CALLDATACOPY PUSH1 0x0 DUP4 DUP4 ADD MSTORE POP POP POP JUMP JUMPDEST PUSH1 0x0 JUMPDEST DUP4 DUP2 LT ISZERO PUSH3 0x9C5 JUMPI DUP1 DUP3 ADD MLOAD DUP2 DUP5 ADD MSTORE PUSH1 0x20 DUP2 ADD SWAP1 POP PUSH3 0x9A8 JUMP JUMPDEST DUP4 DUP2 GT ISZERO PUSH3 0x9D5 JUMPI PUSH1 0x0 DUP5 DUP5 ADD MSTORE JUMPDEST POP POP POP POP JUMP JUMPDEST PUSH1 0x0 PUSH1 0x2 DUP3 DIV SWAP1 POP PUSH1 0x1 DUP3 AND DUP1 PUSH3 0x9F4 JUMPI PUSH1 0x7F DUP3 AND SWAP2 POP JUMPDEST PUSH1 0x20 DUP3 LT DUP2 EQ ISZERO PUSH3 0xA0B JUMPI PUSH3 0xA0A PUSH3 0xA47 JUMP JUMPDEST JUMPDEST POP SWAP2 SWAP1 POP JUMP JUMPDEST PUSH3 0xA1C DUP3 PUSH3 0xAA5 JUMP JUMPDEST DUP2 ADD DUP2 DUP2 LT PUSH8 0xFFFFFFFFFFFFFFFF DUP3 GT OR ISZERO PUSH3 0xA3E JUMPI PUSH3 0xA3D PUSH3 0xA76 JUMP JUMPDEST JUMPDEST DUP1 PUSH1 0x40 MSTORE POP POP POP JUMP JUMPDEST PUSH32 0x4E487B7100000000000000000000000000000000000000000000000000000000 PUSH1 0x0 MSTORE PUSH1 0x22 PUSH1 0x4 MSTORE PUSH1 0x24 PUSH1 0x0 REVERT JUMPDEST PUSH32 0x4E487B7100000000000000000000000000000000000000000000000000000000 PUSH1 0x0 MSTORE PUSH1 0x41 PUSH1 0x4 MSTORE PUSH1 0x24 PUSH1 0x0 REVERT JUMPDEST PUSH1 0x0 PUSH1 0x1F NOT PUSH1 0x1F DUP4 ADD AND SWAP1 POP SWAP2 SWAP1 POP JUMP JUMPDEST PUSH3 0xAC1 DUP2 PUSH3 0x98C JUMP JUMPDEST DUP2 EQ PUSH3 0xACD JUMPI PUSH1 0x0 DUP1 REVERT JUMPDEST POP JUMP INVALID PUSH1 0x80 PUSH1 0x40 MSTORE CALLVALUE DUP1 ISZERO PUSH3 0x11 JUMPI PUSH1 0x0 DUP1 REVERT JUMPDEST POP PUSH1 0x40 MLOAD PUSH3 0x1449 CODESIZE SUB DUP1 PUSH3 0x1449 DUP4 CODECOPY DUP2 DUP2 ADD PUSH1 0x40 MSTORE DUP2 ADD SWAP1 PUSH3 0x37 SWAP2 SWAP1 PUSH3 0x1F0 JUMP JUMPDEST DUP2 PUSH1 0x0 DUP1 PUSH2 0x100 EXP DUP2 SLOAD DUP2 PUSH20 0xFFFFFFFFFFFFFFFFFFFFFFFFFFFFFFFFFFFFFFFF MUL NOT AND SWAP1 DUP4 PUSH20 0xFFFFFFFFFFFFFFFFFFFFFFFFFFFFFFFFFFFFFFFF AND MUL OR SWAP1 SSTORE POP DUP3 PUSH1 0x2 DUP2 SWAP1 SSTORE POP DUP1 PUSH1 0x1 SWAP1 DUP1 MLOAD SWAP1 PUSH1 0x20 ADD SWAP1 PUSH3 0x96 SWAP3 SWAP2 SWAP1 PUSH3 0xA0 JUMP JUMPDEST POP POP POP POP PUSH3 0x441 JUMP JUMPDEST DUP3 DUP1 SLOAD PUSH3 0xAE SWAP1 PUSH3 0x332 JUMP JUMPDEST SWAP1 PUSH1 0x0 MSTORE PUSH1 0x20 PUSH1 0x0 KECCAK256 SWAP1 PUSH1 0x1F ADD PUSH1 0x20 SWAP1 DIV DUP2 ADD SWAP3 DUP3 PUSH3 0xD2 JUMPI PUSH1 0x0 DUP6 SSTORE PUSH3 0x11E JUMP JUMPDEST DUP3 PUSH1 0x1F LT PUSH3 0xED JUMPI DUP1 MLOAD PUSH1 0xFF NOT AND DUP4 DUP1 ADD OR DUP6 SSTORE PUSH3 0x11E JUMP JUMPDEST DUP3 DUP1 ADD PUSH1 0x1 ADD DUP6 SSTORE DUP3 ISZERO PUSH3 0x11E JUMPI SWAP2 DUP3 ADD JUMPDEST DUP3 DUP2 GT ISZERO PUSH3 0x11D JUMPI DUP3 MLOAD DUP3 SSTORE SWAP2 PUSH1 0x20 ADD SWAP2 SWAP1 PUSH1 0x1 ADD SWAP1 PUSH3 0x100 JUMP JUMPDEST JUMPDEST POP SWAP1 POP PUSH3 0x12D SWAP2 SWAP1 PUSH3 0x131 JUMP JUMPDEST POP SWAP1 JUMP JUMPDEST JUMPDEST DUP1 DUP3 GT ISZERO PUSH3 0x14C JUMPI PUSH1 0x0 DUP2 PUSH1 0x0 SWAP1 SSTORE POP PUSH1 0x1 ADD PUSH3 0x132 JUMP JUMPDEST POP SWAP1 JUMP JUMPDEST PUSH1 0x0 PUSH3 0x167 PUSH3 0x161 DUP5 PUSH3 0x288 JUMP JUMPDEST PUSH3 0x25F JUMP JUMPDEST SWAP1 POP DUP3 DUP2 MSTORE PUSH1 0x20 DUP2 ADD DUP5 DUP5 DUP5 ADD GT ISZERO PUSH3 0x180 JUMPI PUSH1 0x0 DUP1 REVERT JUMPDEST PUSH3 0x18D DUP5 DUP3 DUP6 PUSH3 0x2FC JUMP JUMPDEST POP SWAP4 SWAP3 POP POP POP JUMP JUMPDEST PUSH1 0x0 DUP2 MLOAD SWAP1 POP PUSH3 0x1A6 DUP2 PUSH3 0x40D JUMP JUMPDEST SWAP3 SWAP2 POP POP JUMP JUMPDEST PUSH1 0x0 DUP3 PUSH1 0x1F DUP4 ADD SLT PUSH3 0x1BE JUMPI PUSH1 0x0 DUP1 REVERT JUMPDEST DUP2 MLOAD PUSH3 0x1D0 DUP5 DUP3 PUSH1 0x20 DUP7 ADD PUSH3 0x150 JUMP JUMPDEST SWAP2 POP POP SWAP3 SWAP2 POP POP JUMP JUMPDEST PUSH1 0x0 DUP2 MLOAD SWAP1 POP PUSH3 0x1EA DUP2 PUSH3 0x427 JUMP JUMPDEST SWAP3 SWAP2 POP POP JUMP JUMPDEST PUSH1 0x0 DUP1 PUSH1 0x0 PUSH1 0x60 DUP5 DUP7 SUB SLT ISZERO PUSH3 0x206 JUMPI PUSH1 0x0 DUP1 REVERT JUMPDEST PUSH1 0x0 PUSH3 0x216 DUP7 DUP3 DUP8 ADD PUSH3 0x1D9 JUMP JUMPDEST SWAP4 POP POP PUSH1 0x20 PUSH3 0x229 DUP7 DUP3 DUP8 ADD PUSH3 0x195 JUMP JUMPDEST SWAP3 POP POP PUSH1 0x40 DUP5 ADD MLOAD PUSH8 0xFFFFFFFFFFFFFFFF DUP2 GT ISZERO PUSH3 0x247 JUMPI PUSH1 0x0 DUP1 REVERT JUMPDEST PUSH3 0x255 DUP7 DUP3 DUP8 ADD PUSH3 0x1AC JUMP JUMPDEST SWAP2 POP POP SWAP3 POP SWAP3 POP SWAP3 JUMP JUMPDEST PUSH1 0x0 PUSH3 0x26B PUSH3 0x27E JUMP JUMPDEST SWAP1 POP PUSH3 0x279 DUP3 DUP3 PUSH3 0x368 JUMP JUMPDEST SWAP2 SWAP1 POP JUMP JUMPDEST PUSH1 0x0 PUSH1 0x40 MLOAD SWAP1 POP SWAP1 JUMP JUMPDEST PUSH1 0x0 PUSH8 0xFFFFFFFFFFFFFFFF DUP3 GT ISZERO PUSH3 0x2A6 JUMPI PUSH3 0x2A5 PUSH3 0x3CD JUMP JUMPDEST JUMPDEST PUSH3 0x2B1 DUP3 PUSH3 0x3FC JUMP JUMPDEST SWAP1 POP PUSH1 0x20 DUP2 ADD SWAP1 POP SWAP2 SWAP1 POP JUMP JUMPDEST PUSH1 0x0 PUSH3 0x2CB DUP3 PUSH3 0x2D2 JUMP JUMPDEST SWAP1 POP SWAP2 SWAP1 POP JUMP JUMPDEST PUSH1 0x0 PUSH20 0xFFFFFFFFFFFFFFFFFFFFFFFFFFFFFFFFFFFFFFFF DUP3 AND SWAP1 POP SWAP2 SWAP1 POP JUMP JUMPDEST PUSH1 0x0 DUP2 SWAP1 POP SWAP2 SWAP1 POP JUMP JUMPDEST PUSH1 0x0 JUMPDEST DUP4 DUP2 LT ISZERO PUSH3 0x31C JUMPI DUP1 DUP3 ADD MLOAD DUP2 DUP5 ADD MSTORE PUSH1 0x20 DUP2 ADD SWAP1 POP PUSH3 0x2FF JUMP JUMPDEST DUP4 DUP2 GT ISZERO PUSH3 0x32C JUMPI PUSH1 0x0 DUP5 DUP5 ADD MSTORE JUMPDEST POP POP POP POP JUMP JUMPDEST PUSH1 0x0 PUSH1 0x2 DUP3 DIV SWAP1 POP PUSH1 0x1 DUP3 AND DUP1 PUSH3 0x34B JUMPI PUSH1 0x7F DUP3 AND SWAP2 POP JUMPDEST PUSH1 0x20 DUP3 LT DUP2 EQ ISZERO PUSH3 0x362 JUMPI PUSH3 0x361 PUSH3 0x39E JUMP JUMPDEST JUMPDEST POP SWAP2 SWAP1 POP JUMP JUMPDEST PUSH3 0x373 DUP3 PUSH3 0x3FC JUMP JUMPDEST DUP2 ADD DUP2 DUP2 LT PUSH8 0xFFFFFFFFFFFFFFFF DUP3 GT OR ISZERO PUSH3 0x395 JUMPI PUSH3 0x394 PUSH3 0x3CD JUMP JUMPDEST JUMPDEST DUP1 PUSH1 0x40 MSTORE POP POP POP JUMP JUMPDEST PUSH32 0x4E487B7100000000000000000000000000000000000000000000000000000000 PUSH1 0x0 MSTORE PUSH1 0x22 PUSH1 0x4 MSTORE PUSH1 0x24 PUSH1 0x0 REVERT JUMPDEST PUSH32 0x4E487B7100000000000000000000000000000000000000000000000000000000 PUSH1 0x0 MSTORE PUSH1 0x41 PUSH1 0x4 MSTORE PUSH1 0x24 PUSH1 0x0 REVERT JUMPDEST PUSH1 0x0 PUSH1 0x1F NOT PUSH1 0x1F DUP4 ADD AND SWAP1 POP SWAP2 SWAP1 POP JUMP JUMPDEST PUSH3 0x418 DUP2 PUSH3 0x2BE JUMP JUMPDEST DUP2 EQ PUSH3 0x424 JUMPI PUSH1 0x0 DUP1 REVERT JUMPDEST POP JUMP JUMPDEST PUSH3 0x432 DUP2 PUSH3 0x2F2 JUMP JUMPDEST DUP2 EQ PUSH3 0x43E JUMPI PUSH1 0x0 DUP1 REVERT JUMPDEST POP JUMP JUMPDEST PUSH2 0xFF8 DUP1 PUSH3 0x451 PUSH1 0x0 CODECOPY PUSH1 0x0 RETURN INVALID PUSH1 0x80 PUSH1 0x40 MSTORE PUSH1 0x4 CALLDATASIZE LT PUSH2 0xA7 JUMPI PUSH1 0x0 CALLDATALOAD PUSH1 0xE0 SHR DUP1 PUSH4 0x81D12C58 GT PUSH2 0x64 JUMPI DUP1 PUSH4 0x81D12C58 EQ PUSH2 0x1C3 JUMPI DUP1 PUSH4 0x82FDE093 EQ PUSH2 0x204 JUMPI DUP1 PUSH4 0x8A9CFD55 EQ PUSH2 0x22F JUMPI DUP1 PUSH4 0x937E09B1 EQ PUSH2 0x258 JUMPI DUP1 PUSH4 0xD7BB99BA EQ PUSH2 0x283 JUMPI DUP1 PUSH4 0xD7D1BBDB EQ PUSH2 0x28D JUMPI PUSH2 0xA7 JUMP JUMPDEST DUP1 PUSH4 0x3441006 EQ PUSH2 0xAC JUMPI DUP1 PUSH4 0xA144391 EQ PUSH2 0xD5 JUMPI DUP1 PUSH4 0x32461BD8 EQ PUSH2 0x112 JUMPI DUP1 PUSH4 0x4051DDAC EQ PUSH2 0x13D JUMPI DUP1 PUSH4 0x481C6A75 EQ PUSH2 0x16D JUMPI DUP1 PUSH4 0x5BADBE4C EQ PUSH2 0x198 JUMPI JUMPDEST PUSH1 0x0 DUP1 REVERT JUMPDEST CALLVALUE DUP1 ISZERO PUSH2 0xB8 JUMPI PUSH1 0x0 DUP1 REVERT JUMPDEST POP PUSH2 0xD3 PUSH1 0x4 DUP1 CALLDATASIZE SUB DUP2 ADD SWAP1 PUSH2 0xCE SWAP2 SWAP1 PUSH2 0xB2A JUMP JUMPDEST PUSH2 0x2B6 JUMP JUMPDEST STOP JUMPDEST CALLVALUE DUP1 ISZERO PUSH2 0xE1 JUMPI PUSH1 0x0 DUP1 REVERT JUMPDEST POP PUSH2 0xFC PUSH1 0x4 DUP1 CALLDATASIZE SUB DUP2 ADD SWAP1 PUSH2 0xF7 SWAP2 SWAP1 PUSH2 0xA9A JUMP JUMPDEST PUSH2 0x3EF JUMP JUMPDEST PUSH1 0x40 MLOAD PUSH2 0x109 SWAP2 SWAP1 PUSH2 0xBD4 JUMP JUMPDEST PUSH1 0x40 MLOAD DUP1 SWAP2 SUB SWAP1 RETURN JUMPDEST CALLVALUE DUP1 ISZERO PUSH2 0x11E JUMPI PUSH1 0x0 DUP1 REVERT JUMPDEST POP PUSH2 0x127 PUSH2 0x40F JUMP JUMPDEST PUSH1 0x40 MLOAD PUSH2 0x134 SWAP2 SWAP1 PUSH2 0xBEF JUMP JUMPDEST PUSH1 0x40 MLOAD DUP1 SWAP2 SUB SWAP1 RETURN JUMPDEST CALLVALUE DUP1 ISZERO PUSH2 0x149 JUMPI PUSH1 0x0 DUP1 REVERT JUMPDEST POP PUSH2 0x152 PUSH2 0x49D JUMP JUMPDEST PUSH1 0x40 MLOAD PUSH2 0x164 SWAP7 SWAP6 SWAP5 SWAP4 SWAP3 SWAP2 SWAP1 PUSH2 0xC86 JUMP JUMPDEST PUSH1 0x40 MLOAD DUP1 SWAP2 SUB SWAP1 RETURN JUMPDEST CALLVALUE DUP1 ISZERO PUSH2 0x179 JUMPI PUSH1 0x0 DUP1 REVERT JUMPDEST POP PUSH2 0x182 PUSH2 0x574 JUMP JUMPDEST PUSH1 0x40 MLOAD PUSH2 0x18F SWAP2 SWAP1 PUSH2 0xBB9 JUMP JUMPDEST PUSH1 0x40 MLOAD DUP1 SWAP2 SUB SWAP1 RETURN JUMPDEST CALLVALUE DUP1 ISZERO PUSH2 0x1A4 JUMPI PUSH1 0x0 DUP1 REVERT JUMPDEST POP PUSH2 0x1AD PUSH2 0x598 JUMP JUMPDEST PUSH1 0x40 MLOAD PUSH2 0x1BA SWAP2 SWAP1 PUSH2 0xC6B JUMP JUMPDEST PUSH1 0x40 MLOAD DUP1 SWAP2 SUB SWAP1 RETURN JUMPDEST CALLVALUE DUP1 ISZERO PUSH2 0x1CF JUMPI PUSH1 0x0 DUP1 REVERT JUMPDEST POP PUSH2 0x1EA PUSH1 0x4 DUP1 CALLDATASIZE SUB DUP2 ADD SWAP1 PUSH2 0x1E5 SWAP2 SWAP1 PUSH2 0xB2A JUMP JUMPDEST PUSH2 0x59E JUMP JUMPDEST PUSH1 0x40 MLOAD PUSH2 0x1FB SWAP6 SWAP5 SWAP4 SWAP3 SWAP2 SWAP1 PUSH2 0xC11 JUMP JUMPDEST PUSH1 0x40 MLOAD DUP1 SWAP2 SUB SWAP1 RETURN JUMPDEST CALLVALUE DUP1 ISZERO PUSH2 0x210 JUMPI PUSH1 0x0 DUP1 REVERT JUMPDEST POP PUSH2 0x219 PUSH2 0x689 JUMP JUMPDEST PUSH1 0x40 MLOAD PUSH2 0x226 SWAP2 SWAP1 PUSH2 0xC6B JUMP JUMPDEST PUSH1 0x40 MLOAD DUP1 SWAP2 SUB SWAP1 RETURN JUMPDEST CALLVALUE DUP1 ISZERO PUSH2 0x23B JUMPI PUSH1 0x0 DUP1 REVERT JUMPDEST POP PUSH2 0x256 PUSH1 0x4 DUP1 CALLDATASIZE SUB DUP2 ADD SWAP1 PUSH2 0x251 SWAP2 SWAP1 PUSH2 0xAC3 JUMP JUMPDEST PUSH2 0x68F JUMP JUMPDEST STOP JUMPDEST CALLVALUE DUP1 ISZERO PUSH2 0x264 JUMPI PUSH1 0x0 DUP1 REVERT JUMPDEST POP PUSH2 0x26D PUSH2 0x7A0 JUMP JUMPDEST PUSH1 0x40 MLOAD PUSH2 0x27A SWAP2 SWAP1 PUSH2 0xC6B JUMP JUMPDEST PUSH1 0x40 MLOAD DUP1 SWAP2 SUB SWAP1 RETURN JUMPDEST PUSH2 0x28B PUSH2 0x7A6 JUMP JUMPDEST STOP JUMPDEST CALLVALUE DUP1 ISZERO PUSH2 0x299 JUMPI PUSH1 0x0 DUP1 REVERT JUMPDEST POP PUSH2 0x2B4 PUSH1 0x4 DUP1 CALLDATASIZE SUB DUP2 ADD SWAP1 PUSH2 0x2AF SWAP2 SWAP1 PUSH2 0xB2A JUMP JUMPDEST PUSH2 0x827 JUMP JUMPDEST STOP JUMPDEST PUSH1 0x0 DUP1 SLOAD SWAP1 PUSH2 0x100 EXP SWAP1 DIV PUSH20 0xFFFFFFFFFFFFFFFFFFFFFFFFFFFFFFFFFFFFFFFF AND PUSH20 0xFFFFFFFFFFFFFFFFFFFFFFFFFFFFFFFFFFFFFFFF AND CALLER PUSH20 0xFFFFFFFFFFFFFFFFFFFFFFFFFFFFFFFFFFFFFFFF AND EQ PUSH2 0x30E JUMPI PUSH1 0x0 DUP1 REVERT JUMPDEST PUSH1 0x0 PUSH1 0x4 PUSH1 0x0 DUP4 DUP2 MSTORE PUSH1 0x20 ADD SWAP1 DUP2 MSTORE PUSH1 0x20 ADD PUSH1 0x0 KECCAK256 SWAP1 POP DUP1 PUSH1 0x2 ADD PUSH1 0x14 SWAP1 SLOAD SWAP1 PUSH2 0x100 EXP SWAP1 DIV PUSH1 0xFF AND ISZERO PUSH2 0x341 JUMPI PUSH1 0x0 DUP1 REVERT JUMPDEST PUSH1 0x2 PUSH1 0x6 SLOAD PUSH2 0x350 SWAP2 SWAP1 PUSH2 0xD60 JUMP JUMPDEST DUP2 PUSH1 0x3 ADD SLOAD GT PUSH2 0x35F JUMPI PUSH1 0x0 DUP1 REVERT JUMPDEST DUP1 PUSH1 0x2 ADD PUSH1 0x0 SWAP1 SLOAD SWAP1 PUSH2 0x100 EXP SWAP1 DIV PUSH20 0xFFFFFFFFFFFFFFFFFFFFFFFFFFFFFFFFFFFFFFFF AND PUSH20 0xFFFFFFFFFFFFFFFFFFFFFFFFFFFFFFFFFFFFFFFF AND PUSH2 0x8FC DUP3 PUSH1 0x1 ADD SLOAD SWAP1 DUP2 ISZERO MUL SWAP1 PUSH1 0x40 MLOAD PUSH1 0x0 PUSH1 0x40 MLOAD DUP1 DUP4 SUB DUP2 DUP6 DUP9 DUP9 CALL SWAP4 POP POP POP POP ISZERO DUP1 ISZERO PUSH2 0x3CD JUMPI RETURNDATASIZE PUSH1 0x0 DUP1 RETURNDATACOPY RETURNDATASIZE PUSH1 0x0 REVERT JUMPDEST POP PUSH1 0x1 DUP2 PUSH1 0x2 ADD PUSH1 0x14 PUSH2 0x100 EXP DUP2 SLOAD DUP2 PUSH1 0xFF MUL NOT AND SWAP1 DUP4 ISZERO ISZERO MUL OR SWAP1 SSTORE POP POP POP JUMP JUMPDEST PUSH1 0x3 PUSH1 0x20 MSTORE DUP1 PUSH1 0x0 MSTORE PUSH1 0x40 PUSH1 0x0 KECCAK256 PUSH1 0x0 SWAP2 POP SLOAD SWAP1 PUSH2 0x100 EXP SWAP1 DIV PUSH1 0xFF AND DUP2 JUMP JUMPDEST PUSH1 0x1 DUP1 SLOAD PUSH2 0x41C SWAP1 PUSH2 0xE1B JUMP JUMPDEST DUP1 PUSH1 0x1F ADD PUSH1 0x20 DUP1 SWAP2 DIV MUL PUSH1 0x20 ADD PUSH1 0x40 MLOAD SWAP1 DUP2 ADD PUSH1 0x40 MSTORE DUP1 SWAP3 SWAP2 SWAP1 DUP2 DUP2 MSTORE PUSH1 0x20 ADD DUP3 DUP1 SLOAD PUSH2 0x448 SWAP1 PUSH2 0xE1B JUMP JUMPDEST DUP1 ISZERO PUSH2 0x495 JUMPI DUP1 PUSH1 0x1F LT PUSH2 0x46A JUMPI PUSH2 0x100 DUP1 DUP4 SLOAD DIV MUL DUP4 MSTORE SWAP2 PUSH1 0x20 ADD SWAP2 PUSH2 0x495 JUMP JUMPDEST DUP3 ADD SWAP2 SWAP1 PUSH1 0x0 MSTORE PUSH1 0x20 PUSH1 0x0 KECCAK256 SWAP1 JUMPDEST DUP2 SLOAD DUP2 MSTORE SWAP1 PUSH1 0x1 ADD SWAP1 PUSH1 0x20 ADD DUP1 DUP4 GT PUSH2 0x478 JUMPI DUP3 SWAP1 SUB PUSH1 0x1F AND DUP3 ADD SWAP2 JUMPDEST POP POP POP POP POP DUP2 JUMP JUMPDEST PUSH1 0x0 DUP1 PUSH1 0x0 DUP1 PUSH1 0x0 PUSH1 0x60 PUSH1 0x2 SLOAD SELFBALANCE PUSH1 0x5 SLOAD PUSH1 0x6 SLOAD PUSH1 0x0 DUP1 SLOAD SWAP1 PUSH2 0x100 EXP SWAP1 DIV PUSH20 0xFFFFFFFFFFFFFFFFFFFFFFFFFFFFFFFFFFFFFFFF AND PUSH1 0x1 DUP1 DUP1 SLOAD PUSH2 0x4E0 SWAP1 PUSH2 0xE1B JUMP JUMPDEST DUP1 PUSH1 0x1F ADD PUSH1 0x20 DUP1 SWAP2 DIV MUL PUSH1 0x20 ADD PUSH1 0x40 MLOAD SWAP1 DUP2 ADD PUSH1 0x40 MSTORE DUP1 SWAP3 SWAP2 SWAP1 DUP2 DUP2 MSTORE PUSH1 0x20 ADD DUP3 DUP1 SLOAD PUSH2 0x50C SWAP1 PUSH2 0xE1B JUMP JUMPDEST DUP1 ISZERO PUSH2 0x559 JUMPI DUP1 PUSH1 0x1F LT PUSH2 0x52E JUMPI PUSH2 0x100 DUP1 DUP4 SLOAD DIV MUL DUP4 MSTORE SWAP2 PUSH1 0x20 ADD SWAP2 PUSH2 0x559 JUMP JUMPDEST DUP3 ADD SWAP2 SWAP1 PUSH1 0x0 MSTORE PUSH1 0x20 PUSH1 0x0 KECCAK256 SWAP1 JUMPDEST DUP2 SLOAD DUP2 MSTORE SWAP1 PUSH1 0x1 ADD SWAP1 PUSH1 0x20 ADD DUP1 DUP4 GT PUSH2 0x53C JUMPI DUP3 SWAP1 SUB PUSH1 0x1F AND DUP3 ADD SWAP2 JUMPDEST POP POP POP POP POP SWAP1 POP SWAP6 POP SWAP6 POP SWAP6 POP SWAP6 POP SWAP6 POP SWAP6 POP SWAP1 SWAP2 SWAP3 SWAP4 SWAP5 SWAP6 JUMP JUMPDEST PUSH1 0x0 DUP1 SLOAD SWAP1 PUSH2 0x100 EXP SWAP1 DIV PUSH20 0xFFFFFFFFFFFFFFFFFFFFFFFFFFFFFFFFFFFFFFFF AND DUP2 JUMP JUMPDEST PUSH1 0x5 SLOAD DUP2 JUMP JUMPDEST PUSH1 0x4 PUSH1 0x20 MSTORE DUP1 PUSH1 0x0 MSTORE PUSH1 0x40 PUSH1 0x0 KECCAK256 PUSH1 0x0 SWAP2 POP SWAP1 POP DUP1 PUSH1 0x0 ADD DUP1 SLOAD PUSH2 0x5C1 SWAP1 PUSH2 0xE1B JUMP JUMPDEST DUP1 PUSH1 0x1F ADD PUSH1 0x20 DUP1 SWAP2 DIV MUL PUSH1 0x20 ADD PUSH1 0x40 MLOAD SWAP1 DUP2 ADD PUSH1 0x40 MSTORE DUP1 SWAP3 SWAP2 SWAP1 DUP2 DUP2 MSTORE PUSH1 0x20 ADD DUP3 DUP1 SLOAD PUSH2 0x5ED SWAP1 PUSH2 0xE1B JUMP JUMPDEST DUP1 ISZERO PUSH2 0x63A JUMPI DUP1 PUSH1 0x1F LT PUSH2 0x60F JUMPI PUSH2 0x100 DUP1 DUP4 SLOAD DIV MUL DUP4 MSTORE SWAP2 PUSH1 0x20 ADD SWAP2 PUSH2 0x63A JUMP JUMPDEST DUP3 ADD SWAP2 SWAP1 PUSH1 0x0 MSTORE PUSH1 0x20 PUSH1 0x0 KECCAK256 SWAP1 JUMPDEST DUP2 SLOAD DUP2 MSTORE SWAP1 PUSH1 0x1 ADD SWAP1 PUSH1 0x20 ADD DUP1 DUP4 GT PUSH2 0x61D JUMPI DUP3 SWAP1 SUB PUSH1 0x1F AND DUP3 ADD SWAP2 JUMPDEST POP POP POP POP POP SWAP1 DUP1 PUSH1 0x1 ADD SLOAD SWAP1 DUP1 PUSH1 0x2 ADD PUSH1 0x0 SWAP1 SLOAD SWAP1 PUSH2 0x100 EXP SWAP1 DIV PUSH20 0xFFFFFFFFFFFFFFFFFFFFFFFFFFFFFFFFFFFFFFFF AND SWAP1 DUP1 PUSH1 0x2 ADD PUSH1 0x14 SWAP1 SLOAD SWAP1 PUSH2 0x100 EXP SWAP1 DIV PUSH1 0xFF AND SWAP1 DUP1 PUSH1 0x3 ADD SLOAD SWAP1 POP DUP6 JUMP JUMPDEST PUSH1 0x6 SLOAD DUP2 JUMP JUMPDEST PUSH1 0x0 DUP1 SLOAD SWAP1 PUSH2 0x100 EXP SWAP1 DIV PUSH20 0xFFFFFFFFFFFFFFFFFFFFFFFFFFFFFFFFFFFFFFFF AND PUSH20 0xFFFFFFFFFFFFFFFFFFFFFFFFFFFFFFFFFFFFFFFF AND CALLER PUSH20 0xFFFFFFFFFFFFFFFFFFFFFFFFFFFFFFFFFFFFFFFF AND EQ PUSH2 0x6E7 JUMPI PUSH1 0x0 DUP1 REVERT JUMPDEST PUSH1 0x0 PUSH1 0x4 PUSH1 0x0 PUSH1 0x5 SLOAD DUP2 MSTORE PUSH1 0x20 ADD SWAP1 DUP2 MSTORE PUSH1 0x20 ADD PUSH1 0x0 KECCAK256 SWAP1 POP DUP4 DUP2 PUSH1 0x0 ADD SWAP1 DUP1 MLOAD SWAP1 PUSH1 0x20 ADD SWAP1 PUSH2 0x718 SWAP3 SWAP2 SWAP1 PUSH2 0x965 JUMP JUMPDEST POP DUP3 DUP2 PUSH1 0x1 ADD DUP2 SWAP1 SSTORE POP DUP2 DUP2 PUSH1 0x2 ADD PUSH1 0x0 PUSH2 0x100 EXP DUP2 SLOAD DUP2 PUSH20 0xFFFFFFFFFFFFFFFFFFFFFFFFFFFFFFFFFFFFFFFF MUL NOT AND SWAP1 DUP4 PUSH20 0xFFFFFFFFFFFFFFFFFFFFFFFFFFFFFFFFFFFFFFFF AND MUL OR SWAP1 SSTORE POP PUSH1 0x0 DUP2 PUSH1 0x2 ADD PUSH1 0x14 PUSH2 0x100 EXP DUP2 SLOAD DUP2 PUSH1 0xFF MUL NOT AND SWAP1 DUP4 ISZERO ISZERO MUL OR SWAP1 SSTORE POP PUSH1 0x5 PUSH1 0x0 DUP2 SLOAD DUP1 SWAP3 SWAP2 SWAP1 PUSH2 0x795 SWAP1 PUSH2 0xE7E JUMP JUMPDEST SWAP2 SWAP1 POP SSTORE POP POP POP POP POP JUMP JUMPDEST PUSH1 0x2 SLOAD DUP2 JUMP JUMPDEST PUSH1 0x2 SLOAD CALLVALUE LT ISZERO PUSH2 0x7B5 JUMPI PUSH1 0x0 DUP1 REVERT JUMPDEST PUSH1 0x1 PUSH1 0x3 PUSH1 0x0 CALLER PUSH20 0xFFFFFFFFFFFFFFFFFFFFFFFFFFFFFFFFFFFFFFFF AND PUSH20 0xFFFFFFFFFFFFFFFFFFFFFFFFFFFFFFFFFFFFFFFF AND DUP2 MSTORE PUSH1 0x20 ADD SWAP1 DUP2 MSTORE PUSH1 0x20 ADD PUSH1 0x0 KECCAK256 PUSH1 0x0 PUSH2 0x100 EXP DUP2 SLOAD DUP2 PUSH1 0xFF MUL NOT AND SWAP1 DUP4 ISZERO ISZERO MUL OR SWAP1 SSTORE POP PUSH1 0x6 PUSH1 0x0 DUP2 SLOAD DUP1 SWAP3 SWAP2 SWAP1 PUSH2 0x820 SWAP1 PUSH2 0xE7E JUMP JUMPDEST SWAP2 SWAP1 POP SSTORE POP JUMP JUMPDEST PUSH1 0x0 PUSH1 0x4 PUSH1 0x0 DUP4 DUP2 MSTORE PUSH1 0x20 ADD SWAP1 DUP2 MSTORE PUSH1 0x20 ADD PUSH1 0x0 KECCAK256 SWAP1 POP PUSH1 0x3 PUSH1 0x0 CALLER PUSH20 0xFFFFFFFFFFFFFFFFFFFFFFFFFFFFFFFFFFFFFFFF AND PUSH20 0xFFFFFFFFFFFFFFFFFFFFFFFFFFFFFFFFFFFFFFFF AND DUP2 MSTORE PUSH1 0x20 ADD SWAP1 DUP2 MSTORE PUSH1 0x20 ADD PUSH1 0x0 KECCAK256 PUSH1 0x0 SWAP1 SLOAD SWAP1 PUSH2 0x100 EXP SWAP1 DIV PUSH1 0xFF AND PUSH2 0x894 JUMPI PUSH1 0x0 DUP1 REVERT JUMPDEST DUP1 PUSH1 0x4 ADD PUSH1 0x0 CALLER PUSH20 0xFFFFFFFFFFFFFFFFFFFFFFFFFFFFFFFFFFFFFFFF AND PUSH20 0xFFFFFFFFFFFFFFFFFFFFFFFFFFFFFFFFFFFFFFFF AND DUP2 MSTORE PUSH1 0x20 ADD SWAP1 DUP2 MSTORE PUSH1 0x20 ADD PUSH1 0x0 KECCAK256 PUSH1 0x0 SWAP1 SLOAD SWAP1 PUSH2 0x100 EXP SWAP1 DIV PUSH1 0xFF AND ISZERO PUSH2 0x8ED JUMPI PUSH1 0x0 DUP1 REVERT JUMPDEST PUSH1 0x1 DUP2 PUSH1 0x4 ADD PUSH1 0x0 CALLER PUSH20 0xFFFFFFFFFFFFFFFFFFFFFFFFFFFFFFFFFFFFFFFF AND PUSH20 0xFFFFFFFFFFFFFFFFFFFFFFFFFFFFFFFFFFFFFFFF AND DUP2 MSTORE PUSH1 0x20 ADD SWAP1 DUP2 MSTORE PUSH1 0x20 ADD PUSH1 0x0 KECCAK256 PUSH1 0x0 PUSH2 0x100 EXP DUP2 SLOAD DUP2 PUSH1 0xFF MUL NOT AND SWAP1 DUP4 ISZERO ISZERO MUL OR SWAP1 SSTORE POP DUP1 PUSH1 0x3 ADD PUSH1 0x0 DUP2 SLOAD DUP1 SWAP3 SWAP2 SWAP1 PUSH2 0x95C SWAP1 PUSH2 0xE7E JUMP JUMPDEST SWAP2 SWAP1 POP SSTORE POP POP POP JUMP JUMPDEST DUP3 DUP1 SLOAD PUSH2 0x971 SWAP1 PUSH2 0xE1B JUMP JUMPDEST SWAP1 PUSH1 0x0 MSTORE PUSH1 0x20 PUSH1 0x0 KECCAK256 SWAP1 PUSH1 0x1F ADD PUSH1 0x20 SWAP1 DIV DUP2 ADD SWAP3 DUP3 PUSH2 0x993 JUMPI PUSH1 0x0 DUP6 SSTORE PUSH2 0x9DA JUMP JUMPDEST DUP3 PUSH1 0x1F LT PUSH2 0x9AC JUMPI DUP1 MLOAD PUSH1 0xFF NOT AND DUP4 DUP1 ADD OR DUP6 SSTORE PUSH2 0x9DA JUMP JUMPDEST DUP3 DUP1 ADD PUSH1 0x1 ADD DUP6 SSTORE DUP3 ISZERO PUSH2 0x9DA JUMPI SWAP2 DUP3 ADD JUMPDEST DUP3 DUP2 GT ISZERO PUSH2 0x9D9 JUMPI DUP3 MLOAD DUP3 SSTORE SWAP2 PUSH1 0x20 ADD SWAP2 SWAP1 PUSH1 0x1 ADD SWAP1 PUSH2 0x9BE JUMP JUMPDEST JUMPDEST POP SWAP1 POP PUSH2 0x9E7 SWAP2 SWAP1 PUSH2 0x9EB JUMP JUMPDEST POP SWAP1 JUMP JUMPDEST JUMPDEST DUP1 DUP3 GT ISZERO PUSH2 0xA04 JUMPI PUSH1 0x0 DUP2 PUSH1 0x0 SWAP1 SSTORE POP PUSH1 0x1 ADD PUSH2 0x9EC JUMP JUMPDEST POP SWAP1 JUMP JUMPDEST PUSH1 0x0 PUSH2 0xA1B PUSH2 0xA16 DUP5 PUSH2 0xD13 JUMP JUMPDEST PUSH2 0xCEE JUMP JUMPDEST SWAP1 POP DUP3 DUP2 MSTORE PUSH1 0x20 DUP2 ADD DUP5 DUP5 DUP5 ADD GT ISZERO PUSH2 0xA33 JUMPI PUSH1 0x0 DUP1 REVERT JUMPDEST PUSH2 0xA3E DUP5 DUP3 DUP6 PUSH2 0xDD9 JUMP JUMPDEST POP SWAP4 SWAP3 POP POP POP JUMP JUMPDEST PUSH1 0x0 DUP2 CALLDATALOAD SWAP1 POP PUSH2 0xA55 DUP2 PUSH2 0xF94 JUMP JUMPDEST SWAP3 SWAP2 POP POP JUMP JUMPDEST PUSH1 0x0 DUP3 PUSH1 0x1F DUP4 ADD SLT PUSH2 0xA6C JUMPI PUSH1 0x0 DUP1 REVERT JUMPDEST DUP2 CALLDATALOAD PUSH2 0xA7C DUP5 DUP3 PUSH1 0x20 DUP7 ADD PUSH2 0xA08 JUMP JUMPDEST SWAP2 POP POP SWAP3 SWAP2 POP POP JUMP JUMPDEST PUSH1 0x0 DUP2 CALLDATALOAD SWAP1 POP PUSH2 0xA94 DUP2 PUSH2 0xFAB JUMP JUMPDEST SWAP3 SWAP2 POP POP JUMP JUMPDEST PUSH1 0x0 PUSH1 0x20 DUP3 DUP5 SUB SLT ISZERO PUSH2 0xAAC JUMPI PUSH1 0x0 DUP1 REVERT JUMPDEST PUSH1 0x0 PUSH2 0xABA DUP5 DUP3 DUP6 ADD PUSH2 0xA46 JUMP JUMPDEST SWAP2 POP POP SWAP3 SWAP2 POP POP JUMP JUMPDEST PUSH1 0x0 DUP1 PUSH1 0x0 PUSH1 0x60 DUP5 DUP7 SUB SLT ISZERO PUSH2 0xAD8 JUMPI PUSH1 0x0 DUP1 REVERT JUMPDEST PUSH1 0x0 DUP5 ADD CALLDATALOAD PUSH8 0xFFFFFFFFFFFFFFFF DUP2 GT ISZERO PUSH2 0xAF2 JUMPI PUSH1 0x0 DUP1 REVERT JUMPDEST PUSH2 0xAFE DUP7 DUP3 DUP8 ADD PUSH2 0xA5B JUMP JUMPDEST SWAP4 POP POP PUSH1 0x20 PUSH2 0xB0F DUP7 DUP3 DUP8 ADD PUSH2 0xA85 JUMP JUMPDEST SWAP3 POP POP PUSH1 0x40 PUSH2 0xB20 DUP7 DUP3 DUP8 ADD PUSH2 0xA46 JUMP JUMPDEST SWAP2 POP POP SWAP3 POP SWAP3 POP SWAP3 JUMP JUMPDEST PUSH1 0x0 PUSH1 0x20 DUP3 DUP5 SUB SLT ISZERO PUSH2 0xB3C JUMPI PUSH1 0x0 DUP1 REVERT JUMPDEST PUSH1 0x0 PUSH2 0xB4A DUP5 DUP3 DUP6 ADD PUSH2 0xA85 JUMP JUMPDEST SWAP2 POP POP SWAP3 SWAP2 POP POP JUMP JUMPDEST PUSH2 0xB5C DUP2 PUSH2 0xD91 JUMP JUMPDEST DUP3 MSTORE POP POP JUMP JUMPDEST PUSH2 0xB6B DUP2 PUSH2 0xDA3 JUMP JUMPDEST DUP3 MSTORE POP POP JUMP JUMPDEST PUSH1 0x0 PUSH2 0xB7C DUP3 PUSH2 0xD44 JUMP JUMPDEST PUSH2 0xB86 DUP2 DUP6 PUSH2 0xD4F JUMP JUMPDEST SWAP4 POP PUSH2 0xB96 DUP2 DUP6 PUSH1 0x20 DUP7 ADD PUSH2 0xDE8 JUMP JUMPDEST PUSH2 0xB9F DUP2 PUSH2 0xF83 JUMP JUMPDEST DUP5 ADD SWAP2 POP POP SWAP3 SWAP2 POP POP JUMP JUMPDEST PUSH2 0xBB3 DUP2 PUSH2 0xDCF JUMP JUMPDEST DUP3 MSTORE POP POP JUMP JUMPDEST PUSH1 0x0 PUSH1 0x20 DUP3 ADD SWAP1 POP PUSH2 0xBCE PUSH1 0x0 DUP4 ADD DUP5 PUSH2 0xB53 JUMP JUMPDEST SWAP3 SWAP2 POP POP JUMP JUMPDEST PUSH1 0x0 PUSH1 0x20 DUP3 ADD SWAP1 POP PUSH2 0xBE9 PUSH1 0x0 DUP4 ADD DUP5 PUSH2 0xB62 JUMP JUMPDEST SWAP3 SWAP2 POP POP JUMP JUMPDEST PUSH1 0x0 PUSH1 0x20 DUP3 ADD SWAP1 POP DUP2 DUP2 SUB PUSH1 0x0 DUP4 ADD MSTORE PUSH2 0xC09 DUP2 DUP5 PUSH2 0xB71 JUMP JUMPDEST SWAP1 POP SWAP3 SWAP2 POP POP JUMP JUMPDEST PUSH1 0x0 PUSH1 0xA0 DUP3 ADD SWAP1 POP DUP2 DUP2 SUB PUSH1 0x0 DUP4 ADD MSTORE PUSH2 0xC2B DUP2 DUP9 PUSH2 0xB71 JUMP JUMPDEST SWAP1 POP PUSH2 0xC3A PUSH1 0x20 DUP4 ADD DUP8 PUSH2 0xBAA JUMP JUMPDEST PUSH2 0xC47 PUSH1 0x40 DUP4 ADD DUP7 PUSH2 0xB53 JUMP JUMPDEST PUSH2 0xC54 PUSH1 0x60 DUP4 ADD DUP6 PUSH2 0xB62 JUMP JUMPDEST PUSH2 0xC61 PUSH1 0x80 DUP4 ADD DUP5 PUSH2 0xBAA JUMP JUMPDEST SWAP7 SWAP6 POP POP POP POP POP POP JUMP JUMPDEST PUSH1 0x0 PUSH1 0x20 DUP3 ADD SWAP1 POP PUSH2 0xC80 PUSH1 0x0 DUP4 ADD DUP5 PUSH2 0xBAA JUMP JUMPDEST SWAP3 SWAP2 POP POP JUMP JUMPDEST PUSH1 0x0 PUSH1 0xC0 DUP3 ADD SWAP1 POP PUSH2 0xC9B PUSH1 0x0 DUP4 ADD DUP10 PUSH2 0xBAA JUMP JUMPDEST PUSH2 0xCA8 PUSH1 0x20 DUP4 ADD DUP9 PUSH2 0xBAA JUMP JUMPDEST PUSH2 0xCB5 PUSH1 0x40 DUP4 ADD DUP8 PUSH2 0xBAA JUMP JUMPDEST PUSH2 0xCC2 PUSH1 0x60 DUP4 ADD DUP7 PUSH2 0xBAA JUMP JUMPDEST PUSH2 0xCCF PUSH1 0x80 DUP4 ADD DUP6 PUSH2 0xB53 JUMP JUMPDEST DUP2 DUP2 SUB PUSH1 0xA0 DUP4 ADD MSTORE PUSH2 0xCE1 DUP2 DUP5 PUSH2 0xB71 JUMP JUMPDEST SWAP1 POP SWAP8 SWAP7 POP POP POP POP POP POP POP JUMP JUMPDEST PUSH1 0x0 PUSH2 0xCF8 PUSH2 0xD09 JUMP JUMPDEST SWAP1 POP PUSH2 0xD04 DUP3 DUP3 PUSH2 0xE4D JUMP JUMPDEST SWAP2 SWAP1 POP JUMP JUMPDEST PUSH1 0x0 PUSH1 0x40 MLOAD SWAP1 POP SWAP1 JUMP JUMPDEST PUSH1 0x0 PUSH8 0xFFFFFFFFFFFFFFFF DUP3 GT ISZERO PUSH2 0xD2E JUMPI PUSH2 0xD2D PUSH2 0xF54 JUMP JUMPDEST JUMPDEST PUSH2 0xD37 DUP3 PUSH2 0xF83 JUMP JUMPDEST SWAP1 POP PUSH1 0x20 DUP2 ADD SWAP1 POP SWAP2 SWAP1 POP JUMP JUMPDEST PUSH1 0x0 DUP2 MLOAD SWAP1 POP SWAP2 SWAP1 POP JUMP JUMPDEST PUSH1 0x0 DUP3 DUP3 MSTORE PUSH1 0x20 DUP3 ADD SWAP1 POP SWAP3 SWAP2 POP POP JUMP JUMPDEST PUSH1 0x0 PUSH2 0xD6B DUP3 PUSH2 0xDCF JUMP JUMPDEST SWAP2 POP PUSH2 0xD76 DUP4 PUSH2 0xDCF JUMP JUMPDEST SWAP3 POP DUP3 PUSH2 0xD86 JUMPI PUSH2 0xD85 PUSH2 0xEF6 JUMP JUMPDEST JUMPDEST DUP3 DUP3 DIV SWAP1 POP SWAP3 SWAP2 POP POP JUMP JUMPDEST PUSH1 0x0 PUSH2 0xD9C DUP3 PUSH2 0xDAF JUMP JUMPDEST SWAP1 POP SWAP2 SWAP1 POP JUMP JUMPDEST PUSH1 0x0 DUP2 ISZERO ISZERO SWAP1 POP SWAP2 SWAP1 POP JUMP JUMPDEST PUSH1 0x0 PUSH20 0xFFFFFFFFFFFFFFFFFFFFFFFFFFFFFFFFFFFFFFFF DUP3 AND SWAP1 POP SWAP2 SWAP1 POP JUMP JUMPDEST PUSH1 0x0 DUP2 SWAP1 POP SWAP2 SWAP1 POP JUMP JUMPDEST DUP3 DUP2 DUP4 CALLDATACOPY PUSH1 0x0 DUP4 DUP4 ADD MSTORE POP POP POP JUMP JUMPDEST PUSH1 0x0 JUMPDEST DUP4 DUP2 LT ISZERO PUSH2 0xE06 JUMPI DUP1 DUP3 ADD MLOAD DUP2 DUP5 ADD MSTORE PUSH1 0x20 DUP2 ADD SWAP1 POP PUSH2 0xDEB JUMP JUMPDEST DUP4 DUP2 GT ISZERO PUSH2 0xE15 JUMPI PUSH1 0x0 DUP5 DUP5 ADD MSTORE JUMPDEST POP POP POP POP JUMP JUMPDEST PUSH1 0x0 PUSH1 0x2 DUP3 DIV SWAP1 POP PUSH1 0x1 DUP3 AND DUP1 PUSH2 0xE33 JUMPI PUSH1 0x7F DUP3 AND SWAP2 POP JUMPDEST PUSH1 0x20 DUP3 LT DUP2 EQ ISZERO PUSH2 0xE47 JUMPI PUSH2 0xE46 PUSH2 0xF25 JUMP JUMPDEST JUMPDEST POP SWAP2 SWAP1 POP JUMP JUMPDEST PUSH2 0xE56 DUP3 PUSH2 0xF83 JUMP JUMPDEST DUP2 ADD DUP2 DUP2 LT PUSH8 0xFFFFFFFFFFFFFFFF DUP3 GT OR ISZERO PUSH2 0xE75 JUMPI PUSH2 0xE74 PUSH2 0xF54 JUMP JUMPDEST JUMPDEST DUP1 PUSH1 0x40 MSTORE POP POP POP JUMP JUMPDEST PUSH1 0x0 PUSH2 0xE89 DUP3 PUSH2 0xDCF JUMP JUMPDEST SWAP2 POP PUSH32 0xFFFFFFFFFFFFFFFFFFFFFFFFFFFFFFFFFFFFFFFFFFFFFFFFFFFFFFFFFFFFFFFF DUP3 EQ ISZERO PUSH2 0xEBC JUMPI PUSH2 0xEBB PUSH2 0xEC7 JUMP JUMPDEST JUMPDEST PUSH1 0x1 DUP3 ADD SWAP1 POP SWAP2 SWAP1 POP JUMP JUMPDEST PUSH32 0x4E487B7100000000000000000000000000000000000000000000000000000000 PUSH1 0x0 MSTORE PUSH1 0x11 PUSH1 0x4 MSTORE PUSH1 0x24 PUSH1 0x0 REVERT JUMPDEST PUSH32 0x4E487B7100000000000000000000000000000000000000000000000000000000 PUSH1 0x0 MSTORE PUSH1 0x12 PUSH1 0x4 MSTORE PUSH1 0x24 PUSH1 0x0 REVERT JUMPDEST PUSH32 0x4E487B7100000000000000000000000000000000000000000000000000000000 PUSH1 0x0 MSTORE PUSH1 0x22 PUSH1 0x4 MSTORE PUSH1 0x24 PUSH1 0x0 REVERT JUMPDEST PUSH32 0x4E487B7100000000000000000000000000000000000000000000000000000000 PUSH1 0x0 MSTORE PUSH1 0x41 PUSH1 0x4 MSTORE PUSH1 0x24 PUSH1 0x0 REVERT JUMPDEST PUSH1 0x0 PUSH1 0x1F NOT PUSH1 0x1F DUP4 ADD AND SWAP1 POP SWAP2 SWAP1 POP JUMP JUMPDEST PUSH2 0xF9D DUP2 PUSH2 0xD91 JUMP JUMPDEST DUP2 EQ PUSH2 0xFA8 JUMPI PUSH1 0x0 DUP1 REVERT JUMPDEST POP JUMP JUMPDEST PUSH2 0xFB4 DUP2 PUSH2 0xDCF JUMP JUMPDEST DUP2 EQ PUSH2 0xFBF JUMPI PUSH1 0x0 DUP1 REVERT JUMPDEST POP JUMP INVALID LOG2 PUSH5 0x6970667358 0x22 SLT KECCAK256 0xCD MLOAD DUP16 EXTCODECOPY CALL 0xBA 0x2E INVALID CREATE2 DELEGATECALL 0xE2 0xD4 0x4E SHL PUSH9 0x610B2F42AE5282FC82 0xE9 0x48 0xDA 0xDA PUSH31 0xEA4C3564736F6C63430008040033A264697066735822122045BDFEF19126CC SAR 0xE9 0xD4 0xCD 0x22 0xD0 0x21 SWAP8 CREATE RETURNDATACOPY PUSH7 0x465EF10654878D CALL JUMPDEST 0xE4 AND SWAP14 0xB2 CALLVALUE PUSH5 0x736F6C6343 STOP ADDMOD DIV STOP CALLER "},"gasEstimates":{"creation":{"codeDepositCost":"1603000","executionCost":"1680","totalCost":"1604680"},"external":{"campaigns(uint256)":"infinite","createCampaign(uint256,string)":"infinite","deployedCampaigns(uint256)":"2356","getDeployedContracts()":"infinite"}},"methodIdentifiers":{"campaigns(uint256)":"141961bc","createCampaign(uint256,string)":"4220d656","deployedCampaigns(uint256)":"339d50a5","getDeployedContracts()":"aa9a068f"}},"storageLayout":{"storage":[{"astId":4,"contract":"campaign.sol:CampaignFactory","label":"deployedCampaigns","offset":0,"slot":"0","type":"t_array(t_address)dyn_storage"},{"astId":13,"contract":"campaign.sol:CampaignFactory","label":"campaigns","offset":0,"slot":"1","type":"t_array(t_struct(campaignDeploy)9_storage)dyn_storage"}],"types":{"t_address":{"encoding":"inplace","label":"address","numberOfBytes":"20"},"t_array(t_address)dyn_storage":{"base":"t_address","encoding":"dynamic_array","label":"address[]","numberOfBytes":"32"},"t_array(t_struct(campaignDeploy)9_storage)dyn_storage":{"base":"t_struct(campaignDeploy)9_storage","encoding":"dynamic_array","label":"struct CampaignFactory.campaignDeploy[]","numberOfBytes":"32"},"t_string_storage":{"encoding":"bytes","label":"string","numberOfBytes":"32"},"t_struct(campaignDeploy)9_storage":{"encoding":"inplace","label":"struct CampaignFactory.campaignDeploy","members":[{"astId":6,"contract":"campaign.sol:CampaignFactory","label":"campaign","offset":0,"slot":"0","type":"t_address"},{"astId":8,"contract":"campaign.sol:CampaignFactory","label":"title","offset":0,"slot":"1","type":"t_string_storage"}],"numberOfBytes":"64"}}},"userdoc":{"kind":"user","methods":{},"version":1}}