{"abi":[{"inputs":[{"internalType":"uint256","name":"minimum","type":"uint256"},{"internalType":"address","name":"creator","type":"address"},{"internalType":"string","name":"title","type":"string"},{"internalType":"uint256","name":"goal","type":"uint256"},{"internalType":"string","name":"description","type":"string"},{"internalType":"uint256","name":"deadline","type":"uint256"}],"stateMutability":"nonpayable","type":"constructor"},{"inputs":[],"name":"CampaignDescription","outputs":[{"internalType":"string","name":"","type":"string"}],"stateMutability":"view","type":"function"},{"inputs":[],"name":"amountGoal","outputs":[{"internalType":"uint256","name":"","type":"uint256"}],"stateMutability":"view","type":"function"},{"inputs":[{"internalType":"uint256","name":"index","type":"uint256"}],"name":"approveRequest","outputs":[],"stateMutability":"nonpayable","type":"function"},{"inputs":[{"internalType":"address","name":"","type":"address"}],"name":"approvers","outputs":[{"internalType":"bool","name":"","type":"bool"}],"stateMutability":"view","type":"function"},{"inputs":[],"name":"approversCount","outputs":[{"internalType":"uint256","name":"","type":"uint256"}],"stateMutability":"view","type":"function"},{"inputs":[],"name":"checkIfFundingExpired","outputs":[],"stateMutability":"nonpayable","type":"function"},{"inputs":[],"name":"contribute","outputs":[],"stateMutability":"payable","type":"function"},{"inputs":[{"internalType":"address","name":"","type":"address"}],"name":"contributions","outputs":[{"internalType":"uint256","name":"","type":"uint256"}],"stateMutability":"view","type":"function"},{"inputs":[{"internalType":"string","name":"description","type":"string"},{"internalType":"uint256","name":"value","type":"uint256"},{"internalType":"address","name":"recipient","type":"address"}],"name":"createRequest","outputs":[],"stateMutability":"nonpayable","type":"function"},{"inputs":[],"name":"currentBalance","outputs":[{"internalType":"uint256","name":"","type":"uint256"}],"stateMutability":"view","type":"function"},{"inputs":[{"internalType":"uint256","name":"index","type":"uint256"}],"name":"finalizeRequest","outputs":[],"stateMutability":"nonpayable","type":"function"},{"inputs":[],"name":"getRefund","outputs":[{"internalType":"bool","name":"","type":"bool"}],"stateMutability":"nonpayable","type":"function"},{"inputs":[],"name":"getSummary","outputs":[{"internalType":"uint256","name":"","type":"uint256"},{"internalType":"uint256","name":"","type":"uint256"},{"internalType":"uint256","name":"","type":"uint256"},{"internalType":"uint256","name":"","type":"uint256"},{"internalType":"address","name":"","type":"address"},{"internalType":"string","name":"","type":"string"},{"internalType":"uint256","name":"","type":"uint256"},{"internalType":"string","name":"","type":"string"},{"internalType":"uint256","name":"","type":"uint256"},{"internalType":"uint256","name":"","type":"uint256"}],"stateMutability":"view","type":"function"},{"inputs":[],"name":"getTotalContribution","outputs":[{"internalType":"uint256","name":"","type":"uint256"}],"stateMutability":"view","type":"function"},{"inputs":[],"name":"manager","outputs":[{"internalType":"address","name":"","type":"address"}],"stateMutability":"view","type":"function"},{"inputs":[],"name":"minimumContribution","outputs":[{"internalType":"uint256","name":"","type":"uint256"}],"stateMutability":"view","type":"function"},{"inputs":[],"name":"raiseBy","outputs":[{"internalType":"uint256","name":"","type":"uint256"}],"stateMutability":"view","type":"function"},{"inputs":[],"name":"requestCount","outputs":[{"internalType":"uint256","name":"","type":"uint256"}],"stateMutability":"view","type":"function"},{"inputs":[{"internalType":"uint256","name":"","type":"uint256"}],"name":"requests","outputs":[{"internalType":"string","name":"description","type":"string"},{"internalType":"uint256","name":"value","type":"uint256"},{"internalType":"address","name":"recipient","type":"address"},{"internalType":"bool","name":"complete","type":"bool"},{"internalType":"uint256","name":"approvalCount","type":"uint256"}],"stateMutability":"view","type":"function"},{"inputs":[],"name":"state","outputs":[{"internalType":"enum Campaign.State","name":"","type":"uint8"}],"stateMutability":"view","type":"function"},{"inputs":[],"name":"titleCompaign","outputs":[{"internalType":"string","name":"","type":"string"}],"stateMutability":"view","type":"function"},{"inputs":[],"name":"totalContribution","outputs":[{"internalType":"uint256","name":"","type":"uint256"}],"stateMutability":"view","type":"function"}],"devdoc":{"kind":"dev","methods":{},"version":1},"evm":{"assembly":"    /* \"campaign.sol\":1144:5761  contract Campaign {\r... */\n  mstore(0x40, 0x80)\n    /* \"campaign.sol\":1849:1866  State.Fundraising */\n  0x00\n    /* \"campaign.sol\":1828:1866  State public state = State.Fundraising */\n  0x06\n  exp(0x0100, 0x00)\n  dup2\n  sload\n  dup2\n  0xff\n  mul\n  not\n  and\n  swap1\n  dup4\n  0x01\n  dup2\n  gt\n  iszero\n  tag_1\n  jumpi\n  mstore(0x00, 0x4e487b7100000000000000000000000000000000000000000000000000000000)\n  mstore(0x04, 0x21)\n  revert(0x00, 0x24)\ntag_1:\n  mul\n  or\n  swap1\n  sstore\n  pop\n    /* \"campaign.sol\":2441:2828  constructor(uint minimum, address creator, string memory title, uint goal, string memory description, uint deadline) {\r... */\n  callvalue\n  dup1\n  iszero\n  tag_2\n  jumpi\n  0x00\n  dup1\n  revert\ntag_2:\n  pop\n  mload(0x40)\n  sub(codesize, bytecodeSize)\n  dup1\n  bytecodeSize\n  dup4\n  codecopy\n  dup2\n  dup2\n  add\n  0x40\n  mstore\n  dup2\n  add\n  swap1\n  tag_3\n  swap2\n  swap1\n  tag_4\n  jump\t// in\ntag_3:\n    /* \"campaign.sol\":2579:2586  creator */\n  dup5\n    /* \"campaign.sol\":2569:2576  manager */\n  0x00\n  dup1\n    /* \"campaign.sol\":2569:2586  manager = creator */\n  0x0100\n  exp\n  dup2\n  sload\n  dup2\n  0xffffffffffffffffffffffffffffffffffffffff\n  mul\n  not\n  and\n  swap1\n  dup4\n  0xffffffffffffffffffffffffffffffffffffffff\n  and\n  mul\n  or\n  swap1\n  sstore\n  pop\n    /* \"campaign.sol\":2619:2626  minimum */\n  dup6\n    /* \"campaign.sol\":2597:2616  minimumContribution */\n  0x09\n    /* \"campaign.sol\":2597:2626  minimumContribution = minimum */\n  dup2\n  swap1\n  sstore\n  pop\n    /* \"campaign.sol\":2653:2658  title */\n  dup4\n    /* \"campaign.sol\":2637:2650  titleCompaign */\n  0x01\n    /* \"campaign.sol\":2637:2658  titleCompaign = title */\n  swap1\n  dup1\n  mload\n  swap1\n  0x20\n  add\n  swap1\n  tag_7\n  swap3\n  swap2\n  swap1\n  tag_8\n  jump\t// in\ntag_7:\n  pop\n    /* \"campaign.sol\":2682:2686  goal */\n  dup3\n    /* \"campaign.sol\":2669:2679  amountGoal */\n  0x02\n    /* \"campaign.sol\":2669:2686  amountGoal = goal */\n  dup2\n  swap1\n  sstore\n  pop\n    /* \"campaign.sol\":2719:2730  description */\n  dup2\n    /* \"campaign.sol\":2697:2716  CampaignDescription */\n  0x03\n    /* \"campaign.sol\":2697:2730  CampaignDescription = description */\n  swap1\n  dup1\n  mload\n  swap1\n  0x20\n  add\n  swap1\n  tag_9\n  swap3\n  swap2\n  swap1\n  tag_8\n  jump\t// in\ntag_9:\n  pop\n    /* \"campaign.sol\":2761:2762  0 */\n  0x00\n    /* \"campaign.sol\":2741:2758  totalContribution */\n  0x04\n    /* \"campaign.sol\":2741:2762  totalContribution = 0 */\n  dup2\n  swap1\n  sstore\n  pop\n    /* \"campaign.sol\":2783:2791  deadline */\n  dup1\n    /* \"campaign.sol\":2773:2780  raiseBy */\n  0x07\n    /* \"campaign.sol\":2773:2791  raiseBy = deadline */\n  dup2\n  swap1\n  sstore\n  pop\n    /* \"campaign.sol\":2819:2820  0 */\n  0x00\n    /* \"campaign.sol\":2802:2816  currentBalance */\n  0x08\n    /* \"campaign.sol\":2802:2820  currentBalance = 0 */\n  dup2\n  swap1\n  sstore\n  pop\n    /* \"campaign.sol\":2441:2828  constructor(uint minimum, address creator, string memory title, uint goal, string memory description, uint deadline) {\r... */\n  pop\n  pop\n  pop\n  pop\n  pop\n  pop\n    /* \"campaign.sol\":1144:5761  contract Campaign {\r... */\n  jump(tag_10)\ntag_8:\n  dup3\n  dup1\n  sload\n  tag_11\n  swap1\n  tag_12\n  jump\t// in\ntag_11:\n  swap1\n  0x00\n  mstore\n  keccak256(0x00, 0x20)\n  swap1\n  0x1f\n  add\n  0x20\n  swap1\n  div\n  dup2\n  add\n  swap3\n  dup3\n  tag_14\n  jumpi\n  0x00\n  dup6\n  sstore\n  jump(tag_13)\ntag_14:\n  dup3\n  0x1f\n  lt\n  tag_15\n  jumpi\n  dup1\n  mload\n  not(0xff)\n  and\n  dup4\n  dup1\n  add\n  or\n  dup6\n  sstore\n  jump(tag_13)\ntag_15:\n  dup3\n  dup1\n  add\n  0x01\n  add\n  dup6\n  sstore\n  dup3\n  iszero\n  tag_13\n  jumpi\n  swap2\n  dup3\n  add\ntag_16:\n  dup3\n  dup2\n  gt\n  iszero\n  tag_17\n  jumpi\n  dup3\n  mload\n  dup3\n  sstore\n  swap2\n  0x20\n  add\n  swap2\n  swap1\n  0x01\n  add\n  swap1\n  jump(tag_16)\ntag_17:\ntag_13:\n  pop\n  swap1\n  pop\n  tag_18\n  swap2\n  swap1\n  tag_19\n  jump\t// in\ntag_18:\n  pop\n  swap1\n  jump\t// out\ntag_19:\ntag_20:\n  dup1\n  dup3\n  gt\n  iszero\n  tag_21\n  jumpi\n  0x00\n  dup2\n  0x00\n  swap1\n  sstore\n  pop\n  0x01\n  add\n  jump(tag_20)\ntag_21:\n  pop\n  swap1\n  jump\t// out\n    /* \"#utility.yul\":7:361   */\ntag_23:\n    /* \"#utility.yul\":96:101   */\n  0x00\n    /* \"#utility.yul\":121:187   */\n  tag_25\n    /* \"#utility.yul\":137:186   */\n  tag_26\n    /* \"#utility.yul\":179:185   */\n  dup5\n    /* \"#utility.yul\":137:186   */\n  tag_27\n  jump\t// in\ntag_26:\n    /* \"#utility.yul\":121:187   */\n  tag_28\n  jump\t// in\ntag_25:\n    /* \"#utility.yul\":112:187   */\n  swap1\n  pop\n    /* \"#utility.yul\":210:216   */\n  dup3\n    /* \"#utility.yul\":203:208   */\n  dup2\n    /* \"#utility.yul\":196:217   */\n  mstore\n    /* \"#utility.yul\":248:252   */\n  0x20\n    /* \"#utility.yul\":241:246   */\n  dup2\n    /* \"#utility.yul\":237:253   */\n  add\n    /* \"#utility.yul\":286:289   */\n  dup5\n    /* \"#utility.yul\":277:283   */\n  dup5\n    /* \"#utility.yul\":272:275   */\n  dup5\n    /* \"#utility.yul\":268:284   */\n  add\n    /* \"#utility.yul\":265:290   */\n  gt\n    /* \"#utility.yul\":262:264   */\n  iszero\n  tag_29\n  jumpi\n    /* \"#utility.yul\":303:304   */\n  0x00\n    /* \"#utility.yul\":300:301   */\n  dup1\n    /* \"#utility.yul\":293:305   */\n  revert\n    /* \"#utility.yul\":262:264   */\ntag_29:\n    /* \"#utility.yul\":316:355   */\n  tag_30\n    /* \"#utility.yul\":348:354   */\n  dup5\n    /* \"#utility.yul\":343:346   */\n  dup3\n    /* \"#utility.yul\":338:341   */\n  dup6\n    /* \"#utility.yul\":316:355   */\n  tag_31\n  jump\t// in\ntag_30:\n    /* \"#utility.yul\":102:361   */\n  pop\n  swap4\n  swap3\n  pop\n  pop\n  pop\n  jump\t// out\n    /* \"#utility.yul\":367:510   */\ntag_32:\n    /* \"#utility.yul\":424:429   */\n  0x00\n    /* \"#utility.yul\":455:461   */\n  dup2\n    /* \"#utility.yul\":449:462   */\n  mload\n    /* \"#utility.yul\":440:462   */\n  swap1\n  pop\n    /* \"#utility.yul\":471:504   */\n  tag_34\n    /* \"#utility.yul\":498:503   */\n  dup2\n    /* \"#utility.yul\":471:504   */\n  tag_35\n  jump\t// in\ntag_34:\n    /* \"#utility.yul\":430:510   */\n  swap3\n  swap2\n  pop\n  pop\n  jump\t// out\n    /* \"#utility.yul\":530:818   */\ntag_36:\n    /* \"#utility.yul\":597:602   */\n  0x00\n    /* \"#utility.yul\":646:649   */\n  dup3\n    /* \"#utility.yul\":639:643   */\n  0x1f\n    /* \"#utility.yul\":631:637   */\n  dup4\n    /* \"#utility.yul\":627:644   */\n  add\n    /* \"#utility.yul\":623:650   */\n  slt\n    /* \"#utility.yul\":613:615   */\n  tag_38\n  jumpi\n    /* \"#utility.yul\":664:665   */\n  0x00\n    /* \"#utility.yul\":661:662   */\n  dup1\n    /* \"#utility.yul\":654:666   */\n  revert\n    /* \"#utility.yul\":613:615   */\ntag_38:\n    /* \"#utility.yul\":697:703   */\n  dup2\n    /* \"#utility.yul\":691:704   */\n  mload\n    /* \"#utility.yul\":722:812   */\n  tag_39\n    /* \"#utility.yul\":808:811   */\n  dup5\n    /* \"#utility.yul\":800:806   */\n  dup3\n    /* \"#utility.yul\":793:797   */\n  0x20\n    /* \"#utility.yul\":785:791   */\n  dup7\n    /* \"#utility.yul\":781:798   */\n  add\n    /* \"#utility.yul\":722:812   */\n  tag_23\n  jump\t// in\ntag_39:\n    /* \"#utility.yul\":713:812   */\n  swap2\n  pop\n    /* \"#utility.yul\":603:818   */\n  pop\n  swap3\n  swap2\n  pop\n  pop\n  jump\t// out\n    /* \"#utility.yul\":824:967   */\ntag_40:\n    /* \"#utility.yul\":881:886   */\n  0x00\n    /* \"#utility.yul\":912:918   */\n  dup2\n    /* \"#utility.yul\":906:919   */\n  mload\n    /* \"#utility.yul\":897:919   */\n  swap1\n  pop\n    /* \"#utility.yul\":928:961   */\n  tag_42\n    /* \"#utility.yul\":955:960   */\n  dup2\n    /* \"#utility.yul\":928:961   */\n  tag_43\n  jump\t// in\ntag_42:\n    /* \"#utility.yul\":887:967   */\n  swap3\n  swap2\n  pop\n  pop\n  jump\t// out\n    /* \"#utility.yul\":973:2252   */\ntag_4:\n    /* \"#utility.yul\":1108:1114   */\n  0x00\n    /* \"#utility.yul\":1116:1122   */\n  dup1\n    /* \"#utility.yul\":1124:1130   */\n  0x00\n    /* \"#utility.yul\":1132:1138   */\n  dup1\n    /* \"#utility.yul\":1140:1146   */\n  0x00\n    /* \"#utility.yul\":1148:1154   */\n  dup1\n    /* \"#utility.yul\":1197:1200   */\n  0xc0\n    /* \"#utility.yul\":1185:1194   */\n  dup8\n    /* \"#utility.yul\":1176:1183   */\n  dup10\n    /* \"#utility.yul\":1172:1195   */\n  sub\n    /* \"#utility.yul\":1168:1201   */\n  slt\n    /* \"#utility.yul\":1165:1167   */\n  iszero\n  tag_45\n  jumpi\n    /* \"#utility.yul\":1214:1215   */\n  0x00\n    /* \"#utility.yul\":1211:1212   */\n  dup1\n    /* \"#utility.yul\":1204:1216   */\n  revert\n    /* \"#utility.yul\":1165:1167   */\ntag_45:\n    /* \"#utility.yul\":1257:1258   */\n  0x00\n    /* \"#utility.yul\":1282:1346   */\n  tag_46\n    /* \"#utility.yul\":1338:1345   */\n  dup10\n    /* \"#utility.yul\":1329:1335   */\n  dup3\n    /* \"#utility.yul\":1318:1327   */\n  dup11\n    /* \"#utility.yul\":1314:1336   */\n  add\n    /* \"#utility.yul\":1282:1346   */\n  tag_40\n  jump\t// in\ntag_46:\n    /* \"#utility.yul\":1272:1346   */\n  swap7\n  pop\n    /* \"#utility.yul\":1228:1356   */\n  pop\n    /* \"#utility.yul\":1395:1397   */\n  0x20\n    /* \"#utility.yul\":1421:1485   */\n  tag_47\n    /* \"#utility.yul\":1477:1484   */\n  dup10\n    /* \"#utility.yul\":1468:1474   */\n  dup3\n    /* \"#utility.yul\":1457:1466   */\n  dup11\n    /* \"#utility.yul\":1453:1475   */\n  add\n    /* \"#utility.yul\":1421:1485   */\n  tag_32\n  jump\t// in\ntag_47:\n    /* \"#utility.yul\":1411:1485   */\n  swap6\n  pop\n    /* \"#utility.yul\":1366:1495   */\n  pop\n    /* \"#utility.yul\":1555:1557   */\n  0x40\n    /* \"#utility.yul\":1544:1553   */\n  dup8\n    /* \"#utility.yul\":1540:1558   */\n  add\n    /* \"#utility.yul\":1534:1559   */\n  mload\n    /* \"#utility.yul\":1586:1604   */\n  0xffffffffffffffff\n    /* \"#utility.yul\":1578:1584   */\n  dup2\n    /* \"#utility.yul\":1575:1605   */\n  gt\n    /* \"#utility.yul\":1572:1574   */\n  iszero\n  tag_48\n  jumpi\n    /* \"#utility.yul\":1618:1619   */\n  0x00\n    /* \"#utility.yul\":1615:1616   */\n  dup1\n    /* \"#utility.yul\":1608:1620   */\n  revert\n    /* \"#utility.yul\":1572:1574   */\ntag_48:\n    /* \"#utility.yul\":1646:1720   */\n  tag_49\n    /* \"#utility.yul\":1712:1719   */\n  dup10\n    /* \"#utility.yul\":1703:1709   */\n  dup3\n    /* \"#utility.yul\":1692:1701   */\n  dup11\n    /* \"#utility.yul\":1688:1710   */\n  add\n    /* \"#utility.yul\":1646:1720   */\n  tag_36\n  jump\t// in\ntag_49:\n    /* \"#utility.yul\":1636:1720   */\n  swap5\n  pop\n    /* \"#utility.yul\":1505:1730   */\n  pop\n    /* \"#utility.yul\":1769:1771   */\n  0x60\n    /* \"#utility.yul\":1795:1859   */\n  tag_50\n    /* \"#utility.yul\":1851:1858   */\n  dup10\n    /* \"#utility.yul\":1842:1848   */\n  dup3\n    /* \"#utility.yul\":1831:1840   */\n  dup11\n    /* \"#utility.yul\":1827:1849   */\n  add\n    /* \"#utility.yul\":1795:1859   */\n  tag_40\n  jump\t// in\ntag_50:\n    /* \"#utility.yul\":1785:1859   */\n  swap4\n  pop\n    /* \"#utility.yul\":1740:1869   */\n  pop\n    /* \"#utility.yul\":1929:1932   */\n  0x80\n    /* \"#utility.yul\":1918:1927   */\n  dup8\n    /* \"#utility.yul\":1914:1933   */\n  add\n    /* \"#utility.yul\":1908:1934   */\n  mload\n    /* \"#utility.yul\":1961:1979   */\n  0xffffffffffffffff\n    /* \"#utility.yul\":1953:1959   */\n  dup2\n    /* \"#utility.yul\":1950:1980   */\n  gt\n    /* \"#utility.yul\":1947:1949   */\n  iszero\n  tag_51\n  jumpi\n    /* \"#utility.yul\":1993:1994   */\n  0x00\n    /* \"#utility.yul\":1990:1991   */\n  dup1\n    /* \"#utility.yul\":1983:1995   */\n  revert\n    /* \"#utility.yul\":1947:1949   */\ntag_51:\n    /* \"#utility.yul\":2021:2095   */\n  tag_52\n    /* \"#utility.yul\":2087:2094   */\n  dup10\n    /* \"#utility.yul\":2078:2084   */\n  dup3\n    /* \"#utility.yul\":2067:2076   */\n  dup11\n    /* \"#utility.yul\":2063:2085   */\n  add\n    /* \"#utility.yul\":2021:2095   */\n  tag_36\n  jump\t// in\ntag_52:\n    /* \"#utility.yul\":2011:2095   */\n  swap3\n  pop\n    /* \"#utility.yul\":1879:2105   */\n  pop\n    /* \"#utility.yul\":2144:2147   */\n  0xa0\n    /* \"#utility.yul\":2171:2235   */\n  tag_53\n    /* \"#utility.yul\":2227:2234   */\n  dup10\n    /* \"#utility.yul\":2218:2224   */\n  dup3\n    /* \"#utility.yul\":2207:2216   */\n  dup11\n    /* \"#utility.yul\":2203:2225   */\n  add\n    /* \"#utility.yul\":2171:2235   */\n  tag_40\n  jump\t// in\ntag_53:\n    /* \"#utility.yul\":2161:2235   */\n  swap2\n  pop\n    /* \"#utility.yul\":2115:2245   */\n  pop\n    /* \"#utility.yul\":1155:2252   */\n  swap3\n  swap6\n  pop\n  swap3\n  swap6\n  pop\n  swap3\n  swap6\n  jump\t// out\n    /* \"#utility.yul\":2258:2387   */\ntag_28:\n    /* \"#utility.yul\":2292:2298   */\n  0x00\n    /* \"#utility.yul\":2319:2339   */\n  tag_55\n  tag_56\n  jump\t// in\ntag_55:\n    /* \"#utility.yul\":2309:2339   */\n  swap1\n  pop\n    /* \"#utility.yul\":2348:2381   */\n  tag_57\n    /* \"#utility.yul\":2376:2380   */\n  dup3\n    /* \"#utility.yul\":2368:2374   */\n  dup3\n    /* \"#utility.yul\":2348:2381   */\n  tag_58\n  jump\t// in\ntag_57:\n    /* \"#utility.yul\":2299:2387   */\n  swap2\n  swap1\n  pop\n  jump\t// out\n    /* \"#utility.yul\":2393:2468   */\ntag_56:\n    /* \"#utility.yul\":2426:2432   */\n  0x00\n    /* \"#utility.yul\":2459:2461   */\n  0x40\n    /* \"#utility.yul\":2453:2462   */\n  mload\n    /* \"#utility.yul\":2443:2462   */\n  swap1\n  pop\n    /* \"#utility.yul\":2433:2468   */\n  swap1\n  jump\t// out\n    /* \"#utility.yul\":2474:2782   */\ntag_27:\n    /* \"#utility.yul\":2536:2540   */\n  0x00\n    /* \"#utility.yul\":2626:2644   */\n  0xffffffffffffffff\n    /* \"#utility.yul\":2618:2624   */\n  dup3\n    /* \"#utility.yul\":2615:2645   */\n  gt\n    /* \"#utility.yul\":2612:2614   */\n  iszero\n  tag_61\n  jumpi\n    /* \"#utility.yul\":2648:2666   */\n  tag_62\n  tag_63\n  jump\t// in\ntag_62:\n    /* \"#utility.yul\":2612:2614   */\ntag_61:\n    /* \"#utility.yul\":2686:2715   */\n  tag_64\n    /* \"#utility.yul\":2708:2714   */\n  dup3\n    /* \"#utility.yul\":2686:2715   */\n  tag_65\n  jump\t// in\ntag_64:\n    /* \"#utility.yul\":2678:2715   */\n  swap1\n  pop\n    /* \"#utility.yul\":2770:2774   */\n  0x20\n    /* \"#utility.yul\":2764:2768   */\n  dup2\n    /* \"#utility.yul\":2760:2775   */\n  add\n    /* \"#utility.yul\":2752:2775   */\n  swap1\n  pop\n    /* \"#utility.yul\":2541:2782   */\n  swap2\n  swap1\n  pop\n  jump\t// out\n    /* \"#utility.yul\":2788:2884   */\ntag_66:\n    /* \"#utility.yul\":2825:2832   */\n  0x00\n    /* \"#utility.yul\":2854:2878   */\n  tag_68\n    /* \"#utility.yul\":2872:2877   */\n  dup3\n    /* \"#utility.yul\":2854:2878   */\n  tag_69\n  jump\t// in\ntag_68:\n    /* \"#utility.yul\":2843:2878   */\n  swap1\n  pop\n    /* \"#utility.yul\":2833:2884   */\n  swap2\n  swap1\n  pop\n  jump\t// out\n    /* \"#utility.yul\":2890:3016   */\ntag_69:\n    /* \"#utility.yul\":2927:2934   */\n  0x00\n    /* \"#utility.yul\":2967:3009   */\n  0xffffffffffffffffffffffffffffffffffffffff\n    /* \"#utility.yul\":2960:2965   */\n  dup3\n    /* \"#utility.yul\":2956:3010   */\n  and\n    /* \"#utility.yul\":2945:3010   */\n  swap1\n  pop\n    /* \"#utility.yul\":2935:3016   */\n  swap2\n  swap1\n  pop\n  jump\t// out\n    /* \"#utility.yul\":3022:3099   */\ntag_71:\n    /* \"#utility.yul\":3059:3066   */\n  0x00\n    /* \"#utility.yul\":3088:3093   */\n  dup2\n    /* \"#utility.yul\":3077:3093   */\n  swap1\n  pop\n    /* \"#utility.yul\":3067:3099   */\n  swap2\n  swap1\n  pop\n  jump\t// out\n    /* \"#utility.yul\":3105:3412   */\ntag_31:\n    /* \"#utility.yul\":3173:3174   */\n  0x00\n    /* \"#utility.yul\":3183:3296   */\ntag_74:\n    /* \"#utility.yul\":3197:3203   */\n  dup4\n    /* \"#utility.yul\":3194:3195   */\n  dup2\n    /* \"#utility.yul\":3191:3204   */\n  lt\n    /* \"#utility.yul\":3183:3296   */\n  iszero\n  tag_76\n  jumpi\n    /* \"#utility.yul\":3282:3283   */\n  dup1\n    /* \"#utility.yul\":3277:3280   */\n  dup3\n    /* \"#utility.yul\":3273:3284   */\n  add\n    /* \"#utility.yul\":3267:3285   */\n  mload\n    /* \"#utility.yul\":3263:3264   */\n  dup2\n    /* \"#utility.yul\":3258:3261   */\n  dup5\n    /* \"#utility.yul\":3254:3265   */\n  add\n    /* \"#utility.yul\":3247:3286   */\n  mstore\n    /* \"#utility.yul\":3219:3221   */\n  0x20\n    /* \"#utility.yul\":3216:3217   */\n  dup2\n    /* \"#utility.yul\":3212:3222   */\n  add\n    /* \"#utility.yul\":3207:3222   */\n  swap1\n  pop\n    /* \"#utility.yul\":3183:3296   */\n  jump(tag_74)\ntag_76:\n    /* \"#utility.yul\":3314:3320   */\n  dup4\n    /* \"#utility.yul\":3311:3312   */\n  dup2\n    /* \"#utility.yul\":3308:3321   */\n  gt\n    /* \"#utility.yul\":3305:3307   */\n  iszero\n  tag_77\n  jumpi\n    /* \"#utility.yul\":3394:3395   */\n  0x00\n    /* \"#utility.yul\":3385:3391   */\n  dup5\n    /* \"#utility.yul\":3380:3383   */\n  dup5\n    /* \"#utility.yul\":3376:3392   */\n  add\n    /* \"#utility.yul\":3369:3396   */\n  mstore\n    /* \"#utility.yul\":3305:3307   */\ntag_77:\n    /* \"#utility.yul\":3154:3412   */\n  pop\n  pop\n  pop\n  pop\n  jump\t// out\n    /* \"#utility.yul\":3418:3738   */\ntag_12:\n    /* \"#utility.yul\":3462:3468   */\n  0x00\n    /* \"#utility.yul\":3499:3500   */\n  0x02\n    /* \"#utility.yul\":3493:3497   */\n  dup3\n    /* \"#utility.yul\":3489:3501   */\n  div\n    /* \"#utility.yul\":3479:3501   */\n  swap1\n  pop\n    /* \"#utility.yul\":3546:3547   */\n  0x01\n    /* \"#utility.yul\":3540:3544   */\n  dup3\n    /* \"#utility.yul\":3536:3548   */\n  and\n    /* \"#utility.yul\":3567:3585   */\n  dup1\n    /* \"#utility.yul\":3557:3559   */\n  tag_79\n  jumpi\n    /* \"#utility.yul\":3623:3627   */\n  0x7f\n    /* \"#utility.yul\":3615:3621   */\n  dup3\n    /* \"#utility.yul\":3611:3628   */\n  and\n    /* \"#utility.yul\":3601:3628   */\n  swap2\n  pop\n    /* \"#utility.yul\":3557:3559   */\ntag_79:\n    /* \"#utility.yul\":3685:3687   */\n  0x20\n    /* \"#utility.yul\":3677:3683   */\n  dup3\n    /* \"#utility.yul\":3674:3688   */\n  lt\n    /* \"#utility.yul\":3654:3672   */\n  dup2\n    /* \"#utility.yul\":3651:3689   */\n  eq\n    /* \"#utility.yul\":3648:3650   */\n  iszero\n  tag_80\n  jumpi\n    /* \"#utility.yul\":3704:3722   */\n  tag_81\n  tag_82\n  jump\t// in\ntag_81:\n    /* \"#utility.yul\":3648:3650   */\ntag_80:\n    /* \"#utility.yul\":3469:3738   */\n  pop\n  swap2\n  swap1\n  pop\n  jump\t// out\n    /* \"#utility.yul\":3744:4025   */\ntag_58:\n    /* \"#utility.yul\":3827:3854   */\n  tag_84\n    /* \"#utility.yul\":3849:3853   */\n  dup3\n    /* \"#utility.yul\":3827:3854   */\n  tag_65\n  jump\t// in\ntag_84:\n    /* \"#utility.yul\":3819:3825   */\n  dup2\n    /* \"#utility.yul\":3815:3855   */\n  add\n    /* \"#utility.yul\":3957:3963   */\n  dup2\n    /* \"#utility.yul\":3945:3955   */\n  dup2\n    /* \"#utility.yul\":3942:3964   */\n  lt\n    /* \"#utility.yul\":3921:3939   */\n  0xffffffffffffffff\n    /* \"#utility.yul\":3909:3919   */\n  dup3\n    /* \"#utility.yul\":3906:3940   */\n  gt\n    /* \"#utility.yul\":3903:3965   */\n  or\n    /* \"#utility.yul\":3900:3902   */\n  iszero\n  tag_85\n  jumpi\n    /* \"#utility.yul\":3968:3986   */\n  tag_86\n  tag_63\n  jump\t// in\ntag_86:\n    /* \"#utility.yul\":3900:3902   */\ntag_85:\n    /* \"#utility.yul\":4008:4018   */\n  dup1\n    /* \"#utility.yul\":4004:4006   */\n  0x40\n    /* \"#utility.yul\":3997:4019   */\n  mstore\n    /* \"#utility.yul\":3787:4025   */\n  pop\n  pop\n  pop\n  jump\t// out\n    /* \"#utility.yul\":4031:4211   */\ntag_82:\n    /* \"#utility.yul\":4079:4156   */\n  0x4e487b7100000000000000000000000000000000000000000000000000000000\n    /* \"#utility.yul\":4076:4077   */\n  0x00\n    /* \"#utility.yul\":4069:4157   */\n  mstore\n    /* \"#utility.yul\":4176:4180   */\n  0x22\n    /* \"#utility.yul\":4173:4174   */\n  0x04\n    /* \"#utility.yul\":4166:4181   */\n  mstore\n    /* \"#utility.yul\":4200:4204   */\n  0x24\n    /* \"#utility.yul\":4197:4198   */\n  0x00\n    /* \"#utility.yul\":4190:4205   */\n  revert\n    /* \"#utility.yul\":4217:4397   */\ntag_63:\n    /* \"#utility.yul\":4265:4342   */\n  0x4e487b7100000000000000000000000000000000000000000000000000000000\n    /* \"#utility.yul\":4262:4263   */\n  0x00\n    /* \"#utility.yul\":4255:4343   */\n  mstore\n    /* \"#utility.yul\":4362:4366   */\n  0x41\n    /* \"#utility.yul\":4359:4360   */\n  0x04\n    /* \"#utility.yul\":4352:4367   */\n  mstore\n    /* \"#utility.yul\":4386:4390   */\n  0x24\n    /* \"#utility.yul\":4383:4384   */\n  0x00\n    /* \"#utility.yul\":4376:4391   */\n  revert\n    /* \"#utility.yul\":4403:4505   */\ntag_65:\n    /* \"#utility.yul\":4444:4450   */\n  0x00\n    /* \"#utility.yul\":4495:4497   */\n  0x1f\n    /* \"#utility.yul\":4491:4498   */\n  not\n    /* \"#utility.yul\":4486:4488   */\n  0x1f\n    /* \"#utility.yul\":4479:4484   */\n  dup4\n    /* \"#utility.yul\":4475:4489   */\n  add\n    /* \"#utility.yul\":4471:4499   */\n  and\n    /* \"#utility.yul\":4461:4499   */\n  swap1\n  pop\n    /* \"#utility.yul\":4451:4505   */\n  swap2\n  swap1\n  pop\n  jump\t// out\n    /* \"#utility.yul\":4511:4633   */\ntag_35:\n    /* \"#utility.yul\":4584:4608   */\n  tag_91\n    /* \"#utility.yul\":4602:4607   */\n  dup2\n    /* \"#utility.yul\":4584:4608   */\n  tag_66\n  jump\t// in\ntag_91:\n    /* \"#utility.yul\":4577:4582   */\n  dup2\n    /* \"#utility.yul\":4574:4609   */\n  eq\n    /* \"#utility.yul\":4564:4566   */\n  tag_92\n  jumpi\n    /* \"#utility.yul\":4623:4624   */\n  0x00\n    /* \"#utility.yul\":4620:4621   */\n  dup1\n    /* \"#utility.yul\":4613:4625   */\n  revert\n    /* \"#utility.yul\":4564:4566   */\ntag_92:\n    /* \"#utility.yul\":4554:4633   */\n  pop\n  jump\t// out\n    /* \"#utility.yul\":4639:4761   */\ntag_43:\n    /* \"#utility.yul\":4712:4736   */\n  tag_94\n    /* \"#utility.yul\":4730:4735   */\n  dup2\n    /* \"#utility.yul\":4712:4736   */\n  tag_71\n  jump\t// in\ntag_94:\n    /* \"#utility.yul\":4705:4710   */\n  dup2\n    /* \"#utility.yul\":4702:4737   */\n  eq\n    /* \"#utility.yul\":4692:4694   */\n  tag_95\n  jumpi\n    /* \"#utility.yul\":4751:4752   */\n  0x00\n    /* \"#utility.yul\":4748:4749   */\n  dup1\n    /* \"#utility.yul\":4741:4753   */\n  revert\n    /* \"#utility.yul\":4692:4694   */\ntag_95:\n    /* \"#utility.yul\":4682:4761   */\n  pop\n  jump\t// out\n    /* \"campaign.sol\":1144:5761  contract Campaign {\r... */\ntag_10:\n  dataSize(sub_0)\n  dup1\n  dataOffset(sub_0)\n  0x00\n  codecopy\n  0x00\n  return\nstop\n\nsub_0: assembly {\n        /* \"campaign.sol\":1144:5761  contract Campaign {\r... */\n      mstore(0x40, 0x80)\n      jumpi(tag_1, lt(calldatasize, 0x04))\n      shr(0xe0, calldataload(0x00))\n      dup1\n      0x5badbe4c\n      gt\n      tag_24\n      jumpi\n      dup1\n      0x97654a8c\n      gt\n      tag_25\n      jumpi\n      dup1\n      0x97654a8c\n      eq\n      tag_18\n      jumpi\n      dup1\n      0xb2d5ae44\n      eq\n      tag_19\n      jumpi\n      dup1\n      0xc19d93fb\n      eq\n      tag_20\n      jumpi\n      dup1\n      0xce845d1d\n      eq\n      tag_21\n      jumpi\n      dup1\n      0xd7bb99ba\n      eq\n      tag_22\n      jumpi\n      dup1\n      0xd7d1bbdb\n      eq\n      tag_23\n      jumpi\n      jump(tag_1)\n    tag_25:\n      dup1\n      0x5badbe4c\n      eq\n      tag_13\n      jumpi\n      dup1\n      0x81d12c58\n      eq\n      tag_14\n      jumpi\n      dup1\n      0x82fde093\n      eq\n      tag_15\n      jumpi\n      dup1\n      0x8a9cfd55\n      eq\n      tag_16\n      jumpi\n      dup1\n      0x937e09b1\n      eq\n      tag_17\n      jumpi\n      jump(tag_1)\n    tag_24:\n      dup1\n      0x15879c29\n      gt\n      tag_26\n      jumpi\n      dup1\n      0x15879c29\n      eq\n      tag_7\n      jumpi\n      dup1\n      0x32461bd8\n      eq\n      tag_8\n      jumpi\n      dup1\n      0x37f944cc\n      eq\n      tag_9\n      jumpi\n      dup1\n      0x4051ddac\n      eq\n      tag_10\n      jumpi\n      dup1\n      0x42e94c90\n      eq\n      tag_11\n      jumpi\n      dup1\n      0x481c6a75\n      eq\n      tag_12\n      jumpi\n      jump(tag_1)\n    tag_26:\n      dup1\n      0x03441006\n      eq\n      tag_2\n      jumpi\n      dup1\n      0x0785001c\n      eq\n      tag_3\n      jumpi\n      dup1\n      0x08caa910\n      eq\n      tag_4\n      jumpi\n      dup1\n      0x0a144391\n      eq\n      tag_5\n      jumpi\n      dup1\n      0x0dcf4b8f\n      eq\n      tag_6\n      jumpi\n    tag_1:\n      0x00\n      dup1\n      revert\n        /* \"campaign.sol\":4238:4570  function finalizeRequest(uint index) public managerOnly {\r... */\n    tag_2:\n      callvalue\n      dup1\n      iszero\n      tag_27\n      jumpi\n      0x00\n      dup1\n      revert\n    tag_27:\n      pop\n      tag_28\n      0x04\n      dup1\n      calldatasize\n      sub\n      dup2\n      add\n      swap1\n      tag_29\n      swap2\n      swap1\n      tag_30\n      jump\t// in\n    tag_29:\n      tag_31\n      jump\t// in\n    tag_28:\n      stop\n        /* \"campaign.sol\":1578:1600  uint public amountGoal */\n    tag_3:\n      callvalue\n      dup1\n      iszero\n      tag_32\n      jumpi\n      0x00\n      dup1\n      revert\n    tag_32:\n      pop\n      tag_33\n      tag_34\n      jump\t// in\n    tag_33:\n      mload(0x40)\n      tag_35\n      swap2\n      swap1\n      tag_36\n      jump\t// in\n    tag_35:\n      mload(0x40)\n      dup1\n      swap2\n      sub\n      swap1\n      return\n        /* \"campaign.sol\":4578:4679  function getTotalContribution() public view returns(uint) {\r... */\n    tag_4:\n      callvalue\n      dup1\n      iszero\n      tag_37\n      jumpi\n      0x00\n      dup1\n      revert\n    tag_37:\n      pop\n      tag_38\n      tag_39\n      jump\t// in\n    tag_38:\n      mload(0x40)\n      tag_40\n      swap2\n      swap1\n      tag_36\n      jump\t// in\n    tag_40:\n      mload(0x40)\n      dup1\n      swap2\n      sub\n      swap1\n      return\n        /* \"campaign.sol\":2046:2087  mapping(address => bool) public approvers */\n    tag_5:\n      callvalue\n      dup1\n      iszero\n      tag_41\n      jumpi\n      0x00\n      dup1\n      revert\n    tag_41:\n      pop\n      tag_42\n      0x04\n      dup1\n      calldatasize\n      sub\n      dup2\n      add\n      swap1\n      tag_43\n      swap2\n      swap1\n      tag_44\n      jump\t// in\n    tag_43:\n      tag_45\n      jump\t// in\n    tag_42:\n      mload(0x40)\n      tag_46\n      swap2\n      swap1\n      tag_47\n      jump\t// in\n    tag_46:\n      mload(0x40)\n      dup1\n      swap2\n      sub\n      swap1\n      return\n        /* \"campaign.sol\":1708:1737  uint public totalContribution */\n    tag_6:\n      callvalue\n      dup1\n      iszero\n      tag_48\n      jumpi\n      0x00\n      dup1\n      revert\n    tag_48:\n      pop\n      tag_49\n      tag_50\n      jump\t// in\n    tag_49:\n      mload(0x40)\n      tag_51\n      swap2\n      swap1\n      tag_36\n      jump\t// in\n    tag_51:\n      mload(0x40)\n      dup1\n      swap2\n      sub\n      swap1\n      return\n        /* \"campaign.sol\":2840:2977  function checkIfFundingExpired() public {\r... */\n    tag_7:\n      callvalue\n      dup1\n      iszero\n      tag_52\n      jumpi\n      0x00\n      dup1\n      revert\n    tag_52:\n      pop\n      tag_53\n      tag_54\n      jump\t// in\n    tag_53:\n      stop\n        /* \"campaign.sol\":1520:1547  string public titleCompaign */\n    tag_8:\n      callvalue\n      dup1\n      iszero\n      tag_55\n      jumpi\n      0x00\n      dup1\n      revert\n    tag_55:\n      pop\n      tag_56\n      tag_57\n      jump\t// in\n    tag_56:\n      mload(0x40)\n      tag_58\n      swap2\n      swap1\n      tag_59\n      jump\t// in\n    tag_58:\n      mload(0x40)\n      dup1\n      swap2\n      sub\n      swap1\n      return\n        /* \"campaign.sol\":1906:1925  uint public raiseBy */\n    tag_9:\n      callvalue\n      dup1\n      iszero\n      tag_60\n      jumpi\n      0x00\n      dup1\n      revert\n    tag_60:\n      pop\n      tag_61\n      tag_62\n      jump\t// in\n    tag_61:\n      mload(0x40)\n      tag_63\n      swap2\n      swap1\n      tag_36\n      jump\t// in\n    tag_63:\n      mload(0x40)\n      dup1\n      swap2\n      sub\n      swap1\n      return\n        /* \"campaign.sol\":5273:5758  function getSummary() external view returns (\r... */\n    tag_10:\n      callvalue\n      dup1\n      iszero\n      tag_64\n      jumpi\n      0x00\n      dup1\n      revert\n    tag_64:\n      pop\n      tag_65\n      tag_66\n      jump\t// in\n    tag_65:\n      mload(0x40)\n      tag_67\n      swap11\n      swap10\n      swap9\n      swap8\n      swap7\n      swap6\n      swap5\n      swap4\n      swap3\n      swap2\n      swap1\n      tag_68\n      jump\t// in\n    tag_67:\n      mload(0x40)\n      dup1\n      swap2\n      sub\n      swap1\n      return\n        /* \"campaign.sol\":1775:1820  mapping(address => uint) public contributions */\n    tag_11:\n      callvalue\n      dup1\n      iszero\n      tag_69\n      jumpi\n      0x00\n      dup1\n      revert\n    tag_69:\n      pop\n      tag_70\n      0x04\n      dup1\n      calldatasize\n      sub\n      dup2\n      add\n      swap1\n      tag_71\n      swap2\n      swap1\n      tag_44\n      jump\t// in\n    tag_71:\n      tag_72\n      jump\t// in\n    tag_70:\n      mload(0x40)\n      tag_73\n      swap2\n      swap1\n      tag_36\n      jump\t// in\n    tag_73:\n      mload(0x40)\n      dup1\n      swap2\n      sub\n      swap1\n      return\n        /* \"campaign.sol\":1485:1507  address public manager */\n    tag_12:\n      callvalue\n      dup1\n      iszero\n      tag_74\n      jumpi\n      0x00\n      dup1\n      revert\n    tag_74:\n      pop\n      tag_75\n      tag_76\n      jump\t// in\n    tag_75:\n      mload(0x40)\n      tag_77\n      swap2\n      swap1\n      tag_78\n      jump\t// in\n    tag_77:\n      mload(0x40)\n      dup1\n      swap2\n      sub\n      swap1\n      return\n        /* \"campaign.sol\":2141:2165  uint public requestCount */\n    tag_13:\n      callvalue\n      dup1\n      iszero\n      tag_79\n      jumpi\n      0x00\n      dup1\n      revert\n    tag_79:\n      pop\n      tag_80\n      tag_81\n      jump\t// in\n    tag_80:\n      mload(0x40)\n      tag_82\n      swap2\n      swap1\n      tag_36\n      jump\t// in\n    tag_82:\n      mload(0x40)\n      dup1\n      swap2\n      sub\n      swap1\n      return\n        /* \"campaign.sol\":2094:2134  mapping(uint => Request) public requests */\n    tag_14:\n      callvalue\n      dup1\n      iszero\n      tag_83\n      jumpi\n      0x00\n      dup1\n      revert\n    tag_83:\n      pop\n      tag_84\n      0x04\n      dup1\n      calldatasize\n      sub\n      dup2\n      add\n      swap1\n      tag_85\n      swap2\n      swap1\n      tag_30\n      jump\t// in\n    tag_85:\n      tag_86\n      jump\t// in\n    tag_84:\n      mload(0x40)\n      tag_87\n      swap6\n      swap5\n      swap4\n      swap3\n      swap2\n      swap1\n      tag_88\n      jump\t// in\n    tag_87:\n      mload(0x40)\n      dup1\n      swap2\n      sub\n      swap1\n      return\n        /* \"campaign.sol\":2172:2198  uint public approversCount */\n    tag_15:\n      callvalue\n      dup1\n      iszero\n      tag_89\n      jumpi\n      0x00\n      dup1\n      revert\n    tag_89:\n      pop\n      tag_90\n      tag_91\n      jump\t// in\n    tag_90:\n      mload(0x40)\n      tag_92\n      swap2\n      swap1\n      tag_36\n      jump\t// in\n    tag_92:\n      mload(0x40)\n      dup1\n      swap2\n      sub\n      swap1\n      return\n        /* \"campaign.sol\":3465:3918  function createRequest(\r... */\n    tag_16:\n      callvalue\n      dup1\n      iszero\n      tag_93\n      jumpi\n      0x00\n      dup1\n      revert\n    tag_93:\n      pop\n      tag_94\n      0x04\n      dup1\n      calldatasize\n      sub\n      dup2\n      add\n      swap1\n      tag_95\n      swap2\n      swap1\n      tag_96\n      jump\t// in\n    tag_95:\n      tag_97\n      jump\t// in\n    tag_94:\n      stop\n        /* \"campaign.sol\":2008:2039  uint public minimumContribution */\n    tag_17:\n      callvalue\n      dup1\n      iszero\n      tag_98\n      jumpi\n      0x00\n      dup1\n      revert\n    tag_98:\n      pop\n      tag_99\n      tag_100\n      jump\t// in\n    tag_99:\n      mload(0x40)\n      tag_101\n      swap2\n      swap1\n      tag_36\n      jump\t// in\n    tag_101:\n      mload(0x40)\n      dup1\n      swap2\n      sub\n      swap1\n      return\n        /* \"campaign.sol\":1638:1671  string public CampaignDescription */\n    tag_18:\n      callvalue\n      dup1\n      iszero\n      tag_102\n      jumpi\n      0x00\n      dup1\n      revert\n    tag_102:\n      pop\n      tag_103\n      tag_104\n      jump\t// in\n    tag_103:\n      mload(0x40)\n      tag_105\n      swap2\n      swap1\n      tag_59\n      jump\t// in\n    tag_105:\n      mload(0x40)\n      dup1\n      swap2\n      sub\n      swap1\n      return\n        /* \"campaign.sol\":4687:5265  function getRefund() public inState(State.Expired) returns (bool) \r... */\n    tag_19:\n      callvalue\n      dup1\n      iszero\n      tag_106\n      jumpi\n      0x00\n      dup1\n      revert\n    tag_106:\n      pop\n      tag_107\n      tag_108\n      jump\t// in\n    tag_107:\n      mload(0x40)\n      tag_109\n      swap2\n      swap1\n      tag_47\n      jump\t// in\n    tag_109:\n      mload(0x40)\n      dup1\n      swap2\n      sub\n      swap1\n      return\n        /* \"campaign.sol\":1828:1866  State public state = State.Fundraising */\n    tag_20:\n      callvalue\n      dup1\n      iszero\n      tag_110\n      jumpi\n      0x00\n      dup1\n      revert\n    tag_110:\n      pop\n      tag_111\n      tag_112\n      jump\t// in\n    tag_111:\n      mload(0x40)\n      tag_113\n      swap2\n      swap1\n      tag_114\n      jump\t// in\n    tag_113:\n      mload(0x40)\n      dup1\n      swap2\n      sub\n      swap1\n      return\n        /* \"campaign.sol\":1973:1999  uint public currentBalance */\n    tag_21:\n      callvalue\n      dup1\n      iszero\n      tag_115\n      jumpi\n      0x00\n      dup1\n      revert\n    tag_115:\n      pop\n      tag_116\n      tag_117\n      jump\t// in\n    tag_116:\n      mload(0x40)\n      tag_118\n      swap2\n      swap1\n      tag_36\n      jump\t// in\n    tag_118:\n      mload(0x40)\n      dup1\n      swap2\n      sub\n      swap1\n      return\n        /* \"campaign.sol\":2985:3453  function contribute() external payable inState(State.Fundraising) {\r... */\n    tag_22:\n      tag_119\n      tag_120\n      jump\t// in\n    tag_119:\n      stop\n        /* \"campaign.sol\":3930:4225  function approveRequest(uint index) public {\r... */\n    tag_23:\n      callvalue\n      dup1\n      iszero\n      tag_121\n      jumpi\n      0x00\n      dup1\n      revert\n    tag_121:\n      pop\n      tag_122\n      0x04\n      dup1\n      calldatasize\n      sub\n      dup2\n      add\n      swap1\n      tag_123\n      swap2\n      swap1\n      tag_30\n      jump\t// in\n    tag_123:\n      tag_124\n      jump\t// in\n    tag_122:\n      stop\n        /* \"campaign.sol\":4238:4570  function finalizeRequest(uint index) public managerOnly {\r... */\n    tag_31:\n        /* \"campaign.sol\":2401:2408  manager */\n      0x00\n      dup1\n      sload\n      swap1\n      0x0100\n      exp\n      swap1\n      div\n      0xffffffffffffffffffffffffffffffffffffffff\n      and\n        /* \"campaign.sol\":2387:2408  msg.sender == manager */\n      0xffffffffffffffffffffffffffffffffffffffff\n      and\n        /* \"campaign.sol\":2387:2397  msg.sender */\n      caller\n        /* \"campaign.sol\":2387:2408  msg.sender == manager */\n      0xffffffffffffffffffffffffffffffffffffffff\n      and\n      eq\n        /* \"campaign.sol\":2379:2409  require(msg.sender == manager) */\n      tag_126\n      jumpi\n      0x00\n      dup1\n      revert\n    tag_126:\n        /* \"campaign.sol\":4305:4328  Request storage request */\n      0x00\n        /* \"campaign.sol\":4331:4339  requests */\n      0x0b\n        /* \"campaign.sol\":4331:4346  requests[index] */\n      0x00\n        /* \"campaign.sol\":4340:4345  index */\n      dup4\n        /* \"campaign.sol\":4331:4346  requests[index] */\n      dup2\n      mstore\n      0x20\n      add\n      swap1\n      dup2\n      mstore\n      0x20\n      add\n      0x00\n      keccak256\n        /* \"campaign.sol\":4305:4346  Request storage request = requests[index] */\n      swap1\n      pop\n        /* \"campaign.sol\":4376:4383  request */\n      dup1\n        /* \"campaign.sol\":4376:4392  request.complete */\n      0x02\n      add\n      0x14\n      swap1\n      sload\n      swap1\n      0x0100\n      exp\n      swap1\n      div\n      0xff\n      and\n        /* \"campaign.sol\":4375:4392  !request.complete */\n      iszero\n        /* \"campaign.sol\":4367:4393  require(!request.complete) */\n      tag_128\n      jumpi\n      0x00\n      dup1\n      revert\n    tag_128:\n        /* \"campaign.sol\":4454:4455  2 */\n      0x02\n        /* \"campaign.sol\":4437:4451  approversCount */\n      sload(0x0d)\n        /* \"campaign.sol\":4437:4455  approversCount / 2 */\n      tag_129\n      swap2\n      swap1\n      tag_130\n      jump\t// in\n    tag_129:\n        /* \"campaign.sol\":4412:4419  request */\n      dup2\n        /* \"campaign.sol\":4412:4433  request.approvalCount */\n      0x03\n      add\n      sload\n        /* \"campaign.sol\":4412:4456  request.approvalCount > (approversCount / 2) */\n      gt\n        /* \"campaign.sol\":4404:4457  require(request.approvalCount > (approversCount / 2)) */\n      tag_131\n      jumpi\n      0x00\n      dup1\n      revert\n    tag_131:\n        /* \"campaign.sol\":4486:4493  request */\n      dup1\n        /* \"campaign.sol\":4486:4503  request.recipient */\n      0x02\n      add\n      0x00\n      swap1\n      sload\n      swap1\n      0x0100\n      exp\n      swap1\n      div\n      0xffffffffffffffffffffffffffffffffffffffff\n      and\n        /* \"campaign.sol\":4478:4513  payable(request.recipient).transfer */\n      0xffffffffffffffffffffffffffffffffffffffff\n      and\n        /* \"campaign.sol\":4478:4528  payable(request.recipient).transfer(request.value) */\n      0x08fc\n        /* \"campaign.sol\":4514:4521  request */\n      dup3\n        /* \"campaign.sol\":4514:4527  request.value */\n      0x01\n      add\n      sload\n        /* \"campaign.sol\":4478:4528  payable(request.recipient).transfer(request.value) */\n      swap1\n      dup2\n      iszero\n      mul\n      swap1\n      mload(0x40)\n      0x00\n      mload(0x40)\n      dup1\n      dup4\n      sub\n      dup2\n      dup6\n      dup9\n      dup9\n      call\n      swap4\n      pop\n      pop\n      pop\n      pop\n      iszero\n      dup1\n      iszero\n      tag_133\n      jumpi\n      returndatasize\n      0x00\n      dup1\n      returndatacopy\n      revert(0x00, returndatasize)\n    tag_133:\n      pop\n        /* \"campaign.sol\":4558:4562  true */\n      0x01\n        /* \"campaign.sol\":4539:4546  request */\n      dup2\n        /* \"campaign.sol\":4539:4555  request.complete */\n      0x02\n      add\n      0x14\n        /* \"campaign.sol\":4539:4562  request.complete = true */\n      0x0100\n      exp\n      dup2\n      sload\n      dup2\n      0xff\n      mul\n      not\n      and\n      swap1\n      dup4\n      iszero\n      iszero\n      mul\n      or\n      swap1\n      sstore\n      pop\n        /* \"campaign.sol\":2420:2421  _ */\n      pop\n        /* \"campaign.sol\":4238:4570  function finalizeRequest(uint index) public managerOnly {\r... */\n      pop\n      jump\t// out\n        /* \"campaign.sol\":1578:1600  uint public amountGoal */\n    tag_34:\n      sload(0x02)\n      dup2\n      jump\t// out\n        /* \"campaign.sol\":4578:4679  function getTotalContribution() public view returns(uint) {\r... */\n    tag_39:\n        /* \"campaign.sol\":4630:4634  uint */\n      0x00\n        /* \"campaign.sol\":4654:4671  totalContribution */\n      sload(0x04)\n        /* \"campaign.sol\":4647:4671  return totalContribution */\n      swap1\n      pop\n        /* \"campaign.sol\":4578:4679  function getTotalContribution() public view returns(uint) {\r... */\n      swap1\n      jump\t// out\n        /* \"campaign.sol\":2046:2087  mapping(address => bool) public approvers */\n    tag_45:\n      mstore(0x20, 0x0a)\n      dup1\n      0x00\n      mstore\n      keccak256(0x00, 0x40)\n      0x00\n      swap2\n      pop\n      sload\n      swap1\n      0x0100\n      exp\n      swap1\n      div\n      0xff\n      and\n      dup2\n      jump\t// out\n        /* \"campaign.sol\":1708:1737  uint public totalContribution */\n    tag_50:\n      sload(0x04)\n      dup2\n      jump\t// out\n        /* \"campaign.sol\":2840:2977  function checkIfFundingExpired() public {\r... */\n    tag_54:\n        /* \"campaign.sol\":2913:2920  raiseBy */\n      sload(0x07)\n        /* \"campaign.sol\":2895:2910  block.timestamp */\n      timestamp\n        /* \"campaign.sol\":2895:2920  block.timestamp > raiseBy */\n      gt\n        /* \"campaign.sol\":2891:2970  if (block.timestamp > raiseBy) {\r... */\n      iszero\n      tag_136\n      jumpi\n        /* \"campaign.sol\":2945:2958  State.Expired */\n      0x01\n        /* \"campaign.sol\":2937:2942  state */\n      0x06\n      0x00\n        /* \"campaign.sol\":2937:2958  state = State.Expired */\n      0x0100\n      exp\n      dup2\n      sload\n      dup2\n      0xff\n      mul\n      not\n      and\n      swap1\n      dup4\n      0x01\n      dup2\n      gt\n      iszero\n      tag_137\n      jumpi\n      mstore(0x00, 0x4e487b7100000000000000000000000000000000000000000000000000000000)\n      mstore(0x04, 0x21)\n      revert(0x00, 0x24)\n    tag_137:\n      mul\n      or\n      swap1\n      sstore\n      pop\n        /* \"campaign.sol\":2891:2970  if (block.timestamp > raiseBy) {\r... */\n    tag_136:\n        /* \"campaign.sol\":2840:2977  function checkIfFundingExpired() public {\r... */\n      jump\t// out\n        /* \"campaign.sol\":1520:1547  string public titleCompaign */\n    tag_57:\n      0x01\n      dup1\n      sload\n      tag_138\n      swap1\n      tag_139\n      jump\t// in\n    tag_138:\n      dup1\n      0x1f\n      add\n      0x20\n      dup1\n      swap2\n      div\n      mul\n      0x20\n      add\n      mload(0x40)\n      swap1\n      dup2\n      add\n      0x40\n      mstore\n      dup1\n      swap3\n      swap2\n      swap1\n      dup2\n      dup2\n      mstore\n      0x20\n      add\n      dup3\n      dup1\n      sload\n      tag_140\n      swap1\n      tag_139\n      jump\t// in\n    tag_140:\n      dup1\n      iszero\n      tag_141\n      jumpi\n      dup1\n      0x1f\n      lt\n      tag_142\n      jumpi\n      0x0100\n      dup1\n      dup4\n      sload\n      div\n      mul\n      dup4\n      mstore\n      swap2\n      0x20\n      add\n      swap2\n      jump(tag_141)\n    tag_142:\n      dup3\n      add\n      swap2\n      swap1\n      0x00\n      mstore\n      keccak256(0x00, 0x20)\n      swap1\n    tag_143:\n      dup2\n      sload\n      dup2\n      mstore\n      swap1\n      0x01\n      add\n      swap1\n      0x20\n      add\n      dup1\n      dup4\n      gt\n      tag_143\n      jumpi\n      dup3\n      swap1\n      sub\n      0x1f\n      and\n      dup3\n      add\n      swap2\n    tag_141:\n      pop\n      pop\n      pop\n      pop\n      pop\n      dup2\n      jump\t// out\n        /* \"campaign.sol\":1906:1925  uint public raiseBy */\n    tag_62:\n      sload(0x07)\n      dup2\n      jump\t// out\n        /* \"campaign.sol\":5273:5758  function getSummary() external view returns (\r... */\n    tag_66:\n        /* \"campaign.sol\":5326:5330  uint */\n      0x00\n        /* \"campaign.sol\":5339:5343  uint */\n      dup1\n        /* \"campaign.sol\":5352:5356  uint */\n      0x00\n        /* \"campaign.sol\":5365:5369  uint */\n      dup1\n        /* \"campaign.sol\":5378:5385  address */\n      0x00\n        /* \"campaign.sol\":5394:5407  string memory */\n      0x60\n        /* \"campaign.sol\":5416:5420  uint */\n      0x00\n        /* \"campaign.sol\":5429:5442  string memory */\n      0x60\n        /* \"campaign.sol\":5451:5455  uint */\n      0x00\n        /* \"campaign.sol\":5464:5468  uint */\n      dup1\n        /* \"campaign.sol\":5503:5522  minimumContribution */\n      sload(0x09)\n        /* \"campaign.sol\":5533:5554  address(this).balance */\n      selfbalance\n        /* \"campaign.sol\":5565:5577  requestCount */\n      sload(0x0c)\n        /* \"campaign.sol\":5588:5602  approversCount */\n      sload(0x0d)\n        /* \"campaign.sol\":5613:5620  manager */\n      0x00\n      dup1\n      sload\n      swap1\n      0x0100\n      exp\n      swap1\n      div\n      0xffffffffffffffffffffffffffffffffffffffff\n      and\n        /* \"campaign.sol\":5631:5644  titleCompaign */\n      0x01\n        /* \"campaign.sol\":5655:5665  amountGoal */\n      sload(0x02)\n        /* \"campaign.sol\":5676:5695  CampaignDescription */\n      0x03\n        /* \"campaign.sol\":5706:5723  totalContribution */\n      sload(0x04)\n        /* \"campaign.sol\":5734:5741  raiseBy */\n      sload(0x07)\n        /* \"campaign.sol\":5485:5750  return (\r... */\n      dup5\n      dup1\n      sload\n      tag_145\n      swap1\n      tag_139\n      jump\t// in\n    tag_145:\n      dup1\n      0x1f\n      add\n      0x20\n      dup1\n      swap2\n      div\n      mul\n      0x20\n      add\n      mload(0x40)\n      swap1\n      dup2\n      add\n      0x40\n      mstore\n      dup1\n      swap3\n      swap2\n      swap1\n      dup2\n      dup2\n      mstore\n      0x20\n      add\n      dup3\n      dup1\n      sload\n      tag_146\n      swap1\n      tag_139\n      jump\t// in\n    tag_146:\n      dup1\n      iszero\n      tag_147\n      jumpi\n      dup1\n      0x1f\n      lt\n      tag_148\n      jumpi\n      0x0100\n      dup1\n      dup4\n      sload\n      div\n      mul\n      dup4\n      mstore\n      swap2\n      0x20\n      add\n      swap2\n      jump(tag_147)\n    tag_148:\n      dup3\n      add\n      swap2\n      swap1\n      0x00\n      mstore\n      keccak256(0x00, 0x20)\n      swap1\n    tag_149:\n      dup2\n      sload\n      dup2\n      mstore\n      swap1\n      0x01\n      add\n      swap1\n      0x20\n      add\n      dup1\n      dup4\n      gt\n      tag_149\n      jumpi\n      dup3\n      swap1\n      sub\n      0x1f\n      and\n      dup3\n      add\n      swap2\n    tag_147:\n      pop\n      pop\n      pop\n      pop\n      pop\n      swap5\n      pop\n      dup3\n      dup1\n      sload\n      tag_150\n      swap1\n      tag_139\n      jump\t// in\n    tag_150:\n      dup1\n      0x1f\n      add\n      0x20\n      dup1\n      swap2\n      div\n      mul\n      0x20\n      add\n      mload(0x40)\n      swap1\n      dup2\n      add\n      0x40\n      mstore\n      dup1\n      swap3\n      swap2\n      swap1\n      dup2\n      dup2\n      mstore\n      0x20\n      add\n      dup3\n      dup1\n      sload\n      tag_151\n      swap1\n      tag_139\n      jump\t// in\n    tag_151:\n      dup1\n      iszero\n      tag_152\n      jumpi\n      dup1\n      0x1f\n      lt\n      tag_153\n      jumpi\n      0x0100\n      dup1\n      dup4\n      sload\n      div\n      mul\n      dup4\n      mstore\n      swap2\n      0x20\n      add\n      swap2\n      jump(tag_152)\n    tag_153:\n      dup3\n      add\n      swap2\n      swap1\n      0x00\n      mstore\n      keccak256(0x00, 0x20)\n      swap1\n    tag_154:\n      dup2\n      sload\n      dup2\n      mstore\n      swap1\n      0x01\n      add\n      swap1\n      0x20\n      add\n      dup1\n      dup4\n      gt\n      tag_154\n      jumpi\n      dup3\n      swap1\n      sub\n      0x1f\n      and\n      dup3\n      add\n      swap2\n    tag_152:\n      pop\n      pop\n      pop\n      pop\n      pop\n      swap3\n      pop\n      swap10\n      pop\n      swap10\n      pop\n      swap10\n      pop\n      swap10\n      pop\n      swap10\n      pop\n      swap10\n      pop\n      swap10\n      pop\n      swap10\n      pop\n      swap10\n      pop\n      swap10\n      pop\n        /* \"campaign.sol\":5273:5758  function getSummary() external view returns (\r... */\n      swap1\n      swap2\n      swap3\n      swap4\n      swap5\n      swap6\n      swap7\n      swap8\n      swap9\n      swap10\n      jump\t// out\n        /* \"campaign.sol\":1775:1820  mapping(address => uint) public contributions */\n    tag_72:\n      mstore(0x20, 0x05)\n      dup1\n      0x00\n      mstore\n      keccak256(0x00, 0x40)\n      0x00\n      swap2\n      pop\n      swap1\n      pop\n      sload\n      dup2\n      jump\t// out\n        /* \"campaign.sol\":1485:1507  address public manager */\n    tag_76:\n      0x00\n      dup1\n      sload\n      swap1\n      0x0100\n      exp\n      swap1\n      div\n      0xffffffffffffffffffffffffffffffffffffffff\n      and\n      dup2\n      jump\t// out\n        /* \"campaign.sol\":2141:2165  uint public requestCount */\n    tag_81:\n      sload(0x0c)\n      dup2\n      jump\t// out\n        /* \"campaign.sol\":2094:2134  mapping(uint => Request) public requests */\n    tag_86:\n      mstore(0x20, 0x0b)\n      dup1\n      0x00\n      mstore\n      keccak256(0x00, 0x40)\n      0x00\n      swap2\n      pop\n      swap1\n      pop\n      dup1\n      0x00\n      add\n      dup1\n      sload\n      tag_155\n      swap1\n      tag_139\n      jump\t// in\n    tag_155:\n      dup1\n      0x1f\n      add\n      0x20\n      dup1\n      swap2\n      div\n      mul\n      0x20\n      add\n      mload(0x40)\n      swap1\n      dup2\n      add\n      0x40\n      mstore\n      dup1\n      swap3\n      swap2\n      swap1\n      dup2\n      dup2\n      mstore\n      0x20\n      add\n      dup3\n      dup1\n      sload\n      tag_156\n      swap1\n      tag_139\n      jump\t// in\n    tag_156:\n      dup1\n      iszero\n      tag_157\n      jumpi\n      dup1\n      0x1f\n      lt\n      tag_158\n      jumpi\n      0x0100\n      dup1\n      dup4\n      sload\n      div\n      mul\n      dup4\n      mstore\n      swap2\n      0x20\n      add\n      swap2\n      jump(tag_157)\n    tag_158:\n      dup3\n      add\n      swap2\n      swap1\n      0x00\n      mstore\n      keccak256(0x00, 0x20)\n      swap1\n    tag_159:\n      dup2\n      sload\n      dup2\n      mstore\n      swap1\n      0x01\n      add\n      swap1\n      0x20\n      add\n      dup1\n      dup4\n      gt\n      tag_159\n      jumpi\n      dup3\n      swap1\n      sub\n      0x1f\n      and\n      dup3\n      add\n      swap2\n    tag_157:\n      pop\n      pop\n      pop\n      pop\n      pop\n      swap1\n      dup1\n      0x01\n      add\n      sload\n      swap1\n      dup1\n      0x02\n      add\n      0x00\n      swap1\n      sload\n      swap1\n      0x0100\n      exp\n      swap1\n      div\n      0xffffffffffffffffffffffffffffffffffffffff\n      and\n      swap1\n      dup1\n      0x02\n      add\n      0x14\n      swap1\n      sload\n      swap1\n      0x0100\n      exp\n      swap1\n      div\n      0xff\n      and\n      swap1\n      dup1\n      0x03\n      add\n      sload\n      swap1\n      pop\n      dup6\n      jump\t// out\n        /* \"campaign.sol\":2172:2198  uint public approversCount */\n    tag_91:\n      sload(0x0d)\n      dup2\n      jump\t// out\n        /* \"campaign.sol\":3465:3918  function createRequest(\r... */\n    tag_97:\n        /* \"campaign.sol\":2401:2408  manager */\n      0x00\n      dup1\n      sload\n      swap1\n      0x0100\n      exp\n      swap1\n      div\n      0xffffffffffffffffffffffffffffffffffffffff\n      and\n        /* \"campaign.sol\":2387:2408  msg.sender == manager */\n      0xffffffffffffffffffffffffffffffffffffffff\n      and\n        /* \"campaign.sol\":2387:2397  msg.sender */\n      caller\n        /* \"campaign.sol\":2387:2408  msg.sender == manager */\n      0xffffffffffffffffffffffffffffffffffffffff\n      and\n      eq\n        /* \"campaign.sol\":2379:2409  require(msg.sender == manager) */\n      tag_161\n      jumpi\n      0x00\n      dup1\n      revert\n    tag_161:\n        /* \"campaign.sol\":3644:3649  value */\n      dup2\n        /* \"campaign.sol\":3619:3640  address(this).balance */\n      selfbalance\n        /* \"campaign.sol\":3619:3649  address(this).balance >= value */\n      lt\n      iszero\n        /* \"campaign.sol\":3611:3650  require(address(this).balance >= value) */\n      tag_163\n      jumpi\n      0x00\n      dup1\n      revert\n    tag_163:\n        /* \"campaign.sol\":3661:3687  Request storage newRequest */\n      0x00\n        /* \"campaign.sol\":3690:3698  requests */\n      0x0b\n        /* \"campaign.sol\":3690:3712  requests[requestCount] */\n      0x00\n        /* \"campaign.sol\":3699:3711  requestCount */\n      sload(0x0c)\n        /* \"campaign.sol\":3690:3712  requests[requestCount] */\n      dup2\n      mstore\n      0x20\n      add\n      swap1\n      dup2\n      mstore\n      0x20\n      add\n      0x00\n      keccak256\n        /* \"campaign.sol\":3661:3712  Request storage newRequest = requests[requestCount] */\n      swap1\n      pop\n        /* \"campaign.sol\":3748:3759  description */\n      dup4\n        /* \"campaign.sol\":3723:3733  newRequest */\n      dup2\n        /* \"campaign.sol\":3723:3745  newRequest.description */\n      0x00\n      add\n        /* \"campaign.sol\":3723:3759  newRequest.description = description */\n      swap1\n      dup1\n      mload\n      swap1\n      0x20\n      add\n      swap1\n      tag_164\n      swap3\n      swap2\n      swap1\n      tag_165\n      jump\t// in\n    tag_164:\n      pop\n        /* \"campaign.sol\":3789:3794  value */\n      dup3\n        /* \"campaign.sol\":3770:3780  newRequest */\n      dup2\n        /* \"campaign.sol\":3770:3786  newRequest.value */\n      0x01\n      add\n        /* \"campaign.sol\":3770:3794  newRequest.value = value */\n      dup2\n      swap1\n      sstore\n      pop\n        /* \"campaign.sol\":3828:3837  recipient */\n      dup2\n        /* \"campaign.sol\":3805:3815  newRequest */\n      dup2\n        /* \"campaign.sol\":3805:3825  newRequest.recipient */\n      0x02\n      add\n      0x00\n        /* \"campaign.sol\":3805:3837  newRequest.recipient = recipient */\n      0x0100\n      exp\n      dup2\n      sload\n      dup2\n      0xffffffffffffffffffffffffffffffffffffffff\n      mul\n      not\n      and\n      swap1\n      dup4\n      0xffffffffffffffffffffffffffffffffffffffff\n      and\n      mul\n      or\n      swap1\n      sstore\n      pop\n        /* \"campaign.sol\":3870:3875  false */\n      0x00\n        /* \"campaign.sol\":3848:3858  newRequest */\n      dup2\n        /* \"campaign.sol\":3848:3867  newRequest.complete */\n      0x02\n      add\n      0x14\n        /* \"campaign.sol\":3848:3875  newRequest.complete = false */\n      0x0100\n      exp\n      dup2\n      sload\n      dup2\n      0xff\n      mul\n      not\n      and\n      swap1\n      dup4\n      iszero\n      iszero\n      mul\n      or\n      swap1\n      sstore\n      pop\n        /* \"campaign.sol\":3896:3908  requestCount */\n      0x0c\n      0x00\n        /* \"campaign.sol\":3896:3910  requestCount++ */\n      dup2\n      sload\n      dup1\n      swap3\n      swap2\n      swap1\n      tag_166\n      swap1\n      tag_167\n      jump\t// in\n    tag_166:\n      swap2\n      swap1\n      pop\n      sstore\n      pop\n        /* \"campaign.sol\":2420:2421  _ */\n      pop\n        /* \"campaign.sol\":3465:3918  function createRequest(\r... */\n      pop\n      pop\n      pop\n      jump\t// out\n        /* \"campaign.sol\":2008:2039  uint public minimumContribution */\n    tag_100:\n      sload(0x09)\n      dup2\n      jump\t// out\n        /* \"campaign.sol\":1638:1671  string public CampaignDescription */\n    tag_104:\n      0x03\n      dup1\n      sload\n      tag_168\n      swap1\n      tag_139\n      jump\t// in\n    tag_168:\n      dup1\n      0x1f\n      add\n      0x20\n      dup1\n      swap2\n      div\n      mul\n      0x20\n      add\n      mload(0x40)\n      swap1\n      dup2\n      add\n      0x40\n      mstore\n      dup1\n      swap3\n      swap2\n      swap1\n      dup2\n      dup2\n      mstore\n      0x20\n      add\n      dup3\n      dup1\n      sload\n      tag_169\n      swap1\n      tag_139\n      jump\t// in\n    tag_169:\n      dup1\n      iszero\n      tag_170\n      jumpi\n      dup1\n      0x1f\n      lt\n      tag_171\n      jumpi\n      0x0100\n      dup1\n      dup4\n      sload\n      div\n      mul\n      dup4\n      mstore\n      swap2\n      0x20\n      add\n      swap2\n      jump(tag_170)\n    tag_171:\n      dup3\n      add\n      swap2\n      swap1\n      0x00\n      mstore\n      keccak256(0x00, 0x20)\n      swap1\n    tag_172:\n      dup2\n      sload\n      dup2\n      mstore\n      swap1\n      0x01\n      add\n      swap1\n      0x20\n      add\n      dup1\n      dup4\n      gt\n      tag_172\n      jumpi\n      dup3\n      swap1\n      sub\n      0x1f\n      and\n      dup3\n      add\n      swap2\n    tag_170:\n      pop\n      pop\n      pop\n      pop\n      pop\n      dup2\n      jump\t// out\n        /* \"campaign.sol\":4687:5265  function getRefund() public inState(State.Expired) returns (bool) \r... */\n    tag_108:\n        /* \"campaign.sol\":4747:4751  bool */\n      0x00\n        /* \"campaign.sol\":4723:4736  State.Expired */\n      0x01\n        /* \"campaign.sol\":2310:2316  _state */\n      dup1\n        /* \"campaign.sol\":2301:2316  state == _state */\n      0x01\n      dup2\n      gt\n      iszero\n      tag_174\n      jumpi\n      mstore(0x00, 0x4e487b7100000000000000000000000000000000000000000000000000000000)\n      mstore(0x04, 0x21)\n      revert(0x00, 0x24)\n    tag_174:\n        /* \"campaign.sol\":2301:2306  state */\n      0x06\n      0x00\n      swap1\n      sload\n      swap1\n      0x0100\n      exp\n      swap1\n      div\n      0xff\n      and\n        /* \"campaign.sol\":2301:2316  state == _state */\n      0x01\n      dup2\n      gt\n      iszero\n      tag_175\n      jumpi\n      mstore(0x00, 0x4e487b7100000000000000000000000000000000000000000000000000000000)\n      mstore(0x04, 0x21)\n      revert(0x00, 0x24)\n    tag_175:\n      eq\n        /* \"campaign.sol\":2293:2317  require(state == _state) */\n      tag_176\n      jumpi\n      0x00\n      dup1\n      revert\n    tag_176:\n        /* \"campaign.sol\":4806:4807  0 */\n      0x00\n        /* \"campaign.sol\":4778:4791  contributions */\n      0x05\n        /* \"campaign.sol\":4778:4803  contributions[msg.sender] */\n      0x00\n        /* \"campaign.sol\":4792:4802  msg.sender */\n      caller\n        /* \"campaign.sol\":4778:4803  contributions[msg.sender] */\n      0xffffffffffffffffffffffffffffffffffffffff\n      and\n      0xffffffffffffffffffffffffffffffffffffffff\n      and\n      dup2\n      mstore\n      0x20\n      add\n      swap1\n      dup2\n      mstore\n      0x20\n      add\n      0x00\n      keccak256\n      sload\n        /* \"campaign.sol\":4778:4807  contributions[msg.sender] > 0 */\n      gt\n        /* \"campaign.sol\":4770:4808  require(contributions[msg.sender] > 0) */\n      tag_178\n      jumpi\n      0x00\n      dup1\n      revert\n    tag_178:\n        /* \"campaign.sol\":4847:4857  amountGoal */\n      sload(0x02)\n        /* \"campaign.sol\":4827:4844  totalContribution */\n      sload(0x04)\n        /* \"campaign.sol\":4827:4857  totalContribution < amountGoal */\n      lt\n        /* \"campaign.sol\":4819:4858  require(totalContribution < amountGoal) */\n      tag_179\n      jumpi\n      0x00\n      dup1\n      revert\n    tag_179:\n        /* \"campaign.sol\":4871:4890  uint amountToRefund */\n      0x00\n        /* \"campaign.sol\":4893:4906  contributions */\n      0x05\n        /* \"campaign.sol\":4893:4918  contributions[msg.sender] */\n      0x00\n        /* \"campaign.sol\":4907:4917  msg.sender */\n      caller\n        /* \"campaign.sol\":4893:4918  contributions[msg.sender] */\n      0xffffffffffffffffffffffffffffffffffffffff\n      and\n      0xffffffffffffffffffffffffffffffffffffffff\n      and\n      dup2\n      mstore\n      0x20\n      add\n      swap1\n      dup2\n      mstore\n      0x20\n      add\n      0x00\n      keccak256\n      sload\n        /* \"campaign.sol\":4871:4918  uint amountToRefund = contributions[msg.sender] */\n      swap1\n      pop\n        /* \"campaign.sol\":4957:4958  0 */\n      0x00\n        /* \"campaign.sol\":4929:4942  contributions */\n      0x05\n        /* \"campaign.sol\":4929:4954  contributions[msg.sender] */\n      0x00\n        /* \"campaign.sol\":4943:4953  msg.sender */\n      caller\n        /* \"campaign.sol\":4929:4954  contributions[msg.sender] */\n      0xffffffffffffffffffffffffffffffffffffffff\n      and\n      0xffffffffffffffffffffffffffffffffffffffff\n      and\n      dup2\n      mstore\n      0x20\n      add\n      swap1\n      dup2\n      mstore\n      0x20\n      add\n      0x00\n      keccak256\n        /* \"campaign.sol\":4929:4958  contributions[msg.sender] = 0 */\n      dup2\n      swap1\n      sstore\n      pop\n        /* \"campaign.sol\":4984:4994  msg.sender */\n      caller\n        /* \"campaign.sol\":4976:5000  payable(msg.sender).send */\n      0xffffffffffffffffffffffffffffffffffffffff\n      and\n        /* \"campaign.sol\":4976:5016  payable(msg.sender).send(amountToRefund) */\n      0x08fc\n        /* \"campaign.sol\":5001:5015  amountToRefund */\n      dup3\n        /* \"campaign.sol\":4976:5016  payable(msg.sender).send(amountToRefund) */\n      swap1\n      dup2\n      iszero\n      mul\n      swap1\n      mload(0x40)\n      0x00\n      mload(0x40)\n      dup1\n      dup4\n      sub\n      dup2\n      dup6\n      dup9\n      dup9\n      call\n      swap4\n      pop\n      pop\n      pop\n      pop\n        /* \"campaign.sol\":4971:5234  if (!payable(msg.sender).send(amountToRefund)) {\r... */\n      tag_181\n      jumpi\n        /* \"campaign.sol\":5061:5075  amountToRefund */\n      dup1\n        /* \"campaign.sol\":5033:5046  contributions */\n      0x05\n        /* \"campaign.sol\":5033:5058  contributions[msg.sender] */\n      0x00\n        /* \"campaign.sol\":5047:5057  msg.sender */\n      caller\n        /* \"campaign.sol\":5033:5058  contributions[msg.sender] */\n      0xffffffffffffffffffffffffffffffffffffffff\n      and\n      0xffffffffffffffffffffffffffffffffffffffff\n      and\n      dup2\n      mstore\n      0x20\n      add\n      swap1\n      dup2\n      mstore\n      0x20\n      add\n      0x00\n      keccak256\n        /* \"campaign.sol\":5033:5075  contributions[msg.sender] = amountToRefund */\n      dup2\n      swap1\n      sstore\n      pop\n        /* \"campaign.sol\":5097:5102  false */\n      0x00\n        /* \"campaign.sol\":5090:5102  return false */\n      swap3\n      pop\n      pop\n      jump(tag_177)\n        /* \"campaign.sol\":4971:5234  if (!payable(msg.sender).send(amountToRefund)) {\r... */\n    tag_181:\n        /* \"campaign.sol\":5176:5190  amountToRefund */\n      dup1\n        /* \"campaign.sol\":5155:5172  totalContribution */\n      sload(0x04)\n        /* \"campaign.sol\":5155:5191  totalContribution - (amountToRefund) */\n      tag_183\n      swap2\n      swap1\n      tag_184\n      jump\t// in\n    tag_183:\n        /* \"campaign.sol\":5135:5152  totalContribution */\n      0x04\n        /* \"campaign.sol\":5135:5191  totalContribution = totalContribution - (amountToRefund) */\n      dup2\n      swap1\n      sstore\n      pop\n        /* \"campaign.sol\":5206:5220  approversCount */\n      0x0d\n      0x00\n        /* \"campaign.sol\":5206:5222  approversCount-- */\n      dup2\n      sload\n      dup1\n      swap3\n      swap2\n      swap1\n      tag_185\n      swap1\n      tag_186\n      jump\t// in\n    tag_185:\n      swap2\n      swap1\n      pop\n      sstore\n      pop\n        /* \"campaign.sol\":5253:5257  true */\n      0x01\n        /* \"campaign.sol\":5246:5257  return true */\n      swap3\n      pop\n      pop\n        /* \"campaign.sol\":2328:2329  _ */\n    tag_177:\n        /* \"campaign.sol\":4687:5265  function getRefund() public inState(State.Expired) returns (bool) \r... */\n      pop\n      swap1\n      jump\t// out\n        /* \"campaign.sol\":1828:1866  State public state = State.Fundraising */\n    tag_112:\n      0x06\n      0x00\n      swap1\n      sload\n      swap1\n      0x0100\n      exp\n      swap1\n      div\n      0xff\n      and\n      dup2\n      jump\t// out\n        /* \"campaign.sol\":1973:1999  uint public currentBalance */\n    tag_117:\n      sload(0x08)\n      dup2\n      jump\t// out\n        /* \"campaign.sol\":2985:3453  function contribute() external payable inState(State.Fundraising) {\r... */\n    tag_120:\n        /* \"campaign.sol\":3032:3049  State.Fundraising */\n      0x00\n        /* \"campaign.sol\":2310:2316  _state */\n      dup1\n        /* \"campaign.sol\":2301:2316  state == _state */\n      0x01\n      dup2\n      gt\n      iszero\n      tag_188\n      jumpi\n      mstore(0x00, 0x4e487b7100000000000000000000000000000000000000000000000000000000)\n      mstore(0x04, 0x21)\n      revert(0x00, 0x24)\n    tag_188:\n        /* \"campaign.sol\":2301:2306  state */\n      0x06\n      0x00\n      swap1\n      sload\n      swap1\n      0x0100\n      exp\n      swap1\n      div\n      0xff\n      and\n        /* \"campaign.sol\":2301:2316  state == _state */\n      0x01\n      dup2\n      gt\n      iszero\n      tag_189\n      jumpi\n      mstore(0x00, 0x4e487b7100000000000000000000000000000000000000000000000000000000)\n      mstore(0x04, 0x21)\n      revert(0x00, 0x24)\n    tag_189:\n      eq\n        /* \"campaign.sol\":2293:2317  require(state == _state) */\n      tag_190\n      jumpi\n      0x00\n      dup1\n      revert\n    tag_190:\n        /* \"campaign.sol\":3084:3091  manager */\n      0x00\n      dup1\n      sload\n      swap1\n      0x0100\n      exp\n      swap1\n      div\n      0xffffffffffffffffffffffffffffffffffffffff\n      and\n        /* \"campaign.sol\":3070:3091  msg.sender != manager */\n      0xffffffffffffffffffffffffffffffffffffffff\n      and\n        /* \"campaign.sol\":3070:3080  msg.sender */\n      caller\n        /* \"campaign.sol\":3070:3091  msg.sender != manager */\n      0xffffffffffffffffffffffffffffffffffffffff\n      and\n      eq\n      iszero\n        /* \"campaign.sol\":3062:3092  require(msg.sender != manager) */\n      tag_192\n      jumpi\n      0x00\n      dup1\n      revert\n    tag_192:\n        /* \"campaign.sol\":3124:3143  minimumContribution */\n      sload(0x09)\n        /* \"campaign.sol\":3111:3120  msg.value */\n      callvalue\n        /* \"campaign.sol\":3111:3143  msg.value >= minimumContribution */\n      lt\n      iszero\n        /* \"campaign.sol\":3103:3144  require(msg.value >= minimumContribution) */\n      tag_193\n      jumpi\n      0x00\n      dup1\n      revert\n    tag_193:\n        /* \"campaign.sol\":3212:3221  msg.value */\n      callvalue\n        /* \"campaign.sol\":3183:3196  contributions */\n      0x05\n        /* \"campaign.sol\":3183:3208  contributions[msg.sender] */\n      0x00\n        /* \"campaign.sol\":3197:3207  msg.sender */\n      caller\n        /* \"campaign.sol\":3183:3208  contributions[msg.sender] */\n      0xffffffffffffffffffffffffffffffffffffffff\n      and\n      0xffffffffffffffffffffffffffffffffffffffff\n      and\n      dup2\n      mstore\n      0x20\n      add\n      swap1\n      dup2\n      mstore\n      0x20\n      add\n      0x00\n      keccak256\n      sload\n        /* \"campaign.sol\":3183:3222  contributions[msg.sender] + (msg.value) */\n      tag_194\n      swap2\n      swap1\n      tag_195\n      jump\t// in\n    tag_194:\n        /* \"campaign.sol\":3155:3168  contributions */\n      0x05\n        /* \"campaign.sol\":3155:3180  contributions[msg.sender] */\n      0x00\n        /* \"campaign.sol\":3169:3179  msg.sender */\n      caller\n        /* \"campaign.sol\":3155:3180  contributions[msg.sender] */\n      0xffffffffffffffffffffffffffffffffffffffff\n      and\n      0xffffffffffffffffffffffffffffffffffffffff\n      and\n      dup2\n      mstore\n      0x20\n      add\n      swap1\n      dup2\n      mstore\n      0x20\n      add\n      0x00\n      keccak256\n        /* \"campaign.sol\":3155:3222  contributions[msg.sender] = contributions[msg.sender] + (msg.value) */\n      dup2\n      swap1\n      sstore\n      pop\n        /* \"campaign.sol\":3257:3261  true */\n      0x01\n        /* \"campaign.sol\":3233:3242  approvers */\n      0x0a\n        /* \"campaign.sol\":3233:3254  approvers[msg.sender] */\n      0x00\n        /* \"campaign.sol\":3243:3253  msg.sender */\n      caller\n        /* \"campaign.sol\":3233:3254  approvers[msg.sender] */\n      0xffffffffffffffffffffffffffffffffffffffff\n      and\n      0xffffffffffffffffffffffffffffffffffffffff\n      and\n      dup2\n      mstore\n      0x20\n      add\n      swap1\n      dup2\n      mstore\n      0x20\n      add\n      0x00\n      keccak256\n      0x00\n        /* \"campaign.sol\":3233:3261  approvers[msg.sender] = true */\n      0x0100\n      exp\n      dup2\n      sload\n      dup2\n      0xff\n      mul\n      not\n      and\n      swap1\n      dup4\n      iszero\n      iszero\n      mul\n      or\n      swap1\n      sstore\n      pop\n        /* \"campaign.sol\":3272:3286  approversCount */\n      0x0d\n      0x00\n        /* \"campaign.sol\":3272:3288  approversCount++ */\n      dup2\n      sload\n      dup1\n      swap3\n      swap2\n      swap1\n      tag_196\n      swap1\n      tag_167\n      jump\t// in\n    tag_196:\n      swap2\n      swap1\n      pop\n      sstore\n      pop\n        /* \"campaign.sol\":3339:3348  msg.value */\n      callvalue\n        /* \"campaign.sol\":3319:3336  totalContribution */\n      sload(0x04)\n        /* \"campaign.sol\":3319:3348  totalContribution + msg.value */\n      tag_197\n      swap2\n      swap1\n      tag_195\n      jump\t// in\n    tag_197:\n        /* \"campaign.sol\":3299:3316  totalContribution */\n      0x04\n        /* \"campaign.sol\":3299:3348  totalContribution = totalContribution + msg.value */\n      dup2\n      swap1\n      sstore\n      pop\n        /* \"campaign.sol\":3401:3410  msg.value */\n      callvalue\n        /* \"campaign.sol\":3383:3397  currentBalance */\n      sload(0x08)\n        /* \"campaign.sol\":3383:3411  currentBalance + (msg.value) */\n      tag_198\n      swap2\n      swap1\n      tag_195\n      jump\t// in\n    tag_198:\n        /* \"campaign.sol\":3366:3380  currentBalance */\n      0x08\n        /* \"campaign.sol\":3366:3411  currentBalance = currentBalance + (msg.value) */\n      dup2\n      swap1\n      sstore\n      pop\n        /* \"campaign.sol\":3422:3445  checkIfFundingExpired() */\n      tag_199\n        /* \"campaign.sol\":3422:3443  checkIfFundingExpired */\n      tag_54\n        /* \"campaign.sol\":3422:3445  checkIfFundingExpired() */\n      jump\t// in\n    tag_199:\n        /* \"campaign.sol\":2985:3453  function contribute() external payable inState(State.Fundraising) {\r... */\n      pop\n      jump\t// out\n        /* \"campaign.sol\":3930:4225  function approveRequest(uint index) public {\r... */\n    tag_124:\n        /* \"campaign.sol\":3984:4007  Request storage request */\n      0x00\n        /* \"campaign.sol\":4010:4018  requests */\n      0x0b\n        /* \"campaign.sol\":4010:4025  requests[index] */\n      0x00\n        /* \"campaign.sol\":4019:4024  index */\n      dup4\n        /* \"campaign.sol\":4010:4025  requests[index] */\n      dup2\n      mstore\n      0x20\n      add\n      swap1\n      dup2\n      mstore\n      0x20\n      add\n      0x00\n      keccak256\n        /* \"campaign.sol\":3984:4025  Request storage request = requests[index] */\n      swap1\n      pop\n        /* \"campaign.sol\":4054:4063  approvers */\n      0x0a\n        /* \"campaign.sol\":4054:4075  approvers[msg.sender] */\n      0x00\n        /* \"campaign.sol\":4064:4074  msg.sender */\n      caller\n        /* \"campaign.sol\":4054:4075  approvers[msg.sender] */\n      0xffffffffffffffffffffffffffffffffffffffff\n      and\n      0xffffffffffffffffffffffffffffffffffffffff\n      and\n      dup2\n      mstore\n      0x20\n      add\n      swap1\n      dup2\n      mstore\n      0x20\n      add\n      0x00\n      keccak256\n      0x00\n      swap1\n      sload\n      swap1\n      0x0100\n      exp\n      swap1\n      div\n      0xff\n      and\n        /* \"campaign.sol\":4046:4076  require(approvers[msg.sender]) */\n      tag_201\n      jumpi\n      0x00\n      dup1\n      revert\n    tag_201:\n        /* \"campaign.sol\":4096:4103  request */\n      dup1\n        /* \"campaign.sol\":4096:4113  request.approvals */\n      0x04\n      add\n        /* \"campaign.sol\":4096:4125  request.approvals[msg.sender] */\n      0x00\n        /* \"campaign.sol\":4114:4124  msg.sender */\n      caller\n        /* \"campaign.sol\":4096:4125  request.approvals[msg.sender] */\n      0xffffffffffffffffffffffffffffffffffffffff\n      and\n      0xffffffffffffffffffffffffffffffffffffffff\n      and\n      dup2\n      mstore\n      0x20\n      add\n      swap1\n      dup2\n      mstore\n      0x20\n      add\n      0x00\n      keccak256\n      0x00\n      swap1\n      sload\n      swap1\n      0x0100\n      exp\n      swap1\n      div\n      0xff\n      and\n        /* \"campaign.sol\":4095:4125  !request.approvals[msg.sender] */\n      iszero\n        /* \"campaign.sol\":4087:4126  require(!request.approvals[msg.sender]) */\n      tag_202\n      jumpi\n      0x00\n      dup1\n      revert\n    tag_202:\n        /* \"campaign.sol\":4179:4183  true */\n      0x01\n        /* \"campaign.sol\":4147:4154  request */\n      dup2\n        /* \"campaign.sol\":4147:4164  request.approvals */\n      0x04\n      add\n        /* \"campaign.sol\":4147:4176  request.approvals[msg.sender] */\n      0x00\n        /* \"campaign.sol\":4165:4175  msg.sender */\n      caller\n        /* \"campaign.sol\":4147:4176  request.approvals[msg.sender] */\n      0xffffffffffffffffffffffffffffffffffffffff\n      and\n      0xffffffffffffffffffffffffffffffffffffffff\n      and\n      dup2\n      mstore\n      0x20\n      add\n      swap1\n      dup2\n      mstore\n      0x20\n      add\n      0x00\n      keccak256\n      0x00\n        /* \"campaign.sol\":4147:4183  request.approvals[msg.sender] = true */\n      0x0100\n      exp\n      dup2\n      sload\n      dup2\n      0xff\n      mul\n      not\n      and\n      swap1\n      dup4\n      iszero\n      iszero\n      mul\n      or\n      swap1\n      sstore\n      pop\n        /* \"campaign.sol\":4194:4201  request */\n      dup1\n        /* \"campaign.sol\":4194:4215  request.approvalCount */\n      0x03\n      add\n      0x00\n        /* \"campaign.sol\":4194:4217  request.approvalCount++ */\n      dup2\n      sload\n      dup1\n      swap3\n      swap2\n      swap1\n      tag_203\n      swap1\n      tag_167\n      jump\t// in\n    tag_203:\n      swap2\n      swap1\n      pop\n      sstore\n      pop\n        /* \"campaign.sol\":3930:4225  function approveRequest(uint index) public {\r... */\n      pop\n      pop\n      jump\t// out\n    tag_165:\n      dup3\n      dup1\n      sload\n      tag_204\n      swap1\n      tag_139\n      jump\t// in\n    tag_204:\n      swap1\n      0x00\n      mstore\n      keccak256(0x00, 0x20)\n      swap1\n      0x1f\n      add\n      0x20\n      swap1\n      div\n      dup2\n      add\n      swap3\n      dup3\n      tag_206\n      jumpi\n      0x00\n      dup6\n      sstore\n      jump(tag_205)\n    tag_206:\n      dup3\n      0x1f\n      lt\n      tag_207\n      jumpi\n      dup1\n      mload\n      not(0xff)\n      and\n      dup4\n      dup1\n      add\n      or\n      dup6\n      sstore\n      jump(tag_205)\n    tag_207:\n      dup3\n      dup1\n      add\n      0x01\n      add\n      dup6\n      sstore\n      dup3\n      iszero\n      tag_205\n      jumpi\n      swap2\n      dup3\n      add\n    tag_208:\n      dup3\n      dup2\n      gt\n      iszero\n      tag_209\n      jumpi\n      dup3\n      mload\n      dup3\n      sstore\n      swap2\n      0x20\n      add\n      swap2\n      swap1\n      0x01\n      add\n      swap1\n      jump(tag_208)\n    tag_209:\n    tag_205:\n      pop\n      swap1\n      pop\n      tag_210\n      swap2\n      swap1\n      tag_211\n      jump\t// in\n    tag_210:\n      pop\n      swap1\n      jump\t// out\n    tag_211:\n    tag_212:\n      dup1\n      dup3\n      gt\n      iszero\n      tag_213\n      jumpi\n      0x00\n      dup2\n      0x00\n      swap1\n      sstore\n      pop\n      0x01\n      add\n      jump(tag_212)\n    tag_213:\n      pop\n      swap1\n      jump\t// out\n        /* \"#utility.yul\":7:352   */\n    tag_215:\n        /* \"#utility.yul\":85:90   */\n      0x00\n        /* \"#utility.yul\":110:176   */\n      tag_217\n        /* \"#utility.yul\":126:175   */\n      tag_218\n        /* \"#utility.yul\":168:174   */\n      dup5\n        /* \"#utility.yul\":126:175   */\n      tag_219\n      jump\t// in\n    tag_218:\n        /* \"#utility.yul\":110:176   */\n      tag_220\n      jump\t// in\n    tag_217:\n        /* \"#utility.yul\":101:176   */\n      swap1\n      pop\n        /* \"#utility.yul\":199:205   */\n      dup3\n        /* \"#utility.yul\":192:197   */\n      dup2\n        /* \"#utility.yul\":185:206   */\n      mstore\n        /* \"#utility.yul\":237:241   */\n      0x20\n        /* \"#utility.yul\":230:235   */\n      dup2\n        /* \"#utility.yul\":226:242   */\n      add\n        /* \"#utility.yul\":275:278   */\n      dup5\n        /* \"#utility.yul\":266:272   */\n      dup5\n        /* \"#utility.yul\":261:264   */\n      dup5\n        /* \"#utility.yul\":257:273   */\n      add\n        /* \"#utility.yul\":254:279   */\n      gt\n        /* \"#utility.yul\":251:253   */\n      iszero\n      tag_221\n      jumpi\n        /* \"#utility.yul\":292:293   */\n      0x00\n        /* \"#utility.yul\":289:290   */\n      dup1\n        /* \"#utility.yul\":282:294   */\n      revert\n        /* \"#utility.yul\":251:253   */\n    tag_221:\n        /* \"#utility.yul\":305:346   */\n      tag_222\n        /* \"#utility.yul\":339:345   */\n      dup5\n        /* \"#utility.yul\":334:337   */\n      dup3\n        /* \"#utility.yul\":329:332   */\n      dup6\n        /* \"#utility.yul\":305:346   */\n      tag_223\n      jump\t// in\n    tag_222:\n        /* \"#utility.yul\":91:352   */\n      pop\n      swap4\n      swap3\n      pop\n      pop\n      pop\n      jump\t// out\n        /* \"#utility.yul\":358:497   */\n    tag_224:\n        /* \"#utility.yul\":404:409   */\n      0x00\n        /* \"#utility.yul\":442:448   */\n      dup2\n        /* \"#utility.yul\":429:449   */\n      calldataload\n        /* \"#utility.yul\":420:449   */\n      swap1\n      pop\n        /* \"#utility.yul\":458:491   */\n      tag_226\n        /* \"#utility.yul\":485:490   */\n      dup2\n        /* \"#utility.yul\":458:491   */\n      tag_227\n      jump\t// in\n    tag_226:\n        /* \"#utility.yul\":410:497   */\n      swap3\n      swap2\n      pop\n      pop\n      jump\t// out\n        /* \"#utility.yul\":517:790   */\n    tag_228:\n        /* \"#utility.yul\":573:578   */\n      0x00\n        /* \"#utility.yul\":622:625   */\n      dup3\n        /* \"#utility.yul\":615:619   */\n      0x1f\n        /* \"#utility.yul\":607:613   */\n      dup4\n        /* \"#utility.yul\":603:620   */\n      add\n        /* \"#utility.yul\":599:626   */\n      slt\n        /* \"#utility.yul\":589:591   */\n      tag_230\n      jumpi\n        /* \"#utility.yul\":640:641   */\n      0x00\n        /* \"#utility.yul\":637:638   */\n      dup1\n        /* \"#utility.yul\":630:642   */\n      revert\n        /* \"#utility.yul\":589:591   */\n    tag_230:\n        /* \"#utility.yul\":680:686   */\n      dup2\n        /* \"#utility.yul\":667:687   */\n      calldataload\n        /* \"#utility.yul\":705:784   */\n      tag_231\n        /* \"#utility.yul\":780:783   */\n      dup5\n        /* \"#utility.yul\":772:778   */\n      dup3\n        /* \"#utility.yul\":765:769   */\n      0x20\n        /* \"#utility.yul\":757:763   */\n      dup7\n        /* \"#utility.yul\":753:770   */\n      add\n        /* \"#utility.yul\":705:784   */\n      tag_215\n      jump\t// in\n    tag_231:\n        /* \"#utility.yul\":696:784   */\n      swap2\n      pop\n        /* \"#utility.yul\":579:790   */\n      pop\n      swap3\n      swap2\n      pop\n      pop\n      jump\t// out\n        /* \"#utility.yul\":796:935   */\n    tag_232:\n        /* \"#utility.yul\":842:847   */\n      0x00\n        /* \"#utility.yul\":880:886   */\n      dup2\n        /* \"#utility.yul\":867:887   */\n      calldataload\n        /* \"#utility.yul\":858:887   */\n      swap1\n      pop\n        /* \"#utility.yul\":896:929   */\n      tag_234\n        /* \"#utility.yul\":923:928   */\n      dup2\n        /* \"#utility.yul\":896:929   */\n      tag_235\n      jump\t// in\n    tag_234:\n        /* \"#utility.yul\":848:935   */\n      swap3\n      swap2\n      pop\n      pop\n      jump\t// out\n        /* \"#utility.yul\":941:1203   */\n    tag_44:\n        /* \"#utility.yul\":1000:1006   */\n      0x00\n        /* \"#utility.yul\":1049:1051   */\n      0x20\n        /* \"#utility.yul\":1037:1046   */\n      dup3\n        /* \"#utility.yul\":1028:1035   */\n      dup5\n        /* \"#utility.yul\":1024:1047   */\n      sub\n        /* \"#utility.yul\":1020:1052   */\n      slt\n        /* \"#utility.yul\":1017:1019   */\n      iszero\n      tag_237\n      jumpi\n        /* \"#utility.yul\":1065:1066   */\n      0x00\n        /* \"#utility.yul\":1062:1063   */\n      dup1\n        /* \"#utility.yul\":1055:1067   */\n      revert\n        /* \"#utility.yul\":1017:1019   */\n    tag_237:\n        /* \"#utility.yul\":1108:1109   */\n      0x00\n        /* \"#utility.yul\":1133:1186   */\n      tag_238\n        /* \"#utility.yul\":1178:1185   */\n      dup5\n        /* \"#utility.yul\":1169:1175   */\n      dup3\n        /* \"#utility.yul\":1158:1167   */\n      dup6\n        /* \"#utility.yul\":1154:1176   */\n      add\n        /* \"#utility.yul\":1133:1186   */\n      tag_224\n      jump\t// in\n    tag_238:\n        /* \"#utility.yul\":1123:1186   */\n      swap2\n      pop\n        /* \"#utility.yul\":1079:1196   */\n      pop\n        /* \"#utility.yul\":1007:1203   */\n      swap3\n      swap2\n      pop\n      pop\n      jump\t// out\n        /* \"#utility.yul\":1209:1874   */\n    tag_96:\n        /* \"#utility.yul\":1296:1302   */\n      0x00\n        /* \"#utility.yul\":1304:1310   */\n      dup1\n        /* \"#utility.yul\":1312:1318   */\n      0x00\n        /* \"#utility.yul\":1361:1363   */\n      0x60\n        /* \"#utility.yul\":1349:1358   */\n      dup5\n        /* \"#utility.yul\":1340:1347   */\n      dup7\n        /* \"#utility.yul\":1336:1359   */\n      sub\n        /* \"#utility.yul\":1332:1364   */\n      slt\n        /* \"#utility.yul\":1329:1331   */\n      iszero\n      tag_240\n      jumpi\n        /* \"#utility.yul\":1377:1378   */\n      0x00\n        /* \"#utility.yul\":1374:1375   */\n      dup1\n        /* \"#utility.yul\":1367:1379   */\n      revert\n        /* \"#utility.yul\":1329:1331   */\n    tag_240:\n        /* \"#utility.yul\":1448:1449   */\n      0x00\n        /* \"#utility.yul\":1437:1446   */\n      dup5\n        /* \"#utility.yul\":1433:1450   */\n      add\n        /* \"#utility.yul\":1420:1451   */\n      calldataload\n        /* \"#utility.yul\":1478:1496   */\n      0xffffffffffffffff\n        /* \"#utility.yul\":1470:1476   */\n      dup2\n        /* \"#utility.yul\":1467:1497   */\n      gt\n        /* \"#utility.yul\":1464:1466   */\n      iszero\n      tag_241\n      jumpi\n        /* \"#utility.yul\":1510:1511   */\n      0x00\n        /* \"#utility.yul\":1507:1508   */\n      dup1\n        /* \"#utility.yul\":1500:1512   */\n      revert\n        /* \"#utility.yul\":1464:1466   */\n    tag_241:\n        /* \"#utility.yul\":1538:1601   */\n      tag_242\n        /* \"#utility.yul\":1593:1600   */\n      dup7\n        /* \"#utility.yul\":1584:1590   */\n      dup3\n        /* \"#utility.yul\":1573:1582   */\n      dup8\n        /* \"#utility.yul\":1569:1591   */\n      add\n        /* \"#utility.yul\":1538:1601   */\n      tag_228\n      jump\t// in\n    tag_242:\n        /* \"#utility.yul\":1528:1601   */\n      swap4\n      pop\n        /* \"#utility.yul\":1391:1611   */\n      pop\n        /* \"#utility.yul\":1650:1652   */\n      0x20\n        /* \"#utility.yul\":1676:1729   */\n      tag_243\n        /* \"#utility.yul\":1721:1728   */\n      dup7\n        /* \"#utility.yul\":1712:1718   */\n      dup3\n        /* \"#utility.yul\":1701:1710   */\n      dup8\n        /* \"#utility.yul\":1697:1719   */\n      add\n        /* \"#utility.yul\":1676:1729   */\n      tag_232\n      jump\t// in\n    tag_243:\n        /* \"#utility.yul\":1666:1729   */\n      swap3\n      pop\n        /* \"#utility.yul\":1621:1739   */\n      pop\n        /* \"#utility.yul\":1778:1780   */\n      0x40\n        /* \"#utility.yul\":1804:1857   */\n      tag_244\n        /* \"#utility.yul\":1849:1856   */\n      dup7\n        /* \"#utility.yul\":1840:1846   */\n      dup3\n        /* \"#utility.yul\":1829:1838   */\n      dup8\n        /* \"#utility.yul\":1825:1847   */\n      add\n        /* \"#utility.yul\":1804:1857   */\n      tag_224\n      jump\t// in\n    tag_244:\n        /* \"#utility.yul\":1794:1857   */\n      swap2\n      pop\n        /* \"#utility.yul\":1749:1867   */\n      pop\n        /* \"#utility.yul\":1319:1874   */\n      swap3\n      pop\n      swap3\n      pop\n      swap3\n      jump\t// out\n        /* \"#utility.yul\":1880:2142   */\n    tag_30:\n        /* \"#utility.yul\":1939:1945   */\n      0x00\n        /* \"#utility.yul\":1988:1990   */\n      0x20\n        /* \"#utility.yul\":1976:1985   */\n      dup3\n        /* \"#utility.yul\":1967:1974   */\n      dup5\n        /* \"#utility.yul\":1963:1986   */\n      sub\n        /* \"#utility.yul\":1959:1991   */\n      slt\n        /* \"#utility.yul\":1956:1958   */\n      iszero\n      tag_246\n      jumpi\n        /* \"#utility.yul\":2004:2005   */\n      0x00\n        /* \"#utility.yul\":2001:2002   */\n      dup1\n        /* \"#utility.yul\":1994:2006   */\n      revert\n        /* \"#utility.yul\":1956:1958   */\n    tag_246:\n        /* \"#utility.yul\":2047:2048   */\n      0x00\n        /* \"#utility.yul\":2072:2125   */\n      tag_247\n        /* \"#utility.yul\":2117:2124   */\n      dup5\n        /* \"#utility.yul\":2108:2114   */\n      dup3\n        /* \"#utility.yul\":2097:2106   */\n      dup6\n        /* \"#utility.yul\":2093:2115   */\n      add\n        /* \"#utility.yul\":2072:2125   */\n      tag_232\n      jump\t// in\n    tag_247:\n        /* \"#utility.yul\":2062:2125   */\n      swap2\n      pop\n        /* \"#utility.yul\":2018:2135   */\n      pop\n        /* \"#utility.yul\":1946:2142   */\n      swap3\n      swap2\n      pop\n      pop\n      jump\t// out\n        /* \"#utility.yul\":2148:2266   */\n    tag_248:\n        /* \"#utility.yul\":2235:2259   */\n      tag_250\n        /* \"#utility.yul\":2253:2258   */\n      dup2\n        /* \"#utility.yul\":2235:2259   */\n      tag_251\n      jump\t// in\n    tag_250:\n        /* \"#utility.yul\":2230:2233   */\n      dup3\n        /* \"#utility.yul\":2223:2260   */\n      mstore\n        /* \"#utility.yul\":2213:2266   */\n      pop\n      pop\n      jump\t// out\n        /* \"#utility.yul\":2272:2381   */\n    tag_252:\n        /* \"#utility.yul\":2353:2374   */\n      tag_254\n        /* \"#utility.yul\":2368:2373   */\n      dup2\n        /* \"#utility.yul\":2353:2374   */\n      tag_255\n      jump\t// in\n    tag_254:\n        /* \"#utility.yul\":2348:2351   */\n      dup3\n        /* \"#utility.yul\":2341:2375   */\n      mstore\n        /* \"#utility.yul\":2331:2381   */\n      pop\n      pop\n      jump\t// out\n        /* \"#utility.yul\":2387:2532   */\n    tag_256:\n        /* \"#utility.yul\":2481:2525   */\n      tag_258\n        /* \"#utility.yul\":2519:2524   */\n      dup2\n        /* \"#utility.yul\":2481:2525   */\n      tag_259\n      jump\t// in\n    tag_258:\n        /* \"#utility.yul\":2476:2479   */\n      dup3\n        /* \"#utility.yul\":2469:2526   */\n      mstore\n        /* \"#utility.yul\":2459:2532   */\n      pop\n      pop\n      jump\t// out\n        /* \"#utility.yul\":2538:2902   */\n    tag_260:\n        /* \"#utility.yul\":2626:2629   */\n      0x00\n        /* \"#utility.yul\":2654:2693   */\n      tag_262\n        /* \"#utility.yul\":2687:2692   */\n      dup3\n        /* \"#utility.yul\":2654:2693   */\n      tag_263\n      jump\t// in\n    tag_262:\n        /* \"#utility.yul\":2709:2780   */\n      tag_264\n        /* \"#utility.yul\":2773:2779   */\n      dup2\n        /* \"#utility.yul\":2768:2771   */\n      dup6\n        /* \"#utility.yul\":2709:2780   */\n      tag_265\n      jump\t// in\n    tag_264:\n        /* \"#utility.yul\":2702:2780   */\n      swap4\n      pop\n        /* \"#utility.yul\":2789:2841   */\n      tag_266\n        /* \"#utility.yul\":2834:2840   */\n      dup2\n        /* \"#utility.yul\":2829:2832   */\n      dup6\n        /* \"#utility.yul\":2822:2826   */\n      0x20\n        /* \"#utility.yul\":2815:2820   */\n      dup7\n        /* \"#utility.yul\":2811:2827   */\n      add\n        /* \"#utility.yul\":2789:2841   */\n      tag_267\n      jump\t// in\n    tag_266:\n        /* \"#utility.yul\":2866:2895   */\n      tag_268\n        /* \"#utility.yul\":2888:2894   */\n      dup2\n        /* \"#utility.yul\":2866:2895   */\n      tag_269\n      jump\t// in\n    tag_268:\n        /* \"#utility.yul\":2861:2864   */\n      dup5\n        /* \"#utility.yul\":2857:2896   */\n      add\n        /* \"#utility.yul\":2850:2896   */\n      swap2\n      pop\n        /* \"#utility.yul\":2630:2902   */\n      pop\n      swap3\n      swap2\n      pop\n      pop\n      jump\t// out\n        /* \"#utility.yul\":2908:3026   */\n    tag_270:\n        /* \"#utility.yul\":2995:3019   */\n      tag_272\n        /* \"#utility.yul\":3013:3018   */\n      dup2\n        /* \"#utility.yul\":2995:3019   */\n      tag_273\n      jump\t// in\n    tag_272:\n        /* \"#utility.yul\":2990:2993   */\n      dup3\n        /* \"#utility.yul\":2983:3020   */\n      mstore\n        /* \"#utility.yul\":2973:3026   */\n      pop\n      pop\n      jump\t// out\n        /* \"#utility.yul\":3032:3254   */\n    tag_78:\n        /* \"#utility.yul\":3125:3129   */\n      0x00\n        /* \"#utility.yul\":3163:3165   */\n      0x20\n        /* \"#utility.yul\":3152:3161   */\n      dup3\n        /* \"#utility.yul\":3148:3166   */\n      add\n        /* \"#utility.yul\":3140:3166   */\n      swap1\n      pop\n        /* \"#utility.yul\":3176:3247   */\n      tag_275\n        /* \"#utility.yul\":3244:3245   */\n      0x00\n        /* \"#utility.yul\":3233:3242   */\n      dup4\n        /* \"#utility.yul\":3229:3246   */\n      add\n        /* \"#utility.yul\":3220:3226   */\n      dup5\n        /* \"#utility.yul\":3176:3247   */\n      tag_248\n      jump\t// in\n    tag_275:\n        /* \"#utility.yul\":3130:3254   */\n      swap3\n      swap2\n      pop\n      pop\n      jump\t// out\n        /* \"#utility.yul\":3260:3470   */\n    tag_47:\n        /* \"#utility.yul\":3347:3351   */\n      0x00\n        /* \"#utility.yul\":3385:3387   */\n      0x20\n        /* \"#utility.yul\":3374:3383   */\n      dup3\n        /* \"#utility.yul\":3370:3388   */\n      add\n        /* \"#utility.yul\":3362:3388   */\n      swap1\n      pop\n        /* \"#utility.yul\":3398:3463   */\n      tag_277\n        /* \"#utility.yul\":3460:3461   */\n      0x00\n        /* \"#utility.yul\":3449:3458   */\n      dup4\n        /* \"#utility.yul\":3445:3462   */\n      add\n        /* \"#utility.yul\":3436:3442   */\n      dup5\n        /* \"#utility.yul\":3398:3463   */\n      tag_252\n      jump\t// in\n    tag_277:\n        /* \"#utility.yul\":3352:3470   */\n      swap3\n      swap2\n      pop\n      pop\n      jump\t// out\n        /* \"#utility.yul\":3476:3712   */\n    tag_114:\n        /* \"#utility.yul\":3576:3580   */\n      0x00\n        /* \"#utility.yul\":3614:3616   */\n      0x20\n        /* \"#utility.yul\":3603:3612   */\n      dup3\n        /* \"#utility.yul\":3599:3617   */\n      add\n        /* \"#utility.yul\":3591:3617   */\n      swap1\n      pop\n        /* \"#utility.yul\":3627:3705   */\n      tag_279\n        /* \"#utility.yul\":3702:3703   */\n      0x00\n        /* \"#utility.yul\":3691:3700   */\n      dup4\n        /* \"#utility.yul\":3687:3704   */\n      add\n        /* \"#utility.yul\":3678:3684   */\n      dup5\n        /* \"#utility.yul\":3627:3705   */\n      tag_256\n      jump\t// in\n    tag_279:\n        /* \"#utility.yul\":3581:3712   */\n      swap3\n      swap2\n      pop\n      pop\n      jump\t// out\n        /* \"#utility.yul\":3718:4031   */\n    tag_59:\n        /* \"#utility.yul\":3831:3835   */\n      0x00\n        /* \"#utility.yul\":3869:3871   */\n      0x20\n        /* \"#utility.yul\":3858:3867   */\n      dup3\n        /* \"#utility.yul\":3854:3872   */\n      add\n        /* \"#utility.yul\":3846:3872   */\n      swap1\n      pop\n        /* \"#utility.yul\":3918:3927   */\n      dup2\n        /* \"#utility.yul\":3912:3916   */\n      dup2\n        /* \"#utility.yul\":3908:3928   */\n      sub\n        /* \"#utility.yul\":3904:3905   */\n      0x00\n        /* \"#utility.yul\":3893:3902   */\n      dup4\n        /* \"#utility.yul\":3889:3906   */\n      add\n        /* \"#utility.yul\":3882:3929   */\n      mstore\n        /* \"#utility.yul\":3946:4024   */\n      tag_281\n        /* \"#utility.yul\":4019:4023   */\n      dup2\n        /* \"#utility.yul\":4010:4016   */\n      dup5\n        /* \"#utility.yul\":3946:4024   */\n      tag_260\n      jump\t// in\n    tag_281:\n        /* \"#utility.yul\":3938:4024   */\n      swap1\n      pop\n        /* \"#utility.yul\":3836:4031   */\n      swap3\n      swap2\n      pop\n      pop\n      jump\t// out\n        /* \"#utility.yul\":4037:4780   */\n    tag_88:\n        /* \"#utility.yul\":4256:4260   */\n      0x00\n        /* \"#utility.yul\":4294:4297   */\n      0xa0\n        /* \"#utility.yul\":4283:4292   */\n      dup3\n        /* \"#utility.yul\":4279:4298   */\n      add\n        /* \"#utility.yul\":4271:4298   */\n      swap1\n      pop\n        /* \"#utility.yul\":4344:4353   */\n      dup2\n        /* \"#utility.yul\":4338:4342   */\n      dup2\n        /* \"#utility.yul\":4334:4354   */\n      sub\n        /* \"#utility.yul\":4330:4331   */\n      0x00\n        /* \"#utility.yul\":4319:4328   */\n      dup4\n        /* \"#utility.yul\":4315:4332   */\n      add\n        /* \"#utility.yul\":4308:4355   */\n      mstore\n        /* \"#utility.yul\":4372:4450   */\n      tag_283\n        /* \"#utility.yul\":4445:4449   */\n      dup2\n        /* \"#utility.yul\":4436:4442   */\n      dup9\n        /* \"#utility.yul\":4372:4450   */\n      tag_260\n      jump\t// in\n    tag_283:\n        /* \"#utility.yul\":4364:4450   */\n      swap1\n      pop\n        /* \"#utility.yul\":4460:4532   */\n      tag_284\n        /* \"#utility.yul\":4528:4530   */\n      0x20\n        /* \"#utility.yul\":4517:4526   */\n      dup4\n        /* \"#utility.yul\":4513:4531   */\n      add\n        /* \"#utility.yul\":4504:4510   */\n      dup8\n        /* \"#utility.yul\":4460:4532   */\n      tag_270\n      jump\t// in\n    tag_284:\n        /* \"#utility.yul\":4542:4614   */\n      tag_285\n        /* \"#utility.yul\":4610:4612   */\n      0x40\n        /* \"#utility.yul\":4599:4608   */\n      dup4\n        /* \"#utility.yul\":4595:4613   */\n      add\n        /* \"#utility.yul\":4586:4592   */\n      dup7\n        /* \"#utility.yul\":4542:4614   */\n      tag_248\n      jump\t// in\n    tag_285:\n        /* \"#utility.yul\":4624:4690   */\n      tag_286\n        /* \"#utility.yul\":4686:4688   */\n      0x60\n        /* \"#utility.yul\":4675:4684   */\n      dup4\n        /* \"#utility.yul\":4671:4689   */\n      add\n        /* \"#utility.yul\":4662:4668   */\n      dup6\n        /* \"#utility.yul\":4624:4690   */\n      tag_252\n      jump\t// in\n    tag_286:\n        /* \"#utility.yul\":4700:4773   */\n      tag_287\n        /* \"#utility.yul\":4768:4771   */\n      0x80\n        /* \"#utility.yul\":4757:4766   */\n      dup4\n        /* \"#utility.yul\":4753:4772   */\n      add\n        /* \"#utility.yul\":4744:4750   */\n      dup5\n        /* \"#utility.yul\":4700:4773   */\n      tag_270\n      jump\t// in\n    tag_287:\n        /* \"#utility.yul\":4261:4780   */\n      swap7\n      swap6\n      pop\n      pop\n      pop\n      pop\n      pop\n      pop\n      jump\t// out\n        /* \"#utility.yul\":4786:5008   */\n    tag_36:\n        /* \"#utility.yul\":4879:4883   */\n      0x00\n        /* \"#utility.yul\":4917:4919   */\n      0x20\n        /* \"#utility.yul\":4906:4915   */\n      dup3\n        /* \"#utility.yul\":4902:4920   */\n      add\n        /* \"#utility.yul\":4894:4920   */\n      swap1\n      pop\n        /* \"#utility.yul\":4930:5001   */\n      tag_289\n        /* \"#utility.yul\":4998:4999   */\n      0x00\n        /* \"#utility.yul\":4987:4996   */\n      dup4\n        /* \"#utility.yul\":4983:5000   */\n      add\n        /* \"#utility.yul\":4974:4980   */\n      dup5\n        /* \"#utility.yul\":4930:5001   */\n      tag_270\n      jump\t// in\n    tag_289:\n        /* \"#utility.yul\":4884:5008   */\n      swap3\n      swap2\n      pop\n      pop\n      jump\t// out\n        /* \"#utility.yul\":5014:6415   */\n    tag_68:\n        /* \"#utility.yul\":5399:5403   */\n      0x00\n        /* \"#utility.yul\":5437:5440   */\n      0x0140\n        /* \"#utility.yul\":5426:5435   */\n      dup3\n        /* \"#utility.yul\":5422:5441   */\n      add\n        /* \"#utility.yul\":5414:5441   */\n      swap1\n      pop\n        /* \"#utility.yul\":5451:5522   */\n      tag_291\n        /* \"#utility.yul\":5519:5520   */\n      0x00\n        /* \"#utility.yul\":5508:5517   */\n      dup4\n        /* \"#utility.yul\":5504:5521   */\n      add\n        /* \"#utility.yul\":5495:5501   */\n      dup14\n        /* \"#utility.yul\":5451:5522   */\n      tag_270\n      jump\t// in\n    tag_291:\n        /* \"#utility.yul\":5532:5604   */\n      tag_292\n        /* \"#utility.yul\":5600:5602   */\n      0x20\n        /* \"#utility.yul\":5589:5598   */\n      dup4\n        /* \"#utility.yul\":5585:5603   */\n      add\n        /* \"#utility.yul\":5576:5582   */\n      dup13\n        /* \"#utility.yul\":5532:5604   */\n      tag_270\n      jump\t// in\n    tag_292:\n        /* \"#utility.yul\":5614:5686   */\n      tag_293\n        /* \"#utility.yul\":5682:5684   */\n      0x40\n        /* \"#utility.yul\":5671:5680   */\n      dup4\n        /* \"#utility.yul\":5667:5685   */\n      add\n        /* \"#utility.yul\":5658:5664   */\n      dup12\n        /* \"#utility.yul\":5614:5686   */\n      tag_270\n      jump\t// in\n    tag_293:\n        /* \"#utility.yul\":5696:5768   */\n      tag_294\n        /* \"#utility.yul\":5764:5766   */\n      0x60\n        /* \"#utility.yul\":5753:5762   */\n      dup4\n        /* \"#utility.yul\":5749:5767   */\n      add\n        /* \"#utility.yul\":5740:5746   */\n      dup11\n        /* \"#utility.yul\":5696:5768   */\n      tag_270\n      jump\t// in\n    tag_294:\n        /* \"#utility.yul\":5778:5851   */\n      tag_295\n        /* \"#utility.yul\":5846:5849   */\n      0x80\n        /* \"#utility.yul\":5835:5844   */\n      dup4\n        /* \"#utility.yul\":5831:5850   */\n      add\n        /* \"#utility.yul\":5822:5828   */\n      dup10\n        /* \"#utility.yul\":5778:5851   */\n      tag_248\n      jump\t// in\n    tag_295:\n        /* \"#utility.yul\":5899:5908   */\n      dup2\n        /* \"#utility.yul\":5893:5897   */\n      dup2\n        /* \"#utility.yul\":5889:5909   */\n      sub\n        /* \"#utility.yul\":5883:5886   */\n      0xa0\n        /* \"#utility.yul\":5872:5881   */\n      dup4\n        /* \"#utility.yul\":5868:5887   */\n      add\n        /* \"#utility.yul\":5861:5910   */\n      mstore\n        /* \"#utility.yul\":5927:6005   */\n      tag_296\n        /* \"#utility.yul\":6000:6004   */\n      dup2\n        /* \"#utility.yul\":5991:5997   */\n      dup9\n        /* \"#utility.yul\":5927:6005   */\n      tag_260\n      jump\t// in\n    tag_296:\n        /* \"#utility.yul\":5919:6005   */\n      swap1\n      pop\n        /* \"#utility.yul\":6015:6088   */\n      tag_297\n        /* \"#utility.yul\":6083:6086   */\n      0xc0\n        /* \"#utility.yul\":6072:6081   */\n      dup4\n        /* \"#utility.yul\":6068:6087   */\n      add\n        /* \"#utility.yul\":6059:6065   */\n      dup8\n        /* \"#utility.yul\":6015:6088   */\n      tag_270\n      jump\t// in\n    tag_297:\n        /* \"#utility.yul\":6136:6145   */\n      dup2\n        /* \"#utility.yul\":6130:6134   */\n      dup2\n        /* \"#utility.yul\":6126:6146   */\n      sub\n        /* \"#utility.yul\":6120:6123   */\n      0xe0\n        /* \"#utility.yul\":6109:6118   */\n      dup4\n        /* \"#utility.yul\":6105:6124   */\n      add\n        /* \"#utility.yul\":6098:6147   */\n      mstore\n        /* \"#utility.yul\":6164:6242   */\n      tag_298\n        /* \"#utility.yul\":6237:6241   */\n      dup2\n        /* \"#utility.yul\":6228:6234   */\n      dup7\n        /* \"#utility.yul\":6164:6242   */\n      tag_260\n      jump\t// in\n    tag_298:\n        /* \"#utility.yul\":6156:6242   */\n      swap1\n      pop\n        /* \"#utility.yul\":6252:6325   */\n      tag_299\n        /* \"#utility.yul\":6320:6323   */\n      0x0100\n        /* \"#utility.yul\":6309:6318   */\n      dup4\n        /* \"#utility.yul\":6305:6324   */\n      add\n        /* \"#utility.yul\":6296:6302   */\n      dup6\n        /* \"#utility.yul\":6252:6325   */\n      tag_270\n      jump\t// in\n    tag_299:\n        /* \"#utility.yul\":6335:6408   */\n      tag_300\n        /* \"#utility.yul\":6403:6406   */\n      0x0120\n        /* \"#utility.yul\":6392:6401   */\n      dup4\n        /* \"#utility.yul\":6388:6407   */\n      add\n        /* \"#utility.yul\":6379:6385   */\n      dup5\n        /* \"#utility.yul\":6335:6408   */\n      tag_270\n      jump\t// in\n    tag_300:\n        /* \"#utility.yul\":5404:6415   */\n      swap12\n      swap11\n      pop\n      pop\n      pop\n      pop\n      pop\n      pop\n      pop\n      pop\n      pop\n      pop\n      pop\n      jump\t// out\n        /* \"#utility.yul\":6421:6550   */\n    tag_220:\n        /* \"#utility.yul\":6455:6461   */\n      0x00\n        /* \"#utility.yul\":6482:6502   */\n      tag_302\n      tag_303\n      jump\t// in\n    tag_302:\n        /* \"#utility.yul\":6472:6502   */\n      swap1\n      pop\n        /* \"#utility.yul\":6511:6544   */\n      tag_304\n        /* \"#utility.yul\":6539:6543   */\n      dup3\n        /* \"#utility.yul\":6531:6537   */\n      dup3\n        /* \"#utility.yul\":6511:6544   */\n      tag_305\n      jump\t// in\n    tag_304:\n        /* \"#utility.yul\":6462:6550   */\n      swap2\n      swap1\n      pop\n      jump\t// out\n        /* \"#utility.yul\":6556:6631   */\n    tag_303:\n        /* \"#utility.yul\":6589:6595   */\n      0x00\n        /* \"#utility.yul\":6622:6624   */\n      0x40\n        /* \"#utility.yul\":6616:6625   */\n      mload\n        /* \"#utility.yul\":6606:6625   */\n      swap1\n      pop\n        /* \"#utility.yul\":6596:6631   */\n      swap1\n      jump\t// out\n        /* \"#utility.yul\":6637:6945   */\n    tag_219:\n        /* \"#utility.yul\":6699:6703   */\n      0x00\n        /* \"#utility.yul\":6789:6807   */\n      0xffffffffffffffff\n        /* \"#utility.yul\":6781:6787   */\n      dup3\n        /* \"#utility.yul\":6778:6808   */\n      gt\n        /* \"#utility.yul\":6775:6777   */\n      iszero\n      tag_308\n      jumpi\n        /* \"#utility.yul\":6811:6829   */\n      tag_309\n      tag_310\n      jump\t// in\n    tag_309:\n        /* \"#utility.yul\":6775:6777   */\n    tag_308:\n        /* \"#utility.yul\":6849:6878   */\n      tag_311\n        /* \"#utility.yul\":6871:6877   */\n      dup3\n        /* \"#utility.yul\":6849:6878   */\n      tag_269\n      jump\t// in\n    tag_311:\n        /* \"#utility.yul\":6841:6878   */\n      swap1\n      pop\n        /* \"#utility.yul\":6933:6937   */\n      0x20\n        /* \"#utility.yul\":6927:6931   */\n      dup2\n        /* \"#utility.yul\":6923:6938   */\n      add\n        /* \"#utility.yul\":6915:6938   */\n      swap1\n      pop\n        /* \"#utility.yul\":6704:6945   */\n      swap2\n      swap1\n      pop\n      jump\t// out\n        /* \"#utility.yul\":6951:7050   */\n    tag_263:\n        /* \"#utility.yul\":7003:7009   */\n      0x00\n        /* \"#utility.yul\":7037:7042   */\n      dup2\n        /* \"#utility.yul\":7031:7043   */\n      mload\n        /* \"#utility.yul\":7021:7043   */\n      swap1\n      pop\n        /* \"#utility.yul\":7010:7050   */\n      swap2\n      swap1\n      pop\n      jump\t// out\n        /* \"#utility.yul\":7056:7225   */\n    tag_265:\n        /* \"#utility.yul\":7140:7151   */\n      0x00\n        /* \"#utility.yul\":7174:7180   */\n      dup3\n        /* \"#utility.yul\":7169:7172   */\n      dup3\n        /* \"#utility.yul\":7162:7181   */\n      mstore\n        /* \"#utility.yul\":7214:7218   */\n      0x20\n        /* \"#utility.yul\":7209:7212   */\n      dup3\n        /* \"#utility.yul\":7205:7219   */\n      add\n        /* \"#utility.yul\":7190:7219   */\n      swap1\n      pop\n        /* \"#utility.yul\":7152:7225   */\n      swap3\n      swap2\n      pop\n      pop\n      jump\t// out\n        /* \"#utility.yul\":7231:7536   */\n    tag_195:\n        /* \"#utility.yul\":7271:7274   */\n      0x00\n        /* \"#utility.yul\":7290:7310   */\n      tag_315\n        /* \"#utility.yul\":7308:7309   */\n      dup3\n        /* \"#utility.yul\":7290:7310   */\n      tag_273\n      jump\t// in\n    tag_315:\n        /* \"#utility.yul\":7285:7310   */\n      swap2\n      pop\n        /* \"#utility.yul\":7324:7344   */\n      tag_316\n        /* \"#utility.yul\":7342:7343   */\n      dup4\n        /* \"#utility.yul\":7324:7344   */\n      tag_273\n      jump\t// in\n    tag_316:\n        /* \"#utility.yul\":7319:7344   */\n      swap3\n      pop\n        /* \"#utility.yul\":7478:7479   */\n      dup3\n        /* \"#utility.yul\":7410:7476   */\n      0xffffffffffffffffffffffffffffffffffffffffffffffffffffffffffffffff\n        /* \"#utility.yul\":7406:7480   */\n      sub\n        /* \"#utility.yul\":7403:7404   */\n      dup3\n        /* \"#utility.yul\":7400:7481   */\n      gt\n        /* \"#utility.yul\":7397:7399   */\n      iszero\n      tag_317\n      jumpi\n        /* \"#utility.yul\":7484:7502   */\n      tag_318\n      tag_319\n      jump\t// in\n    tag_318:\n        /* \"#utility.yul\":7397:7399   */\n    tag_317:\n        /* \"#utility.yul\":7528:7529   */\n      dup3\n        /* \"#utility.yul\":7525:7526   */\n      dup3\n        /* \"#utility.yul\":7521:7530   */\n      add\n        /* \"#utility.yul\":7514:7530   */\n      swap1\n      pop\n        /* \"#utility.yul\":7275:7536   */\n      swap3\n      swap2\n      pop\n      pop\n      jump\t// out\n        /* \"#utility.yul\":7542:7727   */\n    tag_130:\n        /* \"#utility.yul\":7582:7583   */\n      0x00\n        /* \"#utility.yul\":7599:7619   */\n      tag_321\n        /* \"#utility.yul\":7617:7618   */\n      dup3\n        /* \"#utility.yul\":7599:7619   */\n      tag_273\n      jump\t// in\n    tag_321:\n        /* \"#utility.yul\":7594:7619   */\n      swap2\n      pop\n        /* \"#utility.yul\":7633:7653   */\n      tag_322\n        /* \"#utility.yul\":7651:7652   */\n      dup4\n        /* \"#utility.yul\":7633:7653   */\n      tag_273\n      jump\t// in\n    tag_322:\n        /* \"#utility.yul\":7628:7653   */\n      swap3\n      pop\n        /* \"#utility.yul\":7672:7673   */\n      dup3\n        /* \"#utility.yul\":7662:7664   */\n      tag_323\n      jumpi\n        /* \"#utility.yul\":7677:7695   */\n      tag_324\n      tag_325\n      jump\t// in\n    tag_324:\n        /* \"#utility.yul\":7662:7664   */\n    tag_323:\n        /* \"#utility.yul\":7719:7720   */\n      dup3\n        /* \"#utility.yul\":7716:7717   */\n      dup3\n        /* \"#utility.yul\":7712:7721   */\n      div\n        /* \"#utility.yul\":7707:7721   */\n      swap1\n      pop\n        /* \"#utility.yul\":7584:7727   */\n      swap3\n      swap2\n      pop\n      pop\n      jump\t// out\n        /* \"#utility.yul\":7733:7924   */\n    tag_184:\n        /* \"#utility.yul\":7773:7777   */\n      0x00\n        /* \"#utility.yul\":7793:7813   */\n      tag_327\n        /* \"#utility.yul\":7811:7812   */\n      dup3\n        /* \"#utility.yul\":7793:7813   */\n      tag_273\n      jump\t// in\n    tag_327:\n        /* \"#utility.yul\":7788:7813   */\n      swap2\n      pop\n        /* \"#utility.yul\":7827:7847   */\n      tag_328\n        /* \"#utility.yul\":7845:7846   */\n      dup4\n        /* \"#utility.yul\":7827:7847   */\n      tag_273\n      jump\t// in\n    tag_328:\n        /* \"#utility.yul\":7822:7847   */\n      swap3\n      pop\n        /* \"#utility.yul\":7866:7867   */\n      dup3\n        /* \"#utility.yul\":7863:7864   */\n      dup3\n        /* \"#utility.yul\":7860:7868   */\n      lt\n        /* \"#utility.yul\":7857:7859   */\n      iszero\n      tag_329\n      jumpi\n        /* \"#utility.yul\":7871:7889   */\n      tag_330\n      tag_319\n      jump\t// in\n    tag_330:\n        /* \"#utility.yul\":7857:7859   */\n    tag_329:\n        /* \"#utility.yul\":7916:7917   */\n      dup3\n        /* \"#utility.yul\":7913:7914   */\n      dup3\n        /* \"#utility.yul\":7909:7918   */\n      sub\n        /* \"#utility.yul\":7901:7918   */\n      swap1\n      pop\n        /* \"#utility.yul\":7778:7924   */\n      swap3\n      swap2\n      pop\n      pop\n      jump\t// out\n        /* \"#utility.yul\":7930:8026   */\n    tag_251:\n        /* \"#utility.yul\":7967:7974   */\n      0x00\n        /* \"#utility.yul\":7996:8020   */\n      tag_332\n        /* \"#utility.yul\":8014:8019   */\n      dup3\n        /* \"#utility.yul\":7996:8020   */\n      tag_333\n      jump\t// in\n    tag_332:\n        /* \"#utility.yul\":7985:8020   */\n      swap1\n      pop\n        /* \"#utility.yul\":7975:8026   */\n      swap2\n      swap1\n      pop\n      jump\t// out\n        /* \"#utility.yul\":8032:8122   */\n    tag_255:\n        /* \"#utility.yul\":8066:8073   */\n      0x00\n        /* \"#utility.yul\":8109:8114   */\n      dup2\n        /* \"#utility.yul\":8102:8115   */\n      iszero\n        /* \"#utility.yul\":8095:8116   */\n      iszero\n        /* \"#utility.yul\":8084:8116   */\n      swap1\n      pop\n        /* \"#utility.yul\":8074:8122   */\n      swap2\n      swap1\n      pop\n      jump\t// out\n        /* \"#utility.yul\":8128:8257   */\n    tag_335:\n        /* \"#utility.yul\":8174:8181   */\n      0x00\n        /* \"#utility.yul\":8203:8208   */\n      dup2\n        /* \"#utility.yul\":8192:8208   */\n      swap1\n      pop\n        /* \"#utility.yul\":8209:8251   */\n      tag_337\n        /* \"#utility.yul\":8245:8250   */\n      dup3\n        /* \"#utility.yul\":8209:8251   */\n      tag_338\n      jump\t// in\n    tag_337:\n        /* \"#utility.yul\":8182:8257   */\n      swap2\n      swap1\n      pop\n      jump\t// out\n        /* \"#utility.yul\":8263:8389   */\n    tag_333:\n        /* \"#utility.yul\":8300:8307   */\n      0x00\n        /* \"#utility.yul\":8340:8382   */\n      0xffffffffffffffffffffffffffffffffffffffff\n        /* \"#utility.yul\":8333:8338   */\n      dup3\n        /* \"#utility.yul\":8329:8383   */\n      and\n        /* \"#utility.yul\":8318:8383   */\n      swap1\n      pop\n        /* \"#utility.yul\":8308:8389   */\n      swap2\n      swap1\n      pop\n      jump\t// out\n        /* \"#utility.yul\":8395:8472   */\n    tag_273:\n        /* \"#utility.yul\":8432:8439   */\n      0x00\n        /* \"#utility.yul\":8461:8466   */\n      dup2\n        /* \"#utility.yul\":8450:8466   */\n      swap1\n      pop\n        /* \"#utility.yul\":8440:8472   */\n      swap2\n      swap1\n      pop\n      jump\t// out\n        /* \"#utility.yul\":8478:8607   */\n    tag_259:\n        /* \"#utility.yul\":8535:8544   */\n      0x00\n        /* \"#utility.yul\":8568:8601   */\n      tag_342\n        /* \"#utility.yul\":8595:8600   */\n      dup3\n        /* \"#utility.yul\":8568:8601   */\n      tag_335\n      jump\t// in\n    tag_342:\n        /* \"#utility.yul\":8555:8601   */\n      swap1\n      pop\n        /* \"#utility.yul\":8545:8607   */\n      swap2\n      swap1\n      pop\n      jump\t// out\n        /* \"#utility.yul\":8613:8767   */\n    tag_223:\n        /* \"#utility.yul\":8697:8703   */\n      dup3\n        /* \"#utility.yul\":8692:8695   */\n      dup2\n        /* \"#utility.yul\":8687:8690   */\n      dup4\n        /* \"#utility.yul\":8674:8704   */\n      calldatacopy\n        /* \"#utility.yul\":8759:8760   */\n      0x00\n        /* \"#utility.yul\":8750:8756   */\n      dup4\n        /* \"#utility.yul\":8745:8748   */\n      dup4\n        /* \"#utility.yul\":8741:8757   */\n      add\n        /* \"#utility.yul\":8734:8761   */\n      mstore\n        /* \"#utility.yul\":8664:8767   */\n      pop\n      pop\n      pop\n      jump\t// out\n        /* \"#utility.yul\":8773:9080   */\n    tag_267:\n        /* \"#utility.yul\":8841:8842   */\n      0x00\n        /* \"#utility.yul\":8851:8964   */\n    tag_345:\n        /* \"#utility.yul\":8865:8871   */\n      dup4\n        /* \"#utility.yul\":8862:8863   */\n      dup2\n        /* \"#utility.yul\":8859:8872   */\n      lt\n        /* \"#utility.yul\":8851:8964   */\n      iszero\n      tag_347\n      jumpi\n        /* \"#utility.yul\":8950:8951   */\n      dup1\n        /* \"#utility.yul\":8945:8948   */\n      dup3\n        /* \"#utility.yul\":8941:8952   */\n      add\n        /* \"#utility.yul\":8935:8953   */\n      mload\n        /* \"#utility.yul\":8931:8932   */\n      dup2\n        /* \"#utility.yul\":8926:8929   */\n      dup5\n        /* \"#utility.yul\":8922:8933   */\n      add\n        /* \"#utility.yul\":8915:8954   */\n      mstore\n        /* \"#utility.yul\":8887:8889   */\n      0x20\n        /* \"#utility.yul\":8884:8885   */\n      dup2\n        /* \"#utility.yul\":8880:8890   */\n      add\n        /* \"#utility.yul\":8875:8890   */\n      swap1\n      pop\n        /* \"#utility.yul\":8851:8964   */\n      jump(tag_345)\n    tag_347:\n        /* \"#utility.yul\":8982:8988   */\n      dup4\n        /* \"#utility.yul\":8979:8980   */\n      dup2\n        /* \"#utility.yul\":8976:8989   */\n      gt\n        /* \"#utility.yul\":8973:8975   */\n      iszero\n      tag_348\n      jumpi\n        /* \"#utility.yul\":9062:9063   */\n      0x00\n        /* \"#utility.yul\":9053:9059   */\n      dup5\n        /* \"#utility.yul\":9048:9051   */\n      dup5\n        /* \"#utility.yul\":9044:9060   */\n      add\n        /* \"#utility.yul\":9037:9064   */\n      mstore\n        /* \"#utility.yul\":8973:8975   */\n    tag_348:\n        /* \"#utility.yul\":8822:9080   */\n      pop\n      pop\n      pop\n      pop\n      jump\t// out\n        /* \"#utility.yul\":9086:9257   */\n    tag_186:\n        /* \"#utility.yul\":9125:9128   */\n      0x00\n        /* \"#utility.yul\":9148:9172   */\n      tag_350\n        /* \"#utility.yul\":9166:9171   */\n      dup3\n        /* \"#utility.yul\":9148:9172   */\n      tag_273\n      jump\t// in\n    tag_350:\n        /* \"#utility.yul\":9139:9172   */\n      swap2\n      pop\n        /* \"#utility.yul\":9194:9198   */\n      0x00\n        /* \"#utility.yul\":9187:9192   */\n      dup3\n        /* \"#utility.yul\":9184:9199   */\n      eq\n        /* \"#utility.yul\":9181:9183   */\n      iszero\n      tag_351\n      jumpi\n        /* \"#utility.yul\":9202:9220   */\n      tag_352\n      tag_319\n      jump\t// in\n    tag_352:\n        /* \"#utility.yul\":9181:9183   */\n    tag_351:\n        /* \"#utility.yul\":9249:9250   */\n      0x01\n        /* \"#utility.yul\":9242:9247   */\n      dup3\n        /* \"#utility.yul\":9238:9251   */\n      sub\n        /* \"#utility.yul\":9231:9251   */\n      swap1\n      pop\n        /* \"#utility.yul\":9129:9257   */\n      swap2\n      swap1\n      pop\n      jump\t// out\n        /* \"#utility.yul\":9263:9583   */\n    tag_139:\n        /* \"#utility.yul\":9307:9313   */\n      0x00\n        /* \"#utility.yul\":9344:9345   */\n      0x02\n        /* \"#utility.yul\":9338:9342   */\n      dup3\n        /* \"#utility.yul\":9334:9346   */\n      div\n        /* \"#utility.yul\":9324:9346   */\n      swap1\n      pop\n        /* \"#utility.yul\":9391:9392   */\n      0x01\n        /* \"#utility.yul\":9385:9389   */\n      dup3\n        /* \"#utility.yul\":9381:9393   */\n      and\n        /* \"#utility.yul\":9412:9430   */\n      dup1\n        /* \"#utility.yul\":9402:9404   */\n      tag_354\n      jumpi\n        /* \"#utility.yul\":9468:9472   */\n      0x7f\n        /* \"#utility.yul\":9460:9466   */\n      dup3\n        /* \"#utility.yul\":9456:9473   */\n      and\n        /* \"#utility.yul\":9446:9473   */\n      swap2\n      pop\n        /* \"#utility.yul\":9402:9404   */\n    tag_354:\n        /* \"#utility.yul\":9530:9532   */\n      0x20\n        /* \"#utility.yul\":9522:9528   */\n      dup3\n        /* \"#utility.yul\":9519:9533   */\n      lt\n        /* \"#utility.yul\":9499:9517   */\n      dup2\n        /* \"#utility.yul\":9496:9534   */\n      eq\n        /* \"#utility.yul\":9493:9495   */\n      iszero\n      tag_355\n      jumpi\n        /* \"#utility.yul\":9549:9567   */\n      tag_356\n      tag_357\n      jump\t// in\n    tag_356:\n        /* \"#utility.yul\":9493:9495   */\n    tag_355:\n        /* \"#utility.yul\":9314:9583   */\n      pop\n      swap2\n      swap1\n      pop\n      jump\t// out\n        /* \"#utility.yul\":9589:9870   */\n    tag_305:\n        /* \"#utility.yul\":9672:9699   */\n      tag_359\n        /* \"#utility.yul\":9694:9698   */\n      dup3\n        /* \"#utility.yul\":9672:9699   */\n      tag_269\n      jump\t// in\n    tag_359:\n        /* \"#utility.yul\":9664:9670   */\n      dup2\n        /* \"#utility.yul\":9660:9700   */\n      add\n        /* \"#utility.yul\":9802:9808   */\n      dup2\n        /* \"#utility.yul\":9790:9800   */\n      dup2\n        /* \"#utility.yul\":9787:9809   */\n      lt\n        /* \"#utility.yul\":9766:9784   */\n      0xffffffffffffffff\n        /* \"#utility.yul\":9754:9764   */\n      dup3\n        /* \"#utility.yul\":9751:9785   */\n      gt\n        /* \"#utility.yul\":9748:9810   */\n      or\n        /* \"#utility.yul\":9745:9747   */\n      iszero\n      tag_360\n      jumpi\n        /* \"#utility.yul\":9813:9831   */\n      tag_361\n      tag_310\n      jump\t// in\n    tag_361:\n        /* \"#utility.yul\":9745:9747   */\n    tag_360:\n        /* \"#utility.yul\":9853:9863   */\n      dup1\n        /* \"#utility.yul\":9849:9851   */\n      0x40\n        /* \"#utility.yul\":9842:9864   */\n      mstore\n        /* \"#utility.yul\":9632:9870   */\n      pop\n      pop\n      pop\n      jump\t// out\n        /* \"#utility.yul\":9876:10109   */\n    tag_167:\n        /* \"#utility.yul\":9915:9918   */\n      0x00\n        /* \"#utility.yul\":9938:9962   */\n      tag_363\n        /* \"#utility.yul\":9956:9961   */\n      dup3\n        /* \"#utility.yul\":9938:9962   */\n      tag_273\n      jump\t// in\n    tag_363:\n        /* \"#utility.yul\":9929:9962   */\n      swap2\n      pop\n        /* \"#utility.yul\":9984:10050   */\n      0xffffffffffffffffffffffffffffffffffffffffffffffffffffffffffffffff\n        /* \"#utility.yul\":9977:9982   */\n      dup3\n        /* \"#utility.yul\":9974:10051   */\n      eq\n        /* \"#utility.yul\":9971:9973   */\n      iszero\n      tag_364\n      jumpi\n        /* \"#utility.yul\":10054:10072   */\n      tag_365\n      tag_319\n      jump\t// in\n    tag_365:\n        /* \"#utility.yul\":9971:9973   */\n    tag_364:\n        /* \"#utility.yul\":10101:10102   */\n      0x01\n        /* \"#utility.yul\":10094:10099   */\n      dup3\n        /* \"#utility.yul\":10090:10103   */\n      add\n        /* \"#utility.yul\":10083:10103   */\n      swap1\n      pop\n        /* \"#utility.yul\":9919:10109   */\n      swap2\n      swap1\n      pop\n      jump\t// out\n        /* \"#utility.yul\":10115:10295   */\n    tag_319:\n        /* \"#utility.yul\":10163:10240   */\n      0x4e487b7100000000000000000000000000000000000000000000000000000000\n        /* \"#utility.yul\":10160:10161   */\n      0x00\n        /* \"#utility.yul\":10153:10241   */\n      mstore\n        /* \"#utility.yul\":10260:10264   */\n      0x11\n        /* \"#utility.yul\":10257:10258   */\n      0x04\n        /* \"#utility.yul\":10250:10265   */\n      mstore\n        /* \"#utility.yul\":10284:10288   */\n      0x24\n        /* \"#utility.yul\":10281:10282   */\n      0x00\n        /* \"#utility.yul\":10274:10289   */\n      revert\n        /* \"#utility.yul\":10301:10481   */\n    tag_325:\n        /* \"#utility.yul\":10349:10426   */\n      0x4e487b7100000000000000000000000000000000000000000000000000000000\n        /* \"#utility.yul\":10346:10347   */\n      0x00\n        /* \"#utility.yul\":10339:10427   */\n      mstore\n        /* \"#utility.yul\":10446:10450   */\n      0x12\n        /* \"#utility.yul\":10443:10444   */\n      0x04\n        /* \"#utility.yul\":10436:10451   */\n      mstore\n        /* \"#utility.yul\":10470:10474   */\n      0x24\n        /* \"#utility.yul\":10467:10468   */\n      0x00\n        /* \"#utility.yul\":10460:10475   */\n      revert\n        /* \"#utility.yul\":10487:10667   */\n    tag_368:\n        /* \"#utility.yul\":10535:10612   */\n      0x4e487b7100000000000000000000000000000000000000000000000000000000\n        /* \"#utility.yul\":10532:10533   */\n      0x00\n        /* \"#utility.yul\":10525:10613   */\n      mstore\n        /* \"#utility.yul\":10632:10636   */\n      0x21\n        /* \"#utility.yul\":10629:10630   */\n      0x04\n        /* \"#utility.yul\":10622:10637   */\n      mstore\n        /* \"#utility.yul\":10656:10660   */\n      0x24\n        /* \"#utility.yul\":10653:10654   */\n      0x00\n        /* \"#utility.yul\":10646:10661   */\n      revert\n        /* \"#utility.yul\":10673:10853   */\n    tag_357:\n        /* \"#utility.yul\":10721:10798   */\n      0x4e487b7100000000000000000000000000000000000000000000000000000000\n        /* \"#utility.yul\":10718:10719   */\n      0x00\n        /* \"#utility.yul\":10711:10799   */\n      mstore\n        /* \"#utility.yul\":10818:10822   */\n      0x22\n        /* \"#utility.yul\":10815:10816   */\n      0x04\n        /* \"#utility.yul\":10808:10823   */\n      mstore\n        /* \"#utility.yul\":10842:10846   */\n      0x24\n        /* \"#utility.yul\":10839:10840   */\n      0x00\n        /* \"#utility.yul\":10832:10847   */\n      revert\n        /* \"#utility.yul\":10859:11039   */\n    tag_310:\n        /* \"#utility.yul\":10907:10984   */\n      0x4e487b7100000000000000000000000000000000000000000000000000000000\n        /* \"#utility.yul\":10904:10905   */\n      0x00\n        /* \"#utility.yul\":10897:10985   */\n      mstore\n        /* \"#utility.yul\":11004:11008   */\n      0x41\n        /* \"#utility.yul\":11001:11002   */\n      0x04\n        /* \"#utility.yul\":10994:11009   */\n      mstore\n        /* \"#utility.yul\":11028:11032   */\n      0x24\n        /* \"#utility.yul\":11025:11026   */\n      0x00\n        /* \"#utility.yul\":11018:11033   */\n      revert\n        /* \"#utility.yul\":11045:11147   */\n    tag_269:\n        /* \"#utility.yul\":11086:11092   */\n      0x00\n        /* \"#utility.yul\":11137:11139   */\n      0x1f\n        /* \"#utility.yul\":11133:11140   */\n      not\n        /* \"#utility.yul\":11128:11130   */\n      0x1f\n        /* \"#utility.yul\":11121:11126   */\n      dup4\n        /* \"#utility.yul\":11117:11131   */\n      add\n        /* \"#utility.yul\":11113:11141   */\n      and\n        /* \"#utility.yul\":11103:11141   */\n      swap1\n      pop\n        /* \"#utility.yul\":11093:11147   */\n      swap2\n      swap1\n      pop\n      jump\t// out\n        /* \"#utility.yul\":11153:11267   */\n    tag_338:\n        /* \"#utility.yul\":11235:11236   */\n      0x02\n        /* \"#utility.yul\":11228:11233   */\n      dup2\n        /* \"#utility.yul\":11225:11237   */\n      lt\n        /* \"#utility.yul\":11215:11217   */\n      tag_374\n      jumpi\n        /* \"#utility.yul\":11241:11259   */\n      tag_375\n      tag_368\n      jump\t// in\n    tag_375:\n        /* \"#utility.yul\":11215:11217   */\n    tag_374:\n        /* \"#utility.yul\":11205:11267   */\n      pop\n      jump\t// out\n        /* \"#utility.yul\":11273:11395   */\n    tag_227:\n        /* \"#utility.yul\":11346:11370   */\n      tag_377\n        /* \"#utility.yul\":11364:11369   */\n      dup2\n        /* \"#utility.yul\":11346:11370   */\n      tag_251\n      jump\t// in\n    tag_377:\n        /* \"#utility.yul\":11339:11344   */\n      dup2\n        /* \"#utility.yul\":11336:11371   */\n      eq\n        /* \"#utility.yul\":11326:11328   */\n      tag_378\n      jumpi\n        /* \"#utility.yul\":11385:11386   */\n      0x00\n        /* \"#utility.yul\":11382:11383   */\n      dup1\n        /* \"#utility.yul\":11375:11387   */\n      revert\n        /* \"#utility.yul\":11326:11328   */\n    tag_378:\n        /* \"#utility.yul\":11316:11395   */\n      pop\n      jump\t// out\n        /* \"#utility.yul\":11401:11523   */\n    tag_235:\n        /* \"#utility.yul\":11474:11498   */\n      tag_380\n        /* \"#utility.yul\":11492:11497   */\n      dup2\n        /* \"#utility.yul\":11474:11498   */\n      tag_273\n      jump\t// in\n    tag_380:\n        /* \"#utility.yul\":11467:11472   */\n      dup2\n        /* \"#utility.yul\":11464:11499   */\n      eq\n        /* \"#utility.yul\":11454:11456   */\n      tag_381\n      jumpi\n        /* \"#utility.yul\":11513:11514   */\n      0x00\n        /* \"#utility.yul\":11510:11511   */\n      dup1\n        /* \"#utility.yul\":11503:11515   */\n      revert\n        /* \"#utility.yul\":11454:11456   */\n    tag_381:\n        /* \"#utility.yul\":11444:11523   */\n      pop\n      jump\t// out\n\n    auxdata: 0xa264697066735822122004bbb66b7846ea908363c58c0bb10061cc9dca3b22d9df08d1474cd3c9c2b59364736f6c63430008040033\n}\n","bytecode":{"linkReferences":{},"object":"60806040526000600660006101000a81548160ff0219169083600181111562000051577f4e487b7100000000000000000000000000000000000000000000000000000000600052602160045260246000fd5b02179055503480156200006357600080fd5b5060405162001eba38038062001eba83398181016040528101906200008991906200027c565b846000806101000a81548173ffffffffffffffffffffffffffffffffffffffff021916908373ffffffffffffffffffffffffffffffffffffffff160217905550856009819055508360019080519060200190620000e89291906200012c565b50826002819055508160039080519060200190620001089291906200012c565b50600060048190555080600781905550600060088190555050505050505062000526565b8280546200013a9062000417565b90600052602060002090601f0160209004810192826200015e5760008555620001aa565b82601f106200017957805160ff1916838001178555620001aa565b82800160010185558215620001aa579182015b82811115620001a95782518255916020019190600101906200018c565b5b509050620001b99190620001bd565b5090565b5b80821115620001d8576000816000905550600101620001be565b5090565b6000620001f3620001ed846200036d565b62000344565b9050828152602081018484840111156200020c57600080fd5b62000219848285620003e1565b509392505050565b6000815190506200023281620004f2565b92915050565b600082601f8301126200024a57600080fd5b81516200025c848260208601620001dc565b91505092915050565b60008151905062000276816200050c565b92915050565b60008060008060008060c087890312156200029657600080fd5b6000620002a689828a0162000265565b9650506020620002b989828a0162000221565b955050604087015167ffffffffffffffff811115620002d757600080fd5b620002e589828a0162000238565b9450506060620002f889828a0162000265565b935050608087015167ffffffffffffffff8111156200031657600080fd5b6200032489828a0162000238565b92505060a06200033789828a0162000265565b9150509295509295509295565b60006200035062000363565b90506200035e82826200044d565b919050565b6000604051905090565b600067ffffffffffffffff8211156200038b576200038a620004b2565b5b6200039682620004e1565b9050602081019050919050565b6000620003b082620003b7565b9050919050565b600073ffffffffffffffffffffffffffffffffffffffff82169050919050565b6000819050919050565b60005b8381101562000401578082015181840152602081019050620003e4565b8381111562000411576000848401525b50505050565b600060028204905060018216806200043057607f821691505b6020821081141562000447576200044662000483565b5b50919050565b6200045882620004e1565b810181811067ffffffffffffffff821117156200047a5762000479620004b2565b5b80604052505050565b7f4e487b7100000000000000000000000000000000000000000000000000000000600052602260045260246000fd5b7f4e487b7100000000000000000000000000000000000000000000000000000000600052604160045260246000fd5b6000601f19601f8301169050919050565b620004fd81620003a3565b81146200050957600080fd5b50565b6200051781620003d7565b81146200052357600080fd5b50565b61198480620005366000396000f3fe6080604052600436106101355760003560e01c80635badbe4c116100ab57806397654a8c1161006f57806397654a8c14610415578063b2d5ae4414610440578063c19d93fb1461046b578063ce845d1d14610496578063d7bb99ba146104c1578063d7d1bbdb146104cb57610135565b80635badbe4c1461032a57806381d12c581461035557806382fde093146103965780638a9cfd55146103c1578063937e09b1146103ea57610135565b806315879c29116100fd57806315879c291461022157806332461bd81461023857806337f944cc146102635780634051ddac1461028e57806342e94c90146102c2578063481c6a75146102ff57610135565b8063034410061461013a5780630785001c1461016357806308caa9101461018e5780630a144391146101b95780630dcf4b8f146101f6575b600080fd5b34801561014657600080fd5b50610161600480360381019061015c919061132e565b6104f4565b005b34801561016f57600080fd5b5061017861062d565b6040516101859190611499565b60405180910390f35b34801561019a57600080fd5b506101a3610633565b6040516101b09190611499565b60405180910390f35b3480156101c557600080fd5b506101e060048036038101906101db919061129e565b61063d565b6040516101ed91906113e7565b60405180910390f35b34801561020257600080fd5b5061020b61065d565b6040516102189190611499565b60405180910390f35b34801561022d57600080fd5b50610236610663565b005b34801561024457600080fd5b5061024d6106c1565b60405161025a919061141d565b60405180910390f35b34801561026f57600080fd5b5061027861074f565b6040516102859190611499565b60405180910390f35b34801561029a57600080fd5b506102a3610755565b6040516102b99a999897969594939291906114b4565b60405180910390f35b3480156102ce57600080fd5b506102e960048036038101906102e4919061129e565b6108d6565b6040516102f69190611499565b60405180910390f35b34801561030b57600080fd5b506103146108ee565b60405161032191906113cc565b60405180910390f35b34801561033657600080fd5b5061033f610912565b60405161034c9190611499565b60405180910390f35b34801561036157600080fd5b5061037c6004803603810190610377919061132e565b610918565b60405161038d95949392919061143f565b60405180910390f35b3480156103a257600080fd5b506103ab610a03565b6040516103b89190611499565b60405180910390f35b3480156103cd57600080fd5b506103e860048036038101906103e391906112c7565b610a09565b005b3480156103f657600080fd5b506103ff610b27565b60405161040c9190611499565b60405180910390f35b34801561042157600080fd5b5061042a610b2d565b604051610437919061141d565b60405180910390f35b34801561044c57600080fd5b50610455610bbb565b60405161046291906113e7565b60405180910390f35b34801561047757600080fd5b50610480610dec565b60405161048d9190611402565b60405180910390f35b3480156104a257600080fd5b506104ab610dff565b6040516104b89190611499565b60405180910390f35b6104c9610e05565b005b3480156104d757600080fd5b506104f260048036038101906104ed919061132e565b61102b565b005b60008054906101000a900473ffffffffffffffffffffffffffffffffffffffff1673ffffffffffffffffffffffffffffffffffffffff163373ffffffffffffffffffffffffffffffffffffffff161461054c57600080fd5b6000600b600083815260200190815260200160002090508060020160149054906101000a900460ff161561057f57600080fd5b6002600d5461058e9190611626565b81600301541161059d57600080fd5b8060020160009054906101000a900473ffffffffffffffffffffffffffffffffffffffff1673ffffffffffffffffffffffffffffffffffffffff166108fc82600101549081150290604051600060405180830381858888f1935050505015801561060b573d6000803e3d6000fd5b5060018160020160146101000a81548160ff0219169083151502179055505050565b60025481565b6000600454905090565b600a6020528060005260406000206000915054906101000a900460ff1681565b60045481565b6007544211156106bf576001600660006101000a81548160ff021916908360018111156106b9577f4e487b7100000000000000000000000000000000000000000000000000000000600052602160045260246000fd5b02179055505b565b600180546106ce90611764565b80601f01602080910402602001604051908101604052809291908181526020018280546106fa90611764565b80156107475780601f1061071c57610100808354040283529160200191610747565b820191906000526020600020905b81548152906001019060200180831161072a57829003601f168201915b505050505081565b60075481565b600080600080600060606000606060008060095447600c54600d5460008054906101000a900473ffffffffffffffffffffffffffffffffffffffff16600160025460036004546007548480546107aa90611764565b80601f01602080910402602001604051908101604052809291908181526020018280546107d690611764565b80156108235780601f106107f857610100808354040283529160200191610823565b820191906000526020600020905b81548152906001019060200180831161080657829003601f168201915b5050505050945082805461083690611764565b80601f016020809104026020016040519081016040528092919081815260200182805461086290611764565b80156108af5780601f10610884576101008083540402835291602001916108af565b820191906000526020600020905b81548152906001019060200180831161089257829003601f168201915b50505050509250995099509950995099509950995099509950995090919293949596979899565b60056020528060005260406000206000915090505481565b60008054906101000a900473ffffffffffffffffffffffffffffffffffffffff1681565b600c5481565b600b60205280600052604060002060009150905080600001805461093b90611764565b80601f016020809104026020016040519081016040528092919081815260200182805461096790611764565b80156109b45780601f10610989576101008083540402835291602001916109b4565b820191906000526020600020905b81548152906001019060200180831161099757829003601f168201915b5050505050908060010154908060020160009054906101000a900473ffffffffffffffffffffffffffffffffffffffff16908060020160149054906101000a900460ff16908060030154905085565b600d5481565b60008054906101000a900473ffffffffffffffffffffffffffffffffffffffff1673ffffffffffffffffffffffffffffffffffffffff163373ffffffffffffffffffffffffffffffffffffffff1614610a6157600080fd5b81471015610a6e57600080fd5b6000600b6000600c548152602001908152602001600020905083816000019080519060200190610a9f929190611169565b50828160010181905550818160020160006101000a81548173ffffffffffffffffffffffffffffffffffffffff021916908373ffffffffffffffffffffffffffffffffffffffff16021790555060008160020160146101000a81548160ff021916908315150217905550600c6000815480929190610b1c906117c7565b919050555050505050565b60095481565b60038054610b3a90611764565b80601f0160208091040260200160405190810160405280929190818152602001828054610b6690611764565b8015610bb35780601f10610b8857610100808354040283529160200191610bb3565b820191906000526020600020905b815481529060010190602001808311610b9657829003601f168201915b505050505081565b60006001806001811115610bf8577f4e487b7100000000000000000000000000000000000000000000000000000000600052602160045260246000fd5b600660009054906101000a900460ff166001811115610c40577f4e487b7100000000000000000000000000000000000000000000000000000000600052602160045260246000fd5b14610c4a57600080fd5b6000600560003373ffffffffffffffffffffffffffffffffffffffff1673ffffffffffffffffffffffffffffffffffffffff1681526020019081526020016000205411610c9657600080fd5b60025460045410610ca657600080fd5b6000600560003373ffffffffffffffffffffffffffffffffffffffff1673ffffffffffffffffffffffffffffffffffffffff1681526020019081526020016000205490506000600560003373ffffffffffffffffffffffffffffffffffffffff1673ffffffffffffffffffffffffffffffffffffffff168152602001908152602001600020819055503373ffffffffffffffffffffffffffffffffffffffff166108fc829081150290604051600060405180830381858888f19350505050610db65780600560003373ffffffffffffffffffffffffffffffffffffffff1673ffffffffffffffffffffffffffffffffffffffff168152602001908152602001600020819055506000925050610de8565b80600454610dc49190611657565b600481905550600d6000815480929190610ddd9061173a565b919050555060019250505b5090565b600660009054906101000a900460ff1681565b60085481565b6000806001811115610e40577f4e487b7100000000000000000000000000000000000000000000000000000000600052602160045260246000fd5b600660009054906101000a900460ff166001811115610e88577f4e487b7100000000000000000000000000000000000000000000000000000000600052602160045260246000fd5b14610e9257600080fd5b60008054906101000a900473ffffffffffffffffffffffffffffffffffffffff1673ffffffffffffffffffffffffffffffffffffffff163373ffffffffffffffffffffffffffffffffffffffff161415610eeb57600080fd5b600954341015610efa57600080fd5b34600560003373ffffffffffffffffffffffffffffffffffffffff1673ffffffffffffffffffffffffffffffffffffffff16815260200190815260200160002054610f4591906115d0565b600560003373ffffffffffffffffffffffffffffffffffffffff1673ffffffffffffffffffffffffffffffffffffffff168152602001908152602001600020819055506001600a60003373ffffffffffffffffffffffffffffffffffffffff1673ffffffffffffffffffffffffffffffffffffffff16815260200190815260200160002060006101000a81548160ff021916908315150217905550600d6000815480929190610ff3906117c7565b91905055503460045461100691906115d0565b6004819055503460085461101a91906115d0565b600881905550611028610663565b50565b6000600b60008381526020019081526020016000209050600a60003373ffffffffffffffffffffffffffffffffffffffff1673ffffffffffffffffffffffffffffffffffffffff16815260200190815260200160002060009054906101000a900460ff1661109857600080fd5b8060040160003373ffffffffffffffffffffffffffffffffffffffff1673ffffffffffffffffffffffffffffffffffffffff16815260200190815260200160002060009054906101000a900460ff16156110f157600080fd5b60018160040160003373ffffffffffffffffffffffffffffffffffffffff1673ffffffffffffffffffffffffffffffffffffffff16815260200190815260200160002060006101000a81548160ff021916908315150217905550806003016000815480929190611160906117c7565b91905055505050565b82805461117590611764565b90600052602060002090601f01602090048101928261119757600085556111de565b82601f106111b057805160ff19168380011785556111de565b828001600101855582156111de579182015b828111156111dd5782518255916020019190600101906111c2565b5b5090506111eb91906111ef565b5090565b5b808211156112085760008160009055506001016111f0565b5090565b600061121f61121a84611583565b61155e565b90508281526020810184848401111561123757600080fd5b6112428482856116f8565b509392505050565b60008135905061125981611920565b92915050565b600082601f83011261127057600080fd5b813561128084826020860161120c565b91505092915050565b60008135905061129881611937565b92915050565b6000602082840312156112b057600080fd5b60006112be8482850161124a565b91505092915050565b6000806000606084860312156112dc57600080fd5b600084013567ffffffffffffffff8111156112f657600080fd5b6113028682870161125f565b935050602061131386828701611289565b92505060406113248682870161124a565b9150509250925092565b60006020828403121561134057600080fd5b600061134e84828501611289565b91505092915050565b6113608161168b565b82525050565b61136f8161169d565b82525050565b61137e816116e6565b82525050565b600061138f826115b4565b61139981856115bf565b93506113a9818560208601611707565b6113b2816118fb565b840191505092915050565b6113c6816116dc565b82525050565b60006020820190506113e16000830184611357565b92915050565b60006020820190506113fc6000830184611366565b92915050565b60006020820190506114176000830184611375565b92915050565b600060208201905081810360008301526114378184611384565b905092915050565b600060a08201905081810360008301526114598188611384565b905061146860208301876113bd565b6114756040830186611357565b6114826060830185611366565b61148f60808301846113bd565b9695505050505050565b60006020820190506114ae60008301846113bd565b92915050565b6000610140820190506114ca600083018d6113bd565b6114d7602083018c6113bd565b6114e4604083018b6113bd565b6114f1606083018a6113bd565b6114fe6080830189611357565b81810360a08301526115108188611384565b905061151f60c08301876113bd565b81810360e08301526115318186611384565b90506115416101008301856113bd565b61154f6101208301846113bd565b9b9a5050505050505050505050565b6000611568611579565b90506115748282611796565b919050565b6000604051905090565b600067ffffffffffffffff82111561159e5761159d6118cc565b5b6115a7826118fb565b9050602081019050919050565b600081519050919050565b600082825260208201905092915050565b60006115db826116dc565b91506115e6836116dc565b9250827fffffffffffffffffffffffffffffffffffffffffffffffffffffffffffffffff0382111561161b5761161a611810565b5b828201905092915050565b6000611631826116dc565b915061163c836116dc565b92508261164c5761164b61183f565b5b828204905092915050565b6000611662826116dc565b915061166d836116dc565b9250828210156116805761167f611810565b5b828203905092915050565b6000611696826116bc565b9050919050565b60008115159050919050565b60008190506116b78261190c565b919050565b600073ffffffffffffffffffffffffffffffffffffffff82169050919050565b6000819050919050565b60006116f1826116a9565b9050919050565b82818337600083830152505050565b60005b8381101561172557808201518184015260208101905061170a565b83811115611734576000848401525b50505050565b6000611745826116dc565b9150600082141561175957611758611810565b5b600182039050919050565b6000600282049050600182168061177c57607f821691505b602082108114156117905761178f61189d565b5b50919050565b61179f826118fb565b810181811067ffffffffffffffff821117156117be576117bd6118cc565b5b80604052505050565b60006117d2826116dc565b91507fffffffffffffffffffffffffffffffffffffffffffffffffffffffffffffffff82141561180557611804611810565b5b600182019050919050565b7f4e487b7100000000000000000000000000000000000000000000000000000000600052601160045260246000fd5b7f4e487b7100000000000000000000000000000000000000000000000000000000600052601260045260246000fd5b7f4e487b7100000000000000000000000000000000000000000000000000000000600052602160045260246000fd5b7f4e487b7100000000000000000000000000000000000000000000000000000000600052602260045260246000fd5b7f4e487b7100000000000000000000000000000000000000000000000000000000600052604160045260246000fd5b6000601f19601f8301169050919050565b6002811061191d5761191c61186e565b5b50565b6119298161168b565b811461193457600080fd5b50565b611940816116dc565b811461194b57600080fd5b5056fea264697066735822122004bbb66b7846ea908363c58c0bb10061cc9dca3b22d9df08d1474cd3c9c2b59364736f6c63430008040033","opcodes":"PUSH1 0x80 PUSH1 0x40 MSTORE PUSH1 0x0 PUSH1 0x6 PUSH1 0x0 PUSH2 0x100 EXP DUP2 SLOAD DUP2 PUSH1 0xFF MUL NOT AND SWAP1 DUP4 PUSH1 0x1 DUP2 GT ISZERO PUSH3 0x51 JUMPI PUSH32 0x4E487B7100000000000000000000000000000000000000000000000000000000 PUSH1 0x0 MSTORE PUSH1 0x21 PUSH1 0x4 MSTORE PUSH1 0x24 PUSH1 0x0 REVERT JUMPDEST MUL OR SWAP1 SSTORE POP CALLVALUE DUP1 ISZERO PUSH3 0x63 JUMPI PUSH1 0x0 DUP1 REVERT JUMPDEST POP PUSH1 0x40 MLOAD PUSH3 0x1EBA CODESIZE SUB DUP1 PUSH3 0x1EBA DUP4 CODECOPY DUP2 DUP2 ADD PUSH1 0x40 MSTORE DUP2 ADD SWAP1 PUSH3 0x89 SWAP2 SWAP1 PUSH3 0x27C JUMP JUMPDEST DUP5 PUSH1 0x0 DUP1 PUSH2 0x100 EXP DUP2 SLOAD DUP2 PUSH20 0xFFFFFFFFFFFFFFFFFFFFFFFFFFFFFFFFFFFFFFFF MUL NOT AND SWAP1 DUP4 PUSH20 0xFFFFFFFFFFFFFFFFFFFFFFFFFFFFFFFFFFFFFFFF AND MUL OR SWAP1 SSTORE POP DUP6 PUSH1 0x9 DUP2 SWAP1 SSTORE POP DUP4 PUSH1 0x1 SWAP1 DUP1 MLOAD SWAP1 PUSH1 0x20 ADD SWAP1 PUSH3 0xE8 SWAP3 SWAP2 SWAP1 PUSH3 0x12C JUMP JUMPDEST POP DUP3 PUSH1 0x2 DUP2 SWAP1 SSTORE POP DUP2 PUSH1 0x3 SWAP1 DUP1 MLOAD SWAP1 PUSH1 0x20 ADD SWAP1 PUSH3 0x108 SWAP3 SWAP2 SWAP1 PUSH3 0x12C JUMP JUMPDEST POP PUSH1 0x0 PUSH1 0x4 DUP2 SWAP1 SSTORE POP DUP1 PUSH1 0x7 DUP2 SWAP1 SSTORE POP PUSH1 0x0 PUSH1 0x8 DUP2 SWAP1 SSTORE POP POP POP POP POP POP POP PUSH3 0x526 JUMP JUMPDEST DUP3 DUP1 SLOAD PUSH3 0x13A SWAP1 PUSH3 0x417 JUMP JUMPDEST SWAP1 PUSH1 0x0 MSTORE PUSH1 0x20 PUSH1 0x0 KECCAK256 SWAP1 PUSH1 0x1F ADD PUSH1 0x20 SWAP1 DIV DUP2 ADD SWAP3 DUP3 PUSH3 0x15E JUMPI PUSH1 0x0 DUP6 SSTORE PUSH3 0x1AA JUMP JUMPDEST DUP3 PUSH1 0x1F LT PUSH3 0x179 JUMPI DUP1 MLOAD PUSH1 0xFF NOT AND DUP4 DUP1 ADD OR DUP6 SSTORE PUSH3 0x1AA JUMP JUMPDEST DUP3 DUP1 ADD PUSH1 0x1 ADD DUP6 SSTORE DUP3 ISZERO PUSH3 0x1AA JUMPI SWAP2 DUP3 ADD JUMPDEST DUP3 DUP2 GT ISZERO PUSH3 0x1A9 JUMPI DUP3 MLOAD DUP3 SSTORE SWAP2 PUSH1 0x20 ADD SWAP2 SWAP1 PUSH1 0x1 ADD SWAP1 PUSH3 0x18C JUMP JUMPDEST JUMPDEST POP SWAP1 POP PUSH3 0x1B9 SWAP2 SWAP1 PUSH3 0x1BD JUMP JUMPDEST POP SWAP1 JUMP JUMPDEST JUMPDEST DUP1 DUP3 GT ISZERO PUSH3 0x1D8 JUMPI PUSH1 0x0 DUP2 PUSH1 0x0 SWAP1 SSTORE POP PUSH1 0x1 ADD PUSH3 0x1BE JUMP JUMPDEST POP SWAP1 JUMP JUMPDEST PUSH1 0x0 PUSH3 0x1F3 PUSH3 0x1ED DUP5 PUSH3 0x36D JUMP JUMPDEST PUSH3 0x344 JUMP JUMPDEST SWAP1 POP DUP3 DUP2 MSTORE PUSH1 0x20 DUP2 ADD DUP5 DUP5 DUP5 ADD GT ISZERO PUSH3 0x20C JUMPI PUSH1 0x0 DUP1 REVERT JUMPDEST PUSH3 0x219 DUP5 DUP3 DUP6 PUSH3 0x3E1 JUMP JUMPDEST POP SWAP4 SWAP3 POP POP POP JUMP JUMPDEST PUSH1 0x0 DUP2 MLOAD SWAP1 POP PUSH3 0x232 DUP2 PUSH3 0x4F2 JUMP JUMPDEST SWAP3 SWAP2 POP POP JUMP JUMPDEST PUSH1 0x0 DUP3 PUSH1 0x1F DUP4 ADD SLT PUSH3 0x24A JUMPI PUSH1 0x0 DUP1 REVERT JUMPDEST DUP2 MLOAD PUSH3 0x25C DUP5 DUP3 PUSH1 0x20 DUP7 ADD PUSH3 0x1DC JUMP JUMPDEST SWAP2 POP POP SWAP3 SWAP2 POP POP JUMP JUMPDEST PUSH1 0x0 DUP2 MLOAD SWAP1 POP PUSH3 0x276 DUP2 PUSH3 0x50C JUMP JUMPDEST SWAP3 SWAP2 POP POP JUMP JUMPDEST PUSH1 0x0 DUP1 PUSH1 0x0 DUP1 PUSH1 0x0 DUP1 PUSH1 0xC0 DUP8 DUP10 SUB SLT ISZERO PUSH3 0x296 JUMPI PUSH1 0x0 DUP1 REVERT JUMPDEST PUSH1 0x0 PUSH3 0x2A6 DUP10 DUP3 DUP11 ADD PUSH3 0x265 JUMP JUMPDEST SWAP7 POP POP PUSH1 0x20 PUSH3 0x2B9 DUP10 DUP3 DUP11 ADD PUSH3 0x221 JUMP JUMPDEST SWAP6 POP POP PUSH1 0x40 DUP8 ADD MLOAD PUSH8 0xFFFFFFFFFFFFFFFF DUP2 GT ISZERO PUSH3 0x2D7 JUMPI PUSH1 0x0 DUP1 REVERT JUMPDEST PUSH3 0x2E5 DUP10 DUP3 DUP11 ADD PUSH3 0x238 JUMP JUMPDEST SWAP5 POP POP PUSH1 0x60 PUSH3 0x2F8 DUP10 DUP3 DUP11 ADD PUSH3 0x265 JUMP JUMPDEST SWAP4 POP POP PUSH1 0x80 DUP8 ADD MLOAD PUSH8 0xFFFFFFFFFFFFFFFF DUP2 GT ISZERO PUSH3 0x316 JUMPI PUSH1 0x0 DUP1 REVERT JUMPDEST PUSH3 0x324 DUP10 DUP3 DUP11 ADD PUSH3 0x238 JUMP JUMPDEST SWAP3 POP POP PUSH1 0xA0 PUSH3 0x337 DUP10 DUP3 DUP11 ADD PUSH3 0x265 JUMP JUMPDEST SWAP2 POP POP SWAP3 SWAP6 POP SWAP3 SWAP6 POP SWAP3 SWAP6 JUMP JUMPDEST PUSH1 0x0 PUSH3 0x350 PUSH3 0x363 JUMP JUMPDEST SWAP1 POP PUSH3 0x35E DUP3 DUP3 PUSH3 0x44D JUMP JUMPDEST SWAP2 SWAP1 POP JUMP JUMPDEST PUSH1 0x0 PUSH1 0x40 MLOAD SWAP1 POP SWAP1 JUMP JUMPDEST PUSH1 0x0 PUSH8 0xFFFFFFFFFFFFFFFF DUP3 GT ISZERO PUSH3 0x38B JUMPI PUSH3 0x38A PUSH3 0x4B2 JUMP JUMPDEST JUMPDEST PUSH3 0x396 DUP3 PUSH3 0x4E1 JUMP JUMPDEST SWAP1 POP PUSH1 0x20 DUP2 ADD SWAP1 POP SWAP2 SWAP1 POP JUMP JUMPDEST PUSH1 0x0 PUSH3 0x3B0 DUP3 PUSH3 0x3B7 JUMP JUMPDEST SWAP1 POP SWAP2 SWAP1 POP JUMP JUMPDEST PUSH1 0x0 PUSH20 0xFFFFFFFFFFFFFFFFFFFFFFFFFFFFFFFFFFFFFFFF DUP3 AND SWAP1 POP SWAP2 SWAP1 POP JUMP JUMPDEST PUSH1 0x0 DUP2 SWAP1 POP SWAP2 SWAP1 POP JUMP JUMPDEST PUSH1 0x0 JUMPDEST DUP4 DUP2 LT ISZERO PUSH3 0x401 JUMPI DUP1 DUP3 ADD MLOAD DUP2 DUP5 ADD MSTORE PUSH1 0x20 DUP2 ADD SWAP1 POP PUSH3 0x3E4 JUMP JUMPDEST DUP4 DUP2 GT ISZERO PUSH3 0x411 JUMPI PUSH1 0x0 DUP5 DUP5 ADD MSTORE JUMPDEST POP POP POP POP JUMP JUMPDEST PUSH1 0x0 PUSH1 0x2 DUP3 DIV SWAP1 POP PUSH1 0x1 DUP3 AND DUP1 PUSH3 0x430 JUMPI PUSH1 0x7F DUP3 AND SWAP2 POP JUMPDEST PUSH1 0x20 DUP3 LT DUP2 EQ ISZERO PUSH3 0x447 JUMPI PUSH3 0x446 PUSH3 0x483 JUMP JUMPDEST JUMPDEST POP SWAP2 SWAP1 POP JUMP JUMPDEST PUSH3 0x458 DUP3 PUSH3 0x4E1 JUMP JUMPDEST DUP2 ADD DUP2 DUP2 LT PUSH8 0xFFFFFFFFFFFFFFFF DUP3 GT OR ISZERO PUSH3 0x47A JUMPI PUSH3 0x479 PUSH3 0x4B2 JUMP JUMPDEST JUMPDEST DUP1 PUSH1 0x40 MSTORE POP POP POP JUMP JUMPDEST PUSH32 0x4E487B7100000000000000000000000000000000000000000000000000000000 PUSH1 0x0 MSTORE PUSH1 0x22 PUSH1 0x4 MSTORE PUSH1 0x24 PUSH1 0x0 REVERT JUMPDEST PUSH32 0x4E487B7100000000000000000000000000000000000000000000000000000000 PUSH1 0x0 MSTORE PUSH1 0x41 PUSH1 0x4 MSTORE PUSH1 0x24 PUSH1 0x0 REVERT JUMPDEST PUSH1 0x0 PUSH1 0x1F NOT PUSH1 0x1F DUP4 ADD AND SWAP1 POP SWAP2 SWAP1 POP JUMP JUMPDEST PUSH3 0x4FD DUP2 PUSH3 0x3A3 JUMP JUMPDEST DUP2 EQ PUSH3 0x509 JUMPI PUSH1 0x0 DUP1 REVERT JUMPDEST POP JUMP JUMPDEST PUSH3 0x517 DUP2 PUSH3 0x3D7 JUMP JUMPDEST DUP2 EQ PUSH3 0x523 JUMPI PUSH1 0x0 DUP1 REVERT JUMPDEST POP JUMP JUMPDEST PUSH2 0x1984 DUP1 PUSH3 0x536 PUSH1 0x0 CODECOPY PUSH1 0x0 RETURN INVALID PUSH1 0x80 PUSH1 0x40 MSTORE PUSH1 0x4 CALLDATASIZE LT PUSH2 0x135 JUMPI PUSH1 0x0 CALLDATALOAD PUSH1 0xE0 SHR DUP1 PUSH4 0x5BADBE4C GT PUSH2 0xAB JUMPI DUP1 PUSH4 0x97654A8C GT PUSH2 0x6F JUMPI DUP1 PUSH4 0x97654A8C EQ PUSH2 0x415 JUMPI DUP1 PUSH4 0xB2D5AE44 EQ PUSH2 0x440 JUMPI DUP1 PUSH4 0xC19D93FB EQ PUSH2 0x46B JUMPI DUP1 PUSH4 0xCE845D1D EQ PUSH2 0x496 JUMPI DUP1 PUSH4 0xD7BB99BA EQ PUSH2 0x4C1 JUMPI DUP1 PUSH4 0xD7D1BBDB EQ PUSH2 0x4CB JUMPI PUSH2 0x135 JUMP JUMPDEST DUP1 PUSH4 0x5BADBE4C EQ PUSH2 0x32A JUMPI DUP1 PUSH4 0x81D12C58 EQ PUSH2 0x355 JUMPI DUP1 PUSH4 0x82FDE093 EQ PUSH2 0x396 JUMPI DUP1 PUSH4 0x8A9CFD55 EQ PUSH2 0x3C1 JUMPI DUP1 PUSH4 0x937E09B1 EQ PUSH2 0x3EA JUMPI PUSH2 0x135 JUMP JUMPDEST DUP1 PUSH4 0x15879C29 GT PUSH2 0xFD JUMPI DUP1 PUSH4 0x15879C29 EQ PUSH2 0x221 JUMPI DUP1 PUSH4 0x32461BD8 EQ PUSH2 0x238 JUMPI DUP1 PUSH4 0x37F944CC EQ PUSH2 0x263 JUMPI DUP1 PUSH4 0x4051DDAC EQ PUSH2 0x28E JUMPI DUP1 PUSH4 0x42E94C90 EQ PUSH2 0x2C2 JUMPI DUP1 PUSH4 0x481C6A75 EQ PUSH2 0x2FF JUMPI PUSH2 0x135 JUMP JUMPDEST DUP1 PUSH4 0x3441006 EQ PUSH2 0x13A JUMPI DUP1 PUSH4 0x785001C EQ PUSH2 0x163 JUMPI DUP1 PUSH4 0x8CAA910 EQ PUSH2 0x18E JUMPI DUP1 PUSH4 0xA144391 EQ PUSH2 0x1B9 JUMPI DUP1 PUSH4 0xDCF4B8F EQ PUSH2 0x1F6 JUMPI JUMPDEST PUSH1 0x0 DUP1 REVERT JUMPDEST CALLVALUE DUP1 ISZERO PUSH2 0x146 JUMPI PUSH1 0x0 DUP1 REVERT JUMPDEST POP PUSH2 0x161 PUSH1 0x4 DUP1 CALLDATASIZE SUB DUP2 ADD SWAP1 PUSH2 0x15C SWAP2 SWAP1 PUSH2 0x132E JUMP JUMPDEST PUSH2 0x4F4 JUMP JUMPDEST STOP JUMPDEST CALLVALUE DUP1 ISZERO PUSH2 0x16F JUMPI PUSH1 0x0 DUP1 REVERT JUMPDEST POP PUSH2 0x178 PUSH2 0x62D JUMP JUMPDEST PUSH1 0x40 MLOAD PUSH2 0x185 SWAP2 SWAP1 PUSH2 0x1499 JUMP JUMPDEST PUSH1 0x40 MLOAD DUP1 SWAP2 SUB SWAP1 RETURN JUMPDEST CALLVALUE DUP1 ISZERO PUSH2 0x19A JUMPI PUSH1 0x0 DUP1 REVERT JUMPDEST POP PUSH2 0x1A3 PUSH2 0x633 JUMP JUMPDEST PUSH1 0x40 MLOAD PUSH2 0x1B0 SWAP2 SWAP1 PUSH2 0x1499 JUMP JUMPDEST PUSH1 0x40 MLOAD DUP1 SWAP2 SUB SWAP1 RETURN JUMPDEST CALLVALUE DUP1 ISZERO PUSH2 0x1C5 JUMPI PUSH1 0x0 DUP1 REVERT JUMPDEST POP PUSH2 0x1E0 PUSH1 0x4 DUP1 CALLDATASIZE SUB DUP2 ADD SWAP1 PUSH2 0x1DB SWAP2 SWAP1 PUSH2 0x129E JUMP JUMPDEST PUSH2 0x63D JUMP JUMPDEST PUSH1 0x40 MLOAD PUSH2 0x1ED SWAP2 SWAP1 PUSH2 0x13E7 JUMP JUMPDEST PUSH1 0x40 MLOAD DUP1 SWAP2 SUB SWAP1 RETURN JUMPDEST CALLVALUE DUP1 ISZERO PUSH2 0x202 JUMPI PUSH1 0x0 DUP1 REVERT JUMPDEST POP PUSH2 0x20B PUSH2 0x65D JUMP JUMPDEST PUSH1 0x40 MLOAD PUSH2 0x218 SWAP2 SWAP1 PUSH2 0x1499 JUMP JUMPDEST PUSH1 0x40 MLOAD DUP1 SWAP2 SUB SWAP1 RETURN JUMPDEST CALLVALUE DUP1 ISZERO PUSH2 0x22D JUMPI PUSH1 0x0 DUP1 REVERT JUMPDEST POP PUSH2 0x236 PUSH2 0x663 JUMP JUMPDEST STOP JUMPDEST CALLVALUE DUP1 ISZERO PUSH2 0x244 JUMPI PUSH1 0x0 DUP1 REVERT JUMPDEST POP PUSH2 0x24D PUSH2 0x6C1 JUMP JUMPDEST PUSH1 0x40 MLOAD PUSH2 0x25A SWAP2 SWAP1 PUSH2 0x141D JUMP JUMPDEST PUSH1 0x40 MLOAD DUP1 SWAP2 SUB SWAP1 RETURN JUMPDEST CALLVALUE DUP1 ISZERO PUSH2 0x26F JUMPI PUSH1 0x0 DUP1 REVERT JUMPDEST POP PUSH2 0x278 PUSH2 0x74F JUMP JUMPDEST PUSH1 0x40 MLOAD PUSH2 0x285 SWAP2 SWAP1 PUSH2 0x1499 JUMP JUMPDEST PUSH1 0x40 MLOAD DUP1 SWAP2 SUB SWAP1 RETURN JUMPDEST CALLVALUE DUP1 ISZERO PUSH2 0x29A JUMPI PUSH1 0x0 DUP1 REVERT JUMPDEST POP PUSH2 0x2A3 PUSH2 0x755 JUMP JUMPDEST PUSH1 0x40 MLOAD PUSH2 0x2B9 SWAP11 SWAP10 SWAP9 SWAP8 SWAP7 SWAP6 SWAP5 SWAP4 SWAP3 SWAP2 SWAP1 PUSH2 0x14B4 JUMP JUMPDEST PUSH1 0x40 MLOAD DUP1 SWAP2 SUB SWAP1 RETURN JUMPDEST CALLVALUE DUP1 ISZERO PUSH2 0x2CE JUMPI PUSH1 0x0 DUP1 REVERT JUMPDEST POP PUSH2 0x2E9 PUSH1 0x4 DUP1 CALLDATASIZE SUB DUP2 ADD SWAP1 PUSH2 0x2E4 SWAP2 SWAP1 PUSH2 0x129E JUMP JUMPDEST PUSH2 0x8D6 JUMP JUMPDEST PUSH1 0x40 MLOAD PUSH2 0x2F6 SWAP2 SWAP1 PUSH2 0x1499 JUMP JUMPDEST PUSH1 0x40 MLOAD DUP1 SWAP2 SUB SWAP1 RETURN JUMPDEST CALLVALUE DUP1 ISZERO PUSH2 0x30B JUMPI PUSH1 0x0 DUP1 REVERT JUMPDEST POP PUSH2 0x314 PUSH2 0x8EE JUMP JUMPDEST PUSH1 0x40 MLOAD PUSH2 0x321 SWAP2 SWAP1 PUSH2 0x13CC JUMP JUMPDEST PUSH1 0x40 MLOAD DUP1 SWAP2 SUB SWAP1 RETURN JUMPDEST CALLVALUE DUP1 ISZERO PUSH2 0x336 JUMPI PUSH1 0x0 DUP1 REVERT JUMPDEST POP PUSH2 0x33F PUSH2 0x912 JUMP JUMPDEST PUSH1 0x40 MLOAD PUSH2 0x34C SWAP2 SWAP1 PUSH2 0x1499 JUMP JUMPDEST PUSH1 0x40 MLOAD DUP1 SWAP2 SUB SWAP1 RETURN JUMPDEST CALLVALUE DUP1 ISZERO PUSH2 0x361 JUMPI PUSH1 0x0 DUP1 REVERT JUMPDEST POP PUSH2 0x37C PUSH1 0x4 DUP1 CALLDATASIZE SUB DUP2 ADD SWAP1 PUSH2 0x377 SWAP2 SWAP1 PUSH2 0x132E JUMP JUMPDEST PUSH2 0x918 JUMP JUMPDEST PUSH1 0x40 MLOAD PUSH2 0x38D SWAP6 SWAP5 SWAP4 SWAP3 SWAP2 SWAP1 PUSH2 0x143F JUMP JUMPDEST PUSH1 0x40 MLOAD DUP1 SWAP2 SUB SWAP1 RETURN JUMPDEST CALLVALUE DUP1 ISZERO PUSH2 0x3A2 JUMPI PUSH1 0x0 DUP1 REVERT JUMPDEST POP PUSH2 0x3AB PUSH2 0xA03 JUMP JUMPDEST PUSH1 0x40 MLOAD PUSH2 0x3B8 SWAP2 SWAP1 PUSH2 0x1499 JUMP JUMPDEST PUSH1 0x40 MLOAD DUP1 SWAP2 SUB SWAP1 RETURN JUMPDEST CALLVALUE DUP1 ISZERO PUSH2 0x3CD JUMPI PUSH1 0x0 DUP1 REVERT JUMPDEST POP PUSH2 0x3E8 PUSH1 0x4 DUP1 CALLDATASIZE SUB DUP2 ADD SWAP1 PUSH2 0x3E3 SWAP2 SWAP1 PUSH2 0x12C7 JUMP JUMPDEST PUSH2 0xA09 JUMP JUMPDEST STOP JUMPDEST CALLVALUE DUP1 ISZERO PUSH2 0x3F6 JUMPI PUSH1 0x0 DUP1 REVERT JUMPDEST POP PUSH2 0x3FF PUSH2 0xB27 JUMP JUMPDEST PUSH1 0x40 MLOAD PUSH2 0x40C SWAP2 SWAP1 PUSH2 0x1499 JUMP JUMPDEST PUSH1 0x40 MLOAD DUP1 SWAP2 SUB SWAP1 RETURN JUMPDEST CALLVALUE DUP1 ISZERO PUSH2 0x421 JUMPI PUSH1 0x0 DUP1 REVERT JUMPDEST POP PUSH2 0x42A PUSH2 0xB2D JUMP JUMPDEST PUSH1 0x40 MLOAD PUSH2 0x437 SWAP2 SWAP1 PUSH2 0x141D JUMP JUMPDEST PUSH1 0x40 MLOAD DUP1 SWAP2 SUB SWAP1 RETURN JUMPDEST CALLVALUE DUP1 ISZERO PUSH2 0x44C JUMPI PUSH1 0x0 DUP1 REVERT JUMPDEST POP PUSH2 0x455 PUSH2 0xBBB JUMP JUMPDEST PUSH1 0x40 MLOAD PUSH2 0x462 SWAP2 SWAP1 PUSH2 0x13E7 JUMP JUMPDEST PUSH1 0x40 MLOAD DUP1 SWAP2 SUB SWAP1 RETURN JUMPDEST CALLVALUE DUP1 ISZERO PUSH2 0x477 JUMPI PUSH1 0x0 DUP1 REVERT JUMPDEST POP PUSH2 0x480 PUSH2 0xDEC JUMP JUMPDEST PUSH1 0x40 MLOAD PUSH2 0x48D SWAP2 SWAP1 PUSH2 0x1402 JUMP JUMPDEST PUSH1 0x40 MLOAD DUP1 SWAP2 SUB SWAP1 RETURN JUMPDEST CALLVALUE DUP1 ISZERO PUSH2 0x4A2 JUMPI PUSH1 0x0 DUP1 REVERT JUMPDEST POP PUSH2 0x4AB PUSH2 0xDFF JUMP JUMPDEST PUSH1 0x40 MLOAD PUSH2 0x4B8 SWAP2 SWAP1 PUSH2 0x1499 JUMP JUMPDEST PUSH1 0x40 MLOAD DUP1 SWAP2 SUB SWAP1 RETURN JUMPDEST PUSH2 0x4C9 PUSH2 0xE05 JUMP JUMPDEST STOP JUMPDEST CALLVALUE DUP1 ISZERO PUSH2 0x4D7 JUMPI PUSH1 0x0 DUP1 REVERT JUMPDEST POP PUSH2 0x4F2 PUSH1 0x4 DUP1 CALLDATASIZE SUB DUP2 ADD SWAP1 PUSH2 0x4ED SWAP2 SWAP1 PUSH2 0x132E JUMP JUMPDEST PUSH2 0x102B JUMP JUMPDEST STOP JUMPDEST PUSH1 0x0 DUP1 SLOAD SWAP1 PUSH2 0x100 EXP SWAP1 DIV PUSH20 0xFFFFFFFFFFFFFFFFFFFFFFFFFFFFFFFFFFFFFFFF AND PUSH20 0xFFFFFFFFFFFFFFFFFFFFFFFFFFFFFFFFFFFFFFFF AND CALLER PUSH20 0xFFFFFFFFFFFFFFFFFFFFFFFFFFFFFFFFFFFFFFFF AND EQ PUSH2 0x54C JUMPI PUSH1 0x0 DUP1 REVERT JUMPDEST PUSH1 0x0 PUSH1 0xB PUSH1 0x0 DUP4 DUP2 MSTORE PUSH1 0x20 ADD SWAP1 DUP2 MSTORE PUSH1 0x20 ADD PUSH1 0x0 KECCAK256 SWAP1 POP DUP1 PUSH1 0x2 ADD PUSH1 0x14 SWAP1 SLOAD SWAP1 PUSH2 0x100 EXP SWAP1 DIV PUSH1 0xFF AND ISZERO PUSH2 0x57F JUMPI PUSH1 0x0 DUP1 REVERT JUMPDEST PUSH1 0x2 PUSH1 0xD SLOAD PUSH2 0x58E SWAP2 SWAP1 PUSH2 0x1626 JUMP JUMPDEST DUP2 PUSH1 0x3 ADD SLOAD GT PUSH2 0x59D JUMPI PUSH1 0x0 DUP1 REVERT JUMPDEST DUP1 PUSH1 0x2 ADD PUSH1 0x0 SWAP1 SLOAD SWAP1 PUSH2 0x100 EXP SWAP1 DIV PUSH20 0xFFFFFFFFFFFFFFFFFFFFFFFFFFFFFFFFFFFFFFFF AND PUSH20 0xFFFFFFFFFFFFFFFFFFFFFFFFFFFFFFFFFFFFFFFF AND PUSH2 0x8FC DUP3 PUSH1 0x1 ADD SLOAD SWAP1 DUP2 ISZERO MUL SWAP1 PUSH1 0x40 MLOAD PUSH1 0x0 PUSH1 0x40 MLOAD DUP1 DUP4 SUB DUP2 DUP6 DUP9 DUP9 CALL SWAP4 POP POP POP POP ISZERO DUP1 ISZERO PUSH2 0x60B JUMPI RETURNDATASIZE PUSH1 0x0 DUP1 RETURNDATACOPY RETURNDATASIZE PUSH1 0x0 REVERT JUMPDEST POP PUSH1 0x1 DUP2 PUSH1 0x2 ADD PUSH1 0x14 PUSH2 0x100 EXP DUP2 SLOAD DUP2 PUSH1 0xFF MUL NOT AND SWAP1 DUP4 ISZERO ISZERO MUL OR SWAP1 SSTORE POP POP POP JUMP JUMPDEST PUSH1 0x2 SLOAD DUP2 JUMP JUMPDEST PUSH1 0x0 PUSH1 0x4 SLOAD SWAP1 POP SWAP1 JUMP JUMPDEST PUSH1 0xA PUSH1 0x20 MSTORE DUP1 PUSH1 0x0 MSTORE PUSH1 0x40 PUSH1 0x0 KECCAK256 PUSH1 0x0 SWAP2 POP SLOAD SWAP1 PUSH2 0x100 EXP SWAP1 DIV PUSH1 0xFF AND DUP2 JUMP JUMPDEST PUSH1 0x4 SLOAD DUP2 JUMP JUMPDEST PUSH1 0x7 SLOAD TIMESTAMP GT ISZERO PUSH2 0x6BF JUMPI PUSH1 0x1 PUSH1 0x6 PUSH1 0x0 PUSH2 0x100 EXP DUP2 SLOAD DUP2 PUSH1 0xFF MUL NOT AND SWAP1 DUP4 PUSH1 0x1 DUP2 GT ISZERO PUSH2 0x6B9 JUMPI PUSH32 0x4E487B7100000000000000000000000000000000000000000000000000000000 PUSH1 0x0 MSTORE PUSH1 0x21 PUSH1 0x4 MSTORE PUSH1 0x24 PUSH1 0x0 REVERT JUMPDEST MUL OR SWAP1 SSTORE POP JUMPDEST JUMP JUMPDEST PUSH1 0x1 DUP1 SLOAD PUSH2 0x6CE SWAP1 PUSH2 0x1764 JUMP JUMPDEST DUP1 PUSH1 0x1F ADD PUSH1 0x20 DUP1 SWAP2 DIV MUL PUSH1 0x20 ADD PUSH1 0x40 MLOAD SWAP1 DUP2 ADD PUSH1 0x40 MSTORE DUP1 SWAP3 SWAP2 SWAP1 DUP2 DUP2 MSTORE PUSH1 0x20 ADD DUP3 DUP1 SLOAD PUSH2 0x6FA SWAP1 PUSH2 0x1764 JUMP JUMPDEST DUP1 ISZERO PUSH2 0x747 JUMPI DUP1 PUSH1 0x1F LT PUSH2 0x71C JUMPI PUSH2 0x100 DUP1 DUP4 SLOAD DIV MUL DUP4 MSTORE SWAP2 PUSH1 0x20 ADD SWAP2 PUSH2 0x747 JUMP JUMPDEST DUP3 ADD SWAP2 SWAP1 PUSH1 0x0 MSTORE PUSH1 0x20 PUSH1 0x0 KECCAK256 SWAP1 JUMPDEST DUP2 SLOAD DUP2 MSTORE SWAP1 PUSH1 0x1 ADD SWAP1 PUSH1 0x20 ADD DUP1 DUP4 GT PUSH2 0x72A JUMPI DUP3 SWAP1 SUB PUSH1 0x1F AND DUP3 ADD SWAP2 JUMPDEST POP POP POP POP POP DUP2 JUMP JUMPDEST PUSH1 0x7 SLOAD DUP2 JUMP JUMPDEST PUSH1 0x0 DUP1 PUSH1 0x0 DUP1 PUSH1 0x0 PUSH1 0x60 PUSH1 0x0 PUSH1 0x60 PUSH1 0x0 DUP1 PUSH1 0x9 SLOAD SELFBALANCE PUSH1 0xC SLOAD PUSH1 0xD SLOAD PUSH1 0x0 DUP1 SLOAD SWAP1 PUSH2 0x100 EXP SWAP1 DIV PUSH20 0xFFFFFFFFFFFFFFFFFFFFFFFFFFFFFFFFFFFFFFFF AND PUSH1 0x1 PUSH1 0x2 SLOAD PUSH1 0x3 PUSH1 0x4 SLOAD PUSH1 0x7 SLOAD DUP5 DUP1 SLOAD PUSH2 0x7AA SWAP1 PUSH2 0x1764 JUMP JUMPDEST DUP1 PUSH1 0x1F ADD PUSH1 0x20 DUP1 SWAP2 DIV MUL PUSH1 0x20 ADD PUSH1 0x40 MLOAD SWAP1 DUP2 ADD PUSH1 0x40 MSTORE DUP1 SWAP3 SWAP2 SWAP1 DUP2 DUP2 MSTORE PUSH1 0x20 ADD DUP3 DUP1 SLOAD PUSH2 0x7D6 SWAP1 PUSH2 0x1764 JUMP JUMPDEST DUP1 ISZERO PUSH2 0x823 JUMPI DUP1 PUSH1 0x1F LT PUSH2 0x7F8 JUMPI PUSH2 0x100 DUP1 DUP4 SLOAD DIV MUL DUP4 MSTORE SWAP2 PUSH1 0x20 ADD SWAP2 PUSH2 0x823 JUMP JUMPDEST DUP3 ADD SWAP2 SWAP1 PUSH1 0x0 MSTORE PUSH1 0x20 PUSH1 0x0 KECCAK256 SWAP1 JUMPDEST DUP2 SLOAD DUP2 MSTORE SWAP1 PUSH1 0x1 ADD SWAP1 PUSH1 0x20 ADD DUP1 DUP4 GT PUSH2 0x806 JUMPI DUP3 SWAP1 SUB PUSH1 0x1F AND DUP3 ADD SWAP2 JUMPDEST POP POP POP POP POP SWAP5 POP DUP3 DUP1 SLOAD PUSH2 0x836 SWAP1 PUSH2 0x1764 JUMP JUMPDEST DUP1 PUSH1 0x1F ADD PUSH1 0x20 DUP1 SWAP2 DIV MUL PUSH1 0x20 ADD PUSH1 0x40 MLOAD SWAP1 DUP2 ADD PUSH1 0x40 MSTORE DUP1 SWAP3 SWAP2 SWAP1 DUP2 DUP2 MSTORE PUSH1 0x20 ADD DUP3 DUP1 SLOAD PUSH2 0x862 SWAP1 PUSH2 0x1764 JUMP JUMPDEST DUP1 ISZERO PUSH2 0x8AF JUMPI DUP1 PUSH1 0x1F LT PUSH2 0x884 JUMPI PUSH2 0x100 DUP1 DUP4 SLOAD DIV MUL DUP4 MSTORE SWAP2 PUSH1 0x20 ADD SWAP2 PUSH2 0x8AF JUMP JUMPDEST DUP3 ADD SWAP2 SWAP1 PUSH1 0x0 MSTORE PUSH1 0x20 PUSH1 0x0 KECCAK256 SWAP1 JUMPDEST DUP2 SLOAD DUP2 MSTORE SWAP1 PUSH1 0x1 ADD SWAP1 PUSH1 0x20 ADD DUP1 DUP4 GT PUSH2 0x892 JUMPI DUP3 SWAP1 SUB PUSH1 0x1F AND DUP3 ADD SWAP2 JUMPDEST POP POP POP POP POP SWAP3 POP SWAP10 POP SWAP10 POP SWAP10 POP SWAP10 POP SWAP10 POP SWAP10 POP SWAP10 POP SWAP10 POP SWAP10 POP SWAP10 POP SWAP1 SWAP2 SWAP3 SWAP4 SWAP5 SWAP6 SWAP7 SWAP8 SWAP9 SWAP10 JUMP JUMPDEST PUSH1 0x5 PUSH1 0x20 MSTORE DUP1 PUSH1 0x0 MSTORE PUSH1 0x40 PUSH1 0x0 KECCAK256 PUSH1 0x0 SWAP2 POP SWAP1 POP SLOAD DUP2 JUMP JUMPDEST PUSH1 0x0 DUP1 SLOAD SWAP1 PUSH2 0x100 EXP SWAP1 DIV PUSH20 0xFFFFFFFFFFFFFFFFFFFFFFFFFFFFFFFFFFFFFFFF AND DUP2 JUMP JUMPDEST PUSH1 0xC SLOAD DUP2 JUMP JUMPDEST PUSH1 0xB PUSH1 0x20 MSTORE DUP1 PUSH1 0x0 MSTORE PUSH1 0x40 PUSH1 0x0 KECCAK256 PUSH1 0x0 SWAP2 POP SWAP1 POP DUP1 PUSH1 0x0 ADD DUP1 SLOAD PUSH2 0x93B SWAP1 PUSH2 0x1764 JUMP JUMPDEST DUP1 PUSH1 0x1F ADD PUSH1 0x20 DUP1 SWAP2 DIV MUL PUSH1 0x20 ADD PUSH1 0x40 MLOAD SWAP1 DUP2 ADD PUSH1 0x40 MSTORE DUP1 SWAP3 SWAP2 SWAP1 DUP2 DUP2 MSTORE PUSH1 0x20 ADD DUP3 DUP1 SLOAD PUSH2 0x967 SWAP1 PUSH2 0x1764 JUMP JUMPDEST DUP1 ISZERO PUSH2 0x9B4 JUMPI DUP1 PUSH1 0x1F LT PUSH2 0x989 JUMPI PUSH2 0x100 DUP1 DUP4 SLOAD DIV MUL DUP4 MSTORE SWAP2 PUSH1 0x20 ADD SWAP2 PUSH2 0x9B4 JUMP JUMPDEST DUP3 ADD SWAP2 SWAP1 PUSH1 0x0 MSTORE PUSH1 0x20 PUSH1 0x0 KECCAK256 SWAP1 JUMPDEST DUP2 SLOAD DUP2 MSTORE SWAP1 PUSH1 0x1 ADD SWAP1 PUSH1 0x20 ADD DUP1 DUP4 GT PUSH2 0x997 JUMPI DUP3 SWAP1 SUB PUSH1 0x1F AND DUP3 ADD SWAP2 JUMPDEST POP POP POP POP POP SWAP1 DUP1 PUSH1 0x1 ADD SLOAD SWAP1 DUP1 PUSH1 0x2 ADD PUSH1 0x0 SWAP1 SLOAD SWAP1 PUSH2 0x100 EXP SWAP1 DIV PUSH20 0xFFFFFFFFFFFFFFFFFFFFFFFFFFFFFFFFFFFFFFFF AND SWAP1 DUP1 PUSH1 0x2 ADD PUSH1 0x14 SWAP1 SLOAD SWAP1 PUSH2 0x100 EXP SWAP1 DIV PUSH1 0xFF AND SWAP1 DUP1 PUSH1 0x3 ADD SLOAD SWAP1 POP DUP6 JUMP JUMPDEST PUSH1 0xD SLOAD DUP2 JUMP JUMPDEST PUSH1 0x0 DUP1 SLOAD SWAP1 PUSH2 0x100 EXP SWAP1 DIV PUSH20 0xFFFFFFFFFFFFFFFFFFFFFFFFFFFFFFFFFFFFFFFF AND PUSH20 0xFFFFFFFFFFFFFFFFFFFFFFFFFFFFFFFFFFFFFFFF AND CALLER PUSH20 0xFFFFFFFFFFFFFFFFFFFFFFFFFFFFFFFFFFFFFFFF AND EQ PUSH2 0xA61 JUMPI PUSH1 0x0 DUP1 REVERT JUMPDEST DUP2 SELFBALANCE LT ISZERO PUSH2 0xA6E JUMPI PUSH1 0x0 DUP1 REVERT JUMPDEST PUSH1 0x0 PUSH1 0xB PUSH1 0x0 PUSH1 0xC SLOAD DUP2 MSTORE PUSH1 0x20 ADD SWAP1 DUP2 MSTORE PUSH1 0x20 ADD PUSH1 0x0 KECCAK256 SWAP1 POP DUP4 DUP2 PUSH1 0x0 ADD SWAP1 DUP1 MLOAD SWAP1 PUSH1 0x20 ADD SWAP1 PUSH2 0xA9F SWAP3 SWAP2 SWAP1 PUSH2 0x1169 JUMP JUMPDEST POP DUP3 DUP2 PUSH1 0x1 ADD DUP2 SWAP1 SSTORE POP DUP2 DUP2 PUSH1 0x2 ADD PUSH1 0x0 PUSH2 0x100 EXP DUP2 SLOAD DUP2 PUSH20 0xFFFFFFFFFFFFFFFFFFFFFFFFFFFFFFFFFFFFFFFF MUL NOT AND SWAP1 DUP4 PUSH20 0xFFFFFFFFFFFFFFFFFFFFFFFFFFFFFFFFFFFFFFFF AND MUL OR SWAP1 SSTORE POP PUSH1 0x0 DUP2 PUSH1 0x2 ADD PUSH1 0x14 PUSH2 0x100 EXP DUP2 SLOAD DUP2 PUSH1 0xFF MUL NOT AND SWAP1 DUP4 ISZERO ISZERO MUL OR SWAP1 SSTORE POP PUSH1 0xC PUSH1 0x0 DUP2 SLOAD DUP1 SWAP3 SWAP2 SWAP1 PUSH2 0xB1C SWAP1 PUSH2 0x17C7 JUMP JUMPDEST SWAP2 SWAP1 POP SSTORE POP POP POP POP POP JUMP JUMPDEST PUSH1 0x9 SLOAD DUP2 JUMP JUMPDEST PUSH1 0x3 DUP1 SLOAD PUSH2 0xB3A SWAP1 PUSH2 0x1764 JUMP JUMPDEST DUP1 PUSH1 0x1F ADD PUSH1 0x20 DUP1 SWAP2 DIV MUL PUSH1 0x20 ADD PUSH1 0x40 MLOAD SWAP1 DUP2 ADD PUSH1 0x40 MSTORE DUP1 SWAP3 SWAP2 SWAP1 DUP2 DUP2 MSTORE PUSH1 0x20 ADD DUP3 DUP1 SLOAD PUSH2 0xB66 SWAP1 PUSH2 0x1764 JUMP JUMPDEST DUP1 ISZERO PUSH2 0xBB3 JUMPI DUP1 PUSH1 0x1F LT PUSH2 0xB88 JUMPI PUSH2 0x100 DUP1 DUP4 SLOAD DIV MUL DUP4 MSTORE SWAP2 PUSH1 0x20 ADD SWAP2 PUSH2 0xBB3 JUMP JUMPDEST DUP3 ADD SWAP2 SWAP1 PUSH1 0x0 MSTORE PUSH1 0x20 PUSH1 0x0 KECCAK256 SWAP1 JUMPDEST DUP2 SLOAD DUP2 MSTORE SWAP1 PUSH1 0x1 ADD SWAP1 PUSH1 0x20 ADD DUP1 DUP4 GT PUSH2 0xB96 JUMPI DUP3 SWAP1 SUB PUSH1 0x1F AND DUP3 ADD SWAP2 JUMPDEST POP POP POP POP POP DUP2 JUMP JUMPDEST PUSH1 0x0 PUSH1 0x1 DUP1 PUSH1 0x1 DUP2 GT ISZERO PUSH2 0xBF8 JUMPI PUSH32 0x4E487B7100000000000000000000000000000000000000000000000000000000 PUSH1 0x0 MSTORE PUSH1 0x21 PUSH1 0x4 MSTORE PUSH1 0x24 PUSH1 0x0 REVERT JUMPDEST PUSH1 0x6 PUSH1 0x0 SWAP1 SLOAD SWAP1 PUSH2 0x100 EXP SWAP1 DIV PUSH1 0xFF AND PUSH1 0x1 DUP2 GT ISZERO PUSH2 0xC40 JUMPI PUSH32 0x4E487B7100000000000000000000000000000000000000000000000000000000 PUSH1 0x0 MSTORE PUSH1 0x21 PUSH1 0x4 MSTORE PUSH1 0x24 PUSH1 0x0 REVERT JUMPDEST EQ PUSH2 0xC4A JUMPI PUSH1 0x0 DUP1 REVERT JUMPDEST PUSH1 0x0 PUSH1 0x5 PUSH1 0x0 CALLER PUSH20 0xFFFFFFFFFFFFFFFFFFFFFFFFFFFFFFFFFFFFFFFF AND PUSH20 0xFFFFFFFFFFFFFFFFFFFFFFFFFFFFFFFFFFFFFFFF AND DUP2 MSTORE PUSH1 0x20 ADD SWAP1 DUP2 MSTORE PUSH1 0x20 ADD PUSH1 0x0 KECCAK256 SLOAD GT PUSH2 0xC96 JUMPI PUSH1 0x0 DUP1 REVERT JUMPDEST PUSH1 0x2 SLOAD PUSH1 0x4 SLOAD LT PUSH2 0xCA6 JUMPI PUSH1 0x0 DUP1 REVERT JUMPDEST PUSH1 0x0 PUSH1 0x5 PUSH1 0x0 CALLER PUSH20 0xFFFFFFFFFFFFFFFFFFFFFFFFFFFFFFFFFFFFFFFF AND PUSH20 0xFFFFFFFFFFFFFFFFFFFFFFFFFFFFFFFFFFFFFFFF AND DUP2 MSTORE PUSH1 0x20 ADD SWAP1 DUP2 MSTORE PUSH1 0x20 ADD PUSH1 0x0 KECCAK256 SLOAD SWAP1 POP PUSH1 0x0 PUSH1 0x5 PUSH1 0x0 CALLER PUSH20 0xFFFFFFFFFFFFFFFFFFFFFFFFFFFFFFFFFFFFFFFF AND PUSH20 0xFFFFFFFFFFFFFFFFFFFFFFFFFFFFFFFFFFFFFFFF AND DUP2 MSTORE PUSH1 0x20 ADD SWAP1 DUP2 MSTORE PUSH1 0x20 ADD PUSH1 0x0 KECCAK256 DUP2 SWAP1 SSTORE POP CALLER PUSH20 0xFFFFFFFFFFFFFFFFFFFFFFFFFFFFFFFFFFFFFFFF AND PUSH2 0x8FC DUP3 SWAP1 DUP2 ISZERO MUL SWAP1 PUSH1 0x40 MLOAD PUSH1 0x0 PUSH1 0x40 MLOAD DUP1 DUP4 SUB DUP2 DUP6 DUP9 DUP9 CALL SWAP4 POP POP POP POP PUSH2 0xDB6 JUMPI DUP1 PUSH1 0x5 PUSH1 0x0 CALLER PUSH20 0xFFFFFFFFFFFFFFFFFFFFFFFFFFFFFFFFFFFFFFFF AND PUSH20 0xFFFFFFFFFFFFFFFFFFFFFFFFFFFFFFFFFFFFFFFF AND DUP2 MSTORE PUSH1 0x20 ADD SWAP1 DUP2 MSTORE PUSH1 0x20 ADD PUSH1 0x0 KECCAK256 DUP2 SWAP1 SSTORE POP PUSH1 0x0 SWAP3 POP POP PUSH2 0xDE8 JUMP JUMPDEST DUP1 PUSH1 0x4 SLOAD PUSH2 0xDC4 SWAP2 SWAP1 PUSH2 0x1657 JUMP JUMPDEST PUSH1 0x4 DUP2 SWAP1 SSTORE POP PUSH1 0xD PUSH1 0x0 DUP2 SLOAD DUP1 SWAP3 SWAP2 SWAP1 PUSH2 0xDDD SWAP1 PUSH2 0x173A JUMP JUMPDEST SWAP2 SWAP1 POP SSTORE POP PUSH1 0x1 SWAP3 POP POP JUMPDEST POP SWAP1 JUMP JUMPDEST PUSH1 0x6 PUSH1 0x0 SWAP1 SLOAD SWAP1 PUSH2 0x100 EXP SWAP1 DIV PUSH1 0xFF AND DUP2 JUMP JUMPDEST PUSH1 0x8 SLOAD DUP2 JUMP JUMPDEST PUSH1 0x0 DUP1 PUSH1 0x1 DUP2 GT ISZERO PUSH2 0xE40 JUMPI PUSH32 0x4E487B7100000000000000000000000000000000000000000000000000000000 PUSH1 0x0 MSTORE PUSH1 0x21 PUSH1 0x4 MSTORE PUSH1 0x24 PUSH1 0x0 REVERT JUMPDEST PUSH1 0x6 PUSH1 0x0 SWAP1 SLOAD SWAP1 PUSH2 0x100 EXP SWAP1 DIV PUSH1 0xFF AND PUSH1 0x1 DUP2 GT ISZERO PUSH2 0xE88 JUMPI PUSH32 0x4E487B7100000000000000000000000000000000000000000000000000000000 PUSH1 0x0 MSTORE PUSH1 0x21 PUSH1 0x4 MSTORE PUSH1 0x24 PUSH1 0x0 REVERT JUMPDEST EQ PUSH2 0xE92 JUMPI PUSH1 0x0 DUP1 REVERT JUMPDEST PUSH1 0x0 DUP1 SLOAD SWAP1 PUSH2 0x100 EXP SWAP1 DIV PUSH20 0xFFFFFFFFFFFFFFFFFFFFFFFFFFFFFFFFFFFFFFFF AND PUSH20 0xFFFFFFFFFFFFFFFFFFFFFFFFFFFFFFFFFFFFFFFF AND CALLER PUSH20 0xFFFFFFFFFFFFFFFFFFFFFFFFFFFFFFFFFFFFFFFF AND EQ ISZERO PUSH2 0xEEB JUMPI PUSH1 0x0 DUP1 REVERT JUMPDEST PUSH1 0x9 SLOAD CALLVALUE LT ISZERO PUSH2 0xEFA JUMPI PUSH1 0x0 DUP1 REVERT JUMPDEST CALLVALUE PUSH1 0x5 PUSH1 0x0 CALLER PUSH20 0xFFFFFFFFFFFFFFFFFFFFFFFFFFFFFFFFFFFFFFFF AND PUSH20 0xFFFFFFFFFFFFFFFFFFFFFFFFFFFFFFFFFFFFFFFF AND DUP2 MSTORE PUSH1 0x20 ADD SWAP1 DUP2 MSTORE PUSH1 0x20 ADD PUSH1 0x0 KECCAK256 SLOAD PUSH2 0xF45 SWAP2 SWAP1 PUSH2 0x15D0 JUMP JUMPDEST PUSH1 0x5 PUSH1 0x0 CALLER PUSH20 0xFFFFFFFFFFFFFFFFFFFFFFFFFFFFFFFFFFFFFFFF AND PUSH20 0xFFFFFFFFFFFFFFFFFFFFFFFFFFFFFFFFFFFFFFFF AND DUP2 MSTORE PUSH1 0x20 ADD SWAP1 DUP2 MSTORE PUSH1 0x20 ADD PUSH1 0x0 KECCAK256 DUP2 SWAP1 SSTORE POP PUSH1 0x1 PUSH1 0xA PUSH1 0x0 CALLER PUSH20 0xFFFFFFFFFFFFFFFFFFFFFFFFFFFFFFFFFFFFFFFF AND PUSH20 0xFFFFFFFFFFFFFFFFFFFFFFFFFFFFFFFFFFFFFFFF AND DUP2 MSTORE PUSH1 0x20 ADD SWAP1 DUP2 MSTORE PUSH1 0x20 ADD PUSH1 0x0 KECCAK256 PUSH1 0x0 PUSH2 0x100 EXP DUP2 SLOAD DUP2 PUSH1 0xFF MUL NOT AND SWAP1 DUP4 ISZERO ISZERO MUL OR SWAP1 SSTORE POP PUSH1 0xD PUSH1 0x0 DUP2 SLOAD DUP1 SWAP3 SWAP2 SWAP1 PUSH2 0xFF3 SWAP1 PUSH2 0x17C7 JUMP JUMPDEST SWAP2 SWAP1 POP SSTORE POP CALLVALUE PUSH1 0x4 SLOAD PUSH2 0x1006 SWAP2 SWAP1 PUSH2 0x15D0 JUMP JUMPDEST PUSH1 0x4 DUP2 SWAP1 SSTORE POP CALLVALUE PUSH1 0x8 SLOAD PUSH2 0x101A SWAP2 SWAP1 PUSH2 0x15D0 JUMP JUMPDEST PUSH1 0x8 DUP2 SWAP1 SSTORE POP PUSH2 0x1028 PUSH2 0x663 JUMP JUMPDEST POP JUMP JUMPDEST PUSH1 0x0 PUSH1 0xB PUSH1 0x0 DUP4 DUP2 MSTORE PUSH1 0x20 ADD SWAP1 DUP2 MSTORE PUSH1 0x20 ADD PUSH1 0x0 KECCAK256 SWAP1 POP PUSH1 0xA PUSH1 0x0 CALLER PUSH20 0xFFFFFFFFFFFFFFFFFFFFFFFFFFFFFFFFFFFFFFFF AND PUSH20 0xFFFFFFFFFFFFFFFFFFFFFFFFFFFFFFFFFFFFFFFF AND DUP2 MSTORE PUSH1 0x20 ADD SWAP1 DUP2 MSTORE PUSH1 0x20 ADD PUSH1 0x0 KECCAK256 PUSH1 0x0 SWAP1 SLOAD SWAP1 PUSH2 0x100 EXP SWAP1 DIV PUSH1 0xFF AND PUSH2 0x1098 JUMPI PUSH1 0x0 DUP1 REVERT JUMPDEST DUP1 PUSH1 0x4 ADD PUSH1 0x0 CALLER PUSH20 0xFFFFFFFFFFFFFFFFFFFFFFFFFFFFFFFFFFFFFFFF AND PUSH20 0xFFFFFFFFFFFFFFFFFFFFFFFFFFFFFFFFFFFFFFFF AND DUP2 MSTORE PUSH1 0x20 ADD SWAP1 DUP2 MSTORE PUSH1 0x20 ADD PUSH1 0x0 KECCAK256 PUSH1 0x0 SWAP1 SLOAD SWAP1 PUSH2 0x100 EXP SWAP1 DIV PUSH1 0xFF AND ISZERO PUSH2 0x10F1 JUMPI PUSH1 0x0 DUP1 REVERT JUMPDEST PUSH1 0x1 DUP2 PUSH1 0x4 ADD PUSH1 0x0 CALLER PUSH20 0xFFFFFFFFFFFFFFFFFFFFFFFFFFFFFFFFFFFFFFFF AND PUSH20 0xFFFFFFFFFFFFFFFFFFFFFFFFFFFFFFFFFFFFFFFF AND DUP2 MSTORE PUSH1 0x20 ADD SWAP1 DUP2 MSTORE PUSH1 0x20 ADD PUSH1 0x0 KECCAK256 PUSH1 0x0 PUSH2 0x100 EXP DUP2 SLOAD DUP2 PUSH1 0xFF MUL NOT AND SWAP1 DUP4 ISZERO ISZERO MUL OR SWAP1 SSTORE POP DUP1 PUSH1 0x3 ADD PUSH1 0x0 DUP2 SLOAD DUP1 SWAP3 SWAP2 SWAP1 PUSH2 0x1160 SWAP1 PUSH2 0x17C7 JUMP JUMPDEST SWAP2 SWAP1 POP SSTORE POP POP POP JUMP JUMPDEST DUP3 DUP1 SLOAD PUSH2 0x1175 SWAP1 PUSH2 0x1764 JUMP JUMPDEST SWAP1 PUSH1 0x0 MSTORE PUSH1 0x20 PUSH1 0x0 KECCAK256 SWAP1 PUSH1 0x1F ADD PUSH1 0x20 SWAP1 DIV DUP2 ADD SWAP3 DUP3 PUSH2 0x1197 JUMPI PUSH1 0x0 DUP6 SSTORE PUSH2 0x11DE JUMP JUMPDEST DUP3 PUSH1 0x1F LT PUSH2 0x11B0 JUMPI DUP1 MLOAD PUSH1 0xFF NOT AND DUP4 DUP1 ADD OR DUP6 SSTORE PUSH2 0x11DE JUMP JUMPDEST DUP3 DUP1 ADD PUSH1 0x1 ADD DUP6 SSTORE DUP3 ISZERO PUSH2 0x11DE JUMPI SWAP2 DUP3 ADD JUMPDEST DUP3 DUP2 GT ISZERO PUSH2 0x11DD JUMPI DUP3 MLOAD DUP3 SSTORE SWAP2 PUSH1 0x20 ADD SWAP2 SWAP1 PUSH1 0x1 ADD SWAP1 PUSH2 0x11C2 JUMP JUMPDEST JUMPDEST POP SWAP1 POP PUSH2 0x11EB SWAP2 SWAP1 PUSH2 0x11EF JUMP JUMPDEST POP SWAP1 JUMP JUMPDEST JUMPDEST DUP1 DUP3 GT ISZERO PUSH2 0x1208 JUMPI PUSH1 0x0 DUP2 PUSH1 0x0 SWAP1 SSTORE POP PUSH1 0x1 ADD PUSH2 0x11F0 JUMP JUMPDEST POP SWAP1 JUMP JUMPDEST PUSH1 0x0 PUSH2 0x121F PUSH2 0x121A DUP5 PUSH2 0x1583 JUMP JUMPDEST PUSH2 0x155E JUMP JUMPDEST SWAP1 POP DUP3 DUP2 MSTORE PUSH1 0x20 DUP2 ADD DUP5 DUP5 DUP5 ADD GT ISZERO PUSH2 0x1237 JUMPI PUSH1 0x0 DUP1 REVERT JUMPDEST PUSH2 0x1242 DUP5 DUP3 DUP6 PUSH2 0x16F8 JUMP JUMPDEST POP SWAP4 SWAP3 POP POP POP JUMP JUMPDEST PUSH1 0x0 DUP2 CALLDATALOAD SWAP1 POP PUSH2 0x1259 DUP2 PUSH2 0x1920 JUMP JUMPDEST SWAP3 SWAP2 POP POP JUMP JUMPDEST PUSH1 0x0 DUP3 PUSH1 0x1F DUP4 ADD SLT PUSH2 0x1270 JUMPI PUSH1 0x0 DUP1 REVERT JUMPDEST DUP2 CALLDATALOAD PUSH2 0x1280 DUP5 DUP3 PUSH1 0x20 DUP7 ADD PUSH2 0x120C JUMP JUMPDEST SWAP2 POP POP SWAP3 SWAP2 POP POP JUMP JUMPDEST PUSH1 0x0 DUP2 CALLDATALOAD SWAP1 POP PUSH2 0x1298 DUP2 PUSH2 0x1937 JUMP JUMPDEST SWAP3 SWAP2 POP POP JUMP JUMPDEST PUSH1 0x0 PUSH1 0x20 DUP3 DUP5 SUB SLT ISZERO PUSH2 0x12B0 JUMPI PUSH1 0x0 DUP1 REVERT JUMPDEST PUSH1 0x0 PUSH2 0x12BE DUP5 DUP3 DUP6 ADD PUSH2 0x124A JUMP JUMPDEST SWAP2 POP POP SWAP3 SWAP2 POP POP JUMP JUMPDEST PUSH1 0x0 DUP1 PUSH1 0x0 PUSH1 0x60 DUP5 DUP7 SUB SLT ISZERO PUSH2 0x12DC JUMPI PUSH1 0x0 DUP1 REVERT JUMPDEST PUSH1 0x0 DUP5 ADD CALLDATALOAD PUSH8 0xFFFFFFFFFFFFFFFF DUP2 GT ISZERO PUSH2 0x12F6 JUMPI PUSH1 0x0 DUP1 REVERT JUMPDEST PUSH2 0x1302 DUP7 DUP3 DUP8 ADD PUSH2 0x125F JUMP JUMPDEST SWAP4 POP POP PUSH1 0x20 PUSH2 0x1313 DUP7 DUP3 DUP8 ADD PUSH2 0x1289 JUMP JUMPDEST SWAP3 POP POP PUSH1 0x40 PUSH2 0x1324 DUP7 DUP3 DUP8 ADD PUSH2 0x124A JUMP JUMPDEST SWAP2 POP POP SWAP3 POP SWAP3 POP SWAP3 JUMP JUMPDEST PUSH1 0x0 PUSH1 0x20 DUP3 DUP5 SUB SLT ISZERO PUSH2 0x1340 JUMPI PUSH1 0x0 DUP1 REVERT JUMPDEST PUSH1 0x0 PUSH2 0x134E DUP5 DUP3 DUP6 ADD PUSH2 0x1289 JUMP JUMPDEST SWAP2 POP POP SWAP3 SWAP2 POP POP JUMP JUMPDEST PUSH2 0x1360 DUP2 PUSH2 0x168B JUMP JUMPDEST DUP3 MSTORE POP POP JUMP JUMPDEST PUSH2 0x136F DUP2 PUSH2 0x169D JUMP JUMPDEST DUP3 MSTORE POP POP JUMP JUMPDEST PUSH2 0x137E DUP2 PUSH2 0x16E6 JUMP JUMPDEST DUP3 MSTORE POP POP JUMP JUMPDEST PUSH1 0x0 PUSH2 0x138F DUP3 PUSH2 0x15B4 JUMP JUMPDEST PUSH2 0x1399 DUP2 DUP6 PUSH2 0x15BF JUMP JUMPDEST SWAP4 POP PUSH2 0x13A9 DUP2 DUP6 PUSH1 0x20 DUP7 ADD PUSH2 0x1707 JUMP JUMPDEST PUSH2 0x13B2 DUP2 PUSH2 0x18FB JUMP JUMPDEST DUP5 ADD SWAP2 POP POP SWAP3 SWAP2 POP POP JUMP JUMPDEST PUSH2 0x13C6 DUP2 PUSH2 0x16DC JUMP JUMPDEST DUP3 MSTORE POP POP JUMP JUMPDEST PUSH1 0x0 PUSH1 0x20 DUP3 ADD SWAP1 POP PUSH2 0x13E1 PUSH1 0x0 DUP4 ADD DUP5 PUSH2 0x1357 JUMP JUMPDEST SWAP3 SWAP2 POP POP JUMP JUMPDEST PUSH1 0x0 PUSH1 0x20 DUP3 ADD SWAP1 POP PUSH2 0x13FC PUSH1 0x0 DUP4 ADD DUP5 PUSH2 0x1366 JUMP JUMPDEST SWAP3 SWAP2 POP POP JUMP JUMPDEST PUSH1 0x0 PUSH1 0x20 DUP3 ADD SWAP1 POP PUSH2 0x1417 PUSH1 0x0 DUP4 ADD DUP5 PUSH2 0x1375 JUMP JUMPDEST SWAP3 SWAP2 POP POP JUMP JUMPDEST PUSH1 0x0 PUSH1 0x20 DUP3 ADD SWAP1 POP DUP2 DUP2 SUB PUSH1 0x0 DUP4 ADD MSTORE PUSH2 0x1437 DUP2 DUP5 PUSH2 0x1384 JUMP JUMPDEST SWAP1 POP SWAP3 SWAP2 POP POP JUMP JUMPDEST PUSH1 0x0 PUSH1 0xA0 DUP3 ADD SWAP1 POP DUP2 DUP2 SUB PUSH1 0x0 DUP4 ADD MSTORE PUSH2 0x1459 DUP2 DUP9 PUSH2 0x1384 JUMP JUMPDEST SWAP1 POP PUSH2 0x1468 PUSH1 0x20 DUP4 ADD DUP8 PUSH2 0x13BD JUMP JUMPDEST PUSH2 0x1475 PUSH1 0x40 DUP4 ADD DUP7 PUSH2 0x1357 JUMP JUMPDEST PUSH2 0x1482 PUSH1 0x60 DUP4 ADD DUP6 PUSH2 0x1366 JUMP JUMPDEST PUSH2 0x148F PUSH1 0x80 DUP4 ADD DUP5 PUSH2 0x13BD JUMP JUMPDEST SWAP7 SWAP6 POP POP POP POP POP POP JUMP JUMPDEST PUSH1 0x0 PUSH1 0x20 DUP3 ADD SWAP1 POP PUSH2 0x14AE PUSH1 0x0 DUP4 ADD DUP5 PUSH2 0x13BD JUMP JUMPDEST SWAP3 SWAP2 POP POP JUMP JUMPDEST PUSH1 0x0 PUSH2 0x140 DUP3 ADD SWAP1 POP PUSH2 0x14CA PUSH1 0x0 DUP4 ADD DUP14 PUSH2 0x13BD JUMP JUMPDEST PUSH2 0x14D7 PUSH1 0x20 DUP4 ADD DUP13 PUSH2 0x13BD JUMP JUMPDEST PUSH2 0x14E4 PUSH1 0x40 DUP4 ADD DUP12 PUSH2 0x13BD JUMP JUMPDEST PUSH2 0x14F1 PUSH1 0x60 DUP4 ADD DUP11 PUSH2 0x13BD JUMP JUMPDEST PUSH2 0x14FE PUSH1 0x80 DUP4 ADD DUP10 PUSH2 0x1357 JUMP JUMPDEST DUP2 DUP2 SUB PUSH1 0xA0 DUP4 ADD MSTORE PUSH2 0x1510 DUP2 DUP9 PUSH2 0x1384 JUMP JUMPDEST SWAP1 POP PUSH2 0x151F PUSH1 0xC0 DUP4 ADD DUP8 PUSH2 0x13BD JUMP JUMPDEST DUP2 DUP2 SUB PUSH1 0xE0 DUP4 ADD MSTORE PUSH2 0x1531 DUP2 DUP7 PUSH2 0x1384 JUMP JUMPDEST SWAP1 POP PUSH2 0x1541 PUSH2 0x100 DUP4 ADD DUP6 PUSH2 0x13BD JUMP JUMPDEST PUSH2 0x154F PUSH2 0x120 DUP4 ADD DUP5 PUSH2 0x13BD JUMP JUMPDEST SWAP12 SWAP11 POP POP POP POP POP POP POP POP POP POP POP JUMP JUMPDEST PUSH1 0x0 PUSH2 0x1568 PUSH2 0x1579 JUMP JUMPDEST SWAP1 POP PUSH2 0x1574 DUP3 DUP3 PUSH2 0x1796 JUMP JUMPDEST SWAP2 SWAP1 POP JUMP JUMPDEST PUSH1 0x0 PUSH1 0x40 MLOAD SWAP1 POP SWAP1 JUMP JUMPDEST PUSH1 0x0 PUSH8 0xFFFFFFFFFFFFFFFF DUP3 GT ISZERO PUSH2 0x159E JUMPI PUSH2 0x159D PUSH2 0x18CC JUMP JUMPDEST JUMPDEST PUSH2 0x15A7 DUP3 PUSH2 0x18FB JUMP JUMPDEST SWAP1 POP PUSH1 0x20 DUP2 ADD SWAP1 POP SWAP2 SWAP1 POP JUMP JUMPDEST PUSH1 0x0 DUP2 MLOAD SWAP1 POP SWAP2 SWAP1 POP JUMP JUMPDEST PUSH1 0x0 DUP3 DUP3 MSTORE PUSH1 0x20 DUP3 ADD SWAP1 POP SWAP3 SWAP2 POP POP JUMP JUMPDEST PUSH1 0x0 PUSH2 0x15DB DUP3 PUSH2 0x16DC JUMP JUMPDEST SWAP2 POP PUSH2 0x15E6 DUP4 PUSH2 0x16DC JUMP JUMPDEST SWAP3 POP DUP3 PUSH32 0xFFFFFFFFFFFFFFFFFFFFFFFFFFFFFFFFFFFFFFFFFFFFFFFFFFFFFFFFFFFFFFFF SUB DUP3 GT ISZERO PUSH2 0x161B JUMPI PUSH2 0x161A PUSH2 0x1810 JUMP JUMPDEST JUMPDEST DUP3 DUP3 ADD SWAP1 POP SWAP3 SWAP2 POP POP JUMP JUMPDEST PUSH1 0x0 PUSH2 0x1631 DUP3 PUSH2 0x16DC JUMP JUMPDEST SWAP2 POP PUSH2 0x163C DUP4 PUSH2 0x16DC JUMP JUMPDEST SWAP3 POP DUP3 PUSH2 0x164C JUMPI PUSH2 0x164B PUSH2 0x183F JUMP JUMPDEST JUMPDEST DUP3 DUP3 DIV SWAP1 POP SWAP3 SWAP2 POP POP JUMP JUMPDEST PUSH1 0x0 PUSH2 0x1662 DUP3 PUSH2 0x16DC JUMP JUMPDEST SWAP2 POP PUSH2 0x166D DUP4 PUSH2 0x16DC JUMP JUMPDEST SWAP3 POP DUP3 DUP3 LT ISZERO PUSH2 0x1680 JUMPI PUSH2 0x167F PUSH2 0x1810 JUMP JUMPDEST JUMPDEST DUP3 DUP3 SUB SWAP1 POP SWAP3 SWAP2 POP POP JUMP JUMPDEST PUSH1 0x0 PUSH2 0x1696 DUP3 PUSH2 0x16BC JUMP JUMPDEST SWAP1 POP SWAP2 SWAP1 POP JUMP JUMPDEST PUSH1 0x0 DUP2 ISZERO ISZERO SWAP1 POP SWAP2 SWAP1 POP JUMP JUMPDEST PUSH1 0x0 DUP2 SWAP1 POP PUSH2 0x16B7 DUP3 PUSH2 0x190C JUMP JUMPDEST SWAP2 SWAP1 POP JUMP JUMPDEST PUSH1 0x0 PUSH20 0xFFFFFFFFFFFFFFFFFFFFFFFFFFFFFFFFFFFFFFFF DUP3 AND SWAP1 POP SWAP2 SWAP1 POP JUMP JUMPDEST PUSH1 0x0 DUP2 SWAP1 POP SWAP2 SWAP1 POP JUMP JUMPDEST PUSH1 0x0 PUSH2 0x16F1 DUP3 PUSH2 0x16A9 JUMP JUMPDEST SWAP1 POP SWAP2 SWAP1 POP JUMP JUMPDEST DUP3 DUP2 DUP4 CALLDATACOPY PUSH1 0x0 DUP4 DUP4 ADD MSTORE POP POP POP JUMP JUMPDEST PUSH1 0x0 JUMPDEST DUP4 DUP2 LT ISZERO PUSH2 0x1725 JUMPI DUP1 DUP3 ADD MLOAD DUP2 DUP5 ADD MSTORE PUSH1 0x20 DUP2 ADD SWAP1 POP PUSH2 0x170A JUMP JUMPDEST DUP4 DUP2 GT ISZERO PUSH2 0x1734 JUMPI PUSH1 0x0 DUP5 DUP5 ADD MSTORE JUMPDEST POP POP POP POP JUMP JUMPDEST PUSH1 0x0 PUSH2 0x1745 DUP3 PUSH2 0x16DC JUMP JUMPDEST SWAP2 POP PUSH1 0x0 DUP3 EQ ISZERO PUSH2 0x1759 JUMPI PUSH2 0x1758 PUSH2 0x1810 JUMP JUMPDEST JUMPDEST PUSH1 0x1 DUP3 SUB SWAP1 POP SWAP2 SWAP1 POP JUMP JUMPDEST PUSH1 0x0 PUSH1 0x2 DUP3 DIV SWAP1 POP PUSH1 0x1 DUP3 AND DUP1 PUSH2 0x177C JUMPI PUSH1 0x7F DUP3 AND SWAP2 POP JUMPDEST PUSH1 0x20 DUP3 LT DUP2 EQ ISZERO PUSH2 0x1790 JUMPI PUSH2 0x178F PUSH2 0x189D JUMP JUMPDEST JUMPDEST POP SWAP2 SWAP1 POP JUMP JUMPDEST PUSH2 0x179F DUP3 PUSH2 0x18FB JUMP JUMPDEST DUP2 ADD DUP2 DUP2 LT PUSH8 0xFFFFFFFFFFFFFFFF DUP3 GT OR ISZERO PUSH2 0x17BE JUMPI PUSH2 0x17BD PUSH2 0x18CC JUMP JUMPDEST JUMPDEST DUP1 PUSH1 0x40 MSTORE POP POP POP JUMP JUMPDEST PUSH1 0x0 PUSH2 0x17D2 DUP3 PUSH2 0x16DC JUMP JUMPDEST SWAP2 POP PUSH32 0xFFFFFFFFFFFFFFFFFFFFFFFFFFFFFFFFFFFFFFFFFFFFFFFFFFFFFFFFFFFFFFFF DUP3 EQ ISZERO PUSH2 0x1805 JUMPI PUSH2 0x1804 PUSH2 0x1810 JUMP JUMPDEST JUMPDEST PUSH1 0x1 DUP3 ADD SWAP1 POP SWAP2 SWAP1 POP JUMP JUMPDEST PUSH32 0x4E487B7100000000000000000000000000000000000000000000000000000000 PUSH1 0x0 MSTORE PUSH1 0x11 PUSH1 0x4 MSTORE PUSH1 0x24 PUSH1 0x0 REVERT JUMPDEST PUSH32 0x4E487B7100000000000000000000000000000000000000000000000000000000 PUSH1 0x0 MSTORE PUSH1 0x12 PUSH1 0x4 MSTORE PUSH1 0x24 PUSH1 0x0 REVERT JUMPDEST PUSH32 0x4E487B7100000000000000000000000000000000000000000000000000000000 PUSH1 0x0 MSTORE PUSH1 0x21 PUSH1 0x4 MSTORE PUSH1 0x24 PUSH1 0x0 REVERT JUMPDEST PUSH32 0x4E487B7100000000000000000000000000000000000000000000000000000000 PUSH1 0x0 MSTORE PUSH1 0x22 PUSH1 0x4 MSTORE PUSH1 0x24 PUSH1 0x0 REVERT JUMPDEST PUSH32 0x4E487B7100000000000000000000000000000000000000000000000000000000 PUSH1 0x0 MSTORE PUSH1 0x41 PUSH1 0x4 MSTORE PUSH1 0x24 PUSH1 0x0 REVERT JUMPDEST PUSH1 0x0 PUSH1 0x1F NOT PUSH1 0x1F DUP4 ADD AND SWAP1 POP SWAP2 SWAP1 POP JUMP JUMPDEST PUSH1 0x2 DUP2 LT PUSH2 0x191D JUMPI PUSH2 0x191C PUSH2 0x186E JUMP JUMPDEST JUMPDEST POP JUMP JUMPDEST PUSH2 0x1929 DUP2 PUSH2 0x168B JUMP JUMPDEST DUP2 EQ PUSH2 0x1934 JUMPI PUSH1 0x0 DUP1 REVERT JUMPDEST POP JUMP JUMPDEST PUSH2 0x1940 DUP2 PUSH2 0x16DC JUMP JUMPDEST DUP2 EQ PUSH2 0x194B JUMPI PUSH1 0x0 DUP1 REVERT JUMPDEST POP JUMP INVALID LOG2 PUSH5 0x6970667358 0x22 SLT KECCAK256 DIV 0xBB 0xB6 PUSH12 0x7846EA908363C58C0BB10061 0xCC SWAP14 0xCA EXTCODESIZE 0x22 0xD9 0xDF ADDMOD 0xD1 SELFBALANCE 0x4C 0xD3 0xC9 0xC2 0xB5 SWAP4 PUSH5 0x736F6C6343 STOP ADDMOD DIV STOP CALLER "},"gasEstimates":{"creation":{"codeDepositCost":"1306400","executionCost":"infinite","totalCost":"infinite"},"external":{"CampaignDescription()":"infinite","amountGoal()":"1175","approveRequest(uint256)":"infinite","approvers(address)":"1635","approversCount()":"1196","checkIfFundingExpired()":"21879","contribute()":"infinite","contributions(address)":"1625","createRequest(string,uint256,address)":"infinite","currentBalance()":"1217","finalizeRequest(uint256)":"infinite","getRefund()":"infinite","getSummary()":"infinite","getTotalContribution()":"1205","manager()":"1344","minimumContribution()":"1240","raiseBy()":"1196","requestCount()":"1152","requests(uint256)":"infinite","state()":"1326","titleCompaign()":"infinite","totalContribution()":"1241"}},"methodIdentifiers":{"CampaignDescription()":"97654a8c","amountGoal()":"0785001c","approveRequest(uint256)":"d7d1bbdb","approvers(address)":"0a144391","approversCount()":"82fde093","checkIfFundingExpired()":"15879c29","contribute()":"d7bb99ba","contributions(address)":"42e94c90","createRequest(string,uint256,address)":"8a9cfd55","currentBalance()":"ce845d1d","finalizeRequest(uint256)":"03441006","getRefund()":"b2d5ae44","getSummary()":"4051ddac","getTotalContribution()":"08caa910","manager()":"481c6a75","minimumContribution()":"937e09b1","raiseBy()":"37f944cc","requestCount()":"5badbe4c","requests(uint256)":"81d12c58","state()":"c19d93fb","titleCompaign()":"32461bd8","totalContribution()":"0dcf4b8f"}},"storageLayout":{"storage":[{"astId":110,"contract":"campaign.sol:Campaign","label":"manager","offset":0,"slot":"0","type":"t_address"},{"astId":112,"contract":"campaign.sol:Campaign","label":"titleCompaign","offset":0,"slot":"1","type":"t_string_storage"},{"astId":114,"contract":"campaign.sol:Campaign","label":"amountGoal","offset":0,"slot":"2","type":"t_uint256"},{"astId":116,"contract":"campaign.sol:Campaign","label":"CampaignDescription","offset":0,"slot":"3","type":"t_string_storage"},{"astId":118,"contract":"campaign.sol:Campaign","label":"totalContribution","offset":0,"slot":"4","type":"t_uint256"},{"astId":122,"contract":"campaign.sol:Campaign","label":"contributions","offset":0,"slot":"5","type":"t_mapping(t_address,t_uint256)"},{"astId":127,"contract":"campaign.sol:Campaign","label":"state","offset":0,"slot":"6","type":"t_enum(State)108"},{"astId":129,"contract":"campaign.sol:Campaign","label":"raiseBy","offset":0,"slot":"7","type":"t_uint256"},{"astId":131,"contract":"campaign.sol:Campaign","label":"currentBalance","offset":0,"slot":"8","type":"t_uint256"},{"astId":133,"contract":"campaign.sol:Campaign","label":"minimumContribution","offset":0,"slot":"9","type":"t_uint256"},{"astId":137,"contract":"campaign.sol:Campaign","label":"approvers","offset":0,"slot":"10","type":"t_mapping(t_address,t_bool)"},{"astId":142,"contract":"campaign.sol:Campaign","label":"requests","offset":0,"slot":"11","type":"t_mapping(t_uint256,t_struct(Request)105_storage)"},{"astId":144,"contract":"campaign.sol:Campaign","label":"requestCount","offset":0,"slot":"12","type":"t_uint256"},{"astId":146,"contract":"campaign.sol:Campaign","label":"approversCount","offset":0,"slot":"13","type":"t_uint256"}],"types":{"t_address":{"encoding":"inplace","label":"address","numberOfBytes":"20"},"t_bool":{"encoding":"inplace","label":"bool","numberOfBytes":"1"},"t_enum(State)108":{"encoding":"inplace","label":"enum Campaign.State","numberOfBytes":"1"},"t_mapping(t_address,t_bool)":{"encoding":"mapping","key":"t_address","label":"mapping(address => bool)","numberOfBytes":"32","value":"t_bool"},"t_mapping(t_address,t_uint256)":{"encoding":"mapping","key":"t_address","label":"mapping(address => uint256)","numberOfBytes":"32","value":"t_uint256"},"t_mapping(t_uint256,t_struct(Request)105_storage)":{"encoding":"mapping","key":"t_uint256","label":"mapping(uint256 => struct Campaign.Request)","numberOfBytes":"32","value":"t_struct(Request)105_storage"},"t_string_storage":{"encoding":"bytes","label":"string","numberOfBytes":"32"},"t_struct(Request)105_storage":{"encoding":"inplace","label":"struct Campaign.Request","members":[{"astId":92,"contract":"campaign.sol:Campaign","label":"description","offset":0,"slot":"0","type":"t_string_storage"},{"astId":94,"contract":"campaign.sol:Campaign","label":"value","offset":0,"slot":"1","type":"t_uint256"},{"astId":96,"contract":"campaign.sol:Campaign","label":"recipient","offset":0,"slot":"2","type":"t_address"},{"astId":98,"contract":"campaign.sol:Campaign","label":"complete","offset":20,"slot":"2","type":"t_bool"},{"astId":100,"contract":"campaign.sol:Campaign","label":"approvalCount","offset":0,"slot":"3","type":"t_uint256"},{"astId":104,"contract":"campaign.sol:Campaign","label":"approvals","offset":0,"slot":"4","type":"t_mapping(t_address,t_bool)"}],"numberOfBytes":"160"},"t_uint256":{"encoding":"inplace","label":"uint256","numberOfBytes":"32"}}},"userdoc":{"kind":"user","methods":{},"version":1}}