{"abi":[{"inputs":[{"internalType":"uint256","name":"minimum","type":"uint256"},{"internalType":"address","name":"creator","type":"address"},{"internalType":"string","name":"title","type":"string"},{"internalType":"uint256","name":"goal","type":"uint256"},{"internalType":"string","name":"description","type":"string"},{"internalType":"uint256","name":"deadline","type":"uint256"}],"stateMutability":"nonpayable","type":"constructor"},{"inputs":[],"name":"CampaignDescription","outputs":[{"internalType":"string","name":"","type":"string"}],"stateMutability":"view","type":"function"},{"inputs":[],"name":"amountGoal","outputs":[{"internalType":"uint256","name":"","type":"uint256"}],"stateMutability":"view","type":"function"},{"inputs":[{"internalType":"uint256","name":"index","type":"uint256"}],"name":"approveRequest","outputs":[],"stateMutability":"nonpayable","type":"function"},{"inputs":[{"internalType":"address","name":"","type":"address"}],"name":"approvers","outputs":[{"internalType":"bool","name":"","type":"bool"}],"stateMutability":"view","type":"function"},{"inputs":[],"name":"approversCount","outputs":[{"internalType":"uint256","name":"","type":"uint256"}],"stateMutability":"view","type":"function"},{"inputs":[],"name":"checkIfFundingFulfilledOrExpired","outputs":[],"stateMutability":"nonpayable","type":"function"},{"inputs":[],"name":"contribute","outputs":[],"stateMutability":"payable","type":"function"},{"inputs":[{"internalType":"address","name":"","type":"address"}],"name":"contributions","outputs":[{"internalType":"uint256","name":"","type":"uint256"}],"stateMutability":"view","type":"function"},{"inputs":[{"internalType":"string","name":"description","type":"string"},{"internalType":"uint256","name":"value","type":"uint256"},{"internalType":"address","name":"recipient","type":"address"}],"name":"createRequest","outputs":[],"stateMutability":"nonpayable","type":"function"},{"inputs":[],"name":"currentBalance","outputs":[{"internalType":"uint256","name":"","type":"uint256"}],"stateMutability":"view","type":"function"},{"inputs":[{"internalType":"uint256","name":"index","type":"uint256"}],"name":"finalizeRequest","outputs":[],"stateMutability":"nonpayable","type":"function"},{"inputs":[],"name":"getRefund","outputs":[{"internalType":"bool","name":"","type":"bool"}],"stateMutability":"nonpayable","type":"function"},{"inputs":[],"name":"getSummary","outputs":[{"internalType":"uint256","name":"","type":"uint256"},{"internalType":"uint256","name":"","type":"uint256"},{"internalType":"uint256","name":"","type":"uint256"},{"internalType":"uint256","name":"","type":"uint256"},{"internalType":"address","name":"","type":"address"},{"internalType":"string","name":"","type":"string"},{"internalType":"uint256","name":"","type":"uint256"},{"internalType":"string","name":"","type":"string"},{"internalType":"uint256","name":"","type":"uint256"},{"internalType":"uint256","name":"","type":"uint256"}],"stateMutability":"view","type":"function"},{"inputs":[],"name":"getTotalContribution","outputs":[{"internalType":"uint256","name":"","type":"uint256"}],"stateMutability":"view","type":"function"},{"inputs":[],"name":"manager","outputs":[{"internalType":"address","name":"","type":"address"}],"stateMutability":"view","type":"function"},{"inputs":[],"name":"minimumContribution","outputs":[{"internalType":"uint256","name":"","type":"uint256"}],"stateMutability":"view","type":"function"},{"inputs":[],"name":"raiseBy","outputs":[{"internalType":"uint256","name":"","type":"uint256"}],"stateMutability":"view","type":"function"},{"inputs":[],"name":"requestCount","outputs":[{"internalType":"uint256","name":"","type":"uint256"}],"stateMutability":"view","type":"function"},{"inputs":[{"internalType":"uint256","name":"","type":"uint256"}],"name":"requests","outputs":[{"internalType":"string","name":"description","type":"string"},{"internalType":"uint256","name":"value","type":"uint256"},{"internalType":"address","name":"recipient","type":"address"},{"internalType":"bool","name":"complete","type":"bool"},{"internalType":"uint256","name":"approvalCount","type":"uint256"}],"stateMutability":"view","type":"function"},{"inputs":[],"name":"state","outputs":[{"internalType":"enum Campaign.State","name":"","type":"uint8"}],"stateMutability":"view","type":"function"},{"inputs":[],"name":"titleCompaign","outputs":[{"internalType":"string","name":"","type":"string"}],"stateMutability":"view","type":"function"},{"inputs":[],"name":"totalContribution","outputs":[{"internalType":"uint256","name":"","type":"uint256"}],"stateMutability":"view","type":"function"}],"devdoc":{"kind":"dev","methods":{},"version":1},"evm":{"assembly":"    /* \"campaign.sol\":1144:6541  contract Campaign {\r... */\n  mstore(0x40, 0x80)\n    /* \"campaign.sol\":1869:1886  State.Fundraising */\n  0x00\n    /* \"campaign.sol\":1848:1886  State public state = State.Fundraising */\n  0x06\n  exp(0x0100, 0x00)\n  dup2\n  sload\n  dup2\n  0xff\n  mul\n  not\n  and\n  swap1\n  dup4\n  0x02\n  dup2\n  gt\n  iszero\n  tag_1\n  jumpi\n  mstore(0x00, 0x4e487b7100000000000000000000000000000000000000000000000000000000)\n  mstore(0x04, 0x21)\n  revert(0x00, 0x24)\ntag_1:\n  mul\n  or\n  swap1\n  sstore\n  pop\n    /* \"campaign.sol\":2556:2943  constructor(uint minimum, address creator, string memory title, uint goal, string memory description, uint deadline) {\r... */\n  callvalue\n  dup1\n  iszero\n  tag_2\n  jumpi\n  0x00\n  dup1\n  revert\ntag_2:\n  pop\n  mload(0x40)\n  sub(codesize, bytecodeSize)\n  dup1\n  bytecodeSize\n  dup4\n  codecopy\n  dup2\n  dup2\n  add\n  0x40\n  mstore\n  dup2\n  add\n  swap1\n  tag_3\n  swap2\n  swap1\n  tag_4\n  jump\t// in\ntag_3:\n    /* \"campaign.sol\":2694:2701  creator */\n  dup5\n    /* \"campaign.sol\":2684:2691  manager */\n  0x00\n  dup1\n    /* \"campaign.sol\":2684:2701  manager = creator */\n  0x0100\n  exp\n  dup2\n  sload\n  dup2\n  0xffffffffffffffffffffffffffffffffffffffff\n  mul\n  not\n  and\n  swap1\n  dup4\n  0xffffffffffffffffffffffffffffffffffffffff\n  and\n  mul\n  or\n  swap1\n  sstore\n  pop\n    /* \"campaign.sol\":2734:2741  minimum */\n  dup6\n    /* \"campaign.sol\":2712:2731  minimumContribution */\n  0x09\n    /* \"campaign.sol\":2712:2741  minimumContribution = minimum */\n  dup2\n  swap1\n  sstore\n  pop\n    /* \"campaign.sol\":2768:2773  title */\n  dup4\n    /* \"campaign.sol\":2752:2765  titleCompaign */\n  0x01\n    /* \"campaign.sol\":2752:2773  titleCompaign = title */\n  swap1\n  dup1\n  mload\n  swap1\n  0x20\n  add\n  swap1\n  tag_7\n  swap3\n  swap2\n  swap1\n  tag_8\n  jump\t// in\ntag_7:\n  pop\n    /* \"campaign.sol\":2797:2801  goal */\n  dup3\n    /* \"campaign.sol\":2784:2794  amountGoal */\n  0x02\n    /* \"campaign.sol\":2784:2801  amountGoal = goal */\n  dup2\n  swap1\n  sstore\n  pop\n    /* \"campaign.sol\":2834:2845  description */\n  dup2\n    /* \"campaign.sol\":2812:2831  CampaignDescription */\n  0x03\n    /* \"campaign.sol\":2812:2845  CampaignDescription = description */\n  swap1\n  dup1\n  mload\n  swap1\n  0x20\n  add\n  swap1\n  tag_9\n  swap3\n  swap2\n  swap1\n  tag_8\n  jump\t// in\ntag_9:\n  pop\n    /* \"campaign.sol\":2876:2877  0 */\n  0x00\n    /* \"campaign.sol\":2856:2873  totalContribution */\n  0x04\n    /* \"campaign.sol\":2856:2877  totalContribution = 0 */\n  dup2\n  swap1\n  sstore\n  pop\n    /* \"campaign.sol\":2898:2906  deadline */\n  dup1\n    /* \"campaign.sol\":2888:2895  raiseBy */\n  0x07\n    /* \"campaign.sol\":2888:2906  raiseBy = deadline */\n  dup2\n  swap1\n  sstore\n  pop\n    /* \"campaign.sol\":2934:2935  0 */\n  0x00\n    /* \"campaign.sol\":2917:2931  currentBalance */\n  0x08\n    /* \"campaign.sol\":2917:2935  currentBalance = 0 */\n  dup2\n  swap1\n  sstore\n  pop\n    /* \"campaign.sol\":2556:2943  constructor(uint minimum, address creator, string memory title, uint goal, string memory description, uint deadline) {\r... */\n  pop\n  pop\n  pop\n  pop\n  pop\n  pop\n    /* \"campaign.sol\":1144:6541  contract Campaign {\r... */\n  jump(tag_10)\ntag_8:\n  dup3\n  dup1\n  sload\n  tag_11\n  swap1\n  tag_12\n  jump\t// in\ntag_11:\n  swap1\n  0x00\n  mstore\n  keccak256(0x00, 0x20)\n  swap1\n  0x1f\n  add\n  0x20\n  swap1\n  div\n  dup2\n  add\n  swap3\n  dup3\n  tag_14\n  jumpi\n  0x00\n  dup6\n  sstore\n  jump(tag_13)\ntag_14:\n  dup3\n  0x1f\n  lt\n  tag_15\n  jumpi\n  dup1\n  mload\n  not(0xff)\n  and\n  dup4\n  dup1\n  add\n  or\n  dup6\n  sstore\n  jump(tag_13)\ntag_15:\n  dup3\n  dup1\n  add\n  0x01\n  add\n  dup6\n  sstore\n  dup3\n  iszero\n  tag_13\n  jumpi\n  swap2\n  dup3\n  add\ntag_16:\n  dup3\n  dup2\n  gt\n  iszero\n  tag_17\n  jumpi\n  dup3\n  mload\n  dup3\n  sstore\n  swap2\n  0x20\n  add\n  swap2\n  swap1\n  0x01\n  add\n  swap1\n  jump(tag_16)\ntag_17:\ntag_13:\n  pop\n  swap1\n  pop\n  tag_18\n  swap2\n  swap1\n  tag_19\n  jump\t// in\ntag_18:\n  pop\n  swap1\n  jump\t// out\ntag_19:\ntag_20:\n  dup1\n  dup3\n  gt\n  iszero\n  tag_21\n  jumpi\n  0x00\n  dup2\n  0x00\n  swap1\n  sstore\n  pop\n  0x01\n  add\n  jump(tag_20)\ntag_21:\n  pop\n  swap1\n  jump\t// out\n    /* \"#utility.yul\":7:361   */\ntag_23:\n    /* \"#utility.yul\":96:101   */\n  0x00\n    /* \"#utility.yul\":121:187   */\n  tag_25\n    /* \"#utility.yul\":137:186   */\n  tag_26\n    /* \"#utility.yul\":179:185   */\n  dup5\n    /* \"#utility.yul\":137:186   */\n  tag_27\n  jump\t// in\ntag_26:\n    /* \"#utility.yul\":121:187   */\n  tag_28\n  jump\t// in\ntag_25:\n    /* \"#utility.yul\":112:187   */\n  swap1\n  pop\n    /* \"#utility.yul\":210:216   */\n  dup3\n    /* \"#utility.yul\":203:208   */\n  dup2\n    /* \"#utility.yul\":196:217   */\n  mstore\n    /* \"#utility.yul\":248:252   */\n  0x20\n    /* \"#utility.yul\":241:246   */\n  dup2\n    /* \"#utility.yul\":237:253   */\n  add\n    /* \"#utility.yul\":286:289   */\n  dup5\n    /* \"#utility.yul\":277:283   */\n  dup5\n    /* \"#utility.yul\":272:275   */\n  dup5\n    /* \"#utility.yul\":268:284   */\n  add\n    /* \"#utility.yul\":265:290   */\n  gt\n    /* \"#utility.yul\":262:264   */\n  iszero\n  tag_29\n  jumpi\n    /* \"#utility.yul\":303:304   */\n  0x00\n    /* \"#utility.yul\":300:301   */\n  dup1\n    /* \"#utility.yul\":293:305   */\n  revert\n    /* \"#utility.yul\":262:264   */\ntag_29:\n    /* \"#utility.yul\":316:355   */\n  tag_30\n    /* \"#utility.yul\":348:354   */\n  dup5\n    /* \"#utility.yul\":343:346   */\n  dup3\n    /* \"#utility.yul\":338:341   */\n  dup6\n    /* \"#utility.yul\":316:355   */\n  tag_31\n  jump\t// in\ntag_30:\n    /* \"#utility.yul\":102:361   */\n  pop\n  swap4\n  swap3\n  pop\n  pop\n  pop\n  jump\t// out\n    /* \"#utility.yul\":367:510   */\ntag_32:\n    /* \"#utility.yul\":424:429   */\n  0x00\n    /* \"#utility.yul\":455:461   */\n  dup2\n    /* \"#utility.yul\":449:462   */\n  mload\n    /* \"#utility.yul\":440:462   */\n  swap1\n  pop\n    /* \"#utility.yul\":471:504   */\n  tag_34\n    /* \"#utility.yul\":498:503   */\n  dup2\n    /* \"#utility.yul\":471:504   */\n  tag_35\n  jump\t// in\ntag_34:\n    /* \"#utility.yul\":430:510   */\n  swap3\n  swap2\n  pop\n  pop\n  jump\t// out\n    /* \"#utility.yul\":530:818   */\ntag_36:\n    /* \"#utility.yul\":597:602   */\n  0x00\n    /* \"#utility.yul\":646:649   */\n  dup3\n    /* \"#utility.yul\":639:643   */\n  0x1f\n    /* \"#utility.yul\":631:637   */\n  dup4\n    /* \"#utility.yul\":627:644   */\n  add\n    /* \"#utility.yul\":623:650   */\n  slt\n    /* \"#utility.yul\":613:615   */\n  tag_38\n  jumpi\n    /* \"#utility.yul\":664:665   */\n  0x00\n    /* \"#utility.yul\":661:662   */\n  dup1\n    /* \"#utility.yul\":654:666   */\n  revert\n    /* \"#utility.yul\":613:615   */\ntag_38:\n    /* \"#utility.yul\":697:703   */\n  dup2\n    /* \"#utility.yul\":691:704   */\n  mload\n    /* \"#utility.yul\":722:812   */\n  tag_39\n    /* \"#utility.yul\":808:811   */\n  dup5\n    /* \"#utility.yul\":800:806   */\n  dup3\n    /* \"#utility.yul\":793:797   */\n  0x20\n    /* \"#utility.yul\":785:791   */\n  dup7\n    /* \"#utility.yul\":781:798   */\n  add\n    /* \"#utility.yul\":722:812   */\n  tag_23\n  jump\t// in\ntag_39:\n    /* \"#utility.yul\":713:812   */\n  swap2\n  pop\n    /* \"#utility.yul\":603:818   */\n  pop\n  swap3\n  swap2\n  pop\n  pop\n  jump\t// out\n    /* \"#utility.yul\":824:967   */\ntag_40:\n    /* \"#utility.yul\":881:886   */\n  0x00\n    /* \"#utility.yul\":912:918   */\n  dup2\n    /* \"#utility.yul\":906:919   */\n  mload\n    /* \"#utility.yul\":897:919   */\n  swap1\n  pop\n    /* \"#utility.yul\":928:961   */\n  tag_42\n    /* \"#utility.yul\":955:960   */\n  dup2\n    /* \"#utility.yul\":928:961   */\n  tag_43\n  jump\t// in\ntag_42:\n    /* \"#utility.yul\":887:967   */\n  swap3\n  swap2\n  pop\n  pop\n  jump\t// out\n    /* \"#utility.yul\":973:2252   */\ntag_4:\n    /* \"#utility.yul\":1108:1114   */\n  0x00\n    /* \"#utility.yul\":1116:1122   */\n  dup1\n    /* \"#utility.yul\":1124:1130   */\n  0x00\n    /* \"#utility.yul\":1132:1138   */\n  dup1\n    /* \"#utility.yul\":1140:1146   */\n  0x00\n    /* \"#utility.yul\":1148:1154   */\n  dup1\n    /* \"#utility.yul\":1197:1200   */\n  0xc0\n    /* \"#utility.yul\":1185:1194   */\n  dup8\n    /* \"#utility.yul\":1176:1183   */\n  dup10\n    /* \"#utility.yul\":1172:1195   */\n  sub\n    /* \"#utility.yul\":1168:1201   */\n  slt\n    /* \"#utility.yul\":1165:1167   */\n  iszero\n  tag_45\n  jumpi\n    /* \"#utility.yul\":1214:1215   */\n  0x00\n    /* \"#utility.yul\":1211:1212   */\n  dup1\n    /* \"#utility.yul\":1204:1216   */\n  revert\n    /* \"#utility.yul\":1165:1167   */\ntag_45:\n    /* \"#utility.yul\":1257:1258   */\n  0x00\n    /* \"#utility.yul\":1282:1346   */\n  tag_46\n    /* \"#utility.yul\":1338:1345   */\n  dup10\n    /* \"#utility.yul\":1329:1335   */\n  dup3\n    /* \"#utility.yul\":1318:1327   */\n  dup11\n    /* \"#utility.yul\":1314:1336   */\n  add\n    /* \"#utility.yul\":1282:1346   */\n  tag_40\n  jump\t// in\ntag_46:\n    /* \"#utility.yul\":1272:1346   */\n  swap7\n  pop\n    /* \"#utility.yul\":1228:1356   */\n  pop\n    /* \"#utility.yul\":1395:1397   */\n  0x20\n    /* \"#utility.yul\":1421:1485   */\n  tag_47\n    /* \"#utility.yul\":1477:1484   */\n  dup10\n    /* \"#utility.yul\":1468:1474   */\n  dup3\n    /* \"#utility.yul\":1457:1466   */\n  dup11\n    /* \"#utility.yul\":1453:1475   */\n  add\n    /* \"#utility.yul\":1421:1485   */\n  tag_32\n  jump\t// in\ntag_47:\n    /* \"#utility.yul\":1411:1485   */\n  swap6\n  pop\n    /* \"#utility.yul\":1366:1495   */\n  pop\n    /* \"#utility.yul\":1555:1557   */\n  0x40\n    /* \"#utility.yul\":1544:1553   */\n  dup8\n    /* \"#utility.yul\":1540:1558   */\n  add\n    /* \"#utility.yul\":1534:1559   */\n  mload\n    /* \"#utility.yul\":1586:1604   */\n  0xffffffffffffffff\n    /* \"#utility.yul\":1578:1584   */\n  dup2\n    /* \"#utility.yul\":1575:1605   */\n  gt\n    /* \"#utility.yul\":1572:1574   */\n  iszero\n  tag_48\n  jumpi\n    /* \"#utility.yul\":1618:1619   */\n  0x00\n    /* \"#utility.yul\":1615:1616   */\n  dup1\n    /* \"#utility.yul\":1608:1620   */\n  revert\n    /* \"#utility.yul\":1572:1574   */\ntag_48:\n    /* \"#utility.yul\":1646:1720   */\n  tag_49\n    /* \"#utility.yul\":1712:1719   */\n  dup10\n    /* \"#utility.yul\":1703:1709   */\n  dup3\n    /* \"#utility.yul\":1692:1701   */\n  dup11\n    /* \"#utility.yul\":1688:1710   */\n  add\n    /* \"#utility.yul\":1646:1720   */\n  tag_36\n  jump\t// in\ntag_49:\n    /* \"#utility.yul\":1636:1720   */\n  swap5\n  pop\n    /* \"#utility.yul\":1505:1730   */\n  pop\n    /* \"#utility.yul\":1769:1771   */\n  0x60\n    /* \"#utility.yul\":1795:1859   */\n  tag_50\n    /* \"#utility.yul\":1851:1858   */\n  dup10\n    /* \"#utility.yul\":1842:1848   */\n  dup3\n    /* \"#utility.yul\":1831:1840   */\n  dup11\n    /* \"#utility.yul\":1827:1849   */\n  add\n    /* \"#utility.yul\":1795:1859   */\n  tag_40\n  jump\t// in\ntag_50:\n    /* \"#utility.yul\":1785:1859   */\n  swap4\n  pop\n    /* \"#utility.yul\":1740:1869   */\n  pop\n    /* \"#utility.yul\":1929:1932   */\n  0x80\n    /* \"#utility.yul\":1918:1927   */\n  dup8\n    /* \"#utility.yul\":1914:1933   */\n  add\n    /* \"#utility.yul\":1908:1934   */\n  mload\n    /* \"#utility.yul\":1961:1979   */\n  0xffffffffffffffff\n    /* \"#utility.yul\":1953:1959   */\n  dup2\n    /* \"#utility.yul\":1950:1980   */\n  gt\n    /* \"#utility.yul\":1947:1949   */\n  iszero\n  tag_51\n  jumpi\n    /* \"#utility.yul\":1993:1994   */\n  0x00\n    /* \"#utility.yul\":1990:1991   */\n  dup1\n    /* \"#utility.yul\":1983:1995   */\n  revert\n    /* \"#utility.yul\":1947:1949   */\ntag_51:\n    /* \"#utility.yul\":2021:2095   */\n  tag_52\n    /* \"#utility.yul\":2087:2094   */\n  dup10\n    /* \"#utility.yul\":2078:2084   */\n  dup3\n    /* \"#utility.yul\":2067:2076   */\n  dup11\n    /* \"#utility.yul\":2063:2085   */\n  add\n    /* \"#utility.yul\":2021:2095   */\n  tag_36\n  jump\t// in\ntag_52:\n    /* \"#utility.yul\":2011:2095   */\n  swap3\n  pop\n    /* \"#utility.yul\":1879:2105   */\n  pop\n    /* \"#utility.yul\":2144:2147   */\n  0xa0\n    /* \"#utility.yul\":2171:2235   */\n  tag_53\n    /* \"#utility.yul\":2227:2234   */\n  dup10\n    /* \"#utility.yul\":2218:2224   */\n  dup3\n    /* \"#utility.yul\":2207:2216   */\n  dup11\n    /* \"#utility.yul\":2203:2225   */\n  add\n    /* \"#utility.yul\":2171:2235   */\n  tag_40\n  jump\t// in\ntag_53:\n    /* \"#utility.yul\":2161:2235   */\n  swap2\n  pop\n    /* \"#utility.yul\":2115:2245   */\n  pop\n    /* \"#utility.yul\":1155:2252   */\n  swap3\n  swap6\n  pop\n  swap3\n  swap6\n  pop\n  swap3\n  swap6\n  jump\t// out\n    /* \"#utility.yul\":2258:2387   */\ntag_28:\n    /* \"#utility.yul\":2292:2298   */\n  0x00\n    /* \"#utility.yul\":2319:2339   */\n  tag_55\n  tag_56\n  jump\t// in\ntag_55:\n    /* \"#utility.yul\":2309:2339   */\n  swap1\n  pop\n    /* \"#utility.yul\":2348:2381   */\n  tag_57\n    /* \"#utility.yul\":2376:2380   */\n  dup3\n    /* \"#utility.yul\":2368:2374   */\n  dup3\n    /* \"#utility.yul\":2348:2381   */\n  tag_58\n  jump\t// in\ntag_57:\n    /* \"#utility.yul\":2299:2387   */\n  swap2\n  swap1\n  pop\n  jump\t// out\n    /* \"#utility.yul\":2393:2468   */\ntag_56:\n    /* \"#utility.yul\":2426:2432   */\n  0x00\n    /* \"#utility.yul\":2459:2461   */\n  0x40\n    /* \"#utility.yul\":2453:2462   */\n  mload\n    /* \"#utility.yul\":2443:2462   */\n  swap1\n  pop\n    /* \"#utility.yul\":2433:2468   */\n  swap1\n  jump\t// out\n    /* \"#utility.yul\":2474:2782   */\ntag_27:\n    /* \"#utility.yul\":2536:2540   */\n  0x00\n    /* \"#utility.yul\":2626:2644   */\n  0xffffffffffffffff\n    /* \"#utility.yul\":2618:2624   */\n  dup3\n    /* \"#utility.yul\":2615:2645   */\n  gt\n    /* \"#utility.yul\":2612:2614   */\n  iszero\n  tag_61\n  jumpi\n    /* \"#utility.yul\":2648:2666   */\n  tag_62\n  tag_63\n  jump\t// in\ntag_62:\n    /* \"#utility.yul\":2612:2614   */\ntag_61:\n    /* \"#utility.yul\":2686:2715   */\n  tag_64\n    /* \"#utility.yul\":2708:2714   */\n  dup3\n    /* \"#utility.yul\":2686:2715   */\n  tag_65\n  jump\t// in\ntag_64:\n    /* \"#utility.yul\":2678:2715   */\n  swap1\n  pop\n    /* \"#utility.yul\":2770:2774   */\n  0x20\n    /* \"#utility.yul\":2764:2768   */\n  dup2\n    /* \"#utility.yul\":2760:2775   */\n  add\n    /* \"#utility.yul\":2752:2775   */\n  swap1\n  pop\n    /* \"#utility.yul\":2541:2782   */\n  swap2\n  swap1\n  pop\n  jump\t// out\n    /* \"#utility.yul\":2788:2884   */\ntag_66:\n    /* \"#utility.yul\":2825:2832   */\n  0x00\n    /* \"#utility.yul\":2854:2878   */\n  tag_68\n    /* \"#utility.yul\":2872:2877   */\n  dup3\n    /* \"#utility.yul\":2854:2878   */\n  tag_69\n  jump\t// in\ntag_68:\n    /* \"#utility.yul\":2843:2878   */\n  swap1\n  pop\n    /* \"#utility.yul\":2833:2884   */\n  swap2\n  swap1\n  pop\n  jump\t// out\n    /* \"#utility.yul\":2890:3016   */\ntag_69:\n    /* \"#utility.yul\":2927:2934   */\n  0x00\n    /* \"#utility.yul\":2967:3009   */\n  0xffffffffffffffffffffffffffffffffffffffff\n    /* \"#utility.yul\":2960:2965   */\n  dup3\n    /* \"#utility.yul\":2956:3010   */\n  and\n    /* \"#utility.yul\":2945:3010   */\n  swap1\n  pop\n    /* \"#utility.yul\":2935:3016   */\n  swap2\n  swap1\n  pop\n  jump\t// out\n    /* \"#utility.yul\":3022:3099   */\ntag_71:\n    /* \"#utility.yul\":3059:3066   */\n  0x00\n    /* \"#utility.yul\":3088:3093   */\n  dup2\n    /* \"#utility.yul\":3077:3093   */\n  swap1\n  pop\n    /* \"#utility.yul\":3067:3099   */\n  swap2\n  swap1\n  pop\n  jump\t// out\n    /* \"#utility.yul\":3105:3412   */\ntag_31:\n    /* \"#utility.yul\":3173:3174   */\n  0x00\n    /* \"#utility.yul\":3183:3296   */\ntag_74:\n    /* \"#utility.yul\":3197:3203   */\n  dup4\n    /* \"#utility.yul\":3194:3195   */\n  dup2\n    /* \"#utility.yul\":3191:3204   */\n  lt\n    /* \"#utility.yul\":3183:3296   */\n  iszero\n  tag_76\n  jumpi\n    /* \"#utility.yul\":3282:3283   */\n  dup1\n    /* \"#utility.yul\":3277:3280   */\n  dup3\n    /* \"#utility.yul\":3273:3284   */\n  add\n    /* \"#utility.yul\":3267:3285   */\n  mload\n    /* \"#utility.yul\":3263:3264   */\n  dup2\n    /* \"#utility.yul\":3258:3261   */\n  dup5\n    /* \"#utility.yul\":3254:3265   */\n  add\n    /* \"#utility.yul\":3247:3286   */\n  mstore\n    /* \"#utility.yul\":3219:3221   */\n  0x20\n    /* \"#utility.yul\":3216:3217   */\n  dup2\n    /* \"#utility.yul\":3212:3222   */\n  add\n    /* \"#utility.yul\":3207:3222   */\n  swap1\n  pop\n    /* \"#utility.yul\":3183:3296   */\n  jump(tag_74)\ntag_76:\n    /* \"#utility.yul\":3314:3320   */\n  dup4\n    /* \"#utility.yul\":3311:3312   */\n  dup2\n    /* \"#utility.yul\":3308:3321   */\n  gt\n    /* \"#utility.yul\":3305:3307   */\n  iszero\n  tag_77\n  jumpi\n    /* \"#utility.yul\":3394:3395   */\n  0x00\n    /* \"#utility.yul\":3385:3391   */\n  dup5\n    /* \"#utility.yul\":3380:3383   */\n  dup5\n    /* \"#utility.yul\":3376:3392   */\n  add\n    /* \"#utility.yul\":3369:3396   */\n  mstore\n    /* \"#utility.yul\":3305:3307   */\ntag_77:\n    /* \"#utility.yul\":3154:3412   */\n  pop\n  pop\n  pop\n  pop\n  jump\t// out\n    /* \"#utility.yul\":3418:3738   */\ntag_12:\n    /* \"#utility.yul\":3462:3468   */\n  0x00\n    /* \"#utility.yul\":3499:3500   */\n  0x02\n    /* \"#utility.yul\":3493:3497   */\n  dup3\n    /* \"#utility.yul\":3489:3501   */\n  div\n    /* \"#utility.yul\":3479:3501   */\n  swap1\n  pop\n    /* \"#utility.yul\":3546:3547   */\n  0x01\n    /* \"#utility.yul\":3540:3544   */\n  dup3\n    /* \"#utility.yul\":3536:3548   */\n  and\n    /* \"#utility.yul\":3567:3585   */\n  dup1\n    /* \"#utility.yul\":3557:3559   */\n  tag_79\n  jumpi\n    /* \"#utility.yul\":3623:3627   */\n  0x7f\n    /* \"#utility.yul\":3615:3621   */\n  dup3\n    /* \"#utility.yul\":3611:3628   */\n  and\n    /* \"#utility.yul\":3601:3628   */\n  swap2\n  pop\n    /* \"#utility.yul\":3557:3559   */\ntag_79:\n    /* \"#utility.yul\":3685:3687   */\n  0x20\n    /* \"#utility.yul\":3677:3683   */\n  dup3\n    /* \"#utility.yul\":3674:3688   */\n  lt\n    /* \"#utility.yul\":3654:3672   */\n  dup2\n    /* \"#utility.yul\":3651:3689   */\n  eq\n    /* \"#utility.yul\":3648:3650   */\n  iszero\n  tag_80\n  jumpi\n    /* \"#utility.yul\":3704:3722   */\n  tag_81\n  tag_82\n  jump\t// in\ntag_81:\n    /* \"#utility.yul\":3648:3650   */\ntag_80:\n    /* \"#utility.yul\":3469:3738   */\n  pop\n  swap2\n  swap1\n  pop\n  jump\t// out\n    /* \"#utility.yul\":3744:4025   */\ntag_58:\n    /* \"#utility.yul\":3827:3854   */\n  tag_84\n    /* \"#utility.yul\":3849:3853   */\n  dup3\n    /* \"#utility.yul\":3827:3854   */\n  tag_65\n  jump\t// in\ntag_84:\n    /* \"#utility.yul\":3819:3825   */\n  dup2\n    /* \"#utility.yul\":3815:3855   */\n  add\n    /* \"#utility.yul\":3957:3963   */\n  dup2\n    /* \"#utility.yul\":3945:3955   */\n  dup2\n    /* \"#utility.yul\":3942:3964   */\n  lt\n    /* \"#utility.yul\":3921:3939   */\n  0xffffffffffffffff\n    /* \"#utility.yul\":3909:3919   */\n  dup3\n    /* \"#utility.yul\":3906:3940   */\n  gt\n    /* \"#utility.yul\":3903:3965   */\n  or\n    /* \"#utility.yul\":3900:3902   */\n  iszero\n  tag_85\n  jumpi\n    /* \"#utility.yul\":3968:3986   */\n  tag_86\n  tag_63\n  jump\t// in\ntag_86:\n    /* \"#utility.yul\":3900:3902   */\ntag_85:\n    /* \"#utility.yul\":4008:4018   */\n  dup1\n    /* \"#utility.yul\":4004:4006   */\n  0x40\n    /* \"#utility.yul\":3997:4019   */\n  mstore\n    /* \"#utility.yul\":3787:4025   */\n  pop\n  pop\n  pop\n  jump\t// out\n    /* \"#utility.yul\":4031:4211   */\ntag_82:\n    /* \"#utility.yul\":4079:4156   */\n  0x4e487b7100000000000000000000000000000000000000000000000000000000\n    /* \"#utility.yul\":4076:4077   */\n  0x00\n    /* \"#utility.yul\":4069:4157   */\n  mstore\n    /* \"#utility.yul\":4176:4180   */\n  0x22\n    /* \"#utility.yul\":4173:4174   */\n  0x04\n    /* \"#utility.yul\":4166:4181   */\n  mstore\n    /* \"#utility.yul\":4200:4204   */\n  0x24\n    /* \"#utility.yul\":4197:4198   */\n  0x00\n    /* \"#utility.yul\":4190:4205   */\n  revert\n    /* \"#utility.yul\":4217:4397   */\ntag_63:\n    /* \"#utility.yul\":4265:4342   */\n  0x4e487b7100000000000000000000000000000000000000000000000000000000\n    /* \"#utility.yul\":4262:4263   */\n  0x00\n    /* \"#utility.yul\":4255:4343   */\n  mstore\n    /* \"#utility.yul\":4362:4366   */\n  0x41\n    /* \"#utility.yul\":4359:4360   */\n  0x04\n    /* \"#utility.yul\":4352:4367   */\n  mstore\n    /* \"#utility.yul\":4386:4390   */\n  0x24\n    /* \"#utility.yul\":4383:4384   */\n  0x00\n    /* \"#utility.yul\":4376:4391   */\n  revert\n    /* \"#utility.yul\":4403:4505   */\ntag_65:\n    /* \"#utility.yul\":4444:4450   */\n  0x00\n    /* \"#utility.yul\":4495:4497   */\n  0x1f\n    /* \"#utility.yul\":4491:4498   */\n  not\n    /* \"#utility.yul\":4486:4488   */\n  0x1f\n    /* \"#utility.yul\":4479:4484   */\n  dup4\n    /* \"#utility.yul\":4475:4489   */\n  add\n    /* \"#utility.yul\":4471:4499   */\n  and\n    /* \"#utility.yul\":4461:4499   */\n  swap1\n  pop\n    /* \"#utility.yul\":4451:4505   */\n  swap2\n  swap1\n  pop\n  jump\t// out\n    /* \"#utility.yul\":4511:4633   */\ntag_35:\n    /* \"#utility.yul\":4584:4608   */\n  tag_91\n    /* \"#utility.yul\":4602:4607   */\n  dup2\n    /* \"#utility.yul\":4584:4608   */\n  tag_66\n  jump\t// in\ntag_91:\n    /* \"#utility.yul\":4577:4582   */\n  dup2\n    /* \"#utility.yul\":4574:4609   */\n  eq\n    /* \"#utility.yul\":4564:4566   */\n  tag_92\n  jumpi\n    /* \"#utility.yul\":4623:4624   */\n  0x00\n    /* \"#utility.yul\":4620:4621   */\n  dup1\n    /* \"#utility.yul\":4613:4625   */\n  revert\n    /* \"#utility.yul\":4564:4566   */\ntag_92:\n    /* \"#utility.yul\":4554:4633   */\n  pop\n  jump\t// out\n    /* \"#utility.yul\":4639:4761   */\ntag_43:\n    /* \"#utility.yul\":4712:4736   */\n  tag_94\n    /* \"#utility.yul\":4730:4735   */\n  dup2\n    /* \"#utility.yul\":4712:4736   */\n  tag_71\n  jump\t// in\ntag_94:\n    /* \"#utility.yul\":4705:4710   */\n  dup2\n    /* \"#utility.yul\":4702:4737   */\n  eq\n    /* \"#utility.yul\":4692:4694   */\n  tag_95\n  jumpi\n    /* \"#utility.yul\":4751:4752   */\n  0x00\n    /* \"#utility.yul\":4748:4749   */\n  dup1\n    /* \"#utility.yul\":4741:4753   */\n  revert\n    /* \"#utility.yul\":4692:4694   */\ntag_95:\n    /* \"#utility.yul\":4682:4761   */\n  pop\n  jump\t// out\n    /* \"campaign.sol\":1144:6541  contract Campaign {\r... */\ntag_10:\n  dataSize(sub_0)\n  dup1\n  dataOffset(sub_0)\n  0x00\n  codecopy\n  0x00\n  return\nstop\n\nsub_0: assembly {\n        /* \"campaign.sol\":1144:6541  contract Campaign {\r... */\n      mstore(0x40, 0x80)\n      jumpi(tag_1, lt(calldatasize, 0x04))\n      shr(0xe0, calldataload(0x00))\n      dup1\n      0x5badbe4c\n      gt\n      tag_24\n      jumpi\n      dup1\n      0x97654a8c\n      gt\n      tag_25\n      jumpi\n      dup1\n      0x97654a8c\n      eq\n      tag_18\n      jumpi\n      dup1\n      0xb2d5ae44\n      eq\n      tag_19\n      jumpi\n      dup1\n      0xc19d93fb\n      eq\n      tag_20\n      jumpi\n      dup1\n      0xce845d1d\n      eq\n      tag_21\n      jumpi\n      dup1\n      0xd7bb99ba\n      eq\n      tag_22\n      jumpi\n      dup1\n      0xd7d1bbdb\n      eq\n      tag_23\n      jumpi\n      jump(tag_1)\n    tag_25:\n      dup1\n      0x5badbe4c\n      eq\n      tag_13\n      jumpi\n      dup1\n      0x81d12c58\n      eq\n      tag_14\n      jumpi\n      dup1\n      0x82fde093\n      eq\n      tag_15\n      jumpi\n      dup1\n      0x8a9cfd55\n      eq\n      tag_16\n      jumpi\n      dup1\n      0x937e09b1\n      eq\n      tag_17\n      jumpi\n      jump(tag_1)\n    tag_24:\n      dup1\n      0x0dcf4b8f\n      gt\n      tag_26\n      jumpi\n      dup1\n      0x0dcf4b8f\n      eq\n      tag_7\n      jumpi\n      dup1\n      0x32461bd8\n      eq\n      tag_8\n      jumpi\n      dup1\n      0x37f944cc\n      eq\n      tag_9\n      jumpi\n      dup1\n      0x4051ddac\n      eq\n      tag_10\n      jumpi\n      dup1\n      0x42e94c90\n      eq\n      tag_11\n      jumpi\n      dup1\n      0x481c6a75\n      eq\n      tag_12\n      jumpi\n      jump(tag_1)\n    tag_26:\n      dup1\n      0x01c9039f\n      eq\n      tag_2\n      jumpi\n      dup1\n      0x03441006\n      eq\n      tag_3\n      jumpi\n      dup1\n      0x0785001c\n      eq\n      tag_4\n      jumpi\n      dup1\n      0x08caa910\n      eq\n      tag_5\n      jumpi\n      dup1\n      0x0a144391\n      eq\n      tag_6\n      jumpi\n    tag_1:\n      0x00\n      dup1\n      revert\n        /* \"campaign.sol\":2955:3216  function checkIfFundingFulfilledOrExpired() public {\r... */\n    tag_2:\n      callvalue\n      dup1\n      iszero\n      tag_27\n      jumpi\n      0x00\n      dup1\n      revert\n    tag_27:\n      pop\n      tag_28\n      tag_29\n      jump\t// in\n    tag_28:\n      stop\n        /* \"campaign.sol\":4694:5049  function finalizeRequest(uint index) public managerOnly difState(State.Expired){\r... */\n    tag_3:\n      callvalue\n      dup1\n      iszero\n      tag_30\n      jumpi\n      0x00\n      dup1\n      revert\n    tag_30:\n      pop\n      tag_31\n      0x04\n      dup1\n      calldatasize\n      sub\n      dup2\n      add\n      swap1\n      tag_32\n      swap2\n      swap1\n      tag_33\n      jump\t// in\n    tag_32:\n      tag_34\n      jump\t// in\n    tag_31:\n      stop\n        /* \"campaign.sol\":1598:1620  uint public amountGoal */\n    tag_4:\n      callvalue\n      dup1\n      iszero\n      tag_35\n      jumpi\n      0x00\n      dup1\n      revert\n    tag_35:\n      pop\n      tag_36\n      tag_37\n      jump\t// in\n    tag_36:\n      mload(0x40)\n      tag_38\n      swap2\n      swap1\n      tag_39\n      jump\t// in\n    tag_38:\n      mload(0x40)\n      dup1\n      swap2\n      sub\n      swap1\n      return\n        /* \"campaign.sol\":5057:5158  function getTotalContribution() public view returns(uint) {\r... */\n    tag_5:\n      callvalue\n      dup1\n      iszero\n      tag_40\n      jumpi\n      0x00\n      dup1\n      revert\n    tag_40:\n      pop\n      tag_41\n      tag_42\n      jump\t// in\n    tag_41:\n      mload(0x40)\n      tag_43\n      swap2\n      swap1\n      tag_39\n      jump\t// in\n    tag_43:\n      mload(0x40)\n      dup1\n      swap2\n      sub\n      swap1\n      return\n        /* \"campaign.sol\":2066:2107  mapping(address => bool) public approvers */\n    tag_6:\n      callvalue\n      dup1\n      iszero\n      tag_44\n      jumpi\n      0x00\n      dup1\n      revert\n    tag_44:\n      pop\n      tag_45\n      0x04\n      dup1\n      calldatasize\n      sub\n      dup2\n      add\n      swap1\n      tag_46\n      swap2\n      swap1\n      tag_47\n      jump\t// in\n    tag_46:\n      tag_48\n      jump\t// in\n    tag_45:\n      mload(0x40)\n      tag_49\n      swap2\n      swap1\n      tag_50\n      jump\t// in\n    tag_49:\n      mload(0x40)\n      dup1\n      swap2\n      sub\n      swap1\n      return\n        /* \"campaign.sol\":1728:1757  uint public totalContribution */\n    tag_7:\n      callvalue\n      dup1\n      iszero\n      tag_51\n      jumpi\n      0x00\n      dup1\n      revert\n    tag_51:\n      pop\n      tag_52\n      tag_53\n      jump\t// in\n    tag_52:\n      mload(0x40)\n      tag_54\n      swap2\n      swap1\n      tag_39\n      jump\t// in\n    tag_54:\n      mload(0x40)\n      dup1\n      swap2\n      sub\n      swap1\n      return\n        /* \"campaign.sol\":1540:1567  string public titleCompaign */\n    tag_8:\n      callvalue\n      dup1\n      iszero\n      tag_55\n      jumpi\n      0x00\n      dup1\n      revert\n    tag_55:\n      pop\n      tag_56\n      tag_57\n      jump\t// in\n    tag_56:\n      mload(0x40)\n      tag_58\n      swap2\n      swap1\n      tag_59\n      jump\t// in\n    tag_58:\n      mload(0x40)\n      dup1\n      swap2\n      sub\n      swap1\n      return\n        /* \"campaign.sol\":1926:1945  uint public raiseBy */\n    tag_9:\n      callvalue\n      dup1\n      iszero\n      tag_60\n      jumpi\n      0x00\n      dup1\n      revert\n    tag_60:\n      pop\n      tag_61\n      tag_62\n      jump\t// in\n    tag_61:\n      mload(0x40)\n      tag_63\n      swap2\n      swap1\n      tag_39\n      jump\t// in\n    tag_63:\n      mload(0x40)\n      dup1\n      swap2\n      sub\n      swap1\n      return\n        /* \"campaign.sol\":6055:6538  function getSummary() public view returns (\r... */\n    tag_10:\n      callvalue\n      dup1\n      iszero\n      tag_64\n      jumpi\n      0x00\n      dup1\n      revert\n    tag_64:\n      pop\n      tag_65\n      tag_66\n      jump\t// in\n    tag_65:\n      mload(0x40)\n      tag_67\n      swap11\n      swap10\n      swap9\n      swap8\n      swap7\n      swap6\n      swap5\n      swap4\n      swap3\n      swap2\n      swap1\n      tag_68\n      jump\t// in\n    tag_67:\n      mload(0x40)\n      dup1\n      swap2\n      sub\n      swap1\n      return\n        /* \"campaign.sol\":1795:1840  mapping(address => uint) public contributions */\n    tag_11:\n      callvalue\n      dup1\n      iszero\n      tag_69\n      jumpi\n      0x00\n      dup1\n      revert\n    tag_69:\n      pop\n      tag_70\n      0x04\n      dup1\n      calldatasize\n      sub\n      dup2\n      add\n      swap1\n      tag_71\n      swap2\n      swap1\n      tag_47\n      jump\t// in\n    tag_71:\n      tag_72\n      jump\t// in\n    tag_70:\n      mload(0x40)\n      tag_73\n      swap2\n      swap1\n      tag_39\n      jump\t// in\n    tag_73:\n      mload(0x40)\n      dup1\n      swap2\n      sub\n      swap1\n      return\n        /* \"campaign.sol\":1505:1527  address public manager */\n    tag_12:\n      callvalue\n      dup1\n      iszero\n      tag_74\n      jumpi\n      0x00\n      dup1\n      revert\n    tag_74:\n      pop\n      tag_75\n      tag_76\n      jump\t// in\n    tag_75:\n      mload(0x40)\n      tag_77\n      swap2\n      swap1\n      tag_78\n      jump\t// in\n    tag_77:\n      mload(0x40)\n      dup1\n      swap2\n      sub\n      swap1\n      return\n        /* \"campaign.sol\":2161:2185  uint public requestCount */\n    tag_13:\n      callvalue\n      dup1\n      iszero\n      tag_79\n      jumpi\n      0x00\n      dup1\n      revert\n    tag_79:\n      pop\n      tag_80\n      tag_81\n      jump\t// in\n    tag_80:\n      mload(0x40)\n      tag_82\n      swap2\n      swap1\n      tag_39\n      jump\t// in\n    tag_82:\n      mload(0x40)\n      dup1\n      swap2\n      sub\n      swap1\n      return\n        /* \"campaign.sol\":2114:2154  mapping(uint => Request) public requests */\n    tag_14:\n      callvalue\n      dup1\n      iszero\n      tag_83\n      jumpi\n      0x00\n      dup1\n      revert\n    tag_83:\n      pop\n      tag_84\n      0x04\n      dup1\n      calldatasize\n      sub\n      dup2\n      add\n      swap1\n      tag_85\n      swap2\n      swap1\n      tag_33\n      jump\t// in\n    tag_85:\n      tag_86\n      jump\t// in\n    tag_84:\n      mload(0x40)\n      tag_87\n      swap6\n      swap5\n      swap4\n      swap3\n      swap2\n      swap1\n      tag_88\n      jump\t// in\n    tag_87:\n      mload(0x40)\n      dup1\n      swap2\n      sub\n      swap1\n      return\n        /* \"campaign.sol\":2192:2218  uint public approversCount */\n    tag_15:\n      callvalue\n      dup1\n      iszero\n      tag_89\n      jumpi\n      0x00\n      dup1\n      revert\n    tag_89:\n      pop\n      tag_90\n      tag_91\n      jump\t// in\n    tag_90:\n      mload(0x40)\n      tag_92\n      swap2\n      swap1\n      tag_39\n      jump\t// in\n    tag_92:\n      mload(0x40)\n      dup1\n      swap2\n      sub\n      swap1\n      return\n        /* \"campaign.sol\":3884:4351  function createRequest(\r... */\n    tag_16:\n      callvalue\n      dup1\n      iszero\n      tag_93\n      jumpi\n      0x00\n      dup1\n      revert\n    tag_93:\n      pop\n      tag_94\n      0x04\n      dup1\n      calldatasize\n      sub\n      dup2\n      add\n      swap1\n      tag_95\n      swap2\n      swap1\n      tag_96\n      jump\t// in\n    tag_95:\n      tag_97\n      jump\t// in\n    tag_94:\n      stop\n        /* \"campaign.sol\":2028:2059  uint public minimumContribution */\n    tag_17:\n      callvalue\n      dup1\n      iszero\n      tag_98\n      jumpi\n      0x00\n      dup1\n      revert\n    tag_98:\n      pop\n      tag_99\n      tag_100\n      jump\t// in\n    tag_99:\n      mload(0x40)\n      tag_101\n      swap2\n      swap1\n      tag_39\n      jump\t// in\n    tag_101:\n      mload(0x40)\n      dup1\n      swap2\n      sub\n      swap1\n      return\n        /* \"campaign.sol\":1658:1691  string public CampaignDescription */\n    tag_18:\n      callvalue\n      dup1\n      iszero\n      tag_102\n      jumpi\n      0x00\n      dup1\n      revert\n    tag_102:\n      pop\n      tag_103\n      tag_104\n      jump\t// in\n    tag_103:\n      mload(0x40)\n      tag_105\n      swap2\n      swap1\n      tag_59\n      jump\t// in\n    tag_105:\n      mload(0x40)\n      dup1\n      swap2\n      sub\n      swap1\n      return\n        /* \"campaign.sol\":5166:6047  function getRefund() public inState(State.Expired) returns (bool) \r... */\n    tag_19:\n      callvalue\n      dup1\n      iszero\n      tag_106\n      jumpi\n      0x00\n      dup1\n      revert\n    tag_106:\n      pop\n      tag_107\n      tag_108\n      jump\t// in\n    tag_107:\n      mload(0x40)\n      tag_109\n      swap2\n      swap1\n      tag_50\n      jump\t// in\n    tag_109:\n      mload(0x40)\n      dup1\n      swap2\n      sub\n      swap1\n      return\n        /* \"campaign.sol\":1848:1886  State public state = State.Fundraising */\n    tag_20:\n      callvalue\n      dup1\n      iszero\n      tag_110\n      jumpi\n      0x00\n      dup1\n      revert\n    tag_110:\n      pop\n      tag_111\n      tag_112\n      jump\t// in\n    tag_111:\n      mload(0x40)\n      tag_113\n      swap2\n      swap1\n      tag_114\n      jump\t// in\n    tag_113:\n      mload(0x40)\n      dup1\n      swap2\n      sub\n      swap1\n      return\n        /* \"campaign.sol\":1993:2019  uint public currentBalance */\n    tag_21:\n      callvalue\n      dup1\n      iszero\n      tag_115\n      jumpi\n      0x00\n      dup1\n      revert\n    tag_115:\n      pop\n      tag_116\n      tag_117\n      jump\t// in\n    tag_116:\n      mload(0x40)\n      tag_118\n      swap2\n      swap1\n      tag_39\n      jump\t// in\n    tag_118:\n      mload(0x40)\n      dup1\n      swap2\n      sub\n      swap1\n      return\n        /* \"campaign.sol\":3224:3872  function contribute() external payable difState(State.Expired) {\r... */\n    tag_22:\n      tag_119\n      tag_120\n      jump\t// in\n    tag_119:\n      stop\n        /* \"campaign.sol\":4363:4681  function approveRequest(uint index) public difState(State.Expired){\r... */\n    tag_23:\n      callvalue\n      dup1\n      iszero\n      tag_121\n      jumpi\n      0x00\n      dup1\n      revert\n    tag_121:\n      pop\n      tag_122\n      0x04\n      dup1\n      calldatasize\n      sub\n      dup2\n      add\n      swap1\n      tag_123\n      swap2\n      swap1\n      tag_33\n      jump\t// in\n    tag_123:\n      tag_124\n      jump\t// in\n    tag_122:\n      stop\n        /* \"campaign.sol\":2955:3216  function checkIfFundingFulfilledOrExpired() public {\r... */\n    tag_29:\n        /* \"campaign.sol\":3053:3072  1000000000000000000 */\n      0x0de0b6b3a7640000\n        /* \"campaign.sol\":3042:3052  amountGoal */\n      sload(0x02)\n        /* \"campaign.sol\":3042:3072  amountGoal*1000000000000000000 */\n      tag_126\n      swap2\n      swap1\n      tag_127\n      jump\t// in\n    tag_126:\n        /* \"campaign.sol\":3021:3038  totalContribution */\n      sload(0x04)\n        /* \"campaign.sol\":3021:3072  totalContribution >= amountGoal*1000000000000000000 */\n      lt\n        /* \"campaign.sol\":3017:3209  if (totalContribution >= amountGoal*1000000000000000000) {\r... */\n      tag_128\n      jumpi\n        /* \"campaign.sol\":3097:3112  State.Fulfilled */\n      0x01\n        /* \"campaign.sol\":3089:3094  state */\n      0x06\n      0x00\n        /* \"campaign.sol\":3089:3112  state = State.Fulfilled */\n      0x0100\n      exp\n      dup2\n      sload\n      dup2\n      0xff\n      mul\n      not\n      and\n      swap1\n      dup4\n      0x02\n      dup2\n      gt\n      iszero\n      tag_129\n      jumpi\n      mstore(0x00, 0x4e487b7100000000000000000000000000000000000000000000000000000000)\n      mstore(0x04, 0x21)\n      revert(0x00, 0x24)\n    tag_129:\n      mul\n      or\n      swap1\n      sstore\n      pop\n        /* \"campaign.sol\":3017:3209  if (totalContribution >= amountGoal*1000000000000000000) {\r... */\n      jump(tag_130)\n    tag_128:\n        /* \"campaign.sol\":3152:3159  raiseBy */\n      sload(0x07)\n        /* \"campaign.sol\":3134:3149  block.timestamp */\n      timestamp\n        /* \"campaign.sol\":3134:3159  block.timestamp > raiseBy */\n      gt\n        /* \"campaign.sol\":3130:3209  if (block.timestamp > raiseBy) {\r... */\n      iszero\n      tag_131\n      jumpi\n        /* \"campaign.sol\":3184:3197  State.Expired */\n      0x02\n        /* \"campaign.sol\":3176:3181  state */\n      0x06\n      0x00\n        /* \"campaign.sol\":3176:3197  state = State.Expired */\n      0x0100\n      exp\n      dup2\n      sload\n      dup2\n      0xff\n      mul\n      not\n      and\n      swap1\n      dup4\n      0x02\n      dup2\n      gt\n      iszero\n      tag_132\n      jumpi\n      mstore(0x00, 0x4e487b7100000000000000000000000000000000000000000000000000000000)\n      mstore(0x04, 0x21)\n      revert(0x00, 0x24)\n    tag_132:\n      mul\n      or\n      swap1\n      sstore\n      pop\n        /* \"campaign.sol\":3130:3209  if (block.timestamp > raiseBy) {\r... */\n    tag_131:\n        /* \"campaign.sol\":3017:3209  if (totalContribution >= amountGoal*1000000000000000000) {\r... */\n    tag_130:\n        /* \"campaign.sol\":2955:3216  function checkIfFundingFulfilledOrExpired() public {\r... */\n      jump\t// out\n        /* \"campaign.sol\":4694:5049  function finalizeRequest(uint index) public managerOnly difState(State.Expired){\r... */\n    tag_34:\n        /* \"campaign.sol\":2516:2523  manager */\n      0x00\n      dup1\n      sload\n      swap1\n      0x0100\n      exp\n      swap1\n      div\n      0xffffffffffffffffffffffffffffffffffffffff\n      and\n        /* \"campaign.sol\":2502:2523  msg.sender == manager */\n      0xffffffffffffffffffffffffffffffffffffffff\n      and\n        /* \"campaign.sol\":2502:2512  msg.sender */\n      caller\n        /* \"campaign.sol\":2502:2523  msg.sender == manager */\n      0xffffffffffffffffffffffffffffffffffffffff\n      and\n      eq\n        /* \"campaign.sol\":2494:2524  require(msg.sender == manager) */\n      tag_134\n      jumpi\n      0x00\n      dup1\n      revert\n    tag_134:\n        /* \"campaign.sol\":4759:4772  State.Expired */\n      0x02\n        /* \"campaign.sol\":2425:2431  _state */\n      dup1\n        /* \"campaign.sol\":2416:2431  state != _state */\n      0x02\n      dup2\n      gt\n      iszero\n      tag_136\n      jumpi\n      mstore(0x00, 0x4e487b7100000000000000000000000000000000000000000000000000000000)\n      mstore(0x04, 0x21)\n      revert(0x00, 0x24)\n    tag_136:\n        /* \"campaign.sol\":2416:2421  state */\n      0x06\n      0x00\n      swap1\n      sload\n      swap1\n      0x0100\n      exp\n      swap1\n      div\n      0xff\n      and\n        /* \"campaign.sol\":2416:2431  state != _state */\n      0x02\n      dup2\n      gt\n      iszero\n      tag_137\n      jumpi\n      mstore(0x00, 0x4e487b7100000000000000000000000000000000000000000000000000000000)\n      mstore(0x04, 0x21)\n      revert(0x00, 0x24)\n    tag_137:\n      eq\n      iszero\n        /* \"campaign.sol\":2408:2432  require(state != _state) */\n      tag_138\n      jumpi\n      0x00\n      dup1\n      revert\n    tag_138:\n        /* \"campaign.sol\":4784:4807  Request storage request */\n      0x00\n        /* \"campaign.sol\":4810:4818  requests */\n      0x0b\n        /* \"campaign.sol\":4810:4825  requests[index] */\n      0x00\n        /* \"campaign.sol\":4819:4824  index */\n      dup5\n        /* \"campaign.sol\":4810:4825  requests[index] */\n      dup2\n      mstore\n      0x20\n      add\n      swap1\n      dup2\n      mstore\n      0x20\n      add\n      0x00\n      keccak256\n        /* \"campaign.sol\":4784:4825  Request storage request = requests[index] */\n      swap1\n      pop\n        /* \"campaign.sol\":4855:4862  request */\n      dup1\n        /* \"campaign.sol\":4855:4871  request.complete */\n      0x02\n      add\n      0x14\n      swap1\n      sload\n      swap1\n      0x0100\n      exp\n      swap1\n      div\n      0xff\n      and\n        /* \"campaign.sol\":4854:4871  !request.complete */\n      iszero\n        /* \"campaign.sol\":4846:4872  require(!request.complete) */\n      tag_140\n      jumpi\n      0x00\n      dup1\n      revert\n    tag_140:\n        /* \"campaign.sol\":4933:4934  2 */\n      0x02\n        /* \"campaign.sol\":4916:4930  approversCount */\n      sload(0x0d)\n        /* \"campaign.sol\":4916:4934  approversCount / 2 */\n      tag_141\n      swap2\n      swap1\n      tag_142\n      jump\t// in\n    tag_141:\n        /* \"campaign.sol\":4891:4898  request */\n      dup2\n        /* \"campaign.sol\":4891:4912  request.approvalCount */\n      0x03\n      add\n      sload\n        /* \"campaign.sol\":4891:4935  request.approvalCount > (approversCount / 2) */\n      gt\n        /* \"campaign.sol\":4883:4936  require(request.approvalCount > (approversCount / 2)) */\n      tag_143\n      jumpi\n      0x00\n      dup1\n      revert\n    tag_143:\n        /* \"campaign.sol\":4965:4972  request */\n      dup1\n        /* \"campaign.sol\":4965:4982  request.recipient */\n      0x02\n      add\n      0x00\n      swap1\n      sload\n      swap1\n      0x0100\n      exp\n      swap1\n      div\n      0xffffffffffffffffffffffffffffffffffffffff\n      and\n        /* \"campaign.sol\":4957:4992  payable(request.recipient).transfer */\n      0xffffffffffffffffffffffffffffffffffffffff\n      and\n        /* \"campaign.sol\":4957:5007  payable(request.recipient).transfer(request.value) */\n      0x08fc\n        /* \"campaign.sol\":4993:5000  request */\n      dup3\n        /* \"campaign.sol\":4993:5006  request.value */\n      0x01\n      add\n      sload\n        /* \"campaign.sol\":4957:5007  payable(request.recipient).transfer(request.value) */\n      swap1\n      dup2\n      iszero\n      mul\n      swap1\n      mload(0x40)\n      0x00\n      mload(0x40)\n      dup1\n      dup4\n      sub\n      dup2\n      dup6\n      dup9\n      dup9\n      call\n      swap4\n      pop\n      pop\n      pop\n      pop\n      iszero\n      dup1\n      iszero\n      tag_145\n      jumpi\n      returndatasize\n      0x00\n      dup1\n      returndatacopy\n      revert(0x00, returndatasize)\n    tag_145:\n      pop\n        /* \"campaign.sol\":5037:5041  true */\n      0x01\n        /* \"campaign.sol\":5018:5025  request */\n      dup2\n        /* \"campaign.sol\":5018:5034  request.complete */\n      0x02\n      add\n      0x14\n        /* \"campaign.sol\":5018:5041  request.complete = true */\n      0x0100\n      exp\n      dup2\n      sload\n      dup2\n      0xff\n      mul\n      not\n      and\n      swap1\n      dup4\n      iszero\n      iszero\n      mul\n      or\n      swap1\n      sstore\n      pop\n        /* \"campaign.sol\":2443:2444  _ */\n      pop\n        /* \"campaign.sol\":2535:2536  _ */\n      pop\n        /* \"campaign.sol\":4694:5049  function finalizeRequest(uint index) public managerOnly difState(State.Expired){\r... */\n      pop\n      jump\t// out\n        /* \"campaign.sol\":1598:1620  uint public amountGoal */\n    tag_37:\n      sload(0x02)\n      dup2\n      jump\t// out\n        /* \"campaign.sol\":5057:5158  function getTotalContribution() public view returns(uint) {\r... */\n    tag_42:\n        /* \"campaign.sol\":5109:5113  uint */\n      0x00\n        /* \"campaign.sol\":5133:5150  totalContribution */\n      sload(0x04)\n        /* \"campaign.sol\":5126:5150  return totalContribution */\n      swap1\n      pop\n        /* \"campaign.sol\":5057:5158  function getTotalContribution() public view returns(uint) {\r... */\n      swap1\n      jump\t// out\n        /* \"campaign.sol\":2066:2107  mapping(address => bool) public approvers */\n    tag_48:\n      mstore(0x20, 0x0a)\n      dup1\n      0x00\n      mstore\n      keccak256(0x00, 0x40)\n      0x00\n      swap2\n      pop\n      sload\n      swap1\n      0x0100\n      exp\n      swap1\n      div\n      0xff\n      and\n      dup2\n      jump\t// out\n        /* \"campaign.sol\":1728:1757  uint public totalContribution */\n    tag_53:\n      sload(0x04)\n      dup2\n      jump\t// out\n        /* \"campaign.sol\":1540:1567  string public titleCompaign */\n    tag_57:\n      0x01\n      dup1\n      sload\n      tag_147\n      swap1\n      tag_148\n      jump\t// in\n    tag_147:\n      dup1\n      0x1f\n      add\n      0x20\n      dup1\n      swap2\n      div\n      mul\n      0x20\n      add\n      mload(0x40)\n      swap1\n      dup2\n      add\n      0x40\n      mstore\n      dup1\n      swap3\n      swap2\n      swap1\n      dup2\n      dup2\n      mstore\n      0x20\n      add\n      dup3\n      dup1\n      sload\n      tag_149\n      swap1\n      tag_148\n      jump\t// in\n    tag_149:\n      dup1\n      iszero\n      tag_150\n      jumpi\n      dup1\n      0x1f\n      lt\n      tag_151\n      jumpi\n      0x0100\n      dup1\n      dup4\n      sload\n      div\n      mul\n      dup4\n      mstore\n      swap2\n      0x20\n      add\n      swap2\n      jump(tag_150)\n    tag_151:\n      dup3\n      add\n      swap2\n      swap1\n      0x00\n      mstore\n      keccak256(0x00, 0x20)\n      swap1\n    tag_152:\n      dup2\n      sload\n      dup2\n      mstore\n      swap1\n      0x01\n      add\n      swap1\n      0x20\n      add\n      dup1\n      dup4\n      gt\n      tag_152\n      jumpi\n      dup3\n      swap1\n      sub\n      0x1f\n      and\n      dup3\n      add\n      swap2\n    tag_150:\n      pop\n      pop\n      pop\n      pop\n      pop\n      dup2\n      jump\t// out\n        /* \"campaign.sol\":1926:1945  uint public raiseBy */\n    tag_62:\n      sload(0x07)\n      dup2\n      jump\t// out\n        /* \"campaign.sol\":6055:6538  function getSummary() public view returns (\r... */\n    tag_66:\n        /* \"campaign.sol\":6106:6110  uint */\n      0x00\n        /* \"campaign.sol\":6119:6123  uint */\n      dup1\n        /* \"campaign.sol\":6132:6136  uint */\n      0x00\n        /* \"campaign.sol\":6145:6149  uint */\n      dup1\n        /* \"campaign.sol\":6158:6165  address */\n      0x00\n        /* \"campaign.sol\":6174:6187  string memory */\n      0x60\n        /* \"campaign.sol\":6196:6200  uint */\n      0x00\n        /* \"campaign.sol\":6209:6222  string memory */\n      0x60\n        /* \"campaign.sol\":6231:6235  uint */\n      0x00\n        /* \"campaign.sol\":6244:6248  uint */\n      dup1\n        /* \"campaign.sol\":6283:6302  minimumContribution */\n      sload(0x09)\n        /* \"campaign.sol\":6313:6334  address(this).balance */\n      selfbalance\n        /* \"campaign.sol\":6345:6357  requestCount */\n      sload(0x0c)\n        /* \"campaign.sol\":6368:6382  approversCount */\n      sload(0x0d)\n        /* \"campaign.sol\":6393:6400  manager */\n      0x00\n      dup1\n      sload\n      swap1\n      0x0100\n      exp\n      swap1\n      div\n      0xffffffffffffffffffffffffffffffffffffffff\n      and\n        /* \"campaign.sol\":6411:6424  titleCompaign */\n      0x01\n        /* \"campaign.sol\":6435:6445  amountGoal */\n      sload(0x02)\n        /* \"campaign.sol\":6456:6475  CampaignDescription */\n      0x03\n        /* \"campaign.sol\":6486:6503  totalContribution */\n      sload(0x04)\n        /* \"campaign.sol\":6514:6521  raiseBy */\n      sload(0x07)\n        /* \"campaign.sol\":6265:6530  return (\r... */\n      dup5\n      dup1\n      sload\n      tag_154\n      swap1\n      tag_148\n      jump\t// in\n    tag_154:\n      dup1\n      0x1f\n      add\n      0x20\n      dup1\n      swap2\n      div\n      mul\n      0x20\n      add\n      mload(0x40)\n      swap1\n      dup2\n      add\n      0x40\n      mstore\n      dup1\n      swap3\n      swap2\n      swap1\n      dup2\n      dup2\n      mstore\n      0x20\n      add\n      dup3\n      dup1\n      sload\n      tag_155\n      swap1\n      tag_148\n      jump\t// in\n    tag_155:\n      dup1\n      iszero\n      tag_156\n      jumpi\n      dup1\n      0x1f\n      lt\n      tag_157\n      jumpi\n      0x0100\n      dup1\n      dup4\n      sload\n      div\n      mul\n      dup4\n      mstore\n      swap2\n      0x20\n      add\n      swap2\n      jump(tag_156)\n    tag_157:\n      dup3\n      add\n      swap2\n      swap1\n      0x00\n      mstore\n      keccak256(0x00, 0x20)\n      swap1\n    tag_158:\n      dup2\n      sload\n      dup2\n      mstore\n      swap1\n      0x01\n      add\n      swap1\n      0x20\n      add\n      dup1\n      dup4\n      gt\n      tag_158\n      jumpi\n      dup3\n      swap1\n      sub\n      0x1f\n      and\n      dup3\n      add\n      swap2\n    tag_156:\n      pop\n      pop\n      pop\n      pop\n      pop\n      swap5\n      pop\n      dup3\n      dup1\n      sload\n      tag_159\n      swap1\n      tag_148\n      jump\t// in\n    tag_159:\n      dup1\n      0x1f\n      add\n      0x20\n      dup1\n      swap2\n      div\n      mul\n      0x20\n      add\n      mload(0x40)\n      swap1\n      dup2\n      add\n      0x40\n      mstore\n      dup1\n      swap3\n      swap2\n      swap1\n      dup2\n      dup2\n      mstore\n      0x20\n      add\n      dup3\n      dup1\n      sload\n      tag_160\n      swap1\n      tag_148\n      jump\t// in\n    tag_160:\n      dup1\n      iszero\n      tag_161\n      jumpi\n      dup1\n      0x1f\n      lt\n      tag_162\n      jumpi\n      0x0100\n      dup1\n      dup4\n      sload\n      div\n      mul\n      dup4\n      mstore\n      swap2\n      0x20\n      add\n      swap2\n      jump(tag_161)\n    tag_162:\n      dup3\n      add\n      swap2\n      swap1\n      0x00\n      mstore\n      keccak256(0x00, 0x20)\n      swap1\n    tag_163:\n      dup2\n      sload\n      dup2\n      mstore\n      swap1\n      0x01\n      add\n      swap1\n      0x20\n      add\n      dup1\n      dup4\n      gt\n      tag_163\n      jumpi\n      dup3\n      swap1\n      sub\n      0x1f\n      and\n      dup3\n      add\n      swap2\n    tag_161:\n      pop\n      pop\n      pop\n      pop\n      pop\n      swap3\n      pop\n      swap10\n      pop\n      swap10\n      pop\n      swap10\n      pop\n      swap10\n      pop\n      swap10\n      pop\n      swap10\n      pop\n      swap10\n      pop\n      swap10\n      pop\n      swap10\n      pop\n      swap10\n      pop\n        /* \"campaign.sol\":6055:6538  function getSummary() public view returns (\r... */\n      swap1\n      swap2\n      swap3\n      swap4\n      swap5\n      swap6\n      swap7\n      swap8\n      swap9\n      swap10\n      jump\t// out\n        /* \"campaign.sol\":1795:1840  mapping(address => uint) public contributions */\n    tag_72:\n      mstore(0x20, 0x05)\n      dup1\n      0x00\n      mstore\n      keccak256(0x00, 0x40)\n      0x00\n      swap2\n      pop\n      swap1\n      pop\n      sload\n      dup2\n      jump\t// out\n        /* \"campaign.sol\":1505:1527  address public manager */\n    tag_76:\n      0x00\n      dup1\n      sload\n      swap1\n      0x0100\n      exp\n      swap1\n      div\n      0xffffffffffffffffffffffffffffffffffffffff\n      and\n      dup2\n      jump\t// out\n        /* \"campaign.sol\":2161:2185  uint public requestCount */\n    tag_81:\n      sload(0x0c)\n      dup2\n      jump\t// out\n        /* \"campaign.sol\":2114:2154  mapping(uint => Request) public requests */\n    tag_86:\n      mstore(0x20, 0x0b)\n      dup1\n      0x00\n      mstore\n      keccak256(0x00, 0x40)\n      0x00\n      swap2\n      pop\n      swap1\n      pop\n      dup1\n      0x00\n      add\n      dup1\n      sload\n      tag_164\n      swap1\n      tag_148\n      jump\t// in\n    tag_164:\n      dup1\n      0x1f\n      add\n      0x20\n      dup1\n      swap2\n      div\n      mul\n      0x20\n      add\n      mload(0x40)\n      swap1\n      dup2\n      add\n      0x40\n      mstore\n      dup1\n      swap3\n      swap2\n      swap1\n      dup2\n      dup2\n      mstore\n      0x20\n      add\n      dup3\n      dup1\n      sload\n      tag_165\n      swap1\n      tag_148\n      jump\t// in\n    tag_165:\n      dup1\n      iszero\n      tag_166\n      jumpi\n      dup1\n      0x1f\n      lt\n      tag_167\n      jumpi\n      0x0100\n      dup1\n      dup4\n      sload\n      div\n      mul\n      dup4\n      mstore\n      swap2\n      0x20\n      add\n      swap2\n      jump(tag_166)\n    tag_167:\n      dup3\n      add\n      swap2\n      swap1\n      0x00\n      mstore\n      keccak256(0x00, 0x20)\n      swap1\n    tag_168:\n      dup2\n      sload\n      dup2\n      mstore\n      swap1\n      0x01\n      add\n      swap1\n      0x20\n      add\n      dup1\n      dup4\n      gt\n      tag_168\n      jumpi\n      dup3\n      swap1\n      sub\n      0x1f\n      and\n      dup3\n      add\n      swap2\n    tag_166:\n      pop\n      pop\n      pop\n      pop\n      pop\n      swap1\n      dup1\n      0x01\n      add\n      sload\n      swap1\n      dup1\n      0x02\n      add\n      0x00\n      swap1\n      sload\n      swap1\n      0x0100\n      exp\n      swap1\n      div\n      0xffffffffffffffffffffffffffffffffffffffff\n      and\n      swap1\n      dup1\n      0x02\n      add\n      0x14\n      swap1\n      sload\n      swap1\n      0x0100\n      exp\n      swap1\n      div\n      0xff\n      and\n      swap1\n      dup1\n      0x03\n      add\n      sload\n      swap1\n      pop\n      dup6\n      jump\t// out\n        /* \"campaign.sol\":2192:2218  uint public approversCount */\n    tag_91:\n      sload(0x0d)\n      dup2\n      jump\t// out\n        /* \"campaign.sol\":3884:4351  function createRequest(\r... */\n    tag_97:\n        /* \"campaign.sol\":2516:2523  manager */\n      0x00\n      dup1\n      sload\n      swap1\n      0x0100\n      exp\n      swap1\n      div\n      0xffffffffffffffffffffffffffffffffffffffff\n      and\n        /* \"campaign.sol\":2502:2523  msg.sender == manager */\n      0xffffffffffffffffffffffffffffffffffffffff\n      and\n        /* \"campaign.sol\":2502:2512  msg.sender */\n      caller\n        /* \"campaign.sol\":2502:2523  msg.sender == manager */\n      0xffffffffffffffffffffffffffffffffffffffff\n      and\n      eq\n        /* \"campaign.sol\":2494:2524  require(msg.sender == manager) */\n      tag_170\n      jumpi\n      0x00\n      dup1\n      revert\n    tag_170:\n        /* \"campaign.sol\":4023:4036  State.Expired */\n      0x02\n        /* \"campaign.sol\":2425:2431  _state */\n      dup1\n        /* \"campaign.sol\":2416:2431  state != _state */\n      0x02\n      dup2\n      gt\n      iszero\n      tag_172\n      jumpi\n      mstore(0x00, 0x4e487b7100000000000000000000000000000000000000000000000000000000)\n      mstore(0x04, 0x21)\n      revert(0x00, 0x24)\n    tag_172:\n        /* \"campaign.sol\":2416:2421  state */\n      0x06\n      0x00\n      swap1\n      sload\n      swap1\n      0x0100\n      exp\n      swap1\n      div\n      0xff\n      and\n        /* \"campaign.sol\":2416:2431  state != _state */\n      0x02\n      dup2\n      gt\n      iszero\n      tag_173\n      jumpi\n      mstore(0x00, 0x4e487b7100000000000000000000000000000000000000000000000000000000)\n      mstore(0x04, 0x21)\n      revert(0x00, 0x24)\n    tag_173:\n      eq\n      iszero\n        /* \"campaign.sol\":2408:2432  require(state != _state) */\n      tag_174\n      jumpi\n      0x00\n      dup1\n      revert\n    tag_174:\n        /* \"campaign.sol\":4087:4092  value */\n      dup3\n        /* \"campaign.sol\":4062:4083  address(this).balance */\n      selfbalance\n        /* \"campaign.sol\":4062:4092  address(this).balance >= value */\n      lt\n      iszero\n        /* \"campaign.sol\":4054:4093  require(address(this).balance >= value) */\n      tag_176\n      jumpi\n      0x00\n      dup1\n      revert\n    tag_176:\n        /* \"campaign.sol\":4104:4130  Request storage newRequest */\n      0x00\n        /* \"campaign.sol\":4133:4141  requests */\n      0x0b\n        /* \"campaign.sol\":4133:4155  requests[requestCount] */\n      0x00\n        /* \"campaign.sol\":4142:4154  requestCount */\n      sload(0x0c)\n        /* \"campaign.sol\":4133:4155  requests[requestCount] */\n      dup2\n      mstore\n      0x20\n      add\n      swap1\n      dup2\n      mstore\n      0x20\n      add\n      0x00\n      keccak256\n        /* \"campaign.sol\":4104:4155  Request storage newRequest = requests[requestCount] */\n      swap1\n      pop\n        /* \"campaign.sol\":4191:4202  description */\n      dup5\n        /* \"campaign.sol\":4166:4176  newRequest */\n      dup2\n        /* \"campaign.sol\":4166:4188  newRequest.description */\n      0x00\n      add\n        /* \"campaign.sol\":4166:4202  newRequest.description = description */\n      swap1\n      dup1\n      mload\n      swap1\n      0x20\n      add\n      swap1\n      tag_177\n      swap3\n      swap2\n      swap1\n      tag_178\n      jump\t// in\n    tag_177:\n      pop\n        /* \"campaign.sol\":4232:4237  value */\n      dup4\n        /* \"campaign.sol\":4213:4223  newRequest */\n      dup2\n        /* \"campaign.sol\":4213:4229  newRequest.value */\n      0x01\n      add\n        /* \"campaign.sol\":4213:4237  newRequest.value = value */\n      dup2\n      swap1\n      sstore\n      pop\n        /* \"campaign.sol\":4271:4280  recipient */\n      dup3\n        /* \"campaign.sol\":4248:4258  newRequest */\n      dup2\n        /* \"campaign.sol\":4248:4268  newRequest.recipient */\n      0x02\n      add\n      0x00\n        /* \"campaign.sol\":4248:4280  newRequest.recipient = recipient */\n      0x0100\n      exp\n      dup2\n      sload\n      dup2\n      0xffffffffffffffffffffffffffffffffffffffff\n      mul\n      not\n      and\n      swap1\n      dup4\n      0xffffffffffffffffffffffffffffffffffffffff\n      and\n      mul\n      or\n      swap1\n      sstore\n      pop\n        /* \"campaign.sol\":4313:4318  false */\n      0x00\n        /* \"campaign.sol\":4291:4301  newRequest */\n      dup2\n        /* \"campaign.sol\":4291:4310  newRequest.complete */\n      0x02\n      add\n      0x14\n        /* \"campaign.sol\":4291:4318  newRequest.complete = false */\n      0x0100\n      exp\n      dup2\n      sload\n      dup2\n      0xff\n      mul\n      not\n      and\n      swap1\n      dup4\n      iszero\n      iszero\n      mul\n      or\n      swap1\n      sstore\n      pop\n        /* \"campaign.sol\":4329:4341  requestCount */\n      0x0c\n      0x00\n        /* \"campaign.sol\":4329:4343  requestCount++ */\n      dup2\n      sload\n      dup1\n      swap3\n      swap2\n      swap1\n      tag_179\n      swap1\n      tag_180\n      jump\t// in\n    tag_179:\n      swap2\n      swap1\n      pop\n      sstore\n      pop\n        /* \"campaign.sol\":2443:2444  _ */\n      pop\n        /* \"campaign.sol\":2535:2536  _ */\n      pop\n        /* \"campaign.sol\":3884:4351  function createRequest(\r... */\n      pop\n      pop\n      pop\n      jump\t// out\n        /* \"campaign.sol\":2028:2059  uint public minimumContribution */\n    tag_100:\n      sload(0x09)\n      dup2\n      jump\t// out\n        /* \"campaign.sol\":1658:1691  string public CampaignDescription */\n    tag_104:\n      0x03\n      dup1\n      sload\n      tag_181\n      swap1\n      tag_148\n      jump\t// in\n    tag_181:\n      dup1\n      0x1f\n      add\n      0x20\n      dup1\n      swap2\n      div\n      mul\n      0x20\n      add\n      mload(0x40)\n      swap1\n      dup2\n      add\n      0x40\n      mstore\n      dup1\n      swap3\n      swap2\n      swap1\n      dup2\n      dup2\n      mstore\n      0x20\n      add\n      dup3\n      dup1\n      sload\n      tag_182\n      swap1\n      tag_148\n      jump\t// in\n    tag_182:\n      dup1\n      iszero\n      tag_183\n      jumpi\n      dup1\n      0x1f\n      lt\n      tag_184\n      jumpi\n      0x0100\n      dup1\n      dup4\n      sload\n      div\n      mul\n      dup4\n      mstore\n      swap2\n      0x20\n      add\n      swap2\n      jump(tag_183)\n    tag_184:\n      dup3\n      add\n      swap2\n      swap1\n      0x00\n      mstore\n      keccak256(0x00, 0x20)\n      swap1\n    tag_185:\n      dup2\n      sload\n      dup2\n      mstore\n      swap1\n      0x01\n      add\n      swap1\n      0x20\n      add\n      dup1\n      dup4\n      gt\n      tag_185\n      jumpi\n      dup3\n      swap1\n      sub\n      0x1f\n      and\n      dup3\n      add\n      swap2\n    tag_183:\n      pop\n      pop\n      pop\n      pop\n      pop\n      dup2\n      jump\t// out\n        /* \"campaign.sol\":5166:6047  function getRefund() public inState(State.Expired) returns (bool) \r... */\n    tag_108:\n        /* \"campaign.sol\":5226:5230  bool */\n      0x00\n        /* \"campaign.sol\":5202:5215  State.Expired */\n      0x02\n        /* \"campaign.sol\":2330:2336  _state */\n      dup1\n        /* \"campaign.sol\":2321:2336  state == _state */\n      0x02\n      dup2\n      gt\n      iszero\n      tag_187\n      jumpi\n      mstore(0x00, 0x4e487b7100000000000000000000000000000000000000000000000000000000)\n      mstore(0x04, 0x21)\n      revert(0x00, 0x24)\n    tag_187:\n        /* \"campaign.sol\":2321:2326  state */\n      0x06\n      0x00\n      swap1\n      sload\n      swap1\n      0x0100\n      exp\n      swap1\n      div\n      0xff\n      and\n        /* \"campaign.sol\":2321:2336  state == _state */\n      0x02\n      dup2\n      gt\n      iszero\n      tag_188\n      jumpi\n      mstore(0x00, 0x4e487b7100000000000000000000000000000000000000000000000000000000)\n      mstore(0x04, 0x21)\n      revert(0x00, 0x24)\n    tag_188:\n      eq\n        /* \"campaign.sol\":2313:2337  require(state == _state) */\n      tag_189\n      jumpi\n      0x00\n      dup1\n      revert\n    tag_189:\n        /* \"campaign.sol\":5285:5286  0 */\n      0x00\n        /* \"campaign.sol\":5257:5270  contributions */\n      0x05\n        /* \"campaign.sol\":5257:5282  contributions[msg.sender] */\n      0x00\n        /* \"campaign.sol\":5271:5281  msg.sender */\n      caller\n        /* \"campaign.sol\":5257:5282  contributions[msg.sender] */\n      0xffffffffffffffffffffffffffffffffffffffff\n      and\n      0xffffffffffffffffffffffffffffffffffffffff\n      and\n      dup2\n      mstore\n      0x20\n      add\n      swap1\n      dup2\n      mstore\n      0x20\n      add\n      0x00\n      keccak256\n      sload\n        /* \"campaign.sol\":5257:5286  contributions[msg.sender] > 0 */\n      gt\n        /* \"campaign.sol\":5249:5287  require(contributions[msg.sender] > 0) */\n      tag_191\n      jumpi\n      0x00\n      dup1\n      revert\n    tag_191:\n        /* \"campaign.sol\":5308:5325  uint totalRequest */\n      0x00\n        /* \"campaign.sol\":5351:5357  uint i */\n      dup1\n        /* \"campaign.sol\":5346:5550  for (uint i = 0; i < requestCount; i++) {\r... */\n    tag_192:\n        /* \"campaign.sol\":5367:5379  requestCount */\n      sload(0x0c)\n        /* \"campaign.sol\":5363:5364  i */\n      dup2\n        /* \"campaign.sol\":5363:5379  i < requestCount */\n      lt\n        /* \"campaign.sol\":5346:5550  for (uint i = 0; i < requestCount; i++) {\r... */\n      iszero\n      tag_193\n      jumpi\n        /* \"campaign.sol\":5401:5424  Request storage request */\n      0x00\n        /* \"campaign.sol\":5427:5435  requests */\n      0x0b\n        /* \"campaign.sol\":5427:5438  requests[i] */\n      0x00\n        /* \"campaign.sol\":5436:5437  i */\n      dup4\n        /* \"campaign.sol\":5427:5438  requests[i] */\n      dup2\n      mstore\n      0x20\n      add\n      swap1\n      dup2\n      mstore\n      0x20\n      add\n      0x00\n      keccak256\n        /* \"campaign.sol\":5401:5438  Request storage request = requests[i] */\n      swap1\n      pop\n        /* \"campaign.sol\":5457:5464  request */\n      dup1\n        /* \"campaign.sol\":5457:5473  request.complete */\n      0x02\n      add\n      0x14\n      swap1\n      sload\n      swap1\n      0x0100\n      exp\n      swap1\n      div\n      0xff\n      and\n        /* \"campaign.sol\":5453:5539  if (request.complete) {\r... */\n      iszero\n      tag_195\n      jumpi\n        /* \"campaign.sol\":5510:5517  request */\n      dup1\n        /* \"campaign.sol\":5510:5523  request.value */\n      0x01\n      add\n      sload\n        /* \"campaign.sol\":5494:5523  totalRequest += request.value */\n      dup4\n      tag_196\n      swap2\n      swap1\n      tag_197\n      jump\t// in\n    tag_196:\n      swap3\n      pop\n        /* \"campaign.sol\":5453:5539  if (request.complete) {\r... */\n    tag_195:\n        /* \"campaign.sol\":5346:5550  for (uint i = 0; i < requestCount; i++) {\r... */\n      pop\n        /* \"campaign.sol\":5381:5384  i++ */\n      dup1\n      dup1\n      tag_198\n      swap1\n      tag_180\n      jump\t// in\n    tag_198:\n      swap2\n      pop\n      pop\n        /* \"campaign.sol\":5346:5550  for (uint i = 0; i < requestCount; i++) {\r... */\n      jump(tag_192)\n    tag_193:\n      pop\n        /* \"campaign.sol\":5562:5581  uint amountToRefund */\n      0x00\n        /* \"campaign.sol\":5652:5669  totalContribution */\n      sload(0x04)\n        /* \"campaign.sol\":5639:5651  totalRequest */\n      dup3\n        /* \"campaign.sol\":5613:5626  contributions */\n      0x05\n        /* \"campaign.sol\":5613:5638  contributions[msg.sender] */\n      0x00\n        /* \"campaign.sol\":5627:5637  msg.sender */\n      caller\n        /* \"campaign.sol\":5613:5638  contributions[msg.sender] */\n      0xffffffffffffffffffffffffffffffffffffffff\n      and\n      0xffffffffffffffffffffffffffffffffffffffff\n      and\n      dup2\n      mstore\n      0x20\n      add\n      swap1\n      dup2\n      mstore\n      0x20\n      add\n      0x00\n      keccak256\n      sload\n        /* \"campaign.sol\":5613:5651  contributions[msg.sender]*totalRequest */\n      tag_199\n      swap2\n      swap1\n      tag_127\n      jump\t// in\n    tag_199:\n        /* \"campaign.sol\":5613:5669  contributions[msg.sender]*totalRequest/totalContribution */\n      tag_200\n      swap2\n      swap1\n      tag_142\n      jump\t// in\n    tag_200:\n        /* \"campaign.sol\":5584:5597  contributions */\n      0x05\n        /* \"campaign.sol\":5584:5609  contributions[msg.sender] */\n      0x00\n        /* \"campaign.sol\":5598:5608  msg.sender */\n      caller\n        /* \"campaign.sol\":5584:5609  contributions[msg.sender] */\n      0xffffffffffffffffffffffffffffffffffffffff\n      and\n      0xffffffffffffffffffffffffffffffffffffffff\n      and\n      dup2\n      mstore\n      0x20\n      add\n      swap1\n      dup2\n      mstore\n      0x20\n      add\n      0x00\n      keccak256\n      sload\n        /* \"campaign.sol\":5584:5670  contributions[msg.sender] - (contributions[msg.sender]*totalRequest/totalContribution) */\n      tag_201\n      swap2\n      swap1\n      tag_202\n      jump\t// in\n    tag_201:\n        /* \"campaign.sol\":5562:5670  uint amountToRefund = contributions[msg.sender] - (contributions[msg.sender]*totalRequest/totalContribution) */\n      swap1\n      pop\n        /* \"campaign.sol\":5739:5740  0 */\n      0x00\n        /* \"campaign.sol\":5711:5724  contributions */\n      0x05\n        /* \"campaign.sol\":5711:5736  contributions[msg.sender] */\n      0x00\n        /* \"campaign.sol\":5725:5735  msg.sender */\n      caller\n        /* \"campaign.sol\":5711:5736  contributions[msg.sender] */\n      0xffffffffffffffffffffffffffffffffffffffff\n      and\n      0xffffffffffffffffffffffffffffffffffffffff\n      and\n      dup2\n      mstore\n      0x20\n      add\n      swap1\n      dup2\n      mstore\n      0x20\n      add\n      0x00\n      keccak256\n        /* \"campaign.sol\":5711:5740  contributions[msg.sender] = 0 */\n      dup2\n      swap1\n      sstore\n      pop\n        /* \"campaign.sol\":5766:5776  msg.sender */\n      caller\n        /* \"campaign.sol\":5758:5782  payable(msg.sender).send */\n      0xffffffffffffffffffffffffffffffffffffffff\n      and\n        /* \"campaign.sol\":5758:5798  payable(msg.sender).send(amountToRefund) */\n      0x08fc\n        /* \"campaign.sol\":5783:5797  amountToRefund */\n      dup3\n        /* \"campaign.sol\":5758:5798  payable(msg.sender).send(amountToRefund) */\n      swap1\n      dup2\n      iszero\n      mul\n      swap1\n      mload(0x40)\n      0x00\n      mload(0x40)\n      dup1\n      dup4\n      sub\n      dup2\n      dup6\n      dup9\n      dup9\n      call\n      swap4\n      pop\n      pop\n      pop\n      pop\n        /* \"campaign.sol\":5753:6016  if (!payable(msg.sender).send(amountToRefund)) {\r... */\n      tag_204\n      jumpi\n        /* \"campaign.sol\":5843:5857  amountToRefund */\n      dup1\n        /* \"campaign.sol\":5815:5828  contributions */\n      0x05\n        /* \"campaign.sol\":5815:5840  contributions[msg.sender] */\n      0x00\n        /* \"campaign.sol\":5829:5839  msg.sender */\n      caller\n        /* \"campaign.sol\":5815:5840  contributions[msg.sender] */\n      0xffffffffffffffffffffffffffffffffffffffff\n      and\n      0xffffffffffffffffffffffffffffffffffffffff\n      and\n      dup2\n      mstore\n      0x20\n      add\n      swap1\n      dup2\n      mstore\n      0x20\n      add\n      0x00\n      keccak256\n        /* \"campaign.sol\":5815:5857  contributions[msg.sender] = amountToRefund */\n      dup2\n      swap1\n      sstore\n      pop\n        /* \"campaign.sol\":5879:5884  false */\n      0x00\n        /* \"campaign.sol\":5872:5884  return false */\n      swap4\n      pop\n      pop\n      pop\n      jump(tag_190)\n        /* \"campaign.sol\":5753:6016  if (!payable(msg.sender).send(amountToRefund)) {\r... */\n    tag_204:\n        /* \"campaign.sol\":5958:5972  amountToRefund */\n      dup1\n        /* \"campaign.sol\":5937:5954  totalContribution */\n      sload(0x04)\n        /* \"campaign.sol\":5937:5973  totalContribution - (amountToRefund) */\n      tag_206\n      swap2\n      swap1\n      tag_202\n      jump\t// in\n    tag_206:\n        /* \"campaign.sol\":5917:5934  totalContribution */\n      0x04\n        /* \"campaign.sol\":5917:5973  totalContribution = totalContribution - (amountToRefund) */\n      dup2\n      swap1\n      sstore\n      pop\n        /* \"campaign.sol\":5988:6002  approversCount */\n      0x0d\n      0x00\n        /* \"campaign.sol\":5988:6004  approversCount-- */\n      dup2\n      sload\n      dup1\n      swap3\n      swap2\n      swap1\n      tag_207\n      swap1\n      tag_208\n      jump\t// in\n    tag_207:\n      swap2\n      swap1\n      pop\n      sstore\n      pop\n        /* \"campaign.sol\":6035:6039  true */\n      0x01\n        /* \"campaign.sol\":6028:6039  return true */\n      swap4\n      pop\n      pop\n      pop\n        /* \"campaign.sol\":2348:2349  _ */\n    tag_190:\n        /* \"campaign.sol\":5166:6047  function getRefund() public inState(State.Expired) returns (bool) \r... */\n      pop\n      swap1\n      jump\t// out\n        /* \"campaign.sol\":1848:1886  State public state = State.Fundraising */\n    tag_112:\n      0x06\n      0x00\n      swap1\n      sload\n      swap1\n      0x0100\n      exp\n      swap1\n      div\n      0xff\n      and\n      dup2\n      jump\t// out\n        /* \"campaign.sol\":1993:2019  uint public currentBalance */\n    tag_117:\n      sload(0x08)\n      dup2\n      jump\t// out\n        /* \"campaign.sol\":3224:3872  function contribute() external payable difState(State.Expired) {\r... */\n    tag_120:\n        /* \"campaign.sol\":3272:3285  State.Expired */\n      0x02\n        /* \"campaign.sol\":2425:2431  _state */\n      dup1\n        /* \"campaign.sol\":2416:2431  state != _state */\n      0x02\n      dup2\n      gt\n      iszero\n      tag_210\n      jumpi\n      mstore(0x00, 0x4e487b7100000000000000000000000000000000000000000000000000000000)\n      mstore(0x04, 0x21)\n      revert(0x00, 0x24)\n    tag_210:\n        /* \"campaign.sol\":2416:2421  state */\n      0x06\n      0x00\n      swap1\n      sload\n      swap1\n      0x0100\n      exp\n      swap1\n      div\n      0xff\n      and\n        /* \"campaign.sol\":2416:2431  state != _state */\n      0x02\n      dup2\n      gt\n      iszero\n      tag_211\n      jumpi\n      mstore(0x00, 0x4e487b7100000000000000000000000000000000000000000000000000000000)\n      mstore(0x04, 0x21)\n      revert(0x00, 0x24)\n    tag_211:\n      eq\n      iszero\n        /* \"campaign.sol\":2408:2432  require(state != _state) */\n      tag_212\n      jumpi\n      0x00\n      dup1\n      revert\n    tag_212:\n        /* \"campaign.sol\":3324:3331  raiseBy */\n      sload(0x07)\n        /* \"campaign.sol\":3306:3321  block.timestamp */\n      timestamp\n        /* \"campaign.sol\":3306:3331  block.timestamp < raiseBy */\n      lt\n        /* \"campaign.sol\":3298:3332  require(block.timestamp < raiseBy) */\n      tag_214\n      jumpi\n      0x00\n      dup1\n      revert\n    tag_214:\n        /* \"campaign.sol\":3400:3407  manager */\n      0x00\n      dup1\n      sload\n      swap1\n      0x0100\n      exp\n      swap1\n      div\n      0xffffffffffffffffffffffffffffffffffffffff\n      and\n        /* \"campaign.sol\":3386:3407  msg.sender != manager */\n      0xffffffffffffffffffffffffffffffffffffffff\n      and\n        /* \"campaign.sol\":3386:3396  msg.sender */\n      caller\n        /* \"campaign.sol\":3386:3407  msg.sender != manager */\n      0xffffffffffffffffffffffffffffffffffffffff\n      and\n      eq\n      iszero\n        /* \"campaign.sol\":3378:3408  require(msg.sender != manager) */\n      tag_215\n      jumpi\n      0x00\n      dup1\n      revert\n    tag_215:\n        /* \"campaign.sol\":3440:3459  minimumContribution */\n      sload(0x09)\n        /* \"campaign.sol\":3427:3436  msg.value */\n      callvalue\n        /* \"campaign.sol\":3427:3459  msg.value >= minimumContribution */\n      lt\n      iszero\n        /* \"campaign.sol\":3419:3460  require(msg.value >= minimumContribution) */\n      tag_216\n      jumpi\n      0x00\n      dup1\n      revert\n    tag_216:\n        /* \"campaign.sol\":3528:3537  msg.value */\n      callvalue\n        /* \"campaign.sol\":3499:3512  contributions */\n      0x05\n        /* \"campaign.sol\":3499:3524  contributions[msg.sender] */\n      0x00\n        /* \"campaign.sol\":3513:3523  msg.sender */\n      caller\n        /* \"campaign.sol\":3499:3524  contributions[msg.sender] */\n      0xffffffffffffffffffffffffffffffffffffffff\n      and\n      0xffffffffffffffffffffffffffffffffffffffff\n      and\n      dup2\n      mstore\n      0x20\n      add\n      swap1\n      dup2\n      mstore\n      0x20\n      add\n      0x00\n      keccak256\n      sload\n        /* \"campaign.sol\":3499:3538  contributions[msg.sender] + (msg.value) */\n      tag_217\n      swap2\n      swap1\n      tag_197\n      jump\t// in\n    tag_217:\n        /* \"campaign.sol\":3471:3484  contributions */\n      0x05\n        /* \"campaign.sol\":3471:3496  contributions[msg.sender] */\n      0x00\n        /* \"campaign.sol\":3485:3495  msg.sender */\n      caller\n        /* \"campaign.sol\":3471:3496  contributions[msg.sender] */\n      0xffffffffffffffffffffffffffffffffffffffff\n      and\n      0xffffffffffffffffffffffffffffffffffffffff\n      and\n      dup2\n      mstore\n      0x20\n      add\n      swap1\n      dup2\n      mstore\n      0x20\n      add\n      0x00\n      keccak256\n        /* \"campaign.sol\":3471:3538  contributions[msg.sender] = contributions[msg.sender] + (msg.value) */\n      dup2\n      swap1\n      sstore\n      pop\n        /* \"campaign.sol\":3553:3562  approvers */\n      0x0a\n        /* \"campaign.sol\":3553:3574  approvers[msg.sender] */\n      0x00\n        /* \"campaign.sol\":3563:3573  msg.sender */\n      caller\n        /* \"campaign.sol\":3553:3574  approvers[msg.sender] */\n      0xffffffffffffffffffffffffffffffffffffffff\n      and\n      0xffffffffffffffffffffffffffffffffffffffff\n      and\n      dup2\n      mstore\n      0x20\n      add\n      swap1\n      dup2\n      mstore\n      0x20\n      add\n      0x00\n      keccak256\n      0x00\n      swap1\n      sload\n      swap1\n      0x0100\n      exp\n      swap1\n      div\n      0xff\n      and\n        /* \"campaign.sol\":3549:3697  if(!approvers[msg.sender]) { //if the sender is not an approver\r... */\n      tag_218\n      jumpi\n        /* \"campaign.sol\":3650:3654  true */\n      0x01\n        /* \"campaign.sol\":3626:3635  approvers */\n      0x0a\n        /* \"campaign.sol\":3626:3647  approvers[msg.sender] */\n      0x00\n        /* \"campaign.sol\":3636:3646  msg.sender */\n      caller\n        /* \"campaign.sol\":3626:3647  approvers[msg.sender] */\n      0xffffffffffffffffffffffffffffffffffffffff\n      and\n      0xffffffffffffffffffffffffffffffffffffffff\n      and\n      dup2\n      mstore\n      0x20\n      add\n      swap1\n      dup2\n      mstore\n      0x20\n      add\n      0x00\n      keccak256\n      0x00\n        /* \"campaign.sol\":3626:3654  approvers[msg.sender] = true */\n      0x0100\n      exp\n      dup2\n      sload\n      dup2\n      0xff\n      mul\n      not\n      and\n      swap1\n      dup4\n      iszero\n      iszero\n      mul\n      or\n      swap1\n      sstore\n      pop\n        /* \"campaign.sol\":3669:3683  approversCount */\n      0x0d\n      0x00\n        /* \"campaign.sol\":3669:3685  approversCount++ */\n      dup2\n      sload\n      dup1\n      swap3\n      swap2\n      swap1\n      tag_219\n      swap1\n      tag_180\n      jump\t// in\n    tag_219:\n      swap2\n      swap1\n      pop\n      sstore\n      pop\n        /* \"campaign.sol\":3549:3697  if(!approvers[msg.sender]) { //if the sender is not an approver\r... */\n    tag_218:\n        /* \"campaign.sol\":3747:3756  msg.value */\n      callvalue\n        /* \"campaign.sol\":3727:3744  totalContribution */\n      sload(0x04)\n        /* \"campaign.sol\":3727:3756  totalContribution + msg.value */\n      tag_220\n      swap2\n      swap1\n      tag_197\n      jump\t// in\n    tag_220:\n        /* \"campaign.sol\":3707:3724  totalContribution */\n      0x04\n        /* \"campaign.sol\":3707:3756  totalContribution = totalContribution + msg.value */\n      dup2\n      swap1\n      sstore\n      pop\n        /* \"campaign.sol\":3809:3818  msg.value */\n      callvalue\n        /* \"campaign.sol\":3791:3805  currentBalance */\n      sload(0x08)\n        /* \"campaign.sol\":3791:3819  currentBalance + (msg.value) */\n      tag_221\n      swap2\n      swap1\n      tag_197\n      jump\t// in\n    tag_221:\n        /* \"campaign.sol\":3774:3788  currentBalance */\n      0x08\n        /* \"campaign.sol\":3774:3819  currentBalance = currentBalance + (msg.value) */\n      dup2\n      swap1\n      sstore\n      pop\n        /* \"campaign.sol\":3830:3864  checkIfFundingFulfilledOrExpired() */\n      tag_222\n        /* \"campaign.sol\":3830:3862  checkIfFundingFulfilledOrExpired */\n      tag_29\n        /* \"campaign.sol\":3830:3864  checkIfFundingFulfilledOrExpired() */\n      jump\t// in\n    tag_222:\n        /* \"campaign.sol\":3224:3872  function contribute() external payable difState(State.Expired) {\r... */\n      pop\n      jump\t// out\n        /* \"campaign.sol\":4363:4681  function approveRequest(uint index) public difState(State.Expired){\r... */\n    tag_124:\n        /* \"campaign.sol\":4415:4428  State.Expired */\n      0x02\n        /* \"campaign.sol\":2425:2431  _state */\n      dup1\n        /* \"campaign.sol\":2416:2431  state != _state */\n      0x02\n      dup2\n      gt\n      iszero\n      tag_224\n      jumpi\n      mstore(0x00, 0x4e487b7100000000000000000000000000000000000000000000000000000000)\n      mstore(0x04, 0x21)\n      revert(0x00, 0x24)\n    tag_224:\n        /* \"campaign.sol\":2416:2421  state */\n      0x06\n      0x00\n      swap1\n      sload\n      swap1\n      0x0100\n      exp\n      swap1\n      div\n      0xff\n      and\n        /* \"campaign.sol\":2416:2431  state != _state */\n      0x02\n      dup2\n      gt\n      iszero\n      tag_225\n      jumpi\n      mstore(0x00, 0x4e487b7100000000000000000000000000000000000000000000000000000000)\n      mstore(0x04, 0x21)\n      revert(0x00, 0x24)\n    tag_225:\n      eq\n      iszero\n        /* \"campaign.sol\":2408:2432  require(state != _state) */\n      tag_226\n      jumpi\n      0x00\n      dup1\n      revert\n    tag_226:\n        /* \"campaign.sol\":4440:4463  Request storage request */\n      0x00\n        /* \"campaign.sol\":4466:4474  requests */\n      0x0b\n        /* \"campaign.sol\":4466:4481  requests[index] */\n      0x00\n        /* \"campaign.sol\":4475:4480  index */\n      dup5\n        /* \"campaign.sol\":4466:4481  requests[index] */\n      dup2\n      mstore\n      0x20\n      add\n      swap1\n      dup2\n      mstore\n      0x20\n      add\n      0x00\n      keccak256\n        /* \"campaign.sol\":4440:4481  Request storage request = requests[index] */\n      swap1\n      pop\n        /* \"campaign.sol\":4510:4519  approvers */\n      0x0a\n        /* \"campaign.sol\":4510:4531  approvers[msg.sender] */\n      0x00\n        /* \"campaign.sol\":4520:4530  msg.sender */\n      caller\n        /* \"campaign.sol\":4510:4531  approvers[msg.sender] */\n      0xffffffffffffffffffffffffffffffffffffffff\n      and\n      0xffffffffffffffffffffffffffffffffffffffff\n      and\n      dup2\n      mstore\n      0x20\n      add\n      swap1\n      dup2\n      mstore\n      0x20\n      add\n      0x00\n      keccak256\n      0x00\n      swap1\n      sload\n      swap1\n      0x0100\n      exp\n      swap1\n      div\n      0xff\n      and\n        /* \"campaign.sol\":4502:4532  require(approvers[msg.sender]) */\n      tag_228\n      jumpi\n      0x00\n      dup1\n      revert\n    tag_228:\n        /* \"campaign.sol\":4552:4559  request */\n      dup1\n        /* \"campaign.sol\":4552:4569  request.approvals */\n      0x04\n      add\n        /* \"campaign.sol\":4552:4581  request.approvals[msg.sender] */\n      0x00\n        /* \"campaign.sol\":4570:4580  msg.sender */\n      caller\n        /* \"campaign.sol\":4552:4581  request.approvals[msg.sender] */\n      0xffffffffffffffffffffffffffffffffffffffff\n      and\n      0xffffffffffffffffffffffffffffffffffffffff\n      and\n      dup2\n      mstore\n      0x20\n      add\n      swap1\n      dup2\n      mstore\n      0x20\n      add\n      0x00\n      keccak256\n      0x00\n      swap1\n      sload\n      swap1\n      0x0100\n      exp\n      swap1\n      div\n      0xff\n      and\n        /* \"campaign.sol\":4551:4581  !request.approvals[msg.sender] */\n      iszero\n        /* \"campaign.sol\":4543:4582  require(!request.approvals[msg.sender]) */\n      tag_229\n      jumpi\n      0x00\n      dup1\n      revert\n    tag_229:\n        /* \"campaign.sol\":4635:4639  true */\n      0x01\n        /* \"campaign.sol\":4603:4610  request */\n      dup2\n        /* \"campaign.sol\":4603:4620  request.approvals */\n      0x04\n      add\n        /* \"campaign.sol\":4603:4632  request.approvals[msg.sender] */\n      0x00\n        /* \"campaign.sol\":4621:4631  msg.sender */\n      caller\n        /* \"campaign.sol\":4603:4632  request.approvals[msg.sender] */\n      0xffffffffffffffffffffffffffffffffffffffff\n      and\n      0xffffffffffffffffffffffffffffffffffffffff\n      and\n      dup2\n      mstore\n      0x20\n      add\n      swap1\n      dup2\n      mstore\n      0x20\n      add\n      0x00\n      keccak256\n      0x00\n        /* \"campaign.sol\":4603:4639  request.approvals[msg.sender] = true */\n      0x0100\n      exp\n      dup2\n      sload\n      dup2\n      0xff\n      mul\n      not\n      and\n      swap1\n      dup4\n      iszero\n      iszero\n      mul\n      or\n      swap1\n      sstore\n      pop\n        /* \"campaign.sol\":4650:4657  request */\n      dup1\n        /* \"campaign.sol\":4650:4671  request.approvalCount */\n      0x03\n      add\n      0x00\n        /* \"campaign.sol\":4650:4673  request.approvalCount++ */\n      dup2\n      sload\n      dup1\n      swap3\n      swap2\n      swap1\n      tag_230\n      swap1\n      tag_180\n      jump\t// in\n    tag_230:\n      swap2\n      swap1\n      pop\n      sstore\n      pop\n        /* \"campaign.sol\":2443:2444  _ */\n      pop\n        /* \"campaign.sol\":4363:4681  function approveRequest(uint index) public difState(State.Expired){\r... */\n      pop\n      pop\n      jump\t// out\n    tag_178:\n      dup3\n      dup1\n      sload\n      tag_231\n      swap1\n      tag_148\n      jump\t// in\n    tag_231:\n      swap1\n      0x00\n      mstore\n      keccak256(0x00, 0x20)\n      swap1\n      0x1f\n      add\n      0x20\n      swap1\n      div\n      dup2\n      add\n      swap3\n      dup3\n      tag_233\n      jumpi\n      0x00\n      dup6\n      sstore\n      jump(tag_232)\n    tag_233:\n      dup3\n      0x1f\n      lt\n      tag_234\n      jumpi\n      dup1\n      mload\n      not(0xff)\n      and\n      dup4\n      dup1\n      add\n      or\n      dup6\n      sstore\n      jump(tag_232)\n    tag_234:\n      dup3\n      dup1\n      add\n      0x01\n      add\n      dup6\n      sstore\n      dup3\n      iszero\n      tag_232\n      jumpi\n      swap2\n      dup3\n      add\n    tag_235:\n      dup3\n      dup2\n      gt\n      iszero\n      tag_236\n      jumpi\n      dup3\n      mload\n      dup3\n      sstore\n      swap2\n      0x20\n      add\n      swap2\n      swap1\n      0x01\n      add\n      swap1\n      jump(tag_235)\n    tag_236:\n    tag_232:\n      pop\n      swap1\n      pop\n      tag_237\n      swap2\n      swap1\n      tag_238\n      jump\t// in\n    tag_237:\n      pop\n      swap1\n      jump\t// out\n    tag_238:\n    tag_239:\n      dup1\n      dup3\n      gt\n      iszero\n      tag_240\n      jumpi\n      0x00\n      dup2\n      0x00\n      swap1\n      sstore\n      pop\n      0x01\n      add\n      jump(tag_239)\n    tag_240:\n      pop\n      swap1\n      jump\t// out\n        /* \"#utility.yul\":7:352   */\n    tag_242:\n        /* \"#utility.yul\":85:90   */\n      0x00\n        /* \"#utility.yul\":110:176   */\n      tag_244\n        /* \"#utility.yul\":126:175   */\n      tag_245\n        /* \"#utility.yul\":168:174   */\n      dup5\n        /* \"#utility.yul\":126:175   */\n      tag_246\n      jump\t// in\n    tag_245:\n        /* \"#utility.yul\":110:176   */\n      tag_247\n      jump\t// in\n    tag_244:\n        /* \"#utility.yul\":101:176   */\n      swap1\n      pop\n        /* \"#utility.yul\":199:205   */\n      dup3\n        /* \"#utility.yul\":192:197   */\n      dup2\n        /* \"#utility.yul\":185:206   */\n      mstore\n        /* \"#utility.yul\":237:241   */\n      0x20\n        /* \"#utility.yul\":230:235   */\n      dup2\n        /* \"#utility.yul\":226:242   */\n      add\n        /* \"#utility.yul\":275:278   */\n      dup5\n        /* \"#utility.yul\":266:272   */\n      dup5\n        /* \"#utility.yul\":261:264   */\n      dup5\n        /* \"#utility.yul\":257:273   */\n      add\n        /* \"#utility.yul\":254:279   */\n      gt\n        /* \"#utility.yul\":251:253   */\n      iszero\n      tag_248\n      jumpi\n        /* \"#utility.yul\":292:293   */\n      0x00\n        /* \"#utility.yul\":289:290   */\n      dup1\n        /* \"#utility.yul\":282:294   */\n      revert\n        /* \"#utility.yul\":251:253   */\n    tag_248:\n        /* \"#utility.yul\":305:346   */\n      tag_249\n        /* \"#utility.yul\":339:345   */\n      dup5\n        /* \"#utility.yul\":334:337   */\n      dup3\n        /* \"#utility.yul\":329:332   */\n      dup6\n        /* \"#utility.yul\":305:346   */\n      tag_250\n      jump\t// in\n    tag_249:\n        /* \"#utility.yul\":91:352   */\n      pop\n      swap4\n      swap3\n      pop\n      pop\n      pop\n      jump\t// out\n        /* \"#utility.yul\":358:497   */\n    tag_251:\n        /* \"#utility.yul\":404:409   */\n      0x00\n        /* \"#utility.yul\":442:448   */\n      dup2\n        /* \"#utility.yul\":429:449   */\n      calldataload\n        /* \"#utility.yul\":420:449   */\n      swap1\n      pop\n        /* \"#utility.yul\":458:491   */\n      tag_253\n        /* \"#utility.yul\":485:490   */\n      dup2\n        /* \"#utility.yul\":458:491   */\n      tag_254\n      jump\t// in\n    tag_253:\n        /* \"#utility.yul\":410:497   */\n      swap3\n      swap2\n      pop\n      pop\n      jump\t// out\n        /* \"#utility.yul\":517:790   */\n    tag_255:\n        /* \"#utility.yul\":573:578   */\n      0x00\n        /* \"#utility.yul\":622:625   */\n      dup3\n        /* \"#utility.yul\":615:619   */\n      0x1f\n        /* \"#utility.yul\":607:613   */\n      dup4\n        /* \"#utility.yul\":603:620   */\n      add\n        /* \"#utility.yul\":599:626   */\n      slt\n        /* \"#utility.yul\":589:591   */\n      tag_257\n      jumpi\n        /* \"#utility.yul\":640:641   */\n      0x00\n        /* \"#utility.yul\":637:638   */\n      dup1\n        /* \"#utility.yul\":630:642   */\n      revert\n        /* \"#utility.yul\":589:591   */\n    tag_257:\n        /* \"#utility.yul\":680:686   */\n      dup2\n        /* \"#utility.yul\":667:687   */\n      calldataload\n        /* \"#utility.yul\":705:784   */\n      tag_258\n        /* \"#utility.yul\":780:783   */\n      dup5\n        /* \"#utility.yul\":772:778   */\n      dup3\n        /* \"#utility.yul\":765:769   */\n      0x20\n        /* \"#utility.yul\":757:763   */\n      dup7\n        /* \"#utility.yul\":753:770   */\n      add\n        /* \"#utility.yul\":705:784   */\n      tag_242\n      jump\t// in\n    tag_258:\n        /* \"#utility.yul\":696:784   */\n      swap2\n      pop\n        /* \"#utility.yul\":579:790   */\n      pop\n      swap3\n      swap2\n      pop\n      pop\n      jump\t// out\n        /* \"#utility.yul\":796:935   */\n    tag_259:\n        /* \"#utility.yul\":842:847   */\n      0x00\n        /* \"#utility.yul\":880:886   */\n      dup2\n        /* \"#utility.yul\":867:887   */\n      calldataload\n        /* \"#utility.yul\":858:887   */\n      swap1\n      pop\n        /* \"#utility.yul\":896:929   */\n      tag_261\n        /* \"#utility.yul\":923:928   */\n      dup2\n        /* \"#utility.yul\":896:929   */\n      tag_262\n      jump\t// in\n    tag_261:\n        /* \"#utility.yul\":848:935   */\n      swap3\n      swap2\n      pop\n      pop\n      jump\t// out\n        /* \"#utility.yul\":941:1203   */\n    tag_47:\n        /* \"#utility.yul\":1000:1006   */\n      0x00\n        /* \"#utility.yul\":1049:1051   */\n      0x20\n        /* \"#utility.yul\":1037:1046   */\n      dup3\n        /* \"#utility.yul\":1028:1035   */\n      dup5\n        /* \"#utility.yul\":1024:1047   */\n      sub\n        /* \"#utility.yul\":1020:1052   */\n      slt\n        /* \"#utility.yul\":1017:1019   */\n      iszero\n      tag_264\n      jumpi\n        /* \"#utility.yul\":1065:1066   */\n      0x00\n        /* \"#utility.yul\":1062:1063   */\n      dup1\n        /* \"#utility.yul\":1055:1067   */\n      revert\n        /* \"#utility.yul\":1017:1019   */\n    tag_264:\n        /* \"#utility.yul\":1108:1109   */\n      0x00\n        /* \"#utility.yul\":1133:1186   */\n      tag_265\n        /* \"#utility.yul\":1178:1185   */\n      dup5\n        /* \"#utility.yul\":1169:1175   */\n      dup3\n        /* \"#utility.yul\":1158:1167   */\n      dup6\n        /* \"#utility.yul\":1154:1176   */\n      add\n        /* \"#utility.yul\":1133:1186   */\n      tag_251\n      jump\t// in\n    tag_265:\n        /* \"#utility.yul\":1123:1186   */\n      swap2\n      pop\n        /* \"#utility.yul\":1079:1196   */\n      pop\n        /* \"#utility.yul\":1007:1203   */\n      swap3\n      swap2\n      pop\n      pop\n      jump\t// out\n        /* \"#utility.yul\":1209:1874   */\n    tag_96:\n        /* \"#utility.yul\":1296:1302   */\n      0x00\n        /* \"#utility.yul\":1304:1310   */\n      dup1\n        /* \"#utility.yul\":1312:1318   */\n      0x00\n        /* \"#utility.yul\":1361:1363   */\n      0x60\n        /* \"#utility.yul\":1349:1358   */\n      dup5\n        /* \"#utility.yul\":1340:1347   */\n      dup7\n        /* \"#utility.yul\":1336:1359   */\n      sub\n        /* \"#utility.yul\":1332:1364   */\n      slt\n        /* \"#utility.yul\":1329:1331   */\n      iszero\n      tag_267\n      jumpi\n        /* \"#utility.yul\":1377:1378   */\n      0x00\n        /* \"#utility.yul\":1374:1375   */\n      dup1\n        /* \"#utility.yul\":1367:1379   */\n      revert\n        /* \"#utility.yul\":1329:1331   */\n    tag_267:\n        /* \"#utility.yul\":1448:1449   */\n      0x00\n        /* \"#utility.yul\":1437:1446   */\n      dup5\n        /* \"#utility.yul\":1433:1450   */\n      add\n        /* \"#utility.yul\":1420:1451   */\n      calldataload\n        /* \"#utility.yul\":1478:1496   */\n      0xffffffffffffffff\n        /* \"#utility.yul\":1470:1476   */\n      dup2\n        /* \"#utility.yul\":1467:1497   */\n      gt\n        /* \"#utility.yul\":1464:1466   */\n      iszero\n      tag_268\n      jumpi\n        /* \"#utility.yul\":1510:1511   */\n      0x00\n        /* \"#utility.yul\":1507:1508   */\n      dup1\n        /* \"#utility.yul\":1500:1512   */\n      revert\n        /* \"#utility.yul\":1464:1466   */\n    tag_268:\n        /* \"#utility.yul\":1538:1601   */\n      tag_269\n        /* \"#utility.yul\":1593:1600   */\n      dup7\n        /* \"#utility.yul\":1584:1590   */\n      dup3\n        /* \"#utility.yul\":1573:1582   */\n      dup8\n        /* \"#utility.yul\":1569:1591   */\n      add\n        /* \"#utility.yul\":1538:1601   */\n      tag_255\n      jump\t// in\n    tag_269:\n        /* \"#utility.yul\":1528:1601   */\n      swap4\n      pop\n        /* \"#utility.yul\":1391:1611   */\n      pop\n        /* \"#utility.yul\":1650:1652   */\n      0x20\n        /* \"#utility.yul\":1676:1729   */\n      tag_270\n        /* \"#utility.yul\":1721:1728   */\n      dup7\n        /* \"#utility.yul\":1712:1718   */\n      dup3\n        /* \"#utility.yul\":1701:1710   */\n      dup8\n        /* \"#utility.yul\":1697:1719   */\n      add\n        /* \"#utility.yul\":1676:1729   */\n      tag_259\n      jump\t// in\n    tag_270:\n        /* \"#utility.yul\":1666:1729   */\n      swap3\n      pop\n        /* \"#utility.yul\":1621:1739   */\n      pop\n        /* \"#utility.yul\":1778:1780   */\n      0x40\n        /* \"#utility.yul\":1804:1857   */\n      tag_271\n        /* \"#utility.yul\":1849:1856   */\n      dup7\n        /* \"#utility.yul\":1840:1846   */\n      dup3\n        /* \"#utility.yul\":1829:1838   */\n      dup8\n        /* \"#utility.yul\":1825:1847   */\n      add\n        /* \"#utility.yul\":1804:1857   */\n      tag_251\n      jump\t// in\n    tag_271:\n        /* \"#utility.yul\":1794:1857   */\n      swap2\n      pop\n        /* \"#utility.yul\":1749:1867   */\n      pop\n        /* \"#utility.yul\":1319:1874   */\n      swap3\n      pop\n      swap3\n      pop\n      swap3\n      jump\t// out\n        /* \"#utility.yul\":1880:2142   */\n    tag_33:\n        /* \"#utility.yul\":1939:1945   */\n      0x00\n        /* \"#utility.yul\":1988:1990   */\n      0x20\n        /* \"#utility.yul\":1976:1985   */\n      dup3\n        /* \"#utility.yul\":1967:1974   */\n      dup5\n        /* \"#utility.yul\":1963:1986   */\n      sub\n        /* \"#utility.yul\":1959:1991   */\n      slt\n        /* \"#utility.yul\":1956:1958   */\n      iszero\n      tag_273\n      jumpi\n        /* \"#utility.yul\":2004:2005   */\n      0x00\n        /* \"#utility.yul\":2001:2002   */\n      dup1\n        /* \"#utility.yul\":1994:2006   */\n      revert\n        /* \"#utility.yul\":1956:1958   */\n    tag_273:\n        /* \"#utility.yul\":2047:2048   */\n      0x00\n        /* \"#utility.yul\":2072:2125   */\n      tag_274\n        /* \"#utility.yul\":2117:2124   */\n      dup5\n        /* \"#utility.yul\":2108:2114   */\n      dup3\n        /* \"#utility.yul\":2097:2106   */\n      dup6\n        /* \"#utility.yul\":2093:2115   */\n      add\n        /* \"#utility.yul\":2072:2125   */\n      tag_259\n      jump\t// in\n    tag_274:\n        /* \"#utility.yul\":2062:2125   */\n      swap2\n      pop\n        /* \"#utility.yul\":2018:2135   */\n      pop\n        /* \"#utility.yul\":1946:2142   */\n      swap3\n      swap2\n      pop\n      pop\n      jump\t// out\n        /* \"#utility.yul\":2148:2266   */\n    tag_275:\n        /* \"#utility.yul\":2235:2259   */\n      tag_277\n        /* \"#utility.yul\":2253:2258   */\n      dup2\n        /* \"#utility.yul\":2235:2259   */\n      tag_278\n      jump\t// in\n    tag_277:\n        /* \"#utility.yul\":2230:2233   */\n      dup3\n        /* \"#utility.yul\":2223:2260   */\n      mstore\n        /* \"#utility.yul\":2213:2266   */\n      pop\n      pop\n      jump\t// out\n        /* \"#utility.yul\":2272:2381   */\n    tag_279:\n        /* \"#utility.yul\":2353:2374   */\n      tag_281\n        /* \"#utility.yul\":2368:2373   */\n      dup2\n        /* \"#utility.yul\":2353:2374   */\n      tag_282\n      jump\t// in\n    tag_281:\n        /* \"#utility.yul\":2348:2351   */\n      dup3\n        /* \"#utility.yul\":2341:2375   */\n      mstore\n        /* \"#utility.yul\":2331:2381   */\n      pop\n      pop\n      jump\t// out\n        /* \"#utility.yul\":2387:2532   */\n    tag_283:\n        /* \"#utility.yul\":2481:2525   */\n      tag_285\n        /* \"#utility.yul\":2519:2524   */\n      dup2\n        /* \"#utility.yul\":2481:2525   */\n      tag_286\n      jump\t// in\n    tag_285:\n        /* \"#utility.yul\":2476:2479   */\n      dup3\n        /* \"#utility.yul\":2469:2526   */\n      mstore\n        /* \"#utility.yul\":2459:2532   */\n      pop\n      pop\n      jump\t// out\n        /* \"#utility.yul\":2538:2902   */\n    tag_287:\n        /* \"#utility.yul\":2626:2629   */\n      0x00\n        /* \"#utility.yul\":2654:2693   */\n      tag_289\n        /* \"#utility.yul\":2687:2692   */\n      dup3\n        /* \"#utility.yul\":2654:2693   */\n      tag_290\n      jump\t// in\n    tag_289:\n        /* \"#utility.yul\":2709:2780   */\n      tag_291\n        /* \"#utility.yul\":2773:2779   */\n      dup2\n        /* \"#utility.yul\":2768:2771   */\n      dup6\n        /* \"#utility.yul\":2709:2780   */\n      tag_292\n      jump\t// in\n    tag_291:\n        /* \"#utility.yul\":2702:2780   */\n      swap4\n      pop\n        /* \"#utility.yul\":2789:2841   */\n      tag_293\n        /* \"#utility.yul\":2834:2840   */\n      dup2\n        /* \"#utility.yul\":2829:2832   */\n      dup6\n        /* \"#utility.yul\":2822:2826   */\n      0x20\n        /* \"#utility.yul\":2815:2820   */\n      dup7\n        /* \"#utility.yul\":2811:2827   */\n      add\n        /* \"#utility.yul\":2789:2841   */\n      tag_294\n      jump\t// in\n    tag_293:\n        /* \"#utility.yul\":2866:2895   */\n      tag_295\n        /* \"#utility.yul\":2888:2894   */\n      dup2\n        /* \"#utility.yul\":2866:2895   */\n      tag_296\n      jump\t// in\n    tag_295:\n        /* \"#utility.yul\":2861:2864   */\n      dup5\n        /* \"#utility.yul\":2857:2896   */\n      add\n        /* \"#utility.yul\":2850:2896   */\n      swap2\n      pop\n        /* \"#utility.yul\":2630:2902   */\n      pop\n      swap3\n      swap2\n      pop\n      pop\n      jump\t// out\n        /* \"#utility.yul\":2908:3026   */\n    tag_297:\n        /* \"#utility.yul\":2995:3019   */\n      tag_299\n        /* \"#utility.yul\":3013:3018   */\n      dup2\n        /* \"#utility.yul\":2995:3019   */\n      tag_300\n      jump\t// in\n    tag_299:\n        /* \"#utility.yul\":2990:2993   */\n      dup3\n        /* \"#utility.yul\":2983:3020   */\n      mstore\n        /* \"#utility.yul\":2973:3026   */\n      pop\n      pop\n      jump\t// out\n        /* \"#utility.yul\":3032:3254   */\n    tag_78:\n        /* \"#utility.yul\":3125:3129   */\n      0x00\n        /* \"#utility.yul\":3163:3165   */\n      0x20\n        /* \"#utility.yul\":3152:3161   */\n      dup3\n        /* \"#utility.yul\":3148:3166   */\n      add\n        /* \"#utility.yul\":3140:3166   */\n      swap1\n      pop\n        /* \"#utility.yul\":3176:3247   */\n      tag_302\n        /* \"#utility.yul\":3244:3245   */\n      0x00\n        /* \"#utility.yul\":3233:3242   */\n      dup4\n        /* \"#utility.yul\":3229:3246   */\n      add\n        /* \"#utility.yul\":3220:3226   */\n      dup5\n        /* \"#utility.yul\":3176:3247   */\n      tag_275\n      jump\t// in\n    tag_302:\n        /* \"#utility.yul\":3130:3254   */\n      swap3\n      swap2\n      pop\n      pop\n      jump\t// out\n        /* \"#utility.yul\":3260:3470   */\n    tag_50:\n        /* \"#utility.yul\":3347:3351   */\n      0x00\n        /* \"#utility.yul\":3385:3387   */\n      0x20\n        /* \"#utility.yul\":3374:3383   */\n      dup3\n        /* \"#utility.yul\":3370:3388   */\n      add\n        /* \"#utility.yul\":3362:3388   */\n      swap1\n      pop\n        /* \"#utility.yul\":3398:3463   */\n      tag_304\n        /* \"#utility.yul\":3460:3461   */\n      0x00\n        /* \"#utility.yul\":3449:3458   */\n      dup4\n        /* \"#utility.yul\":3445:3462   */\n      add\n        /* \"#utility.yul\":3436:3442   */\n      dup5\n        /* \"#utility.yul\":3398:3463   */\n      tag_279\n      jump\t// in\n    tag_304:\n        /* \"#utility.yul\":3352:3470   */\n      swap3\n      swap2\n      pop\n      pop\n      jump\t// out\n        /* \"#utility.yul\":3476:3712   */\n    tag_114:\n        /* \"#utility.yul\":3576:3580   */\n      0x00\n        /* \"#utility.yul\":3614:3616   */\n      0x20\n        /* \"#utility.yul\":3603:3612   */\n      dup3\n        /* \"#utility.yul\":3599:3617   */\n      add\n        /* \"#utility.yul\":3591:3617   */\n      swap1\n      pop\n        /* \"#utility.yul\":3627:3705   */\n      tag_306\n        /* \"#utility.yul\":3702:3703   */\n      0x00\n        /* \"#utility.yul\":3691:3700   */\n      dup4\n        /* \"#utility.yul\":3687:3704   */\n      add\n        /* \"#utility.yul\":3678:3684   */\n      dup5\n        /* \"#utility.yul\":3627:3705   */\n      tag_283\n      jump\t// in\n    tag_306:\n        /* \"#utility.yul\":3581:3712   */\n      swap3\n      swap2\n      pop\n      pop\n      jump\t// out\n        /* \"#utility.yul\":3718:4031   */\n    tag_59:\n        /* \"#utility.yul\":3831:3835   */\n      0x00\n        /* \"#utility.yul\":3869:3871   */\n      0x20\n        /* \"#utility.yul\":3858:3867   */\n      dup3\n        /* \"#utility.yul\":3854:3872   */\n      add\n        /* \"#utility.yul\":3846:3872   */\n      swap1\n      pop\n        /* \"#utility.yul\":3918:3927   */\n      dup2\n        /* \"#utility.yul\":3912:3916   */\n      dup2\n        /* \"#utility.yul\":3908:3928   */\n      sub\n        /* \"#utility.yul\":3904:3905   */\n      0x00\n        /* \"#utility.yul\":3893:3902   */\n      dup4\n        /* \"#utility.yul\":3889:3906   */\n      add\n        /* \"#utility.yul\":3882:3929   */\n      mstore\n        /* \"#utility.yul\":3946:4024   */\n      tag_308\n        /* \"#utility.yul\":4019:4023   */\n      dup2\n        /* \"#utility.yul\":4010:4016   */\n      dup5\n        /* \"#utility.yul\":3946:4024   */\n      tag_287\n      jump\t// in\n    tag_308:\n        /* \"#utility.yul\":3938:4024   */\n      swap1\n      pop\n        /* \"#utility.yul\":3836:4031   */\n      swap3\n      swap2\n      pop\n      pop\n      jump\t// out\n        /* \"#utility.yul\":4037:4780   */\n    tag_88:\n        /* \"#utility.yul\":4256:4260   */\n      0x00\n        /* \"#utility.yul\":4294:4297   */\n      0xa0\n        /* \"#utility.yul\":4283:4292   */\n      dup3\n        /* \"#utility.yul\":4279:4298   */\n      add\n        /* \"#utility.yul\":4271:4298   */\n      swap1\n      pop\n        /* \"#utility.yul\":4344:4353   */\n      dup2\n        /* \"#utility.yul\":4338:4342   */\n      dup2\n        /* \"#utility.yul\":4334:4354   */\n      sub\n        /* \"#utility.yul\":4330:4331   */\n      0x00\n        /* \"#utility.yul\":4319:4328   */\n      dup4\n        /* \"#utility.yul\":4315:4332   */\n      add\n        /* \"#utility.yul\":4308:4355   */\n      mstore\n        /* \"#utility.yul\":4372:4450   */\n      tag_310\n        /* \"#utility.yul\":4445:4449   */\n      dup2\n        /* \"#utility.yul\":4436:4442   */\n      dup9\n        /* \"#utility.yul\":4372:4450   */\n      tag_287\n      jump\t// in\n    tag_310:\n        /* \"#utility.yul\":4364:4450   */\n      swap1\n      pop\n        /* \"#utility.yul\":4460:4532   */\n      tag_311\n        /* \"#utility.yul\":4528:4530   */\n      0x20\n        /* \"#utility.yul\":4517:4526   */\n      dup4\n        /* \"#utility.yul\":4513:4531   */\n      add\n        /* \"#utility.yul\":4504:4510   */\n      dup8\n        /* \"#utility.yul\":4460:4532   */\n      tag_297\n      jump\t// in\n    tag_311:\n        /* \"#utility.yul\":4542:4614   */\n      tag_312\n        /* \"#utility.yul\":4610:4612   */\n      0x40\n        /* \"#utility.yul\":4599:4608   */\n      dup4\n        /* \"#utility.yul\":4595:4613   */\n      add\n        /* \"#utility.yul\":4586:4592   */\n      dup7\n        /* \"#utility.yul\":4542:4614   */\n      tag_275\n      jump\t// in\n    tag_312:\n        /* \"#utility.yul\":4624:4690   */\n      tag_313\n        /* \"#utility.yul\":4686:4688   */\n      0x60\n        /* \"#utility.yul\":4675:4684   */\n      dup4\n        /* \"#utility.yul\":4671:4689   */\n      add\n        /* \"#utility.yul\":4662:4668   */\n      dup6\n        /* \"#utility.yul\":4624:4690   */\n      tag_279\n      jump\t// in\n    tag_313:\n        /* \"#utility.yul\":4700:4773   */\n      tag_314\n        /* \"#utility.yul\":4768:4771   */\n      0x80\n        /* \"#utility.yul\":4757:4766   */\n      dup4\n        /* \"#utility.yul\":4753:4772   */\n      add\n        /* \"#utility.yul\":4744:4750   */\n      dup5\n        /* \"#utility.yul\":4700:4773   */\n      tag_297\n      jump\t// in\n    tag_314:\n        /* \"#utility.yul\":4261:4780   */\n      swap7\n      swap6\n      pop\n      pop\n      pop\n      pop\n      pop\n      pop\n      jump\t// out\n        /* \"#utility.yul\":4786:5008   */\n    tag_39:\n        /* \"#utility.yul\":4879:4883   */\n      0x00\n        /* \"#utility.yul\":4917:4919   */\n      0x20\n        /* \"#utility.yul\":4906:4915   */\n      dup3\n        /* \"#utility.yul\":4902:4920   */\n      add\n        /* \"#utility.yul\":4894:4920   */\n      swap1\n      pop\n        /* \"#utility.yul\":4930:5001   */\n      tag_316\n        /* \"#utility.yul\":4998:4999   */\n      0x00\n        /* \"#utility.yul\":4987:4996   */\n      dup4\n        /* \"#utility.yul\":4983:5000   */\n      add\n        /* \"#utility.yul\":4974:4980   */\n      dup5\n        /* \"#utility.yul\":4930:5001   */\n      tag_297\n      jump\t// in\n    tag_316:\n        /* \"#utility.yul\":4884:5008   */\n      swap3\n      swap2\n      pop\n      pop\n      jump\t// out\n        /* \"#utility.yul\":5014:6415   */\n    tag_68:\n        /* \"#utility.yul\":5399:5403   */\n      0x00\n        /* \"#utility.yul\":5437:5440   */\n      0x0140\n        /* \"#utility.yul\":5426:5435   */\n      dup3\n        /* \"#utility.yul\":5422:5441   */\n      add\n        /* \"#utility.yul\":5414:5441   */\n      swap1\n      pop\n        /* \"#utility.yul\":5451:5522   */\n      tag_318\n        /* \"#utility.yul\":5519:5520   */\n      0x00\n        /* \"#utility.yul\":5508:5517   */\n      dup4\n        /* \"#utility.yul\":5504:5521   */\n      add\n        /* \"#utility.yul\":5495:5501   */\n      dup14\n        /* \"#utility.yul\":5451:5522   */\n      tag_297\n      jump\t// in\n    tag_318:\n        /* \"#utility.yul\":5532:5604   */\n      tag_319\n        /* \"#utility.yul\":5600:5602   */\n      0x20\n        /* \"#utility.yul\":5589:5598   */\n      dup4\n        /* \"#utility.yul\":5585:5603   */\n      add\n        /* \"#utility.yul\":5576:5582   */\n      dup13\n        /* \"#utility.yul\":5532:5604   */\n      tag_297\n      jump\t// in\n    tag_319:\n        /* \"#utility.yul\":5614:5686   */\n      tag_320\n        /* \"#utility.yul\":5682:5684   */\n      0x40\n        /* \"#utility.yul\":5671:5680   */\n      dup4\n        /* \"#utility.yul\":5667:5685   */\n      add\n        /* \"#utility.yul\":5658:5664   */\n      dup12\n        /* \"#utility.yul\":5614:5686   */\n      tag_297\n      jump\t// in\n    tag_320:\n        /* \"#utility.yul\":5696:5768   */\n      tag_321\n        /* \"#utility.yul\":5764:5766   */\n      0x60\n        /* \"#utility.yul\":5753:5762   */\n      dup4\n        /* \"#utility.yul\":5749:5767   */\n      add\n        /* \"#utility.yul\":5740:5746   */\n      dup11\n        /* \"#utility.yul\":5696:5768   */\n      tag_297\n      jump\t// in\n    tag_321:\n        /* \"#utility.yul\":5778:5851   */\n      tag_322\n        /* \"#utility.yul\":5846:5849   */\n      0x80\n        /* \"#utility.yul\":5835:5844   */\n      dup4\n        /* \"#utility.yul\":5831:5850   */\n      add\n        /* \"#utility.yul\":5822:5828   */\n      dup10\n        /* \"#utility.yul\":5778:5851   */\n      tag_275\n      jump\t// in\n    tag_322:\n        /* \"#utility.yul\":5899:5908   */\n      dup2\n        /* \"#utility.yul\":5893:5897   */\n      dup2\n        /* \"#utility.yul\":5889:5909   */\n      sub\n        /* \"#utility.yul\":5883:5886   */\n      0xa0\n        /* \"#utility.yul\":5872:5881   */\n      dup4\n        /* \"#utility.yul\":5868:5887   */\n      add\n        /* \"#utility.yul\":5861:5910   */\n      mstore\n        /* \"#utility.yul\":5927:6005   */\n      tag_323\n        /* \"#utility.yul\":6000:6004   */\n      dup2\n        /* \"#utility.yul\":5991:5997   */\n      dup9\n        /* \"#utility.yul\":5927:6005   */\n      tag_287\n      jump\t// in\n    tag_323:\n        /* \"#utility.yul\":5919:6005   */\n      swap1\n      pop\n        /* \"#utility.yul\":6015:6088   */\n      tag_324\n        /* \"#utility.yul\":6083:6086   */\n      0xc0\n        /* \"#utility.yul\":6072:6081   */\n      dup4\n        /* \"#utility.yul\":6068:6087   */\n      add\n        /* \"#utility.yul\":6059:6065   */\n      dup8\n        /* \"#utility.yul\":6015:6088   */\n      tag_297\n      jump\t// in\n    tag_324:\n        /* \"#utility.yul\":6136:6145   */\n      dup2\n        /* \"#utility.yul\":6130:6134   */\n      dup2\n        /* \"#utility.yul\":6126:6146   */\n      sub\n        /* \"#utility.yul\":6120:6123   */\n      0xe0\n        /* \"#utility.yul\":6109:6118   */\n      dup4\n        /* \"#utility.yul\":6105:6124   */\n      add\n        /* \"#utility.yul\":6098:6147   */\n      mstore\n        /* \"#utility.yul\":6164:6242   */\n      tag_325\n        /* \"#utility.yul\":6237:6241   */\n      dup2\n        /* \"#utility.yul\":6228:6234   */\n      dup7\n        /* \"#utility.yul\":6164:6242   */\n      tag_287\n      jump\t// in\n    tag_325:\n        /* \"#utility.yul\":6156:6242   */\n      swap1\n      pop\n        /* \"#utility.yul\":6252:6325   */\n      tag_326\n        /* \"#utility.yul\":6320:6323   */\n      0x0100\n        /* \"#utility.yul\":6309:6318   */\n      dup4\n        /* \"#utility.yul\":6305:6324   */\n      add\n        /* \"#utility.yul\":6296:6302   */\n      dup6\n        /* \"#utility.yul\":6252:6325   */\n      tag_297\n      jump\t// in\n    tag_326:\n        /* \"#utility.yul\":6335:6408   */\n      tag_327\n        /* \"#utility.yul\":6403:6406   */\n      0x0120\n        /* \"#utility.yul\":6392:6401   */\n      dup4\n        /* \"#utility.yul\":6388:6407   */\n      add\n        /* \"#utility.yul\":6379:6385   */\n      dup5\n        /* \"#utility.yul\":6335:6408   */\n      tag_297\n      jump\t// in\n    tag_327:\n        /* \"#utility.yul\":5404:6415   */\n      swap12\n      swap11\n      pop\n      pop\n      pop\n      pop\n      pop\n      pop\n      pop\n      pop\n      pop\n      pop\n      pop\n      jump\t// out\n        /* \"#utility.yul\":6421:6550   */\n    tag_247:\n        /* \"#utility.yul\":6455:6461   */\n      0x00\n        /* \"#utility.yul\":6482:6502   */\n      tag_329\n      tag_330\n      jump\t// in\n    tag_329:\n        /* \"#utility.yul\":6472:6502   */\n      swap1\n      pop\n        /* \"#utility.yul\":6511:6544   */\n      tag_331\n        /* \"#utility.yul\":6539:6543   */\n      dup3\n        /* \"#utility.yul\":6531:6537   */\n      dup3\n        /* \"#utility.yul\":6511:6544   */\n      tag_332\n      jump\t// in\n    tag_331:\n        /* \"#utility.yul\":6462:6550   */\n      swap2\n      swap1\n      pop\n      jump\t// out\n        /* \"#utility.yul\":6556:6631   */\n    tag_330:\n        /* \"#utility.yul\":6589:6595   */\n      0x00\n        /* \"#utility.yul\":6622:6624   */\n      0x40\n        /* \"#utility.yul\":6616:6625   */\n      mload\n        /* \"#utility.yul\":6606:6625   */\n      swap1\n      pop\n        /* \"#utility.yul\":6596:6631   */\n      swap1\n      jump\t// out\n        /* \"#utility.yul\":6637:6945   */\n    tag_246:\n        /* \"#utility.yul\":6699:6703   */\n      0x00\n        /* \"#utility.yul\":6789:6807   */\n      0xffffffffffffffff\n        /* \"#utility.yul\":6781:6787   */\n      dup3\n        /* \"#utility.yul\":6778:6808   */\n      gt\n        /* \"#utility.yul\":6775:6777   */\n      iszero\n      tag_335\n      jumpi\n        /* \"#utility.yul\":6811:6829   */\n      tag_336\n      tag_337\n      jump\t// in\n    tag_336:\n        /* \"#utility.yul\":6775:6777   */\n    tag_335:\n        /* \"#utility.yul\":6849:6878   */\n      tag_338\n        /* \"#utility.yul\":6871:6877   */\n      dup3\n        /* \"#utility.yul\":6849:6878   */\n      tag_296\n      jump\t// in\n    tag_338:\n        /* \"#utility.yul\":6841:6878   */\n      swap1\n      pop\n        /* \"#utility.yul\":6933:6937   */\n      0x20\n        /* \"#utility.yul\":6927:6931   */\n      dup2\n        /* \"#utility.yul\":6923:6938   */\n      add\n        /* \"#utility.yul\":6915:6938   */\n      swap1\n      pop\n        /* \"#utility.yul\":6704:6945   */\n      swap2\n      swap1\n      pop\n      jump\t// out\n        /* \"#utility.yul\":6951:7050   */\n    tag_290:\n        /* \"#utility.yul\":7003:7009   */\n      0x00\n        /* \"#utility.yul\":7037:7042   */\n      dup2\n        /* \"#utility.yul\":7031:7043   */\n      mload\n        /* \"#utility.yul\":7021:7043   */\n      swap1\n      pop\n        /* \"#utility.yul\":7010:7050   */\n      swap2\n      swap1\n      pop\n      jump\t// out\n        /* \"#utility.yul\":7056:7225   */\n    tag_292:\n        /* \"#utility.yul\":7140:7151   */\n      0x00\n        /* \"#utility.yul\":7174:7180   */\n      dup3\n        /* \"#utility.yul\":7169:7172   */\n      dup3\n        /* \"#utility.yul\":7162:7181   */\n      mstore\n        /* \"#utility.yul\":7214:7218   */\n      0x20\n        /* \"#utility.yul\":7209:7212   */\n      dup3\n        /* \"#utility.yul\":7205:7219   */\n      add\n        /* \"#utility.yul\":7190:7219   */\n      swap1\n      pop\n        /* \"#utility.yul\":7152:7225   */\n      swap3\n      swap2\n      pop\n      pop\n      jump\t// out\n        /* \"#utility.yul\":7231:7536   */\n    tag_197:\n        /* \"#utility.yul\":7271:7274   */\n      0x00\n        /* \"#utility.yul\":7290:7310   */\n      tag_342\n        /* \"#utility.yul\":7308:7309   */\n      dup3\n        /* \"#utility.yul\":7290:7310   */\n      tag_300\n      jump\t// in\n    tag_342:\n        /* \"#utility.yul\":7285:7310   */\n      swap2\n      pop\n        /* \"#utility.yul\":7324:7344   */\n      tag_343\n        /* \"#utility.yul\":7342:7343   */\n      dup4\n        /* \"#utility.yul\":7324:7344   */\n      tag_300\n      jump\t// in\n    tag_343:\n        /* \"#utility.yul\":7319:7344   */\n      swap3\n      pop\n        /* \"#utility.yul\":7478:7479   */\n      dup3\n        /* \"#utility.yul\":7410:7476   */\n      0xffffffffffffffffffffffffffffffffffffffffffffffffffffffffffffffff\n        /* \"#utility.yul\":7406:7480   */\n      sub\n        /* \"#utility.yul\":7403:7404   */\n      dup3\n        /* \"#utility.yul\":7400:7481   */\n      gt\n        /* \"#utility.yul\":7397:7399   */\n      iszero\n      tag_344\n      jumpi\n        /* \"#utility.yul\":7484:7502   */\n      tag_345\n      tag_346\n      jump\t// in\n    tag_345:\n        /* \"#utility.yul\":7397:7399   */\n    tag_344:\n        /* \"#utility.yul\":7528:7529   */\n      dup3\n        /* \"#utility.yul\":7525:7526   */\n      dup3\n        /* \"#utility.yul\":7521:7530   */\n      add\n        /* \"#utility.yul\":7514:7530   */\n      swap1\n      pop\n        /* \"#utility.yul\":7275:7536   */\n      swap3\n      swap2\n      pop\n      pop\n      jump\t// out\n        /* \"#utility.yul\":7542:7727   */\n    tag_142:\n        /* \"#utility.yul\":7582:7583   */\n      0x00\n        /* \"#utility.yul\":7599:7619   */\n      tag_348\n        /* \"#utility.yul\":7617:7618   */\n      dup3\n        /* \"#utility.yul\":7599:7619   */\n      tag_300\n      jump\t// in\n    tag_348:\n        /* \"#utility.yul\":7594:7619   */\n      swap2\n      pop\n        /* \"#utility.yul\":7633:7653   */\n      tag_349\n        /* \"#utility.yul\":7651:7652   */\n      dup4\n        /* \"#utility.yul\":7633:7653   */\n      tag_300\n      jump\t// in\n    tag_349:\n        /* \"#utility.yul\":7628:7653   */\n      swap3\n      pop\n        /* \"#utility.yul\":7672:7673   */\n      dup3\n        /* \"#utility.yul\":7662:7664   */\n      tag_350\n      jumpi\n        /* \"#utility.yul\":7677:7695   */\n      tag_351\n      tag_352\n      jump\t// in\n    tag_351:\n        /* \"#utility.yul\":7662:7664   */\n    tag_350:\n        /* \"#utility.yul\":7719:7720   */\n      dup3\n        /* \"#utility.yul\":7716:7717   */\n      dup3\n        /* \"#utility.yul\":7712:7721   */\n      div\n        /* \"#utility.yul\":7707:7721   */\n      swap1\n      pop\n        /* \"#utility.yul\":7584:7727   */\n      swap3\n      swap2\n      pop\n      pop\n      jump\t// out\n        /* \"#utility.yul\":7733:8081   */\n    tag_127:\n        /* \"#utility.yul\":7773:7780   */\n      0x00\n        /* \"#utility.yul\":7796:7816   */\n      tag_354\n        /* \"#utility.yul\":7814:7815   */\n      dup3\n        /* \"#utility.yul\":7796:7816   */\n      tag_300\n      jump\t// in\n    tag_354:\n        /* \"#utility.yul\":7791:7816   */\n      swap2\n      pop\n        /* \"#utility.yul\":7830:7850   */\n      tag_355\n        /* \"#utility.yul\":7848:7849   */\n      dup4\n        /* \"#utility.yul\":7830:7850   */\n      tag_300\n      jump\t// in\n    tag_355:\n        /* \"#utility.yul\":7825:7850   */\n      swap3\n      pop\n        /* \"#utility.yul\":8018:8019   */\n      dup2\n        /* \"#utility.yul\":7950:8016   */\n      0xffffffffffffffffffffffffffffffffffffffffffffffffffffffffffffffff\n        /* \"#utility.yul\":7946:8020   */\n      div\n        /* \"#utility.yul\":7943:7944   */\n      dup4\n        /* \"#utility.yul\":7940:8021   */\n      gt\n        /* \"#utility.yul\":7935:7936   */\n      dup3\n        /* \"#utility.yul\":7928:7937   */\n      iszero\n        /* \"#utility.yul\":7921:7938   */\n      iszero\n        /* \"#utility.yul\":7917:8022   */\n      and\n        /* \"#utility.yul\":7914:7916   */\n      iszero\n      tag_356\n      jumpi\n        /* \"#utility.yul\":8025:8043   */\n      tag_357\n      tag_346\n      jump\t// in\n    tag_357:\n        /* \"#utility.yul\":7914:7916   */\n    tag_356:\n        /* \"#utility.yul\":8073:8074   */\n      dup3\n        /* \"#utility.yul\":8070:8071   */\n      dup3\n        /* \"#utility.yul\":8066:8075   */\n      mul\n        /* \"#utility.yul\":8055:8075   */\n      swap1\n      pop\n        /* \"#utility.yul\":7781:8081   */\n      swap3\n      swap2\n      pop\n      pop\n      jump\t// out\n        /* \"#utility.yul\":8087:8278   */\n    tag_202:\n        /* \"#utility.yul\":8127:8131   */\n      0x00\n        /* \"#utility.yul\":8147:8167   */\n      tag_359\n        /* \"#utility.yul\":8165:8166   */\n      dup3\n        /* \"#utility.yul\":8147:8167   */\n      tag_300\n      jump\t// in\n    tag_359:\n        /* \"#utility.yul\":8142:8167   */\n      swap2\n      pop\n        /* \"#utility.yul\":8181:8201   */\n      tag_360\n        /* \"#utility.yul\":8199:8200   */\n      dup4\n        /* \"#utility.yul\":8181:8201   */\n      tag_300\n      jump\t// in\n    tag_360:\n        /* \"#utility.yul\":8176:8201   */\n      swap3\n      pop\n        /* \"#utility.yul\":8220:8221   */\n      dup3\n        /* \"#utility.yul\":8217:8218   */\n      dup3\n        /* \"#utility.yul\":8214:8222   */\n      lt\n        /* \"#utility.yul\":8211:8213   */\n      iszero\n      tag_361\n      jumpi\n        /* \"#utility.yul\":8225:8243   */\n      tag_362\n      tag_346\n      jump\t// in\n    tag_362:\n        /* \"#utility.yul\":8211:8213   */\n    tag_361:\n        /* \"#utility.yul\":8270:8271   */\n      dup3\n        /* \"#utility.yul\":8267:8268   */\n      dup3\n        /* \"#utility.yul\":8263:8272   */\n      sub\n        /* \"#utility.yul\":8255:8272   */\n      swap1\n      pop\n        /* \"#utility.yul\":8132:8278   */\n      swap3\n      swap2\n      pop\n      pop\n      jump\t// out\n        /* \"#utility.yul\":8284:8380   */\n    tag_278:\n        /* \"#utility.yul\":8321:8328   */\n      0x00\n        /* \"#utility.yul\":8350:8374   */\n      tag_364\n        /* \"#utility.yul\":8368:8373   */\n      dup3\n        /* \"#utility.yul\":8350:8374   */\n      tag_365\n      jump\t// in\n    tag_364:\n        /* \"#utility.yul\":8339:8374   */\n      swap1\n      pop\n        /* \"#utility.yul\":8329:8380   */\n      swap2\n      swap1\n      pop\n      jump\t// out\n        /* \"#utility.yul\":8386:8476   */\n    tag_282:\n        /* \"#utility.yul\":8420:8427   */\n      0x00\n        /* \"#utility.yul\":8463:8468   */\n      dup2\n        /* \"#utility.yul\":8456:8469   */\n      iszero\n        /* \"#utility.yul\":8449:8470   */\n      iszero\n        /* \"#utility.yul\":8438:8470   */\n      swap1\n      pop\n        /* \"#utility.yul\":8428:8476   */\n      swap2\n      swap1\n      pop\n      jump\t// out\n        /* \"#utility.yul\":8482:8611   */\n    tag_367:\n        /* \"#utility.yul\":8528:8535   */\n      0x00\n        /* \"#utility.yul\":8557:8562   */\n      dup2\n        /* \"#utility.yul\":8546:8562   */\n      swap1\n      pop\n        /* \"#utility.yul\":8563:8605   */\n      tag_369\n        /* \"#utility.yul\":8599:8604   */\n      dup3\n        /* \"#utility.yul\":8563:8605   */\n      tag_370\n      jump\t// in\n    tag_369:\n        /* \"#utility.yul\":8536:8611   */\n      swap2\n      swap1\n      pop\n      jump\t// out\n        /* \"#utility.yul\":8617:8743   */\n    tag_365:\n        /* \"#utility.yul\":8654:8661   */\n      0x00\n        /* \"#utility.yul\":8694:8736   */\n      0xffffffffffffffffffffffffffffffffffffffff\n        /* \"#utility.yul\":8687:8692   */\n      dup3\n        /* \"#utility.yul\":8683:8737   */\n      and\n        /* \"#utility.yul\":8672:8737   */\n      swap1\n      pop\n        /* \"#utility.yul\":8662:8743   */\n      swap2\n      swap1\n      pop\n      jump\t// out\n        /* \"#utility.yul\":8749:8826   */\n    tag_300:\n        /* \"#utility.yul\":8786:8793   */\n      0x00\n        /* \"#utility.yul\":8815:8820   */\n      dup2\n        /* \"#utility.yul\":8804:8820   */\n      swap1\n      pop\n        /* \"#utility.yul\":8794:8826   */\n      swap2\n      swap1\n      pop\n      jump\t// out\n        /* \"#utility.yul\":8832:8961   */\n    tag_286:\n        /* \"#utility.yul\":8889:8898   */\n      0x00\n        /* \"#utility.yul\":8922:8955   */\n      tag_374\n        /* \"#utility.yul\":8949:8954   */\n      dup3\n        /* \"#utility.yul\":8922:8955   */\n      tag_367\n      jump\t// in\n    tag_374:\n        /* \"#utility.yul\":8909:8955   */\n      swap1\n      pop\n        /* \"#utility.yul\":8899:8961   */\n      swap2\n      swap1\n      pop\n      jump\t// out\n        /* \"#utility.yul\":8967:9121   */\n    tag_250:\n        /* \"#utility.yul\":9051:9057   */\n      dup3\n        /* \"#utility.yul\":9046:9049   */\n      dup2\n        /* \"#utility.yul\":9041:9044   */\n      dup4\n        /* \"#utility.yul\":9028:9058   */\n      calldatacopy\n        /* \"#utility.yul\":9113:9114   */\n      0x00\n        /* \"#utility.yul\":9104:9110   */\n      dup4\n        /* \"#utility.yul\":9099:9102   */\n      dup4\n        /* \"#utility.yul\":9095:9111   */\n      add\n        /* \"#utility.yul\":9088:9115   */\n      mstore\n        /* \"#utility.yul\":9018:9121   */\n      pop\n      pop\n      pop\n      jump\t// out\n        /* \"#utility.yul\":9127:9434   */\n    tag_294:\n        /* \"#utility.yul\":9195:9196   */\n      0x00\n        /* \"#utility.yul\":9205:9318   */\n    tag_377:\n        /* \"#utility.yul\":9219:9225   */\n      dup4\n        /* \"#utility.yul\":9216:9217   */\n      dup2\n        /* \"#utility.yul\":9213:9226   */\n      lt\n        /* \"#utility.yul\":9205:9318   */\n      iszero\n      tag_379\n      jumpi\n        /* \"#utility.yul\":9304:9305   */\n      dup1\n        /* \"#utility.yul\":9299:9302   */\n      dup3\n        /* \"#utility.yul\":9295:9306   */\n      add\n        /* \"#utility.yul\":9289:9307   */\n      mload\n        /* \"#utility.yul\":9285:9286   */\n      dup2\n        /* \"#utility.yul\":9280:9283   */\n      dup5\n        /* \"#utility.yul\":9276:9287   */\n      add\n        /* \"#utility.yul\":9269:9308   */\n      mstore\n        /* \"#utility.yul\":9241:9243   */\n      0x20\n        /* \"#utility.yul\":9238:9239   */\n      dup2\n        /* \"#utility.yul\":9234:9244   */\n      add\n        /* \"#utility.yul\":9229:9244   */\n      swap1\n      pop\n        /* \"#utility.yul\":9205:9318   */\n      jump(tag_377)\n    tag_379:\n        /* \"#utility.yul\":9336:9342   */\n      dup4\n        /* \"#utility.yul\":9333:9334   */\n      dup2\n        /* \"#utility.yul\":9330:9343   */\n      gt\n        /* \"#utility.yul\":9327:9329   */\n      iszero\n      tag_380\n      jumpi\n        /* \"#utility.yul\":9416:9417   */\n      0x00\n        /* \"#utility.yul\":9407:9413   */\n      dup5\n        /* \"#utility.yul\":9402:9405   */\n      dup5\n        /* \"#utility.yul\":9398:9414   */\n      add\n        /* \"#utility.yul\":9391:9418   */\n      mstore\n        /* \"#utility.yul\":9327:9329   */\n    tag_380:\n        /* \"#utility.yul\":9176:9434   */\n      pop\n      pop\n      pop\n      pop\n      jump\t// out\n        /* \"#utility.yul\":9440:9611   */\n    tag_208:\n        /* \"#utility.yul\":9479:9482   */\n      0x00\n        /* \"#utility.yul\":9502:9526   */\n      tag_382\n        /* \"#utility.yul\":9520:9525   */\n      dup3\n        /* \"#utility.yul\":9502:9526   */\n      tag_300\n      jump\t// in\n    tag_382:\n        /* \"#utility.yul\":9493:9526   */\n      swap2\n      pop\n        /* \"#utility.yul\":9548:9552   */\n      0x00\n        /* \"#utility.yul\":9541:9546   */\n      dup3\n        /* \"#utility.yul\":9538:9553   */\n      eq\n        /* \"#utility.yul\":9535:9537   */\n      iszero\n      tag_383\n      jumpi\n        /* \"#utility.yul\":9556:9574   */\n      tag_384\n      tag_346\n      jump\t// in\n    tag_384:\n        /* \"#utility.yul\":9535:9537   */\n    tag_383:\n        /* \"#utility.yul\":9603:9604   */\n      0x01\n        /* \"#utility.yul\":9596:9601   */\n      dup3\n        /* \"#utility.yul\":9592:9605   */\n      sub\n        /* \"#utility.yul\":9585:9605   */\n      swap1\n      pop\n        /* \"#utility.yul\":9483:9611   */\n      swap2\n      swap1\n      pop\n      jump\t// out\n        /* \"#utility.yul\":9617:9937   */\n    tag_148:\n        /* \"#utility.yul\":9661:9667   */\n      0x00\n        /* \"#utility.yul\":9698:9699   */\n      0x02\n        /* \"#utility.yul\":9692:9696   */\n      dup3\n        /* \"#utility.yul\":9688:9700   */\n      div\n        /* \"#utility.yul\":9678:9700   */\n      swap1\n      pop\n        /* \"#utility.yul\":9745:9746   */\n      0x01\n        /* \"#utility.yul\":9739:9743   */\n      dup3\n        /* \"#utility.yul\":9735:9747   */\n      and\n        /* \"#utility.yul\":9766:9784   */\n      dup1\n        /* \"#utility.yul\":9756:9758   */\n      tag_386\n      jumpi\n        /* \"#utility.yul\":9822:9826   */\n      0x7f\n        /* \"#utility.yul\":9814:9820   */\n      dup3\n        /* \"#utility.yul\":9810:9827   */\n      and\n        /* \"#utility.yul\":9800:9827   */\n      swap2\n      pop\n        /* \"#utility.yul\":9756:9758   */\n    tag_386:\n        /* \"#utility.yul\":9884:9886   */\n      0x20\n        /* \"#utility.yul\":9876:9882   */\n      dup3\n        /* \"#utility.yul\":9873:9887   */\n      lt\n        /* \"#utility.yul\":9853:9871   */\n      dup2\n        /* \"#utility.yul\":9850:9888   */\n      eq\n        /* \"#utility.yul\":9847:9849   */\n      iszero\n      tag_387\n      jumpi\n        /* \"#utility.yul\":9903:9921   */\n      tag_388\n      tag_389\n      jump\t// in\n    tag_388:\n        /* \"#utility.yul\":9847:9849   */\n    tag_387:\n        /* \"#utility.yul\":9668:9937   */\n      pop\n      swap2\n      swap1\n      pop\n      jump\t// out\n        /* \"#utility.yul\":9943:10224   */\n    tag_332:\n        /* \"#utility.yul\":10026:10053   */\n      tag_391\n        /* \"#utility.yul\":10048:10052   */\n      dup3\n        /* \"#utility.yul\":10026:10053   */\n      tag_296\n      jump\t// in\n    tag_391:\n        /* \"#utility.yul\":10018:10024   */\n      dup2\n        /* \"#utility.yul\":10014:10054   */\n      add\n        /* \"#utility.yul\":10156:10162   */\n      dup2\n        /* \"#utility.yul\":10144:10154   */\n      dup2\n        /* \"#utility.yul\":10141:10163   */\n      lt\n        /* \"#utility.yul\":10120:10138   */\n      0xffffffffffffffff\n        /* \"#utility.yul\":10108:10118   */\n      dup3\n        /* \"#utility.yul\":10105:10139   */\n      gt\n        /* \"#utility.yul\":10102:10164   */\n      or\n        /* \"#utility.yul\":10099:10101   */\n      iszero\n      tag_392\n      jumpi\n        /* \"#utility.yul\":10167:10185   */\n      tag_393\n      tag_337\n      jump\t// in\n    tag_393:\n        /* \"#utility.yul\":10099:10101   */\n    tag_392:\n        /* \"#utility.yul\":10207:10217   */\n      dup1\n        /* \"#utility.yul\":10203:10205   */\n      0x40\n        /* \"#utility.yul\":10196:10218   */\n      mstore\n        /* \"#utility.yul\":9986:10224   */\n      pop\n      pop\n      pop\n      jump\t// out\n        /* \"#utility.yul\":10230:10463   */\n    tag_180:\n        /* \"#utility.yul\":10269:10272   */\n      0x00\n        /* \"#utility.yul\":10292:10316   */\n      tag_395\n        /* \"#utility.yul\":10310:10315   */\n      dup3\n        /* \"#utility.yul\":10292:10316   */\n      tag_300\n      jump\t// in\n    tag_395:\n        /* \"#utility.yul\":10283:10316   */\n      swap2\n      pop\n        /* \"#utility.yul\":10338:10404   */\n      0xffffffffffffffffffffffffffffffffffffffffffffffffffffffffffffffff\n        /* \"#utility.yul\":10331:10336   */\n      dup3\n        /* \"#utility.yul\":10328:10405   */\n      eq\n        /* \"#utility.yul\":10325:10327   */\n      iszero\n      tag_396\n      jumpi\n        /* \"#utility.yul\":10408:10426   */\n      tag_397\n      tag_346\n      jump\t// in\n    tag_397:\n        /* \"#utility.yul\":10325:10327   */\n    tag_396:\n        /* \"#utility.yul\":10455:10456   */\n      0x01\n        /* \"#utility.yul\":10448:10453   */\n      dup3\n        /* \"#utility.yul\":10444:10457   */\n      add\n        /* \"#utility.yul\":10437:10457   */\n      swap1\n      pop\n        /* \"#utility.yul\":10273:10463   */\n      swap2\n      swap1\n      pop\n      jump\t// out\n        /* \"#utility.yul\":10469:10649   */\n    tag_346:\n        /* \"#utility.yul\":10517:10594   */\n      0x4e487b7100000000000000000000000000000000000000000000000000000000\n        /* \"#utility.yul\":10514:10515   */\n      0x00\n        /* \"#utility.yul\":10507:10595   */\n      mstore\n        /* \"#utility.yul\":10614:10618   */\n      0x11\n        /* \"#utility.yul\":10611:10612   */\n      0x04\n        /* \"#utility.yul\":10604:10619   */\n      mstore\n        /* \"#utility.yul\":10638:10642   */\n      0x24\n        /* \"#utility.yul\":10635:10636   */\n      0x00\n        /* \"#utility.yul\":10628:10643   */\n      revert\n        /* \"#utility.yul\":10655:10835   */\n    tag_352:\n        /* \"#utility.yul\":10703:10780   */\n      0x4e487b7100000000000000000000000000000000000000000000000000000000\n        /* \"#utility.yul\":10700:10701   */\n      0x00\n        /* \"#utility.yul\":10693:10781   */\n      mstore\n        /* \"#utility.yul\":10800:10804   */\n      0x12\n        /* \"#utility.yul\":10797:10798   */\n      0x04\n        /* \"#utility.yul\":10790:10805   */\n      mstore\n        /* \"#utility.yul\":10824:10828   */\n      0x24\n        /* \"#utility.yul\":10821:10822   */\n      0x00\n        /* \"#utility.yul\":10814:10829   */\n      revert\n        /* \"#utility.yul\":10841:11021   */\n    tag_400:\n        /* \"#utility.yul\":10889:10966   */\n      0x4e487b7100000000000000000000000000000000000000000000000000000000\n        /* \"#utility.yul\":10886:10887   */\n      0x00\n        /* \"#utility.yul\":10879:10967   */\n      mstore\n        /* \"#utility.yul\":10986:10990   */\n      0x21\n        /* \"#utility.yul\":10983:10984   */\n      0x04\n        /* \"#utility.yul\":10976:10991   */\n      mstore\n        /* \"#utility.yul\":11010:11014   */\n      0x24\n        /* \"#utility.yul\":11007:11008   */\n      0x00\n        /* \"#utility.yul\":11000:11015   */\n      revert\n        /* \"#utility.yul\":11027:11207   */\n    tag_389:\n        /* \"#utility.yul\":11075:11152   */\n      0x4e487b7100000000000000000000000000000000000000000000000000000000\n        /* \"#utility.yul\":11072:11073   */\n      0x00\n        /* \"#utility.yul\":11065:11153   */\n      mstore\n        /* \"#utility.yul\":11172:11176   */\n      0x22\n        /* \"#utility.yul\":11169:11170   */\n      0x04\n        /* \"#utility.yul\":11162:11177   */\n      mstore\n        /* \"#utility.yul\":11196:11200   */\n      0x24\n        /* \"#utility.yul\":11193:11194   */\n      0x00\n        /* \"#utility.yul\":11186:11201   */\n      revert\n        /* \"#utility.yul\":11213:11393   */\n    tag_337:\n        /* \"#utility.yul\":11261:11338   */\n      0x4e487b7100000000000000000000000000000000000000000000000000000000\n        /* \"#utility.yul\":11258:11259   */\n      0x00\n        /* \"#utility.yul\":11251:11339   */\n      mstore\n        /* \"#utility.yul\":11358:11362   */\n      0x41\n        /* \"#utility.yul\":11355:11356   */\n      0x04\n        /* \"#utility.yul\":11348:11363   */\n      mstore\n        /* \"#utility.yul\":11382:11386   */\n      0x24\n        /* \"#utility.yul\":11379:11380   */\n      0x00\n        /* \"#utility.yul\":11372:11387   */\n      revert\n        /* \"#utility.yul\":11399:11501   */\n    tag_296:\n        /* \"#utility.yul\":11440:11446   */\n      0x00\n        /* \"#utility.yul\":11491:11493   */\n      0x1f\n        /* \"#utility.yul\":11487:11494   */\n      not\n        /* \"#utility.yul\":11482:11484   */\n      0x1f\n        /* \"#utility.yul\":11475:11480   */\n      dup4\n        /* \"#utility.yul\":11471:11485   */\n      add\n        /* \"#utility.yul\":11467:11495   */\n      and\n        /* \"#utility.yul\":11457:11495   */\n      swap1\n      pop\n        /* \"#utility.yul\":11447:11501   */\n      swap2\n      swap1\n      pop\n      jump\t// out\n        /* \"#utility.yul\":11507:11621   */\n    tag_370:\n        /* \"#utility.yul\":11589:11590   */\n      0x03\n        /* \"#utility.yul\":11582:11587   */\n      dup2\n        /* \"#utility.yul\":11579:11591   */\n      lt\n        /* \"#utility.yul\":11569:11571   */\n      tag_406\n      jumpi\n        /* \"#utility.yul\":11595:11613   */\n      tag_407\n      tag_400\n      jump\t// in\n    tag_407:\n        /* \"#utility.yul\":11569:11571   */\n    tag_406:\n        /* \"#utility.yul\":11559:11621   */\n      pop\n      jump\t// out\n        /* \"#utility.yul\":11627:11749   */\n    tag_254:\n        /* \"#utility.yul\":11700:11724   */\n      tag_409\n        /* \"#utility.yul\":11718:11723   */\n      dup2\n        /* \"#utility.yul\":11700:11724   */\n      tag_278\n      jump\t// in\n    tag_409:\n        /* \"#utility.yul\":11693:11698   */\n      dup2\n        /* \"#utility.yul\":11690:11725   */\n      eq\n        /* \"#utility.yul\":11680:11682   */\n      tag_410\n      jumpi\n        /* \"#utility.yul\":11739:11740   */\n      0x00\n        /* \"#utility.yul\":11736:11737   */\n      dup1\n        /* \"#utility.yul\":11729:11741   */\n      revert\n        /* \"#utility.yul\":11680:11682   */\n    tag_410:\n        /* \"#utility.yul\":11670:11749   */\n      pop\n      jump\t// out\n        /* \"#utility.yul\":11755:11877   */\n    tag_262:\n        /* \"#utility.yul\":11828:11852   */\n      tag_412\n        /* \"#utility.yul\":11846:11851   */\n      dup2\n        /* \"#utility.yul\":11828:11852   */\n      tag_300\n      jump\t// in\n    tag_412:\n        /* \"#utility.yul\":11821:11826   */\n      dup2\n        /* \"#utility.yul\":11818:11853   */\n      eq\n        /* \"#utility.yul\":11808:11810   */\n      tag_413\n      jumpi\n        /* \"#utility.yul\":11867:11868   */\n      0x00\n        /* \"#utility.yul\":11864:11865   */\n      dup1\n        /* \"#utility.yul\":11857:11869   */\n      revert\n        /* \"#utility.yul\":11808:11810   */\n    tag_413:\n        /* \"#utility.yul\":11798:11877   */\n      pop\n      jump\t// out\n\n    auxdata: 0xa26469706673582212206da501c10d1597a5c39a441d69dcf5890b567faa7c3db73330f81417c552366c64736f6c63430008040033\n}\n","bytecode":{"linkReferences":{},"object":"60806040526000600660006101000a81548160ff0219169083600281111562000051577f4e487b7100000000000000000000000000000000000000000000000000000000600052602160045260246000fd5b02179055503480156200006357600080fd5b506040516200224f3803806200224f83398181016040528101906200008991906200027c565b846000806101000a81548173ffffffffffffffffffffffffffffffffffffffff021916908373ffffffffffffffffffffffffffffffffffffffff160217905550856009819055508360019080519060200190620000e89291906200012c565b50826002819055508160039080519060200190620001089291906200012c565b50600060048190555080600781905550600060088190555050505050505062000526565b8280546200013a9062000417565b90600052602060002090601f0160209004810192826200015e5760008555620001aa565b82601f106200017957805160ff1916838001178555620001aa565b82800160010185558215620001aa579182015b82811115620001a95782518255916020019190600101906200018c565b5b509050620001b99190620001bd565b5090565b5b80821115620001d8576000816000905550600101620001be565b5090565b6000620001f3620001ed846200036d565b62000344565b9050828152602081018484840111156200020c57600080fd5b62000219848285620003e1565b509392505050565b6000815190506200023281620004f2565b92915050565b600082601f8301126200024a57600080fd5b81516200025c848260208601620001dc565b91505092915050565b60008151905062000276816200050c565b92915050565b60008060008060008060c087890312156200029657600080fd5b6000620002a689828a0162000265565b9650506020620002b989828a0162000221565b955050604087015167ffffffffffffffff811115620002d757600080fd5b620002e589828a0162000238565b9450506060620002f889828a0162000265565b935050608087015167ffffffffffffffff8111156200031657600080fd5b6200032489828a0162000238565b92505060a06200033789828a0162000265565b9150509295509295509295565b60006200035062000363565b90506200035e82826200044d565b919050565b6000604051905090565b600067ffffffffffffffff8211156200038b576200038a620004b2565b5b6200039682620004e1565b9050602081019050919050565b6000620003b082620003b7565b9050919050565b600073ffffffffffffffffffffffffffffffffffffffff82169050919050565b6000819050919050565b60005b8381101562000401578082015181840152602081019050620003e4565b8381111562000411576000848401525b50505050565b600060028204905060018216806200043057607f821691505b6020821081141562000447576200044662000483565b5b50919050565b6200045882620004e1565b810181811067ffffffffffffffff821117156200047a5762000479620004b2565b5b80604052505050565b7f4e487b7100000000000000000000000000000000000000000000000000000000600052602260045260246000fd5b7f4e487b7100000000000000000000000000000000000000000000000000000000600052604160045260246000fd5b6000601f19601f8301169050919050565b620004fd81620003a3565b81146200050957600080fd5b50565b6200051781620003d7565b81146200052357600080fd5b50565b611d1980620005366000396000f3fe6080604052600436106101355760003560e01c80635badbe4c116100ab57806397654a8c1161006f57806397654a8c14610415578063b2d5ae4414610440578063c19d93fb1461046b578063ce845d1d14610496578063d7bb99ba146104c1578063d7d1bbdb146104cb57610135565b80635badbe4c1461032a57806381d12c581461035557806382fde093146103965780638a9cfd55146103c1578063937e09b1146103ea57610135565b80630dcf4b8f116100fd5780630dcf4b8f1461020d57806332461bd81461023857806337f944cc146102635780634051ddac1461028e57806342e94c90146102c2578063481c6a75146102ff57610135565b806301c9039f1461013a57806303441006146101515780630785001c1461017a57806308caa910146101a55780630a144391146101d0575b600080fd5b34801561014657600080fd5b5061014f6104f4565b005b34801561015d57600080fd5b5061017860048036038101906101739190611669565b6105c7565b005b34801561018657600080fd5b5061018f61078f565b60405161019c91906117d4565b60405180910390f35b3480156101b157600080fd5b506101ba610795565b6040516101c791906117d4565b60405180910390f35b3480156101dc57600080fd5b506101f760048036038101906101f291906115d9565b61079f565b6040516102049190611722565b60405180910390f35b34801561021957600080fd5b506102226107bf565b60405161022f91906117d4565b60405180910390f35b34801561024457600080fd5b5061024d6107c5565b60405161025a9190611758565b60405180910390f35b34801561026f57600080fd5b50610278610853565b60405161028591906117d4565b60405180910390f35b34801561029a57600080fd5b506102a3610859565b6040516102b99a999897969594939291906117ef565b60405180910390f35b3480156102ce57600080fd5b506102e960048036038101906102e491906115d9565b6109da565b6040516102f691906117d4565b60405180910390f35b34801561030b57600080fd5b506103146109f2565b6040516103219190611707565b60405180910390f35b34801561033657600080fd5b5061033f610a16565b60405161034c91906117d4565b60405180910390f35b34801561036157600080fd5b5061037c60048036038101906103779190611669565b610a1c565b60405161038d95949392919061177a565b60405180910390f35b3480156103a257600080fd5b506103ab610b07565b6040516103b891906117d4565b60405180910390f35b3480156103cd57600080fd5b506103e860048036038101906103e39190611602565b610b0d565b005b3480156103f657600080fd5b506103ff610cba565b60405161040c91906117d4565b60405180910390f35b34801561042157600080fd5b5061042a610cc0565b6040516104379190611758565b60405180910390f35b34801561044c57600080fd5b50610455610d4e565b6040516104629190611722565b60405180910390f35b34801561047757600080fd5b50610480611037565b60405161048d919061173d565b60405180910390f35b3480156104a257600080fd5b506104ab61104a565b6040516104b891906117d4565b60405180910390f35b6104c9611050565b005b3480156104d757600080fd5b506104f260048036038101906104ed9190611669565b6112d7565b005b670de0b6b3a764000060025461050a9190611992565b60045410610568576001600660006101000a81548160ff0219169083600281111561055e577f4e487b7100000000000000000000000000000000000000000000000000000000600052602160045260246000fd5b02179055506105c5565b6007544211156105c4576002600660006101000a81548160ff021916908360028111156105be577f4e487b7100000000000000000000000000000000000000000000000000000000600052602160045260246000fd5b02179055505b5b565b60008054906101000a900473ffffffffffffffffffffffffffffffffffffffff1673ffffffffffffffffffffffffffffffffffffffff163373ffffffffffffffffffffffffffffffffffffffff161461061f57600080fd5b600280600281111561065a577f4e487b7100000000000000000000000000000000000000000000000000000000600052602160045260246000fd5b600660009054906101000a900460ff1660028111156106a2577f4e487b7100000000000000000000000000000000000000000000000000000000600052602160045260246000fd5b14156106ad57600080fd5b6000600b600084815260200190815260200160002090508060020160149054906101000a900460ff16156106e057600080fd5b6002600d546106ef9190611961565b8160030154116106fe57600080fd5b8060020160009054906101000a900473ffffffffffffffffffffffffffffffffffffffff1673ffffffffffffffffffffffffffffffffffffffff166108fc82600101549081150290604051600060405180830381858888f1935050505015801561076c573d6000803e3d6000fd5b5060018160020160146101000a81548160ff021916908315150217905550505050565b60025481565b6000600454905090565b600a6020528060005260406000206000915054906101000a900460ff1681565b60045481565b600180546107d290611af9565b80601f01602080910402602001604051908101604052809291908181526020018280546107fe90611af9565b801561084b5780601f106108205761010080835404028352916020019161084b565b820191906000526020600020905b81548152906001019060200180831161082e57829003601f168201915b505050505081565b60075481565b600080600080600060606000606060008060095447600c54600d5460008054906101000a900473ffffffffffffffffffffffffffffffffffffffff16600160025460036004546007548480546108ae90611af9565b80601f01602080910402602001604051908101604052809291908181526020018280546108da90611af9565b80156109275780601f106108fc57610100808354040283529160200191610927565b820191906000526020600020905b81548152906001019060200180831161090a57829003601f168201915b5050505050945082805461093a90611af9565b80601f016020809104026020016040519081016040528092919081815260200182805461096690611af9565b80156109b35780601f10610988576101008083540402835291602001916109b3565b820191906000526020600020905b81548152906001019060200180831161099657829003601f168201915b50505050509250995099509950995099509950995099509950995090919293949596979899565b60056020528060005260406000206000915090505481565b60008054906101000a900473ffffffffffffffffffffffffffffffffffffffff1681565b600c5481565b600b602052806000526040600020600091509050806000018054610a3f90611af9565b80601f0160208091040260200160405190810160405280929190818152602001828054610a6b90611af9565b8015610ab85780601f10610a8d57610100808354040283529160200191610ab8565b820191906000526020600020905b815481529060010190602001808311610a9b57829003601f168201915b5050505050908060010154908060020160009054906101000a900473ffffffffffffffffffffffffffffffffffffffff16908060020160149054906101000a900460ff16908060030154905085565b600d5481565b60008054906101000a900473ffffffffffffffffffffffffffffffffffffffff1673ffffffffffffffffffffffffffffffffffffffff163373ffffffffffffffffffffffffffffffffffffffff1614610b6557600080fd5b6002806002811115610ba0577f4e487b7100000000000000000000000000000000000000000000000000000000600052602160045260246000fd5b600660009054906101000a900460ff166002811115610be8577f4e487b7100000000000000000000000000000000000000000000000000000000600052602160045260246000fd5b1415610bf357600080fd5b82471015610c0057600080fd5b6000600b6000600c548152602001908152602001600020905084816000019080519060200190610c319291906114a4565b50838160010181905550828160020160006101000a81548173ffffffffffffffffffffffffffffffffffffffff021916908373ffffffffffffffffffffffffffffffffffffffff16021790555060008160020160146101000a81548160ff021916908315150217905550600c6000815480929190610cae90611b5c565b91905055505050505050565b60095481565b60038054610ccd90611af9565b80601f0160208091040260200160405190810160405280929190818152602001828054610cf990611af9565b8015610d465780601f10610d1b57610100808354040283529160200191610d46565b820191906000526020600020905b815481529060010190602001808311610d2957829003601f168201915b505050505081565b60006002806002811115610d8b577f4e487b7100000000000000000000000000000000000000000000000000000000600052602160045260246000fd5b600660009054906101000a900460ff166002811115610dd3577f4e487b7100000000000000000000000000000000000000000000000000000000600052602160045260246000fd5b14610ddd57600080fd5b6000600560003373ffffffffffffffffffffffffffffffffffffffff1673ffffffffffffffffffffffffffffffffffffffff1681526020019081526020016000205411610e2957600080fd5b6000805b600c54811015610e8c576000600b600083815260200190815260200160002090508060020160149054906101000a900460ff1615610e7857806001015483610e75919061190b565b92505b508080610e8490611b5c565b915050610e2d565b50600060045482600560003373ffffffffffffffffffffffffffffffffffffffff1673ffffffffffffffffffffffffffffffffffffffff16815260200190815260200160002054610edd9190611992565b610ee79190611961565b600560003373ffffffffffffffffffffffffffffffffffffffff1673ffffffffffffffffffffffffffffffffffffffff16815260200190815260200160002054610f3191906119ec565b90506000600560003373ffffffffffffffffffffffffffffffffffffffff1673ffffffffffffffffffffffffffffffffffffffff168152602001908152602001600020819055503373ffffffffffffffffffffffffffffffffffffffff166108fc829081150290604051600060405180830381858888f193505050506110005780600560003373ffffffffffffffffffffffffffffffffffffffff1673ffffffffffffffffffffffffffffffffffffffff16815260200190815260200160002081905550600093505050611033565b8060045461100e91906119ec565b600481905550600d600081548092919061102790611acf565b91905055506001935050505b5090565b600660009054906101000a900460ff1681565b60085481565b600280600281111561108b577f4e487b7100000000000000000000000000000000000000000000000000000000600052602160045260246000fd5b600660009054906101000a900460ff1660028111156110d3577f4e487b7100000000000000000000000000000000000000000000000000000000600052602160045260246000fd5b14156110de57600080fd5b60075442106110ec57600080fd5b60008054906101000a900473ffffffffffffffffffffffffffffffffffffffff1673ffffffffffffffffffffffffffffffffffffffff163373ffffffffffffffffffffffffffffffffffffffff16141561114557600080fd5b60095434101561115457600080fd5b34600560003373ffffffffffffffffffffffffffffffffffffffff1673ffffffffffffffffffffffffffffffffffffffff1681526020019081526020016000205461119f919061190b565b600560003373ffffffffffffffffffffffffffffffffffffffff1673ffffffffffffffffffffffffffffffffffffffff16815260200190815260200160002081905550600a60003373ffffffffffffffffffffffffffffffffffffffff1673ffffffffffffffffffffffffffffffffffffffff16815260200190815260200160002060009054906101000a900460ff166112a4576001600a60003373ffffffffffffffffffffffffffffffffffffffff1673ffffffffffffffffffffffffffffffffffffffff16815260200190815260200160002060006101000a81548160ff021916908315150217905550600d600081548092919061129e90611b5c565b91905055505b346004546112b2919061190b565b600481905550346008546112c6919061190b565b6008819055506112d46104f4565b50565b6002806002811115611312577f4e487b7100000000000000000000000000000000000000000000000000000000600052602160045260246000fd5b600660009054906101000a900460ff16600281111561135a577f4e487b7100000000000000000000000000000000000000000000000000000000600052602160045260246000fd5b141561136557600080fd5b6000600b60008481526020019081526020016000209050600a60003373ffffffffffffffffffffffffffffffffffffffff1673ffffffffffffffffffffffffffffffffffffffff16815260200190815260200160002060009054906101000a900460ff166113d257600080fd5b8060040160003373ffffffffffffffffffffffffffffffffffffffff1673ffffffffffffffffffffffffffffffffffffffff16815260200190815260200160002060009054906101000a900460ff161561142b57600080fd5b60018160040160003373ffffffffffffffffffffffffffffffffffffffff1673ffffffffffffffffffffffffffffffffffffffff16815260200190815260200160002060006101000a81548160ff02191690831515021790555080600301600081548092919061149a90611b5c565b9190505550505050565b8280546114b090611af9565b90600052602060002090601f0160209004810192826114d25760008555611519565b82601f106114eb57805160ff1916838001178555611519565b82800160010185558215611519579182015b828111156115185782518255916020019190600101906114fd565b5b509050611526919061152a565b5090565b5b8082111561154357600081600090555060010161152b565b5090565b600061155a611555846118be565b611899565b90508281526020810184848401111561157257600080fd5b61157d848285611a8d565b509392505050565b60008135905061159481611cb5565b92915050565b600082601f8301126115ab57600080fd5b81356115bb848260208601611547565b91505092915050565b6000813590506115d381611ccc565b92915050565b6000602082840312156115eb57600080fd5b60006115f984828501611585565b91505092915050565b60008060006060848603121561161757600080fd5b600084013567ffffffffffffffff81111561163157600080fd5b61163d8682870161159a565b935050602061164e868287016115c4565b925050604061165f86828701611585565b9150509250925092565b60006020828403121561167b57600080fd5b6000611689848285016115c4565b91505092915050565b61169b81611a20565b82525050565b6116aa81611a32565b82525050565b6116b981611a7b565b82525050565b60006116ca826118ef565b6116d481856118fa565b93506116e4818560208601611a9c565b6116ed81611c90565b840191505092915050565b61170181611a71565b82525050565b600060208201905061171c6000830184611692565b92915050565b600060208201905061173760008301846116a1565b92915050565b600060208201905061175260008301846116b0565b92915050565b6000602082019050818103600083015261177281846116bf565b905092915050565b600060a082019050818103600083015261179481886116bf565b90506117a360208301876116f8565b6117b06040830186611692565b6117bd60608301856116a1565b6117ca60808301846116f8565b9695505050505050565b60006020820190506117e960008301846116f8565b92915050565b600061014082019050611805600083018d6116f8565b611812602083018c6116f8565b61181f604083018b6116f8565b61182c606083018a6116f8565b6118396080830189611692565b81810360a083015261184b81886116bf565b905061185a60c08301876116f8565b81810360e083015261186c81866116bf565b905061187c6101008301856116f8565b61188a6101208301846116f8565b9b9a5050505050505050505050565b60006118a36118b4565b90506118af8282611b2b565b919050565b6000604051905090565b600067ffffffffffffffff8211156118d9576118d8611c61565b5b6118e282611c90565b9050602081019050919050565b600081519050919050565b600082825260208201905092915050565b600061191682611a71565b915061192183611a71565b9250827fffffffffffffffffffffffffffffffffffffffffffffffffffffffffffffffff0382111561195657611955611ba5565b5b828201905092915050565b600061196c82611a71565b915061197783611a71565b92508261198757611986611bd4565b5b828204905092915050565b600061199d82611a71565b91506119a883611a71565b9250817fffffffffffffffffffffffffffffffffffffffffffffffffffffffffffffffff04831182151516156119e1576119e0611ba5565b5b828202905092915050565b60006119f782611a71565b9150611a0283611a71565b925082821015611a1557611a14611ba5565b5b828203905092915050565b6000611a2b82611a51565b9050919050565b60008115159050919050565b6000819050611a4c82611ca1565b919050565b600073ffffffffffffffffffffffffffffffffffffffff82169050919050565b6000819050919050565b6000611a8682611a3e565b9050919050565b82818337600083830152505050565b60005b83811015611aba578082015181840152602081019050611a9f565b83811115611ac9576000848401525b50505050565b6000611ada82611a71565b91506000821415611aee57611aed611ba5565b5b600182039050919050565b60006002820490506001821680611b1157607f821691505b60208210811415611b2557611b24611c32565b5b50919050565b611b3482611c90565b810181811067ffffffffffffffff82111715611b5357611b52611c61565b5b80604052505050565b6000611b6782611a71565b91507fffffffffffffffffffffffffffffffffffffffffffffffffffffffffffffffff821415611b9a57611b99611ba5565b5b600182019050919050565b7f4e487b7100000000000000000000000000000000000000000000000000000000600052601160045260246000fd5b7f4e487b7100000000000000000000000000000000000000000000000000000000600052601260045260246000fd5b7f4e487b7100000000000000000000000000000000000000000000000000000000600052602160045260246000fd5b7f4e487b7100000000000000000000000000000000000000000000000000000000600052602260045260246000fd5b7f4e487b7100000000000000000000000000000000000000000000000000000000600052604160045260246000fd5b6000601f19601f8301169050919050565b60038110611cb257611cb1611c03565b5b50565b611cbe81611a20565b8114611cc957600080fd5b50565b611cd581611a71565b8114611ce057600080fd5b5056fea26469706673582212206da501c10d1597a5c39a441d69dcf5890b567faa7c3db73330f81417c552366c64736f6c63430008040033","opcodes":"PUSH1 0x80 PUSH1 0x40 MSTORE PUSH1 0x0 PUSH1 0x6 PUSH1 0x0 PUSH2 0x100 EXP DUP2 SLOAD DUP2 PUSH1 0xFF MUL NOT AND SWAP1 DUP4 PUSH1 0x2 DUP2 GT ISZERO PUSH3 0x51 JUMPI PUSH32 0x4E487B7100000000000000000000000000000000000000000000000000000000 PUSH1 0x0 MSTORE PUSH1 0x21 PUSH1 0x4 MSTORE PUSH1 0x24 PUSH1 0x0 REVERT JUMPDEST MUL OR SWAP1 SSTORE POP CALLVALUE DUP1 ISZERO PUSH3 0x63 JUMPI PUSH1 0x0 DUP1 REVERT JUMPDEST POP PUSH1 0x40 MLOAD PUSH3 0x224F CODESIZE SUB DUP1 PUSH3 0x224F DUP4 CODECOPY DUP2 DUP2 ADD PUSH1 0x40 MSTORE DUP2 ADD SWAP1 PUSH3 0x89 SWAP2 SWAP1 PUSH3 0x27C JUMP JUMPDEST DUP5 PUSH1 0x0 DUP1 PUSH2 0x100 EXP DUP2 SLOAD DUP2 PUSH20 0xFFFFFFFFFFFFFFFFFFFFFFFFFFFFFFFFFFFFFFFF MUL NOT AND SWAP1 DUP4 PUSH20 0xFFFFFFFFFFFFFFFFFFFFFFFFFFFFFFFFFFFFFFFF AND MUL OR SWAP1 SSTORE POP DUP6 PUSH1 0x9 DUP2 SWAP1 SSTORE POP DUP4 PUSH1 0x1 SWAP1 DUP1 MLOAD SWAP1 PUSH1 0x20 ADD SWAP1 PUSH3 0xE8 SWAP3 SWAP2 SWAP1 PUSH3 0x12C JUMP JUMPDEST POP DUP3 PUSH1 0x2 DUP2 SWAP1 SSTORE POP DUP2 PUSH1 0x3 SWAP1 DUP1 MLOAD SWAP1 PUSH1 0x20 ADD SWAP1 PUSH3 0x108 SWAP3 SWAP2 SWAP1 PUSH3 0x12C JUMP JUMPDEST POP PUSH1 0x0 PUSH1 0x4 DUP2 SWAP1 SSTORE POP DUP1 PUSH1 0x7 DUP2 SWAP1 SSTORE POP PUSH1 0x0 PUSH1 0x8 DUP2 SWAP1 SSTORE POP POP POP POP POP POP POP PUSH3 0x526 JUMP JUMPDEST DUP3 DUP1 SLOAD PUSH3 0x13A SWAP1 PUSH3 0x417 JUMP JUMPDEST SWAP1 PUSH1 0x0 MSTORE PUSH1 0x20 PUSH1 0x0 KECCAK256 SWAP1 PUSH1 0x1F ADD PUSH1 0x20 SWAP1 DIV DUP2 ADD SWAP3 DUP3 PUSH3 0x15E JUMPI PUSH1 0x0 DUP6 SSTORE PUSH3 0x1AA JUMP JUMPDEST DUP3 PUSH1 0x1F LT PUSH3 0x179 JUMPI DUP1 MLOAD PUSH1 0xFF NOT AND DUP4 DUP1 ADD OR DUP6 SSTORE PUSH3 0x1AA JUMP JUMPDEST DUP3 DUP1 ADD PUSH1 0x1 ADD DUP6 SSTORE DUP3 ISZERO PUSH3 0x1AA JUMPI SWAP2 DUP3 ADD JUMPDEST DUP3 DUP2 GT ISZERO PUSH3 0x1A9 JUMPI DUP3 MLOAD DUP3 SSTORE SWAP2 PUSH1 0x20 ADD SWAP2 SWAP1 PUSH1 0x1 ADD SWAP1 PUSH3 0x18C JUMP JUMPDEST JUMPDEST POP SWAP1 POP PUSH3 0x1B9 SWAP2 SWAP1 PUSH3 0x1BD JUMP JUMPDEST POP SWAP1 JUMP JUMPDEST JUMPDEST DUP1 DUP3 GT ISZERO PUSH3 0x1D8 JUMPI PUSH1 0x0 DUP2 PUSH1 0x0 SWAP1 SSTORE POP PUSH1 0x1 ADD PUSH3 0x1BE JUMP JUMPDEST POP SWAP1 JUMP JUMPDEST PUSH1 0x0 PUSH3 0x1F3 PUSH3 0x1ED DUP5 PUSH3 0x36D JUMP JUMPDEST PUSH3 0x344 JUMP JUMPDEST SWAP1 POP DUP3 DUP2 MSTORE PUSH1 0x20 DUP2 ADD DUP5 DUP5 DUP5 ADD GT ISZERO PUSH3 0x20C JUMPI PUSH1 0x0 DUP1 REVERT JUMPDEST PUSH3 0x219 DUP5 DUP3 DUP6 PUSH3 0x3E1 JUMP JUMPDEST POP SWAP4 SWAP3 POP POP POP JUMP JUMPDEST PUSH1 0x0 DUP2 MLOAD SWAP1 POP PUSH3 0x232 DUP2 PUSH3 0x4F2 JUMP JUMPDEST SWAP3 SWAP2 POP POP JUMP JUMPDEST PUSH1 0x0 DUP3 PUSH1 0x1F DUP4 ADD SLT PUSH3 0x24A JUMPI PUSH1 0x0 DUP1 REVERT JUMPDEST DUP2 MLOAD PUSH3 0x25C DUP5 DUP3 PUSH1 0x20 DUP7 ADD PUSH3 0x1DC JUMP JUMPDEST SWAP2 POP POP SWAP3 SWAP2 POP POP JUMP JUMPDEST PUSH1 0x0 DUP2 MLOAD SWAP1 POP PUSH3 0x276 DUP2 PUSH3 0x50C JUMP JUMPDEST SWAP3 SWAP2 POP POP JUMP JUMPDEST PUSH1 0x0 DUP1 PUSH1 0x0 DUP1 PUSH1 0x0 DUP1 PUSH1 0xC0 DUP8 DUP10 SUB SLT ISZERO PUSH3 0x296 JUMPI PUSH1 0x0 DUP1 REVERT JUMPDEST PUSH1 0x0 PUSH3 0x2A6 DUP10 DUP3 DUP11 ADD PUSH3 0x265 JUMP JUMPDEST SWAP7 POP POP PUSH1 0x20 PUSH3 0x2B9 DUP10 DUP3 DUP11 ADD PUSH3 0x221 JUMP JUMPDEST SWAP6 POP POP PUSH1 0x40 DUP8 ADD MLOAD PUSH8 0xFFFFFFFFFFFFFFFF DUP2 GT ISZERO PUSH3 0x2D7 JUMPI PUSH1 0x0 DUP1 REVERT JUMPDEST PUSH3 0x2E5 DUP10 DUP3 DUP11 ADD PUSH3 0x238 JUMP JUMPDEST SWAP5 POP POP PUSH1 0x60 PUSH3 0x2F8 DUP10 DUP3 DUP11 ADD PUSH3 0x265 JUMP JUMPDEST SWAP4 POP POP PUSH1 0x80 DUP8 ADD MLOAD PUSH8 0xFFFFFFFFFFFFFFFF DUP2 GT ISZERO PUSH3 0x316 JUMPI PUSH1 0x0 DUP1 REVERT JUMPDEST PUSH3 0x324 DUP10 DUP3 DUP11 ADD PUSH3 0x238 JUMP JUMPDEST SWAP3 POP POP PUSH1 0xA0 PUSH3 0x337 DUP10 DUP3 DUP11 ADD PUSH3 0x265 JUMP JUMPDEST SWAP2 POP POP SWAP3 SWAP6 POP SWAP3 SWAP6 POP SWAP3 SWAP6 JUMP JUMPDEST PUSH1 0x0 PUSH3 0x350 PUSH3 0x363 JUMP JUMPDEST SWAP1 POP PUSH3 0x35E DUP3 DUP3 PUSH3 0x44D JUMP JUMPDEST SWAP2 SWAP1 POP JUMP JUMPDEST PUSH1 0x0 PUSH1 0x40 MLOAD SWAP1 POP SWAP1 JUMP JUMPDEST PUSH1 0x0 PUSH8 0xFFFFFFFFFFFFFFFF DUP3 GT ISZERO PUSH3 0x38B JUMPI PUSH3 0x38A PUSH3 0x4B2 JUMP JUMPDEST JUMPDEST PUSH3 0x396 DUP3 PUSH3 0x4E1 JUMP JUMPDEST SWAP1 POP PUSH1 0x20 DUP2 ADD SWAP1 POP SWAP2 SWAP1 POP JUMP JUMPDEST PUSH1 0x0 PUSH3 0x3B0 DUP3 PUSH3 0x3B7 JUMP JUMPDEST SWAP1 POP SWAP2 SWAP1 POP JUMP JUMPDEST PUSH1 0x0 PUSH20 0xFFFFFFFFFFFFFFFFFFFFFFFFFFFFFFFFFFFFFFFF DUP3 AND SWAP1 POP SWAP2 SWAP1 POP JUMP JUMPDEST PUSH1 0x0 DUP2 SWAP1 POP SWAP2 SWAP1 POP JUMP JUMPDEST PUSH1 0x0 JUMPDEST DUP4 DUP2 LT ISZERO PUSH3 0x401 JUMPI DUP1 DUP3 ADD MLOAD DUP2 DUP5 ADD MSTORE PUSH1 0x20 DUP2 ADD SWAP1 POP PUSH3 0x3E4 JUMP JUMPDEST DUP4 DUP2 GT ISZERO PUSH3 0x411 JUMPI PUSH1 0x0 DUP5 DUP5 ADD MSTORE JUMPDEST POP POP POP POP JUMP JUMPDEST PUSH1 0x0 PUSH1 0x2 DUP3 DIV SWAP1 POP PUSH1 0x1 DUP3 AND DUP1 PUSH3 0x430 JUMPI PUSH1 0x7F DUP3 AND SWAP2 POP JUMPDEST PUSH1 0x20 DUP3 LT DUP2 EQ ISZERO PUSH3 0x447 JUMPI PUSH3 0x446 PUSH3 0x483 JUMP JUMPDEST JUMPDEST POP SWAP2 SWAP1 POP JUMP JUMPDEST PUSH3 0x458 DUP3 PUSH3 0x4E1 JUMP JUMPDEST DUP2 ADD DUP2 DUP2 LT PUSH8 0xFFFFFFFFFFFFFFFF DUP3 GT OR ISZERO PUSH3 0x47A JUMPI PUSH3 0x479 PUSH3 0x4B2 JUMP JUMPDEST JUMPDEST DUP1 PUSH1 0x40 MSTORE POP POP POP JUMP JUMPDEST PUSH32 0x4E487B7100000000000000000000000000000000000000000000000000000000 PUSH1 0x0 MSTORE PUSH1 0x22 PUSH1 0x4 MSTORE PUSH1 0x24 PUSH1 0x0 REVERT JUMPDEST PUSH32 0x4E487B7100000000000000000000000000000000000000000000000000000000 PUSH1 0x0 MSTORE PUSH1 0x41 PUSH1 0x4 MSTORE PUSH1 0x24 PUSH1 0x0 REVERT JUMPDEST PUSH1 0x0 PUSH1 0x1F NOT PUSH1 0x1F DUP4 ADD AND SWAP1 POP SWAP2 SWAP1 POP JUMP JUMPDEST PUSH3 0x4FD DUP2 PUSH3 0x3A3 JUMP JUMPDEST DUP2 EQ PUSH3 0x509 JUMPI PUSH1 0x0 DUP1 REVERT JUMPDEST POP JUMP JUMPDEST PUSH3 0x517 DUP2 PUSH3 0x3D7 JUMP JUMPDEST DUP2 EQ PUSH3 0x523 JUMPI PUSH1 0x0 DUP1 REVERT JUMPDEST POP JUMP JUMPDEST PUSH2 0x1D19 DUP1 PUSH3 0x536 PUSH1 0x0 CODECOPY PUSH1 0x0 RETURN INVALID PUSH1 0x80 PUSH1 0x40 MSTORE PUSH1 0x4 CALLDATASIZE LT PUSH2 0x135 JUMPI PUSH1 0x0 CALLDATALOAD PUSH1 0xE0 SHR DUP1 PUSH4 0x5BADBE4C GT PUSH2 0xAB JUMPI DUP1 PUSH4 0x97654A8C GT PUSH2 0x6F JUMPI DUP1 PUSH4 0x97654A8C EQ PUSH2 0x415 JUMPI DUP1 PUSH4 0xB2D5AE44 EQ PUSH2 0x440 JUMPI DUP1 PUSH4 0xC19D93FB EQ PUSH2 0x46B JUMPI DUP1 PUSH4 0xCE845D1D EQ PUSH2 0x496 JUMPI DUP1 PUSH4 0xD7BB99BA EQ PUSH2 0x4C1 JUMPI DUP1 PUSH4 0xD7D1BBDB EQ PUSH2 0x4CB JUMPI PUSH2 0x135 JUMP JUMPDEST DUP1 PUSH4 0x5BADBE4C EQ PUSH2 0x32A JUMPI DUP1 PUSH4 0x81D12C58 EQ PUSH2 0x355 JUMPI DUP1 PUSH4 0x82FDE093 EQ PUSH2 0x396 JUMPI DUP1 PUSH4 0x8A9CFD55 EQ PUSH2 0x3C1 JUMPI DUP1 PUSH4 0x937E09B1 EQ PUSH2 0x3EA JUMPI PUSH2 0x135 JUMP JUMPDEST DUP1 PUSH4 0xDCF4B8F GT PUSH2 0xFD JUMPI DUP1 PUSH4 0xDCF4B8F EQ PUSH2 0x20D JUMPI DUP1 PUSH4 0x32461BD8 EQ PUSH2 0x238 JUMPI DUP1 PUSH4 0x37F944CC EQ PUSH2 0x263 JUMPI DUP1 PUSH4 0x4051DDAC EQ PUSH2 0x28E JUMPI DUP1 PUSH4 0x42E94C90 EQ PUSH2 0x2C2 JUMPI DUP1 PUSH4 0x481C6A75 EQ PUSH2 0x2FF JUMPI PUSH2 0x135 JUMP JUMPDEST DUP1 PUSH4 0x1C9039F EQ PUSH2 0x13A JUMPI DUP1 PUSH4 0x3441006 EQ PUSH2 0x151 JUMPI DUP1 PUSH4 0x785001C EQ PUSH2 0x17A JUMPI DUP1 PUSH4 0x8CAA910 EQ PUSH2 0x1A5 JUMPI DUP1 PUSH4 0xA144391 EQ PUSH2 0x1D0 JUMPI JUMPDEST PUSH1 0x0 DUP1 REVERT JUMPDEST CALLVALUE DUP1 ISZERO PUSH2 0x146 JUMPI PUSH1 0x0 DUP1 REVERT JUMPDEST POP PUSH2 0x14F PUSH2 0x4F4 JUMP JUMPDEST STOP JUMPDEST CALLVALUE DUP1 ISZERO PUSH2 0x15D JUMPI PUSH1 0x0 DUP1 REVERT JUMPDEST POP PUSH2 0x178 PUSH1 0x4 DUP1 CALLDATASIZE SUB DUP2 ADD SWAP1 PUSH2 0x173 SWAP2 SWAP1 PUSH2 0x1669 JUMP JUMPDEST PUSH2 0x5C7 JUMP JUMPDEST STOP JUMPDEST CALLVALUE DUP1 ISZERO PUSH2 0x186 JUMPI PUSH1 0x0 DUP1 REVERT JUMPDEST POP PUSH2 0x18F PUSH2 0x78F JUMP JUMPDEST PUSH1 0x40 MLOAD PUSH2 0x19C SWAP2 SWAP1 PUSH2 0x17D4 JUMP JUMPDEST PUSH1 0x40 MLOAD DUP1 SWAP2 SUB SWAP1 RETURN JUMPDEST CALLVALUE DUP1 ISZERO PUSH2 0x1B1 JUMPI PUSH1 0x0 DUP1 REVERT JUMPDEST POP PUSH2 0x1BA PUSH2 0x795 JUMP JUMPDEST PUSH1 0x40 MLOAD PUSH2 0x1C7 SWAP2 SWAP1 PUSH2 0x17D4 JUMP JUMPDEST PUSH1 0x40 MLOAD DUP1 SWAP2 SUB SWAP1 RETURN JUMPDEST CALLVALUE DUP1 ISZERO PUSH2 0x1DC JUMPI PUSH1 0x0 DUP1 REVERT JUMPDEST POP PUSH2 0x1F7 PUSH1 0x4 DUP1 CALLDATASIZE SUB DUP2 ADD SWAP1 PUSH2 0x1F2 SWAP2 SWAP1 PUSH2 0x15D9 JUMP JUMPDEST PUSH2 0x79F JUMP JUMPDEST PUSH1 0x40 MLOAD PUSH2 0x204 SWAP2 SWAP1 PUSH2 0x1722 JUMP JUMPDEST PUSH1 0x40 MLOAD DUP1 SWAP2 SUB SWAP1 RETURN JUMPDEST CALLVALUE DUP1 ISZERO PUSH2 0x219 JUMPI PUSH1 0x0 DUP1 REVERT JUMPDEST POP PUSH2 0x222 PUSH2 0x7BF JUMP JUMPDEST PUSH1 0x40 MLOAD PUSH2 0x22F SWAP2 SWAP1 PUSH2 0x17D4 JUMP JUMPDEST PUSH1 0x40 MLOAD DUP1 SWAP2 SUB SWAP1 RETURN JUMPDEST CALLVALUE DUP1 ISZERO PUSH2 0x244 JUMPI PUSH1 0x0 DUP1 REVERT JUMPDEST POP PUSH2 0x24D PUSH2 0x7C5 JUMP JUMPDEST PUSH1 0x40 MLOAD PUSH2 0x25A SWAP2 SWAP1 PUSH2 0x1758 JUMP JUMPDEST PUSH1 0x40 MLOAD DUP1 SWAP2 SUB SWAP1 RETURN JUMPDEST CALLVALUE DUP1 ISZERO PUSH2 0x26F JUMPI PUSH1 0x0 DUP1 REVERT JUMPDEST POP PUSH2 0x278 PUSH2 0x853 JUMP JUMPDEST PUSH1 0x40 MLOAD PUSH2 0x285 SWAP2 SWAP1 PUSH2 0x17D4 JUMP JUMPDEST PUSH1 0x40 MLOAD DUP1 SWAP2 SUB SWAP1 RETURN JUMPDEST CALLVALUE DUP1 ISZERO PUSH2 0x29A JUMPI PUSH1 0x0 DUP1 REVERT JUMPDEST POP PUSH2 0x2A3 PUSH2 0x859 JUMP JUMPDEST PUSH1 0x40 MLOAD PUSH2 0x2B9 SWAP11 SWAP10 SWAP9 SWAP8 SWAP7 SWAP6 SWAP5 SWAP4 SWAP3 SWAP2 SWAP1 PUSH2 0x17EF JUMP JUMPDEST PUSH1 0x40 MLOAD DUP1 SWAP2 SUB SWAP1 RETURN JUMPDEST CALLVALUE DUP1 ISZERO PUSH2 0x2CE JUMPI PUSH1 0x0 DUP1 REVERT JUMPDEST POP PUSH2 0x2E9 PUSH1 0x4 DUP1 CALLDATASIZE SUB DUP2 ADD SWAP1 PUSH2 0x2E4 SWAP2 SWAP1 PUSH2 0x15D9 JUMP JUMPDEST PUSH2 0x9DA JUMP JUMPDEST PUSH1 0x40 MLOAD PUSH2 0x2F6 SWAP2 SWAP1 PUSH2 0x17D4 JUMP JUMPDEST PUSH1 0x40 MLOAD DUP1 SWAP2 SUB SWAP1 RETURN JUMPDEST CALLVALUE DUP1 ISZERO PUSH2 0x30B JUMPI PUSH1 0x0 DUP1 REVERT JUMPDEST POP PUSH2 0x314 PUSH2 0x9F2 JUMP JUMPDEST PUSH1 0x40 MLOAD PUSH2 0x321 SWAP2 SWAP1 PUSH2 0x1707 JUMP JUMPDEST PUSH1 0x40 MLOAD DUP1 SWAP2 SUB SWAP1 RETURN JUMPDEST CALLVALUE DUP1 ISZERO PUSH2 0x336 JUMPI PUSH1 0x0 DUP1 REVERT JUMPDEST POP PUSH2 0x33F PUSH2 0xA16 JUMP JUMPDEST PUSH1 0x40 MLOAD PUSH2 0x34C SWAP2 SWAP1 PUSH2 0x17D4 JUMP JUMPDEST PUSH1 0x40 MLOAD DUP1 SWAP2 SUB SWAP1 RETURN JUMPDEST CALLVALUE DUP1 ISZERO PUSH2 0x361 JUMPI PUSH1 0x0 DUP1 REVERT JUMPDEST POP PUSH2 0x37C PUSH1 0x4 DUP1 CALLDATASIZE SUB DUP2 ADD SWAP1 PUSH2 0x377 SWAP2 SWAP1 PUSH2 0x1669 JUMP JUMPDEST PUSH2 0xA1C JUMP JUMPDEST PUSH1 0x40 MLOAD PUSH2 0x38D SWAP6 SWAP5 SWAP4 SWAP3 SWAP2 SWAP1 PUSH2 0x177A JUMP JUMPDEST PUSH1 0x40 MLOAD DUP1 SWAP2 SUB SWAP1 RETURN JUMPDEST CALLVALUE DUP1 ISZERO PUSH2 0x3A2 JUMPI PUSH1 0x0 DUP1 REVERT JUMPDEST POP PUSH2 0x3AB PUSH2 0xB07 JUMP JUMPDEST PUSH1 0x40 MLOAD PUSH2 0x3B8 SWAP2 SWAP1 PUSH2 0x17D4 JUMP JUMPDEST PUSH1 0x40 MLOAD DUP1 SWAP2 SUB SWAP1 RETURN JUMPDEST CALLVALUE DUP1 ISZERO PUSH2 0x3CD JUMPI PUSH1 0x0 DUP1 REVERT JUMPDEST POP PUSH2 0x3E8 PUSH1 0x4 DUP1 CALLDATASIZE SUB DUP2 ADD SWAP1 PUSH2 0x3E3 SWAP2 SWAP1 PUSH2 0x1602 JUMP JUMPDEST PUSH2 0xB0D JUMP JUMPDEST STOP JUMPDEST CALLVALUE DUP1 ISZERO PUSH2 0x3F6 JUMPI PUSH1 0x0 DUP1 REVERT JUMPDEST POP PUSH2 0x3FF PUSH2 0xCBA JUMP JUMPDEST PUSH1 0x40 MLOAD PUSH2 0x40C SWAP2 SWAP1 PUSH2 0x17D4 JUMP JUMPDEST PUSH1 0x40 MLOAD DUP1 SWAP2 SUB SWAP1 RETURN JUMPDEST CALLVALUE DUP1 ISZERO PUSH2 0x421 JUMPI PUSH1 0x0 DUP1 REVERT JUMPDEST POP PUSH2 0x42A PUSH2 0xCC0 JUMP JUMPDEST PUSH1 0x40 MLOAD PUSH2 0x437 SWAP2 SWAP1 PUSH2 0x1758 JUMP JUMPDEST PUSH1 0x40 MLOAD DUP1 SWAP2 SUB SWAP1 RETURN JUMPDEST CALLVALUE DUP1 ISZERO PUSH2 0x44C JUMPI PUSH1 0x0 DUP1 REVERT JUMPDEST POP PUSH2 0x455 PUSH2 0xD4E JUMP JUMPDEST PUSH1 0x40 MLOAD PUSH2 0x462 SWAP2 SWAP1 PUSH2 0x1722 JUMP JUMPDEST PUSH1 0x40 MLOAD DUP1 SWAP2 SUB SWAP1 RETURN JUMPDEST CALLVALUE DUP1 ISZERO PUSH2 0x477 JUMPI PUSH1 0x0 DUP1 REVERT JUMPDEST POP PUSH2 0x480 PUSH2 0x1037 JUMP JUMPDEST PUSH1 0x40 MLOAD PUSH2 0x48D SWAP2 SWAP1 PUSH2 0x173D JUMP JUMPDEST PUSH1 0x40 MLOAD DUP1 SWAP2 SUB SWAP1 RETURN JUMPDEST CALLVALUE DUP1 ISZERO PUSH2 0x4A2 JUMPI PUSH1 0x0 DUP1 REVERT JUMPDEST POP PUSH2 0x4AB PUSH2 0x104A JUMP JUMPDEST PUSH1 0x40 MLOAD PUSH2 0x4B8 SWAP2 SWAP1 PUSH2 0x17D4 JUMP JUMPDEST PUSH1 0x40 MLOAD DUP1 SWAP2 SUB SWAP1 RETURN JUMPDEST PUSH2 0x4C9 PUSH2 0x1050 JUMP JUMPDEST STOP JUMPDEST CALLVALUE DUP1 ISZERO PUSH2 0x4D7 JUMPI PUSH1 0x0 DUP1 REVERT JUMPDEST POP PUSH2 0x4F2 PUSH1 0x4 DUP1 CALLDATASIZE SUB DUP2 ADD SWAP1 PUSH2 0x4ED SWAP2 SWAP1 PUSH2 0x1669 JUMP JUMPDEST PUSH2 0x12D7 JUMP JUMPDEST STOP JUMPDEST PUSH8 0xDE0B6B3A7640000 PUSH1 0x2 SLOAD PUSH2 0x50A SWAP2 SWAP1 PUSH2 0x1992 JUMP JUMPDEST PUSH1 0x4 SLOAD LT PUSH2 0x568 JUMPI PUSH1 0x1 PUSH1 0x6 PUSH1 0x0 PUSH2 0x100 EXP DUP2 SLOAD DUP2 PUSH1 0xFF MUL NOT AND SWAP1 DUP4 PUSH1 0x2 DUP2 GT ISZERO PUSH2 0x55E JUMPI PUSH32 0x4E487B7100000000000000000000000000000000000000000000000000000000 PUSH1 0x0 MSTORE PUSH1 0x21 PUSH1 0x4 MSTORE PUSH1 0x24 PUSH1 0x0 REVERT JUMPDEST MUL OR SWAP1 SSTORE POP PUSH2 0x5C5 JUMP JUMPDEST PUSH1 0x7 SLOAD TIMESTAMP GT ISZERO PUSH2 0x5C4 JUMPI PUSH1 0x2 PUSH1 0x6 PUSH1 0x0 PUSH2 0x100 EXP DUP2 SLOAD DUP2 PUSH1 0xFF MUL NOT AND SWAP1 DUP4 PUSH1 0x2 DUP2 GT ISZERO PUSH2 0x5BE JUMPI PUSH32 0x4E487B7100000000000000000000000000000000000000000000000000000000 PUSH1 0x0 MSTORE PUSH1 0x21 PUSH1 0x4 MSTORE PUSH1 0x24 PUSH1 0x0 REVERT JUMPDEST MUL OR SWAP1 SSTORE POP JUMPDEST JUMPDEST JUMP JUMPDEST PUSH1 0x0 DUP1 SLOAD SWAP1 PUSH2 0x100 EXP SWAP1 DIV PUSH20 0xFFFFFFFFFFFFFFFFFFFFFFFFFFFFFFFFFFFFFFFF AND PUSH20 0xFFFFFFFFFFFFFFFFFFFFFFFFFFFFFFFFFFFFFFFF AND CALLER PUSH20 0xFFFFFFFFFFFFFFFFFFFFFFFFFFFFFFFFFFFFFFFF AND EQ PUSH2 0x61F JUMPI PUSH1 0x0 DUP1 REVERT JUMPDEST PUSH1 0x2 DUP1 PUSH1 0x2 DUP2 GT ISZERO PUSH2 0x65A JUMPI PUSH32 0x4E487B7100000000000000000000000000000000000000000000000000000000 PUSH1 0x0 MSTORE PUSH1 0x21 PUSH1 0x4 MSTORE PUSH1 0x24 PUSH1 0x0 REVERT JUMPDEST PUSH1 0x6 PUSH1 0x0 SWAP1 SLOAD SWAP1 PUSH2 0x100 EXP SWAP1 DIV PUSH1 0xFF AND PUSH1 0x2 DUP2 GT ISZERO PUSH2 0x6A2 JUMPI PUSH32 0x4E487B7100000000000000000000000000000000000000000000000000000000 PUSH1 0x0 MSTORE PUSH1 0x21 PUSH1 0x4 MSTORE PUSH1 0x24 PUSH1 0x0 REVERT JUMPDEST EQ ISZERO PUSH2 0x6AD JUMPI PUSH1 0x0 DUP1 REVERT JUMPDEST PUSH1 0x0 PUSH1 0xB PUSH1 0x0 DUP5 DUP2 MSTORE PUSH1 0x20 ADD SWAP1 DUP2 MSTORE PUSH1 0x20 ADD PUSH1 0x0 KECCAK256 SWAP1 POP DUP1 PUSH1 0x2 ADD PUSH1 0x14 SWAP1 SLOAD SWAP1 PUSH2 0x100 EXP SWAP1 DIV PUSH1 0xFF AND ISZERO PUSH2 0x6E0 JUMPI PUSH1 0x0 DUP1 REVERT JUMPDEST PUSH1 0x2 PUSH1 0xD SLOAD PUSH2 0x6EF SWAP2 SWAP1 PUSH2 0x1961 JUMP JUMPDEST DUP2 PUSH1 0x3 ADD SLOAD GT PUSH2 0x6FE JUMPI PUSH1 0x0 DUP1 REVERT JUMPDEST DUP1 PUSH1 0x2 ADD PUSH1 0x0 SWAP1 SLOAD SWAP1 PUSH2 0x100 EXP SWAP1 DIV PUSH20 0xFFFFFFFFFFFFFFFFFFFFFFFFFFFFFFFFFFFFFFFF AND PUSH20 0xFFFFFFFFFFFFFFFFFFFFFFFFFFFFFFFFFFFFFFFF AND PUSH2 0x8FC DUP3 PUSH1 0x1 ADD SLOAD SWAP1 DUP2 ISZERO MUL SWAP1 PUSH1 0x40 MLOAD PUSH1 0x0 PUSH1 0x40 MLOAD DUP1 DUP4 SUB DUP2 DUP6 DUP9 DUP9 CALL SWAP4 POP POP POP POP ISZERO DUP1 ISZERO PUSH2 0x76C JUMPI RETURNDATASIZE PUSH1 0x0 DUP1 RETURNDATACOPY RETURNDATASIZE PUSH1 0x0 REVERT JUMPDEST POP PUSH1 0x1 DUP2 PUSH1 0x2 ADD PUSH1 0x14 PUSH2 0x100 EXP DUP2 SLOAD DUP2 PUSH1 0xFF MUL NOT AND SWAP1 DUP4 ISZERO ISZERO MUL OR SWAP1 SSTORE POP POP POP POP JUMP JUMPDEST PUSH1 0x2 SLOAD DUP2 JUMP JUMPDEST PUSH1 0x0 PUSH1 0x4 SLOAD SWAP1 POP SWAP1 JUMP JUMPDEST PUSH1 0xA PUSH1 0x20 MSTORE DUP1 PUSH1 0x0 MSTORE PUSH1 0x40 PUSH1 0x0 KECCAK256 PUSH1 0x0 SWAP2 POP SLOAD SWAP1 PUSH2 0x100 EXP SWAP1 DIV PUSH1 0xFF AND DUP2 JUMP JUMPDEST PUSH1 0x4 SLOAD DUP2 JUMP JUMPDEST PUSH1 0x1 DUP1 SLOAD PUSH2 0x7D2 SWAP1 PUSH2 0x1AF9 JUMP JUMPDEST DUP1 PUSH1 0x1F ADD PUSH1 0x20 DUP1 SWAP2 DIV MUL PUSH1 0x20 ADD PUSH1 0x40 MLOAD SWAP1 DUP2 ADD PUSH1 0x40 MSTORE DUP1 SWAP3 SWAP2 SWAP1 DUP2 DUP2 MSTORE PUSH1 0x20 ADD DUP3 DUP1 SLOAD PUSH2 0x7FE SWAP1 PUSH2 0x1AF9 JUMP JUMPDEST DUP1 ISZERO PUSH2 0x84B JUMPI DUP1 PUSH1 0x1F LT PUSH2 0x820 JUMPI PUSH2 0x100 DUP1 DUP4 SLOAD DIV MUL DUP4 MSTORE SWAP2 PUSH1 0x20 ADD SWAP2 PUSH2 0x84B JUMP JUMPDEST DUP3 ADD SWAP2 SWAP1 PUSH1 0x0 MSTORE PUSH1 0x20 PUSH1 0x0 KECCAK256 SWAP1 JUMPDEST DUP2 SLOAD DUP2 MSTORE SWAP1 PUSH1 0x1 ADD SWAP1 PUSH1 0x20 ADD DUP1 DUP4 GT PUSH2 0x82E JUMPI DUP3 SWAP1 SUB PUSH1 0x1F AND DUP3 ADD SWAP2 JUMPDEST POP POP POP POP POP DUP2 JUMP JUMPDEST PUSH1 0x7 SLOAD DUP2 JUMP JUMPDEST PUSH1 0x0 DUP1 PUSH1 0x0 DUP1 PUSH1 0x0 PUSH1 0x60 PUSH1 0x0 PUSH1 0x60 PUSH1 0x0 DUP1 PUSH1 0x9 SLOAD SELFBALANCE PUSH1 0xC SLOAD PUSH1 0xD SLOAD PUSH1 0x0 DUP1 SLOAD SWAP1 PUSH2 0x100 EXP SWAP1 DIV PUSH20 0xFFFFFFFFFFFFFFFFFFFFFFFFFFFFFFFFFFFFFFFF AND PUSH1 0x1 PUSH1 0x2 SLOAD PUSH1 0x3 PUSH1 0x4 SLOAD PUSH1 0x7 SLOAD DUP5 DUP1 SLOAD PUSH2 0x8AE SWAP1 PUSH2 0x1AF9 JUMP JUMPDEST DUP1 PUSH1 0x1F ADD PUSH1 0x20 DUP1 SWAP2 DIV MUL PUSH1 0x20 ADD PUSH1 0x40 MLOAD SWAP1 DUP2 ADD PUSH1 0x40 MSTORE DUP1 SWAP3 SWAP2 SWAP1 DUP2 DUP2 MSTORE PUSH1 0x20 ADD DUP3 DUP1 SLOAD PUSH2 0x8DA SWAP1 PUSH2 0x1AF9 JUMP JUMPDEST DUP1 ISZERO PUSH2 0x927 JUMPI DUP1 PUSH1 0x1F LT PUSH2 0x8FC JUMPI PUSH2 0x100 DUP1 DUP4 SLOAD DIV MUL DUP4 MSTORE SWAP2 PUSH1 0x20 ADD SWAP2 PUSH2 0x927 JUMP JUMPDEST DUP3 ADD SWAP2 SWAP1 PUSH1 0x0 MSTORE PUSH1 0x20 PUSH1 0x0 KECCAK256 SWAP1 JUMPDEST DUP2 SLOAD DUP2 MSTORE SWAP1 PUSH1 0x1 ADD SWAP1 PUSH1 0x20 ADD DUP1 DUP4 GT PUSH2 0x90A JUMPI DUP3 SWAP1 SUB PUSH1 0x1F AND DUP3 ADD SWAP2 JUMPDEST POP POP POP POP POP SWAP5 POP DUP3 DUP1 SLOAD PUSH2 0x93A SWAP1 PUSH2 0x1AF9 JUMP JUMPDEST DUP1 PUSH1 0x1F ADD PUSH1 0x20 DUP1 SWAP2 DIV MUL PUSH1 0x20 ADD PUSH1 0x40 MLOAD SWAP1 DUP2 ADD PUSH1 0x40 MSTORE DUP1 SWAP3 SWAP2 SWAP1 DUP2 DUP2 MSTORE PUSH1 0x20 ADD DUP3 DUP1 SLOAD PUSH2 0x966 SWAP1 PUSH2 0x1AF9 JUMP JUMPDEST DUP1 ISZERO PUSH2 0x9B3 JUMPI DUP1 PUSH1 0x1F LT PUSH2 0x988 JUMPI PUSH2 0x100 DUP1 DUP4 SLOAD DIV MUL DUP4 MSTORE SWAP2 PUSH1 0x20 ADD SWAP2 PUSH2 0x9B3 JUMP JUMPDEST DUP3 ADD SWAP2 SWAP1 PUSH1 0x0 MSTORE PUSH1 0x20 PUSH1 0x0 KECCAK256 SWAP1 JUMPDEST DUP2 SLOAD DUP2 MSTORE SWAP1 PUSH1 0x1 ADD SWAP1 PUSH1 0x20 ADD DUP1 DUP4 GT PUSH2 0x996 JUMPI DUP3 SWAP1 SUB PUSH1 0x1F AND DUP3 ADD SWAP2 JUMPDEST POP POP POP POP POP SWAP3 POP SWAP10 POP SWAP10 POP SWAP10 POP SWAP10 POP SWAP10 POP SWAP10 POP SWAP10 POP SWAP10 POP SWAP10 POP SWAP10 POP SWAP1 SWAP2 SWAP3 SWAP4 SWAP5 SWAP6 SWAP7 SWAP8 SWAP9 SWAP10 JUMP JUMPDEST PUSH1 0x5 PUSH1 0x20 MSTORE DUP1 PUSH1 0x0 MSTORE PUSH1 0x40 PUSH1 0x0 KECCAK256 PUSH1 0x0 SWAP2 POP SWAP1 POP SLOAD DUP2 JUMP JUMPDEST PUSH1 0x0 DUP1 SLOAD SWAP1 PUSH2 0x100 EXP SWAP1 DIV PUSH20 0xFFFFFFFFFFFFFFFFFFFFFFFFFFFFFFFFFFFFFFFF AND DUP2 JUMP JUMPDEST PUSH1 0xC SLOAD DUP2 JUMP JUMPDEST PUSH1 0xB PUSH1 0x20 MSTORE DUP1 PUSH1 0x0 MSTORE PUSH1 0x40 PUSH1 0x0 KECCAK256 PUSH1 0x0 SWAP2 POP SWAP1 POP DUP1 PUSH1 0x0 ADD DUP1 SLOAD PUSH2 0xA3F SWAP1 PUSH2 0x1AF9 JUMP JUMPDEST DUP1 PUSH1 0x1F ADD PUSH1 0x20 DUP1 SWAP2 DIV MUL PUSH1 0x20 ADD PUSH1 0x40 MLOAD SWAP1 DUP2 ADD PUSH1 0x40 MSTORE DUP1 SWAP3 SWAP2 SWAP1 DUP2 DUP2 MSTORE PUSH1 0x20 ADD DUP3 DUP1 SLOAD PUSH2 0xA6B SWAP1 PUSH2 0x1AF9 JUMP JUMPDEST DUP1 ISZERO PUSH2 0xAB8 JUMPI DUP1 PUSH1 0x1F LT PUSH2 0xA8D JUMPI PUSH2 0x100 DUP1 DUP4 SLOAD DIV MUL DUP4 MSTORE SWAP2 PUSH1 0x20 ADD SWAP2 PUSH2 0xAB8 JUMP JUMPDEST DUP3 ADD SWAP2 SWAP1 PUSH1 0x0 MSTORE PUSH1 0x20 PUSH1 0x0 KECCAK256 SWAP1 JUMPDEST DUP2 SLOAD DUP2 MSTORE SWAP1 PUSH1 0x1 ADD SWAP1 PUSH1 0x20 ADD DUP1 DUP4 GT PUSH2 0xA9B JUMPI DUP3 SWAP1 SUB PUSH1 0x1F AND DUP3 ADD SWAP2 JUMPDEST POP POP POP POP POP SWAP1 DUP1 PUSH1 0x1 ADD SLOAD SWAP1 DUP1 PUSH1 0x2 ADD PUSH1 0x0 SWAP1 SLOAD SWAP1 PUSH2 0x100 EXP SWAP1 DIV PUSH20 0xFFFFFFFFFFFFFFFFFFFFFFFFFFFFFFFFFFFFFFFF AND SWAP1 DUP1 PUSH1 0x2 ADD PUSH1 0x14 SWAP1 SLOAD SWAP1 PUSH2 0x100 EXP SWAP1 DIV PUSH1 0xFF AND SWAP1 DUP1 PUSH1 0x3 ADD SLOAD SWAP1 POP DUP6 JUMP JUMPDEST PUSH1 0xD SLOAD DUP2 JUMP JUMPDEST PUSH1 0x0 DUP1 SLOAD SWAP1 PUSH2 0x100 EXP SWAP1 DIV PUSH20 0xFFFFFFFFFFFFFFFFFFFFFFFFFFFFFFFFFFFFFFFF AND PUSH20 0xFFFFFFFFFFFFFFFFFFFFFFFFFFFFFFFFFFFFFFFF AND CALLER PUSH20 0xFFFFFFFFFFFFFFFFFFFFFFFFFFFFFFFFFFFFFFFF AND EQ PUSH2 0xB65 JUMPI PUSH1 0x0 DUP1 REVERT JUMPDEST PUSH1 0x2 DUP1 PUSH1 0x2 DUP2 GT ISZERO PUSH2 0xBA0 JUMPI PUSH32 0x4E487B7100000000000000000000000000000000000000000000000000000000 PUSH1 0x0 MSTORE PUSH1 0x21 PUSH1 0x4 MSTORE PUSH1 0x24 PUSH1 0x0 REVERT JUMPDEST PUSH1 0x6 PUSH1 0x0 SWAP1 SLOAD SWAP1 PUSH2 0x100 EXP SWAP1 DIV PUSH1 0xFF AND PUSH1 0x2 DUP2 GT ISZERO PUSH2 0xBE8 JUMPI PUSH32 0x4E487B7100000000000000000000000000000000000000000000000000000000 PUSH1 0x0 MSTORE PUSH1 0x21 PUSH1 0x4 MSTORE PUSH1 0x24 PUSH1 0x0 REVERT JUMPDEST EQ ISZERO PUSH2 0xBF3 JUMPI PUSH1 0x0 DUP1 REVERT JUMPDEST DUP3 SELFBALANCE LT ISZERO PUSH2 0xC00 JUMPI PUSH1 0x0 DUP1 REVERT JUMPDEST PUSH1 0x0 PUSH1 0xB PUSH1 0x0 PUSH1 0xC SLOAD DUP2 MSTORE PUSH1 0x20 ADD SWAP1 DUP2 MSTORE PUSH1 0x20 ADD PUSH1 0x0 KECCAK256 SWAP1 POP DUP5 DUP2 PUSH1 0x0 ADD SWAP1 DUP1 MLOAD SWAP1 PUSH1 0x20 ADD SWAP1 PUSH2 0xC31 SWAP3 SWAP2 SWAP1 PUSH2 0x14A4 JUMP JUMPDEST POP DUP4 DUP2 PUSH1 0x1 ADD DUP2 SWAP1 SSTORE POP DUP3 DUP2 PUSH1 0x2 ADD PUSH1 0x0 PUSH2 0x100 EXP DUP2 SLOAD DUP2 PUSH20 0xFFFFFFFFFFFFFFFFFFFFFFFFFFFFFFFFFFFFFFFF MUL NOT AND SWAP1 DUP4 PUSH20 0xFFFFFFFFFFFFFFFFFFFFFFFFFFFFFFFFFFFFFFFF AND MUL OR SWAP1 SSTORE POP PUSH1 0x0 DUP2 PUSH1 0x2 ADD PUSH1 0x14 PUSH2 0x100 EXP DUP2 SLOAD DUP2 PUSH1 0xFF MUL NOT AND SWAP1 DUP4 ISZERO ISZERO MUL OR SWAP1 SSTORE POP PUSH1 0xC PUSH1 0x0 DUP2 SLOAD DUP1 SWAP3 SWAP2 SWAP1 PUSH2 0xCAE SWAP1 PUSH2 0x1B5C JUMP JUMPDEST SWAP2 SWAP1 POP SSTORE POP POP POP POP POP POP JUMP JUMPDEST PUSH1 0x9 SLOAD DUP2 JUMP JUMPDEST PUSH1 0x3 DUP1 SLOAD PUSH2 0xCCD SWAP1 PUSH2 0x1AF9 JUMP JUMPDEST DUP1 PUSH1 0x1F ADD PUSH1 0x20 DUP1 SWAP2 DIV MUL PUSH1 0x20 ADD PUSH1 0x40 MLOAD SWAP1 DUP2 ADD PUSH1 0x40 MSTORE DUP1 SWAP3 SWAP2 SWAP1 DUP2 DUP2 MSTORE PUSH1 0x20 ADD DUP3 DUP1 SLOAD PUSH2 0xCF9 SWAP1 PUSH2 0x1AF9 JUMP JUMPDEST DUP1 ISZERO PUSH2 0xD46 JUMPI DUP1 PUSH1 0x1F LT PUSH2 0xD1B JUMPI PUSH2 0x100 DUP1 DUP4 SLOAD DIV MUL DUP4 MSTORE SWAP2 PUSH1 0x20 ADD SWAP2 PUSH2 0xD46 JUMP JUMPDEST DUP3 ADD SWAP2 SWAP1 PUSH1 0x0 MSTORE PUSH1 0x20 PUSH1 0x0 KECCAK256 SWAP1 JUMPDEST DUP2 SLOAD DUP2 MSTORE SWAP1 PUSH1 0x1 ADD SWAP1 PUSH1 0x20 ADD DUP1 DUP4 GT PUSH2 0xD29 JUMPI DUP3 SWAP1 SUB PUSH1 0x1F AND DUP3 ADD SWAP2 JUMPDEST POP POP POP POP POP DUP2 JUMP JUMPDEST PUSH1 0x0 PUSH1 0x2 DUP1 PUSH1 0x2 DUP2 GT ISZERO PUSH2 0xD8B JUMPI PUSH32 0x4E487B7100000000000000000000000000000000000000000000000000000000 PUSH1 0x0 MSTORE PUSH1 0x21 PUSH1 0x4 MSTORE PUSH1 0x24 PUSH1 0x0 REVERT JUMPDEST PUSH1 0x6 PUSH1 0x0 SWAP1 SLOAD SWAP1 PUSH2 0x100 EXP SWAP1 DIV PUSH1 0xFF AND PUSH1 0x2 DUP2 GT ISZERO PUSH2 0xDD3 JUMPI PUSH32 0x4E487B7100000000000000000000000000000000000000000000000000000000 PUSH1 0x0 MSTORE PUSH1 0x21 PUSH1 0x4 MSTORE PUSH1 0x24 PUSH1 0x0 REVERT JUMPDEST EQ PUSH2 0xDDD JUMPI PUSH1 0x0 DUP1 REVERT JUMPDEST PUSH1 0x0 PUSH1 0x5 PUSH1 0x0 CALLER PUSH20 0xFFFFFFFFFFFFFFFFFFFFFFFFFFFFFFFFFFFFFFFF AND PUSH20 0xFFFFFFFFFFFFFFFFFFFFFFFFFFFFFFFFFFFFFFFF AND DUP2 MSTORE PUSH1 0x20 ADD SWAP1 DUP2 MSTORE PUSH1 0x20 ADD PUSH1 0x0 KECCAK256 SLOAD GT PUSH2 0xE29 JUMPI PUSH1 0x0 DUP1 REVERT JUMPDEST PUSH1 0x0 DUP1 JUMPDEST PUSH1 0xC SLOAD DUP2 LT ISZERO PUSH2 0xE8C JUMPI PUSH1 0x0 PUSH1 0xB PUSH1 0x0 DUP4 DUP2 MSTORE PUSH1 0x20 ADD SWAP1 DUP2 MSTORE PUSH1 0x20 ADD PUSH1 0x0 KECCAK256 SWAP1 POP DUP1 PUSH1 0x2 ADD PUSH1 0x14 SWAP1 SLOAD SWAP1 PUSH2 0x100 EXP SWAP1 DIV PUSH1 0xFF AND ISZERO PUSH2 0xE78 JUMPI DUP1 PUSH1 0x1 ADD SLOAD DUP4 PUSH2 0xE75 SWAP2 SWAP1 PUSH2 0x190B JUMP JUMPDEST SWAP3 POP JUMPDEST POP DUP1 DUP1 PUSH2 0xE84 SWAP1 PUSH2 0x1B5C JUMP JUMPDEST SWAP2 POP POP PUSH2 0xE2D JUMP JUMPDEST POP PUSH1 0x0 PUSH1 0x4 SLOAD DUP3 PUSH1 0x5 PUSH1 0x0 CALLER PUSH20 0xFFFFFFFFFFFFFFFFFFFFFFFFFFFFFFFFFFFFFFFF AND PUSH20 0xFFFFFFFFFFFFFFFFFFFFFFFFFFFFFFFFFFFFFFFF AND DUP2 MSTORE PUSH1 0x20 ADD SWAP1 DUP2 MSTORE PUSH1 0x20 ADD PUSH1 0x0 KECCAK256 SLOAD PUSH2 0xEDD SWAP2 SWAP1 PUSH2 0x1992 JUMP JUMPDEST PUSH2 0xEE7 SWAP2 SWAP1 PUSH2 0x1961 JUMP JUMPDEST PUSH1 0x5 PUSH1 0x0 CALLER PUSH20 0xFFFFFFFFFFFFFFFFFFFFFFFFFFFFFFFFFFFFFFFF AND PUSH20 0xFFFFFFFFFFFFFFFFFFFFFFFFFFFFFFFFFFFFFFFF AND DUP2 MSTORE PUSH1 0x20 ADD SWAP1 DUP2 MSTORE PUSH1 0x20 ADD PUSH1 0x0 KECCAK256 SLOAD PUSH2 0xF31 SWAP2 SWAP1 PUSH2 0x19EC JUMP JUMPDEST SWAP1 POP PUSH1 0x0 PUSH1 0x5 PUSH1 0x0 CALLER PUSH20 0xFFFFFFFFFFFFFFFFFFFFFFFFFFFFFFFFFFFFFFFF AND PUSH20 0xFFFFFFFFFFFFFFFFFFFFFFFFFFFFFFFFFFFFFFFF AND DUP2 MSTORE PUSH1 0x20 ADD SWAP1 DUP2 MSTORE PUSH1 0x20 ADD PUSH1 0x0 KECCAK256 DUP2 SWAP1 SSTORE POP CALLER PUSH20 0xFFFFFFFFFFFFFFFFFFFFFFFFFFFFFFFFFFFFFFFF AND PUSH2 0x8FC DUP3 SWAP1 DUP2 ISZERO MUL SWAP1 PUSH1 0x40 MLOAD PUSH1 0x0 PUSH1 0x40 MLOAD DUP1 DUP4 SUB DUP2 DUP6 DUP9 DUP9 CALL SWAP4 POP POP POP POP PUSH2 0x1000 JUMPI DUP1 PUSH1 0x5 PUSH1 0x0 CALLER PUSH20 0xFFFFFFFFFFFFFFFFFFFFFFFFFFFFFFFFFFFFFFFF AND PUSH20 0xFFFFFFFFFFFFFFFFFFFFFFFFFFFFFFFFFFFFFFFF AND DUP2 MSTORE PUSH1 0x20 ADD SWAP1 DUP2 MSTORE PUSH1 0x20 ADD PUSH1 0x0 KECCAK256 DUP2 SWAP1 SSTORE POP PUSH1 0x0 SWAP4 POP POP POP PUSH2 0x1033 JUMP JUMPDEST DUP1 PUSH1 0x4 SLOAD PUSH2 0x100E SWAP2 SWAP1 PUSH2 0x19EC JUMP JUMPDEST PUSH1 0x4 DUP2 SWAP1 SSTORE POP PUSH1 0xD PUSH1 0x0 DUP2 SLOAD DUP1 SWAP3 SWAP2 SWAP1 PUSH2 0x1027 SWAP1 PUSH2 0x1ACF JUMP JUMPDEST SWAP2 SWAP1 POP SSTORE POP PUSH1 0x1 SWAP4 POP POP POP JUMPDEST POP SWAP1 JUMP JUMPDEST PUSH1 0x6 PUSH1 0x0 SWAP1 SLOAD SWAP1 PUSH2 0x100 EXP SWAP1 DIV PUSH1 0xFF AND DUP2 JUMP JUMPDEST PUSH1 0x8 SLOAD DUP2 JUMP JUMPDEST PUSH1 0x2 DUP1 PUSH1 0x2 DUP2 GT ISZERO PUSH2 0x108B JUMPI PUSH32 0x4E487B7100000000000000000000000000000000000000000000000000000000 PUSH1 0x0 MSTORE PUSH1 0x21 PUSH1 0x4 MSTORE PUSH1 0x24 PUSH1 0x0 REVERT JUMPDEST PUSH1 0x6 PUSH1 0x0 SWAP1 SLOAD SWAP1 PUSH2 0x100 EXP SWAP1 DIV PUSH1 0xFF AND PUSH1 0x2 DUP2 GT ISZERO PUSH2 0x10D3 JUMPI PUSH32 0x4E487B7100000000000000000000000000000000000000000000000000000000 PUSH1 0x0 MSTORE PUSH1 0x21 PUSH1 0x4 MSTORE PUSH1 0x24 PUSH1 0x0 REVERT JUMPDEST EQ ISZERO PUSH2 0x10DE JUMPI PUSH1 0x0 DUP1 REVERT JUMPDEST PUSH1 0x7 SLOAD TIMESTAMP LT PUSH2 0x10EC JUMPI PUSH1 0x0 DUP1 REVERT JUMPDEST PUSH1 0x0 DUP1 SLOAD SWAP1 PUSH2 0x100 EXP SWAP1 DIV PUSH20 0xFFFFFFFFFFFFFFFFFFFFFFFFFFFFFFFFFFFFFFFF AND PUSH20 0xFFFFFFFFFFFFFFFFFFFFFFFFFFFFFFFFFFFFFFFF AND CALLER PUSH20 0xFFFFFFFFFFFFFFFFFFFFFFFFFFFFFFFFFFFFFFFF AND EQ ISZERO PUSH2 0x1145 JUMPI PUSH1 0x0 DUP1 REVERT JUMPDEST PUSH1 0x9 SLOAD CALLVALUE LT ISZERO PUSH2 0x1154 JUMPI PUSH1 0x0 DUP1 REVERT JUMPDEST CALLVALUE PUSH1 0x5 PUSH1 0x0 CALLER PUSH20 0xFFFFFFFFFFFFFFFFFFFFFFFFFFFFFFFFFFFFFFFF AND PUSH20 0xFFFFFFFFFFFFFFFFFFFFFFFFFFFFFFFFFFFFFFFF AND DUP2 MSTORE PUSH1 0x20 ADD SWAP1 DUP2 MSTORE PUSH1 0x20 ADD PUSH1 0x0 KECCAK256 SLOAD PUSH2 0x119F SWAP2 SWAP1 PUSH2 0x190B JUMP JUMPDEST PUSH1 0x5 PUSH1 0x0 CALLER PUSH20 0xFFFFFFFFFFFFFFFFFFFFFFFFFFFFFFFFFFFFFFFF AND PUSH20 0xFFFFFFFFFFFFFFFFFFFFFFFFFFFFFFFFFFFFFFFF AND DUP2 MSTORE PUSH1 0x20 ADD SWAP1 DUP2 MSTORE PUSH1 0x20 ADD PUSH1 0x0 KECCAK256 DUP2 SWAP1 SSTORE POP PUSH1 0xA PUSH1 0x0 CALLER PUSH20 0xFFFFFFFFFFFFFFFFFFFFFFFFFFFFFFFFFFFFFFFF AND PUSH20 0xFFFFFFFFFFFFFFFFFFFFFFFFFFFFFFFFFFFFFFFF AND DUP2 MSTORE PUSH1 0x20 ADD SWAP1 DUP2 MSTORE PUSH1 0x20 ADD PUSH1 0x0 KECCAK256 PUSH1 0x0 SWAP1 SLOAD SWAP1 PUSH2 0x100 EXP SWAP1 DIV PUSH1 0xFF AND PUSH2 0x12A4 JUMPI PUSH1 0x1 PUSH1 0xA PUSH1 0x0 CALLER PUSH20 0xFFFFFFFFFFFFFFFFFFFFFFFFFFFFFFFFFFFFFFFF AND PUSH20 0xFFFFFFFFFFFFFFFFFFFFFFFFFFFFFFFFFFFFFFFF AND DUP2 MSTORE PUSH1 0x20 ADD SWAP1 DUP2 MSTORE PUSH1 0x20 ADD PUSH1 0x0 KECCAK256 PUSH1 0x0 PUSH2 0x100 EXP DUP2 SLOAD DUP2 PUSH1 0xFF MUL NOT AND SWAP1 DUP4 ISZERO ISZERO MUL OR SWAP1 SSTORE POP PUSH1 0xD PUSH1 0x0 DUP2 SLOAD DUP1 SWAP3 SWAP2 SWAP1 PUSH2 0x129E SWAP1 PUSH2 0x1B5C JUMP JUMPDEST SWAP2 SWAP1 POP SSTORE POP JUMPDEST CALLVALUE PUSH1 0x4 SLOAD PUSH2 0x12B2 SWAP2 SWAP1 PUSH2 0x190B JUMP JUMPDEST PUSH1 0x4 DUP2 SWAP1 SSTORE POP CALLVALUE PUSH1 0x8 SLOAD PUSH2 0x12C6 SWAP2 SWAP1 PUSH2 0x190B JUMP JUMPDEST PUSH1 0x8 DUP2 SWAP1 SSTORE POP PUSH2 0x12D4 PUSH2 0x4F4 JUMP JUMPDEST POP JUMP JUMPDEST PUSH1 0x2 DUP1 PUSH1 0x2 DUP2 GT ISZERO PUSH2 0x1312 JUMPI PUSH32 0x4E487B7100000000000000000000000000000000000000000000000000000000 PUSH1 0x0 MSTORE PUSH1 0x21 PUSH1 0x4 MSTORE PUSH1 0x24 PUSH1 0x0 REVERT JUMPDEST PUSH1 0x6 PUSH1 0x0 SWAP1 SLOAD SWAP1 PUSH2 0x100 EXP SWAP1 DIV PUSH1 0xFF AND PUSH1 0x2 DUP2 GT ISZERO PUSH2 0x135A JUMPI PUSH32 0x4E487B7100000000000000000000000000000000000000000000000000000000 PUSH1 0x0 MSTORE PUSH1 0x21 PUSH1 0x4 MSTORE PUSH1 0x24 PUSH1 0x0 REVERT JUMPDEST EQ ISZERO PUSH2 0x1365 JUMPI PUSH1 0x0 DUP1 REVERT JUMPDEST PUSH1 0x0 PUSH1 0xB PUSH1 0x0 DUP5 DUP2 MSTORE PUSH1 0x20 ADD SWAP1 DUP2 MSTORE PUSH1 0x20 ADD PUSH1 0x0 KECCAK256 SWAP1 POP PUSH1 0xA PUSH1 0x0 CALLER PUSH20 0xFFFFFFFFFFFFFFFFFFFFFFFFFFFFFFFFFFFFFFFF AND PUSH20 0xFFFFFFFFFFFFFFFFFFFFFFFFFFFFFFFFFFFFFFFF AND DUP2 MSTORE PUSH1 0x20 ADD SWAP1 DUP2 MSTORE PUSH1 0x20 ADD PUSH1 0x0 KECCAK256 PUSH1 0x0 SWAP1 SLOAD SWAP1 PUSH2 0x100 EXP SWAP1 DIV PUSH1 0xFF AND PUSH2 0x13D2 JUMPI PUSH1 0x0 DUP1 REVERT JUMPDEST DUP1 PUSH1 0x4 ADD PUSH1 0x0 CALLER PUSH20 0xFFFFFFFFFFFFFFFFFFFFFFFFFFFFFFFFFFFFFFFF AND PUSH20 0xFFFFFFFFFFFFFFFFFFFFFFFFFFFFFFFFFFFFFFFF AND DUP2 MSTORE PUSH1 0x20 ADD SWAP1 DUP2 MSTORE PUSH1 0x20 ADD PUSH1 0x0 KECCAK256 PUSH1 0x0 SWAP1 SLOAD SWAP1 PUSH2 0x100 EXP SWAP1 DIV PUSH1 0xFF AND ISZERO PUSH2 0x142B JUMPI PUSH1 0x0 DUP1 REVERT JUMPDEST PUSH1 0x1 DUP2 PUSH1 0x4 ADD PUSH1 0x0 CALLER PUSH20 0xFFFFFFFFFFFFFFFFFFFFFFFFFFFFFFFFFFFFFFFF AND PUSH20 0xFFFFFFFFFFFFFFFFFFFFFFFFFFFFFFFFFFFFFFFF AND DUP2 MSTORE PUSH1 0x20 ADD SWAP1 DUP2 MSTORE PUSH1 0x20 ADD PUSH1 0x0 KECCAK256 PUSH1 0x0 PUSH2 0x100 EXP DUP2 SLOAD DUP2 PUSH1 0xFF MUL NOT AND SWAP1 DUP4 ISZERO ISZERO MUL OR SWAP1 SSTORE POP DUP1 PUSH1 0x3 ADD PUSH1 0x0 DUP2 SLOAD DUP1 SWAP3 SWAP2 SWAP1 PUSH2 0x149A SWAP1 PUSH2 0x1B5C JUMP JUMPDEST SWAP2 SWAP1 POP SSTORE POP POP POP POP JUMP JUMPDEST DUP3 DUP1 SLOAD PUSH2 0x14B0 SWAP1 PUSH2 0x1AF9 JUMP JUMPDEST SWAP1 PUSH1 0x0 MSTORE PUSH1 0x20 PUSH1 0x0 KECCAK256 SWAP1 PUSH1 0x1F ADD PUSH1 0x20 SWAP1 DIV DUP2 ADD SWAP3 DUP3 PUSH2 0x14D2 JUMPI PUSH1 0x0 DUP6 SSTORE PUSH2 0x1519 JUMP JUMPDEST DUP3 PUSH1 0x1F LT PUSH2 0x14EB JUMPI DUP1 MLOAD PUSH1 0xFF NOT AND DUP4 DUP1 ADD OR DUP6 SSTORE PUSH2 0x1519 JUMP JUMPDEST DUP3 DUP1 ADD PUSH1 0x1 ADD DUP6 SSTORE DUP3 ISZERO PUSH2 0x1519 JUMPI SWAP2 DUP3 ADD JUMPDEST DUP3 DUP2 GT ISZERO PUSH2 0x1518 JUMPI DUP3 MLOAD DUP3 SSTORE SWAP2 PUSH1 0x20 ADD SWAP2 SWAP1 PUSH1 0x1 ADD SWAP1 PUSH2 0x14FD JUMP JUMPDEST JUMPDEST POP SWAP1 POP PUSH2 0x1526 SWAP2 SWAP1 PUSH2 0x152A JUMP JUMPDEST POP SWAP1 JUMP JUMPDEST JUMPDEST DUP1 DUP3 GT ISZERO PUSH2 0x1543 JUMPI PUSH1 0x0 DUP2 PUSH1 0x0 SWAP1 SSTORE POP PUSH1 0x1 ADD PUSH2 0x152B JUMP JUMPDEST POP SWAP1 JUMP JUMPDEST PUSH1 0x0 PUSH2 0x155A PUSH2 0x1555 DUP5 PUSH2 0x18BE JUMP JUMPDEST PUSH2 0x1899 JUMP JUMPDEST SWAP1 POP DUP3 DUP2 MSTORE PUSH1 0x20 DUP2 ADD DUP5 DUP5 DUP5 ADD GT ISZERO PUSH2 0x1572 JUMPI PUSH1 0x0 DUP1 REVERT JUMPDEST PUSH2 0x157D DUP5 DUP3 DUP6 PUSH2 0x1A8D JUMP JUMPDEST POP SWAP4 SWAP3 POP POP POP JUMP JUMPDEST PUSH1 0x0 DUP2 CALLDATALOAD SWAP1 POP PUSH2 0x1594 DUP2 PUSH2 0x1CB5 JUMP JUMPDEST SWAP3 SWAP2 POP POP JUMP JUMPDEST PUSH1 0x0 DUP3 PUSH1 0x1F DUP4 ADD SLT PUSH2 0x15AB JUMPI PUSH1 0x0 DUP1 REVERT JUMPDEST DUP2 CALLDATALOAD PUSH2 0x15BB DUP5 DUP3 PUSH1 0x20 DUP7 ADD PUSH2 0x1547 JUMP JUMPDEST SWAP2 POP POP SWAP3 SWAP2 POP POP JUMP JUMPDEST PUSH1 0x0 DUP2 CALLDATALOAD SWAP1 POP PUSH2 0x15D3 DUP2 PUSH2 0x1CCC JUMP JUMPDEST SWAP3 SWAP2 POP POP JUMP JUMPDEST PUSH1 0x0 PUSH1 0x20 DUP3 DUP5 SUB SLT ISZERO PUSH2 0x15EB JUMPI PUSH1 0x0 DUP1 REVERT JUMPDEST PUSH1 0x0 PUSH2 0x15F9 DUP5 DUP3 DUP6 ADD PUSH2 0x1585 JUMP JUMPDEST SWAP2 POP POP SWAP3 SWAP2 POP POP JUMP JUMPDEST PUSH1 0x0 DUP1 PUSH1 0x0 PUSH1 0x60 DUP5 DUP7 SUB SLT ISZERO PUSH2 0x1617 JUMPI PUSH1 0x0 DUP1 REVERT JUMPDEST PUSH1 0x0 DUP5 ADD CALLDATALOAD PUSH8 0xFFFFFFFFFFFFFFFF DUP2 GT ISZERO PUSH2 0x1631 JUMPI PUSH1 0x0 DUP1 REVERT JUMPDEST PUSH2 0x163D DUP7 DUP3 DUP8 ADD PUSH2 0x159A JUMP JUMPDEST SWAP4 POP POP PUSH1 0x20 PUSH2 0x164E DUP7 DUP3 DUP8 ADD PUSH2 0x15C4 JUMP JUMPDEST SWAP3 POP POP PUSH1 0x40 PUSH2 0x165F DUP7 DUP3 DUP8 ADD PUSH2 0x1585 JUMP JUMPDEST SWAP2 POP POP SWAP3 POP SWAP3 POP SWAP3 JUMP JUMPDEST PUSH1 0x0 PUSH1 0x20 DUP3 DUP5 SUB SLT ISZERO PUSH2 0x167B JUMPI PUSH1 0x0 DUP1 REVERT JUMPDEST PUSH1 0x0 PUSH2 0x1689 DUP5 DUP3 DUP6 ADD PUSH2 0x15C4 JUMP JUMPDEST SWAP2 POP POP SWAP3 SWAP2 POP POP JUMP JUMPDEST PUSH2 0x169B DUP2 PUSH2 0x1A20 JUMP JUMPDEST DUP3 MSTORE POP POP JUMP JUMPDEST PUSH2 0x16AA DUP2 PUSH2 0x1A32 JUMP JUMPDEST DUP3 MSTORE POP POP JUMP JUMPDEST PUSH2 0x16B9 DUP2 PUSH2 0x1A7B JUMP JUMPDEST DUP3 MSTORE POP POP JUMP JUMPDEST PUSH1 0x0 PUSH2 0x16CA DUP3 PUSH2 0x18EF JUMP JUMPDEST PUSH2 0x16D4 DUP2 DUP6 PUSH2 0x18FA JUMP JUMPDEST SWAP4 POP PUSH2 0x16E4 DUP2 DUP6 PUSH1 0x20 DUP7 ADD PUSH2 0x1A9C JUMP JUMPDEST PUSH2 0x16ED DUP2 PUSH2 0x1C90 JUMP JUMPDEST DUP5 ADD SWAP2 POP POP SWAP3 SWAP2 POP POP JUMP JUMPDEST PUSH2 0x1701 DUP2 PUSH2 0x1A71 JUMP JUMPDEST DUP3 MSTORE POP POP JUMP JUMPDEST PUSH1 0x0 PUSH1 0x20 DUP3 ADD SWAP1 POP PUSH2 0x171C PUSH1 0x0 DUP4 ADD DUP5 PUSH2 0x1692 JUMP JUMPDEST SWAP3 SWAP2 POP POP JUMP JUMPDEST PUSH1 0x0 PUSH1 0x20 DUP3 ADD SWAP1 POP PUSH2 0x1737 PUSH1 0x0 DUP4 ADD DUP5 PUSH2 0x16A1 JUMP JUMPDEST SWAP3 SWAP2 POP POP JUMP JUMPDEST PUSH1 0x0 PUSH1 0x20 DUP3 ADD SWAP1 POP PUSH2 0x1752 PUSH1 0x0 DUP4 ADD DUP5 PUSH2 0x16B0 JUMP JUMPDEST SWAP3 SWAP2 POP POP JUMP JUMPDEST PUSH1 0x0 PUSH1 0x20 DUP3 ADD SWAP1 POP DUP2 DUP2 SUB PUSH1 0x0 DUP4 ADD MSTORE PUSH2 0x1772 DUP2 DUP5 PUSH2 0x16BF JUMP JUMPDEST SWAP1 POP SWAP3 SWAP2 POP POP JUMP JUMPDEST PUSH1 0x0 PUSH1 0xA0 DUP3 ADD SWAP1 POP DUP2 DUP2 SUB PUSH1 0x0 DUP4 ADD MSTORE PUSH2 0x1794 DUP2 DUP9 PUSH2 0x16BF JUMP JUMPDEST SWAP1 POP PUSH2 0x17A3 PUSH1 0x20 DUP4 ADD DUP8 PUSH2 0x16F8 JUMP JUMPDEST PUSH2 0x17B0 PUSH1 0x40 DUP4 ADD DUP7 PUSH2 0x1692 JUMP JUMPDEST PUSH2 0x17BD PUSH1 0x60 DUP4 ADD DUP6 PUSH2 0x16A1 JUMP JUMPDEST PUSH2 0x17CA PUSH1 0x80 DUP4 ADD DUP5 PUSH2 0x16F8 JUMP JUMPDEST SWAP7 SWAP6 POP POP POP POP POP POP JUMP JUMPDEST PUSH1 0x0 PUSH1 0x20 DUP3 ADD SWAP1 POP PUSH2 0x17E9 PUSH1 0x0 DUP4 ADD DUP5 PUSH2 0x16F8 JUMP JUMPDEST SWAP3 SWAP2 POP POP JUMP JUMPDEST PUSH1 0x0 PUSH2 0x140 DUP3 ADD SWAP1 POP PUSH2 0x1805 PUSH1 0x0 DUP4 ADD DUP14 PUSH2 0x16F8 JUMP JUMPDEST PUSH2 0x1812 PUSH1 0x20 DUP4 ADD DUP13 PUSH2 0x16F8 JUMP JUMPDEST PUSH2 0x181F PUSH1 0x40 DUP4 ADD DUP12 PUSH2 0x16F8 JUMP JUMPDEST PUSH2 0x182C PUSH1 0x60 DUP4 ADD DUP11 PUSH2 0x16F8 JUMP JUMPDEST PUSH2 0x1839 PUSH1 0x80 DUP4 ADD DUP10 PUSH2 0x1692 JUMP JUMPDEST DUP2 DUP2 SUB PUSH1 0xA0 DUP4 ADD MSTORE PUSH2 0x184B DUP2 DUP9 PUSH2 0x16BF JUMP JUMPDEST SWAP1 POP PUSH2 0x185A PUSH1 0xC0 DUP4 ADD DUP8 PUSH2 0x16F8 JUMP JUMPDEST DUP2 DUP2 SUB PUSH1 0xE0 DUP4 ADD MSTORE PUSH2 0x186C DUP2 DUP7 PUSH2 0x16BF JUMP JUMPDEST SWAP1 POP PUSH2 0x187C PUSH2 0x100 DUP4 ADD DUP6 PUSH2 0x16F8 JUMP JUMPDEST PUSH2 0x188A PUSH2 0x120 DUP4 ADD DUP5 PUSH2 0x16F8 JUMP JUMPDEST SWAP12 SWAP11 POP POP POP POP POP POP POP POP POP POP POP JUMP JUMPDEST PUSH1 0x0 PUSH2 0x18A3 PUSH2 0x18B4 JUMP JUMPDEST SWAP1 POP PUSH2 0x18AF DUP3 DUP3 PUSH2 0x1B2B JUMP JUMPDEST SWAP2 SWAP1 POP JUMP JUMPDEST PUSH1 0x0 PUSH1 0x40 MLOAD SWAP1 POP SWAP1 JUMP JUMPDEST PUSH1 0x0 PUSH8 0xFFFFFFFFFFFFFFFF DUP3 GT ISZERO PUSH2 0x18D9 JUMPI PUSH2 0x18D8 PUSH2 0x1C61 JUMP JUMPDEST JUMPDEST PUSH2 0x18E2 DUP3 PUSH2 0x1C90 JUMP JUMPDEST SWAP1 POP PUSH1 0x20 DUP2 ADD SWAP1 POP SWAP2 SWAP1 POP JUMP JUMPDEST PUSH1 0x0 DUP2 MLOAD SWAP1 POP SWAP2 SWAP1 POP JUMP JUMPDEST PUSH1 0x0 DUP3 DUP3 MSTORE PUSH1 0x20 DUP3 ADD SWAP1 POP SWAP3 SWAP2 POP POP JUMP JUMPDEST PUSH1 0x0 PUSH2 0x1916 DUP3 PUSH2 0x1A71 JUMP JUMPDEST SWAP2 POP PUSH2 0x1921 DUP4 PUSH2 0x1A71 JUMP JUMPDEST SWAP3 POP DUP3 PUSH32 0xFFFFFFFFFFFFFFFFFFFFFFFFFFFFFFFFFFFFFFFFFFFFFFFFFFFFFFFFFFFFFFFF SUB DUP3 GT ISZERO PUSH2 0x1956 JUMPI PUSH2 0x1955 PUSH2 0x1BA5 JUMP JUMPDEST JUMPDEST DUP3 DUP3 ADD SWAP1 POP SWAP3 SWAP2 POP POP JUMP JUMPDEST PUSH1 0x0 PUSH2 0x196C DUP3 PUSH2 0x1A71 JUMP JUMPDEST SWAP2 POP PUSH2 0x1977 DUP4 PUSH2 0x1A71 JUMP JUMPDEST SWAP3 POP DUP3 PUSH2 0x1987 JUMPI PUSH2 0x1986 PUSH2 0x1BD4 JUMP JUMPDEST JUMPDEST DUP3 DUP3 DIV SWAP1 POP SWAP3 SWAP2 POP POP JUMP JUMPDEST PUSH1 0x0 PUSH2 0x199D DUP3 PUSH2 0x1A71 JUMP JUMPDEST SWAP2 POP PUSH2 0x19A8 DUP4 PUSH2 0x1A71 JUMP JUMPDEST SWAP3 POP DUP2 PUSH32 0xFFFFFFFFFFFFFFFFFFFFFFFFFFFFFFFFFFFFFFFFFFFFFFFFFFFFFFFFFFFFFFFF DIV DUP4 GT DUP3 ISZERO ISZERO AND ISZERO PUSH2 0x19E1 JUMPI PUSH2 0x19E0 PUSH2 0x1BA5 JUMP JUMPDEST JUMPDEST DUP3 DUP3 MUL SWAP1 POP SWAP3 SWAP2 POP POP JUMP JUMPDEST PUSH1 0x0 PUSH2 0x19F7 DUP3 PUSH2 0x1A71 JUMP JUMPDEST SWAP2 POP PUSH2 0x1A02 DUP4 PUSH2 0x1A71 JUMP JUMPDEST SWAP3 POP DUP3 DUP3 LT ISZERO PUSH2 0x1A15 JUMPI PUSH2 0x1A14 PUSH2 0x1BA5 JUMP JUMPDEST JUMPDEST DUP3 DUP3 SUB SWAP1 POP SWAP3 SWAP2 POP POP JUMP JUMPDEST PUSH1 0x0 PUSH2 0x1A2B DUP3 PUSH2 0x1A51 JUMP JUMPDEST SWAP1 POP SWAP2 SWAP1 POP JUMP JUMPDEST PUSH1 0x0 DUP2 ISZERO ISZERO SWAP1 POP SWAP2 SWAP1 POP JUMP JUMPDEST PUSH1 0x0 DUP2 SWAP1 POP PUSH2 0x1A4C DUP3 PUSH2 0x1CA1 JUMP JUMPDEST SWAP2 SWAP1 POP JUMP JUMPDEST PUSH1 0x0 PUSH20 0xFFFFFFFFFFFFFFFFFFFFFFFFFFFFFFFFFFFFFFFF DUP3 AND SWAP1 POP SWAP2 SWAP1 POP JUMP JUMPDEST PUSH1 0x0 DUP2 SWAP1 POP SWAP2 SWAP1 POP JUMP JUMPDEST PUSH1 0x0 PUSH2 0x1A86 DUP3 PUSH2 0x1A3E JUMP JUMPDEST SWAP1 POP SWAP2 SWAP1 POP JUMP JUMPDEST DUP3 DUP2 DUP4 CALLDATACOPY PUSH1 0x0 DUP4 DUP4 ADD MSTORE POP POP POP JUMP JUMPDEST PUSH1 0x0 JUMPDEST DUP4 DUP2 LT ISZERO PUSH2 0x1ABA JUMPI DUP1 DUP3 ADD MLOAD DUP2 DUP5 ADD MSTORE PUSH1 0x20 DUP2 ADD SWAP1 POP PUSH2 0x1A9F JUMP JUMPDEST DUP4 DUP2 GT ISZERO PUSH2 0x1AC9 JUMPI PUSH1 0x0 DUP5 DUP5 ADD MSTORE JUMPDEST POP POP POP POP JUMP JUMPDEST PUSH1 0x0 PUSH2 0x1ADA DUP3 PUSH2 0x1A71 JUMP JUMPDEST SWAP2 POP PUSH1 0x0 DUP3 EQ ISZERO PUSH2 0x1AEE JUMPI PUSH2 0x1AED PUSH2 0x1BA5 JUMP JUMPDEST JUMPDEST PUSH1 0x1 DUP3 SUB SWAP1 POP SWAP2 SWAP1 POP JUMP JUMPDEST PUSH1 0x0 PUSH1 0x2 DUP3 DIV SWAP1 POP PUSH1 0x1 DUP3 AND DUP1 PUSH2 0x1B11 JUMPI PUSH1 0x7F DUP3 AND SWAP2 POP JUMPDEST PUSH1 0x20 DUP3 LT DUP2 EQ ISZERO PUSH2 0x1B25 JUMPI PUSH2 0x1B24 PUSH2 0x1C32 JUMP JUMPDEST JUMPDEST POP SWAP2 SWAP1 POP JUMP JUMPDEST PUSH2 0x1B34 DUP3 PUSH2 0x1C90 JUMP JUMPDEST DUP2 ADD DUP2 DUP2 LT PUSH8 0xFFFFFFFFFFFFFFFF DUP3 GT OR ISZERO PUSH2 0x1B53 JUMPI PUSH2 0x1B52 PUSH2 0x1C61 JUMP JUMPDEST JUMPDEST DUP1 PUSH1 0x40 MSTORE POP POP POP JUMP JUMPDEST PUSH1 0x0 PUSH2 0x1B67 DUP3 PUSH2 0x1A71 JUMP JUMPDEST SWAP2 POP PUSH32 0xFFFFFFFFFFFFFFFFFFFFFFFFFFFFFFFFFFFFFFFFFFFFFFFFFFFFFFFFFFFFFFFF DUP3 EQ ISZERO PUSH2 0x1B9A JUMPI PUSH2 0x1B99 PUSH2 0x1BA5 JUMP JUMPDEST JUMPDEST PUSH1 0x1 DUP3 ADD SWAP1 POP SWAP2 SWAP1 POP JUMP JUMPDEST PUSH32 0x4E487B7100000000000000000000000000000000000000000000000000000000 PUSH1 0x0 MSTORE PUSH1 0x11 PUSH1 0x4 MSTORE PUSH1 0x24 PUSH1 0x0 REVERT JUMPDEST PUSH32 0x4E487B7100000000000000000000000000000000000000000000000000000000 PUSH1 0x0 MSTORE PUSH1 0x12 PUSH1 0x4 MSTORE PUSH1 0x24 PUSH1 0x0 REVERT JUMPDEST PUSH32 0x4E487B7100000000000000000000000000000000000000000000000000000000 PUSH1 0x0 MSTORE PUSH1 0x21 PUSH1 0x4 MSTORE PUSH1 0x24 PUSH1 0x0 REVERT JUMPDEST PUSH32 0x4E487B7100000000000000000000000000000000000000000000000000000000 PUSH1 0x0 MSTORE PUSH1 0x22 PUSH1 0x4 MSTORE PUSH1 0x24 PUSH1 0x0 REVERT JUMPDEST PUSH32 0x4E487B7100000000000000000000000000000000000000000000000000000000 PUSH1 0x0 MSTORE PUSH1 0x41 PUSH1 0x4 MSTORE PUSH1 0x24 PUSH1 0x0 REVERT JUMPDEST PUSH1 0x0 PUSH1 0x1F NOT PUSH1 0x1F DUP4 ADD AND SWAP1 POP SWAP2 SWAP1 POP JUMP JUMPDEST PUSH1 0x3 DUP2 LT PUSH2 0x1CB2 JUMPI PUSH2 0x1CB1 PUSH2 0x1C03 JUMP JUMPDEST JUMPDEST POP JUMP JUMPDEST PUSH2 0x1CBE DUP2 PUSH2 0x1A20 JUMP JUMPDEST DUP2 EQ PUSH2 0x1CC9 JUMPI PUSH1 0x0 DUP1 REVERT JUMPDEST POP JUMP JUMPDEST PUSH2 0x1CD5 DUP2 PUSH2 0x1A71 JUMP JUMPDEST DUP2 EQ PUSH2 0x1CE0 JUMPI PUSH1 0x0 DUP1 REVERT JUMPDEST POP JUMP INVALID LOG2 PUSH5 0x6970667358 0x22 SLT KECCAK256 PUSH14 0xA501C10D1597A5C39A441D69DCF5 DUP10 SIGNEXTEND JUMP PUSH32 0xAA7C3DB73330F81417C552366C64736F6C634300080400330000000000000000 "},"gasEstimates":{"creation":{"codeDepositCost":"1489800","executionCost":"infinite","totalCost":"infinite"},"external":{"CampaignDescription()":"infinite","amountGoal()":"1197","approveRequest(uint256)":"infinite","approvers(address)":"1657","approversCount()":"1196","checkIfFundingFulfilledOrExpired()":"infinite","contribute()":"infinite","contributions(address)":"1625","createRequest(string,uint256,address)":"infinite","currentBalance()":"1217","finalizeRequest(uint256)":"infinite","getRefund()":"infinite","getSummary()":"infinite","getTotalContribution()":"1227","manager()":"1344","minimumContribution()":"1240","raiseBy()":"1196","requestCount()":"1152","requests(uint256)":"infinite","state()":"1326","titleCompaign()":"infinite","totalContribution()":"1152"}},"methodIdentifiers":{"CampaignDescription()":"97654a8c","amountGoal()":"0785001c","approveRequest(uint256)":"d7d1bbdb","approvers(address)":"0a144391","approversCount()":"82fde093","checkIfFundingFulfilledOrExpired()":"01c9039f","contribute()":"d7bb99ba","contributions(address)":"42e94c90","createRequest(string,uint256,address)":"8a9cfd55","currentBalance()":"ce845d1d","finalizeRequest(uint256)":"03441006","getRefund()":"b2d5ae44","getSummary()":"4051ddac","getTotalContribution()":"08caa910","manager()":"481c6a75","minimumContribution()":"937e09b1","raiseBy()":"37f944cc","requestCount()":"5badbe4c","requests(uint256)":"81d12c58","state()":"c19d93fb","titleCompaign()":"32461bd8","totalContribution()":"0dcf4b8f"}},"storageLayout":{"storage":[{"astId":111,"contract":"campaign.sol:Campaign","label":"manager","offset":0,"slot":"0","type":"t_address"},{"astId":113,"contract":"campaign.sol:Campaign","label":"titleCompaign","offset":0,"slot":"1","type":"t_string_storage"},{"astId":115,"contract":"campaign.sol:Campaign","label":"amountGoal","offset":0,"slot":"2","type":"t_uint256"},{"astId":117,"contract":"campaign.sol:Campaign","label":"CampaignDescription","offset":0,"slot":"3","type":"t_string_storage"},{"astId":119,"contract":"campaign.sol:Campaign","label":"totalContribution","offset":0,"slot":"4","type":"t_uint256"},{"astId":123,"contract":"campaign.sol:Campaign","label":"contributions","offset":0,"slot":"5","type":"t_mapping(t_address,t_uint256)"},{"astId":128,"contract":"campaign.sol:Campaign","label":"state","offset":0,"slot":"6","type":"t_enum(State)109"},{"astId":130,"contract":"campaign.sol:Campaign","label":"raiseBy","offset":0,"slot":"7","type":"t_uint256"},{"astId":132,"contract":"campaign.sol:Campaign","label":"currentBalance","offset":0,"slot":"8","type":"t_uint256"},{"astId":134,"contract":"campaign.sol:Campaign","label":"minimumContribution","offset":0,"slot":"9","type":"t_uint256"},{"astId":138,"contract":"campaign.sol:Campaign","label":"approvers","offset":0,"slot":"10","type":"t_mapping(t_address,t_bool)"},{"astId":143,"contract":"campaign.sol:Campaign","label":"requests","offset":0,"slot":"11","type":"t_mapping(t_uint256,t_struct(Request)105_storage)"},{"astId":145,"contract":"campaign.sol:Campaign","label":"requestCount","offset":0,"slot":"12","type":"t_uint256"},{"astId":147,"contract":"campaign.sol:Campaign","label":"approversCount","offset":0,"slot":"13","type":"t_uint256"}],"types":{"t_address":{"encoding":"inplace","label":"address","numberOfBytes":"20"},"t_bool":{"encoding":"inplace","label":"bool","numberOfBytes":"1"},"t_enum(State)109":{"encoding":"inplace","label":"enum Campaign.State","numberOfBytes":"1"},"t_mapping(t_address,t_bool)":{"encoding":"mapping","key":"t_address","label":"mapping(address => bool)","numberOfBytes":"32","value":"t_bool"},"t_mapping(t_address,t_uint256)":{"encoding":"mapping","key":"t_address","label":"mapping(address => uint256)","numberOfBytes":"32","value":"t_uint256"},"t_mapping(t_uint256,t_struct(Request)105_storage)":{"encoding":"mapping","key":"t_uint256","label":"mapping(uint256 => struct Campaign.Request)","numberOfBytes":"32","value":"t_struct(Request)105_storage"},"t_string_storage":{"encoding":"bytes","label":"string","numberOfBytes":"32"},"t_struct(Request)105_storage":{"encoding":"inplace","label":"struct Campaign.Request","members":[{"astId":92,"contract":"campaign.sol:Campaign","label":"description","offset":0,"slot":"0","type":"t_string_storage"},{"astId":94,"contract":"campaign.sol:Campaign","label":"value","offset":0,"slot":"1","type":"t_uint256"},{"astId":96,"contract":"campaign.sol:Campaign","label":"recipient","offset":0,"slot":"2","type":"t_address"},{"astId":98,"contract":"campaign.sol:Campaign","label":"complete","offset":20,"slot":"2","type":"t_bool"},{"astId":100,"contract":"campaign.sol:Campaign","label":"approvalCount","offset":0,"slot":"3","type":"t_uint256"},{"astId":104,"contract":"campaign.sol:Campaign","label":"approvals","offset":0,"slot":"4","type":"t_mapping(t_address,t_bool)"}],"numberOfBytes":"160"},"t_uint256":{"encoding":"inplace","label":"uint256","numberOfBytes":"32"}}},"userdoc":{"kind":"user","methods":{},"version":1}}