{"abi":[{"inputs":[{"internalType":"uint256","name":"","type":"uint256"}],"name":"campaigns","outputs":[{"internalType":"address","name":"campaign","type":"address"},{"internalType":"string","name":"title","type":"string"},{"internalType":"uint256","name":"goal","type":"uint256"},{"internalType":"string","name":"description","type":"string"},{"internalType":"uint256","name":"totalContribution","type":"uint256"}],"stateMutability":"view","type":"function"},{"inputs":[{"internalType":"uint256","name":"minimum","type":"uint256"},{"internalType":"uint256","name":"goal","type":"uint256"},{"internalType":"string","name":"title","type":"string"},{"internalType":"string","name":"desc","type":"string"}],"name":"createCampaign","outputs":[],"stateMutability":"nonpayable","type":"function"},{"inputs":[{"internalType":"uint256","name":"","type":"uint256"}],"name":"deployedCampaigns","outputs":[{"internalType":"address","name":"","type":"address"}],"stateMutability":"view","type":"function"},{"inputs":[],"name":"getDeployedContracts","outputs":[{"components":[{"internalType":"address","name":"campaign","type":"address"},{"internalType":"string","name":"title","type":"string"},{"internalType":"uint256","name":"goal","type":"uint256"},{"internalType":"string","name":"description","type":"string"},{"internalType":"uint256","name":"totalContribution","type":"uint256"}],"internalType":"struct CampaignFactory.campaignDeploy[]","name":"","type":"tuple[]"}],"stateMutability":"view","type":"function"}],"devdoc":{"kind":"dev","methods":{},"version":1},"evm":{"assembly":"    /* \"campaign.sol\":69:896  contract CampaignFactory {\r... */\n  mstore(0x40, 0x80)\n  callvalue\n  dup1\n  iszero\n  tag_1\n  jumpi\n  0x00\n  dup1\n  revert\ntag_1:\n  pop\n  dataSize(sub_0)\n  dup1\n  dataOffset(sub_0)\n  0x00\n  codecopy\n  0x00\n  return\nstop\n\nsub_0: assembly {\n        /* \"campaign.sol\":69:896  contract CampaignFactory {\r... */\n      mstore(0x40, 0x80)\n      callvalue\n      dup1\n      iszero\n      tag_1\n      jumpi\n      0x00\n      dup1\n      revert\n    tag_1:\n      pop\n      jumpi(tag_2, lt(calldatasize, 0x04))\n      shr(0xe0, calldataload(0x00))\n      dup1\n      0x141961bc\n      eq\n      tag_3\n      jumpi\n      dup1\n      0x339d50a5\n      eq\n      tag_4\n      jumpi\n      dup1\n      0xaa9a068f\n      eq\n      tag_5\n      jumpi\n      dup1\n      0xb63e0eb0\n      eq\n      tag_6\n      jumpi\n    tag_2:\n      0x00\n      dup1\n      revert\n        /* \"campaign.sol\":314:347  campaignDeploy[] public campaigns */\n    tag_3:\n      tag_7\n      0x04\n      dup1\n      calldatasize\n      sub\n      dup2\n      add\n      swap1\n      tag_8\n      swap2\n      swap1\n      tag_9\n      jump\t// in\n    tag_8:\n      tag_10\n      jump\t// in\n    tag_7:\n      mload(0x40)\n      tag_11\n      swap6\n      swap5\n      swap4\n      swap3\n      swap2\n      swap1\n      tag_12\n      jump\t// in\n    tag_11:\n      mload(0x40)\n      dup1\n      swap2\n      sub\n      swap1\n      return\n        /* \"campaign.sol\":101:135  address[] public deployedCampaigns */\n    tag_4:\n      tag_13\n      0x04\n      dup1\n      calldatasize\n      sub\n      dup2\n      add\n      swap1\n      tag_14\n      swap2\n      swap1\n      tag_9\n      jump\t// in\n    tag_14:\n      tag_15\n      jump\t// in\n    tag_13:\n      mload(0x40)\n      tag_16\n      swap2\n      swap1\n      tag_17\n      jump\t// in\n    tag_16:\n      mload(0x40)\n      dup1\n      swap2\n      sub\n      swap1\n      return\n        /* \"campaign.sol\":779:893  function getDeployedContracts() external view returns(campaignDeploy[] memory) {\r... */\n    tag_5:\n      tag_18\n      tag_19\n      jump\t// in\n    tag_18:\n      mload(0x40)\n      tag_20\n      swap2\n      swap1\n      tag_21\n      jump\t// in\n    tag_20:\n      mload(0x40)\n      dup1\n      swap2\n      sub\n      swap1\n      return\n        /* \"campaign.sol\":356:767  function createCampaign(uint minimum, uint goal, string memory title, string memory desc) external {\r... */\n    tag_6:\n      tag_22\n      0x04\n      dup1\n      calldatasize\n      sub\n      dup2\n      add\n      swap1\n      tag_23\n      swap2\n      swap1\n      tag_24\n      jump\t// in\n    tag_23:\n      tag_25\n      jump\t// in\n    tag_22:\n      stop\n        /* \"campaign.sol\":314:347  campaignDeploy[] public campaigns */\n    tag_10:\n      0x01\n      dup2\n      dup2\n      sload\n      dup2\n      lt\n      tag_26\n      jumpi\n      0x00\n      dup1\n      revert\n    tag_26:\n      swap1\n      0x00\n      mstore\n      keccak256(0x00, 0x20)\n      swap1\n      0x05\n      mul\n      add\n      0x00\n      swap2\n      pop\n      swap1\n      pop\n      dup1\n      0x00\n      add\n      0x00\n      swap1\n      sload\n      swap1\n      0x0100\n      exp\n      swap1\n      div\n      0xffffffffffffffffffffffffffffffffffffffff\n      and\n      swap1\n      dup1\n      0x01\n      add\n      dup1\n      sload\n      tag_28\n      swap1\n      tag_29\n      jump\t// in\n    tag_28:\n      dup1\n      0x1f\n      add\n      0x20\n      dup1\n      swap2\n      div\n      mul\n      0x20\n      add\n      mload(0x40)\n      swap1\n      dup2\n      add\n      0x40\n      mstore\n      dup1\n      swap3\n      swap2\n      swap1\n      dup2\n      dup2\n      mstore\n      0x20\n      add\n      dup3\n      dup1\n      sload\n      tag_30\n      swap1\n      tag_29\n      jump\t// in\n    tag_30:\n      dup1\n      iszero\n      tag_31\n      jumpi\n      dup1\n      0x1f\n      lt\n      tag_32\n      jumpi\n      0x0100\n      dup1\n      dup4\n      sload\n      div\n      mul\n      dup4\n      mstore\n      swap2\n      0x20\n      add\n      swap2\n      jump(tag_31)\n    tag_32:\n      dup3\n      add\n      swap2\n      swap1\n      0x00\n      mstore\n      keccak256(0x00, 0x20)\n      swap1\n    tag_33:\n      dup2\n      sload\n      dup2\n      mstore\n      swap1\n      0x01\n      add\n      swap1\n      0x20\n      add\n      dup1\n      dup4\n      gt\n      tag_33\n      jumpi\n      dup3\n      swap1\n      sub\n      0x1f\n      and\n      dup3\n      add\n      swap2\n    tag_31:\n      pop\n      pop\n      pop\n      pop\n      pop\n      swap1\n      dup1\n      0x02\n      add\n      sload\n      swap1\n      dup1\n      0x03\n      add\n      dup1\n      sload\n      tag_34\n      swap1\n      tag_29\n      jump\t// in\n    tag_34:\n      dup1\n      0x1f\n      add\n      0x20\n      dup1\n      swap2\n      div\n      mul\n      0x20\n      add\n      mload(0x40)\n      swap1\n      dup2\n      add\n      0x40\n      mstore\n      dup1\n      swap3\n      swap2\n      swap1\n      dup2\n      dup2\n      mstore\n      0x20\n      add\n      dup3\n      dup1\n      sload\n      tag_35\n      swap1\n      tag_29\n      jump\t// in\n    tag_35:\n      dup1\n      iszero\n      tag_36\n      jumpi\n      dup1\n      0x1f\n      lt\n      tag_37\n      jumpi\n      0x0100\n      dup1\n      dup4\n      sload\n      div\n      mul\n      dup4\n      mstore\n      swap2\n      0x20\n      add\n      swap2\n      jump(tag_36)\n    tag_37:\n      dup3\n      add\n      swap2\n      swap1\n      0x00\n      mstore\n      keccak256(0x00, 0x20)\n      swap1\n    tag_38:\n      dup2\n      sload\n      dup2\n      mstore\n      swap1\n      0x01\n      add\n      swap1\n      0x20\n      add\n      dup1\n      dup4\n      gt\n      tag_38\n      jumpi\n      dup3\n      swap1\n      sub\n      0x1f\n      and\n      dup3\n      add\n      swap2\n    tag_36:\n      pop\n      pop\n      pop\n      pop\n      pop\n      swap1\n      dup1\n      0x04\n      add\n      sload\n      swap1\n      pop\n      dup6\n      jump\t// out\n        /* \"campaign.sol\":101:135  address[] public deployedCampaigns */\n    tag_15:\n      0x00\n      dup2\n      dup2\n      sload\n      dup2\n      lt\n      tag_39\n      jumpi\n      0x00\n      dup1\n      revert\n    tag_39:\n      swap1\n      0x00\n      mstore\n      keccak256(0x00, 0x20)\n      add\n      0x00\n      swap2\n      pop\n      sload\n      swap1\n      0x0100\n      exp\n      swap1\n      div\n      0xffffffffffffffffffffffffffffffffffffffff\n      and\n      dup2\n      jump\t// out\n        /* \"campaign.sol\":779:893  function getDeployedContracts() external view returns(campaignDeploy[] memory) {\r... */\n    tag_19:\n        /* \"campaign.sol\":833:856  campaignDeploy[] memory */\n      0x60\n        /* \"campaign.sol\":876:885  campaigns */\n      0x01\n        /* \"campaign.sol\":869:885  return campaigns */\n      dup1\n      sload\n      dup1\n      0x20\n      mul\n      0x20\n      add\n      mload(0x40)\n      swap1\n      dup2\n      add\n      0x40\n      mstore\n      dup1\n      swap3\n      swap2\n      swap1\n      dup2\n      dup2\n      mstore\n      0x20\n      add\n      0x00\n      swap1\n    tag_42:\n      dup3\n      dup3\n      lt\n      iszero\n      tag_43\n      jumpi\n      dup4\n      dup3\n      swap1\n      0x00\n      mstore\n      keccak256(0x00, 0x20)\n      swap1\n      0x05\n      mul\n      add\n      mload(0x40)\n      dup1\n      0xa0\n      add\n      0x40\n      mstore\n      swap1\n      dup2\n      0x00\n      dup3\n      add\n      0x00\n      swap1\n      sload\n      swap1\n      0x0100\n      exp\n      swap1\n      div\n      0xffffffffffffffffffffffffffffffffffffffff\n      and\n      0xffffffffffffffffffffffffffffffffffffffff\n      and\n      0xffffffffffffffffffffffffffffffffffffffff\n      and\n      dup2\n      mstore\n      0x20\n      add\n      0x01\n      dup3\n      add\n      dup1\n      sload\n      tag_45\n      swap1\n      tag_29\n      jump\t// in\n    tag_45:\n      dup1\n      0x1f\n      add\n      0x20\n      dup1\n      swap2\n      div\n      mul\n      0x20\n      add\n      mload(0x40)\n      swap1\n      dup2\n      add\n      0x40\n      mstore\n      dup1\n      swap3\n      swap2\n      swap1\n      dup2\n      dup2\n      mstore\n      0x20\n      add\n      dup3\n      dup1\n      sload\n      tag_46\n      swap1\n      tag_29\n      jump\t// in\n    tag_46:\n      dup1\n      iszero\n      tag_47\n      jumpi\n      dup1\n      0x1f\n      lt\n      tag_48\n      jumpi\n      0x0100\n      dup1\n      dup4\n      sload\n      div\n      mul\n      dup4\n      mstore\n      swap2\n      0x20\n      add\n      swap2\n      jump(tag_47)\n    tag_48:\n      dup3\n      add\n      swap2\n      swap1\n      0x00\n      mstore\n      keccak256(0x00, 0x20)\n      swap1\n    tag_49:\n      dup2\n      sload\n      dup2\n      mstore\n      swap1\n      0x01\n      add\n      swap1\n      0x20\n      add\n      dup1\n      dup4\n      gt\n      tag_49\n      jumpi\n      dup3\n      swap1\n      sub\n      0x1f\n      and\n      dup3\n      add\n      swap2\n    tag_47:\n      pop\n      pop\n      pop\n      pop\n      pop\n      dup2\n      mstore\n      0x20\n      add\n      0x02\n      dup3\n      add\n      sload\n      dup2\n      mstore\n      0x20\n      add\n      0x03\n      dup3\n      add\n      dup1\n      sload\n      tag_50\n      swap1\n      tag_29\n      jump\t// in\n    tag_50:\n      dup1\n      0x1f\n      add\n      0x20\n      dup1\n      swap2\n      div\n      mul\n      0x20\n      add\n      mload(0x40)\n      swap1\n      dup2\n      add\n      0x40\n      mstore\n      dup1\n      swap3\n      swap2\n      swap1\n      dup2\n      dup2\n      mstore\n      0x20\n      add\n      dup3\n      dup1\n      sload\n      tag_51\n      swap1\n      tag_29\n      jump\t// in\n    tag_51:\n      dup1\n      iszero\n      tag_52\n      jumpi\n      dup1\n      0x1f\n      lt\n      tag_53\n      jumpi\n      0x0100\n      dup1\n      dup4\n      sload\n      div\n      mul\n      dup4\n      mstore\n      swap2\n      0x20\n      add\n      swap2\n      jump(tag_52)\n    tag_53:\n      dup3\n      add\n      swap2\n      swap1\n      0x00\n      mstore\n      keccak256(0x00, 0x20)\n      swap1\n    tag_54:\n      dup2\n      sload\n      dup2\n      mstore\n      swap1\n      0x01\n      add\n      swap1\n      0x20\n      add\n      dup1\n      dup4\n      gt\n      tag_54\n      jumpi\n      dup3\n      swap1\n      sub\n      0x1f\n      and\n      dup3\n      add\n      swap2\n    tag_52:\n      pop\n      pop\n      pop\n      pop\n      pop\n      dup2\n      mstore\n      0x20\n      add\n      0x04\n      dup3\n      add\n      sload\n      dup2\n      mstore\n      pop\n      pop\n      dup2\n      mstore\n      0x20\n      add\n      swap1\n      0x01\n      add\n      swap1\n      jump(tag_42)\n    tag_43:\n      pop\n      pop\n      pop\n      pop\n      swap1\n      pop\n        /* \"campaign.sol\":779:893  function getDeployedContracts() external view returns(campaignDeploy[] memory) {\r... */\n      swap1\n      jump\t// out\n        /* \"campaign.sol\":356:767  function createCampaign(uint minimum, uint goal, string memory title, string memory desc) external {\r... */\n    tag_25:\n        /* \"campaign.sol\":500:520  Campaign newCampaign */\n      0x00\n        /* \"campaign.sol\":536:543  minimum */\n      dup5\n        /* \"campaign.sol\":545:555  msg.sender */\n      caller\n        /* \"campaign.sol\":557:562  title */\n      dup5\n        /* \"campaign.sol\":564:568  goal */\n      dup7\n        /* \"campaign.sol\":570:574  desc */\n      dup6\n        /* \"campaign.sol\":523:575  new Campaign(minimum, msg.sender, title, goal, desc) */\n      mload(0x40)\n      tag_56\n      swap1\n      tag_57\n      jump\t// in\n    tag_56:\n      tag_58\n      swap6\n      swap5\n      swap4\n      swap3\n      swap2\n      swap1\n      tag_59\n      jump\t// in\n    tag_58:\n      mload(0x40)\n      dup1\n      swap2\n      sub\n      swap1\n      0x00\n      create\n      dup1\n      iszero\n      dup1\n      iszero\n      tag_60\n      jumpi\n      returndatasize\n      0x00\n      dup1\n      returndatacopy\n      revert(0x00, returndatasize)\n    tag_60:\n      pop\n        /* \"campaign.sol\":500:575  Campaign newCampaign = new Campaign(minimum, msg.sender, title, goal, desc) */\n      swap1\n      pop\n        /* \"campaign.sol\":652:661  campaigns */\n      0x01\n        /* \"campaign.sol\":667:758  campaignDeploy(address(newCampaign), title, goal, desc, newCampaign.getTotalContribution()) */\n      mload(0x40)\n      dup1\n      0xa0\n      add\n      0x40\n      mstore\n      dup1\n        /* \"campaign.sol\":690:701  newCampaign */\n      dup4\n        /* \"campaign.sol\":667:758  campaignDeploy(address(newCampaign), title, goal, desc, newCampaign.getTotalContribution()) */\n      0xffffffffffffffffffffffffffffffffffffffff\n      and\n      dup2\n      mstore\n      0x20\n      add\n        /* \"campaign.sol\":704:709  title */\n      dup6\n        /* \"campaign.sol\":667:758  campaignDeploy(address(newCampaign), title, goal, desc, newCampaign.getTotalContribution()) */\n      dup2\n      mstore\n      0x20\n      add\n        /* \"campaign.sol\":711:715  goal */\n      dup7\n        /* \"campaign.sol\":667:758  campaignDeploy(address(newCampaign), title, goal, desc, newCampaign.getTotalContribution()) */\n      dup2\n      mstore\n      0x20\n      add\n        /* \"campaign.sol\":717:721  desc */\n      dup5\n        /* \"campaign.sol\":667:758  campaignDeploy(address(newCampaign), title, goal, desc, newCampaign.getTotalContribution()) */\n      dup2\n      mstore\n      0x20\n      add\n        /* \"campaign.sol\":723:734  newCampaign */\n      dup4\n        /* \"campaign.sol\":723:755  newCampaign.getTotalContribution */\n      0xffffffffffffffffffffffffffffffffffffffff\n      and\n      0x08caa910\n        /* \"campaign.sol\":723:757  newCampaign.getTotalContribution() */\n      mload(0x40)\n      dup2\n      0xffffffff\n      and\n      0xe0\n      shl\n      dup2\n      mstore\n      0x04\n      add\n      0x20\n      mload(0x40)\n      dup1\n      dup4\n      sub\n      dup2\n      dup7\n      dup1\n      extcodesize\n      iszero\n      dup1\n      iszero\n      tag_61\n      jumpi\n      0x00\n      dup1\n      revert\n    tag_61:\n      pop\n      gas\n      staticcall\n      iszero\n      dup1\n      iszero\n      tag_63\n      jumpi\n      returndatasize\n      0x00\n      dup1\n      returndatacopy\n      revert(0x00, returndatasize)\n    tag_63:\n      pop\n      pop\n      pop\n      pop\n      mload(0x40)\n      returndatasize\n      not(0x1f)\n      0x1f\n      dup3\n      add\n      and\n      dup3\n      add\n      dup1\n      0x40\n      mstore\n      pop\n      dup2\n      add\n      swap1\n      tag_64\n      swap2\n      swap1\n      tag_65\n      jump\t// in\n    tag_64:\n        /* \"campaign.sol\":667:758  campaignDeploy(address(newCampaign), title, goal, desc, newCampaign.getTotalContribution()) */\n      dup2\n      mstore\n      pop\n        /* \"campaign.sol\":652:759  campaigns.push(campaignDeploy(address(newCampaign), title, goal, desc, newCampaign.getTotalContribution())) */\n      swap1\n      dup1\n      0x01\n      dup2\n      sload\n      add\n      dup1\n      dup3\n      sstore\n      dup1\n      swap2\n      pop\n      pop\n      0x01\n      swap1\n      sub\n      swap1\n      0x00\n      mstore\n      keccak256(0x00, 0x20)\n      swap1\n      0x05\n      mul\n      add\n      0x00\n      swap1\n      swap2\n      swap1\n      swap2\n      swap1\n      swap2\n      pop\n      0x00\n      dup3\n      add\n      mload\n      dup2\n      0x00\n      add\n      exp(0x0100, 0x00)\n      dup2\n      sload\n      dup2\n      0xffffffffffffffffffffffffffffffffffffffff\n      mul\n      not\n      and\n      swap1\n      dup4\n      0xffffffffffffffffffffffffffffffffffffffff\n      and\n      mul\n      or\n      swap1\n      sstore\n      pop\n      0x20\n      dup3\n      add\n      mload\n      dup2\n      0x01\n      add\n      swap1\n      dup1\n      mload\n      swap1\n      0x20\n      add\n      swap1\n      tag_67\n      swap3\n      swap2\n      swap1\n      tag_68\n      jump\t// in\n    tag_67:\n      pop\n      0x40\n      dup3\n      add\n      mload\n      dup2\n      0x02\n      add\n      sstore\n      0x60\n      dup3\n      add\n      mload\n      dup2\n      0x03\n      add\n      swap1\n      dup1\n      mload\n      swap1\n      0x20\n      add\n      swap1\n      tag_69\n      swap3\n      swap2\n      swap1\n      tag_68\n      jump\t// in\n    tag_69:\n      pop\n      0x80\n      dup3\n      add\n      mload\n      dup2\n      0x04\n      add\n      sstore\n      pop\n      pop\n        /* \"campaign.sol\":356:767  function createCampaign(uint minimum, uint goal, string memory title, string memory desc) external {\r... */\n      pop\n      pop\n      pop\n      pop\n      pop\n      jump\t// out\n    tag_57:\n      dataSize(sub_0)\n      dup1\n      dataOffset(sub_0)\n      dup4\n      codecopy\n      add\n      swap1\n      jump\t// out\n    tag_68:\n      dup3\n      dup1\n      sload\n      tag_70\n      swap1\n      tag_29\n      jump\t// in\n    tag_70:\n      swap1\n      0x00\n      mstore\n      keccak256(0x00, 0x20)\n      swap1\n      0x1f\n      add\n      0x20\n      swap1\n      div\n      dup2\n      add\n      swap3\n      dup3\n      tag_72\n      jumpi\n      0x00\n      dup6\n      sstore\n      jump(tag_71)\n    tag_72:\n      dup3\n      0x1f\n      lt\n      tag_73\n      jumpi\n      dup1\n      mload\n      not(0xff)\n      and\n      dup4\n      dup1\n      add\n      or\n      dup6\n      sstore\n      jump(tag_71)\n    tag_73:\n      dup3\n      dup1\n      add\n      0x01\n      add\n      dup6\n      sstore\n      dup3\n      iszero\n      tag_71\n      jumpi\n      swap2\n      dup3\n      add\n    tag_74:\n      dup3\n      dup2\n      gt\n      iszero\n      tag_75\n      jumpi\n      dup3\n      mload\n      dup3\n      sstore\n      swap2\n      0x20\n      add\n      swap2\n      swap1\n      0x01\n      add\n      swap1\n      jump(tag_74)\n    tag_75:\n    tag_71:\n      pop\n      swap1\n      pop\n      tag_76\n      swap2\n      swap1\n      tag_77\n      jump\t// in\n    tag_76:\n      pop\n      swap1\n      jump\t// out\n    tag_77:\n    tag_78:\n      dup1\n      dup3\n      gt\n      iszero\n      tag_79\n      jumpi\n      0x00\n      dup2\n      0x00\n      swap1\n      sstore\n      pop\n      0x01\n      add\n      jump(tag_78)\n    tag_79:\n      pop\n      swap1\n      jump\t// out\n        /* \"#utility.yul\":7:352   */\n    tag_81:\n        /* \"#utility.yul\":85:90   */\n      0x00\n        /* \"#utility.yul\":110:176   */\n      tag_83\n        /* \"#utility.yul\":126:175   */\n      tag_84\n        /* \"#utility.yul\":168:174   */\n      dup5\n        /* \"#utility.yul\":126:175   */\n      tag_85\n      jump\t// in\n    tag_84:\n        /* \"#utility.yul\":110:176   */\n      tag_86\n      jump\t// in\n    tag_83:\n        /* \"#utility.yul\":101:176   */\n      swap1\n      pop\n        /* \"#utility.yul\":199:205   */\n      dup3\n        /* \"#utility.yul\":192:197   */\n      dup2\n        /* \"#utility.yul\":185:206   */\n      mstore\n        /* \"#utility.yul\":237:241   */\n      0x20\n        /* \"#utility.yul\":230:235   */\n      dup2\n        /* \"#utility.yul\":226:242   */\n      add\n        /* \"#utility.yul\":275:278   */\n      dup5\n        /* \"#utility.yul\":266:272   */\n      dup5\n        /* \"#utility.yul\":261:264   */\n      dup5\n        /* \"#utility.yul\":257:273   */\n      add\n        /* \"#utility.yul\":254:279   */\n      gt\n        /* \"#utility.yul\":251:253   */\n      iszero\n      tag_87\n      jumpi\n        /* \"#utility.yul\":292:293   */\n      0x00\n        /* \"#utility.yul\":289:290   */\n      dup1\n        /* \"#utility.yul\":282:294   */\n      revert\n        /* \"#utility.yul\":251:253   */\n    tag_87:\n        /* \"#utility.yul\":305:346   */\n      tag_88\n        /* \"#utility.yul\":339:345   */\n      dup5\n        /* \"#utility.yul\":334:337   */\n      dup3\n        /* \"#utility.yul\":329:332   */\n      dup6\n        /* \"#utility.yul\":305:346   */\n      tag_89\n      jump\t// in\n    tag_88:\n        /* \"#utility.yul\":91:352   */\n      pop\n      swap4\n      swap3\n      pop\n      pop\n      pop\n      jump\t// out\n        /* \"#utility.yul\":372:645   */\n    tag_90:\n        /* \"#utility.yul\":428:433   */\n      0x00\n        /* \"#utility.yul\":477:480   */\n      dup3\n        /* \"#utility.yul\":470:474   */\n      0x1f\n        /* \"#utility.yul\":462:468   */\n      dup4\n        /* \"#utility.yul\":458:475   */\n      add\n        /* \"#utility.yul\":454:481   */\n      slt\n        /* \"#utility.yul\":444:446   */\n      tag_92\n      jumpi\n        /* \"#utility.yul\":495:496   */\n      0x00\n        /* \"#utility.yul\":492:493   */\n      dup1\n        /* \"#utility.yul\":485:497   */\n      revert\n        /* \"#utility.yul\":444:446   */\n    tag_92:\n        /* \"#utility.yul\":535:541   */\n      dup2\n        /* \"#utility.yul\":522:542   */\n      calldataload\n        /* \"#utility.yul\":560:639   */\n      tag_93\n        /* \"#utility.yul\":635:638   */\n      dup5\n        /* \"#utility.yul\":627:633   */\n      dup3\n        /* \"#utility.yul\":620:624   */\n      0x20\n        /* \"#utility.yul\":612:618   */\n      dup7\n        /* \"#utility.yul\":608:625   */\n      add\n        /* \"#utility.yul\":560:639   */\n      tag_81\n      jump\t// in\n    tag_93:\n        /* \"#utility.yul\":551:639   */\n      swap2\n      pop\n        /* \"#utility.yul\":434:645   */\n      pop\n      swap3\n      swap2\n      pop\n      pop\n      jump\t// out\n        /* \"#utility.yul\":651:790   */\n    tag_94:\n        /* \"#utility.yul\":697:702   */\n      0x00\n        /* \"#utility.yul\":735:741   */\n      dup2\n        /* \"#utility.yul\":722:742   */\n      calldataload\n        /* \"#utility.yul\":713:742   */\n      swap1\n      pop\n        /* \"#utility.yul\":751:784   */\n      tag_96\n        /* \"#utility.yul\":778:783   */\n      dup2\n        /* \"#utility.yul\":751:784   */\n      tag_97\n      jump\t// in\n    tag_96:\n        /* \"#utility.yul\":703:790   */\n      swap3\n      swap2\n      pop\n      pop\n      jump\t// out\n        /* \"#utility.yul\":796:939   */\n    tag_98:\n        /* \"#utility.yul\":853:858   */\n      0x00\n        /* \"#utility.yul\":884:890   */\n      dup2\n        /* \"#utility.yul\":878:891   */\n      mload\n        /* \"#utility.yul\":869:891   */\n      swap1\n      pop\n        /* \"#utility.yul\":900:933   */\n      tag_100\n        /* \"#utility.yul\":927:932   */\n      dup2\n        /* \"#utility.yul\":900:933   */\n      tag_97\n      jump\t// in\n    tag_100:\n        /* \"#utility.yul\":859:939   */\n      swap3\n      swap2\n      pop\n      pop\n      jump\t// out\n        /* \"#utility.yul\":945:1207   */\n    tag_9:\n        /* \"#utility.yul\":1004:1010   */\n      0x00\n        /* \"#utility.yul\":1053:1055   */\n      0x20\n        /* \"#utility.yul\":1041:1050   */\n      dup3\n        /* \"#utility.yul\":1032:1039   */\n      dup5\n        /* \"#utility.yul\":1028:1051   */\n      sub\n        /* \"#utility.yul\":1024:1056   */\n      slt\n        /* \"#utility.yul\":1021:1023   */\n      iszero\n      tag_102\n      jumpi\n        /* \"#utility.yul\":1069:1070   */\n      0x00\n        /* \"#utility.yul\":1066:1067   */\n      dup1\n        /* \"#utility.yul\":1059:1071   */\n      revert\n        /* \"#utility.yul\":1021:1023   */\n    tag_102:\n        /* \"#utility.yul\":1112:1113   */\n      0x00\n        /* \"#utility.yul\":1137:1190   */\n      tag_103\n        /* \"#utility.yul\":1182:1189   */\n      dup5\n        /* \"#utility.yul\":1173:1179   */\n      dup3\n        /* \"#utility.yul\":1162:1171   */\n      dup6\n        /* \"#utility.yul\":1158:1180   */\n      add\n        /* \"#utility.yul\":1137:1190   */\n      tag_94\n      jump\t// in\n    tag_103:\n        /* \"#utility.yul\":1127:1190   */\n      swap2\n      pop\n        /* \"#utility.yul\":1083:1200   */\n      pop\n        /* \"#utility.yul\":1011:1207   */\n      swap3\n      swap2\n      pop\n      pop\n      jump\t// out\n        /* \"#utility.yul\":1213:1497   */\n    tag_65:\n        /* \"#utility.yul\":1283:1289   */\n      0x00\n        /* \"#utility.yul\":1332:1334   */\n      0x20\n        /* \"#utility.yul\":1320:1329   */\n      dup3\n        /* \"#utility.yul\":1311:1318   */\n      dup5\n        /* \"#utility.yul\":1307:1330   */\n      sub\n        /* \"#utility.yul\":1303:1335   */\n      slt\n        /* \"#utility.yul\":1300:1302   */\n      iszero\n      tag_105\n      jumpi\n        /* \"#utility.yul\":1348:1349   */\n      0x00\n        /* \"#utility.yul\":1345:1346   */\n      dup1\n        /* \"#utility.yul\":1338:1350   */\n      revert\n        /* \"#utility.yul\":1300:1302   */\n    tag_105:\n        /* \"#utility.yul\":1391:1392   */\n      0x00\n        /* \"#utility.yul\":1416:1480   */\n      tag_106\n        /* \"#utility.yul\":1472:1479   */\n      dup5\n        /* \"#utility.yul\":1463:1469   */\n      dup3\n        /* \"#utility.yul\":1452:1461   */\n      dup6\n        /* \"#utility.yul\":1448:1470   */\n      add\n        /* \"#utility.yul\":1416:1480   */\n      tag_98\n      jump\t// in\n    tag_106:\n        /* \"#utility.yul\":1406:1480   */\n      swap2\n      pop\n        /* \"#utility.yul\":1362:1490   */\n      pop\n        /* \"#utility.yul\":1290:1497   */\n      swap3\n      swap2\n      pop\n      pop\n      jump\t// out\n        /* \"#utility.yul\":1503:2427   */\n    tag_24:\n        /* \"#utility.yul\":1609:1615   */\n      0x00\n        /* \"#utility.yul\":1617:1623   */\n      dup1\n        /* \"#utility.yul\":1625:1631   */\n      0x00\n        /* \"#utility.yul\":1633:1639   */\n      dup1\n        /* \"#utility.yul\":1682:1685   */\n      0x80\n        /* \"#utility.yul\":1670:1679   */\n      dup6\n        /* \"#utility.yul\":1661:1668   */\n      dup8\n        /* \"#utility.yul\":1657:1680   */\n      sub\n        /* \"#utility.yul\":1653:1686   */\n      slt\n        /* \"#utility.yul\":1650:1652   */\n      iszero\n      tag_108\n      jumpi\n        /* \"#utility.yul\":1699:1700   */\n      0x00\n        /* \"#utility.yul\":1696:1697   */\n      dup1\n        /* \"#utility.yul\":1689:1701   */\n      revert\n        /* \"#utility.yul\":1650:1652   */\n    tag_108:\n        /* \"#utility.yul\":1742:1743   */\n      0x00\n        /* \"#utility.yul\":1767:1820   */\n      tag_109\n        /* \"#utility.yul\":1812:1819   */\n      dup8\n        /* \"#utility.yul\":1803:1809   */\n      dup3\n        /* \"#utility.yul\":1792:1801   */\n      dup9\n        /* \"#utility.yul\":1788:1810   */\n      add\n        /* \"#utility.yul\":1767:1820   */\n      tag_94\n      jump\t// in\n    tag_109:\n        /* \"#utility.yul\":1757:1820   */\n      swap5\n      pop\n        /* \"#utility.yul\":1713:1830   */\n      pop\n        /* \"#utility.yul\":1869:1871   */\n      0x20\n        /* \"#utility.yul\":1895:1948   */\n      tag_110\n        /* \"#utility.yul\":1940:1947   */\n      dup8\n        /* \"#utility.yul\":1931:1937   */\n      dup3\n        /* \"#utility.yul\":1920:1929   */\n      dup9\n        /* \"#utility.yul\":1916:1938   */\n      add\n        /* \"#utility.yul\":1895:1948   */\n      tag_94\n      jump\t// in\n    tag_110:\n        /* \"#utility.yul\":1885:1948   */\n      swap4\n      pop\n        /* \"#utility.yul\":1840:1958   */\n      pop\n        /* \"#utility.yul\":2025:2027   */\n      0x40\n        /* \"#utility.yul\":2014:2023   */\n      dup6\n        /* \"#utility.yul\":2010:2028   */\n      add\n        /* \"#utility.yul\":1997:2029   */\n      calldataload\n        /* \"#utility.yul\":2056:2074   */\n      0xffffffffffffffff\n        /* \"#utility.yul\":2048:2054   */\n      dup2\n        /* \"#utility.yul\":2045:2075   */\n      gt\n        /* \"#utility.yul\":2042:2044   */\n      iszero\n      tag_111\n      jumpi\n        /* \"#utility.yul\":2088:2089   */\n      0x00\n        /* \"#utility.yul\":2085:2086   */\n      dup1\n        /* \"#utility.yul\":2078:2090   */\n      revert\n        /* \"#utility.yul\":2042:2044   */\n    tag_111:\n        /* \"#utility.yul\":2116:2179   */\n      tag_112\n        /* \"#utility.yul\":2171:2178   */\n      dup8\n        /* \"#utility.yul\":2162:2168   */\n      dup3\n        /* \"#utility.yul\":2151:2160   */\n      dup9\n        /* \"#utility.yul\":2147:2169   */\n      add\n        /* \"#utility.yul\":2116:2179   */\n      tag_90\n      jump\t// in\n    tag_112:\n        /* \"#utility.yul\":2106:2179   */\n      swap3\n      pop\n        /* \"#utility.yul\":1968:2189   */\n      pop\n        /* \"#utility.yul\":2256:2258   */\n      0x60\n        /* \"#utility.yul\":2245:2254   */\n      dup6\n        /* \"#utility.yul\":2241:2259   */\n      add\n        /* \"#utility.yul\":2228:2260   */\n      calldataload\n        /* \"#utility.yul\":2287:2305   */\n      0xffffffffffffffff\n        /* \"#utility.yul\":2279:2285   */\n      dup2\n        /* \"#utility.yul\":2276:2306   */\n      gt\n        /* \"#utility.yul\":2273:2275   */\n      iszero\n      tag_113\n      jumpi\n        /* \"#utility.yul\":2319:2320   */\n      0x00\n        /* \"#utility.yul\":2316:2317   */\n      dup1\n        /* \"#utility.yul\":2309:2321   */\n      revert\n        /* \"#utility.yul\":2273:2275   */\n    tag_113:\n        /* \"#utility.yul\":2347:2410   */\n      tag_114\n        /* \"#utility.yul\":2402:2409   */\n      dup8\n        /* \"#utility.yul\":2393:2399   */\n      dup3\n        /* \"#utility.yul\":2382:2391   */\n      dup9\n        /* \"#utility.yul\":2378:2400   */\n      add\n        /* \"#utility.yul\":2347:2410   */\n      tag_90\n      jump\t// in\n    tag_114:\n        /* \"#utility.yul\":2337:2410   */\n      swap2\n      pop\n        /* \"#utility.yul\":2199:2420   */\n      pop\n        /* \"#utility.yul\":1640:2427   */\n      swap3\n      swap6\n      swap2\n      swap5\n      pop\n      swap3\n      pop\n      jump\t// out\n        /* \"#utility.yul\":2433:2709   */\n    tag_115:\n        /* \"#utility.yul\":2562:2572   */\n      0x00\n        /* \"#utility.yul\":2597:2703   */\n      tag_117\n        /* \"#utility.yul\":2699:2702   */\n      dup4\n        /* \"#utility.yul\":2691:2697   */\n      dup4\n        /* \"#utility.yul\":2597:2703   */\n      tag_118\n      jump\t// in\n    tag_117:\n        /* \"#utility.yul\":2583:2703   */\n      swap1\n      pop\n        /* \"#utility.yul\":2573:2709   */\n      swap3\n      swap2\n      pop\n      pop\n      jump\t// out\n        /* \"#utility.yul\":2715:2823   */\n    tag_119:\n        /* \"#utility.yul\":2792:2816   */\n      tag_121\n        /* \"#utility.yul\":2810:2815   */\n      dup2\n        /* \"#utility.yul\":2792:2816   */\n      tag_122\n      jump\t// in\n    tag_121:\n        /* \"#utility.yul\":2787:2790   */\n      dup3\n        /* \"#utility.yul\":2780:2817   */\n      mstore\n        /* \"#utility.yul\":2770:2823   */\n      pop\n      pop\n      jump\t// out\n        /* \"#utility.yul\":2829:2947   */\n    tag_123:\n        /* \"#utility.yul\":2916:2940   */\n      tag_125\n        /* \"#utility.yul\":2934:2939   */\n      dup2\n        /* \"#utility.yul\":2916:2940   */\n      tag_122\n      jump\t// in\n    tag_125:\n        /* \"#utility.yul\":2911:2914   */\n      dup3\n        /* \"#utility.yul\":2904:2941   */\n      mstore\n        /* \"#utility.yul\":2894:2947   */\n      pop\n      pop\n      jump\t// out\n        /* \"#utility.yul\":3043:4194   */\n    tag_126:\n        /* \"#utility.yul\":3222:3225   */\n      0x00\n        /* \"#utility.yul\":3251:3335   */\n      tag_128\n        /* \"#utility.yul\":3329:3334   */\n      dup3\n        /* \"#utility.yul\":3251:3335   */\n      tag_129\n      jump\t// in\n    tag_128:\n        /* \"#utility.yul\":3351:3467   */\n      tag_130\n        /* \"#utility.yul\":3460:3466   */\n      dup2\n        /* \"#utility.yul\":3455:3458   */\n      dup6\n        /* \"#utility.yul\":3351:3467   */\n      tag_131\n      jump\t// in\n    tag_130:\n        /* \"#utility.yul\":3344:3467   */\n      swap4\n      pop\n        /* \"#utility.yul\":3493:3496   */\n      dup4\n        /* \"#utility.yul\":3538:3542   */\n      0x20\n        /* \"#utility.yul\":3530:3536   */\n      dup3\n        /* \"#utility.yul\":3526:3543   */\n      mul\n        /* \"#utility.yul\":3521:3524   */\n      dup6\n        /* \"#utility.yul\":3517:3544   */\n      add\n        /* \"#utility.yul\":3568:3654   */\n      tag_132\n        /* \"#utility.yul\":3648:3653   */\n      dup6\n        /* \"#utility.yul\":3568:3654   */\n      tag_133\n      jump\t// in\n    tag_132:\n        /* \"#utility.yul\":3677:3684   */\n      dup1\n        /* \"#utility.yul\":3708:3709   */\n      0x00\n        /* \"#utility.yul\":3693:4149   */\n    tag_134:\n        /* \"#utility.yul\":3718:3724   */\n      dup6\n        /* \"#utility.yul\":3715:3716   */\n      dup2\n        /* \"#utility.yul\":3712:3725   */\n      lt\n        /* \"#utility.yul\":3693:4149   */\n      iszero\n      tag_136\n      jumpi\n        /* \"#utility.yul\":3789:3798   */\n      dup5\n        /* \"#utility.yul\":3783:3787   */\n      dup5\n        /* \"#utility.yul\":3779:3799   */\n      sub\n        /* \"#utility.yul\":3774:3777   */\n      dup10\n        /* \"#utility.yul\":3767:3800   */\n      mstore\n        /* \"#utility.yul\":3840:3846   */\n      dup2\n        /* \"#utility.yul\":3834:3847   */\n      mload\n        /* \"#utility.yul\":3868:3992   */\n      tag_137\n        /* \"#utility.yul\":3987:3991   */\n      dup6\n        /* \"#utility.yul\":3972:3985   */\n      dup3\n        /* \"#utility.yul\":3868:3992   */\n      tag_115\n      jump\t// in\n    tag_137:\n        /* \"#utility.yul\":3860:3992   */\n      swap5\n      pop\n        /* \"#utility.yul\":4015:4105   */\n      tag_138\n        /* \"#utility.yul\":4098:4104   */\n      dup4\n        /* \"#utility.yul\":4015:4105   */\n      tag_139\n      jump\t// in\n    tag_138:\n        /* \"#utility.yul\":4005:4105   */\n      swap3\n      pop\n        /* \"#utility.yul\":4134:4138   */\n      0x20\n        /* \"#utility.yul\":4129:4132   */\n      dup11\n        /* \"#utility.yul\":4125:4139   */\n      add\n        /* \"#utility.yul\":4118:4139   */\n      swap10\n      pop\n        /* \"#utility.yul\":3753:4149   */\n      pop\n        /* \"#utility.yul\":3740:3741   */\n      0x01\n        /* \"#utility.yul\":3737:3738   */\n      dup2\n        /* \"#utility.yul\":3733:3742   */\n      add\n        /* \"#utility.yul\":3728:3742   */\n      swap1\n      pop\n        /* \"#utility.yul\":3693:4149   */\n      jump(tag_134)\n    tag_136:\n        /* \"#utility.yul\":3697:3711   */\n      pop\n        /* \"#utility.yul\":4165:4169   */\n      dup3\n        /* \"#utility.yul\":4158:4169   */\n      swap8\n      pop\n        /* \"#utility.yul\":4185:4188   */\n      dup8\n        /* \"#utility.yul\":4178:4188   */\n      swap6\n      pop\n        /* \"#utility.yul\":3227:4194   */\n      pop\n      pop\n      pop\n      pop\n      pop\n      swap3\n      swap2\n      pop\n      pop\n      jump\t// out\n        /* \"#utility.yul\":4200:4544   */\n    tag_140:\n        /* \"#utility.yul\":4278:4281   */\n      0x00\n        /* \"#utility.yul\":4306:4345   */\n      tag_142\n        /* \"#utility.yul\":4339:4344   */\n      dup3\n        /* \"#utility.yul\":4306:4345   */\n      tag_143\n      jump\t// in\n    tag_142:\n        /* \"#utility.yul\":4361:4422   */\n      tag_144\n        /* \"#utility.yul\":4415:4421   */\n      dup2\n        /* \"#utility.yul\":4410:4413   */\n      dup6\n        /* \"#utility.yul\":4361:4422   */\n      tag_145\n      jump\t// in\n    tag_144:\n        /* \"#utility.yul\":4354:4422   */\n      swap4\n      pop\n        /* \"#utility.yul\":4431:4483   */\n      tag_146\n        /* \"#utility.yul\":4476:4482   */\n      dup2\n        /* \"#utility.yul\":4471:4474   */\n      dup6\n        /* \"#utility.yul\":4464:4468   */\n      0x20\n        /* \"#utility.yul\":4457:4462   */\n      dup7\n        /* \"#utility.yul\":4453:4469   */\n      add\n        /* \"#utility.yul\":4431:4483   */\n      tag_147\n      jump\t// in\n    tag_146:\n        /* \"#utility.yul\":4508:4537   */\n      tag_148\n        /* \"#utility.yul\":4530:4536   */\n      dup2\n        /* \"#utility.yul\":4508:4537   */\n      tag_149\n      jump\t// in\n    tag_148:\n        /* \"#utility.yul\":4503:4506   */\n      dup5\n        /* \"#utility.yul\":4499:4538   */\n      add\n        /* \"#utility.yul\":4492:4538   */\n      swap2\n      pop\n        /* \"#utility.yul\":4282:4544   */\n      pop\n      swap3\n      swap2\n      pop\n      pop\n      jump\t// out\n        /* \"#utility.yul\":4550:4914   */\n    tag_150:\n        /* \"#utility.yul\":4638:4641   */\n      0x00\n        /* \"#utility.yul\":4666:4705   */\n      tag_152\n        /* \"#utility.yul\":4699:4704   */\n      dup3\n        /* \"#utility.yul\":4666:4705   */\n      tag_143\n      jump\t// in\n    tag_152:\n        /* \"#utility.yul\":4721:4792   */\n      tag_153\n        /* \"#utility.yul\":4785:4791   */\n      dup2\n        /* \"#utility.yul\":4780:4783   */\n      dup6\n        /* \"#utility.yul\":4721:4792   */\n      tag_154\n      jump\t// in\n    tag_153:\n        /* \"#utility.yul\":4714:4792   */\n      swap4\n      pop\n        /* \"#utility.yul\":4801:4853   */\n      tag_155\n        /* \"#utility.yul\":4846:4852   */\n      dup2\n        /* \"#utility.yul\":4841:4844   */\n      dup6\n        /* \"#utility.yul\":4834:4838   */\n      0x20\n        /* \"#utility.yul\":4827:4832   */\n      dup7\n        /* \"#utility.yul\":4823:4839   */\n      add\n        /* \"#utility.yul\":4801:4853   */\n      tag_147\n      jump\t// in\n    tag_155:\n        /* \"#utility.yul\":4878:4907   */\n      tag_156\n        /* \"#utility.yul\":4900:4906   */\n      dup2\n        /* \"#utility.yul\":4878:4907   */\n      tag_149\n      jump\t// in\n    tag_156:\n        /* \"#utility.yul\":4873:4876   */\n      dup5\n        /* \"#utility.yul\":4869:4908   */\n      add\n        /* \"#utility.yul\":4862:4908   */\n      swap2\n      pop\n        /* \"#utility.yul\":4642:4914   */\n      pop\n      swap3\n      swap2\n      pop\n      pop\n      jump\t// out\n        /* \"#utility.yul\":5006:6230   */\n    tag_118:\n        /* \"#utility.yul\":5125:5128   */\n      0x00\n        /* \"#utility.yul\":5161:5165   */\n      0xa0\n        /* \"#utility.yul\":5156:5159   */\n      dup4\n        /* \"#utility.yul\":5152:5166   */\n      add\n        /* \"#utility.yul\":5252:5256   */\n      0x00\n        /* \"#utility.yul\":5245:5250   */\n      dup4\n        /* \"#utility.yul\":5241:5257   */\n      add\n        /* \"#utility.yul\":5235:5258   */\n      mload\n        /* \"#utility.yul\":5271:5334   */\n      tag_158\n        /* \"#utility.yul\":5328:5332   */\n      0x00\n        /* \"#utility.yul\":5323:5326   */\n      dup7\n        /* \"#utility.yul\":5319:5333   */\n      add\n        /* \"#utility.yul\":5305:5317   */\n      dup3\n        /* \"#utility.yul\":5271:5334   */\n      tag_119\n      jump\t// in\n    tag_158:\n        /* \"#utility.yul\":5176:5344   */\n      pop\n        /* \"#utility.yul\":5427:5431   */\n      0x20\n        /* \"#utility.yul\":5420:5425   */\n      dup4\n        /* \"#utility.yul\":5416:5432   */\n      add\n        /* \"#utility.yul\":5410:5433   */\n      mload\n        /* \"#utility.yul\":5480:5483   */\n      dup5\n        /* \"#utility.yul\":5474:5478   */\n      dup3\n        /* \"#utility.yul\":5470:5484   */\n      sub\n        /* \"#utility.yul\":5463:5467   */\n      0x20\n        /* \"#utility.yul\":5458:5461   */\n      dup7\n        /* \"#utility.yul\":5454:5468   */\n      add\n        /* \"#utility.yul\":5447:5485   */\n      mstore\n        /* \"#utility.yul\":5506:5579   */\n      tag_159\n        /* \"#utility.yul\":5574:5578   */\n      dup3\n        /* \"#utility.yul\":5560:5572   */\n      dup3\n        /* \"#utility.yul\":5506:5579   */\n      tag_140\n      jump\t// in\n    tag_159:\n        /* \"#utility.yul\":5498:5579   */\n      swap2\n      pop\n        /* \"#utility.yul\":5354:5590   */\n      pop\n        /* \"#utility.yul\":5672:5676   */\n      0x40\n        /* \"#utility.yul\":5665:5670   */\n      dup4\n        /* \"#utility.yul\":5661:5677   */\n      add\n        /* \"#utility.yul\":5655:5678   */\n      mload\n        /* \"#utility.yul\":5691:5754   */\n      tag_160\n        /* \"#utility.yul\":5748:5752   */\n      0x40\n        /* \"#utility.yul\":5743:5746   */\n      dup7\n        /* \"#utility.yul\":5739:5753   */\n      add\n        /* \"#utility.yul\":5725:5737   */\n      dup3\n        /* \"#utility.yul\":5691:5754   */\n      tag_161\n      jump\t// in\n    tag_160:\n        /* \"#utility.yul\":5600:5764   */\n      pop\n        /* \"#utility.yul\":5853:5857   */\n      0x60\n        /* \"#utility.yul\":5846:5851   */\n      dup4\n        /* \"#utility.yul\":5842:5858   */\n      add\n        /* \"#utility.yul\":5836:5859   */\n      mload\n        /* \"#utility.yul\":5906:5909   */\n      dup5\n        /* \"#utility.yul\":5900:5904   */\n      dup3\n        /* \"#utility.yul\":5896:5910   */\n      sub\n        /* \"#utility.yul\":5889:5893   */\n      0x60\n        /* \"#utility.yul\":5884:5887   */\n      dup7\n        /* \"#utility.yul\":5880:5894   */\n      add\n        /* \"#utility.yul\":5873:5911   */\n      mstore\n        /* \"#utility.yul\":5932:6005   */\n      tag_162\n        /* \"#utility.yul\":6000:6004   */\n      dup3\n        /* \"#utility.yul\":5986:5998   */\n      dup3\n        /* \"#utility.yul\":5932:6005   */\n      tag_140\n      jump\t// in\n    tag_162:\n        /* \"#utility.yul\":5924:6005   */\n      swap2\n      pop\n        /* \"#utility.yul\":5774:6016   */\n      pop\n        /* \"#utility.yul\":6111:6115   */\n      0x80\n        /* \"#utility.yul\":6104:6109   */\n      dup4\n        /* \"#utility.yul\":6100:6116   */\n      add\n        /* \"#utility.yul\":6094:6117   */\n      mload\n        /* \"#utility.yul\":6130:6193   */\n      tag_163\n        /* \"#utility.yul\":6187:6191   */\n      0x80\n        /* \"#utility.yul\":6182:6185   */\n      dup7\n        /* \"#utility.yul\":6178:6192   */\n      add\n        /* \"#utility.yul\":6164:6176   */\n      dup3\n        /* \"#utility.yul\":6130:6193   */\n      tag_161\n      jump\t// in\n    tag_163:\n        /* \"#utility.yul\":6026:6203   */\n      pop\n        /* \"#utility.yul\":6220:6224   */\n      dup1\n        /* \"#utility.yul\":6213:6224   */\n      swap2\n      pop\n        /* \"#utility.yul\":5130:6230   */\n      pop\n      swap3\n      swap2\n      pop\n      pop\n      jump\t// out\n        /* \"#utility.yul\":6236:6344   */\n    tag_161:\n        /* \"#utility.yul\":6313:6337   */\n      tag_165\n        /* \"#utility.yul\":6331:6336   */\n      dup2\n        /* \"#utility.yul\":6313:6337   */\n      tag_166\n      jump\t// in\n    tag_165:\n        /* \"#utility.yul\":6308:6311   */\n      dup3\n        /* \"#utility.yul\":6301:6338   */\n      mstore\n        /* \"#utility.yul\":6291:6344   */\n      pop\n      pop\n      jump\t// out\n        /* \"#utility.yul\":6350:6468   */\n    tag_167:\n        /* \"#utility.yul\":6437:6461   */\n      tag_169\n        /* \"#utility.yul\":6455:6460   */\n      dup2\n        /* \"#utility.yul\":6437:6461   */\n      tag_166\n      jump\t// in\n    tag_169:\n        /* \"#utility.yul\":6432:6435   */\n      dup3\n        /* \"#utility.yul\":6425:6462   */\n      mstore\n        /* \"#utility.yul\":6415:6468   */\n      pop\n      pop\n      jump\t// out\n        /* \"#utility.yul\":6474:6696   */\n    tag_17:\n        /* \"#utility.yul\":6567:6571   */\n      0x00\n        /* \"#utility.yul\":6605:6607   */\n      0x20\n        /* \"#utility.yul\":6594:6603   */\n      dup3\n        /* \"#utility.yul\":6590:6608   */\n      add\n        /* \"#utility.yul\":6582:6608   */\n      swap1\n      pop\n        /* \"#utility.yul\":6618:6689   */\n      tag_171\n        /* \"#utility.yul\":6686:6687   */\n      0x00\n        /* \"#utility.yul\":6675:6684   */\n      dup4\n        /* \"#utility.yul\":6671:6688   */\n      add\n        /* \"#utility.yul\":6662:6668   */\n      dup5\n        /* \"#utility.yul\":6618:6689   */\n      tag_123\n      jump\t// in\n    tag_171:\n        /* \"#utility.yul\":6572:6696   */\n      swap3\n      swap2\n      pop\n      pop\n      jump\t// out\n        /* \"#utility.yul\":6702:7548   */\n    tag_12:\n        /* \"#utility.yul\":6947:6951   */\n      0x00\n        /* \"#utility.yul\":6985:6988   */\n      0xa0\n        /* \"#utility.yul\":6974:6983   */\n      dup3\n        /* \"#utility.yul\":6970:6989   */\n      add\n        /* \"#utility.yul\":6962:6989   */\n      swap1\n      pop\n        /* \"#utility.yul\":6999:7070   */\n      tag_173\n        /* \"#utility.yul\":7067:7068   */\n      0x00\n        /* \"#utility.yul\":7056:7065   */\n      dup4\n        /* \"#utility.yul\":7052:7069   */\n      add\n        /* \"#utility.yul\":7043:7049   */\n      dup9\n        /* \"#utility.yul\":6999:7070   */\n      tag_123\n      jump\t// in\n    tag_173:\n        /* \"#utility.yul\":7117:7126   */\n      dup2\n        /* \"#utility.yul\":7111:7115   */\n      dup2\n        /* \"#utility.yul\":7107:7127   */\n      sub\n        /* \"#utility.yul\":7102:7104   */\n      0x20\n        /* \"#utility.yul\":7091:7100   */\n      dup4\n        /* \"#utility.yul\":7087:7105   */\n      add\n        /* \"#utility.yul\":7080:7128   */\n      mstore\n        /* \"#utility.yul\":7145:7223   */\n      tag_174\n        /* \"#utility.yul\":7218:7222   */\n      dup2\n        /* \"#utility.yul\":7209:7215   */\n      dup8\n        /* \"#utility.yul\":7145:7223   */\n      tag_150\n      jump\t// in\n    tag_174:\n        /* \"#utility.yul\":7137:7223   */\n      swap1\n      pop\n        /* \"#utility.yul\":7233:7305   */\n      tag_175\n        /* \"#utility.yul\":7301:7303   */\n      0x40\n        /* \"#utility.yul\":7290:7299   */\n      dup4\n        /* \"#utility.yul\":7286:7304   */\n      add\n        /* \"#utility.yul\":7277:7283   */\n      dup7\n        /* \"#utility.yul\":7233:7305   */\n      tag_167\n      jump\t// in\n    tag_175:\n        /* \"#utility.yul\":7352:7361   */\n      dup2\n        /* \"#utility.yul\":7346:7350   */\n      dup2\n        /* \"#utility.yul\":7342:7362   */\n      sub\n        /* \"#utility.yul\":7337:7339   */\n      0x60\n        /* \"#utility.yul\":7326:7335   */\n      dup4\n        /* \"#utility.yul\":7322:7340   */\n      add\n        /* \"#utility.yul\":7315:7363   */\n      mstore\n        /* \"#utility.yul\":7380:7458   */\n      tag_176\n        /* \"#utility.yul\":7453:7457   */\n      dup2\n        /* \"#utility.yul\":7444:7450   */\n      dup6\n        /* \"#utility.yul\":7380:7458   */\n      tag_150\n      jump\t// in\n    tag_176:\n        /* \"#utility.yul\":7372:7458   */\n      swap1\n      pop\n        /* \"#utility.yul\":7468:7541   */\n      tag_177\n        /* \"#utility.yul\":7536:7539   */\n      0x80\n        /* \"#utility.yul\":7525:7534   */\n      dup4\n        /* \"#utility.yul\":7521:7540   */\n      add\n        /* \"#utility.yul\":7512:7518   */\n      dup5\n        /* \"#utility.yul\":7468:7541   */\n      tag_167\n      jump\t// in\n    tag_177:\n        /* \"#utility.yul\":6952:7548   */\n      swap7\n      swap6\n      pop\n      pop\n      pop\n      pop\n      pop\n      pop\n      jump\t// out\n        /* \"#utility.yul\":7554:8047   */\n    tag_21:\n        /* \"#utility.yul\":7757:7761   */\n      0x00\n        /* \"#utility.yul\":7795:7797   */\n      0x20\n        /* \"#utility.yul\":7784:7793   */\n      dup3\n        /* \"#utility.yul\":7780:7798   */\n      add\n        /* \"#utility.yul\":7772:7798   */\n      swap1\n      pop\n        /* \"#utility.yul\":7844:7853   */\n      dup2\n        /* \"#utility.yul\":7838:7842   */\n      dup2\n        /* \"#utility.yul\":7834:7854   */\n      sub\n        /* \"#utility.yul\":7830:7831   */\n      0x00\n        /* \"#utility.yul\":7819:7828   */\n      dup4\n        /* \"#utility.yul\":7815:7832   */\n      add\n        /* \"#utility.yul\":7808:7855   */\n      mstore\n        /* \"#utility.yul\":7872:8040   */\n      tag_179\n        /* \"#utility.yul\":8035:8039   */\n      dup2\n        /* \"#utility.yul\":8026:8032   */\n      dup5\n        /* \"#utility.yul\":7872:8040   */\n      tag_126\n      jump\t// in\n    tag_179:\n        /* \"#utility.yul\":7864:8040   */\n      swap1\n      pop\n        /* \"#utility.yul\":7762:8047   */\n      swap3\n      swap2\n      pop\n      pop\n      jump\t// out\n        /* \"#utility.yul\":8053:8899   */\n    tag_59:\n        /* \"#utility.yul\":8298:8302   */\n      0x00\n        /* \"#utility.yul\":8336:8339   */\n      0xa0\n        /* \"#utility.yul\":8325:8334   */\n      dup3\n        /* \"#utility.yul\":8321:8340   */\n      add\n        /* \"#utility.yul\":8313:8340   */\n      swap1\n      pop\n        /* \"#utility.yul\":8350:8421   */\n      tag_181\n        /* \"#utility.yul\":8418:8419   */\n      0x00\n        /* \"#utility.yul\":8407:8416   */\n      dup4\n        /* \"#utility.yul\":8403:8420   */\n      add\n        /* \"#utility.yul\":8394:8400   */\n      dup9\n        /* \"#utility.yul\":8350:8421   */\n      tag_167\n      jump\t// in\n    tag_181:\n        /* \"#utility.yul\":8431:8503   */\n      tag_182\n        /* \"#utility.yul\":8499:8501   */\n      0x20\n        /* \"#utility.yul\":8488:8497   */\n      dup4\n        /* \"#utility.yul\":8484:8502   */\n      add\n        /* \"#utility.yul\":8475:8481   */\n      dup8\n        /* \"#utility.yul\":8431:8503   */\n      tag_123\n      jump\t// in\n    tag_182:\n        /* \"#utility.yul\":8550:8559   */\n      dup2\n        /* \"#utility.yul\":8544:8548   */\n      dup2\n        /* \"#utility.yul\":8540:8560   */\n      sub\n        /* \"#utility.yul\":8535:8537   */\n      0x40\n        /* \"#utility.yul\":8524:8533   */\n      dup4\n        /* \"#utility.yul\":8520:8538   */\n      add\n        /* \"#utility.yul\":8513:8561   */\n      mstore\n        /* \"#utility.yul\":8578:8656   */\n      tag_183\n        /* \"#utility.yul\":8651:8655   */\n      dup2\n        /* \"#utility.yul\":8642:8648   */\n      dup7\n        /* \"#utility.yul\":8578:8656   */\n      tag_150\n      jump\t// in\n    tag_183:\n        /* \"#utility.yul\":8570:8656   */\n      swap1\n      pop\n        /* \"#utility.yul\":8666:8738   */\n      tag_184\n        /* \"#utility.yul\":8734:8736   */\n      0x60\n        /* \"#utility.yul\":8723:8732   */\n      dup4\n        /* \"#utility.yul\":8719:8737   */\n      add\n        /* \"#utility.yul\":8710:8716   */\n      dup6\n        /* \"#utility.yul\":8666:8738   */\n      tag_167\n      jump\t// in\n    tag_184:\n        /* \"#utility.yul\":8786:8795   */\n      dup2\n        /* \"#utility.yul\":8780:8784   */\n      dup2\n        /* \"#utility.yul\":8776:8796   */\n      sub\n        /* \"#utility.yul\":8770:8773   */\n      0x80\n        /* \"#utility.yul\":8759:8768   */\n      dup4\n        /* \"#utility.yul\":8755:8774   */\n      add\n        /* \"#utility.yul\":8748:8797   */\n      mstore\n        /* \"#utility.yul\":8814:8892   */\n      tag_185\n        /* \"#utility.yul\":8887:8891   */\n      dup2\n        /* \"#utility.yul\":8878:8884   */\n      dup5\n        /* \"#utility.yul\":8814:8892   */\n      tag_150\n      jump\t// in\n    tag_185:\n        /* \"#utility.yul\":8806:8892   */\n      swap1\n      pop\n        /* \"#utility.yul\":8303:8899   */\n      swap7\n      swap6\n      pop\n      pop\n      pop\n      pop\n      pop\n      pop\n      jump\t// out\n        /* \"#utility.yul\":8905:9034   */\n    tag_86:\n        /* \"#utility.yul\":8939:8945   */\n      0x00\n        /* \"#utility.yul\":8966:8986   */\n      tag_187\n      tag_188\n      jump\t// in\n    tag_187:\n        /* \"#utility.yul\":8956:8986   */\n      swap1\n      pop\n        /* \"#utility.yul\":8995:9028   */\n      tag_189\n        /* \"#utility.yul\":9023:9027   */\n      dup3\n        /* \"#utility.yul\":9015:9021   */\n      dup3\n        /* \"#utility.yul\":8995:9028   */\n      tag_190\n      jump\t// in\n    tag_189:\n        /* \"#utility.yul\":8946:9034   */\n      swap2\n      swap1\n      pop\n      jump\t// out\n        /* \"#utility.yul\":9040:9115   */\n    tag_188:\n        /* \"#utility.yul\":9073:9079   */\n      0x00\n        /* \"#utility.yul\":9106:9108   */\n      0x40\n        /* \"#utility.yul\":9100:9109   */\n      mload\n        /* \"#utility.yul\":9090:9109   */\n      swap1\n      pop\n        /* \"#utility.yul\":9080:9115   */\n      swap1\n      jump\t// out\n        /* \"#utility.yul\":9121:9429   */\n    tag_85:\n        /* \"#utility.yul\":9183:9187   */\n      0x00\n        /* \"#utility.yul\":9273:9291   */\n      0xffffffffffffffff\n        /* \"#utility.yul\":9265:9271   */\n      dup3\n        /* \"#utility.yul\":9262:9292   */\n      gt\n        /* \"#utility.yul\":9259:9261   */\n      iszero\n      tag_193\n      jumpi\n        /* \"#utility.yul\":9295:9313   */\n      tag_194\n      tag_195\n      jump\t// in\n    tag_194:\n        /* \"#utility.yul\":9259:9261   */\n    tag_193:\n        /* \"#utility.yul\":9333:9362   */\n      tag_196\n        /* \"#utility.yul\":9355:9361   */\n      dup3\n        /* \"#utility.yul\":9333:9362   */\n      tag_149\n      jump\t// in\n    tag_196:\n        /* \"#utility.yul\":9325:9362   */\n      swap1\n      pop\n        /* \"#utility.yul\":9417:9421   */\n      0x20\n        /* \"#utility.yul\":9411:9415   */\n      dup2\n        /* \"#utility.yul\":9407:9422   */\n      add\n        /* \"#utility.yul\":9399:9422   */\n      swap1\n      pop\n        /* \"#utility.yul\":9188:9429   */\n      swap2\n      swap1\n      pop\n      jump\t// out\n        /* \"#utility.yul\":9435:9597   */\n    tag_133:\n        /* \"#utility.yul\":9532:9536   */\n      0x00\n        /* \"#utility.yul\":9555:9558   */\n      dup2\n        /* \"#utility.yul\":9547:9558   */\n      swap1\n      pop\n        /* \"#utility.yul\":9585:9589   */\n      0x20\n        /* \"#utility.yul\":9580:9583   */\n      dup3\n        /* \"#utility.yul\":9576:9590   */\n      add\n        /* \"#utility.yul\":9568:9590   */\n      swap1\n      pop\n        /* \"#utility.yul\":9537:9597   */\n      swap2\n      swap1\n      pop\n      jump\t// out\n        /* \"#utility.yul\":9603:9747   */\n    tag_129:\n        /* \"#utility.yul\":9700:9706   */\n      0x00\n        /* \"#utility.yul\":9734:9739   */\n      dup2\n        /* \"#utility.yul\":9728:9740   */\n      mload\n        /* \"#utility.yul\":9718:9740   */\n      swap1\n      pop\n        /* \"#utility.yul\":9707:9747   */\n      swap2\n      swap1\n      pop\n      jump\t// out\n        /* \"#utility.yul\":9753:9852   */\n    tag_143:\n        /* \"#utility.yul\":9805:9811   */\n      0x00\n        /* \"#utility.yul\":9839:9844   */\n      dup2\n        /* \"#utility.yul\":9833:9845   */\n      mload\n        /* \"#utility.yul\":9823:9845   */\n      swap1\n      pop\n        /* \"#utility.yul\":9812:9852   */\n      swap2\n      swap1\n      pop\n      jump\t// out\n        /* \"#utility.yul\":9858:10001   */\n    tag_139:\n        /* \"#utility.yul\":9958:9962   */\n      0x00\n        /* \"#utility.yul\":9990:9994   */\n      0x20\n        /* \"#utility.yul\":9985:9988   */\n      dup3\n        /* \"#utility.yul\":9981:9995   */\n      add\n        /* \"#utility.yul\":9973:9995   */\n      swap1\n      pop\n        /* \"#utility.yul\":9963:10001   */\n      swap2\n      swap1\n      pop\n      jump\t// out\n        /* \"#utility.yul\":10007:10221   */\n    tag_131:\n        /* \"#utility.yul\":10136:10147   */\n      0x00\n        /* \"#utility.yul\":10170:10176   */\n      dup3\n        /* \"#utility.yul\":10165:10168   */\n      dup3\n        /* \"#utility.yul\":10158:10177   */\n      mstore\n        /* \"#utility.yul\":10210:10214   */\n      0x20\n        /* \"#utility.yul\":10205:10208   */\n      dup3\n        /* \"#utility.yul\":10201:10215   */\n      add\n        /* \"#utility.yul\":10186:10215   */\n      swap1\n      pop\n        /* \"#utility.yul\":10148:10221   */\n      swap3\n      swap2\n      pop\n      pop\n      jump\t// out\n        /* \"#utility.yul\":10227:10386   */\n    tag_145:\n        /* \"#utility.yul\":10301:10312   */\n      0x00\n        /* \"#utility.yul\":10335:10341   */\n      dup3\n        /* \"#utility.yul\":10330:10333   */\n      dup3\n        /* \"#utility.yul\":10323:10342   */\n      mstore\n        /* \"#utility.yul\":10375:10379   */\n      0x20\n        /* \"#utility.yul\":10370:10373   */\n      dup3\n        /* \"#utility.yul\":10366:10380   */\n      add\n        /* \"#utility.yul\":10351:10380   */\n      swap1\n      pop\n        /* \"#utility.yul\":10313:10386   */\n      swap3\n      swap2\n      pop\n      pop\n      jump\t// out\n        /* \"#utility.yul\":10392:10561   */\n    tag_154:\n        /* \"#utility.yul\":10476:10487   */\n      0x00\n        /* \"#utility.yul\":10510:10516   */\n      dup3\n        /* \"#utility.yul\":10505:10508   */\n      dup3\n        /* \"#utility.yul\":10498:10517   */\n      mstore\n        /* \"#utility.yul\":10550:10554   */\n      0x20\n        /* \"#utility.yul\":10545:10548   */\n      dup3\n        /* \"#utility.yul\":10541:10555   */\n      add\n        /* \"#utility.yul\":10526:10555   */\n      swap1\n      pop\n        /* \"#utility.yul\":10488:10561   */\n      swap3\n      swap2\n      pop\n      pop\n      jump\t// out\n        /* \"#utility.yul\":10567:10663   */\n    tag_122:\n        /* \"#utility.yul\":10604:10611   */\n      0x00\n        /* \"#utility.yul\":10633:10657   */\n      tag_205\n        /* \"#utility.yul\":10651:10656   */\n      dup3\n        /* \"#utility.yul\":10633:10657   */\n      tag_206\n      jump\t// in\n    tag_205:\n        /* \"#utility.yul\":10622:10657   */\n      swap1\n      pop\n        /* \"#utility.yul\":10612:10663   */\n      swap2\n      swap1\n      pop\n      jump\t// out\n        /* \"#utility.yul\":10669:10795   */\n    tag_206:\n        /* \"#utility.yul\":10706:10713   */\n      0x00\n        /* \"#utility.yul\":10746:10788   */\n      0xffffffffffffffffffffffffffffffffffffffff\n        /* \"#utility.yul\":10739:10744   */\n      dup3\n        /* \"#utility.yul\":10735:10789   */\n      and\n        /* \"#utility.yul\":10724:10789   */\n      swap1\n      pop\n        /* \"#utility.yul\":10714:10795   */\n      swap2\n      swap1\n      pop\n      jump\t// out\n        /* \"#utility.yul\":10801:10878   */\n    tag_166:\n        /* \"#utility.yul\":10838:10845   */\n      0x00\n        /* \"#utility.yul\":10867:10872   */\n      dup2\n        /* \"#utility.yul\":10856:10872   */\n      swap1\n      pop\n        /* \"#utility.yul\":10846:10878   */\n      swap2\n      swap1\n      pop\n      jump\t// out\n        /* \"#utility.yul\":10884:11038   */\n    tag_89:\n        /* \"#utility.yul\":10968:10974   */\n      dup3\n        /* \"#utility.yul\":10963:10966   */\n      dup2\n        /* \"#utility.yul\":10958:10961   */\n      dup4\n        /* \"#utility.yul\":10945:10975   */\n      calldatacopy\n        /* \"#utility.yul\":11030:11031   */\n      0x00\n        /* \"#utility.yul\":11021:11027   */\n      dup4\n        /* \"#utility.yul\":11016:11019   */\n      dup4\n        /* \"#utility.yul\":11012:11028   */\n      add\n        /* \"#utility.yul\":11005:11032   */\n      mstore\n        /* \"#utility.yul\":10935:11038   */\n      pop\n      pop\n      pop\n      jump\t// out\n        /* \"#utility.yul\":11044:11351   */\n    tag_147:\n        /* \"#utility.yul\":11112:11113   */\n      0x00\n        /* \"#utility.yul\":11122:11235   */\n    tag_211:\n        /* \"#utility.yul\":11136:11142   */\n      dup4\n        /* \"#utility.yul\":11133:11134   */\n      dup2\n        /* \"#utility.yul\":11130:11143   */\n      lt\n        /* \"#utility.yul\":11122:11235   */\n      iszero\n      tag_213\n      jumpi\n        /* \"#utility.yul\":11221:11222   */\n      dup1\n        /* \"#utility.yul\":11216:11219   */\n      dup3\n        /* \"#utility.yul\":11212:11223   */\n      add\n        /* \"#utility.yul\":11206:11224   */\n      mload\n        /* \"#utility.yul\":11202:11203   */\n      dup2\n        /* \"#utility.yul\":11197:11200   */\n      dup5\n        /* \"#utility.yul\":11193:11204   */\n      add\n        /* \"#utility.yul\":11186:11225   */\n      mstore\n        /* \"#utility.yul\":11158:11160   */\n      0x20\n        /* \"#utility.yul\":11155:11156   */\n      dup2\n        /* \"#utility.yul\":11151:11161   */\n      add\n        /* \"#utility.yul\":11146:11161   */\n      swap1\n      pop\n        /* \"#utility.yul\":11122:11235   */\n      jump(tag_211)\n    tag_213:\n        /* \"#utility.yul\":11253:11259   */\n      dup4\n        /* \"#utility.yul\":11250:11251   */\n      dup2\n        /* \"#utility.yul\":11247:11260   */\n      gt\n        /* \"#utility.yul\":11244:11246   */\n      iszero\n      tag_214\n      jumpi\n        /* \"#utility.yul\":11333:11334   */\n      0x00\n        /* \"#utility.yul\":11324:11330   */\n      dup5\n        /* \"#utility.yul\":11319:11322   */\n      dup5\n        /* \"#utility.yul\":11315:11331   */\n      add\n        /* \"#utility.yul\":11308:11335   */\n      mstore\n        /* \"#utility.yul\":11244:11246   */\n    tag_214:\n        /* \"#utility.yul\":11093:11351   */\n      pop\n      pop\n      pop\n      pop\n      jump\t// out\n        /* \"#utility.yul\":11357:11677   */\n    tag_29:\n        /* \"#utility.yul\":11401:11407   */\n      0x00\n        /* \"#utility.yul\":11438:11439   */\n      0x02\n        /* \"#utility.yul\":11432:11436   */\n      dup3\n        /* \"#utility.yul\":11428:11440   */\n      div\n        /* \"#utility.yul\":11418:11440   */\n      swap1\n      pop\n        /* \"#utility.yul\":11485:11486   */\n      0x01\n        /* \"#utility.yul\":11479:11483   */\n      dup3\n        /* \"#utility.yul\":11475:11487   */\n      and\n        /* \"#utility.yul\":11506:11524   */\n      dup1\n        /* \"#utility.yul\":11496:11498   */\n      tag_216\n      jumpi\n        /* \"#utility.yul\":11562:11566   */\n      0x7f\n        /* \"#utility.yul\":11554:11560   */\n      dup3\n        /* \"#utility.yul\":11550:11567   */\n      and\n        /* \"#utility.yul\":11540:11567   */\n      swap2\n      pop\n        /* \"#utility.yul\":11496:11498   */\n    tag_216:\n        /* \"#utility.yul\":11624:11626   */\n      0x20\n        /* \"#utility.yul\":11616:11622   */\n      dup3\n        /* \"#utility.yul\":11613:11627   */\n      lt\n        /* \"#utility.yul\":11593:11611   */\n      dup2\n        /* \"#utility.yul\":11590:11628   */\n      eq\n        /* \"#utility.yul\":11587:11589   */\n      iszero\n      tag_217\n      jumpi\n        /* \"#utility.yul\":11643:11661   */\n      tag_218\n      tag_219\n      jump\t// in\n    tag_218:\n        /* \"#utility.yul\":11587:11589   */\n    tag_217:\n        /* \"#utility.yul\":11408:11677   */\n      pop\n      swap2\n      swap1\n      pop\n      jump\t// out\n        /* \"#utility.yul\":11683:11964   */\n    tag_190:\n        /* \"#utility.yul\":11766:11793   */\n      tag_221\n        /* \"#utility.yul\":11788:11792   */\n      dup3\n        /* \"#utility.yul\":11766:11793   */\n      tag_149\n      jump\t// in\n    tag_221:\n        /* \"#utility.yul\":11758:11764   */\n      dup2\n        /* \"#utility.yul\":11754:11794   */\n      add\n        /* \"#utility.yul\":11896:11902   */\n      dup2\n        /* \"#utility.yul\":11884:11894   */\n      dup2\n        /* \"#utility.yul\":11881:11903   */\n      lt\n        /* \"#utility.yul\":11860:11878   */\n      0xffffffffffffffff\n        /* \"#utility.yul\":11848:11858   */\n      dup3\n        /* \"#utility.yul\":11845:11879   */\n      gt\n        /* \"#utility.yul\":11842:11904   */\n      or\n        /* \"#utility.yul\":11839:11841   */\n      iszero\n      tag_222\n      jumpi\n        /* \"#utility.yul\":11907:11925   */\n      tag_223\n      tag_195\n      jump\t// in\n    tag_223:\n        /* \"#utility.yul\":11839:11841   */\n    tag_222:\n        /* \"#utility.yul\":11947:11957   */\n      dup1\n        /* \"#utility.yul\":11943:11945   */\n      0x40\n        /* \"#utility.yul\":11936:11958   */\n      mstore\n        /* \"#utility.yul\":11726:11964   */\n      pop\n      pop\n      pop\n      jump\t// out\n        /* \"#utility.yul\":11970:12150   */\n    tag_219:\n        /* \"#utility.yul\":12018:12095   */\n      0x4e487b7100000000000000000000000000000000000000000000000000000000\n        /* \"#utility.yul\":12015:12016   */\n      0x00\n        /* \"#utility.yul\":12008:12096   */\n      mstore\n        /* \"#utility.yul\":12115:12119   */\n      0x22\n        /* \"#utility.yul\":12112:12113   */\n      0x04\n        /* \"#utility.yul\":12105:12120   */\n      mstore\n        /* \"#utility.yul\":12139:12143   */\n      0x24\n        /* \"#utility.yul\":12136:12137   */\n      0x00\n        /* \"#utility.yul\":12129:12144   */\n      revert\n        /* \"#utility.yul\":12156:12336   */\n    tag_195:\n        /* \"#utility.yul\":12204:12281   */\n      0x4e487b7100000000000000000000000000000000000000000000000000000000\n        /* \"#utility.yul\":12201:12202   */\n      0x00\n        /* \"#utility.yul\":12194:12282   */\n      mstore\n        /* \"#utility.yul\":12301:12305   */\n      0x41\n        /* \"#utility.yul\":12298:12299   */\n      0x04\n        /* \"#utility.yul\":12291:12306   */\n      mstore\n        /* \"#utility.yul\":12325:12329   */\n      0x24\n        /* \"#utility.yul\":12322:12323   */\n      0x00\n        /* \"#utility.yul\":12315:12330   */\n      revert\n        /* \"#utility.yul\":12342:12444   */\n    tag_149:\n        /* \"#utility.yul\":12383:12389   */\n      0x00\n        /* \"#utility.yul\":12434:12436   */\n      0x1f\n        /* \"#utility.yul\":12430:12437   */\n      not\n        /* \"#utility.yul\":12425:12427   */\n      0x1f\n        /* \"#utility.yul\":12418:12423   */\n      dup4\n        /* \"#utility.yul\":12414:12428   */\n      add\n        /* \"#utility.yul\":12410:12438   */\n      and\n        /* \"#utility.yul\":12400:12438   */\n      swap1\n      pop\n        /* \"#utility.yul\":12390:12444   */\n      swap2\n      swap1\n      pop\n      jump\t// out\n        /* \"#utility.yul\":12450:12572   */\n    tag_97:\n        /* \"#utility.yul\":12523:12547   */\n      tag_228\n        /* \"#utility.yul\":12541:12546   */\n      dup2\n        /* \"#utility.yul\":12523:12547   */\n      tag_166\n      jump\t// in\n    tag_228:\n        /* \"#utility.yul\":12516:12521   */\n      dup2\n        /* \"#utility.yul\":12513:12548   */\n      eq\n        /* \"#utility.yul\":12503:12505   */\n      tag_229\n      jumpi\n        /* \"#utility.yul\":12562:12563   */\n      0x00\n        /* \"#utility.yul\":12559:12560   */\n      dup1\n        /* \"#utility.yul\":12552:12564   */\n      revert\n        /* \"#utility.yul\":12503:12505   */\n    tag_229:\n        /* \"#utility.yul\":12493:12572   */\n      pop\n      jump\t// out\n    stop\n\n    sub_0: assembly {\n            /* \"campaign.sol\":900:3957  contract Campaign {\r... */\n          mstore(0x40, 0x80)\n            /* \"campaign.sol\":1727:2041  constructor(uint minimum, address creator, string memory title, uint goal, string memory description) {\r... */\n          callvalue\n          dup1\n          iszero\n          tag_1\n          jumpi\n          0x00\n          dup1\n          revert\n        tag_1:\n          pop\n          mload(0x40)\n          sub(codesize, bytecodeSize)\n          dup1\n          bytecodeSize\n          dup4\n          codecopy\n          dup2\n          dup2\n          add\n          0x40\n          mstore\n          dup2\n          add\n          swap1\n          tag_2\n          swap2\n          swap1\n          tag_3\n          jump\t// in\n        tag_2:\n            /* \"campaign.sol\":1850:1857  creator */\n          dup4\n            /* \"campaign.sol\":1840:1847  manager */\n          0x00\n          dup1\n            /* \"campaign.sol\":1840:1857  manager = creator */\n          0x0100\n          exp\n          dup2\n          sload\n          dup2\n          0xffffffffffffffffffffffffffffffffffffffff\n          mul\n          not\n          and\n          swap1\n          dup4\n          0xffffffffffffffffffffffffffffffffffffffff\n          and\n          mul\n          or\n          swap1\n          sstore\n          pop\n            /* \"campaign.sol\":1890:1897  minimum */\n          dup5\n            /* \"campaign.sol\":1868:1887  minimumContribution */\n          0x05\n            /* \"campaign.sol\":1868:1897  minimumContribution = minimum */\n          dup2\n          swap1\n          sstore\n          pop\n            /* \"campaign.sol\":1924:1929  title */\n          dup3\n            /* \"campaign.sol\":1908:1921  titleCompaign */\n          0x01\n            /* \"campaign.sol\":1908:1929  titleCompaign = title */\n          swap1\n          dup1\n          mload\n          swap1\n          0x20\n          add\n          swap1\n          tag_6\n          swap3\n          swap2\n          swap1\n          tag_7\n          jump\t// in\n        tag_6:\n          pop\n            /* \"campaign.sol\":1953:1957  goal */\n          dup2\n            /* \"campaign.sol\":1940:1950  amountGoal */\n          0x02\n            /* \"campaign.sol\":1940:1957  amountGoal = goal */\n          dup2\n          swap1\n          sstore\n          pop\n            /* \"campaign.sol\":1990:2001  description */\n          dup1\n            /* \"campaign.sol\":1968:1987  CampaignDescription */\n          0x03\n            /* \"campaign.sol\":1968:2001  CampaignDescription = description */\n          swap1\n          dup1\n          mload\n          swap1\n          0x20\n          add\n          swap1\n          tag_8\n          swap3\n          swap2\n          swap1\n          tag_7\n          jump\t// in\n        tag_8:\n          pop\n            /* \"campaign.sol\":2032:2033  0 */\n          0x00\n            /* \"campaign.sol\":2012:2029  totalContribution */\n          0x04\n            /* \"campaign.sol\":2012:2033  totalContribution = 0 */\n          dup2\n          swap1\n          sstore\n          pop\n            /* \"campaign.sol\":1727:2041  constructor(uint minimum, address creator, string memory title, uint goal, string memory description) {\r... */\n          pop\n          pop\n          pop\n          pop\n          pop\n            /* \"campaign.sol\":900:3957  contract Campaign {\r... */\n          jump(tag_9)\n        tag_7:\n          dup3\n          dup1\n          sload\n          tag_10\n          swap1\n          tag_11\n          jump\t// in\n        tag_10:\n          swap1\n          0x00\n          mstore\n          keccak256(0x00, 0x20)\n          swap1\n          0x1f\n          add\n          0x20\n          swap1\n          div\n          dup2\n          add\n          swap3\n          dup3\n          tag_13\n          jumpi\n          0x00\n          dup6\n          sstore\n          jump(tag_12)\n        tag_13:\n          dup3\n          0x1f\n          lt\n          tag_14\n          jumpi\n          dup1\n          mload\n          not(0xff)\n          and\n          dup4\n          dup1\n          add\n          or\n          dup6\n          sstore\n          jump(tag_12)\n        tag_14:\n          dup3\n          dup1\n          add\n          0x01\n          add\n          dup6\n          sstore\n          dup3\n          iszero\n          tag_12\n          jumpi\n          swap2\n          dup3\n          add\n        tag_15:\n          dup3\n          dup2\n          gt\n          iszero\n          tag_16\n          jumpi\n          dup3\n          mload\n          dup3\n          sstore\n          swap2\n          0x20\n          add\n          swap2\n          swap1\n          0x01\n          add\n          swap1\n          jump(tag_15)\n        tag_16:\n        tag_12:\n          pop\n          swap1\n          pop\n          tag_17\n          swap2\n          swap1\n          tag_18\n          jump\t// in\n        tag_17:\n          pop\n          swap1\n          jump\t// out\n        tag_18:\n        tag_19:\n          dup1\n          dup3\n          gt\n          iszero\n          tag_20\n          jumpi\n          0x00\n          dup2\n          0x00\n          swap1\n          sstore\n          pop\n          0x01\n          add\n          jump(tag_19)\n        tag_20:\n          pop\n          swap1\n          jump\t// out\n            /* \"#utility.yul\":7:361   */\n        tag_22:\n            /* \"#utility.yul\":96:101   */\n          0x00\n            /* \"#utility.yul\":121:187   */\n          tag_24\n            /* \"#utility.yul\":137:186   */\n          tag_25\n            /* \"#utility.yul\":179:185   */\n          dup5\n            /* \"#utility.yul\":137:186   */\n          tag_26\n          jump\t// in\n        tag_25:\n            /* \"#utility.yul\":121:187   */\n          tag_27\n          jump\t// in\n        tag_24:\n            /* \"#utility.yul\":112:187   */\n          swap1\n          pop\n            /* \"#utility.yul\":210:216   */\n          dup3\n            /* \"#utility.yul\":203:208   */\n          dup2\n            /* \"#utility.yul\":196:217   */\n          mstore\n            /* \"#utility.yul\":248:252   */\n          0x20\n            /* \"#utility.yul\":241:246   */\n          dup2\n            /* \"#utility.yul\":237:253   */\n          add\n            /* \"#utility.yul\":286:289   */\n          dup5\n            /* \"#utility.yul\":277:283   */\n          dup5\n            /* \"#utility.yul\":272:275   */\n          dup5\n            /* \"#utility.yul\":268:284   */\n          add\n            /* \"#utility.yul\":265:290   */\n          gt\n            /* \"#utility.yul\":262:264   */\n          iszero\n          tag_28\n          jumpi\n            /* \"#utility.yul\":303:304   */\n          0x00\n            /* \"#utility.yul\":300:301   */\n          dup1\n            /* \"#utility.yul\":293:305   */\n          revert\n            /* \"#utility.yul\":262:264   */\n        tag_28:\n            /* \"#utility.yul\":316:355   */\n          tag_29\n            /* \"#utility.yul\":348:354   */\n          dup5\n            /* \"#utility.yul\":343:346   */\n          dup3\n            /* \"#utility.yul\":338:341   */\n          dup6\n            /* \"#utility.yul\":316:355   */\n          tag_30\n          jump\t// in\n        tag_29:\n            /* \"#utility.yul\":102:361   */\n          pop\n          swap4\n          swap3\n          pop\n          pop\n          pop\n          jump\t// out\n            /* \"#utility.yul\":367:510   */\n        tag_31:\n            /* \"#utility.yul\":424:429   */\n          0x00\n            /* \"#utility.yul\":455:461   */\n          dup2\n            /* \"#utility.yul\":449:462   */\n          mload\n            /* \"#utility.yul\":440:462   */\n          swap1\n          pop\n            /* \"#utility.yul\":471:504   */\n          tag_33\n            /* \"#utility.yul\":498:503   */\n          dup2\n            /* \"#utility.yul\":471:504   */\n          tag_34\n          jump\t// in\n        tag_33:\n            /* \"#utility.yul\":430:510   */\n          swap3\n          swap2\n          pop\n          pop\n          jump\t// out\n            /* \"#utility.yul\":530:818   */\n        tag_35:\n            /* \"#utility.yul\":597:602   */\n          0x00\n            /* \"#utility.yul\":646:649   */\n          dup3\n            /* \"#utility.yul\":639:643   */\n          0x1f\n            /* \"#utility.yul\":631:637   */\n          dup4\n            /* \"#utility.yul\":627:644   */\n          add\n            /* \"#utility.yul\":623:650   */\n          slt\n            /* \"#utility.yul\":613:615   */\n          tag_37\n          jumpi\n            /* \"#utility.yul\":664:665   */\n          0x00\n            /* \"#utility.yul\":661:662   */\n          dup1\n            /* \"#utility.yul\":654:666   */\n          revert\n            /* \"#utility.yul\":613:615   */\n        tag_37:\n            /* \"#utility.yul\":697:703   */\n          dup2\n            /* \"#utility.yul\":691:704   */\n          mload\n            /* \"#utility.yul\":722:812   */\n          tag_38\n            /* \"#utility.yul\":808:811   */\n          dup5\n            /* \"#utility.yul\":800:806   */\n          dup3\n            /* \"#utility.yul\":793:797   */\n          0x20\n            /* \"#utility.yul\":785:791   */\n          dup7\n            /* \"#utility.yul\":781:798   */\n          add\n            /* \"#utility.yul\":722:812   */\n          tag_22\n          jump\t// in\n        tag_38:\n            /* \"#utility.yul\":713:812   */\n          swap2\n          pop\n            /* \"#utility.yul\":603:818   */\n          pop\n          swap3\n          swap2\n          pop\n          pop\n          jump\t// out\n            /* \"#utility.yul\":824:967   */\n        tag_39:\n            /* \"#utility.yul\":881:886   */\n          0x00\n            /* \"#utility.yul\":912:918   */\n          dup2\n            /* \"#utility.yul\":906:919   */\n          mload\n            /* \"#utility.yul\":897:919   */\n          swap1\n          pop\n            /* \"#utility.yul\":928:961   */\n          tag_41\n            /* \"#utility.yul\":955:960   */\n          dup2\n            /* \"#utility.yul\":928:961   */\n          tag_42\n          jump\t// in\n        tag_41:\n            /* \"#utility.yul\":887:967   */\n          swap3\n          swap2\n          pop\n          pop\n          jump\t// out\n            /* \"#utility.yul\":973:2095   */\n        tag_3:\n            /* \"#utility.yul\":1099:1105   */\n          0x00\n            /* \"#utility.yul\":1107:1113   */\n          dup1\n            /* \"#utility.yul\":1115:1121   */\n          0x00\n            /* \"#utility.yul\":1123:1129   */\n          dup1\n            /* \"#utility.yul\":1131:1137   */\n          0x00\n            /* \"#utility.yul\":1180:1183   */\n          0xa0\n            /* \"#utility.yul\":1168:1177   */\n          dup7\n            /* \"#utility.yul\":1159:1166   */\n          dup9\n            /* \"#utility.yul\":1155:1178   */\n          sub\n            /* \"#utility.yul\":1151:1184   */\n          slt\n            /* \"#utility.yul\":1148:1150   */\n          iszero\n          tag_44\n          jumpi\n            /* \"#utility.yul\":1197:1198   */\n          0x00\n            /* \"#utility.yul\":1194:1195   */\n          dup1\n            /* \"#utility.yul\":1187:1199   */\n          revert\n            /* \"#utility.yul\":1148:1150   */\n        tag_44:\n            /* \"#utility.yul\":1240:1241   */\n          0x00\n            /* \"#utility.yul\":1265:1329   */\n          tag_45\n            /* \"#utility.yul\":1321:1328   */\n          dup9\n            /* \"#utility.yul\":1312:1318   */\n          dup3\n            /* \"#utility.yul\":1301:1310   */\n          dup10\n            /* \"#utility.yul\":1297:1319   */\n          add\n            /* \"#utility.yul\":1265:1329   */\n          tag_39\n          jump\t// in\n        tag_45:\n            /* \"#utility.yul\":1255:1329   */\n          swap6\n          pop\n            /* \"#utility.yul\":1211:1339   */\n          pop\n            /* \"#utility.yul\":1378:1380   */\n          0x20\n            /* \"#utility.yul\":1404:1468   */\n          tag_46\n            /* \"#utility.yul\":1460:1467   */\n          dup9\n            /* \"#utility.yul\":1451:1457   */\n          dup3\n            /* \"#utility.yul\":1440:1449   */\n          dup10\n            /* \"#utility.yul\":1436:1458   */\n          add\n            /* \"#utility.yul\":1404:1468   */\n          tag_31\n          jump\t// in\n        tag_46:\n            /* \"#utility.yul\":1394:1468   */\n          swap5\n          pop\n            /* \"#utility.yul\":1349:1478   */\n          pop\n            /* \"#utility.yul\":1538:1540   */\n          0x40\n            /* \"#utility.yul\":1527:1536   */\n          dup7\n            /* \"#utility.yul\":1523:1541   */\n          add\n            /* \"#utility.yul\":1517:1542   */\n          mload\n            /* \"#utility.yul\":1569:1587   */\n          0xffffffffffffffff\n            /* \"#utility.yul\":1561:1567   */\n          dup2\n            /* \"#utility.yul\":1558:1588   */\n          gt\n            /* \"#utility.yul\":1555:1557   */\n          iszero\n          tag_47\n          jumpi\n            /* \"#utility.yul\":1601:1602   */\n          0x00\n            /* \"#utility.yul\":1598:1599   */\n          dup1\n            /* \"#utility.yul\":1591:1603   */\n          revert\n            /* \"#utility.yul\":1555:1557   */\n        tag_47:\n            /* \"#utility.yul\":1629:1703   */\n          tag_48\n            /* \"#utility.yul\":1695:1702   */\n          dup9\n            /* \"#utility.yul\":1686:1692   */\n          dup3\n            /* \"#utility.yul\":1675:1684   */\n          dup10\n            /* \"#utility.yul\":1671:1693   */\n          add\n            /* \"#utility.yul\":1629:1703   */\n          tag_35\n          jump\t// in\n        tag_48:\n            /* \"#utility.yul\":1619:1703   */\n          swap4\n          pop\n            /* \"#utility.yul\":1488:1713   */\n          pop\n            /* \"#utility.yul\":1752:1754   */\n          0x60\n            /* \"#utility.yul\":1778:1842   */\n          tag_49\n            /* \"#utility.yul\":1834:1841   */\n          dup9\n            /* \"#utility.yul\":1825:1831   */\n          dup3\n            /* \"#utility.yul\":1814:1823   */\n          dup10\n            /* \"#utility.yul\":1810:1832   */\n          add\n            /* \"#utility.yul\":1778:1842   */\n          tag_39\n          jump\t// in\n        tag_49:\n            /* \"#utility.yul\":1768:1842   */\n          swap3\n          pop\n            /* \"#utility.yul\":1723:1852   */\n          pop\n            /* \"#utility.yul\":1912:1915   */\n          0x80\n            /* \"#utility.yul\":1901:1910   */\n          dup7\n            /* \"#utility.yul\":1897:1916   */\n          add\n            /* \"#utility.yul\":1891:1917   */\n          mload\n            /* \"#utility.yul\":1944:1962   */\n          0xffffffffffffffff\n            /* \"#utility.yul\":1936:1942   */\n          dup2\n            /* \"#utility.yul\":1933:1963   */\n          gt\n            /* \"#utility.yul\":1930:1932   */\n          iszero\n          tag_50\n          jumpi\n            /* \"#utility.yul\":1976:1977   */\n          0x00\n            /* \"#utility.yul\":1973:1974   */\n          dup1\n            /* \"#utility.yul\":1966:1978   */\n          revert\n            /* \"#utility.yul\":1930:1932   */\n        tag_50:\n            /* \"#utility.yul\":2004:2078   */\n          tag_51\n            /* \"#utility.yul\":2070:2077   */\n          dup9\n            /* \"#utility.yul\":2061:2067   */\n          dup3\n            /* \"#utility.yul\":2050:2059   */\n          dup10\n            /* \"#utility.yul\":2046:2068   */\n          add\n            /* \"#utility.yul\":2004:2078   */\n          tag_35\n          jump\t// in\n        tag_51:\n            /* \"#utility.yul\":1994:2078   */\n          swap2\n          pop\n            /* \"#utility.yul\":1862:2088   */\n          pop\n            /* \"#utility.yul\":1138:2095   */\n          swap3\n          swap6\n          pop\n          swap3\n          swap6\n          swap1\n          swap4\n          pop\n          jump\t// out\n            /* \"#utility.yul\":2101:2230   */\n        tag_27:\n            /* \"#utility.yul\":2135:2141   */\n          0x00\n            /* \"#utility.yul\":2162:2182   */\n          tag_53\n          tag_54\n          jump\t// in\n        tag_53:\n            /* \"#utility.yul\":2152:2182   */\n          swap1\n          pop\n            /* \"#utility.yul\":2191:2224   */\n          tag_55\n            /* \"#utility.yul\":2219:2223   */\n          dup3\n            /* \"#utility.yul\":2211:2217   */\n          dup3\n            /* \"#utility.yul\":2191:2224   */\n          tag_56\n          jump\t// in\n        tag_55:\n            /* \"#utility.yul\":2142:2230   */\n          swap2\n          swap1\n          pop\n          jump\t// out\n            /* \"#utility.yul\":2236:2311   */\n        tag_54:\n            /* \"#utility.yul\":2269:2275   */\n          0x00\n            /* \"#utility.yul\":2302:2304   */\n          0x40\n            /* \"#utility.yul\":2296:2305   */\n          mload\n            /* \"#utility.yul\":2286:2305   */\n          swap1\n          pop\n            /* \"#utility.yul\":2276:2311   */\n          swap1\n          jump\t// out\n            /* \"#utility.yul\":2317:2625   */\n        tag_26:\n            /* \"#utility.yul\":2379:2383   */\n          0x00\n            /* \"#utility.yul\":2469:2487   */\n          0xffffffffffffffff\n            /* \"#utility.yul\":2461:2467   */\n          dup3\n            /* \"#utility.yul\":2458:2488   */\n          gt\n            /* \"#utility.yul\":2455:2457   */\n          iszero\n          tag_59\n          jumpi\n            /* \"#utility.yul\":2491:2509   */\n          tag_60\n          tag_61\n          jump\t// in\n        tag_60:\n            /* \"#utility.yul\":2455:2457   */\n        tag_59:\n            /* \"#utility.yul\":2529:2558   */\n          tag_62\n            /* \"#utility.yul\":2551:2557   */\n          dup3\n            /* \"#utility.yul\":2529:2558   */\n          tag_63\n          jump\t// in\n        tag_62:\n            /* \"#utility.yul\":2521:2558   */\n          swap1\n          pop\n            /* \"#utility.yul\":2613:2617   */\n          0x20\n            /* \"#utility.yul\":2607:2611   */\n          dup2\n            /* \"#utility.yul\":2603:2618   */\n          add\n            /* \"#utility.yul\":2595:2618   */\n          swap1\n          pop\n            /* \"#utility.yul\":2384:2625   */\n          swap2\n          swap1\n          pop\n          jump\t// out\n            /* \"#utility.yul\":2631:2727   */\n        tag_64:\n            /* \"#utility.yul\":2668:2675   */\n          0x00\n            /* \"#utility.yul\":2697:2721   */\n          tag_66\n            /* \"#utility.yul\":2715:2720   */\n          dup3\n            /* \"#utility.yul\":2697:2721   */\n          tag_67\n          jump\t// in\n        tag_66:\n            /* \"#utility.yul\":2686:2721   */\n          swap1\n          pop\n            /* \"#utility.yul\":2676:2727   */\n          swap2\n          swap1\n          pop\n          jump\t// out\n            /* \"#utility.yul\":2733:2859   */\n        tag_67:\n            /* \"#utility.yul\":2770:2777   */\n          0x00\n            /* \"#utility.yul\":2810:2852   */\n          0xffffffffffffffffffffffffffffffffffffffff\n            /* \"#utility.yul\":2803:2808   */\n          dup3\n            /* \"#utility.yul\":2799:2853   */\n          and\n            /* \"#utility.yul\":2788:2853   */\n          swap1\n          pop\n            /* \"#utility.yul\":2778:2859   */\n          swap2\n          swap1\n          pop\n          jump\t// out\n            /* \"#utility.yul\":2865:2942   */\n        tag_69:\n            /* \"#utility.yul\":2902:2909   */\n          0x00\n            /* \"#utility.yul\":2931:2936   */\n          dup2\n            /* \"#utility.yul\":2920:2936   */\n          swap1\n          pop\n            /* \"#utility.yul\":2910:2942   */\n          swap2\n          swap1\n          pop\n          jump\t// out\n            /* \"#utility.yul\":2948:3255   */\n        tag_30:\n            /* \"#utility.yul\":3016:3017   */\n          0x00\n            /* \"#utility.yul\":3026:3139   */\n        tag_72:\n            /* \"#utility.yul\":3040:3046   */\n          dup4\n            /* \"#utility.yul\":3037:3038   */\n          dup2\n            /* \"#utility.yul\":3034:3047   */\n          lt\n            /* \"#utility.yul\":3026:3139   */\n          iszero\n          tag_74\n          jumpi\n            /* \"#utility.yul\":3125:3126   */\n          dup1\n            /* \"#utility.yul\":3120:3123   */\n          dup3\n            /* \"#utility.yul\":3116:3127   */\n          add\n            /* \"#utility.yul\":3110:3128   */\n          mload\n            /* \"#utility.yul\":3106:3107   */\n          dup2\n            /* \"#utility.yul\":3101:3104   */\n          dup5\n            /* \"#utility.yul\":3097:3108   */\n          add\n            /* \"#utility.yul\":3090:3129   */\n          mstore\n            /* \"#utility.yul\":3062:3064   */\n          0x20\n            /* \"#utility.yul\":3059:3060   */\n          dup2\n            /* \"#utility.yul\":3055:3065   */\n          add\n            /* \"#utility.yul\":3050:3065   */\n          swap1\n          pop\n            /* \"#utility.yul\":3026:3139   */\n          jump(tag_72)\n        tag_74:\n            /* \"#utility.yul\":3157:3163   */\n          dup4\n            /* \"#utility.yul\":3154:3155   */\n          dup2\n            /* \"#utility.yul\":3151:3164   */\n          gt\n            /* \"#utility.yul\":3148:3150   */\n          iszero\n          tag_75\n          jumpi\n            /* \"#utility.yul\":3237:3238   */\n          0x00\n            /* \"#utility.yul\":3228:3234   */\n          dup5\n            /* \"#utility.yul\":3223:3226   */\n          dup5\n            /* \"#utility.yul\":3219:3235   */\n          add\n            /* \"#utility.yul\":3212:3239   */\n          mstore\n            /* \"#utility.yul\":3148:3150   */\n        tag_75:\n            /* \"#utility.yul\":2997:3255   */\n          pop\n          pop\n          pop\n          pop\n          jump\t// out\n            /* \"#utility.yul\":3261:3581   */\n        tag_11:\n            /* \"#utility.yul\":3305:3311   */\n          0x00\n            /* \"#utility.yul\":3342:3343   */\n          0x02\n            /* \"#utility.yul\":3336:3340   */\n          dup3\n            /* \"#utility.yul\":3332:3344   */\n          div\n            /* \"#utility.yul\":3322:3344   */\n          swap1\n          pop\n            /* \"#utility.yul\":3389:3390   */\n          0x01\n            /* \"#utility.yul\":3383:3387   */\n          dup3\n            /* \"#utility.yul\":3379:3391   */\n          and\n            /* \"#utility.yul\":3410:3428   */\n          dup1\n            /* \"#utility.yul\":3400:3402   */\n          tag_77\n          jumpi\n            /* \"#utility.yul\":3466:3470   */\n          0x7f\n            /* \"#utility.yul\":3458:3464   */\n          dup3\n            /* \"#utility.yul\":3454:3471   */\n          and\n            /* \"#utility.yul\":3444:3471   */\n          swap2\n          pop\n            /* \"#utility.yul\":3400:3402   */\n        tag_77:\n            /* \"#utility.yul\":3528:3530   */\n          0x20\n            /* \"#utility.yul\":3520:3526   */\n          dup3\n            /* \"#utility.yul\":3517:3531   */\n          lt\n            /* \"#utility.yul\":3497:3515   */\n          dup2\n            /* \"#utility.yul\":3494:3532   */\n          eq\n            /* \"#utility.yul\":3491:3493   */\n          iszero\n          tag_78\n          jumpi\n            /* \"#utility.yul\":3547:3565   */\n          tag_79\n          tag_80\n          jump\t// in\n        tag_79:\n            /* \"#utility.yul\":3491:3493   */\n        tag_78:\n            /* \"#utility.yul\":3312:3581   */\n          pop\n          swap2\n          swap1\n          pop\n          jump\t// out\n            /* \"#utility.yul\":3587:3868   */\n        tag_56:\n            /* \"#utility.yul\":3670:3697   */\n          tag_82\n            /* \"#utility.yul\":3692:3696   */\n          dup3\n            /* \"#utility.yul\":3670:3697   */\n          tag_63\n          jump\t// in\n        tag_82:\n            /* \"#utility.yul\":3662:3668   */\n          dup2\n            /* \"#utility.yul\":3658:3698   */\n          add\n            /* \"#utility.yul\":3800:3806   */\n          dup2\n            /* \"#utility.yul\":3788:3798   */\n          dup2\n            /* \"#utility.yul\":3785:3807   */\n          lt\n            /* \"#utility.yul\":3764:3782   */\n          0xffffffffffffffff\n            /* \"#utility.yul\":3752:3762   */\n          dup3\n            /* \"#utility.yul\":3749:3783   */\n          gt\n            /* \"#utility.yul\":3746:3808   */\n          or\n            /* \"#utility.yul\":3743:3745   */\n          iszero\n          tag_83\n          jumpi\n            /* \"#utility.yul\":3811:3829   */\n          tag_84\n          tag_61\n          jump\t// in\n        tag_84:\n            /* \"#utility.yul\":3743:3745   */\n        tag_83:\n            /* \"#utility.yul\":3851:3861   */\n          dup1\n            /* \"#utility.yul\":3847:3849   */\n          0x40\n            /* \"#utility.yul\":3840:3862   */\n          mstore\n            /* \"#utility.yul\":3630:3868   */\n          pop\n          pop\n          pop\n          jump\t// out\n            /* \"#utility.yul\":3874:4054   */\n        tag_80:\n            /* \"#utility.yul\":3922:3999   */\n          0x4e487b7100000000000000000000000000000000000000000000000000000000\n            /* \"#utility.yul\":3919:3920   */\n          0x00\n            /* \"#utility.yul\":3912:4000   */\n          mstore\n            /* \"#utility.yul\":4019:4023   */\n          0x22\n            /* \"#utility.yul\":4016:4017   */\n          0x04\n            /* \"#utility.yul\":4009:4024   */\n          mstore\n            /* \"#utility.yul\":4043:4047   */\n          0x24\n            /* \"#utility.yul\":4040:4041   */\n          0x00\n            /* \"#utility.yul\":4033:4048   */\n          revert\n            /* \"#utility.yul\":4060:4240   */\n        tag_61:\n            /* \"#utility.yul\":4108:4185   */\n          0x4e487b7100000000000000000000000000000000000000000000000000000000\n            /* \"#utility.yul\":4105:4106   */\n          0x00\n            /* \"#utility.yul\":4098:4186   */\n          mstore\n            /* \"#utility.yul\":4205:4209   */\n          0x41\n            /* \"#utility.yul\":4202:4203   */\n          0x04\n            /* \"#utility.yul\":4195:4210   */\n          mstore\n            /* \"#utility.yul\":4229:4233   */\n          0x24\n            /* \"#utility.yul\":4226:4227   */\n          0x00\n            /* \"#utility.yul\":4219:4234   */\n          revert\n            /* \"#utility.yul\":4246:4348   */\n        tag_63:\n            /* \"#utility.yul\":4287:4293   */\n          0x00\n            /* \"#utility.yul\":4338:4340   */\n          0x1f\n            /* \"#utility.yul\":4334:4341   */\n          not\n            /* \"#utility.yul\":4329:4331   */\n          0x1f\n            /* \"#utility.yul\":4322:4327   */\n          dup4\n            /* \"#utility.yul\":4318:4332   */\n          add\n            /* \"#utility.yul\":4314:4342   */\n          and\n            /* \"#utility.yul\":4304:4342   */\n          swap1\n          pop\n            /* \"#utility.yul\":4294:4348   */\n          swap2\n          swap1\n          pop\n          jump\t// out\n            /* \"#utility.yul\":4354:4476   */\n        tag_34:\n            /* \"#utility.yul\":4427:4451   */\n          tag_89\n            /* \"#utility.yul\":4445:4450   */\n          dup2\n            /* \"#utility.yul\":4427:4451   */\n          tag_64\n          jump\t// in\n        tag_89:\n            /* \"#utility.yul\":4420:4425   */\n          dup2\n            /* \"#utility.yul\":4417:4452   */\n          eq\n            /* \"#utility.yul\":4407:4409   */\n          tag_90\n          jumpi\n            /* \"#utility.yul\":4466:4467   */\n          0x00\n            /* \"#utility.yul\":4463:4464   */\n          dup1\n            /* \"#utility.yul\":4456:4468   */\n          revert\n            /* \"#utility.yul\":4407:4409   */\n        tag_90:\n            /* \"#utility.yul\":4397:4476   */\n          pop\n          jump\t// out\n            /* \"#utility.yul\":4482:4604   */\n        tag_42:\n            /* \"#utility.yul\":4555:4579   */\n          tag_92\n            /* \"#utility.yul\":4573:4578   */\n          dup2\n            /* \"#utility.yul\":4555:4579   */\n          tag_69\n          jump\t// in\n        tag_92:\n            /* \"#utility.yul\":4548:4553   */\n          dup2\n            /* \"#utility.yul\":4545:4580   */\n          eq\n            /* \"#utility.yul\":4535:4537   */\n          tag_93\n          jumpi\n            /* \"#utility.yul\":4594:4595   */\n          0x00\n            /* \"#utility.yul\":4591:4592   */\n          dup1\n            /* \"#utility.yul\":4584:4596   */\n          revert\n            /* \"#utility.yul\":4535:4537   */\n        tag_93:\n            /* \"#utility.yul\":4525:4604   */\n          pop\n          jump\t// out\n            /* \"campaign.sol\":900:3957  contract Campaign {\r... */\n        tag_9:\n          dataSize(sub_0)\n          dup1\n          dataOffset(sub_0)\n          0x00\n          codecopy\n          0x00\n          return\n        stop\n\n        sub_0: assembly {\n                /* \"campaign.sol\":900:3957  contract Campaign {\r... */\n              mstore(0x40, 0x80)\n              jumpi(tag_1, lt(calldatasize, 0x04))\n              shr(0xe0, calldataload(0x00))\n              dup1\n              0x5badbe4c\n              gt\n              tag_18\n              jumpi\n              dup1\n              0x937e09b1\n              gt\n              tag_19\n              jumpi\n              dup1\n              0x937e09b1\n              eq\n              tag_14\n              jumpi\n              dup1\n              0x97654a8c\n              eq\n              tag_15\n              jumpi\n              dup1\n              0xd7bb99ba\n              eq\n              tag_16\n              jumpi\n              dup1\n              0xd7d1bbdb\n              eq\n              tag_17\n              jumpi\n              jump(tag_1)\n            tag_19:\n              dup1\n              0x5badbe4c\n              eq\n              tag_10\n              jumpi\n              dup1\n              0x81d12c58\n              eq\n              tag_11\n              jumpi\n              dup1\n              0x82fde093\n              eq\n              tag_12\n              jumpi\n              dup1\n              0x8a9cfd55\n              eq\n              tag_13\n              jumpi\n              jump(tag_1)\n            tag_18:\n              dup1\n              0x0dcf4b8f\n              gt\n              tag_20\n              jumpi\n              dup1\n              0x0dcf4b8f\n              eq\n              tag_6\n              jumpi\n              dup1\n              0x32461bd8\n              eq\n              tag_7\n              jumpi\n              dup1\n              0x4051ddac\n              eq\n              tag_8\n              jumpi\n              dup1\n              0x481c6a75\n              eq\n              tag_9\n              jumpi\n              jump(tag_1)\n            tag_20:\n              dup1\n              0x03441006\n              eq\n              tag_2\n              jumpi\n              dup1\n              0x0785001c\n              eq\n              tag_3\n              jumpi\n              dup1\n              0x08caa910\n              eq\n              tag_4\n              jumpi\n              dup1\n              0x0a144391\n              eq\n              tag_5\n              jumpi\n            tag_1:\n              0x00\n              dup1\n              revert\n                /* \"campaign.sol\":3051:3383  function finalizeRequest(uint index) public managerOnly {\r... */\n            tag_2:\n              callvalue\n              dup1\n              iszero\n              tag_21\n              jumpi\n              0x00\n              dup1\n              revert\n            tag_21:\n              pop\n              tag_22\n              0x04\n              dup1\n              calldatasize\n              sub\n              dup2\n              add\n              swap1\n              tag_23\n              swap2\n              swap1\n              tag_24\n              jump\t// in\n            tag_23:\n              tag_25\n              jump\t// in\n            tag_22:\n              stop\n                /* \"campaign.sol\":1229:1251  uint public amountGoal */\n            tag_3:\n              callvalue\n              dup1\n              iszero\n              tag_26\n              jumpi\n              0x00\n              dup1\n              revert\n            tag_26:\n              pop\n              tag_27\n              tag_28\n              jump\t// in\n            tag_27:\n              mload(0x40)\n              tag_29\n              swap2\n              swap1\n              tag_30\n              jump\t// in\n            tag_29:\n              mload(0x40)\n              dup1\n              swap2\n              sub\n              swap1\n              return\n                /* \"campaign.sol\":3391:3492  function getTotalContribution() public view returns(uint) {\r... */\n            tag_4:\n              callvalue\n              dup1\n              iszero\n              tag_31\n              jumpi\n              0x00\n              dup1\n              revert\n            tag_31:\n              pop\n              tag_32\n              tag_33\n              jump\t// in\n            tag_32:\n              mload(0x40)\n              tag_34\n              swap2\n              swap1\n              tag_30\n              jump\t// in\n            tag_34:\n              mload(0x40)\n              dup1\n              swap2\n              sub\n              swap1\n              return\n                /* \"campaign.sol\":1466:1507  mapping(address => bool) public approvers */\n            tag_5:\n              callvalue\n              dup1\n              iszero\n              tag_35\n              jumpi\n              0x00\n              dup1\n              revert\n            tag_35:\n              pop\n              tag_36\n              0x04\n              dup1\n              calldatasize\n              sub\n              dup2\n              add\n              swap1\n              tag_37\n              swap2\n              swap1\n              tag_38\n              jump\t// in\n            tag_37:\n              tag_39\n              jump\t// in\n            tag_36:\n              mload(0x40)\n              tag_40\n              swap2\n              swap1\n              tag_41\n              jump\t// in\n            tag_40:\n              mload(0x40)\n              dup1\n              swap2\n              sub\n              swap1\n              return\n                /* \"campaign.sol\":1359:1388  uint public totalContribution */\n            tag_6:\n              callvalue\n              dup1\n              iszero\n              tag_42\n              jumpi\n              0x00\n              dup1\n              revert\n            tag_42:\n              pop\n              tag_43\n              tag_44\n              jump\t// in\n            tag_43:\n              mload(0x40)\n              tag_45\n              swap2\n              swap1\n              tag_30\n              jump\t// in\n            tag_45:\n              mload(0x40)\n              dup1\n              swap2\n              sub\n              swap1\n              return\n                /* \"campaign.sol\":1171:1198  string public titleCompaign */\n            tag_7:\n              callvalue\n              dup1\n              iszero\n              tag_46\n              jumpi\n              0x00\n              dup1\n              revert\n            tag_46:\n              pop\n              tag_47\n              tag_48\n              jump\t// in\n            tag_47:\n              mload(0x40)\n              tag_49\n              swap2\n              swap1\n              tag_50\n              jump\t// in\n            tag_49:\n              mload(0x40)\n              dup1\n              swap2\n              sub\n              swap1\n              return\n                /* \"campaign.sol\":3500:3954  function getSummary() external view returns (\r... */\n            tag_8:\n              callvalue\n              dup1\n              iszero\n              tag_51\n              jumpi\n              0x00\n              dup1\n              revert\n            tag_51:\n              pop\n              tag_52\n              tag_53\n              jump\t// in\n            tag_52:\n              mload(0x40)\n              tag_54\n              swap10\n              swap9\n              swap8\n              swap7\n              swap6\n              swap5\n              swap4\n              swap3\n              swap2\n              swap1\n              tag_55\n              jump\t// in\n            tag_54:\n              mload(0x40)\n              dup1\n              swap2\n              sub\n              swap1\n              return\n                /* \"campaign.sol\":1136:1158  address public manager */\n            tag_9:\n              callvalue\n              dup1\n              iszero\n              tag_56\n              jumpi\n              0x00\n              dup1\n              revert\n            tag_56:\n              pop\n              tag_57\n              tag_58\n              jump\t// in\n            tag_57:\n              mload(0x40)\n              tag_59\n              swap2\n              swap1\n              tag_60\n              jump\t// in\n            tag_59:\n              mload(0x40)\n              dup1\n              swap2\n              sub\n              swap1\n              return\n                /* \"campaign.sol\":1561:1585  uint public requestCount */\n            tag_10:\n              callvalue\n              dup1\n              iszero\n              tag_61\n              jumpi\n              0x00\n              dup1\n              revert\n            tag_61:\n              pop\n              tag_62\n              tag_63\n              jump\t// in\n            tag_62:\n              mload(0x40)\n              tag_64\n              swap2\n              swap1\n              tag_30\n              jump\t// in\n            tag_64:\n              mload(0x40)\n              dup1\n              swap2\n              sub\n              swap1\n              return\n                /* \"campaign.sol\":1514:1554  mapping(uint => Request) public requests */\n            tag_11:\n              callvalue\n              dup1\n              iszero\n              tag_65\n              jumpi\n              0x00\n              dup1\n              revert\n            tag_65:\n              pop\n              tag_66\n              0x04\n              dup1\n              calldatasize\n              sub\n              dup2\n              add\n              swap1\n              tag_67\n              swap2\n              swap1\n              tag_24\n              jump\t// in\n            tag_67:\n              tag_68\n              jump\t// in\n            tag_66:\n              mload(0x40)\n              tag_69\n              swap6\n              swap5\n              swap4\n              swap3\n              swap2\n              swap1\n              tag_70\n              jump\t// in\n            tag_69:\n              mload(0x40)\n              dup1\n              swap2\n              sub\n              swap1\n              return\n                /* \"campaign.sol\":1592:1618  uint public approversCount */\n            tag_12:\n              callvalue\n              dup1\n              iszero\n              tag_71\n              jumpi\n              0x00\n              dup1\n              revert\n            tag_71:\n              pop\n              tag_72\n              tag_73\n              jump\t// in\n            tag_72:\n              mload(0x40)\n              tag_74\n              swap2\n              swap1\n              tag_30\n              jump\t// in\n            tag_74:\n              mload(0x40)\n              dup1\n              swap2\n              sub\n              swap1\n              return\n                /* \"campaign.sol\":2278:2731  function createRequest(\r... */\n            tag_13:\n              callvalue\n              dup1\n              iszero\n              tag_75\n              jumpi\n              0x00\n              dup1\n              revert\n            tag_75:\n              pop\n              tag_76\n              0x04\n              dup1\n              calldatasize\n              sub\n              dup2\n              add\n              swap1\n              tag_77\n              swap2\n              swap1\n              tag_78\n              jump\t// in\n            tag_77:\n              tag_79\n              jump\t// in\n            tag_76:\n              stop\n                /* \"campaign.sol\":1428:1459  uint public minimumContribution */\n            tag_14:\n              callvalue\n              dup1\n              iszero\n              tag_80\n              jumpi\n              0x00\n              dup1\n              revert\n            tag_80:\n              pop\n              tag_81\n              tag_82\n              jump\t// in\n            tag_81:\n              mload(0x40)\n              tag_83\n              swap2\n              swap1\n              tag_30\n              jump\t// in\n            tag_83:\n              mload(0x40)\n              dup1\n              swap2\n              sub\n              swap1\n              return\n                /* \"campaign.sol\":1289:1322  string public CampaignDescription */\n            tag_15:\n              callvalue\n              dup1\n              iszero\n              tag_84\n              jumpi\n              0x00\n              dup1\n              revert\n            tag_84:\n              pop\n              tag_85\n              tag_86\n              jump\t// in\n            tag_85:\n              mload(0x40)\n              tag_87\n              swap2\n              swap1\n              tag_50\n              jump\t// in\n            tag_87:\n              mload(0x40)\n              dup1\n              swap2\n              sub\n              swap1\n              return\n                /* \"campaign.sol\":2053:2266  function contribute() external payable {\r... */\n            tag_16:\n              tag_88\n              tag_89\n              jump\t// in\n            tag_88:\n              stop\n                /* \"campaign.sol\":2743:3038  function approveRequest(uint index) public {\r... */\n            tag_17:\n              callvalue\n              dup1\n              iszero\n              tag_90\n              jumpi\n              0x00\n              dup1\n              revert\n            tag_90:\n              pop\n              tag_91\n              0x04\n              dup1\n              calldatasize\n              sub\n              dup2\n              add\n              swap1\n              tag_92\n              swap2\n              swap1\n              tag_24\n              jump\t// in\n            tag_92:\n              tag_93\n              jump\t// in\n            tag_91:\n              stop\n                /* \"campaign.sol\":3051:3383  function finalizeRequest(uint index) public managerOnly {\r... */\n            tag_25:\n                /* \"campaign.sol\":1687:1694  manager */\n              0x00\n              dup1\n              sload\n              swap1\n              0x0100\n              exp\n              swap1\n              div\n              0xffffffffffffffffffffffffffffffffffffffff\n              and\n                /* \"campaign.sol\":1673:1694  msg.sender == manager */\n              0xffffffffffffffffffffffffffffffffffffffff\n              and\n                /* \"campaign.sol\":1673:1683  msg.sender */\n              caller\n                /* \"campaign.sol\":1673:1694  msg.sender == manager */\n              0xffffffffffffffffffffffffffffffffffffffff\n              and\n              eq\n                /* \"campaign.sol\":1665:1695  require(msg.sender == manager) */\n              tag_95\n              jumpi\n              0x00\n              dup1\n              revert\n            tag_95:\n                /* \"campaign.sol\":3118:3141  Request storage request */\n              0x00\n                /* \"campaign.sol\":3144:3152  requests */\n              0x07\n                /* \"campaign.sol\":3144:3159  requests[index] */\n              0x00\n                /* \"campaign.sol\":3153:3158  index */\n              dup4\n                /* \"campaign.sol\":3144:3159  requests[index] */\n              dup2\n              mstore\n              0x20\n              add\n              swap1\n              dup2\n              mstore\n              0x20\n              add\n              0x00\n              keccak256\n                /* \"campaign.sol\":3118:3159  Request storage request = requests[index] */\n              swap1\n              pop\n                /* \"campaign.sol\":3189:3196  request */\n              dup1\n                /* \"campaign.sol\":3189:3205  request.complete */\n              0x02\n              add\n              0x14\n              swap1\n              sload\n              swap1\n              0x0100\n              exp\n              swap1\n              div\n              0xff\n              and\n                /* \"campaign.sol\":3188:3205  !request.complete */\n              iszero\n                /* \"campaign.sol\":3180:3206  require(!request.complete) */\n              tag_97\n              jumpi\n              0x00\n              dup1\n              revert\n            tag_97:\n                /* \"campaign.sol\":3267:3268  2 */\n              0x02\n                /* \"campaign.sol\":3250:3264  approversCount */\n              sload(0x09)\n                /* \"campaign.sol\":3250:3268  approversCount / 2 */\n              tag_98\n              swap2\n              swap1\n              tag_99\n              jump\t// in\n            tag_98:\n                /* \"campaign.sol\":3225:3232  request */\n              dup2\n                /* \"campaign.sol\":3225:3246  request.approvalCount */\n              0x03\n              add\n              sload\n                /* \"campaign.sol\":3225:3269  request.approvalCount > (approversCount / 2) */\n              gt\n                /* \"campaign.sol\":3217:3270  require(request.approvalCount > (approversCount / 2)) */\n              tag_100\n              jumpi\n              0x00\n              dup1\n              revert\n            tag_100:\n                /* \"campaign.sol\":3299:3306  request */\n              dup1\n                /* \"campaign.sol\":3299:3316  request.recipient */\n              0x02\n              add\n              0x00\n              swap1\n              sload\n              swap1\n              0x0100\n              exp\n              swap1\n              div\n              0xffffffffffffffffffffffffffffffffffffffff\n              and\n                /* \"campaign.sol\":3291:3326  payable(request.recipient).transfer */\n              0xffffffffffffffffffffffffffffffffffffffff\n              and\n                /* \"campaign.sol\":3291:3341  payable(request.recipient).transfer(request.value) */\n              0x08fc\n                /* \"campaign.sol\":3327:3334  request */\n              dup3\n                /* \"campaign.sol\":3327:3340  request.value */\n              0x01\n              add\n              sload\n                /* \"campaign.sol\":3291:3341  payable(request.recipient).transfer(request.value) */\n              swap1\n              dup2\n              iszero\n              mul\n              swap1\n              mload(0x40)\n              0x00\n              mload(0x40)\n              dup1\n              dup4\n              sub\n              dup2\n              dup6\n              dup9\n              dup9\n              call\n              swap4\n              pop\n              pop\n              pop\n              pop\n              iszero\n              dup1\n              iszero\n              tag_102\n              jumpi\n              returndatasize\n              0x00\n              dup1\n              returndatacopy\n              revert(0x00, returndatasize)\n            tag_102:\n              pop\n                /* \"campaign.sol\":3371:3375  true */\n              0x01\n                /* \"campaign.sol\":3352:3359  request */\n              dup2\n                /* \"campaign.sol\":3352:3368  request.complete */\n              0x02\n              add\n              0x14\n                /* \"campaign.sol\":3352:3375  request.complete = true */\n              0x0100\n              exp\n              dup2\n              sload\n              dup2\n              0xff\n              mul\n              not\n              and\n              swap1\n              dup4\n              iszero\n              iszero\n              mul\n              or\n              swap1\n              sstore\n              pop\n                /* \"campaign.sol\":1706:1707  _ */\n              pop\n                /* \"campaign.sol\":3051:3383  function finalizeRequest(uint index) public managerOnly {\r... */\n              pop\n              jump\t// out\n                /* \"campaign.sol\":1229:1251  uint public amountGoal */\n            tag_28:\n              sload(0x02)\n              dup2\n              jump\t// out\n                /* \"campaign.sol\":3391:3492  function getTotalContribution() public view returns(uint) {\r... */\n            tag_33:\n                /* \"campaign.sol\":3443:3447  uint */\n              0x00\n                /* \"campaign.sol\":3467:3484  totalContribution */\n              sload(0x04)\n                /* \"campaign.sol\":3460:3484  return totalContribution */\n              swap1\n              pop\n                /* \"campaign.sol\":3391:3492  function getTotalContribution() public view returns(uint) {\r... */\n              swap1\n              jump\t// out\n                /* \"campaign.sol\":1466:1507  mapping(address => bool) public approvers */\n            tag_39:\n              mstore(0x20, 0x06)\n              dup1\n              0x00\n              mstore\n              keccak256(0x00, 0x40)\n              0x00\n              swap2\n              pop\n              sload\n              swap1\n              0x0100\n              exp\n              swap1\n              div\n              0xff\n              and\n              dup2\n              jump\t// out\n                /* \"campaign.sol\":1359:1388  uint public totalContribution */\n            tag_44:\n              sload(0x04)\n              dup2\n              jump\t// out\n                /* \"campaign.sol\":1171:1198  string public titleCompaign */\n            tag_48:\n              0x01\n              dup1\n              sload\n              tag_104\n              swap1\n              tag_105\n              jump\t// in\n            tag_104:\n              dup1\n              0x1f\n              add\n              0x20\n              dup1\n              swap2\n              div\n              mul\n              0x20\n              add\n              mload(0x40)\n              swap1\n              dup2\n              add\n              0x40\n              mstore\n              dup1\n              swap3\n              swap2\n              swap1\n              dup2\n              dup2\n              mstore\n              0x20\n              add\n              dup3\n              dup1\n              sload\n              tag_106\n              swap1\n              tag_105\n              jump\t// in\n            tag_106:\n              dup1\n              iszero\n              tag_107\n              jumpi\n              dup1\n              0x1f\n              lt\n              tag_108\n              jumpi\n              0x0100\n              dup1\n              dup4\n              sload\n              div\n              mul\n              dup4\n              mstore\n              swap2\n              0x20\n              add\n              swap2\n              jump(tag_107)\n            tag_108:\n              dup3\n              add\n              swap2\n              swap1\n              0x00\n              mstore\n              keccak256(0x00, 0x20)\n              swap1\n            tag_109:\n              dup2\n              sload\n              dup2\n              mstore\n              swap1\n              0x01\n              add\n              swap1\n              0x20\n              add\n              dup1\n              dup4\n              gt\n              tag_109\n              jumpi\n              dup3\n              swap1\n              sub\n              0x1f\n              and\n              dup3\n              add\n              swap2\n            tag_107:\n              pop\n              pop\n              pop\n              pop\n              pop\n              dup2\n              jump\t// out\n                /* \"campaign.sol\":3500:3954  function getSummary() external view returns (\r... */\n            tag_53:\n                /* \"campaign.sol\":3553:3557  uint */\n              0x00\n                /* \"campaign.sol\":3566:3570  uint */\n              dup1\n                /* \"campaign.sol\":3579:3583  uint */\n              0x00\n                /* \"campaign.sol\":3592:3596  uint */\n              dup1\n                /* \"campaign.sol\":3605:3612  address */\n              0x00\n                /* \"campaign.sol\":3621:3634  string memory */\n              0x60\n                /* \"campaign.sol\":3643:3647  uint */\n              0x00\n                /* \"campaign.sol\":3656:3669  string memory */\n              0x60\n                /* \"campaign.sol\":3678:3682  uint */\n              0x00\n                /* \"campaign.sol\":3717:3736  minimumContribution */\n              sload(0x05)\n                /* \"campaign.sol\":3747:3768  address(this).balance */\n              selfbalance\n                /* \"campaign.sol\":3779:3791  requestCount */\n              sload(0x08)\n                /* \"campaign.sol\":3802:3816  approversCount */\n              sload(0x09)\n                /* \"campaign.sol\":3827:3834  manager */\n              0x00\n              dup1\n              sload\n              swap1\n              0x0100\n              exp\n              swap1\n              div\n              0xffffffffffffffffffffffffffffffffffffffff\n              and\n                /* \"campaign.sol\":3845:3858  titleCompaign */\n              0x01\n                /* \"campaign.sol\":3869:3879  amountGoal */\n              sload(0x02)\n                /* \"campaign.sol\":3890:3909  CampaignDescription */\n              0x03\n                /* \"campaign.sol\":3920:3937  totalContribution */\n              sload(0x04)\n                /* \"campaign.sol\":3699:3946  return (\r... */\n              dup4\n              dup1\n              sload\n              tag_111\n              swap1\n              tag_105\n              jump\t// in\n            tag_111:\n              dup1\n              0x1f\n              add\n              0x20\n              dup1\n              swap2\n              div\n              mul\n              0x20\n              add\n              mload(0x40)\n              swap1\n              dup2\n              add\n              0x40\n              mstore\n              dup1\n              swap3\n              swap2\n              swap1\n              dup2\n              dup2\n              mstore\n              0x20\n              add\n              dup3\n              dup1\n              sload\n              tag_112\n              swap1\n              tag_105\n              jump\t// in\n            tag_112:\n              dup1\n              iszero\n              tag_113\n              jumpi\n              dup1\n              0x1f\n              lt\n              tag_114\n              jumpi\n              0x0100\n              dup1\n              dup4\n              sload\n              div\n              mul\n              dup4\n              mstore\n              swap2\n              0x20\n              add\n              swap2\n              jump(tag_113)\n            tag_114:\n              dup3\n              add\n              swap2\n              swap1\n              0x00\n              mstore\n              keccak256(0x00, 0x20)\n              swap1\n            tag_115:\n              dup2\n              sload\n              dup2\n              mstore\n              swap1\n              0x01\n              add\n              swap1\n              0x20\n              add\n              dup1\n              dup4\n              gt\n              tag_115\n              jumpi\n              dup3\n              swap1\n              sub\n              0x1f\n              and\n              dup3\n              add\n              swap2\n            tag_113:\n              pop\n              pop\n              pop\n              pop\n              pop\n              swap4\n              pop\n              dup2\n              dup1\n              sload\n              tag_116\n              swap1\n              tag_105\n              jump\t// in\n            tag_116:\n              dup1\n              0x1f\n              add\n              0x20\n              dup1\n              swap2\n              div\n              mul\n              0x20\n              add\n              mload(0x40)\n              swap1\n              dup2\n              add\n              0x40\n              mstore\n              dup1\n              swap3\n              swap2\n              swap1\n              dup2\n              dup2\n              mstore\n              0x20\n              add\n              dup3\n              dup1\n              sload\n              tag_117\n              swap1\n              tag_105\n              jump\t// in\n            tag_117:\n              dup1\n              iszero\n              tag_118\n              jumpi\n              dup1\n              0x1f\n              lt\n              tag_119\n              jumpi\n              0x0100\n              dup1\n              dup4\n              sload\n              div\n              mul\n              dup4\n              mstore\n              swap2\n              0x20\n              add\n              swap2\n              jump(tag_118)\n            tag_119:\n              dup3\n              add\n              swap2\n              swap1\n              0x00\n              mstore\n              keccak256(0x00, 0x20)\n              swap1\n            tag_120:\n              dup2\n              sload\n              dup2\n              mstore\n              swap1\n              0x01\n              add\n              swap1\n              0x20\n              add\n              dup1\n              dup4\n              gt\n              tag_120\n              jumpi\n              dup3\n              swap1\n              sub\n              0x1f\n              and\n              dup3\n              add\n              swap2\n            tag_118:\n              pop\n              pop\n              pop\n              pop\n              pop\n              swap2\n              pop\n              swap9\n              pop\n              swap9\n              pop\n              swap9\n              pop\n              swap9\n              pop\n              swap9\n              pop\n              swap9\n              pop\n              swap9\n              pop\n              swap9\n              pop\n              swap9\n              pop\n                /* \"campaign.sol\":3500:3954  function getSummary() external view returns (\r... */\n              swap1\n              swap2\n              swap3\n              swap4\n              swap5\n              swap6\n              swap7\n              swap8\n              swap9\n              jump\t// out\n                /* \"campaign.sol\":1136:1158  address public manager */\n            tag_58:\n              0x00\n              dup1\n              sload\n              swap1\n              0x0100\n              exp\n              swap1\n              div\n              0xffffffffffffffffffffffffffffffffffffffff\n              and\n              dup2\n              jump\t// out\n                /* \"campaign.sol\":1561:1585  uint public requestCount */\n            tag_63:\n              sload(0x08)\n              dup2\n              jump\t// out\n                /* \"campaign.sol\":1514:1554  mapping(uint => Request) public requests */\n            tag_68:\n              mstore(0x20, 0x07)\n              dup1\n              0x00\n              mstore\n              keccak256(0x00, 0x40)\n              0x00\n              swap2\n              pop\n              swap1\n              pop\n              dup1\n              0x00\n              add\n              dup1\n              sload\n              tag_121\n              swap1\n              tag_105\n              jump\t// in\n            tag_121:\n              dup1\n              0x1f\n              add\n              0x20\n              dup1\n              swap2\n              div\n              mul\n              0x20\n              add\n              mload(0x40)\n              swap1\n              dup2\n              add\n              0x40\n              mstore\n              dup1\n              swap3\n              swap2\n              swap1\n              dup2\n              dup2\n              mstore\n              0x20\n              add\n              dup3\n              dup1\n              sload\n              tag_122\n              swap1\n              tag_105\n              jump\t// in\n            tag_122:\n              dup1\n              iszero\n              tag_123\n              jumpi\n              dup1\n              0x1f\n              lt\n              tag_124\n              jumpi\n              0x0100\n              dup1\n              dup4\n              sload\n              div\n              mul\n              dup4\n              mstore\n              swap2\n              0x20\n              add\n              swap2\n              jump(tag_123)\n            tag_124:\n              dup3\n              add\n              swap2\n              swap1\n              0x00\n              mstore\n              keccak256(0x00, 0x20)\n              swap1\n            tag_125:\n              dup2\n              sload\n              dup2\n              mstore\n              swap1\n              0x01\n              add\n              swap1\n              0x20\n              add\n              dup1\n              dup4\n              gt\n              tag_125\n              jumpi\n              dup3\n              swap1\n              sub\n              0x1f\n              and\n              dup3\n              add\n              swap2\n            tag_123:\n              pop\n              pop\n              pop\n              pop\n              pop\n              swap1\n              dup1\n              0x01\n              add\n              sload\n              swap1\n              dup1\n              0x02\n              add\n              0x00\n              swap1\n              sload\n              swap1\n              0x0100\n              exp\n              swap1\n              div\n              0xffffffffffffffffffffffffffffffffffffffff\n              and\n              swap1\n              dup1\n              0x02\n              add\n              0x14\n              swap1\n              sload\n              swap1\n              0x0100\n              exp\n              swap1\n              div\n              0xff\n              and\n              swap1\n              dup1\n              0x03\n              add\n              sload\n              swap1\n              pop\n              dup6\n              jump\t// out\n                /* \"campaign.sol\":1592:1618  uint public approversCount */\n            tag_73:\n              sload(0x09)\n              dup2\n              jump\t// out\n                /* \"campaign.sol\":2278:2731  function createRequest(\r... */\n            tag_79:\n                /* \"campaign.sol\":1687:1694  manager */\n              0x00\n              dup1\n              sload\n              swap1\n              0x0100\n              exp\n              swap1\n              div\n              0xffffffffffffffffffffffffffffffffffffffff\n              and\n                /* \"campaign.sol\":1673:1694  msg.sender == manager */\n              0xffffffffffffffffffffffffffffffffffffffff\n              and\n                /* \"campaign.sol\":1673:1683  msg.sender */\n              caller\n                /* \"campaign.sol\":1673:1694  msg.sender == manager */\n              0xffffffffffffffffffffffffffffffffffffffff\n              and\n              eq\n                /* \"campaign.sol\":1665:1695  require(msg.sender == manager) */\n              tag_127\n              jumpi\n              0x00\n              dup1\n              revert\n            tag_127:\n                /* \"campaign.sol\":2457:2462  value */\n              dup2\n                /* \"campaign.sol\":2432:2453  address(this).balance */\n              selfbalance\n                /* \"campaign.sol\":2432:2462  address(this).balance >= value */\n              lt\n              iszero\n                /* \"campaign.sol\":2424:2463  require(address(this).balance >= value) */\n              tag_129\n              jumpi\n              0x00\n              dup1\n              revert\n            tag_129:\n                /* \"campaign.sol\":2474:2500  Request storage newRequest */\n              0x00\n                /* \"campaign.sol\":2503:2511  requests */\n              0x07\n                /* \"campaign.sol\":2503:2525  requests[requestCount] */\n              0x00\n                /* \"campaign.sol\":2512:2524  requestCount */\n              sload(0x08)\n                /* \"campaign.sol\":2503:2525  requests[requestCount] */\n              dup2\n              mstore\n              0x20\n              add\n              swap1\n              dup2\n              mstore\n              0x20\n              add\n              0x00\n              keccak256\n                /* \"campaign.sol\":2474:2525  Request storage newRequest = requests[requestCount] */\n              swap1\n              pop\n                /* \"campaign.sol\":2561:2572  description */\n              dup4\n                /* \"campaign.sol\":2536:2546  newRequest */\n              dup2\n                /* \"campaign.sol\":2536:2558  newRequest.description */\n              0x00\n              add\n                /* \"campaign.sol\":2536:2572  newRequest.description = description */\n              swap1\n              dup1\n              mload\n              swap1\n              0x20\n              add\n              swap1\n              tag_130\n              swap3\n              swap2\n              swap1\n              tag_131\n              jump\t// in\n            tag_130:\n              pop\n                /* \"campaign.sol\":2602:2607  value */\n              dup3\n                /* \"campaign.sol\":2583:2593  newRequest */\n              dup2\n                /* \"campaign.sol\":2583:2599  newRequest.value */\n              0x01\n              add\n                /* \"campaign.sol\":2583:2607  newRequest.value = value */\n              dup2\n              swap1\n              sstore\n              pop\n                /* \"campaign.sol\":2641:2650  recipient */\n              dup2\n                /* \"campaign.sol\":2618:2628  newRequest */\n              dup2\n                /* \"campaign.sol\":2618:2638  newRequest.recipient */\n              0x02\n              add\n              0x00\n                /* \"campaign.sol\":2618:2650  newRequest.recipient = recipient */\n              0x0100\n              exp\n              dup2\n              sload\n              dup2\n              0xffffffffffffffffffffffffffffffffffffffff\n              mul\n              not\n              and\n              swap1\n              dup4\n              0xffffffffffffffffffffffffffffffffffffffff\n              and\n              mul\n              or\n              swap1\n              sstore\n              pop\n                /* \"campaign.sol\":2683:2688  false */\n              0x00\n                /* \"campaign.sol\":2661:2671  newRequest */\n              dup2\n                /* \"campaign.sol\":2661:2680  newRequest.complete */\n              0x02\n              add\n              0x14\n                /* \"campaign.sol\":2661:2688  newRequest.complete = false */\n              0x0100\n              exp\n              dup2\n              sload\n              dup2\n              0xff\n              mul\n              not\n              and\n              swap1\n              dup4\n              iszero\n              iszero\n              mul\n              or\n              swap1\n              sstore\n              pop\n                /* \"campaign.sol\":2709:2721  requestCount */\n              0x08\n              0x00\n                /* \"campaign.sol\":2709:2723  requestCount++ */\n              dup2\n              sload\n              dup1\n              swap3\n              swap2\n              swap1\n              tag_132\n              swap1\n              tag_133\n              jump\t// in\n            tag_132:\n              swap2\n              swap1\n              pop\n              sstore\n              pop\n                /* \"campaign.sol\":1706:1707  _ */\n              pop\n                /* \"campaign.sol\":2278:2731  function createRequest(\r... */\n              pop\n              pop\n              pop\n              jump\t// out\n                /* \"campaign.sol\":1428:1459  uint public minimumContribution */\n            tag_82:\n              sload(0x05)\n              dup2\n              jump\t// out\n                /* \"campaign.sol\":1289:1322  string public CampaignDescription */\n            tag_86:\n              0x03\n              dup1\n              sload\n              tag_134\n              swap1\n              tag_105\n              jump\t// in\n            tag_134:\n              dup1\n              0x1f\n              add\n              0x20\n              dup1\n              swap2\n              div\n              mul\n              0x20\n              add\n              mload(0x40)\n              swap1\n              dup2\n              add\n              0x40\n              mstore\n              dup1\n              swap3\n              swap2\n              swap1\n              dup2\n              dup2\n              mstore\n              0x20\n              add\n              dup3\n              dup1\n              sload\n              tag_135\n              swap1\n              tag_105\n              jump\t// in\n            tag_135:\n              dup1\n              iszero\n              tag_136\n              jumpi\n              dup1\n              0x1f\n              lt\n              tag_137\n              jumpi\n              0x0100\n              dup1\n              dup4\n              sload\n              div\n              mul\n              dup4\n              mstore\n              swap2\n              0x20\n              add\n              swap2\n              jump(tag_136)\n            tag_137:\n              dup3\n              add\n              swap2\n              swap1\n              0x00\n              mstore\n              keccak256(0x00, 0x20)\n              swap1\n            tag_138:\n              dup2\n              sload\n              dup2\n              mstore\n              swap1\n              0x01\n              add\n              swap1\n              0x20\n              add\n              dup1\n              dup4\n              gt\n              tag_138\n              jumpi\n              dup3\n              swap1\n              sub\n              0x1f\n              and\n              dup3\n              add\n              swap2\n            tag_136:\n              pop\n              pop\n              pop\n              pop\n              pop\n              dup2\n              jump\t// out\n                /* \"campaign.sol\":2053:2266  function contribute() external payable {\r... */\n            tag_89:\n                /* \"campaign.sol\":2124:2143  minimumContribution */\n              sload(0x05)\n                /* \"campaign.sol\":2111:2120  msg.value */\n              callvalue\n                /* \"campaign.sol\":2111:2143  msg.value >= minimumContribution */\n              lt\n              iszero\n                /* \"campaign.sol\":2103:2144  require(msg.value >= minimumContribution) */\n              tag_140\n              jumpi\n              0x00\n              dup1\n              revert\n            tag_140:\n                /* \"campaign.sol\":2179:2183  true */\n              0x01\n                /* \"campaign.sol\":2155:2164  approvers */\n              0x06\n                /* \"campaign.sol\":2155:2176  approvers[msg.sender] */\n              0x00\n                /* \"campaign.sol\":2165:2175  msg.sender */\n              caller\n                /* \"campaign.sol\":2155:2176  approvers[msg.sender] */\n              0xffffffffffffffffffffffffffffffffffffffff\n              and\n              0xffffffffffffffffffffffffffffffffffffffff\n              and\n              dup2\n              mstore\n              0x20\n              add\n              swap1\n              dup2\n              mstore\n              0x20\n              add\n              0x00\n              keccak256\n              0x00\n                /* \"campaign.sol\":2155:2183  approvers[msg.sender] = true */\n              0x0100\n              exp\n              dup2\n              sload\n              dup2\n              0xff\n              mul\n              not\n              and\n              swap1\n              dup4\n              iszero\n              iszero\n              mul\n              or\n              swap1\n              sstore\n              pop\n                /* \"campaign.sol\":2194:2208  approversCount */\n              0x09\n              0x00\n                /* \"campaign.sol\":2194:2210  approversCount++ */\n              dup2\n              sload\n              dup1\n              swap3\n              swap2\n              swap1\n              tag_141\n              swap1\n              tag_133\n              jump\t// in\n            tag_141:\n              swap2\n              swap1\n              pop\n              sstore\n              pop\n                /* \"campaign.sol\":2242:2251  msg.value */\n              callvalue\n                /* \"campaign.sol\":2221:2238  totalContribution */\n              0x04\n              0x00\n                /* \"campaign.sol\":2221:2251  totalContribution += msg.value */\n              dup3\n              dup3\n              sload\n              tag_142\n              swap2\n              swap1\n              tag_143\n              jump\t// in\n            tag_142:\n              swap3\n              pop\n              pop\n              dup2\n              swap1\n              sstore\n              pop\n                /* \"campaign.sol\":2053:2266  function contribute() external payable {\r... */\n              jump\t// out\n                /* \"campaign.sol\":2743:3038  function approveRequest(uint index) public {\r... */\n            tag_93:\n                /* \"campaign.sol\":2797:2820  Request storage request */\n              0x00\n                /* \"campaign.sol\":2823:2831  requests */\n              0x07\n                /* \"campaign.sol\":2823:2838  requests[index] */\n              0x00\n                /* \"campaign.sol\":2832:2837  index */\n              dup4\n                /* \"campaign.sol\":2823:2838  requests[index] */\n              dup2\n              mstore\n              0x20\n              add\n              swap1\n              dup2\n              mstore\n              0x20\n              add\n              0x00\n              keccak256\n                /* \"campaign.sol\":2797:2838  Request storage request = requests[index] */\n              swap1\n              pop\n                /* \"campaign.sol\":2867:2876  approvers */\n              0x06\n                /* \"campaign.sol\":2867:2888  approvers[msg.sender] */\n              0x00\n                /* \"campaign.sol\":2877:2887  msg.sender */\n              caller\n                /* \"campaign.sol\":2867:2888  approvers[msg.sender] */\n              0xffffffffffffffffffffffffffffffffffffffff\n              and\n              0xffffffffffffffffffffffffffffffffffffffff\n              and\n              dup2\n              mstore\n              0x20\n              add\n              swap1\n              dup2\n              mstore\n              0x20\n              add\n              0x00\n              keccak256\n              0x00\n              swap1\n              sload\n              swap1\n              0x0100\n              exp\n              swap1\n              div\n              0xff\n              and\n                /* \"campaign.sol\":2859:2889  require(approvers[msg.sender]) */\n              tag_145\n              jumpi\n              0x00\n              dup1\n              revert\n            tag_145:\n                /* \"campaign.sol\":2909:2916  request */\n              dup1\n                /* \"campaign.sol\":2909:2926  request.approvals */\n              0x04\n              add\n                /* \"campaign.sol\":2909:2938  request.approvals[msg.sender] */\n              0x00\n                /* \"campaign.sol\":2927:2937  msg.sender */\n              caller\n                /* \"campaign.sol\":2909:2938  request.approvals[msg.sender] */\n              0xffffffffffffffffffffffffffffffffffffffff\n              and\n              0xffffffffffffffffffffffffffffffffffffffff\n              and\n              dup2\n              mstore\n              0x20\n              add\n              swap1\n              dup2\n              mstore\n              0x20\n              add\n              0x00\n              keccak256\n              0x00\n              swap1\n              sload\n              swap1\n              0x0100\n              exp\n              swap1\n              div\n              0xff\n              and\n                /* \"campaign.sol\":2908:2938  !request.approvals[msg.sender] */\n              iszero\n                /* \"campaign.sol\":2900:2939  require(!request.approvals[msg.sender]) */\n              tag_146\n              jumpi\n              0x00\n              dup1\n              revert\n            tag_146:\n                /* \"campaign.sol\":2992:2996  true */\n              0x01\n                /* \"campaign.sol\":2960:2967  request */\n              dup2\n                /* \"campaign.sol\":2960:2977  request.approvals */\n              0x04\n              add\n                /* \"campaign.sol\":2960:2989  request.approvals[msg.sender] */\n              0x00\n                /* \"campaign.sol\":2978:2988  msg.sender */\n              caller\n                /* \"campaign.sol\":2960:2989  request.approvals[msg.sender] */\n              0xffffffffffffffffffffffffffffffffffffffff\n              and\n              0xffffffffffffffffffffffffffffffffffffffff\n              and\n              dup2\n              mstore\n              0x20\n              add\n              swap1\n              dup2\n              mstore\n              0x20\n              add\n              0x00\n              keccak256\n              0x00\n                /* \"campaign.sol\":2960:2996  request.approvals[msg.sender] = true */\n              0x0100\n              exp\n              dup2\n              sload\n              dup2\n              0xff\n              mul\n              not\n              and\n              swap1\n              dup4\n              iszero\n              iszero\n              mul\n              or\n              swap1\n              sstore\n              pop\n                /* \"campaign.sol\":3007:3014  request */\n              dup1\n                /* \"campaign.sol\":3007:3028  request.approvalCount */\n              0x03\n              add\n              0x00\n                /* \"campaign.sol\":3007:3030  request.approvalCount++ */\n              dup2\n              sload\n              dup1\n              swap3\n              swap2\n              swap1\n              tag_147\n              swap1\n              tag_133\n              jump\t// in\n            tag_147:\n              swap2\n              swap1\n              pop\n              sstore\n              pop\n                /* \"campaign.sol\":2743:3038  function approveRequest(uint index) public {\r... */\n              pop\n              pop\n              jump\t// out\n            tag_131:\n              dup3\n              dup1\n              sload\n              tag_148\n              swap1\n              tag_105\n              jump\t// in\n            tag_148:\n              swap1\n              0x00\n              mstore\n              keccak256(0x00, 0x20)\n              swap1\n              0x1f\n              add\n              0x20\n              swap1\n              div\n              dup2\n              add\n              swap3\n              dup3\n              tag_150\n              jumpi\n              0x00\n              dup6\n              sstore\n              jump(tag_149)\n            tag_150:\n              dup3\n              0x1f\n              lt\n              tag_151\n              jumpi\n              dup1\n              mload\n              not(0xff)\n              and\n              dup4\n              dup1\n              add\n              or\n              dup6\n              sstore\n              jump(tag_149)\n            tag_151:\n              dup3\n              dup1\n              add\n              0x01\n              add\n              dup6\n              sstore\n              dup3\n              iszero\n              tag_149\n              jumpi\n              swap2\n              dup3\n              add\n            tag_152:\n              dup3\n              dup2\n              gt\n              iszero\n              tag_153\n              jumpi\n              dup3\n              mload\n              dup3\n              sstore\n              swap2\n              0x20\n              add\n              swap2\n              swap1\n              0x01\n              add\n              swap1\n              jump(tag_152)\n            tag_153:\n            tag_149:\n              pop\n              swap1\n              pop\n              tag_154\n              swap2\n              swap1\n              tag_155\n              jump\t// in\n            tag_154:\n              pop\n              swap1\n              jump\t// out\n            tag_155:\n            tag_156:\n              dup1\n              dup3\n              gt\n              iszero\n              tag_157\n              jumpi\n              0x00\n              dup2\n              0x00\n              swap1\n              sstore\n              pop\n              0x01\n              add\n              jump(tag_156)\n            tag_157:\n              pop\n              swap1\n              jump\t// out\n                /* \"#utility.yul\":7:352   */\n            tag_159:\n                /* \"#utility.yul\":85:90   */\n              0x00\n                /* \"#utility.yul\":110:176   */\n              tag_161\n                /* \"#utility.yul\":126:175   */\n              tag_162\n                /* \"#utility.yul\":168:174   */\n              dup5\n                /* \"#utility.yul\":126:175   */\n              tag_163\n              jump\t// in\n            tag_162:\n                /* \"#utility.yul\":110:176   */\n              tag_164\n              jump\t// in\n            tag_161:\n                /* \"#utility.yul\":101:176   */\n              swap1\n              pop\n                /* \"#utility.yul\":199:205   */\n              dup3\n                /* \"#utility.yul\":192:197   */\n              dup2\n                /* \"#utility.yul\":185:206   */\n              mstore\n                /* \"#utility.yul\":237:241   */\n              0x20\n                /* \"#utility.yul\":230:235   */\n              dup2\n                /* \"#utility.yul\":226:242   */\n              add\n                /* \"#utility.yul\":275:278   */\n              dup5\n                /* \"#utility.yul\":266:272   */\n              dup5\n                /* \"#utility.yul\":261:264   */\n              dup5\n                /* \"#utility.yul\":257:273   */\n              add\n                /* \"#utility.yul\":254:279   */\n              gt\n                /* \"#utility.yul\":251:253   */\n              iszero\n              tag_165\n              jumpi\n                /* \"#utility.yul\":292:293   */\n              0x00\n                /* \"#utility.yul\":289:290   */\n              dup1\n                /* \"#utility.yul\":282:294   */\n              revert\n                /* \"#utility.yul\":251:253   */\n            tag_165:\n                /* \"#utility.yul\":305:346   */\n              tag_166\n                /* \"#utility.yul\":339:345   */\n              dup5\n                /* \"#utility.yul\":334:337   */\n              dup3\n                /* \"#utility.yul\":329:332   */\n              dup6\n                /* \"#utility.yul\":305:346   */\n              tag_167\n              jump\t// in\n            tag_166:\n                /* \"#utility.yul\":91:352   */\n              pop\n              swap4\n              swap3\n              pop\n              pop\n              pop\n              jump\t// out\n                /* \"#utility.yul\":358:497   */\n            tag_168:\n                /* \"#utility.yul\":404:409   */\n              0x00\n                /* \"#utility.yul\":442:448   */\n              dup2\n                /* \"#utility.yul\":429:449   */\n              calldataload\n                /* \"#utility.yul\":420:449   */\n              swap1\n              pop\n                /* \"#utility.yul\":458:491   */\n              tag_170\n                /* \"#utility.yul\":485:490   */\n              dup2\n                /* \"#utility.yul\":458:491   */\n              tag_171\n              jump\t// in\n            tag_170:\n                /* \"#utility.yul\":410:497   */\n              swap3\n              swap2\n              pop\n              pop\n              jump\t// out\n                /* \"#utility.yul\":517:790   */\n            tag_172:\n                /* \"#utility.yul\":573:578   */\n              0x00\n                /* \"#utility.yul\":622:625   */\n              dup3\n                /* \"#utility.yul\":615:619   */\n              0x1f\n                /* \"#utility.yul\":607:613   */\n              dup4\n                /* \"#utility.yul\":603:620   */\n              add\n                /* \"#utility.yul\":599:626   */\n              slt\n                /* \"#utility.yul\":589:591   */\n              tag_174\n              jumpi\n                /* \"#utility.yul\":640:641   */\n              0x00\n                /* \"#utility.yul\":637:638   */\n              dup1\n                /* \"#utility.yul\":630:642   */\n              revert\n                /* \"#utility.yul\":589:591   */\n            tag_174:\n                /* \"#utility.yul\":680:686   */\n              dup2\n                /* \"#utility.yul\":667:687   */\n              calldataload\n                /* \"#utility.yul\":705:784   */\n              tag_175\n                /* \"#utility.yul\":780:783   */\n              dup5\n                /* \"#utility.yul\":772:778   */\n              dup3\n                /* \"#utility.yul\":765:769   */\n              0x20\n                /* \"#utility.yul\":757:763   */\n              dup7\n                /* \"#utility.yul\":753:770   */\n              add\n                /* \"#utility.yul\":705:784   */\n              tag_159\n              jump\t// in\n            tag_175:\n                /* \"#utility.yul\":696:784   */\n              swap2\n              pop\n                /* \"#utility.yul\":579:790   */\n              pop\n              swap3\n              swap2\n              pop\n              pop\n              jump\t// out\n                /* \"#utility.yul\":796:935   */\n            tag_176:\n                /* \"#utility.yul\":842:847   */\n              0x00\n                /* \"#utility.yul\":880:886   */\n              dup2\n                /* \"#utility.yul\":867:887   */\n              calldataload\n                /* \"#utility.yul\":858:887   */\n              swap1\n              pop\n                /* \"#utility.yul\":896:929   */\n              tag_178\n                /* \"#utility.yul\":923:928   */\n              dup2\n                /* \"#utility.yul\":896:929   */\n              tag_179\n              jump\t// in\n            tag_178:\n                /* \"#utility.yul\":848:935   */\n              swap3\n              swap2\n              pop\n              pop\n              jump\t// out\n                /* \"#utility.yul\":941:1203   */\n            tag_38:\n                /* \"#utility.yul\":1000:1006   */\n              0x00\n                /* \"#utility.yul\":1049:1051   */\n              0x20\n                /* \"#utility.yul\":1037:1046   */\n              dup3\n                /* \"#utility.yul\":1028:1035   */\n              dup5\n                /* \"#utility.yul\":1024:1047   */\n              sub\n                /* \"#utility.yul\":1020:1052   */\n              slt\n                /* \"#utility.yul\":1017:1019   */\n              iszero\n              tag_181\n              jumpi\n                /* \"#utility.yul\":1065:1066   */\n              0x00\n                /* \"#utility.yul\":1062:1063   */\n              dup1\n                /* \"#utility.yul\":1055:1067   */\n              revert\n                /* \"#utility.yul\":1017:1019   */\n            tag_181:\n                /* \"#utility.yul\":1108:1109   */\n              0x00\n                /* \"#utility.yul\":1133:1186   */\n              tag_182\n                /* \"#utility.yul\":1178:1185   */\n              dup5\n                /* \"#utility.yul\":1169:1175   */\n              dup3\n                /* \"#utility.yul\":1158:1167   */\n              dup6\n                /* \"#utility.yul\":1154:1176   */\n              add\n                /* \"#utility.yul\":1133:1186   */\n              tag_168\n              jump\t// in\n            tag_182:\n                /* \"#utility.yul\":1123:1186   */\n              swap2\n              pop\n                /* \"#utility.yul\":1079:1196   */\n              pop\n                /* \"#utility.yul\":1007:1203   */\n              swap3\n              swap2\n              pop\n              pop\n              jump\t// out\n                /* \"#utility.yul\":1209:1874   */\n            tag_78:\n                /* \"#utility.yul\":1296:1302   */\n              0x00\n                /* \"#utility.yul\":1304:1310   */\n              dup1\n                /* \"#utility.yul\":1312:1318   */\n              0x00\n                /* \"#utility.yul\":1361:1363   */\n              0x60\n                /* \"#utility.yul\":1349:1358   */\n              dup5\n                /* \"#utility.yul\":1340:1347   */\n              dup7\n                /* \"#utility.yul\":1336:1359   */\n              sub\n                /* \"#utility.yul\":1332:1364   */\n              slt\n                /* \"#utility.yul\":1329:1331   */\n              iszero\n              tag_184\n              jumpi\n                /* \"#utility.yul\":1377:1378   */\n              0x00\n                /* \"#utility.yul\":1374:1375   */\n              dup1\n                /* \"#utility.yul\":1367:1379   */\n              revert\n                /* \"#utility.yul\":1329:1331   */\n            tag_184:\n                /* \"#utility.yul\":1448:1449   */\n              0x00\n                /* \"#utility.yul\":1437:1446   */\n              dup5\n                /* \"#utility.yul\":1433:1450   */\n              add\n                /* \"#utility.yul\":1420:1451   */\n              calldataload\n                /* \"#utility.yul\":1478:1496   */\n              0xffffffffffffffff\n                /* \"#utility.yul\":1470:1476   */\n              dup2\n                /* \"#utility.yul\":1467:1497   */\n              gt\n                /* \"#utility.yul\":1464:1466   */\n              iszero\n              tag_185\n              jumpi\n                /* \"#utility.yul\":1510:1511   */\n              0x00\n                /* \"#utility.yul\":1507:1508   */\n              dup1\n                /* \"#utility.yul\":1500:1512   */\n              revert\n                /* \"#utility.yul\":1464:1466   */\n            tag_185:\n                /* \"#utility.yul\":1538:1601   */\n              tag_186\n                /* \"#utility.yul\":1593:1600   */\n              dup7\n                /* \"#utility.yul\":1584:1590   */\n              dup3\n                /* \"#utility.yul\":1573:1582   */\n              dup8\n                /* \"#utility.yul\":1569:1591   */\n              add\n                /* \"#utility.yul\":1538:1601   */\n              tag_172\n              jump\t// in\n            tag_186:\n                /* \"#utility.yul\":1528:1601   */\n              swap4\n              pop\n                /* \"#utility.yul\":1391:1611   */\n              pop\n                /* \"#utility.yul\":1650:1652   */\n              0x20\n                /* \"#utility.yul\":1676:1729   */\n              tag_187\n                /* \"#utility.yul\":1721:1728   */\n              dup7\n                /* \"#utility.yul\":1712:1718   */\n              dup3\n                /* \"#utility.yul\":1701:1710   */\n              dup8\n                /* \"#utility.yul\":1697:1719   */\n              add\n                /* \"#utility.yul\":1676:1729   */\n              tag_176\n              jump\t// in\n            tag_187:\n                /* \"#utility.yul\":1666:1729   */\n              swap3\n              pop\n                /* \"#utility.yul\":1621:1739   */\n              pop\n                /* \"#utility.yul\":1778:1780   */\n              0x40\n                /* \"#utility.yul\":1804:1857   */\n              tag_188\n                /* \"#utility.yul\":1849:1856   */\n              dup7\n                /* \"#utility.yul\":1840:1846   */\n              dup3\n                /* \"#utility.yul\":1829:1838   */\n              dup8\n                /* \"#utility.yul\":1825:1847   */\n              add\n                /* \"#utility.yul\":1804:1857   */\n              tag_168\n              jump\t// in\n            tag_188:\n                /* \"#utility.yul\":1794:1857   */\n              swap2\n              pop\n                /* \"#utility.yul\":1749:1867   */\n              pop\n                /* \"#utility.yul\":1319:1874   */\n              swap3\n              pop\n              swap3\n              pop\n              swap3\n              jump\t// out\n                /* \"#utility.yul\":1880:2142   */\n            tag_24:\n                /* \"#utility.yul\":1939:1945   */\n              0x00\n                /* \"#utility.yul\":1988:1990   */\n              0x20\n                /* \"#utility.yul\":1976:1985   */\n              dup3\n                /* \"#utility.yul\":1967:1974   */\n              dup5\n                /* \"#utility.yul\":1963:1986   */\n              sub\n                /* \"#utility.yul\":1959:1991   */\n              slt\n                /* \"#utility.yul\":1956:1958   */\n              iszero\n              tag_190\n              jumpi\n                /* \"#utility.yul\":2004:2005   */\n              0x00\n                /* \"#utility.yul\":2001:2002   */\n              dup1\n                /* \"#utility.yul\":1994:2006   */\n              revert\n                /* \"#utility.yul\":1956:1958   */\n            tag_190:\n                /* \"#utility.yul\":2047:2048   */\n              0x00\n                /* \"#utility.yul\":2072:2125   */\n              tag_191\n                /* \"#utility.yul\":2117:2124   */\n              dup5\n                /* \"#utility.yul\":2108:2114   */\n              dup3\n                /* \"#utility.yul\":2097:2106   */\n              dup6\n                /* \"#utility.yul\":2093:2115   */\n              add\n                /* \"#utility.yul\":2072:2125   */\n              tag_176\n              jump\t// in\n            tag_191:\n                /* \"#utility.yul\":2062:2125   */\n              swap2\n              pop\n                /* \"#utility.yul\":2018:2135   */\n              pop\n                /* \"#utility.yul\":1946:2142   */\n              swap3\n              swap2\n              pop\n              pop\n              jump\t// out\n                /* \"#utility.yul\":2148:2266   */\n            tag_192:\n                /* \"#utility.yul\":2235:2259   */\n              tag_194\n                /* \"#utility.yul\":2253:2258   */\n              dup2\n                /* \"#utility.yul\":2235:2259   */\n              tag_195\n              jump\t// in\n            tag_194:\n                /* \"#utility.yul\":2230:2233   */\n              dup3\n                /* \"#utility.yul\":2223:2260   */\n              mstore\n                /* \"#utility.yul\":2213:2266   */\n              pop\n              pop\n              jump\t// out\n                /* \"#utility.yul\":2272:2381   */\n            tag_196:\n                /* \"#utility.yul\":2353:2374   */\n              tag_198\n                /* \"#utility.yul\":2368:2373   */\n              dup2\n                /* \"#utility.yul\":2353:2374   */\n              tag_199\n              jump\t// in\n            tag_198:\n                /* \"#utility.yul\":2348:2351   */\n              dup3\n                /* \"#utility.yul\":2341:2375   */\n              mstore\n                /* \"#utility.yul\":2331:2381   */\n              pop\n              pop\n              jump\t// out\n                /* \"#utility.yul\":2387:2751   */\n            tag_200:\n                /* \"#utility.yul\":2475:2478   */\n              0x00\n                /* \"#utility.yul\":2503:2542   */\n              tag_202\n                /* \"#utility.yul\":2536:2541   */\n              dup3\n                /* \"#utility.yul\":2503:2542   */\n              tag_203\n              jump\t// in\n            tag_202:\n                /* \"#utility.yul\":2558:2629   */\n              tag_204\n                /* \"#utility.yul\":2622:2628   */\n              dup2\n                /* \"#utility.yul\":2617:2620   */\n              dup6\n                /* \"#utility.yul\":2558:2629   */\n              tag_205\n              jump\t// in\n            tag_204:\n                /* \"#utility.yul\":2551:2629   */\n              swap4\n              pop\n                /* \"#utility.yul\":2638:2690   */\n              tag_206\n                /* \"#utility.yul\":2683:2689   */\n              dup2\n                /* \"#utility.yul\":2678:2681   */\n              dup6\n                /* \"#utility.yul\":2671:2675   */\n              0x20\n                /* \"#utility.yul\":2664:2669   */\n              dup7\n                /* \"#utility.yul\":2660:2676   */\n              add\n                /* \"#utility.yul\":2638:2690   */\n              tag_207\n              jump\t// in\n            tag_206:\n                /* \"#utility.yul\":2715:2744   */\n              tag_208\n                /* \"#utility.yul\":2737:2743   */\n              dup2\n                /* \"#utility.yul\":2715:2744   */\n              tag_209\n              jump\t// in\n            tag_208:\n                /* \"#utility.yul\":2710:2713   */\n              dup5\n                /* \"#utility.yul\":2706:2745   */\n              add\n                /* \"#utility.yul\":2699:2745   */\n              swap2\n              pop\n                /* \"#utility.yul\":2479:2751   */\n              pop\n              swap3\n              swap2\n              pop\n              pop\n              jump\t// out\n                /* \"#utility.yul\":2757:2875   */\n            tag_210:\n                /* \"#utility.yul\":2844:2868   */\n              tag_212\n                /* \"#utility.yul\":2862:2867   */\n              dup2\n                /* \"#utility.yul\":2844:2868   */\n              tag_213\n              jump\t// in\n            tag_212:\n                /* \"#utility.yul\":2839:2842   */\n              dup3\n                /* \"#utility.yul\":2832:2869   */\n              mstore\n                /* \"#utility.yul\":2822:2875   */\n              pop\n              pop\n              jump\t// out\n                /* \"#utility.yul\":2881:3103   */\n            tag_60:\n                /* \"#utility.yul\":2974:2978   */\n              0x00\n                /* \"#utility.yul\":3012:3014   */\n              0x20\n                /* \"#utility.yul\":3001:3010   */\n              dup3\n                /* \"#utility.yul\":2997:3015   */\n              add\n                /* \"#utility.yul\":2989:3015   */\n              swap1\n              pop\n                /* \"#utility.yul\":3025:3096   */\n              tag_215\n                /* \"#utility.yul\":3093:3094   */\n              0x00\n                /* \"#utility.yul\":3082:3091   */\n              dup4\n                /* \"#utility.yul\":3078:3095   */\n              add\n                /* \"#utility.yul\":3069:3075   */\n              dup5\n                /* \"#utility.yul\":3025:3096   */\n              tag_192\n              jump\t// in\n            tag_215:\n                /* \"#utility.yul\":2979:3103   */\n              swap3\n              swap2\n              pop\n              pop\n              jump\t// out\n                /* \"#utility.yul\":3109:3319   */\n            tag_41:\n                /* \"#utility.yul\":3196:3200   */\n              0x00\n                /* \"#utility.yul\":3234:3236   */\n              0x20\n                /* \"#utility.yul\":3223:3232   */\n              dup3\n                /* \"#utility.yul\":3219:3237   */\n              add\n                /* \"#utility.yul\":3211:3237   */\n              swap1\n              pop\n                /* \"#utility.yul\":3247:3312   */\n              tag_217\n                /* \"#utility.yul\":3309:3310   */\n              0x00\n                /* \"#utility.yul\":3298:3307   */\n              dup4\n                /* \"#utility.yul\":3294:3311   */\n              add\n                /* \"#utility.yul\":3285:3291   */\n              dup5\n                /* \"#utility.yul\":3247:3312   */\n              tag_196\n              jump\t// in\n            tag_217:\n                /* \"#utility.yul\":3201:3319   */\n              swap3\n              swap2\n              pop\n              pop\n              jump\t// out\n                /* \"#utility.yul\":3325:3638   */\n            tag_50:\n                /* \"#utility.yul\":3438:3442   */\n              0x00\n                /* \"#utility.yul\":3476:3478   */\n              0x20\n                /* \"#utility.yul\":3465:3474   */\n              dup3\n                /* \"#utility.yul\":3461:3479   */\n              add\n                /* \"#utility.yul\":3453:3479   */\n              swap1\n              pop\n                /* \"#utility.yul\":3525:3534   */\n              dup2\n                /* \"#utility.yul\":3519:3523   */\n              dup2\n                /* \"#utility.yul\":3515:3535   */\n              sub\n                /* \"#utility.yul\":3511:3512   */\n              0x00\n                /* \"#utility.yul\":3500:3509   */\n              dup4\n                /* \"#utility.yul\":3496:3513   */\n              add\n                /* \"#utility.yul\":3489:3536   */\n              mstore\n                /* \"#utility.yul\":3553:3631   */\n              tag_219\n                /* \"#utility.yul\":3626:3630   */\n              dup2\n                /* \"#utility.yul\":3617:3623   */\n              dup5\n                /* \"#utility.yul\":3553:3631   */\n              tag_200\n              jump\t// in\n            tag_219:\n                /* \"#utility.yul\":3545:3631   */\n              swap1\n              pop\n                /* \"#utility.yul\":3443:3638   */\n              swap3\n              swap2\n              pop\n              pop\n              jump\t// out\n                /* \"#utility.yul\":3644:4387   */\n            tag_70:\n                /* \"#utility.yul\":3863:3867   */\n              0x00\n                /* \"#utility.yul\":3901:3904   */\n              0xa0\n                /* \"#utility.yul\":3890:3899   */\n              dup3\n                /* \"#utility.yul\":3886:3905   */\n              add\n                /* \"#utility.yul\":3878:3905   */\n              swap1\n              pop\n                /* \"#utility.yul\":3951:3960   */\n              dup2\n                /* \"#utility.yul\":3945:3949   */\n              dup2\n                /* \"#utility.yul\":3941:3961   */\n              sub\n                /* \"#utility.yul\":3937:3938   */\n              0x00\n                /* \"#utility.yul\":3926:3935   */\n              dup4\n                /* \"#utility.yul\":3922:3939   */\n              add\n                /* \"#utility.yul\":3915:3962   */\n              mstore\n                /* \"#utility.yul\":3979:4057   */\n              tag_221\n                /* \"#utility.yul\":4052:4056   */\n              dup2\n                /* \"#utility.yul\":4043:4049   */\n              dup9\n                /* \"#utility.yul\":3979:4057   */\n              tag_200\n              jump\t// in\n            tag_221:\n                /* \"#utility.yul\":3971:4057   */\n              swap1\n              pop\n                /* \"#utility.yul\":4067:4139   */\n              tag_222\n                /* \"#utility.yul\":4135:4137   */\n              0x20\n                /* \"#utility.yul\":4124:4133   */\n              dup4\n                /* \"#utility.yul\":4120:4138   */\n              add\n                /* \"#utility.yul\":4111:4117   */\n              dup8\n                /* \"#utility.yul\":4067:4139   */\n              tag_210\n              jump\t// in\n            tag_222:\n                /* \"#utility.yul\":4149:4221   */\n              tag_223\n                /* \"#utility.yul\":4217:4219   */\n              0x40\n                /* \"#utility.yul\":4206:4215   */\n              dup4\n                /* \"#utility.yul\":4202:4220   */\n              add\n                /* \"#utility.yul\":4193:4199   */\n              dup7\n                /* \"#utility.yul\":4149:4221   */\n              tag_192\n              jump\t// in\n            tag_223:\n                /* \"#utility.yul\":4231:4297   */\n              tag_224\n                /* \"#utility.yul\":4293:4295   */\n              0x60\n                /* \"#utility.yul\":4282:4291   */\n              dup4\n                /* \"#utility.yul\":4278:4296   */\n              add\n                /* \"#utility.yul\":4269:4275   */\n              dup6\n                /* \"#utility.yul\":4231:4297   */\n              tag_196\n              jump\t// in\n            tag_224:\n                /* \"#utility.yul\":4307:4380   */\n              tag_225\n                /* \"#utility.yul\":4375:4378   */\n              0x80\n                /* \"#utility.yul\":4364:4373   */\n              dup4\n                /* \"#utility.yul\":4360:4379   */\n              add\n                /* \"#utility.yul\":4351:4357   */\n              dup5\n                /* \"#utility.yul\":4307:4380   */\n              tag_210\n              jump\t// in\n            tag_225:\n                /* \"#utility.yul\":3868:4387   */\n              swap7\n              swap6\n              pop\n              pop\n              pop\n              pop\n              pop\n              pop\n              jump\t// out\n                /* \"#utility.yul\":4393:4615   */\n            tag_30:\n                /* \"#utility.yul\":4486:4490   */\n              0x00\n                /* \"#utility.yul\":4524:4526   */\n              0x20\n                /* \"#utility.yul\":4513:4522   */\n              dup3\n                /* \"#utility.yul\":4509:4527   */\n              add\n                /* \"#utility.yul\":4501:4527   */\n              swap1\n              pop\n                /* \"#utility.yul\":4537:4608   */\n              tag_227\n                /* \"#utility.yul\":4605:4606   */\n              0x00\n                /* \"#utility.yul\":4594:4603   */\n              dup4\n                /* \"#utility.yul\":4590:4607   */\n              add\n                /* \"#utility.yul\":4581:4587   */\n              dup5\n                /* \"#utility.yul\":4537:4608   */\n              tag_210\n              jump\t// in\n            tag_227:\n                /* \"#utility.yul\":4491:4615   */\n              swap3\n              swap2\n              pop\n              pop\n              jump\t// out\n                /* \"#utility.yul\":4621:5911   */\n            tag_55:\n                /* \"#utility.yul\":4978:4982   */\n              0x00\n                /* \"#utility.yul\":5016:5019   */\n              0x0120\n                /* \"#utility.yul\":5005:5014   */\n              dup3\n                /* \"#utility.yul\":5001:5020   */\n              add\n                /* \"#utility.yul\":4993:5020   */\n              swap1\n              pop\n                /* \"#utility.yul\":5030:5101   */\n              tag_229\n                /* \"#utility.yul\":5098:5099   */\n              0x00\n                /* \"#utility.yul\":5087:5096   */\n              dup4\n                /* \"#utility.yul\":5083:5100   */\n              add\n                /* \"#utility.yul\":5074:5080   */\n              dup13\n                /* \"#utility.yul\":5030:5101   */\n              tag_210\n              jump\t// in\n            tag_229:\n                /* \"#utility.yul\":5111:5183   */\n              tag_230\n                /* \"#utility.yul\":5179:5181   */\n              0x20\n                /* \"#utility.yul\":5168:5177   */\n              dup4\n                /* \"#utility.yul\":5164:5182   */\n              add\n                /* \"#utility.yul\":5155:5161   */\n              dup12\n                /* \"#utility.yul\":5111:5183   */\n              tag_210\n              jump\t// in\n            tag_230:\n                /* \"#utility.yul\":5193:5265   */\n              tag_231\n                /* \"#utility.yul\":5261:5263   */\n              0x40\n                /* \"#utility.yul\":5250:5259   */\n              dup4\n                /* \"#utility.yul\":5246:5264   */\n              add\n                /* \"#utility.yul\":5237:5243   */\n              dup11\n                /* \"#utility.yul\":5193:5265   */\n              tag_210\n              jump\t// in\n            tag_231:\n                /* \"#utility.yul\":5275:5347   */\n              tag_232\n                /* \"#utility.yul\":5343:5345   */\n              0x60\n                /* \"#utility.yul\":5332:5341   */\n              dup4\n                /* \"#utility.yul\":5328:5346   */\n              add\n                /* \"#utility.yul\":5319:5325   */\n              dup10\n                /* \"#utility.yul\":5275:5347   */\n              tag_210\n              jump\t// in\n            tag_232:\n                /* \"#utility.yul\":5357:5430   */\n              tag_233\n                /* \"#utility.yul\":5425:5428   */\n              0x80\n                /* \"#utility.yul\":5414:5423   */\n              dup4\n                /* \"#utility.yul\":5410:5429   */\n              add\n                /* \"#utility.yul\":5401:5407   */\n              dup9\n                /* \"#utility.yul\":5357:5430   */\n              tag_192\n              jump\t// in\n            tag_233:\n                /* \"#utility.yul\":5478:5487   */\n              dup2\n                /* \"#utility.yul\":5472:5476   */\n              dup2\n                /* \"#utility.yul\":5468:5488   */\n              sub\n                /* \"#utility.yul\":5462:5465   */\n              0xa0\n                /* \"#utility.yul\":5451:5460   */\n              dup4\n                /* \"#utility.yul\":5447:5466   */\n              add\n                /* \"#utility.yul\":5440:5489   */\n              mstore\n                /* \"#utility.yul\":5506:5584   */\n              tag_234\n                /* \"#utility.yul\":5579:5583   */\n              dup2\n                /* \"#utility.yul\":5570:5576   */\n              dup8\n                /* \"#utility.yul\":5506:5584   */\n              tag_200\n              jump\t// in\n            tag_234:\n                /* \"#utility.yul\":5498:5584   */\n              swap1\n              pop\n                /* \"#utility.yul\":5594:5667   */\n              tag_235\n                /* \"#utility.yul\":5662:5665   */\n              0xc0\n                /* \"#utility.yul\":5651:5660   */\n              dup4\n                /* \"#utility.yul\":5647:5666   */\n              add\n                /* \"#utility.yul\":5638:5644   */\n              dup7\n                /* \"#utility.yul\":5594:5667   */\n              tag_210\n              jump\t// in\n            tag_235:\n                /* \"#utility.yul\":5715:5724   */\n              dup2\n                /* \"#utility.yul\":5709:5713   */\n              dup2\n                /* \"#utility.yul\":5705:5725   */\n              sub\n                /* \"#utility.yul\":5699:5702   */\n              0xe0\n                /* \"#utility.yul\":5688:5697   */\n              dup4\n                /* \"#utility.yul\":5684:5703   */\n              add\n                /* \"#utility.yul\":5677:5726   */\n              mstore\n                /* \"#utility.yul\":5743:5821   */\n              tag_236\n                /* \"#utility.yul\":5816:5820   */\n              dup2\n                /* \"#utility.yul\":5807:5813   */\n              dup6\n                /* \"#utility.yul\":5743:5821   */\n              tag_200\n              jump\t// in\n            tag_236:\n                /* \"#utility.yul\":5735:5821   */\n              swap1\n              pop\n                /* \"#utility.yul\":5831:5904   */\n              tag_237\n                /* \"#utility.yul\":5899:5902   */\n              0x0100\n                /* \"#utility.yul\":5888:5897   */\n              dup4\n                /* \"#utility.yul\":5884:5903   */\n              add\n                /* \"#utility.yul\":5875:5881   */\n              dup5\n                /* \"#utility.yul\":5831:5904   */\n              tag_210\n              jump\t// in\n            tag_237:\n                /* \"#utility.yul\":4983:5911   */\n              swap11\n              swap10\n              pop\n              pop\n              pop\n              pop\n              pop\n              pop\n              pop\n              pop\n              pop\n              pop\n              jump\t// out\n                /* \"#utility.yul\":5917:6046   */\n            tag_164:\n                /* \"#utility.yul\":5951:5957   */\n              0x00\n                /* \"#utility.yul\":5978:5998   */\n              tag_239\n              tag_240\n              jump\t// in\n            tag_239:\n                /* \"#utility.yul\":5968:5998   */\n              swap1\n              pop\n                /* \"#utility.yul\":6007:6040   */\n              tag_241\n                /* \"#utility.yul\":6035:6039   */\n              dup3\n                /* \"#utility.yul\":6027:6033   */\n              dup3\n                /* \"#utility.yul\":6007:6040   */\n              tag_242\n              jump\t// in\n            tag_241:\n                /* \"#utility.yul\":5958:6046   */\n              swap2\n              swap1\n              pop\n              jump\t// out\n                /* \"#utility.yul\":6052:6127   */\n            tag_240:\n                /* \"#utility.yul\":6085:6091   */\n              0x00\n                /* \"#utility.yul\":6118:6120   */\n              0x40\n                /* \"#utility.yul\":6112:6121   */\n              mload\n                /* \"#utility.yul\":6102:6121   */\n              swap1\n              pop\n                /* \"#utility.yul\":6092:6127   */\n              swap1\n              jump\t// out\n                /* \"#utility.yul\":6133:6441   */\n            tag_163:\n                /* \"#utility.yul\":6195:6199   */\n              0x00\n                /* \"#utility.yul\":6285:6303   */\n              0xffffffffffffffff\n                /* \"#utility.yul\":6277:6283   */\n              dup3\n                /* \"#utility.yul\":6274:6304   */\n              gt\n                /* \"#utility.yul\":6271:6273   */\n              iszero\n              tag_245\n              jumpi\n                /* \"#utility.yul\":6307:6325   */\n              tag_246\n              tag_247\n              jump\t// in\n            tag_246:\n                /* \"#utility.yul\":6271:6273   */\n            tag_245:\n                /* \"#utility.yul\":6345:6374   */\n              tag_248\n                /* \"#utility.yul\":6367:6373   */\n              dup3\n                /* \"#utility.yul\":6345:6374   */\n              tag_209\n              jump\t// in\n            tag_248:\n                /* \"#utility.yul\":6337:6374   */\n              swap1\n              pop\n                /* \"#utility.yul\":6429:6433   */\n              0x20\n                /* \"#utility.yul\":6423:6427   */\n              dup2\n                /* \"#utility.yul\":6419:6434   */\n              add\n                /* \"#utility.yul\":6411:6434   */\n              swap1\n              pop\n                /* \"#utility.yul\":6200:6441   */\n              swap2\n              swap1\n              pop\n              jump\t// out\n                /* \"#utility.yul\":6447:6546   */\n            tag_203:\n                /* \"#utility.yul\":6499:6505   */\n              0x00\n                /* \"#utility.yul\":6533:6538   */\n              dup2\n                /* \"#utility.yul\":6527:6539   */\n              mload\n                /* \"#utility.yul\":6517:6539   */\n              swap1\n              pop\n                /* \"#utility.yul\":6506:6546   */\n              swap2\n              swap1\n              pop\n              jump\t// out\n                /* \"#utility.yul\":6552:6721   */\n            tag_205:\n                /* \"#utility.yul\":6636:6647   */\n              0x00\n                /* \"#utility.yul\":6670:6676   */\n              dup3\n                /* \"#utility.yul\":6665:6668   */\n              dup3\n                /* \"#utility.yul\":6658:6677   */\n              mstore\n                /* \"#utility.yul\":6710:6714   */\n              0x20\n                /* \"#utility.yul\":6705:6708   */\n              dup3\n                /* \"#utility.yul\":6701:6715   */\n              add\n                /* \"#utility.yul\":6686:6715   */\n              swap1\n              pop\n                /* \"#utility.yul\":6648:6721   */\n              swap3\n              swap2\n              pop\n              pop\n              jump\t// out\n                /* \"#utility.yul\":6727:7032   */\n            tag_143:\n                /* \"#utility.yul\":6767:6770   */\n              0x00\n                /* \"#utility.yul\":6786:6806   */\n              tag_252\n                /* \"#utility.yul\":6804:6805   */\n              dup3\n                /* \"#utility.yul\":6786:6806   */\n              tag_213\n              jump\t// in\n            tag_252:\n                /* \"#utility.yul\":6781:6806   */\n              swap2\n              pop\n                /* \"#utility.yul\":6820:6840   */\n              tag_253\n                /* \"#utility.yul\":6838:6839   */\n              dup4\n                /* \"#utility.yul\":6820:6840   */\n              tag_213\n              jump\t// in\n            tag_253:\n                /* \"#utility.yul\":6815:6840   */\n              swap3\n              pop\n                /* \"#utility.yul\":6974:6975   */\n              dup3\n                /* \"#utility.yul\":6906:6972   */\n              0xffffffffffffffffffffffffffffffffffffffffffffffffffffffffffffffff\n                /* \"#utility.yul\":6902:6976   */\n              sub\n                /* \"#utility.yul\":6899:6900   */\n              dup3\n                /* \"#utility.yul\":6896:6977   */\n              gt\n                /* \"#utility.yul\":6893:6895   */\n              iszero\n              tag_254\n              jumpi\n                /* \"#utility.yul\":6980:6998   */\n              tag_255\n              tag_256\n              jump\t// in\n            tag_255:\n                /* \"#utility.yul\":6893:6895   */\n            tag_254:\n                /* \"#utility.yul\":7024:7025   */\n              dup3\n                /* \"#utility.yul\":7021:7022   */\n              dup3\n                /* \"#utility.yul\":7017:7026   */\n              add\n                /* \"#utility.yul\":7010:7026   */\n              swap1\n              pop\n                /* \"#utility.yul\":6771:7032   */\n              swap3\n              swap2\n              pop\n              pop\n              jump\t// out\n                /* \"#utility.yul\":7038:7223   */\n            tag_99:\n                /* \"#utility.yul\":7078:7079   */\n              0x00\n                /* \"#utility.yul\":7095:7115   */\n              tag_258\n                /* \"#utility.yul\":7113:7114   */\n              dup3\n                /* \"#utility.yul\":7095:7115   */\n              tag_213\n              jump\t// in\n            tag_258:\n                /* \"#utility.yul\":7090:7115   */\n              swap2\n              pop\n                /* \"#utility.yul\":7129:7149   */\n              tag_259\n                /* \"#utility.yul\":7147:7148   */\n              dup4\n                /* \"#utility.yul\":7129:7149   */\n              tag_213\n              jump\t// in\n            tag_259:\n                /* \"#utility.yul\":7124:7149   */\n              swap3\n              pop\n                /* \"#utility.yul\":7168:7169   */\n              dup3\n                /* \"#utility.yul\":7158:7160   */\n              tag_260\n              jumpi\n                /* \"#utility.yul\":7173:7191   */\n              tag_261\n              tag_262\n              jump\t// in\n            tag_261:\n                /* \"#utility.yul\":7158:7160   */\n            tag_260:\n                /* \"#utility.yul\":7215:7216   */\n              dup3\n                /* \"#utility.yul\":7212:7213   */\n              dup3\n                /* \"#utility.yul\":7208:7217   */\n              div\n                /* \"#utility.yul\":7203:7217   */\n              swap1\n              pop\n                /* \"#utility.yul\":7080:7223   */\n              swap3\n              swap2\n              pop\n              pop\n              jump\t// out\n                /* \"#utility.yul\":7229:7325   */\n            tag_195:\n                /* \"#utility.yul\":7266:7273   */\n              0x00\n                /* \"#utility.yul\":7295:7319   */\n              tag_264\n                /* \"#utility.yul\":7313:7318   */\n              dup3\n                /* \"#utility.yul\":7295:7319   */\n              tag_265\n              jump\t// in\n            tag_264:\n                /* \"#utility.yul\":7284:7319   */\n              swap1\n              pop\n                /* \"#utility.yul\":7274:7325   */\n              swap2\n              swap1\n              pop\n              jump\t// out\n                /* \"#utility.yul\":7331:7421   */\n            tag_199:\n                /* \"#utility.yul\":7365:7372   */\n              0x00\n                /* \"#utility.yul\":7408:7413   */\n              dup2\n                /* \"#utility.yul\":7401:7414   */\n              iszero\n                /* \"#utility.yul\":7394:7415   */\n              iszero\n                /* \"#utility.yul\":7383:7415   */\n              swap1\n              pop\n                /* \"#utility.yul\":7373:7421   */\n              swap2\n              swap1\n              pop\n              jump\t// out\n                /* \"#utility.yul\":7427:7553   */\n            tag_265:\n                /* \"#utility.yul\":7464:7471   */\n              0x00\n                /* \"#utility.yul\":7504:7546   */\n              0xffffffffffffffffffffffffffffffffffffffff\n                /* \"#utility.yul\":7497:7502   */\n              dup3\n                /* \"#utility.yul\":7493:7547   */\n              and\n                /* \"#utility.yul\":7482:7547   */\n              swap1\n              pop\n                /* \"#utility.yul\":7472:7553   */\n              swap2\n              swap1\n              pop\n              jump\t// out\n                /* \"#utility.yul\":7559:7636   */\n            tag_213:\n                /* \"#utility.yul\":7596:7603   */\n              0x00\n                /* \"#utility.yul\":7625:7630   */\n              dup2\n                /* \"#utility.yul\":7614:7630   */\n              swap1\n              pop\n                /* \"#utility.yul\":7604:7636   */\n              swap2\n              swap1\n              pop\n              jump\t// out\n                /* \"#utility.yul\":7642:7796   */\n            tag_167:\n                /* \"#utility.yul\":7726:7732   */\n              dup3\n                /* \"#utility.yul\":7721:7724   */\n              dup2\n                /* \"#utility.yul\":7716:7719   */\n              dup4\n                /* \"#utility.yul\":7703:7733   */\n              calldatacopy\n                /* \"#utility.yul\":7788:7789   */\n              0x00\n                /* \"#utility.yul\":7779:7785   */\n              dup4\n                /* \"#utility.yul\":7774:7777   */\n              dup4\n                /* \"#utility.yul\":7770:7786   */\n              add\n                /* \"#utility.yul\":7763:7790   */\n              mstore\n                /* \"#utility.yul\":7693:7796   */\n              pop\n              pop\n              pop\n              jump\t// out\n                /* \"#utility.yul\":7802:8109   */\n            tag_207:\n                /* \"#utility.yul\":7870:7871   */\n              0x00\n                /* \"#utility.yul\":7880:7993   */\n            tag_271:\n                /* \"#utility.yul\":7894:7900   */\n              dup4\n                /* \"#utility.yul\":7891:7892   */\n              dup2\n                /* \"#utility.yul\":7888:7901   */\n              lt\n                /* \"#utility.yul\":7880:7993   */\n              iszero\n              tag_273\n              jumpi\n                /* \"#utility.yul\":7979:7980   */\n              dup1\n                /* \"#utility.yul\":7974:7977   */\n              dup3\n                /* \"#utility.yul\":7970:7981   */\n              add\n                /* \"#utility.yul\":7964:7982   */\n              mload\n                /* \"#utility.yul\":7960:7961   */\n              dup2\n                /* \"#utility.yul\":7955:7958   */\n              dup5\n                /* \"#utility.yul\":7951:7962   */\n              add\n                /* \"#utility.yul\":7944:7983   */\n              mstore\n                /* \"#utility.yul\":7916:7918   */\n              0x20\n                /* \"#utility.yul\":7913:7914   */\n              dup2\n                /* \"#utility.yul\":7909:7919   */\n              add\n                /* \"#utility.yul\":7904:7919   */\n              swap1\n              pop\n                /* \"#utility.yul\":7880:7993   */\n              jump(tag_271)\n            tag_273:\n                /* \"#utility.yul\":8011:8017   */\n              dup4\n                /* \"#utility.yul\":8008:8009   */\n              dup2\n                /* \"#utility.yul\":8005:8018   */\n              gt\n                /* \"#utility.yul\":8002:8004   */\n              iszero\n              tag_274\n              jumpi\n                /* \"#utility.yul\":8091:8092   */\n              0x00\n                /* \"#utility.yul\":8082:8088   */\n              dup5\n                /* \"#utility.yul\":8077:8080   */\n              dup5\n                /* \"#utility.yul\":8073:8089   */\n              add\n                /* \"#utility.yul\":8066:8093   */\n              mstore\n                /* \"#utility.yul\":8002:8004   */\n            tag_274:\n                /* \"#utility.yul\":7851:8109   */\n              pop\n              pop\n              pop\n              pop\n              jump\t// out\n                /* \"#utility.yul\":8115:8435   */\n            tag_105:\n                /* \"#utility.yul\":8159:8165   */\n              0x00\n                /* \"#utility.yul\":8196:8197   */\n              0x02\n                /* \"#utility.yul\":8190:8194   */\n              dup3\n                /* \"#utility.yul\":8186:8198   */\n              div\n                /* \"#utility.yul\":8176:8198   */\n              swap1\n              pop\n                /* \"#utility.yul\":8243:8244   */\n              0x01\n                /* \"#utility.yul\":8237:8241   */\n              dup3\n                /* \"#utility.yul\":8233:8245   */\n              and\n                /* \"#utility.yul\":8264:8282   */\n              dup1\n                /* \"#utility.yul\":8254:8256   */\n              tag_276\n              jumpi\n                /* \"#utility.yul\":8320:8324   */\n              0x7f\n                /* \"#utility.yul\":8312:8318   */\n              dup3\n                /* \"#utility.yul\":8308:8325   */\n              and\n                /* \"#utility.yul\":8298:8325   */\n              swap2\n              pop\n                /* \"#utility.yul\":8254:8256   */\n            tag_276:\n                /* \"#utility.yul\":8382:8384   */\n              0x20\n                /* \"#utility.yul\":8374:8380   */\n              dup3\n                /* \"#utility.yul\":8371:8385   */\n              lt\n                /* \"#utility.yul\":8351:8369   */\n              dup2\n                /* \"#utility.yul\":8348:8386   */\n              eq\n                /* \"#utility.yul\":8345:8347   */\n              iszero\n              tag_277\n              jumpi\n                /* \"#utility.yul\":8401:8419   */\n              tag_278\n              tag_279\n              jump\t// in\n            tag_278:\n                /* \"#utility.yul\":8345:8347   */\n            tag_277:\n                /* \"#utility.yul\":8166:8435   */\n              pop\n              swap2\n              swap1\n              pop\n              jump\t// out\n                /* \"#utility.yul\":8441:8722   */\n            tag_242:\n                /* \"#utility.yul\":8524:8551   */\n              tag_281\n                /* \"#utility.yul\":8546:8550   */\n              dup3\n                /* \"#utility.yul\":8524:8551   */\n              tag_209\n              jump\t// in\n            tag_281:\n                /* \"#utility.yul\":8516:8522   */\n              dup2\n                /* \"#utility.yul\":8512:8552   */\n              add\n                /* \"#utility.yul\":8654:8660   */\n              dup2\n                /* \"#utility.yul\":8642:8652   */\n              dup2\n                /* \"#utility.yul\":8639:8661   */\n              lt\n                /* \"#utility.yul\":8618:8636   */\n              0xffffffffffffffff\n                /* \"#utility.yul\":8606:8616   */\n              dup3\n                /* \"#utility.yul\":8603:8637   */\n              gt\n                /* \"#utility.yul\":8600:8662   */\n              or\n                /* \"#utility.yul\":8597:8599   */\n              iszero\n              tag_282\n              jumpi\n                /* \"#utility.yul\":8665:8683   */\n              tag_283\n              tag_247\n              jump\t// in\n            tag_283:\n                /* \"#utility.yul\":8597:8599   */\n            tag_282:\n                /* \"#utility.yul\":8705:8715   */\n              dup1\n                /* \"#utility.yul\":8701:8703   */\n              0x40\n                /* \"#utility.yul\":8694:8716   */\n              mstore\n                /* \"#utility.yul\":8484:8722   */\n              pop\n              pop\n              pop\n              jump\t// out\n                /* \"#utility.yul\":8728:8961   */\n            tag_133:\n                /* \"#utility.yul\":8767:8770   */\n              0x00\n                /* \"#utility.yul\":8790:8814   */\n              tag_285\n                /* \"#utility.yul\":8808:8813   */\n              dup3\n                /* \"#utility.yul\":8790:8814   */\n              tag_213\n              jump\t// in\n            tag_285:\n                /* \"#utility.yul\":8781:8814   */\n              swap2\n              pop\n                /* \"#utility.yul\":8836:8902   */\n              0xffffffffffffffffffffffffffffffffffffffffffffffffffffffffffffffff\n                /* \"#utility.yul\":8829:8834   */\n              dup3\n                /* \"#utility.yul\":8826:8903   */\n              eq\n                /* \"#utility.yul\":8823:8825   */\n              iszero\n              tag_286\n              jumpi\n                /* \"#utility.yul\":8906:8924   */\n              tag_287\n              tag_256\n              jump\t// in\n            tag_287:\n                /* \"#utility.yul\":8823:8825   */\n            tag_286:\n                /* \"#utility.yul\":8953:8954   */\n              0x01\n                /* \"#utility.yul\":8946:8951   */\n              dup3\n                /* \"#utility.yul\":8942:8955   */\n              add\n                /* \"#utility.yul\":8935:8955   */\n              swap1\n              pop\n                /* \"#utility.yul\":8771:8961   */\n              swap2\n              swap1\n              pop\n              jump\t// out\n                /* \"#utility.yul\":8967:9147   */\n            tag_256:\n                /* \"#utility.yul\":9015:9092   */\n              0x4e487b7100000000000000000000000000000000000000000000000000000000\n                /* \"#utility.yul\":9012:9013   */\n              0x00\n                /* \"#utility.yul\":9005:9093   */\n              mstore\n                /* \"#utility.yul\":9112:9116   */\n              0x11\n                /* \"#utility.yul\":9109:9110   */\n              0x04\n                /* \"#utility.yul\":9102:9117   */\n              mstore\n                /* \"#utility.yul\":9136:9140   */\n              0x24\n                /* \"#utility.yul\":9133:9134   */\n              0x00\n                /* \"#utility.yul\":9126:9141   */\n              revert\n                /* \"#utility.yul\":9153:9333   */\n            tag_262:\n                /* \"#utility.yul\":9201:9278   */\n              0x4e487b7100000000000000000000000000000000000000000000000000000000\n                /* \"#utility.yul\":9198:9199   */\n              0x00\n                /* \"#utility.yul\":9191:9279   */\n              mstore\n                /* \"#utility.yul\":9298:9302   */\n              0x12\n                /* \"#utility.yul\":9295:9296   */\n              0x04\n                /* \"#utility.yul\":9288:9303   */\n              mstore\n                /* \"#utility.yul\":9322:9326   */\n              0x24\n                /* \"#utility.yul\":9319:9320   */\n              0x00\n                /* \"#utility.yul\":9312:9327   */\n              revert\n                /* \"#utility.yul\":9339:9519   */\n            tag_279:\n                /* \"#utility.yul\":9387:9464   */\n              0x4e487b7100000000000000000000000000000000000000000000000000000000\n                /* \"#utility.yul\":9384:9385   */\n              0x00\n                /* \"#utility.yul\":9377:9465   */\n              mstore\n                /* \"#utility.yul\":9484:9488   */\n              0x22\n                /* \"#utility.yul\":9481:9482   */\n              0x04\n                /* \"#utility.yul\":9474:9489   */\n              mstore\n                /* \"#utility.yul\":9508:9512   */\n              0x24\n                /* \"#utility.yul\":9505:9506   */\n              0x00\n                /* \"#utility.yul\":9498:9513   */\n              revert\n                /* \"#utility.yul\":9525:9705   */\n            tag_247:\n                /* \"#utility.yul\":9573:9650   */\n              0x4e487b7100000000000000000000000000000000000000000000000000000000\n                /* \"#utility.yul\":9570:9571   */\n              0x00\n                /* \"#utility.yul\":9563:9651   */\n              mstore\n                /* \"#utility.yul\":9670:9674   */\n              0x41\n                /* \"#utility.yul\":9667:9668   */\n              0x04\n                /* \"#utility.yul\":9660:9675   */\n              mstore\n                /* \"#utility.yul\":9694:9698   */\n              0x24\n                /* \"#utility.yul\":9691:9692   */\n              0x00\n                /* \"#utility.yul\":9684:9699   */\n              revert\n                /* \"#utility.yul\":9711:9813   */\n            tag_209:\n                /* \"#utility.yul\":9752:9758   */\n              0x00\n                /* \"#utility.yul\":9803:9805   */\n              0x1f\n                /* \"#utility.yul\":9799:9806   */\n              not\n                /* \"#utility.yul\":9794:9796   */\n              0x1f\n                /* \"#utility.yul\":9787:9792   */\n              dup4\n                /* \"#utility.yul\":9783:9797   */\n              add\n                /* \"#utility.yul\":9779:9807   */\n              and\n                /* \"#utility.yul\":9769:9807   */\n              swap1\n              pop\n                /* \"#utility.yul\":9759:9813   */\n              swap2\n              swap1\n              pop\n              jump\t// out\n                /* \"#utility.yul\":9819:9941   */\n            tag_171:\n                /* \"#utility.yul\":9892:9916   */\n              tag_294\n                /* \"#utility.yul\":9910:9915   */\n              dup2\n                /* \"#utility.yul\":9892:9916   */\n              tag_195\n              jump\t// in\n            tag_294:\n                /* \"#utility.yul\":9885:9890   */\n              dup2\n                /* \"#utility.yul\":9882:9917   */\n              eq\n                /* \"#utility.yul\":9872:9874   */\n              tag_295\n              jumpi\n                /* \"#utility.yul\":9931:9932   */\n              0x00\n                /* \"#utility.yul\":9928:9929   */\n              dup1\n                /* \"#utility.yul\":9921:9933   */\n              revert\n                /* \"#utility.yul\":9872:9874   */\n            tag_295:\n                /* \"#utility.yul\":9862:9941   */\n              pop\n              jump\t// out\n                /* \"#utility.yul\":9947:10069   */\n            tag_179:\n                /* \"#utility.yul\":10020:10044   */\n              tag_297\n                /* \"#utility.yul\":10038:10043   */\n              dup2\n                /* \"#utility.yul\":10020:10044   */\n              tag_213\n              jump\t// in\n            tag_297:\n                /* \"#utility.yul\":10013:10018   */\n              dup2\n                /* \"#utility.yul\":10010:10045   */\n              eq\n                /* \"#utility.yul\":10000:10002   */\n              tag_298\n              jumpi\n                /* \"#utility.yul\":10059:10060   */\n              0x00\n                /* \"#utility.yul\":10056:10057   */\n              dup1\n                /* \"#utility.yul\":10049:10061   */\n              revert\n                /* \"#utility.yul\":10000:10002   */\n            tag_298:\n                /* \"#utility.yul\":9990:10069   */\n              pop\n              jump\t// out\n\n            auxdata: 0xa2646970667358221220e76ec06a24ffe2ef9153c8e7342f74cb730703d793ce9e63e0f1576ba707a0c764736f6c63430008040033\n        }\n    }\n\n    auxdata: 0xa26469706673582212207e6ab0e035c90054860eff992aa39c64f356d528e61084ac34ff4047df209d7b64736f6c63430008040033\n}\n","bytecode":{"linkReferences":{},"object":"608060405234801561001057600080fd5b5061260a806100206000396000f3fe60806040523480156200001157600080fd5b5060043610620000525760003560e01c8063141961bc1462000057578063339d50a51462000091578063aa9a068f14620000c7578063b63e0eb014620000e9575b600080fd5b6200007560048036038101906200006f9190620007fd565b62000109565b6040516200008895949392919062000af4565b60405180910390f35b620000af6004803603810190620000a99190620007fd565b62000290565b604051620000be919062000ad7565b60405180910390f35b620000d1620002d0565b604051620000e0919062000b5f565b60405180910390f35b62000107600480360381019062000101919062000855565b620004cf565b005b600181815481106200011a57600080fd5b90600052602060002090600502016000915090508060000160009054906101000a900473ffffffffffffffffffffffffffffffffffffffff1690806001018054620001659062000d36565b80601f0160208091040260200160405190810160405280929190818152602001828054620001939062000d36565b8015620001e45780601f10620001b857610100808354040283529160200191620001e4565b820191906000526020600020905b815481529060010190602001808311620001c657829003601f168201915b505050505090806002015490806003018054620002019062000d36565b80601f01602080910402602001604051908101604052809291908181526020018280546200022f9062000d36565b8015620002805780601f10620002545761010080835404028352916020019162000280565b820191906000526020600020905b8154815290600101906020018083116200026257829003601f168201915b5050505050908060040154905085565b60008181548110620002a157600080fd5b906000526020600020016000915054906101000a900473ffffffffffffffffffffffffffffffffffffffff1681565b60606001805480602002602001604051908101604052809291908181526020016000905b82821015620004c657838290600052602060002090600502016040518060a00160405290816000820160009054906101000a900473ffffffffffffffffffffffffffffffffffffffff1673ffffffffffffffffffffffffffffffffffffffff1673ffffffffffffffffffffffffffffffffffffffff168152602001600182018054620003809062000d36565b80601f0160208091040260200160405190810160405280929190818152602001828054620003ae9062000d36565b8015620003ff5780601f10620003d357610100808354040283529160200191620003ff565b820191906000526020600020905b815481529060010190602001808311620003e157829003601f168201915b5050505050815260200160028201548152602001600382018054620004249062000d36565b80601f0160208091040260200160405190810160405280929190818152602001828054620004529062000d36565b8015620004a35780601f106200047757610100808354040283529160200191620004a3565b820191906000526020600020905b8154815290600101906020018083116200048557829003601f168201915b5050505050815260200160048201548152505081526020019060010190620002f4565b50505050905090565b60008433848685604051620004e4906200069f565b620004f495949392919062000b83565b604051809103906000f08015801562000511573d6000803e3d6000fd5b50905060016040518060a001604052808373ffffffffffffffffffffffffffffffffffffffff1681526020018581526020018681526020018481526020018373ffffffffffffffffffffffffffffffffffffffff166308caa9106040518163ffffffff1660e01b815260040160206040518083038186803b1580156200059657600080fd5b505afa158015620005ab573d6000803e3d6000fd5b505050506040513d601f19601f82011682018060405250810190620005d1919062000829565b815250908060018154018082558091505060019003906000526020600020906005020160009091909190915060008201518160000160006101000a81548173ffffffffffffffffffffffffffffffffffffffff021916908373ffffffffffffffffffffffffffffffffffffffff160217905550602082015181600101908051906020019062000662929190620006ad565b506040820151816002015560608201518160030190805190602001906200068b929190620006ad565b506080820151816004015550505050505050565b6117a98062000e2c83390190565b828054620006bb9062000d36565b90600052602060002090601f016020900481019282620006df57600085556200072b565b82601f10620006fa57805160ff19168380011785556200072b565b828001600101855582156200072b579182015b828111156200072a5782518255916020019190600101906200070d565b5b5090506200073a91906200073e565b5090565b5b80821115620007595760008160009055506001016200073f565b5090565b6000620007746200076e8462000c17565b62000bee565b9050828152602081018484840111156200078d57600080fd5b6200079a84828562000cf1565b509392505050565b600082601f830112620007b457600080fd5b8135620007c68482602086016200075d565b91505092915050565b600081359050620007e08162000e11565b92915050565b600081519050620007f78162000e11565b92915050565b6000602082840312156200081057600080fd5b60006200082084828501620007cf565b91505092915050565b6000602082840312156200083c57600080fd5b60006200084c84828501620007e6565b91505092915050565b600080600080608085870312156200086c57600080fd5b60006200087c87828801620007cf565b94505060206200088f87828801620007cf565b935050604085013567ffffffffffffffff811115620008ad57600080fd5b620008bb87828801620007a2565b925050606085013567ffffffffffffffff811115620008d957600080fd5b620008e787828801620007a2565b91505092959194509250565b600062000901838362000a2e565b905092915050565b620009148162000cb3565b82525050565b620009258162000cb3565b82525050565b6000620009388262000c5d565b62000944818562000c80565b935083602082028501620009588562000c4d565b8060005b858110156200099a5784840389528151620009788582620008f3565b9450620009858362000c73565b925060208a019950506001810190506200095c565b50829750879550505050505092915050565b6000620009b98262000c68565b620009c5818562000c91565b9350620009d781856020860162000d00565b620009e28162000e00565b840191505092915050565b6000620009fa8262000c68565b62000a06818562000ca2565b935062000a1881856020860162000d00565b62000a238162000e00565b840191505092915050565b600060a08301600083015162000a48600086018262000909565b506020830151848203602086015262000a628282620009ac565b915050604083015162000a79604086018262000ab5565b506060830151848203606086015262000a938282620009ac565b915050608083015162000aaa608086018262000ab5565b508091505092915050565b62000ac08162000ce7565b82525050565b62000ad18162000ce7565b82525050565b600060208201905062000aee60008301846200091a565b92915050565b600060a08201905062000b0b60008301886200091a565b818103602083015262000b1f8187620009ed565b905062000b30604083018662000ac6565b818103606083015262000b448185620009ed565b905062000b55608083018462000ac6565b9695505050505050565b6000602082019050818103600083015262000b7b81846200092b565b905092915050565b600060a08201905062000b9a600083018862000ac6565b62000ba960208301876200091a565b818103604083015262000bbd8186620009ed565b905062000bce606083018562000ac6565b818103608083015262000be28184620009ed565b90509695505050505050565b600062000bfa62000c0d565b905062000c08828262000d6c565b919050565b6000604051905090565b600067ffffffffffffffff82111562000c355762000c3462000dd1565b5b62000c408262000e00565b9050602081019050919050565b6000819050602082019050919050565b600081519050919050565b600081519050919050565b6000602082019050919050565b600082825260208201905092915050565b600082825260208201905092915050565b600082825260208201905092915050565b600062000cc08262000cc7565b9050919050565b600073ffffffffffffffffffffffffffffffffffffffff82169050919050565b6000819050919050565b82818337600083830152505050565b60005b8381101562000d2057808201518184015260208101905062000d03565b8381111562000d30576000848401525b50505050565b6000600282049050600182168062000d4f57607f821691505b6020821081141562000d665762000d6562000da2565b5b50919050565b62000d778262000e00565b810181811067ffffffffffffffff8211171562000d995762000d9862000dd1565b5b80604052505050565b7f4e487b7100000000000000000000000000000000000000000000000000000000600052602260045260246000fd5b7f4e487b7100000000000000000000000000000000000000000000000000000000600052604160045260246000fd5b6000601f19601f8301169050919050565b62000e1c8162000ce7565b811462000e2857600080fd5b5056fe60806040523480156200001157600080fd5b50604051620017a9380380620017a983398181016040528101906200003791906200021a565b836000806101000a81548173ffffffffffffffffffffffffffffffffffffffff021916908373ffffffffffffffffffffffffffffffffffffffff16021790555084600581905550826001908051906020019062000096929190620000ca565b50816002819055508060039080519060200190620000b6929190620000ca565b5060006004819055505050505050620004b0565b828054620000d890620003a1565b90600052602060002090601f016020900481019282620000fc576000855562000148565b82601f106200011757805160ff191683800117855562000148565b8280016001018555821562000148579182015b82811115620001475782518255916020019190600101906200012a565b5b5090506200015791906200015b565b5090565b5b80821115620001765760008160009055506001016200015c565b5090565b6000620001916200018b84620002f7565b620002ce565b905082815260208101848484011115620001aa57600080fd5b620001b78482856200036b565b509392505050565b600081519050620001d0816200047c565b92915050565b600082601f830112620001e857600080fd5b8151620001fa8482602086016200017a565b91505092915050565b600081519050620002148162000496565b92915050565b600080600080600060a086880312156200023357600080fd5b6000620002438882890162000203565b95505060206200025688828901620001bf565b945050604086015167ffffffffffffffff8111156200027457600080fd5b6200028288828901620001d6565b9350506060620002958882890162000203565b925050608086015167ffffffffffffffff811115620002b357600080fd5b620002c188828901620001d6565b9150509295509295909350565b6000620002da620002ed565b9050620002e88282620003d7565b919050565b6000604051905090565b600067ffffffffffffffff8211156200031557620003146200043c565b5b62000320826200046b565b9050602081019050919050565b60006200033a8262000341565b9050919050565b600073ffffffffffffffffffffffffffffffffffffffff82169050919050565b6000819050919050565b60005b838110156200038b5780820151818401526020810190506200036e565b838111156200039b576000848401525b50505050565b60006002820490506001821680620003ba57607f821691505b60208210811415620003d157620003d06200040d565b5b50919050565b620003e2826200046b565b810181811067ffffffffffffffff821117156200040457620004036200043c565b5b80604052505050565b7f4e487b7100000000000000000000000000000000000000000000000000000000600052602260045260246000fd5b7f4e487b7100000000000000000000000000000000000000000000000000000000600052604160045260246000fd5b6000601f19601f8301169050919050565b62000487816200032d565b81146200049357600080fd5b50565b620004a18162000361565b8114620004ad57600080fd5b50565b6112e980620004c06000396000f3fe6080604052600436106100f35760003560e01c80635badbe4c1161008a578063937e09b111610059578063937e09b11461032857806397654a8c14610353578063d7bb99ba1461037e578063d7d1bbdb14610388576100f3565b80635badbe4c1461026857806381d12c581461029357806382fde093146102d45780638a9cfd55146102ff576100f3565b80630dcf4b8f116100c65780630dcf4b8f146101b457806332461bd8146101df5780634051ddac1461020a578063481c6a751461023d576100f3565b806303441006146100f85780630785001c1461012157806308caa9101461014c5780630a14439114610177575b600080fd5b34801561010457600080fd5b5061011f600480360381019061011a9190610d92565b6103b1565b005b34801561012d57600080fd5b506101366104ea565b6040516101439190610ed3565b60405180910390f35b34801561015857600080fd5b506101616104f0565b60405161016e9190610ed3565b60405180910390f35b34801561018357600080fd5b5061019e60048036038101906101999190610d02565b6104fa565b6040516101ab9190610e3c565b60405180910390f35b3480156101c057600080fd5b506101c961051a565b6040516101d69190610ed3565b60405180910390f35b3480156101eb57600080fd5b506101f4610520565b6040516102019190610e57565b60405180910390f35b34801561021657600080fd5b5061021f6105ae565b60405161023499989796959493929190610eee565b60405180910390f35b34801561024957600080fd5b50610252610728565b60405161025f9190610e21565b60405180910390f35b34801561027457600080fd5b5061027d61074c565b60405161028a9190610ed3565b60405180910390f35b34801561029f57600080fd5b506102ba60048036038101906102b59190610d92565b610752565b6040516102cb959493929190610e79565b60405180910390f35b3480156102e057600080fd5b506102e961083d565b6040516102f69190610ed3565b60405180910390f35b34801561030b57600080fd5b5061032660048036038101906103219190610d2b565b610843565b005b34801561033457600080fd5b5061033d610961565b60405161034a9190610ed3565b60405180910390f35b34801561035f57600080fd5b50610368610967565b6040516103759190610e57565b60405180910390f35b6103866109f5565b005b34801561039457600080fd5b506103af60048036038101906103aa9190610d92565b610a8f565b005b60008054906101000a900473ffffffffffffffffffffffffffffffffffffffff1673ffffffffffffffffffffffffffffffffffffffff163373ffffffffffffffffffffffffffffffffffffffff161461040957600080fd5b60006007600083815260200190815260200160002090508060020160149054906101000a900460ff161561043c57600080fd5b600260095461044b9190611051565b81600301541161045a57600080fd5b8060020160009054906101000a900473ffffffffffffffffffffffffffffffffffffffff1673ffffffffffffffffffffffffffffffffffffffff166108fc82600101549081150290604051600060405180830381858888f193505050501580156104c8573d6000803e3d6000fd5b5060018160020160146101000a81548160ff0219169083151502179055505050565b60025481565b6000600454905090565b60066020528060005260406000206000915054906101000a900460ff1681565b60045481565b6001805461052d9061110c565b80601f01602080910402602001604051908101604052809291908181526020018280546105599061110c565b80156105a65780601f1061057b576101008083540402835291602001916105a6565b820191906000526020600020905b81548152906001019060200180831161058957829003601f168201915b505050505081565b600080600080600060606000606060006005544760085460095460008054906101000a900473ffffffffffffffffffffffffffffffffffffffff16600160025460036004548380546105ff9061110c565b80601f016020809104026020016040519081016040528092919081815260200182805461062b9061110c565b80156106785780601f1061064d57610100808354040283529160200191610678565b820191906000526020600020905b81548152906001019060200180831161065b57829003601f168201915b5050505050935081805461068b9061110c565b80601f01602080910402602001604051908101604052809291908181526020018280546106b79061110c565b80156107045780601f106106d957610100808354040283529160200191610704565b820191906000526020600020905b8154815290600101906020018083116106e757829003601f168201915b50505050509150985098509850985098509850985098509850909192939495969798565b60008054906101000a900473ffffffffffffffffffffffffffffffffffffffff1681565b60085481565b60076020528060005260406000206000915090508060000180546107759061110c565b80601f01602080910402602001604051908101604052809291908181526020018280546107a19061110c565b80156107ee5780601f106107c3576101008083540402835291602001916107ee565b820191906000526020600020905b8154815290600101906020018083116107d157829003601f168201915b5050505050908060010154908060020160009054906101000a900473ffffffffffffffffffffffffffffffffffffffff16908060020160149054906101000a900460ff16908060030154905085565b60095481565b60008054906101000a900473ffffffffffffffffffffffffffffffffffffffff1673ffffffffffffffffffffffffffffffffffffffff163373ffffffffffffffffffffffffffffffffffffffff161461089b57600080fd5b814710156108a857600080fd5b60006007600060085481526020019081526020016000209050838160000190805190602001906108d9929190610bcd565b50828160010181905550818160020160006101000a81548173ffffffffffffffffffffffffffffffffffffffff021916908373ffffffffffffffffffffffffffffffffffffffff16021790555060008160020160146101000a81548160ff021916908315150217905550600860008154809291906109569061116f565b919050555050505050565b60055481565b600380546109749061110c565b80601f01602080910402602001604051908101604052809291908181526020018280546109a09061110c565b80156109ed5780601f106109c2576101008083540402835291602001916109ed565b820191906000526020600020905b8154815290600101906020018083116109d057829003601f168201915b505050505081565b600554341015610a0457600080fd5b6001600660003373ffffffffffffffffffffffffffffffffffffffff1673ffffffffffffffffffffffffffffffffffffffff16815260200190815260200160002060006101000a81548160ff02191690831515021790555060096000815480929190610a6f9061116f565b91905055503460046000828254610a869190610ffb565b92505081905550565b6000600760008381526020019081526020016000209050600660003373ffffffffffffffffffffffffffffffffffffffff1673ffffffffffffffffffffffffffffffffffffffff16815260200190815260200160002060009054906101000a900460ff16610afc57600080fd5b8060040160003373ffffffffffffffffffffffffffffffffffffffff1673ffffffffffffffffffffffffffffffffffffffff16815260200190815260200160002060009054906101000a900460ff1615610b5557600080fd5b60018160040160003373ffffffffffffffffffffffffffffffffffffffff1673ffffffffffffffffffffffffffffffffffffffff16815260200190815260200160002060006101000a81548160ff021916908315150217905550806003016000815480929190610bc49061116f565b91905055505050565b828054610bd99061110c565b90600052602060002090601f016020900481019282610bfb5760008555610c42565b82601f10610c1457805160ff1916838001178555610c42565b82800160010185558215610c42579182015b82811115610c41578251825591602001919060010190610c26565b5b509050610c4f9190610c53565b5090565b5b80821115610c6c576000816000905550600101610c54565b5090565b6000610c83610c7e84610fae565b610f89565b905082815260208101848484011115610c9b57600080fd5b610ca68482856110ca565b509392505050565b600081359050610cbd81611285565b92915050565b600082601f830112610cd457600080fd5b8135610ce4848260208601610c70565b91505092915050565b600081359050610cfc8161129c565b92915050565b600060208284031215610d1457600080fd5b6000610d2284828501610cae565b91505092915050565b600080600060608486031215610d4057600080fd5b600084013567ffffffffffffffff811115610d5a57600080fd5b610d6686828701610cc3565b9350506020610d7786828701610ced565b9250506040610d8886828701610cae565b9150509250925092565b600060208284031215610da457600080fd5b6000610db284828501610ced565b91505092915050565b610dc481611082565b82525050565b610dd381611094565b82525050565b6000610de482610fdf565b610dee8185610fea565b9350610dfe8185602086016110d9565b610e0781611274565b840191505092915050565b610e1b816110c0565b82525050565b6000602082019050610e366000830184610dbb565b92915050565b6000602082019050610e516000830184610dca565b92915050565b60006020820190508181036000830152610e718184610dd9565b905092915050565b600060a0820190508181036000830152610e938188610dd9565b9050610ea26020830187610e12565b610eaf6040830186610dbb565b610ebc6060830185610dca565b610ec96080830184610e12565b9695505050505050565b6000602082019050610ee86000830184610e12565b92915050565b600061012082019050610f04600083018c610e12565b610f11602083018b610e12565b610f1e604083018a610e12565b610f2b6060830189610e12565b610f386080830188610dbb565b81810360a0830152610f4a8187610dd9565b9050610f5960c0830186610e12565b81810360e0830152610f6b8185610dd9565b9050610f7b610100830184610e12565b9a9950505050505050505050565b6000610f93610fa4565b9050610f9f828261113e565b919050565b6000604051905090565b600067ffffffffffffffff821115610fc957610fc8611245565b5b610fd282611274565b9050602081019050919050565b600081519050919050565b600082825260208201905092915050565b6000611006826110c0565b9150611011836110c0565b9250827fffffffffffffffffffffffffffffffffffffffffffffffffffffffffffffffff03821115611046576110456111b8565b5b828201905092915050565b600061105c826110c0565b9150611067836110c0565b925082611077576110766111e7565b5b828204905092915050565b600061108d826110a0565b9050919050565b60008115159050919050565b600073ffffffffffffffffffffffffffffffffffffffff82169050919050565b6000819050919050565b82818337600083830152505050565b60005b838110156110f75780820151818401526020810190506110dc565b83811115611106576000848401525b50505050565b6000600282049050600182168061112457607f821691505b6020821081141561113857611137611216565b5b50919050565b61114782611274565b810181811067ffffffffffffffff8211171561116657611165611245565b5b80604052505050565b600061117a826110c0565b91507fffffffffffffffffffffffffffffffffffffffffffffffffffffffffffffffff8214156111ad576111ac6111b8565b5b600182019050919050565b7f4e487b7100000000000000000000000000000000000000000000000000000000600052601160045260246000fd5b7f4e487b7100000000000000000000000000000000000000000000000000000000600052601260045260246000fd5b7f4e487b7100000000000000000000000000000000000000000000000000000000600052602260045260246000fd5b7f4e487b7100000000000000000000000000000000000000000000000000000000600052604160045260246000fd5b6000601f19601f8301169050919050565b61128e81611082565b811461129957600080fd5b50565b6112a5816110c0565b81146112b057600080fd5b5056fea2646970667358221220e76ec06a24ffe2ef9153c8e7342f74cb730703d793ce9e63e0f1576ba707a0c764736f6c63430008040033a26469706673582212207e6ab0e035c90054860eff992aa39c64f356d528e61084ac34ff4047df209d7b64736f6c63430008040033","opcodes":"PUSH1 0x80 PUSH1 0x40 MSTORE CALLVALUE DUP1 ISZERO PUSH2 0x10 JUMPI PUSH1 0x0 DUP1 REVERT JUMPDEST POP PUSH2 0x260A DUP1 PUSH2 0x20 PUSH1 0x0 CODECOPY PUSH1 0x0 RETURN INVALID PUSH1 0x80 PUSH1 0x40 MSTORE CALLVALUE DUP1 ISZERO PUSH3 0x11 JUMPI PUSH1 0x0 DUP1 REVERT JUMPDEST POP PUSH1 0x4 CALLDATASIZE LT PUSH3 0x52 JUMPI PUSH1 0x0 CALLDATALOAD PUSH1 0xE0 SHR DUP1 PUSH4 0x141961BC EQ PUSH3 0x57 JUMPI DUP1 PUSH4 0x339D50A5 EQ PUSH3 0x91 JUMPI DUP1 PUSH4 0xAA9A068F EQ PUSH3 0xC7 JUMPI DUP1 PUSH4 0xB63E0EB0 EQ PUSH3 0xE9 JUMPI JUMPDEST PUSH1 0x0 DUP1 REVERT JUMPDEST PUSH3 0x75 PUSH1 0x4 DUP1 CALLDATASIZE SUB DUP2 ADD SWAP1 PUSH3 0x6F SWAP2 SWAP1 PUSH3 0x7FD JUMP JUMPDEST PUSH3 0x109 JUMP JUMPDEST PUSH1 0x40 MLOAD PUSH3 0x88 SWAP6 SWAP5 SWAP4 SWAP3 SWAP2 SWAP1 PUSH3 0xAF4 JUMP JUMPDEST PUSH1 0x40 MLOAD DUP1 SWAP2 SUB SWAP1 RETURN JUMPDEST PUSH3 0xAF PUSH1 0x4 DUP1 CALLDATASIZE SUB DUP2 ADD SWAP1 PUSH3 0xA9 SWAP2 SWAP1 PUSH3 0x7FD JUMP JUMPDEST PUSH3 0x290 JUMP JUMPDEST PUSH1 0x40 MLOAD PUSH3 0xBE SWAP2 SWAP1 PUSH3 0xAD7 JUMP JUMPDEST PUSH1 0x40 MLOAD DUP1 SWAP2 SUB SWAP1 RETURN JUMPDEST PUSH3 0xD1 PUSH3 0x2D0 JUMP JUMPDEST PUSH1 0x40 MLOAD PUSH3 0xE0 SWAP2 SWAP1 PUSH3 0xB5F JUMP JUMPDEST PUSH1 0x40 MLOAD DUP1 SWAP2 SUB SWAP1 RETURN JUMPDEST PUSH3 0x107 PUSH1 0x4 DUP1 CALLDATASIZE SUB DUP2 ADD SWAP1 PUSH3 0x101 SWAP2 SWAP1 PUSH3 0x855 JUMP JUMPDEST PUSH3 0x4CF JUMP JUMPDEST STOP JUMPDEST PUSH1 0x1 DUP2 DUP2 SLOAD DUP2 LT PUSH3 0x11A JUMPI PUSH1 0x0 DUP1 REVERT JUMPDEST SWAP1 PUSH1 0x0 MSTORE PUSH1 0x20 PUSH1 0x0 KECCAK256 SWAP1 PUSH1 0x5 MUL ADD PUSH1 0x0 SWAP2 POP SWAP1 POP DUP1 PUSH1 0x0 ADD PUSH1 0x0 SWAP1 SLOAD SWAP1 PUSH2 0x100 EXP SWAP1 DIV PUSH20 0xFFFFFFFFFFFFFFFFFFFFFFFFFFFFFFFFFFFFFFFF AND SWAP1 DUP1 PUSH1 0x1 ADD DUP1 SLOAD PUSH3 0x165 SWAP1 PUSH3 0xD36 JUMP JUMPDEST DUP1 PUSH1 0x1F ADD PUSH1 0x20 DUP1 SWAP2 DIV MUL PUSH1 0x20 ADD PUSH1 0x40 MLOAD SWAP1 DUP2 ADD PUSH1 0x40 MSTORE DUP1 SWAP3 SWAP2 SWAP1 DUP2 DUP2 MSTORE PUSH1 0x20 ADD DUP3 DUP1 SLOAD PUSH3 0x193 SWAP1 PUSH3 0xD36 JUMP JUMPDEST DUP1 ISZERO PUSH3 0x1E4 JUMPI DUP1 PUSH1 0x1F LT PUSH3 0x1B8 JUMPI PUSH2 0x100 DUP1 DUP4 SLOAD DIV MUL DUP4 MSTORE SWAP2 PUSH1 0x20 ADD SWAP2 PUSH3 0x1E4 JUMP JUMPDEST DUP3 ADD SWAP2 SWAP1 PUSH1 0x0 MSTORE PUSH1 0x20 PUSH1 0x0 KECCAK256 SWAP1 JUMPDEST DUP2 SLOAD DUP2 MSTORE SWAP1 PUSH1 0x1 ADD SWAP1 PUSH1 0x20 ADD DUP1 DUP4 GT PUSH3 0x1C6 JUMPI DUP3 SWAP1 SUB PUSH1 0x1F AND DUP3 ADD SWAP2 JUMPDEST POP POP POP POP POP SWAP1 DUP1 PUSH1 0x2 ADD SLOAD SWAP1 DUP1 PUSH1 0x3 ADD DUP1 SLOAD PUSH3 0x201 SWAP1 PUSH3 0xD36 JUMP JUMPDEST DUP1 PUSH1 0x1F ADD PUSH1 0x20 DUP1 SWAP2 DIV MUL PUSH1 0x20 ADD PUSH1 0x40 MLOAD SWAP1 DUP2 ADD PUSH1 0x40 MSTORE DUP1 SWAP3 SWAP2 SWAP1 DUP2 DUP2 MSTORE PUSH1 0x20 ADD DUP3 DUP1 SLOAD PUSH3 0x22F SWAP1 PUSH3 0xD36 JUMP JUMPDEST DUP1 ISZERO PUSH3 0x280 JUMPI DUP1 PUSH1 0x1F LT PUSH3 0x254 JUMPI PUSH2 0x100 DUP1 DUP4 SLOAD DIV MUL DUP4 MSTORE SWAP2 PUSH1 0x20 ADD SWAP2 PUSH3 0x280 JUMP JUMPDEST DUP3 ADD SWAP2 SWAP1 PUSH1 0x0 MSTORE PUSH1 0x20 PUSH1 0x0 KECCAK256 SWAP1 JUMPDEST DUP2 SLOAD DUP2 MSTORE SWAP1 PUSH1 0x1 ADD SWAP1 PUSH1 0x20 ADD DUP1 DUP4 GT PUSH3 0x262 JUMPI DUP3 SWAP1 SUB PUSH1 0x1F AND DUP3 ADD SWAP2 JUMPDEST POP POP POP POP POP SWAP1 DUP1 PUSH1 0x4 ADD SLOAD SWAP1 POP DUP6 JUMP JUMPDEST PUSH1 0x0 DUP2 DUP2 SLOAD DUP2 LT PUSH3 0x2A1 JUMPI PUSH1 0x0 DUP1 REVERT JUMPDEST SWAP1 PUSH1 0x0 MSTORE PUSH1 0x20 PUSH1 0x0 KECCAK256 ADD PUSH1 0x0 SWAP2 POP SLOAD SWAP1 PUSH2 0x100 EXP SWAP1 DIV PUSH20 0xFFFFFFFFFFFFFFFFFFFFFFFFFFFFFFFFFFFFFFFF AND DUP2 JUMP JUMPDEST PUSH1 0x60 PUSH1 0x1 DUP1 SLOAD DUP1 PUSH1 0x20 MUL PUSH1 0x20 ADD PUSH1 0x40 MLOAD SWAP1 DUP2 ADD PUSH1 0x40 MSTORE DUP1 SWAP3 SWAP2 SWAP1 DUP2 DUP2 MSTORE PUSH1 0x20 ADD PUSH1 0x0 SWAP1 JUMPDEST DUP3 DUP3 LT ISZERO PUSH3 0x4C6 JUMPI DUP4 DUP3 SWAP1 PUSH1 0x0 MSTORE PUSH1 0x20 PUSH1 0x0 KECCAK256 SWAP1 PUSH1 0x5 MUL ADD PUSH1 0x40 MLOAD DUP1 PUSH1 0xA0 ADD PUSH1 0x40 MSTORE SWAP1 DUP2 PUSH1 0x0 DUP3 ADD PUSH1 0x0 SWAP1 SLOAD SWAP1 PUSH2 0x100 EXP SWAP1 DIV PUSH20 0xFFFFFFFFFFFFFFFFFFFFFFFFFFFFFFFFFFFFFFFF AND PUSH20 0xFFFFFFFFFFFFFFFFFFFFFFFFFFFFFFFFFFFFFFFF AND PUSH20 0xFFFFFFFFFFFFFFFFFFFFFFFFFFFFFFFFFFFFFFFF AND DUP2 MSTORE PUSH1 0x20 ADD PUSH1 0x1 DUP3 ADD DUP1 SLOAD PUSH3 0x380 SWAP1 PUSH3 0xD36 JUMP JUMPDEST DUP1 PUSH1 0x1F ADD PUSH1 0x20 DUP1 SWAP2 DIV MUL PUSH1 0x20 ADD PUSH1 0x40 MLOAD SWAP1 DUP2 ADD PUSH1 0x40 MSTORE DUP1 SWAP3 SWAP2 SWAP1 DUP2 DUP2 MSTORE PUSH1 0x20 ADD DUP3 DUP1 SLOAD PUSH3 0x3AE SWAP1 PUSH3 0xD36 JUMP JUMPDEST DUP1 ISZERO PUSH3 0x3FF JUMPI DUP1 PUSH1 0x1F LT PUSH3 0x3D3 JUMPI PUSH2 0x100 DUP1 DUP4 SLOAD DIV MUL DUP4 MSTORE SWAP2 PUSH1 0x20 ADD SWAP2 PUSH3 0x3FF JUMP JUMPDEST DUP3 ADD SWAP2 SWAP1 PUSH1 0x0 MSTORE PUSH1 0x20 PUSH1 0x0 KECCAK256 SWAP1 JUMPDEST DUP2 SLOAD DUP2 MSTORE SWAP1 PUSH1 0x1 ADD SWAP1 PUSH1 0x20 ADD DUP1 DUP4 GT PUSH3 0x3E1 JUMPI DUP3 SWAP1 SUB PUSH1 0x1F AND DUP3 ADD SWAP2 JUMPDEST POP POP POP POP POP DUP2 MSTORE PUSH1 0x20 ADD PUSH1 0x2 DUP3 ADD SLOAD DUP2 MSTORE PUSH1 0x20 ADD PUSH1 0x3 DUP3 ADD DUP1 SLOAD PUSH3 0x424 SWAP1 PUSH3 0xD36 JUMP JUMPDEST DUP1 PUSH1 0x1F ADD PUSH1 0x20 DUP1 SWAP2 DIV MUL PUSH1 0x20 ADD PUSH1 0x40 MLOAD SWAP1 DUP2 ADD PUSH1 0x40 MSTORE DUP1 SWAP3 SWAP2 SWAP1 DUP2 DUP2 MSTORE PUSH1 0x20 ADD DUP3 DUP1 SLOAD PUSH3 0x452 SWAP1 PUSH3 0xD36 JUMP JUMPDEST DUP1 ISZERO PUSH3 0x4A3 JUMPI DUP1 PUSH1 0x1F LT PUSH3 0x477 JUMPI PUSH2 0x100 DUP1 DUP4 SLOAD DIV MUL DUP4 MSTORE SWAP2 PUSH1 0x20 ADD SWAP2 PUSH3 0x4A3 JUMP JUMPDEST DUP3 ADD SWAP2 SWAP1 PUSH1 0x0 MSTORE PUSH1 0x20 PUSH1 0x0 KECCAK256 SWAP1 JUMPDEST DUP2 SLOAD DUP2 MSTORE SWAP1 PUSH1 0x1 ADD SWAP1 PUSH1 0x20 ADD DUP1 DUP4 GT PUSH3 0x485 JUMPI DUP3 SWAP1 SUB PUSH1 0x1F AND DUP3 ADD SWAP2 JUMPDEST POP POP POP POP POP DUP2 MSTORE PUSH1 0x20 ADD PUSH1 0x4 DUP3 ADD SLOAD DUP2 MSTORE POP POP DUP2 MSTORE PUSH1 0x20 ADD SWAP1 PUSH1 0x1 ADD SWAP1 PUSH3 0x2F4 JUMP JUMPDEST POP POP POP POP SWAP1 POP SWAP1 JUMP JUMPDEST PUSH1 0x0 DUP5 CALLER DUP5 DUP7 DUP6 PUSH1 0x40 MLOAD PUSH3 0x4E4 SWAP1 PUSH3 0x69F JUMP JUMPDEST PUSH3 0x4F4 SWAP6 SWAP5 SWAP4 SWAP3 SWAP2 SWAP1 PUSH3 0xB83 JUMP JUMPDEST PUSH1 0x40 MLOAD DUP1 SWAP2 SUB SWAP1 PUSH1 0x0 CREATE DUP1 ISZERO DUP1 ISZERO PUSH3 0x511 JUMPI RETURNDATASIZE PUSH1 0x0 DUP1 RETURNDATACOPY RETURNDATASIZE PUSH1 0x0 REVERT JUMPDEST POP SWAP1 POP PUSH1 0x1 PUSH1 0x40 MLOAD DUP1 PUSH1 0xA0 ADD PUSH1 0x40 MSTORE DUP1 DUP4 PUSH20 0xFFFFFFFFFFFFFFFFFFFFFFFFFFFFFFFFFFFFFFFF AND DUP2 MSTORE PUSH1 0x20 ADD DUP6 DUP2 MSTORE PUSH1 0x20 ADD DUP7 DUP2 MSTORE PUSH1 0x20 ADD DUP5 DUP2 MSTORE PUSH1 0x20 ADD DUP4 PUSH20 0xFFFFFFFFFFFFFFFFFFFFFFFFFFFFFFFFFFFFFFFF AND PUSH4 0x8CAA910 PUSH1 0x40 MLOAD DUP2 PUSH4 0xFFFFFFFF AND PUSH1 0xE0 SHL DUP2 MSTORE PUSH1 0x4 ADD PUSH1 0x20 PUSH1 0x40 MLOAD DUP1 DUP4 SUB DUP2 DUP7 DUP1 EXTCODESIZE ISZERO DUP1 ISZERO PUSH3 0x596 JUMPI PUSH1 0x0 DUP1 REVERT JUMPDEST POP GAS STATICCALL ISZERO DUP1 ISZERO PUSH3 0x5AB JUMPI RETURNDATASIZE PUSH1 0x0 DUP1 RETURNDATACOPY RETURNDATASIZE PUSH1 0x0 REVERT JUMPDEST POP POP POP POP PUSH1 0x40 MLOAD RETURNDATASIZE PUSH1 0x1F NOT PUSH1 0x1F DUP3 ADD AND DUP3 ADD DUP1 PUSH1 0x40 MSTORE POP DUP2 ADD SWAP1 PUSH3 0x5D1 SWAP2 SWAP1 PUSH3 0x829 JUMP JUMPDEST DUP2 MSTORE POP SWAP1 DUP1 PUSH1 0x1 DUP2 SLOAD ADD DUP1 DUP3 SSTORE DUP1 SWAP2 POP POP PUSH1 0x1 SWAP1 SUB SWAP1 PUSH1 0x0 MSTORE PUSH1 0x20 PUSH1 0x0 KECCAK256 SWAP1 PUSH1 0x5 MUL ADD PUSH1 0x0 SWAP1 SWAP2 SWAP1 SWAP2 SWAP1 SWAP2 POP PUSH1 0x0 DUP3 ADD MLOAD DUP2 PUSH1 0x0 ADD PUSH1 0x0 PUSH2 0x100 EXP DUP2 SLOAD DUP2 PUSH20 0xFFFFFFFFFFFFFFFFFFFFFFFFFFFFFFFFFFFFFFFF MUL NOT AND SWAP1 DUP4 PUSH20 0xFFFFFFFFFFFFFFFFFFFFFFFFFFFFFFFFFFFFFFFF AND MUL OR SWAP1 SSTORE POP PUSH1 0x20 DUP3 ADD MLOAD DUP2 PUSH1 0x1 ADD SWAP1 DUP1 MLOAD SWAP1 PUSH1 0x20 ADD SWAP1 PUSH3 0x662 SWAP3 SWAP2 SWAP1 PUSH3 0x6AD JUMP JUMPDEST POP PUSH1 0x40 DUP3 ADD MLOAD DUP2 PUSH1 0x2 ADD SSTORE PUSH1 0x60 DUP3 ADD MLOAD DUP2 PUSH1 0x3 ADD SWAP1 DUP1 MLOAD SWAP1 PUSH1 0x20 ADD SWAP1 PUSH3 0x68B SWAP3 SWAP2 SWAP1 PUSH3 0x6AD JUMP JUMPDEST POP PUSH1 0x80 DUP3 ADD MLOAD DUP2 PUSH1 0x4 ADD SSTORE POP POP POP POP POP POP POP JUMP JUMPDEST PUSH2 0x17A9 DUP1 PUSH3 0xE2C DUP4 CODECOPY ADD SWAP1 JUMP JUMPDEST DUP3 DUP1 SLOAD PUSH3 0x6BB SWAP1 PUSH3 0xD36 JUMP JUMPDEST SWAP1 PUSH1 0x0 MSTORE PUSH1 0x20 PUSH1 0x0 KECCAK256 SWAP1 PUSH1 0x1F ADD PUSH1 0x20 SWAP1 DIV DUP2 ADD SWAP3 DUP3 PUSH3 0x6DF JUMPI PUSH1 0x0 DUP6 SSTORE PUSH3 0x72B JUMP JUMPDEST DUP3 PUSH1 0x1F LT PUSH3 0x6FA JUMPI DUP1 MLOAD PUSH1 0xFF NOT AND DUP4 DUP1 ADD OR DUP6 SSTORE PUSH3 0x72B JUMP JUMPDEST DUP3 DUP1 ADD PUSH1 0x1 ADD DUP6 SSTORE DUP3 ISZERO PUSH3 0x72B JUMPI SWAP2 DUP3 ADD JUMPDEST DUP3 DUP2 GT ISZERO PUSH3 0x72A JUMPI DUP3 MLOAD DUP3 SSTORE SWAP2 PUSH1 0x20 ADD SWAP2 SWAP1 PUSH1 0x1 ADD SWAP1 PUSH3 0x70D JUMP JUMPDEST JUMPDEST POP SWAP1 POP PUSH3 0x73A SWAP2 SWAP1 PUSH3 0x73E JUMP JUMPDEST POP SWAP1 JUMP JUMPDEST JUMPDEST DUP1 DUP3 GT ISZERO PUSH3 0x759 JUMPI PUSH1 0x0 DUP2 PUSH1 0x0 SWAP1 SSTORE POP PUSH1 0x1 ADD PUSH3 0x73F JUMP JUMPDEST POP SWAP1 JUMP JUMPDEST PUSH1 0x0 PUSH3 0x774 PUSH3 0x76E DUP5 PUSH3 0xC17 JUMP JUMPDEST PUSH3 0xBEE JUMP JUMPDEST SWAP1 POP DUP3 DUP2 MSTORE PUSH1 0x20 DUP2 ADD DUP5 DUP5 DUP5 ADD GT ISZERO PUSH3 0x78D JUMPI PUSH1 0x0 DUP1 REVERT JUMPDEST PUSH3 0x79A DUP5 DUP3 DUP6 PUSH3 0xCF1 JUMP JUMPDEST POP SWAP4 SWAP3 POP POP POP JUMP JUMPDEST PUSH1 0x0 DUP3 PUSH1 0x1F DUP4 ADD SLT PUSH3 0x7B4 JUMPI PUSH1 0x0 DUP1 REVERT JUMPDEST DUP2 CALLDATALOAD PUSH3 0x7C6 DUP5 DUP3 PUSH1 0x20 DUP7 ADD PUSH3 0x75D JUMP JUMPDEST SWAP2 POP POP SWAP3 SWAP2 POP POP JUMP JUMPDEST PUSH1 0x0 DUP2 CALLDATALOAD SWAP1 POP PUSH3 0x7E0 DUP2 PUSH3 0xE11 JUMP JUMPDEST SWAP3 SWAP2 POP POP JUMP JUMPDEST PUSH1 0x0 DUP2 MLOAD SWAP1 POP PUSH3 0x7F7 DUP2 PUSH3 0xE11 JUMP JUMPDEST SWAP3 SWAP2 POP POP JUMP JUMPDEST PUSH1 0x0 PUSH1 0x20 DUP3 DUP5 SUB SLT ISZERO PUSH3 0x810 JUMPI PUSH1 0x0 DUP1 REVERT JUMPDEST PUSH1 0x0 PUSH3 0x820 DUP5 DUP3 DUP6 ADD PUSH3 0x7CF JUMP JUMPDEST SWAP2 POP POP SWAP3 SWAP2 POP POP JUMP JUMPDEST PUSH1 0x0 PUSH1 0x20 DUP3 DUP5 SUB SLT ISZERO PUSH3 0x83C JUMPI PUSH1 0x0 DUP1 REVERT JUMPDEST PUSH1 0x0 PUSH3 0x84C DUP5 DUP3 DUP6 ADD PUSH3 0x7E6 JUMP JUMPDEST SWAP2 POP POP SWAP3 SWAP2 POP POP JUMP JUMPDEST PUSH1 0x0 DUP1 PUSH1 0x0 DUP1 PUSH1 0x80 DUP6 DUP8 SUB SLT ISZERO PUSH3 0x86C JUMPI PUSH1 0x0 DUP1 REVERT JUMPDEST PUSH1 0x0 PUSH3 0x87C DUP8 DUP3 DUP9 ADD PUSH3 0x7CF JUMP JUMPDEST SWAP5 POP POP PUSH1 0x20 PUSH3 0x88F DUP8 DUP3 DUP9 ADD PUSH3 0x7CF JUMP JUMPDEST SWAP4 POP POP PUSH1 0x40 DUP6 ADD CALLDATALOAD PUSH8 0xFFFFFFFFFFFFFFFF DUP2 GT ISZERO PUSH3 0x8AD JUMPI PUSH1 0x0 DUP1 REVERT JUMPDEST PUSH3 0x8BB DUP8 DUP3 DUP9 ADD PUSH3 0x7A2 JUMP JUMPDEST SWAP3 POP POP PUSH1 0x60 DUP6 ADD CALLDATALOAD PUSH8 0xFFFFFFFFFFFFFFFF DUP2 GT ISZERO PUSH3 0x8D9 JUMPI PUSH1 0x0 DUP1 REVERT JUMPDEST PUSH3 0x8E7 DUP8 DUP3 DUP9 ADD PUSH3 0x7A2 JUMP JUMPDEST SWAP2 POP POP SWAP3 SWAP6 SWAP2 SWAP5 POP SWAP3 POP JUMP JUMPDEST PUSH1 0x0 PUSH3 0x901 DUP4 DUP4 PUSH3 0xA2E JUMP JUMPDEST SWAP1 POP SWAP3 SWAP2 POP POP JUMP JUMPDEST PUSH3 0x914 DUP2 PUSH3 0xCB3 JUMP JUMPDEST DUP3 MSTORE POP POP JUMP JUMPDEST PUSH3 0x925 DUP2 PUSH3 0xCB3 JUMP JUMPDEST DUP3 MSTORE POP POP JUMP JUMPDEST PUSH1 0x0 PUSH3 0x938 DUP3 PUSH3 0xC5D JUMP JUMPDEST PUSH3 0x944 DUP2 DUP6 PUSH3 0xC80 JUMP JUMPDEST SWAP4 POP DUP4 PUSH1 0x20 DUP3 MUL DUP6 ADD PUSH3 0x958 DUP6 PUSH3 0xC4D JUMP JUMPDEST DUP1 PUSH1 0x0 JUMPDEST DUP6 DUP2 LT ISZERO PUSH3 0x99A JUMPI DUP5 DUP5 SUB DUP10 MSTORE DUP2 MLOAD PUSH3 0x978 DUP6 DUP3 PUSH3 0x8F3 JUMP JUMPDEST SWAP5 POP PUSH3 0x985 DUP4 PUSH3 0xC73 JUMP JUMPDEST SWAP3 POP PUSH1 0x20 DUP11 ADD SWAP10 POP POP PUSH1 0x1 DUP2 ADD SWAP1 POP PUSH3 0x95C JUMP JUMPDEST POP DUP3 SWAP8 POP DUP8 SWAP6 POP POP POP POP POP POP SWAP3 SWAP2 POP POP JUMP JUMPDEST PUSH1 0x0 PUSH3 0x9B9 DUP3 PUSH3 0xC68 JUMP JUMPDEST PUSH3 0x9C5 DUP2 DUP6 PUSH3 0xC91 JUMP JUMPDEST SWAP4 POP PUSH3 0x9D7 DUP2 DUP6 PUSH1 0x20 DUP7 ADD PUSH3 0xD00 JUMP JUMPDEST PUSH3 0x9E2 DUP2 PUSH3 0xE00 JUMP JUMPDEST DUP5 ADD SWAP2 POP POP SWAP3 SWAP2 POP POP JUMP JUMPDEST PUSH1 0x0 PUSH3 0x9FA DUP3 PUSH3 0xC68 JUMP JUMPDEST PUSH3 0xA06 DUP2 DUP6 PUSH3 0xCA2 JUMP JUMPDEST SWAP4 POP PUSH3 0xA18 DUP2 DUP6 PUSH1 0x20 DUP7 ADD PUSH3 0xD00 JUMP JUMPDEST PUSH3 0xA23 DUP2 PUSH3 0xE00 JUMP JUMPDEST DUP5 ADD SWAP2 POP POP SWAP3 SWAP2 POP POP JUMP JUMPDEST PUSH1 0x0 PUSH1 0xA0 DUP4 ADD PUSH1 0x0 DUP4 ADD MLOAD PUSH3 0xA48 PUSH1 0x0 DUP7 ADD DUP3 PUSH3 0x909 JUMP JUMPDEST POP PUSH1 0x20 DUP4 ADD MLOAD DUP5 DUP3 SUB PUSH1 0x20 DUP7 ADD MSTORE PUSH3 0xA62 DUP3 DUP3 PUSH3 0x9AC JUMP JUMPDEST SWAP2 POP POP PUSH1 0x40 DUP4 ADD MLOAD PUSH3 0xA79 PUSH1 0x40 DUP7 ADD DUP3 PUSH3 0xAB5 JUMP JUMPDEST POP PUSH1 0x60 DUP4 ADD MLOAD DUP5 DUP3 SUB PUSH1 0x60 DUP7 ADD MSTORE PUSH3 0xA93 DUP3 DUP3 PUSH3 0x9AC JUMP JUMPDEST SWAP2 POP POP PUSH1 0x80 DUP4 ADD MLOAD PUSH3 0xAAA PUSH1 0x80 DUP7 ADD DUP3 PUSH3 0xAB5 JUMP JUMPDEST POP DUP1 SWAP2 POP POP SWAP3 SWAP2 POP POP JUMP JUMPDEST PUSH3 0xAC0 DUP2 PUSH3 0xCE7 JUMP JUMPDEST DUP3 MSTORE POP POP JUMP JUMPDEST PUSH3 0xAD1 DUP2 PUSH3 0xCE7 JUMP JUMPDEST DUP3 MSTORE POP POP JUMP JUMPDEST PUSH1 0x0 PUSH1 0x20 DUP3 ADD SWAP1 POP PUSH3 0xAEE PUSH1 0x0 DUP4 ADD DUP5 PUSH3 0x91A JUMP JUMPDEST SWAP3 SWAP2 POP POP JUMP JUMPDEST PUSH1 0x0 PUSH1 0xA0 DUP3 ADD SWAP1 POP PUSH3 0xB0B PUSH1 0x0 DUP4 ADD DUP9 PUSH3 0x91A JUMP JUMPDEST DUP2 DUP2 SUB PUSH1 0x20 DUP4 ADD MSTORE PUSH3 0xB1F DUP2 DUP8 PUSH3 0x9ED JUMP JUMPDEST SWAP1 POP PUSH3 0xB30 PUSH1 0x40 DUP4 ADD DUP7 PUSH3 0xAC6 JUMP JUMPDEST DUP2 DUP2 SUB PUSH1 0x60 DUP4 ADD MSTORE PUSH3 0xB44 DUP2 DUP6 PUSH3 0x9ED JUMP JUMPDEST SWAP1 POP PUSH3 0xB55 PUSH1 0x80 DUP4 ADD DUP5 PUSH3 0xAC6 JUMP JUMPDEST SWAP7 SWAP6 POP POP POP POP POP POP JUMP JUMPDEST PUSH1 0x0 PUSH1 0x20 DUP3 ADD SWAP1 POP DUP2 DUP2 SUB PUSH1 0x0 DUP4 ADD MSTORE PUSH3 0xB7B DUP2 DUP5 PUSH3 0x92B JUMP JUMPDEST SWAP1 POP SWAP3 SWAP2 POP POP JUMP JUMPDEST PUSH1 0x0 PUSH1 0xA0 DUP3 ADD SWAP1 POP PUSH3 0xB9A PUSH1 0x0 DUP4 ADD DUP9 PUSH3 0xAC6 JUMP JUMPDEST PUSH3 0xBA9 PUSH1 0x20 DUP4 ADD DUP8 PUSH3 0x91A JUMP JUMPDEST DUP2 DUP2 SUB PUSH1 0x40 DUP4 ADD MSTORE PUSH3 0xBBD DUP2 DUP7 PUSH3 0x9ED JUMP JUMPDEST SWAP1 POP PUSH3 0xBCE PUSH1 0x60 DUP4 ADD DUP6 PUSH3 0xAC6 JUMP JUMPDEST DUP2 DUP2 SUB PUSH1 0x80 DUP4 ADD MSTORE PUSH3 0xBE2 DUP2 DUP5 PUSH3 0x9ED JUMP JUMPDEST SWAP1 POP SWAP7 SWAP6 POP POP POP POP POP POP JUMP JUMPDEST PUSH1 0x0 PUSH3 0xBFA PUSH3 0xC0D JUMP JUMPDEST SWAP1 POP PUSH3 0xC08 DUP3 DUP3 PUSH3 0xD6C JUMP JUMPDEST SWAP2 SWAP1 POP JUMP JUMPDEST PUSH1 0x0 PUSH1 0x40 MLOAD SWAP1 POP SWAP1 JUMP JUMPDEST PUSH1 0x0 PUSH8 0xFFFFFFFFFFFFFFFF DUP3 GT ISZERO PUSH3 0xC35 JUMPI PUSH3 0xC34 PUSH3 0xDD1 JUMP JUMPDEST JUMPDEST PUSH3 0xC40 DUP3 PUSH3 0xE00 JUMP JUMPDEST SWAP1 POP PUSH1 0x20 DUP2 ADD SWAP1 POP SWAP2 SWAP1 POP JUMP JUMPDEST PUSH1 0x0 DUP2 SWAP1 POP PUSH1 0x20 DUP3 ADD SWAP1 POP SWAP2 SWAP1 POP JUMP JUMPDEST PUSH1 0x0 DUP2 MLOAD SWAP1 POP SWAP2 SWAP1 POP JUMP JUMPDEST PUSH1 0x0 DUP2 MLOAD SWAP1 POP SWAP2 SWAP1 POP JUMP JUMPDEST PUSH1 0x0 PUSH1 0x20 DUP3 ADD SWAP1 POP SWAP2 SWAP1 POP JUMP JUMPDEST PUSH1 0x0 DUP3 DUP3 MSTORE PUSH1 0x20 DUP3 ADD SWAP1 POP SWAP3 SWAP2 POP POP JUMP JUMPDEST PUSH1 0x0 DUP3 DUP3 MSTORE PUSH1 0x20 DUP3 ADD SWAP1 POP SWAP3 SWAP2 POP POP JUMP JUMPDEST PUSH1 0x0 DUP3 DUP3 MSTORE PUSH1 0x20 DUP3 ADD SWAP1 POP SWAP3 SWAP2 POP POP JUMP JUMPDEST PUSH1 0x0 PUSH3 0xCC0 DUP3 PUSH3 0xCC7 JUMP JUMPDEST SWAP1 POP SWAP2 SWAP1 POP JUMP JUMPDEST PUSH1 0x0 PUSH20 0xFFFFFFFFFFFFFFFFFFFFFFFFFFFFFFFFFFFFFFFF DUP3 AND SWAP1 POP SWAP2 SWAP1 POP JUMP JUMPDEST PUSH1 0x0 DUP2 SWAP1 POP SWAP2 SWAP1 POP JUMP JUMPDEST DUP3 DUP2 DUP4 CALLDATACOPY PUSH1 0x0 DUP4 DUP4 ADD MSTORE POP POP POP JUMP JUMPDEST PUSH1 0x0 JUMPDEST DUP4 DUP2 LT ISZERO PUSH3 0xD20 JUMPI DUP1 DUP3 ADD MLOAD DUP2 DUP5 ADD MSTORE PUSH1 0x20 DUP2 ADD SWAP1 POP PUSH3 0xD03 JUMP JUMPDEST DUP4 DUP2 GT ISZERO PUSH3 0xD30 JUMPI PUSH1 0x0 DUP5 DUP5 ADD MSTORE JUMPDEST POP POP POP POP JUMP JUMPDEST PUSH1 0x0 PUSH1 0x2 DUP3 DIV SWAP1 POP PUSH1 0x1 DUP3 AND DUP1 PUSH3 0xD4F JUMPI PUSH1 0x7F DUP3 AND SWAP2 POP JUMPDEST PUSH1 0x20 DUP3 LT DUP2 EQ ISZERO PUSH3 0xD66 JUMPI PUSH3 0xD65 PUSH3 0xDA2 JUMP JUMPDEST JUMPDEST POP SWAP2 SWAP1 POP JUMP JUMPDEST PUSH3 0xD77 DUP3 PUSH3 0xE00 JUMP JUMPDEST DUP2 ADD DUP2 DUP2 LT PUSH8 0xFFFFFFFFFFFFFFFF DUP3 GT OR ISZERO PUSH3 0xD99 JUMPI PUSH3 0xD98 PUSH3 0xDD1 JUMP JUMPDEST JUMPDEST DUP1 PUSH1 0x40 MSTORE POP POP POP JUMP JUMPDEST PUSH32 0x4E487B7100000000000000000000000000000000000000000000000000000000 PUSH1 0x0 MSTORE PUSH1 0x22 PUSH1 0x4 MSTORE PUSH1 0x24 PUSH1 0x0 REVERT JUMPDEST PUSH32 0x4E487B7100000000000000000000000000000000000000000000000000000000 PUSH1 0x0 MSTORE PUSH1 0x41 PUSH1 0x4 MSTORE PUSH1 0x24 PUSH1 0x0 REVERT JUMPDEST PUSH1 0x0 PUSH1 0x1F NOT PUSH1 0x1F DUP4 ADD AND SWAP1 POP SWAP2 SWAP1 POP JUMP JUMPDEST PUSH3 0xE1C DUP2 PUSH3 0xCE7 JUMP JUMPDEST DUP2 EQ PUSH3 0xE28 JUMPI PUSH1 0x0 DUP1 REVERT JUMPDEST POP JUMP INVALID PUSH1 0x80 PUSH1 0x40 MSTORE CALLVALUE DUP1 ISZERO PUSH3 0x11 JUMPI PUSH1 0x0 DUP1 REVERT JUMPDEST POP PUSH1 0x40 MLOAD PUSH3 0x17A9 CODESIZE SUB DUP1 PUSH3 0x17A9 DUP4 CODECOPY DUP2 DUP2 ADD PUSH1 0x40 MSTORE DUP2 ADD SWAP1 PUSH3 0x37 SWAP2 SWAP1 PUSH3 0x21A JUMP JUMPDEST DUP4 PUSH1 0x0 DUP1 PUSH2 0x100 EXP DUP2 SLOAD DUP2 PUSH20 0xFFFFFFFFFFFFFFFFFFFFFFFFFFFFFFFFFFFFFFFF MUL NOT AND SWAP1 DUP4 PUSH20 0xFFFFFFFFFFFFFFFFFFFFFFFFFFFFFFFFFFFFFFFF AND MUL OR SWAP1 SSTORE POP DUP5 PUSH1 0x5 DUP2 SWAP1 SSTORE POP DUP3 PUSH1 0x1 SWAP1 DUP1 MLOAD SWAP1 PUSH1 0x20 ADD SWAP1 PUSH3 0x96 SWAP3 SWAP2 SWAP1 PUSH3 0xCA JUMP JUMPDEST POP DUP2 PUSH1 0x2 DUP2 SWAP1 SSTORE POP DUP1 PUSH1 0x3 SWAP1 DUP1 MLOAD SWAP1 PUSH1 0x20 ADD SWAP1 PUSH3 0xB6 SWAP3 SWAP2 SWAP1 PUSH3 0xCA JUMP JUMPDEST POP PUSH1 0x0 PUSH1 0x4 DUP2 SWAP1 SSTORE POP POP POP POP POP POP PUSH3 0x4B0 JUMP JUMPDEST DUP3 DUP1 SLOAD PUSH3 0xD8 SWAP1 PUSH3 0x3A1 JUMP JUMPDEST SWAP1 PUSH1 0x0 MSTORE PUSH1 0x20 PUSH1 0x0 KECCAK256 SWAP1 PUSH1 0x1F ADD PUSH1 0x20 SWAP1 DIV DUP2 ADD SWAP3 DUP3 PUSH3 0xFC JUMPI PUSH1 0x0 DUP6 SSTORE PUSH3 0x148 JUMP JUMPDEST DUP3 PUSH1 0x1F LT PUSH3 0x117 JUMPI DUP1 MLOAD PUSH1 0xFF NOT AND DUP4 DUP1 ADD OR DUP6 SSTORE PUSH3 0x148 JUMP JUMPDEST DUP3 DUP1 ADD PUSH1 0x1 ADD DUP6 SSTORE DUP3 ISZERO PUSH3 0x148 JUMPI SWAP2 DUP3 ADD JUMPDEST DUP3 DUP2 GT ISZERO PUSH3 0x147 JUMPI DUP3 MLOAD DUP3 SSTORE SWAP2 PUSH1 0x20 ADD SWAP2 SWAP1 PUSH1 0x1 ADD SWAP1 PUSH3 0x12A JUMP JUMPDEST JUMPDEST POP SWAP1 POP PUSH3 0x157 SWAP2 SWAP1 PUSH3 0x15B JUMP JUMPDEST POP SWAP1 JUMP JUMPDEST JUMPDEST DUP1 DUP3 GT ISZERO PUSH3 0x176 JUMPI PUSH1 0x0 DUP2 PUSH1 0x0 SWAP1 SSTORE POP PUSH1 0x1 ADD PUSH3 0x15C JUMP JUMPDEST POP SWAP1 JUMP JUMPDEST PUSH1 0x0 PUSH3 0x191 PUSH3 0x18B DUP5 PUSH3 0x2F7 JUMP JUMPDEST PUSH3 0x2CE JUMP JUMPDEST SWAP1 POP DUP3 DUP2 MSTORE PUSH1 0x20 DUP2 ADD DUP5 DUP5 DUP5 ADD GT ISZERO PUSH3 0x1AA JUMPI PUSH1 0x0 DUP1 REVERT JUMPDEST PUSH3 0x1B7 DUP5 DUP3 DUP6 PUSH3 0x36B JUMP JUMPDEST POP SWAP4 SWAP3 POP POP POP JUMP JUMPDEST PUSH1 0x0 DUP2 MLOAD SWAP1 POP PUSH3 0x1D0 DUP2 PUSH3 0x47C JUMP JUMPDEST SWAP3 SWAP2 POP POP JUMP JUMPDEST PUSH1 0x0 DUP3 PUSH1 0x1F DUP4 ADD SLT PUSH3 0x1E8 JUMPI PUSH1 0x0 DUP1 REVERT JUMPDEST DUP2 MLOAD PUSH3 0x1FA DUP5 DUP3 PUSH1 0x20 DUP7 ADD PUSH3 0x17A JUMP JUMPDEST SWAP2 POP POP SWAP3 SWAP2 POP POP JUMP JUMPDEST PUSH1 0x0 DUP2 MLOAD SWAP1 POP PUSH3 0x214 DUP2 PUSH3 0x496 JUMP JUMPDEST SWAP3 SWAP2 POP POP JUMP JUMPDEST PUSH1 0x0 DUP1 PUSH1 0x0 DUP1 PUSH1 0x0 PUSH1 0xA0 DUP7 DUP9 SUB SLT ISZERO PUSH3 0x233 JUMPI PUSH1 0x0 DUP1 REVERT JUMPDEST PUSH1 0x0 PUSH3 0x243 DUP9 DUP3 DUP10 ADD PUSH3 0x203 JUMP JUMPDEST SWAP6 POP POP PUSH1 0x20 PUSH3 0x256 DUP9 DUP3 DUP10 ADD PUSH3 0x1BF JUMP JUMPDEST SWAP5 POP POP PUSH1 0x40 DUP7 ADD MLOAD PUSH8 0xFFFFFFFFFFFFFFFF DUP2 GT ISZERO PUSH3 0x274 JUMPI PUSH1 0x0 DUP1 REVERT JUMPDEST PUSH3 0x282 DUP9 DUP3 DUP10 ADD PUSH3 0x1D6 JUMP JUMPDEST SWAP4 POP POP PUSH1 0x60 PUSH3 0x295 DUP9 DUP3 DUP10 ADD PUSH3 0x203 JUMP JUMPDEST SWAP3 POP POP PUSH1 0x80 DUP7 ADD MLOAD PUSH8 0xFFFFFFFFFFFFFFFF DUP2 GT ISZERO PUSH3 0x2B3 JUMPI PUSH1 0x0 DUP1 REVERT JUMPDEST PUSH3 0x2C1 DUP9 DUP3 DUP10 ADD PUSH3 0x1D6 JUMP JUMPDEST SWAP2 POP POP SWAP3 SWAP6 POP SWAP3 SWAP6 SWAP1 SWAP4 POP JUMP JUMPDEST PUSH1 0x0 PUSH3 0x2DA PUSH3 0x2ED JUMP JUMPDEST SWAP1 POP PUSH3 0x2E8 DUP3 DUP3 PUSH3 0x3D7 JUMP JUMPDEST SWAP2 SWAP1 POP JUMP JUMPDEST PUSH1 0x0 PUSH1 0x40 MLOAD SWAP1 POP SWAP1 JUMP JUMPDEST PUSH1 0x0 PUSH8 0xFFFFFFFFFFFFFFFF DUP3 GT ISZERO PUSH3 0x315 JUMPI PUSH3 0x314 PUSH3 0x43C JUMP JUMPDEST JUMPDEST PUSH3 0x320 DUP3 PUSH3 0x46B JUMP JUMPDEST SWAP1 POP PUSH1 0x20 DUP2 ADD SWAP1 POP SWAP2 SWAP1 POP JUMP JUMPDEST PUSH1 0x0 PUSH3 0x33A DUP3 PUSH3 0x341 JUMP JUMPDEST SWAP1 POP SWAP2 SWAP1 POP JUMP JUMPDEST PUSH1 0x0 PUSH20 0xFFFFFFFFFFFFFFFFFFFFFFFFFFFFFFFFFFFFFFFF DUP3 AND SWAP1 POP SWAP2 SWAP1 POP JUMP JUMPDEST PUSH1 0x0 DUP2 SWAP1 POP SWAP2 SWAP1 POP JUMP JUMPDEST PUSH1 0x0 JUMPDEST DUP4 DUP2 LT ISZERO PUSH3 0x38B JUMPI DUP1 DUP3 ADD MLOAD DUP2 DUP5 ADD MSTORE PUSH1 0x20 DUP2 ADD SWAP1 POP PUSH3 0x36E JUMP JUMPDEST DUP4 DUP2 GT ISZERO PUSH3 0x39B JUMPI PUSH1 0x0 DUP5 DUP5 ADD MSTORE JUMPDEST POP POP POP POP JUMP JUMPDEST PUSH1 0x0 PUSH1 0x2 DUP3 DIV SWAP1 POP PUSH1 0x1 DUP3 AND DUP1 PUSH3 0x3BA JUMPI PUSH1 0x7F DUP3 AND SWAP2 POP JUMPDEST PUSH1 0x20 DUP3 LT DUP2 EQ ISZERO PUSH3 0x3D1 JUMPI PUSH3 0x3D0 PUSH3 0x40D JUMP JUMPDEST JUMPDEST POP SWAP2 SWAP1 POP JUMP JUMPDEST PUSH3 0x3E2 DUP3 PUSH3 0x46B JUMP JUMPDEST DUP2 ADD DUP2 DUP2 LT PUSH8 0xFFFFFFFFFFFFFFFF DUP3 GT OR ISZERO PUSH3 0x404 JUMPI PUSH3 0x403 PUSH3 0x43C JUMP JUMPDEST JUMPDEST DUP1 PUSH1 0x40 MSTORE POP POP POP JUMP JUMPDEST PUSH32 0x4E487B7100000000000000000000000000000000000000000000000000000000 PUSH1 0x0 MSTORE PUSH1 0x22 PUSH1 0x4 MSTORE PUSH1 0x24 PUSH1 0x0 REVERT JUMPDEST PUSH32 0x4E487B7100000000000000000000000000000000000000000000000000000000 PUSH1 0x0 MSTORE PUSH1 0x41 PUSH1 0x4 MSTORE PUSH1 0x24 PUSH1 0x0 REVERT JUMPDEST PUSH1 0x0 PUSH1 0x1F NOT PUSH1 0x1F DUP4 ADD AND SWAP1 POP SWAP2 SWAP1 POP JUMP JUMPDEST PUSH3 0x487 DUP2 PUSH3 0x32D JUMP JUMPDEST DUP2 EQ PUSH3 0x493 JUMPI PUSH1 0x0 DUP1 REVERT JUMPDEST POP JUMP JUMPDEST PUSH3 0x4A1 DUP2 PUSH3 0x361 JUMP JUMPDEST DUP2 EQ PUSH3 0x4AD JUMPI PUSH1 0x0 DUP1 REVERT JUMPDEST POP JUMP JUMPDEST PUSH2 0x12E9 DUP1 PUSH3 0x4C0 PUSH1 0x0 CODECOPY PUSH1 0x0 RETURN INVALID PUSH1 0x80 PUSH1 0x40 MSTORE PUSH1 0x4 CALLDATASIZE LT PUSH2 0xF3 JUMPI PUSH1 0x0 CALLDATALOAD PUSH1 0xE0 SHR DUP1 PUSH4 0x5BADBE4C GT PUSH2 0x8A JUMPI DUP1 PUSH4 0x937E09B1 GT PUSH2 0x59 JUMPI DUP1 PUSH4 0x937E09B1 EQ PUSH2 0x328 JUMPI DUP1 PUSH4 0x97654A8C EQ PUSH2 0x353 JUMPI DUP1 PUSH4 0xD7BB99BA EQ PUSH2 0x37E JUMPI DUP1 PUSH4 0xD7D1BBDB EQ PUSH2 0x388 JUMPI PUSH2 0xF3 JUMP JUMPDEST DUP1 PUSH4 0x5BADBE4C EQ PUSH2 0x268 JUMPI DUP1 PUSH4 0x81D12C58 EQ PUSH2 0x293 JUMPI DUP1 PUSH4 0x82FDE093 EQ PUSH2 0x2D4 JUMPI DUP1 PUSH4 0x8A9CFD55 EQ PUSH2 0x2FF JUMPI PUSH2 0xF3 JUMP JUMPDEST DUP1 PUSH4 0xDCF4B8F GT PUSH2 0xC6 JUMPI DUP1 PUSH4 0xDCF4B8F EQ PUSH2 0x1B4 JUMPI DUP1 PUSH4 0x32461BD8 EQ PUSH2 0x1DF JUMPI DUP1 PUSH4 0x4051DDAC EQ PUSH2 0x20A JUMPI DUP1 PUSH4 0x481C6A75 EQ PUSH2 0x23D JUMPI PUSH2 0xF3 JUMP JUMPDEST DUP1 PUSH4 0x3441006 EQ PUSH2 0xF8 JUMPI DUP1 PUSH4 0x785001C EQ PUSH2 0x121 JUMPI DUP1 PUSH4 0x8CAA910 EQ PUSH2 0x14C JUMPI DUP1 PUSH4 0xA144391 EQ PUSH2 0x177 JUMPI JUMPDEST PUSH1 0x0 DUP1 REVERT JUMPDEST CALLVALUE DUP1 ISZERO PUSH2 0x104 JUMPI PUSH1 0x0 DUP1 REVERT JUMPDEST POP PUSH2 0x11F PUSH1 0x4 DUP1 CALLDATASIZE SUB DUP2 ADD SWAP1 PUSH2 0x11A SWAP2 SWAP1 PUSH2 0xD92 JUMP JUMPDEST PUSH2 0x3B1 JUMP JUMPDEST STOP JUMPDEST CALLVALUE DUP1 ISZERO PUSH2 0x12D JUMPI PUSH1 0x0 DUP1 REVERT JUMPDEST POP PUSH2 0x136 PUSH2 0x4EA JUMP JUMPDEST PUSH1 0x40 MLOAD PUSH2 0x143 SWAP2 SWAP1 PUSH2 0xED3 JUMP JUMPDEST PUSH1 0x40 MLOAD DUP1 SWAP2 SUB SWAP1 RETURN JUMPDEST CALLVALUE DUP1 ISZERO PUSH2 0x158 JUMPI PUSH1 0x0 DUP1 REVERT JUMPDEST POP PUSH2 0x161 PUSH2 0x4F0 JUMP JUMPDEST PUSH1 0x40 MLOAD PUSH2 0x16E SWAP2 SWAP1 PUSH2 0xED3 JUMP JUMPDEST PUSH1 0x40 MLOAD DUP1 SWAP2 SUB SWAP1 RETURN JUMPDEST CALLVALUE DUP1 ISZERO PUSH2 0x183 JUMPI PUSH1 0x0 DUP1 REVERT JUMPDEST POP PUSH2 0x19E PUSH1 0x4 DUP1 CALLDATASIZE SUB DUP2 ADD SWAP1 PUSH2 0x199 SWAP2 SWAP1 PUSH2 0xD02 JUMP JUMPDEST PUSH2 0x4FA JUMP JUMPDEST PUSH1 0x40 MLOAD PUSH2 0x1AB SWAP2 SWAP1 PUSH2 0xE3C JUMP JUMPDEST PUSH1 0x40 MLOAD DUP1 SWAP2 SUB SWAP1 RETURN JUMPDEST CALLVALUE DUP1 ISZERO PUSH2 0x1C0 JUMPI PUSH1 0x0 DUP1 REVERT JUMPDEST POP PUSH2 0x1C9 PUSH2 0x51A JUMP JUMPDEST PUSH1 0x40 MLOAD PUSH2 0x1D6 SWAP2 SWAP1 PUSH2 0xED3 JUMP JUMPDEST PUSH1 0x40 MLOAD DUP1 SWAP2 SUB SWAP1 RETURN JUMPDEST CALLVALUE DUP1 ISZERO PUSH2 0x1EB JUMPI PUSH1 0x0 DUP1 REVERT JUMPDEST POP PUSH2 0x1F4 PUSH2 0x520 JUMP JUMPDEST PUSH1 0x40 MLOAD PUSH2 0x201 SWAP2 SWAP1 PUSH2 0xE57 JUMP JUMPDEST PUSH1 0x40 MLOAD DUP1 SWAP2 SUB SWAP1 RETURN JUMPDEST CALLVALUE DUP1 ISZERO PUSH2 0x216 JUMPI PUSH1 0x0 DUP1 REVERT JUMPDEST POP PUSH2 0x21F PUSH2 0x5AE JUMP JUMPDEST PUSH1 0x40 MLOAD PUSH2 0x234 SWAP10 SWAP9 SWAP8 SWAP7 SWAP6 SWAP5 SWAP4 SWAP3 SWAP2 SWAP1 PUSH2 0xEEE JUMP JUMPDEST PUSH1 0x40 MLOAD DUP1 SWAP2 SUB SWAP1 RETURN JUMPDEST CALLVALUE DUP1 ISZERO PUSH2 0x249 JUMPI PUSH1 0x0 DUP1 REVERT JUMPDEST POP PUSH2 0x252 PUSH2 0x728 JUMP JUMPDEST PUSH1 0x40 MLOAD PUSH2 0x25F SWAP2 SWAP1 PUSH2 0xE21 JUMP JUMPDEST PUSH1 0x40 MLOAD DUP1 SWAP2 SUB SWAP1 RETURN JUMPDEST CALLVALUE DUP1 ISZERO PUSH2 0x274 JUMPI PUSH1 0x0 DUP1 REVERT JUMPDEST POP PUSH2 0x27D PUSH2 0x74C JUMP JUMPDEST PUSH1 0x40 MLOAD PUSH2 0x28A SWAP2 SWAP1 PUSH2 0xED3 JUMP JUMPDEST PUSH1 0x40 MLOAD DUP1 SWAP2 SUB SWAP1 RETURN JUMPDEST CALLVALUE DUP1 ISZERO PUSH2 0x29F JUMPI PUSH1 0x0 DUP1 REVERT JUMPDEST POP PUSH2 0x2BA PUSH1 0x4 DUP1 CALLDATASIZE SUB DUP2 ADD SWAP1 PUSH2 0x2B5 SWAP2 SWAP1 PUSH2 0xD92 JUMP JUMPDEST PUSH2 0x752 JUMP JUMPDEST PUSH1 0x40 MLOAD PUSH2 0x2CB SWAP6 SWAP5 SWAP4 SWAP3 SWAP2 SWAP1 PUSH2 0xE79 JUMP JUMPDEST PUSH1 0x40 MLOAD DUP1 SWAP2 SUB SWAP1 RETURN JUMPDEST CALLVALUE DUP1 ISZERO PUSH2 0x2E0 JUMPI PUSH1 0x0 DUP1 REVERT JUMPDEST POP PUSH2 0x2E9 PUSH2 0x83D JUMP JUMPDEST PUSH1 0x40 MLOAD PUSH2 0x2F6 SWAP2 SWAP1 PUSH2 0xED3 JUMP JUMPDEST PUSH1 0x40 MLOAD DUP1 SWAP2 SUB SWAP1 RETURN JUMPDEST CALLVALUE DUP1 ISZERO PUSH2 0x30B JUMPI PUSH1 0x0 DUP1 REVERT JUMPDEST POP PUSH2 0x326 PUSH1 0x4 DUP1 CALLDATASIZE SUB DUP2 ADD SWAP1 PUSH2 0x321 SWAP2 SWAP1 PUSH2 0xD2B JUMP JUMPDEST PUSH2 0x843 JUMP JUMPDEST STOP JUMPDEST CALLVALUE DUP1 ISZERO PUSH2 0x334 JUMPI PUSH1 0x0 DUP1 REVERT JUMPDEST POP PUSH2 0x33D PUSH2 0x961 JUMP JUMPDEST PUSH1 0x40 MLOAD PUSH2 0x34A SWAP2 SWAP1 PUSH2 0xED3 JUMP JUMPDEST PUSH1 0x40 MLOAD DUP1 SWAP2 SUB SWAP1 RETURN JUMPDEST CALLVALUE DUP1 ISZERO PUSH2 0x35F JUMPI PUSH1 0x0 DUP1 REVERT JUMPDEST POP PUSH2 0x368 PUSH2 0x967 JUMP JUMPDEST PUSH1 0x40 MLOAD PUSH2 0x375 SWAP2 SWAP1 PUSH2 0xE57 JUMP JUMPDEST PUSH1 0x40 MLOAD DUP1 SWAP2 SUB SWAP1 RETURN JUMPDEST PUSH2 0x386 PUSH2 0x9F5 JUMP JUMPDEST STOP JUMPDEST CALLVALUE DUP1 ISZERO PUSH2 0x394 JUMPI PUSH1 0x0 DUP1 REVERT JUMPDEST POP PUSH2 0x3AF PUSH1 0x4 DUP1 CALLDATASIZE SUB DUP2 ADD SWAP1 PUSH2 0x3AA SWAP2 SWAP1 PUSH2 0xD92 JUMP JUMPDEST PUSH2 0xA8F JUMP JUMPDEST STOP JUMPDEST PUSH1 0x0 DUP1 SLOAD SWAP1 PUSH2 0x100 EXP SWAP1 DIV PUSH20 0xFFFFFFFFFFFFFFFFFFFFFFFFFFFFFFFFFFFFFFFF AND PUSH20 0xFFFFFFFFFFFFFFFFFFFFFFFFFFFFFFFFFFFFFFFF AND CALLER PUSH20 0xFFFFFFFFFFFFFFFFFFFFFFFFFFFFFFFFFFFFFFFF AND EQ PUSH2 0x409 JUMPI PUSH1 0x0 DUP1 REVERT JUMPDEST PUSH1 0x0 PUSH1 0x7 PUSH1 0x0 DUP4 DUP2 MSTORE PUSH1 0x20 ADD SWAP1 DUP2 MSTORE PUSH1 0x20 ADD PUSH1 0x0 KECCAK256 SWAP1 POP DUP1 PUSH1 0x2 ADD PUSH1 0x14 SWAP1 SLOAD SWAP1 PUSH2 0x100 EXP SWAP1 DIV PUSH1 0xFF AND ISZERO PUSH2 0x43C JUMPI PUSH1 0x0 DUP1 REVERT JUMPDEST PUSH1 0x2 PUSH1 0x9 SLOAD PUSH2 0x44B SWAP2 SWAP1 PUSH2 0x1051 JUMP JUMPDEST DUP2 PUSH1 0x3 ADD SLOAD GT PUSH2 0x45A JUMPI PUSH1 0x0 DUP1 REVERT JUMPDEST DUP1 PUSH1 0x2 ADD PUSH1 0x0 SWAP1 SLOAD SWAP1 PUSH2 0x100 EXP SWAP1 DIV PUSH20 0xFFFFFFFFFFFFFFFFFFFFFFFFFFFFFFFFFFFFFFFF AND PUSH20 0xFFFFFFFFFFFFFFFFFFFFFFFFFFFFFFFFFFFFFFFF AND PUSH2 0x8FC DUP3 PUSH1 0x1 ADD SLOAD SWAP1 DUP2 ISZERO MUL SWAP1 PUSH1 0x40 MLOAD PUSH1 0x0 PUSH1 0x40 MLOAD DUP1 DUP4 SUB DUP2 DUP6 DUP9 DUP9 CALL SWAP4 POP POP POP POP ISZERO DUP1 ISZERO PUSH2 0x4C8 JUMPI RETURNDATASIZE PUSH1 0x0 DUP1 RETURNDATACOPY RETURNDATASIZE PUSH1 0x0 REVERT JUMPDEST POP PUSH1 0x1 DUP2 PUSH1 0x2 ADD PUSH1 0x14 PUSH2 0x100 EXP DUP2 SLOAD DUP2 PUSH1 0xFF MUL NOT AND SWAP1 DUP4 ISZERO ISZERO MUL OR SWAP1 SSTORE POP POP POP JUMP JUMPDEST PUSH1 0x2 SLOAD DUP2 JUMP JUMPDEST PUSH1 0x0 PUSH1 0x4 SLOAD SWAP1 POP SWAP1 JUMP JUMPDEST PUSH1 0x6 PUSH1 0x20 MSTORE DUP1 PUSH1 0x0 MSTORE PUSH1 0x40 PUSH1 0x0 KECCAK256 PUSH1 0x0 SWAP2 POP SLOAD SWAP1 PUSH2 0x100 EXP SWAP1 DIV PUSH1 0xFF AND DUP2 JUMP JUMPDEST PUSH1 0x4 SLOAD DUP2 JUMP JUMPDEST PUSH1 0x1 DUP1 SLOAD PUSH2 0x52D SWAP1 PUSH2 0x110C JUMP JUMPDEST DUP1 PUSH1 0x1F ADD PUSH1 0x20 DUP1 SWAP2 DIV MUL PUSH1 0x20 ADD PUSH1 0x40 MLOAD SWAP1 DUP2 ADD PUSH1 0x40 MSTORE DUP1 SWAP3 SWAP2 SWAP1 DUP2 DUP2 MSTORE PUSH1 0x20 ADD DUP3 DUP1 SLOAD PUSH2 0x559 SWAP1 PUSH2 0x110C JUMP JUMPDEST DUP1 ISZERO PUSH2 0x5A6 JUMPI DUP1 PUSH1 0x1F LT PUSH2 0x57B JUMPI PUSH2 0x100 DUP1 DUP4 SLOAD DIV MUL DUP4 MSTORE SWAP2 PUSH1 0x20 ADD SWAP2 PUSH2 0x5A6 JUMP JUMPDEST DUP3 ADD SWAP2 SWAP1 PUSH1 0x0 MSTORE PUSH1 0x20 PUSH1 0x0 KECCAK256 SWAP1 JUMPDEST DUP2 SLOAD DUP2 MSTORE SWAP1 PUSH1 0x1 ADD SWAP1 PUSH1 0x20 ADD DUP1 DUP4 GT PUSH2 0x589 JUMPI DUP3 SWAP1 SUB PUSH1 0x1F AND DUP3 ADD SWAP2 JUMPDEST POP POP POP POP POP DUP2 JUMP JUMPDEST PUSH1 0x0 DUP1 PUSH1 0x0 DUP1 PUSH1 0x0 PUSH1 0x60 PUSH1 0x0 PUSH1 0x60 PUSH1 0x0 PUSH1 0x5 SLOAD SELFBALANCE PUSH1 0x8 SLOAD PUSH1 0x9 SLOAD PUSH1 0x0 DUP1 SLOAD SWAP1 PUSH2 0x100 EXP SWAP1 DIV PUSH20 0xFFFFFFFFFFFFFFFFFFFFFFFFFFFFFFFFFFFFFFFF AND PUSH1 0x1 PUSH1 0x2 SLOAD PUSH1 0x3 PUSH1 0x4 SLOAD DUP4 DUP1 SLOAD PUSH2 0x5FF SWAP1 PUSH2 0x110C JUMP JUMPDEST DUP1 PUSH1 0x1F ADD PUSH1 0x20 DUP1 SWAP2 DIV MUL PUSH1 0x20 ADD PUSH1 0x40 MLOAD SWAP1 DUP2 ADD PUSH1 0x40 MSTORE DUP1 SWAP3 SWAP2 SWAP1 DUP2 DUP2 MSTORE PUSH1 0x20 ADD DUP3 DUP1 SLOAD PUSH2 0x62B SWAP1 PUSH2 0x110C JUMP JUMPDEST DUP1 ISZERO PUSH2 0x678 JUMPI DUP1 PUSH1 0x1F LT PUSH2 0x64D JUMPI PUSH2 0x100 DUP1 DUP4 SLOAD DIV MUL DUP4 MSTORE SWAP2 PUSH1 0x20 ADD SWAP2 PUSH2 0x678 JUMP JUMPDEST DUP3 ADD SWAP2 SWAP1 PUSH1 0x0 MSTORE PUSH1 0x20 PUSH1 0x0 KECCAK256 SWAP1 JUMPDEST DUP2 SLOAD DUP2 MSTORE SWAP1 PUSH1 0x1 ADD SWAP1 PUSH1 0x20 ADD DUP1 DUP4 GT PUSH2 0x65B JUMPI DUP3 SWAP1 SUB PUSH1 0x1F AND DUP3 ADD SWAP2 JUMPDEST POP POP POP POP POP SWAP4 POP DUP2 DUP1 SLOAD PUSH2 0x68B SWAP1 PUSH2 0x110C JUMP JUMPDEST DUP1 PUSH1 0x1F ADD PUSH1 0x20 DUP1 SWAP2 DIV MUL PUSH1 0x20 ADD PUSH1 0x40 MLOAD SWAP1 DUP2 ADD PUSH1 0x40 MSTORE DUP1 SWAP3 SWAP2 SWAP1 DUP2 DUP2 MSTORE PUSH1 0x20 ADD DUP3 DUP1 SLOAD PUSH2 0x6B7 SWAP1 PUSH2 0x110C JUMP JUMPDEST DUP1 ISZERO PUSH2 0x704 JUMPI DUP1 PUSH1 0x1F LT PUSH2 0x6D9 JUMPI PUSH2 0x100 DUP1 DUP4 SLOAD DIV MUL DUP4 MSTORE SWAP2 PUSH1 0x20 ADD SWAP2 PUSH2 0x704 JUMP JUMPDEST DUP3 ADD SWAP2 SWAP1 PUSH1 0x0 MSTORE PUSH1 0x20 PUSH1 0x0 KECCAK256 SWAP1 JUMPDEST DUP2 SLOAD DUP2 MSTORE SWAP1 PUSH1 0x1 ADD SWAP1 PUSH1 0x20 ADD DUP1 DUP4 GT PUSH2 0x6E7 JUMPI DUP3 SWAP1 SUB PUSH1 0x1F AND DUP3 ADD SWAP2 JUMPDEST POP POP POP POP POP SWAP2 POP SWAP9 POP SWAP9 POP SWAP9 POP SWAP9 POP SWAP9 POP SWAP9 POP SWAP9 POP SWAP9 POP SWAP9 POP SWAP1 SWAP2 SWAP3 SWAP4 SWAP5 SWAP6 SWAP7 SWAP8 SWAP9 JUMP JUMPDEST PUSH1 0x0 DUP1 SLOAD SWAP1 PUSH2 0x100 EXP SWAP1 DIV PUSH20 0xFFFFFFFFFFFFFFFFFFFFFFFFFFFFFFFFFFFFFFFF AND DUP2 JUMP JUMPDEST PUSH1 0x8 SLOAD DUP2 JUMP JUMPDEST PUSH1 0x7 PUSH1 0x20 MSTORE DUP1 PUSH1 0x0 MSTORE PUSH1 0x40 PUSH1 0x0 KECCAK256 PUSH1 0x0 SWAP2 POP SWAP1 POP DUP1 PUSH1 0x0 ADD DUP1 SLOAD PUSH2 0x775 SWAP1 PUSH2 0x110C JUMP JUMPDEST DUP1 PUSH1 0x1F ADD PUSH1 0x20 DUP1 SWAP2 DIV MUL PUSH1 0x20 ADD PUSH1 0x40 MLOAD SWAP1 DUP2 ADD PUSH1 0x40 MSTORE DUP1 SWAP3 SWAP2 SWAP1 DUP2 DUP2 MSTORE PUSH1 0x20 ADD DUP3 DUP1 SLOAD PUSH2 0x7A1 SWAP1 PUSH2 0x110C JUMP JUMPDEST DUP1 ISZERO PUSH2 0x7EE JUMPI DUP1 PUSH1 0x1F LT PUSH2 0x7C3 JUMPI PUSH2 0x100 DUP1 DUP4 SLOAD DIV MUL DUP4 MSTORE SWAP2 PUSH1 0x20 ADD SWAP2 PUSH2 0x7EE JUMP JUMPDEST DUP3 ADD SWAP2 SWAP1 PUSH1 0x0 MSTORE PUSH1 0x20 PUSH1 0x0 KECCAK256 SWAP1 JUMPDEST DUP2 SLOAD DUP2 MSTORE SWAP1 PUSH1 0x1 ADD SWAP1 PUSH1 0x20 ADD DUP1 DUP4 GT PUSH2 0x7D1 JUMPI DUP3 SWAP1 SUB PUSH1 0x1F AND DUP3 ADD SWAP2 JUMPDEST POP POP POP POP POP SWAP1 DUP1 PUSH1 0x1 ADD SLOAD SWAP1 DUP1 PUSH1 0x2 ADD PUSH1 0x0 SWAP1 SLOAD SWAP1 PUSH2 0x100 EXP SWAP1 DIV PUSH20 0xFFFFFFFFFFFFFFFFFFFFFFFFFFFFFFFFFFFFFFFF AND SWAP1 DUP1 PUSH1 0x2 ADD PUSH1 0x14 SWAP1 SLOAD SWAP1 PUSH2 0x100 EXP SWAP1 DIV PUSH1 0xFF AND SWAP1 DUP1 PUSH1 0x3 ADD SLOAD SWAP1 POP DUP6 JUMP JUMPDEST PUSH1 0x9 SLOAD DUP2 JUMP JUMPDEST PUSH1 0x0 DUP1 SLOAD SWAP1 PUSH2 0x100 EXP SWAP1 DIV PUSH20 0xFFFFFFFFFFFFFFFFFFFFFFFFFFFFFFFFFFFFFFFF AND PUSH20 0xFFFFFFFFFFFFFFFFFFFFFFFFFFFFFFFFFFFFFFFF AND CALLER PUSH20 0xFFFFFFFFFFFFFFFFFFFFFFFFFFFFFFFFFFFFFFFF AND EQ PUSH2 0x89B JUMPI PUSH1 0x0 DUP1 REVERT JUMPDEST DUP2 SELFBALANCE LT ISZERO PUSH2 0x8A8 JUMPI PUSH1 0x0 DUP1 REVERT JUMPDEST PUSH1 0x0 PUSH1 0x7 PUSH1 0x0 PUSH1 0x8 SLOAD DUP2 MSTORE PUSH1 0x20 ADD SWAP1 DUP2 MSTORE PUSH1 0x20 ADD PUSH1 0x0 KECCAK256 SWAP1 POP DUP4 DUP2 PUSH1 0x0 ADD SWAP1 DUP1 MLOAD SWAP1 PUSH1 0x20 ADD SWAP1 PUSH2 0x8D9 SWAP3 SWAP2 SWAP1 PUSH2 0xBCD JUMP JUMPDEST POP DUP3 DUP2 PUSH1 0x1 ADD DUP2 SWAP1 SSTORE POP DUP2 DUP2 PUSH1 0x2 ADD PUSH1 0x0 PUSH2 0x100 EXP DUP2 SLOAD DUP2 PUSH20 0xFFFFFFFFFFFFFFFFFFFFFFFFFFFFFFFFFFFFFFFF MUL NOT AND SWAP1 DUP4 PUSH20 0xFFFFFFFFFFFFFFFFFFFFFFFFFFFFFFFFFFFFFFFF AND MUL OR SWAP1 SSTORE POP PUSH1 0x0 DUP2 PUSH1 0x2 ADD PUSH1 0x14 PUSH2 0x100 EXP DUP2 SLOAD DUP2 PUSH1 0xFF MUL NOT AND SWAP1 DUP4 ISZERO ISZERO MUL OR SWAP1 SSTORE POP PUSH1 0x8 PUSH1 0x0 DUP2 SLOAD DUP1 SWAP3 SWAP2 SWAP1 PUSH2 0x956 SWAP1 PUSH2 0x116F JUMP JUMPDEST SWAP2 SWAP1 POP SSTORE POP POP POP POP POP JUMP JUMPDEST PUSH1 0x5 SLOAD DUP2 JUMP JUMPDEST PUSH1 0x3 DUP1 SLOAD PUSH2 0x974 SWAP1 PUSH2 0x110C JUMP JUMPDEST DUP1 PUSH1 0x1F ADD PUSH1 0x20 DUP1 SWAP2 DIV MUL PUSH1 0x20 ADD PUSH1 0x40 MLOAD SWAP1 DUP2 ADD PUSH1 0x40 MSTORE DUP1 SWAP3 SWAP2 SWAP1 DUP2 DUP2 MSTORE PUSH1 0x20 ADD DUP3 DUP1 SLOAD PUSH2 0x9A0 SWAP1 PUSH2 0x110C JUMP JUMPDEST DUP1 ISZERO PUSH2 0x9ED JUMPI DUP1 PUSH1 0x1F LT PUSH2 0x9C2 JUMPI PUSH2 0x100 DUP1 DUP4 SLOAD DIV MUL DUP4 MSTORE SWAP2 PUSH1 0x20 ADD SWAP2 PUSH2 0x9ED JUMP JUMPDEST DUP3 ADD SWAP2 SWAP1 PUSH1 0x0 MSTORE PUSH1 0x20 PUSH1 0x0 KECCAK256 SWAP1 JUMPDEST DUP2 SLOAD DUP2 MSTORE SWAP1 PUSH1 0x1 ADD SWAP1 PUSH1 0x20 ADD DUP1 DUP4 GT PUSH2 0x9D0 JUMPI DUP3 SWAP1 SUB PUSH1 0x1F AND DUP3 ADD SWAP2 JUMPDEST POP POP POP POP POP DUP2 JUMP JUMPDEST PUSH1 0x5 SLOAD CALLVALUE LT ISZERO PUSH2 0xA04 JUMPI PUSH1 0x0 DUP1 REVERT JUMPDEST PUSH1 0x1 PUSH1 0x6 PUSH1 0x0 CALLER PUSH20 0xFFFFFFFFFFFFFFFFFFFFFFFFFFFFFFFFFFFFFFFF AND PUSH20 0xFFFFFFFFFFFFFFFFFFFFFFFFFFFFFFFFFFFFFFFF AND DUP2 MSTORE PUSH1 0x20 ADD SWAP1 DUP2 MSTORE PUSH1 0x20 ADD PUSH1 0x0 KECCAK256 PUSH1 0x0 PUSH2 0x100 EXP DUP2 SLOAD DUP2 PUSH1 0xFF MUL NOT AND SWAP1 DUP4 ISZERO ISZERO MUL OR SWAP1 SSTORE POP PUSH1 0x9 PUSH1 0x0 DUP2 SLOAD DUP1 SWAP3 SWAP2 SWAP1 PUSH2 0xA6F SWAP1 PUSH2 0x116F JUMP JUMPDEST SWAP2 SWAP1 POP SSTORE POP CALLVALUE PUSH1 0x4 PUSH1 0x0 DUP3 DUP3 SLOAD PUSH2 0xA86 SWAP2 SWAP1 PUSH2 0xFFB JUMP JUMPDEST SWAP3 POP POP DUP2 SWAP1 SSTORE POP JUMP JUMPDEST PUSH1 0x0 PUSH1 0x7 PUSH1 0x0 DUP4 DUP2 MSTORE PUSH1 0x20 ADD SWAP1 DUP2 MSTORE PUSH1 0x20 ADD PUSH1 0x0 KECCAK256 SWAP1 POP PUSH1 0x6 PUSH1 0x0 CALLER PUSH20 0xFFFFFFFFFFFFFFFFFFFFFFFFFFFFFFFFFFFFFFFF AND PUSH20 0xFFFFFFFFFFFFFFFFFFFFFFFFFFFFFFFFFFFFFFFF AND DUP2 MSTORE PUSH1 0x20 ADD SWAP1 DUP2 MSTORE PUSH1 0x20 ADD PUSH1 0x0 KECCAK256 PUSH1 0x0 SWAP1 SLOAD SWAP1 PUSH2 0x100 EXP SWAP1 DIV PUSH1 0xFF AND PUSH2 0xAFC JUMPI PUSH1 0x0 DUP1 REVERT JUMPDEST DUP1 PUSH1 0x4 ADD PUSH1 0x0 CALLER PUSH20 0xFFFFFFFFFFFFFFFFFFFFFFFFFFFFFFFFFFFFFFFF AND PUSH20 0xFFFFFFFFFFFFFFFFFFFFFFFFFFFFFFFFFFFFFFFF AND DUP2 MSTORE PUSH1 0x20 ADD SWAP1 DUP2 MSTORE PUSH1 0x20 ADD PUSH1 0x0 KECCAK256 PUSH1 0x0 SWAP1 SLOAD SWAP1 PUSH2 0x100 EXP SWAP1 DIV PUSH1 0xFF AND ISZERO PUSH2 0xB55 JUMPI PUSH1 0x0 DUP1 REVERT JUMPDEST PUSH1 0x1 DUP2 PUSH1 0x4 ADD PUSH1 0x0 CALLER PUSH20 0xFFFFFFFFFFFFFFFFFFFFFFFFFFFFFFFFFFFFFFFF AND PUSH20 0xFFFFFFFFFFFFFFFFFFFFFFFFFFFFFFFFFFFFFFFF AND DUP2 MSTORE PUSH1 0x20 ADD SWAP1 DUP2 MSTORE PUSH1 0x20 ADD PUSH1 0x0 KECCAK256 PUSH1 0x0 PUSH2 0x100 EXP DUP2 SLOAD DUP2 PUSH1 0xFF MUL NOT AND SWAP1 DUP4 ISZERO ISZERO MUL OR SWAP1 SSTORE POP DUP1 PUSH1 0x3 ADD PUSH1 0x0 DUP2 SLOAD DUP1 SWAP3 SWAP2 SWAP1 PUSH2 0xBC4 SWAP1 PUSH2 0x116F JUMP JUMPDEST SWAP2 SWAP1 POP SSTORE POP POP POP JUMP JUMPDEST DUP3 DUP1 SLOAD PUSH2 0xBD9 SWAP1 PUSH2 0x110C JUMP JUMPDEST SWAP1 PUSH1 0x0 MSTORE PUSH1 0x20 PUSH1 0x0 KECCAK256 SWAP1 PUSH1 0x1F ADD PUSH1 0x20 SWAP1 DIV DUP2 ADD SWAP3 DUP3 PUSH2 0xBFB JUMPI PUSH1 0x0 DUP6 SSTORE PUSH2 0xC42 JUMP JUMPDEST DUP3 PUSH1 0x1F LT PUSH2 0xC14 JUMPI DUP1 MLOAD PUSH1 0xFF NOT AND DUP4 DUP1 ADD OR DUP6 SSTORE PUSH2 0xC42 JUMP JUMPDEST DUP3 DUP1 ADD PUSH1 0x1 ADD DUP6 SSTORE DUP3 ISZERO PUSH2 0xC42 JUMPI SWAP2 DUP3 ADD JUMPDEST DUP3 DUP2 GT ISZERO PUSH2 0xC41 JUMPI DUP3 MLOAD DUP3 SSTORE SWAP2 PUSH1 0x20 ADD SWAP2 SWAP1 PUSH1 0x1 ADD SWAP1 PUSH2 0xC26 JUMP JUMPDEST JUMPDEST POP SWAP1 POP PUSH2 0xC4F SWAP2 SWAP1 PUSH2 0xC53 JUMP JUMPDEST POP SWAP1 JUMP JUMPDEST JUMPDEST DUP1 DUP3 GT ISZERO PUSH2 0xC6C JUMPI PUSH1 0x0 DUP2 PUSH1 0x0 SWAP1 SSTORE POP PUSH1 0x1 ADD PUSH2 0xC54 JUMP JUMPDEST POP SWAP1 JUMP JUMPDEST PUSH1 0x0 PUSH2 0xC83 PUSH2 0xC7E DUP5 PUSH2 0xFAE JUMP JUMPDEST PUSH2 0xF89 JUMP JUMPDEST SWAP1 POP DUP3 DUP2 MSTORE PUSH1 0x20 DUP2 ADD DUP5 DUP5 DUP5 ADD GT ISZERO PUSH2 0xC9B JUMPI PUSH1 0x0 DUP1 REVERT JUMPDEST PUSH2 0xCA6 DUP5 DUP3 DUP6 PUSH2 0x10CA JUMP JUMPDEST POP SWAP4 SWAP3 POP POP POP JUMP JUMPDEST PUSH1 0x0 DUP2 CALLDATALOAD SWAP1 POP PUSH2 0xCBD DUP2 PUSH2 0x1285 JUMP JUMPDEST SWAP3 SWAP2 POP POP JUMP JUMPDEST PUSH1 0x0 DUP3 PUSH1 0x1F DUP4 ADD SLT PUSH2 0xCD4 JUMPI PUSH1 0x0 DUP1 REVERT JUMPDEST DUP2 CALLDATALOAD PUSH2 0xCE4 DUP5 DUP3 PUSH1 0x20 DUP7 ADD PUSH2 0xC70 JUMP JUMPDEST SWAP2 POP POP SWAP3 SWAP2 POP POP JUMP JUMPDEST PUSH1 0x0 DUP2 CALLDATALOAD SWAP1 POP PUSH2 0xCFC DUP2 PUSH2 0x129C JUMP JUMPDEST SWAP3 SWAP2 POP POP JUMP JUMPDEST PUSH1 0x0 PUSH1 0x20 DUP3 DUP5 SUB SLT ISZERO PUSH2 0xD14 JUMPI PUSH1 0x0 DUP1 REVERT JUMPDEST PUSH1 0x0 PUSH2 0xD22 DUP5 DUP3 DUP6 ADD PUSH2 0xCAE JUMP JUMPDEST SWAP2 POP POP SWAP3 SWAP2 POP POP JUMP JUMPDEST PUSH1 0x0 DUP1 PUSH1 0x0 PUSH1 0x60 DUP5 DUP7 SUB SLT ISZERO PUSH2 0xD40 JUMPI PUSH1 0x0 DUP1 REVERT JUMPDEST PUSH1 0x0 DUP5 ADD CALLDATALOAD PUSH8 0xFFFFFFFFFFFFFFFF DUP2 GT ISZERO PUSH2 0xD5A JUMPI PUSH1 0x0 DUP1 REVERT JUMPDEST PUSH2 0xD66 DUP7 DUP3 DUP8 ADD PUSH2 0xCC3 JUMP JUMPDEST SWAP4 POP POP PUSH1 0x20 PUSH2 0xD77 DUP7 DUP3 DUP8 ADD PUSH2 0xCED JUMP JUMPDEST SWAP3 POP POP PUSH1 0x40 PUSH2 0xD88 DUP7 DUP3 DUP8 ADD PUSH2 0xCAE JUMP JUMPDEST SWAP2 POP POP SWAP3 POP SWAP3 POP SWAP3 JUMP JUMPDEST PUSH1 0x0 PUSH1 0x20 DUP3 DUP5 SUB SLT ISZERO PUSH2 0xDA4 JUMPI PUSH1 0x0 DUP1 REVERT JUMPDEST PUSH1 0x0 PUSH2 0xDB2 DUP5 DUP3 DUP6 ADD PUSH2 0xCED JUMP JUMPDEST SWAP2 POP POP SWAP3 SWAP2 POP POP JUMP JUMPDEST PUSH2 0xDC4 DUP2 PUSH2 0x1082 JUMP JUMPDEST DUP3 MSTORE POP POP JUMP JUMPDEST PUSH2 0xDD3 DUP2 PUSH2 0x1094 JUMP JUMPDEST DUP3 MSTORE POP POP JUMP JUMPDEST PUSH1 0x0 PUSH2 0xDE4 DUP3 PUSH2 0xFDF JUMP JUMPDEST PUSH2 0xDEE DUP2 DUP6 PUSH2 0xFEA JUMP JUMPDEST SWAP4 POP PUSH2 0xDFE DUP2 DUP6 PUSH1 0x20 DUP7 ADD PUSH2 0x10D9 JUMP JUMPDEST PUSH2 0xE07 DUP2 PUSH2 0x1274 JUMP JUMPDEST DUP5 ADD SWAP2 POP POP SWAP3 SWAP2 POP POP JUMP JUMPDEST PUSH2 0xE1B DUP2 PUSH2 0x10C0 JUMP JUMPDEST DUP3 MSTORE POP POP JUMP JUMPDEST PUSH1 0x0 PUSH1 0x20 DUP3 ADD SWAP1 POP PUSH2 0xE36 PUSH1 0x0 DUP4 ADD DUP5 PUSH2 0xDBB JUMP JUMPDEST SWAP3 SWAP2 POP POP JUMP JUMPDEST PUSH1 0x0 PUSH1 0x20 DUP3 ADD SWAP1 POP PUSH2 0xE51 PUSH1 0x0 DUP4 ADD DUP5 PUSH2 0xDCA JUMP JUMPDEST SWAP3 SWAP2 POP POP JUMP JUMPDEST PUSH1 0x0 PUSH1 0x20 DUP3 ADD SWAP1 POP DUP2 DUP2 SUB PUSH1 0x0 DUP4 ADD MSTORE PUSH2 0xE71 DUP2 DUP5 PUSH2 0xDD9 JUMP JUMPDEST SWAP1 POP SWAP3 SWAP2 POP POP JUMP JUMPDEST PUSH1 0x0 PUSH1 0xA0 DUP3 ADD SWAP1 POP DUP2 DUP2 SUB PUSH1 0x0 DUP4 ADD MSTORE PUSH2 0xE93 DUP2 DUP9 PUSH2 0xDD9 JUMP JUMPDEST SWAP1 POP PUSH2 0xEA2 PUSH1 0x20 DUP4 ADD DUP8 PUSH2 0xE12 JUMP JUMPDEST PUSH2 0xEAF PUSH1 0x40 DUP4 ADD DUP7 PUSH2 0xDBB JUMP JUMPDEST PUSH2 0xEBC PUSH1 0x60 DUP4 ADD DUP6 PUSH2 0xDCA JUMP JUMPDEST PUSH2 0xEC9 PUSH1 0x80 DUP4 ADD DUP5 PUSH2 0xE12 JUMP JUMPDEST SWAP7 SWAP6 POP POP POP POP POP POP JUMP JUMPDEST PUSH1 0x0 PUSH1 0x20 DUP3 ADD SWAP1 POP PUSH2 0xEE8 PUSH1 0x0 DUP4 ADD DUP5 PUSH2 0xE12 JUMP JUMPDEST SWAP3 SWAP2 POP POP JUMP JUMPDEST PUSH1 0x0 PUSH2 0x120 DUP3 ADD SWAP1 POP PUSH2 0xF04 PUSH1 0x0 DUP4 ADD DUP13 PUSH2 0xE12 JUMP JUMPDEST PUSH2 0xF11 PUSH1 0x20 DUP4 ADD DUP12 PUSH2 0xE12 JUMP JUMPDEST PUSH2 0xF1E PUSH1 0x40 DUP4 ADD DUP11 PUSH2 0xE12 JUMP JUMPDEST PUSH2 0xF2B PUSH1 0x60 DUP4 ADD DUP10 PUSH2 0xE12 JUMP JUMPDEST PUSH2 0xF38 PUSH1 0x80 DUP4 ADD DUP9 PUSH2 0xDBB JUMP JUMPDEST DUP2 DUP2 SUB PUSH1 0xA0 DUP4 ADD MSTORE PUSH2 0xF4A DUP2 DUP8 PUSH2 0xDD9 JUMP JUMPDEST SWAP1 POP PUSH2 0xF59 PUSH1 0xC0 DUP4 ADD DUP7 PUSH2 0xE12 JUMP JUMPDEST DUP2 DUP2 SUB PUSH1 0xE0 DUP4 ADD MSTORE PUSH2 0xF6B DUP2 DUP6 PUSH2 0xDD9 JUMP JUMPDEST SWAP1 POP PUSH2 0xF7B PUSH2 0x100 DUP4 ADD DUP5 PUSH2 0xE12 JUMP JUMPDEST SWAP11 SWAP10 POP POP POP POP POP POP POP POP POP POP JUMP JUMPDEST PUSH1 0x0 PUSH2 0xF93 PUSH2 0xFA4 JUMP JUMPDEST SWAP1 POP PUSH2 0xF9F DUP3 DUP3 PUSH2 0x113E JUMP JUMPDEST SWAP2 SWAP1 POP JUMP JUMPDEST PUSH1 0x0 PUSH1 0x40 MLOAD SWAP1 POP SWAP1 JUMP JUMPDEST PUSH1 0x0 PUSH8 0xFFFFFFFFFFFFFFFF DUP3 GT ISZERO PUSH2 0xFC9 JUMPI PUSH2 0xFC8 PUSH2 0x1245 JUMP JUMPDEST JUMPDEST PUSH2 0xFD2 DUP3 PUSH2 0x1274 JUMP JUMPDEST SWAP1 POP PUSH1 0x20 DUP2 ADD SWAP1 POP SWAP2 SWAP1 POP JUMP JUMPDEST PUSH1 0x0 DUP2 MLOAD SWAP1 POP SWAP2 SWAP1 POP JUMP JUMPDEST PUSH1 0x0 DUP3 DUP3 MSTORE PUSH1 0x20 DUP3 ADD SWAP1 POP SWAP3 SWAP2 POP POP JUMP JUMPDEST PUSH1 0x0 PUSH2 0x1006 DUP3 PUSH2 0x10C0 JUMP JUMPDEST SWAP2 POP PUSH2 0x1011 DUP4 PUSH2 0x10C0 JUMP JUMPDEST SWAP3 POP DUP3 PUSH32 0xFFFFFFFFFFFFFFFFFFFFFFFFFFFFFFFFFFFFFFFFFFFFFFFFFFFFFFFFFFFFFFFF SUB DUP3 GT ISZERO PUSH2 0x1046 JUMPI PUSH2 0x1045 PUSH2 0x11B8 JUMP JUMPDEST JUMPDEST DUP3 DUP3 ADD SWAP1 POP SWAP3 SWAP2 POP POP JUMP JUMPDEST PUSH1 0x0 PUSH2 0x105C DUP3 PUSH2 0x10C0 JUMP JUMPDEST SWAP2 POP PUSH2 0x1067 DUP4 PUSH2 0x10C0 JUMP JUMPDEST SWAP3 POP DUP3 PUSH2 0x1077 JUMPI PUSH2 0x1076 PUSH2 0x11E7 JUMP JUMPDEST JUMPDEST DUP3 DUP3 DIV SWAP1 POP SWAP3 SWAP2 POP POP JUMP JUMPDEST PUSH1 0x0 PUSH2 0x108D DUP3 PUSH2 0x10A0 JUMP JUMPDEST SWAP1 POP SWAP2 SWAP1 POP JUMP JUMPDEST PUSH1 0x0 DUP2 ISZERO ISZERO SWAP1 POP SWAP2 SWAP1 POP JUMP JUMPDEST PUSH1 0x0 PUSH20 0xFFFFFFFFFFFFFFFFFFFFFFFFFFFFFFFFFFFFFFFF DUP3 AND SWAP1 POP SWAP2 SWAP1 POP JUMP JUMPDEST PUSH1 0x0 DUP2 SWAP1 POP SWAP2 SWAP1 POP JUMP JUMPDEST DUP3 DUP2 DUP4 CALLDATACOPY PUSH1 0x0 DUP4 DUP4 ADD MSTORE POP POP POP JUMP JUMPDEST PUSH1 0x0 JUMPDEST DUP4 DUP2 LT ISZERO PUSH2 0x10F7 JUMPI DUP1 DUP3 ADD MLOAD DUP2 DUP5 ADD MSTORE PUSH1 0x20 DUP2 ADD SWAP1 POP PUSH2 0x10DC JUMP JUMPDEST DUP4 DUP2 GT ISZERO PUSH2 0x1106 JUMPI PUSH1 0x0 DUP5 DUP5 ADD MSTORE JUMPDEST POP POP POP POP JUMP JUMPDEST PUSH1 0x0 PUSH1 0x2 DUP3 DIV SWAP1 POP PUSH1 0x1 DUP3 AND DUP1 PUSH2 0x1124 JUMPI PUSH1 0x7F DUP3 AND SWAP2 POP JUMPDEST PUSH1 0x20 DUP3 LT DUP2 EQ ISZERO PUSH2 0x1138 JUMPI PUSH2 0x1137 PUSH2 0x1216 JUMP JUMPDEST JUMPDEST POP SWAP2 SWAP1 POP JUMP JUMPDEST PUSH2 0x1147 DUP3 PUSH2 0x1274 JUMP JUMPDEST DUP2 ADD DUP2 DUP2 LT PUSH8 0xFFFFFFFFFFFFFFFF DUP3 GT OR ISZERO PUSH2 0x1166 JUMPI PUSH2 0x1165 PUSH2 0x1245 JUMP JUMPDEST JUMPDEST DUP1 PUSH1 0x40 MSTORE POP POP POP JUMP JUMPDEST PUSH1 0x0 PUSH2 0x117A DUP3 PUSH2 0x10C0 JUMP JUMPDEST SWAP2 POP PUSH32 0xFFFFFFFFFFFFFFFFFFFFFFFFFFFFFFFFFFFFFFFFFFFFFFFFFFFFFFFFFFFFFFFF DUP3 EQ ISZERO PUSH2 0x11AD JUMPI PUSH2 0x11AC PUSH2 0x11B8 JUMP JUMPDEST JUMPDEST PUSH1 0x1 DUP3 ADD SWAP1 POP SWAP2 SWAP1 POP JUMP JUMPDEST PUSH32 0x4E487B7100000000000000000000000000000000000000000000000000000000 PUSH1 0x0 MSTORE PUSH1 0x11 PUSH1 0x4 MSTORE PUSH1 0x24 PUSH1 0x0 REVERT JUMPDEST PUSH32 0x4E487B7100000000000000000000000000000000000000000000000000000000 PUSH1 0x0 MSTORE PUSH1 0x12 PUSH1 0x4 MSTORE PUSH1 0x24 PUSH1 0x0 REVERT JUMPDEST PUSH32 0x4E487B7100000000000000000000000000000000000000000000000000000000 PUSH1 0x0 MSTORE PUSH1 0x22 PUSH1 0x4 MSTORE PUSH1 0x24 PUSH1 0x0 REVERT JUMPDEST PUSH32 0x4E487B7100000000000000000000000000000000000000000000000000000000 PUSH1 0x0 MSTORE PUSH1 0x41 PUSH1 0x4 MSTORE PUSH1 0x24 PUSH1 0x0 REVERT JUMPDEST PUSH1 0x0 PUSH1 0x1F NOT PUSH1 0x1F DUP4 ADD AND SWAP1 POP SWAP2 SWAP1 POP JUMP JUMPDEST PUSH2 0x128E DUP2 PUSH2 0x1082 JUMP JUMPDEST DUP2 EQ PUSH2 0x1299 JUMPI PUSH1 0x0 DUP1 REVERT JUMPDEST POP JUMP JUMPDEST PUSH2 0x12A5 DUP2 PUSH2 0x10C0 JUMP JUMPDEST DUP2 EQ PUSH2 0x12B0 JUMPI PUSH1 0x0 DUP1 REVERT JUMPDEST POP JUMP INVALID LOG2 PUSH5 0x6970667358 0x22 SLT KECCAK256 0xE7 PUSH15 0xC06A24FFE2EF9153C8E7342F74CB73 SMOD SUB 0xD7 SWAP4 0xCE SWAP15 PUSH4 0xE0F1576B 0xA7 SMOD LOG0 0xC7 PUSH5 0x736F6C6343 STOP ADDMOD DIV STOP CALLER LOG2 PUSH5 0x6970667358 0x22 SLT KECCAK256 PUSH31 0x6AB0E035C90054860EFF992AA39C64F356D528E61084AC34FF4047DF209D7B PUSH5 0x736F6C6343 STOP ADDMOD DIV STOP CALLER "},"gasEstimates":{"creation":{"codeDepositCost":"1947600","executionCost":"2062","totalCost":"1949662"},"external":{"campaigns(uint256)":"infinite","createCampaign(uint256,uint256,string,string)":"infinite","deployedCampaigns(uint256)":"2356","getDeployedContracts()":"infinite"}},"methodIdentifiers":{"campaigns(uint256)":"141961bc","createCampaign(uint256,uint256,string,string)":"b63e0eb0","deployedCampaigns(uint256)":"339d50a5","getDeployedContracts()":"aa9a068f"}},"storageLayout":{"storage":[{"astId":4,"contract":"campaign.sol:CampaignFactory","label":"deployedCampaigns","offset":0,"slot":"0","type":"t_array(t_address)dyn_storage"},{"astId":19,"contract":"campaign.sol:CampaignFactory","label":"campaigns","offset":0,"slot":"1","type":"t_array(t_struct(campaignDeploy)15_storage)dyn_storage"}],"types":{"t_address":{"encoding":"inplace","label":"address","numberOfBytes":"20"},"t_array(t_address)dyn_storage":{"base":"t_address","encoding":"dynamic_array","label":"address[]","numberOfBytes":"32"},"t_array(t_struct(campaignDeploy)15_storage)dyn_storage":{"base":"t_struct(campaignDeploy)15_storage","encoding":"dynamic_array","label":"struct CampaignFactory.campaignDeploy[]","numberOfBytes":"32"},"t_string_storage":{"encoding":"bytes","label":"string","numberOfBytes":"32"},"t_struct(campaignDeploy)15_storage":{"encoding":"inplace","label":"struct CampaignFactory.campaignDeploy","members":[{"astId":6,"contract":"campaign.sol:CampaignFactory","label":"campaign","offset":0,"slot":"0","type":"t_address"},{"astId":8,"contract":"campaign.sol:CampaignFactory","label":"title","offset":0,"slot":"1","type":"t_string_storage"},{"astId":10,"contract":"campaign.sol:CampaignFactory","label":"goal","offset":0,"slot":"2","type":"t_uint256"},{"astId":12,"contract":"campaign.sol:CampaignFactory","label":"description","offset":0,"slot":"3","type":"t_string_storage"},{"astId":14,"contract":"campaign.sol:CampaignFactory","label":"totalContribution","offset":0,"slot":"4","type":"t_uint256"}],"numberOfBytes":"160"},"t_uint256":{"encoding":"inplace","label":"uint256","numberOfBytes":"32"}}},"userdoc":{"kind":"user","methods":{},"version":1}}